{
  "_format": "hh-sol-artifact-1",
  "contractName": "DungeonMarketplace",
  "sourceName": "contracts/current/marketplace/DungeonMarketplace.sol",
  "abi": [
    {
      "inputs": [
        {
          "internalType": "address",
          "name": "_soulToken",
          "type": "address"
        },
        {
          "internalType": "address",
          "name": "_feeRecipient",
          "type": "address"
        },
        {
          "internalType": "address[]",
          "name": "_nftContracts",
          "type": "address[]"
        }
      ],
      "stateMutability": "nonpayable",
      "type": "constructor"
    },
    {
      "inputs": [
        {
          "internalType": "address",
          "name": "owner",
          "type": "address"
        }
      ],
      "name": "OwnableInvalidOwner",
      "type": "error"
    },
    {
      "inputs": [
        {
          "internalType": "address",
          "name": "account",
          "type": "address"
        }
      ],
      "name": "OwnableUnauthorizedAccount",
      "type": "error"
    },
    {
      "inputs": [],
      "name": "ReentrancyGuardReentrantCall",
      "type": "error"
    },
    {
      "anonymous": false,
      "inputs": [
        {
          "indexed": false,
          "internalType": "address",
          "name": "oldRecipient",
          "type": "address"
        },
        {
          "indexed": false,
          "internalType": "address",
          "name": "newRecipient",
          "type": "address"
        }
      ],
      "name": "FeeRecipientUpdated",
      "type": "event"
    },
    {
      "anonymous": false,
      "inputs": [
        {
          "indexed": true,
          "internalType": "uint256",
          "name": "listingId",
          "type": "uint256"
        },
        {
          "indexed": true,
          "internalType": "address",
          "name": "seller",
          "type": "address"
        }
      ],
      "name": "ListingCancelled",
      "type": "event"
    },
    {
      "anonymous": false,
      "inputs": [
        {
          "indexed": true,
          "internalType": "uint256",
          "name": "listingId",
          "type": "uint256"
        },
        {
          "indexed": true,
          "internalType": "address",
          "name": "seller",
          "type": "address"
        },
        {
          "indexed": true,
          "internalType": "enum DungeonMarketplace.NFTType",
          "name": "nftType",
          "type": "uint8"
        },
        {
          "indexed": false,
          "internalType": "address",
          "name": "nftContract",
          "type": "address"
        },
        {
          "indexed": false,
          "internalType": "uint256",
          "name": "tokenId",
          "type": "uint256"
        },
        {
          "indexed": false,
          "internalType": "uint256",
          "name": "price",
          "type": "uint256"
        }
      ],
      "name": "ListingCreated",
      "type": "event"
    },
    {
      "anonymous": false,
      "inputs": [
        {
          "indexed": true,
          "internalType": "uint256",
          "name": "listingId",
          "type": "uint256"
        },
        {
          "indexed": false,
          "internalType": "uint256",
          "name": "oldPrice",
          "type": "uint256"
        },
        {
          "indexed": false,
          "internalType": "uint256",
          "name": "newPrice",
          "type": "uint256"
        }
      ],
      "name": "ListingPriceUpdated",
      "type": "event"
    },
    {
      "anonymous": false,
      "inputs": [
        {
          "indexed": true,
          "internalType": "uint256",
          "name": "listingId",
          "type": "uint256"
        },
        {
          "indexed": true,
          "internalType": "address",
          "name": "seller",
          "type": "address"
        },
        {
          "indexed": true,
          "internalType": "address",
          "name": "buyer",
          "type": "address"
        },
        {
          "indexed": false,
          "internalType": "uint256",
          "name": "price",
          "type": "uint256"
        },
        {
          "indexed": false,
          "internalType": "uint256",
          "name": "platformFeeAmount",
          "type": "uint256"
        }
      ],
      "name": "ListingSold",
      "type": "event"
    },
    {
      "anonymous": false,
      "inputs": [
        {
          "indexed": true,
          "internalType": "address",
          "name": "nftContract",
          "type": "address"
        },
        {
          "indexed": false,
          "internalType": "bool",
          "name": "approved",
          "type": "bool"
        }
      ],
      "name": "NFTContractApproved",
      "type": "event"
    },
    {
      "anonymous": false,
      "inputs": [
        {
          "indexed": true,
          "internalType": "address",
          "name": "previousOwner",
          "type": "address"
        },
        {
          "indexed": true,
          "internalType": "address",
          "name": "newOwner",
          "type": "address"
        }
      ],
      "name": "OwnershipTransferred",
      "type": "event"
    },
    {
      "anonymous": false,
      "inputs": [
        {
          "indexed": false,
          "internalType": "uint256",
          "name": "oldFee",
          "type": "uint256"
        },
        {
          "indexed": false,
          "internalType": "uint256",
          "name": "newFee",
          "type": "uint256"
        }
      ],
      "name": "PlatformFeeUpdated",
      "type": "event"
    },
    {
      "inputs": [],
      "name": "MAX_FEE",
      "outputs": [
        {
          "internalType": "uint256",
          "name": "",
          "type": "uint256"
        }
      ],
      "stateMutability": "view",
      "type": "function"
    },
    {
      "inputs": [
        {
          "internalType": "address",
          "name": "",
          "type": "address"
        }
      ],
      "name": "approvedNFTContracts",
      "outputs": [
        {
          "internalType": "bool",
          "name": "",
          "type": "bool"
        }
      ],
      "stateMutability": "view",
      "type": "function"
    },
    {
      "inputs": [
        {
          "internalType": "uint256",
          "name": "listingId",
          "type": "uint256"
        }
      ],
      "name": "cancelListing",
      "outputs": [],
      "stateMutability": "nonpayable",
      "type": "function"
    },
    {
      "inputs": [
        {
          "internalType": "enum DungeonMarketplace.NFTType",
          "name": "nftType",
          "type": "uint8"
        },
        {
          "internalType": "address",
          "name": "nftContract",
          "type": "address"
        },
        {
          "internalType": "uint256",
          "name": "tokenId",
          "type": "uint256"
        },
        {
          "internalType": "uint256",
          "name": "price",
          "type": "uint256"
        }
      ],
      "name": "createListing",
      "outputs": [],
      "stateMutability": "nonpayable",
      "type": "function"
    },
    {
      "inputs": [
        {
          "internalType": "uint256",
          "name": "listingId",
          "type": "uint256"
        }
      ],
      "name": "emergencyCancelListing",
      "outputs": [],
      "stateMutability": "nonpayable",
      "type": "function"
    },
    {
      "inputs": [],
      "name": "feeRecipient",
      "outputs": [
        {
          "internalType": "address",
          "name": "",
          "type": "address"
        }
      ],
      "stateMutability": "view",
      "type": "function"
    },
    {
      "inputs": [],
      "name": "getCurrentListingId",
      "outputs": [
        {
          "internalType": "uint256",
          "name": "",
          "type": "uint256"
        }
      ],
      "stateMutability": "view",
      "type": "function"
    },
    {
      "inputs": [
        {
          "internalType": "uint256",
          "name": "listingId",
          "type": "uint256"
        }
      ],
      "name": "getListing",
      "outputs": [
        {
          "components": [
            {
              "internalType": "uint256",
              "name": "id",
              "type": "uint256"
            },
            {
              "internalType": "address",
              "name": "seller",
              "type": "address"
            },
            {
              "internalType": "enum DungeonMarketplace.NFTType",
              "name": "nftType",
              "type": "uint8"
            },
            {
              "internalType": "address",
              "name": "nftContract",
              "type": "address"
            },
            {
              "internalType": "uint256",
              "name": "tokenId",
              "type": "uint256"
            },
            {
              "internalType": "uint256",
              "name": "price",
              "type": "uint256"
            },
            {
              "internalType": "enum DungeonMarketplace.ListingStatus",
              "name": "status",
              "type": "uint8"
            },
            {
              "internalType": "uint256",
              "name": "createdAt",
              "type": "uint256"
            },
            {
              "internalType": "uint256",
              "name": "updatedAt",
              "type": "uint256"
            }
          ],
          "internalType": "struct DungeonMarketplace.Listing",
          "name": "",
          "type": "tuple"
        }
      ],
      "stateMutability": "view",
      "type": "function"
    },
    {
      "inputs": [
        {
          "internalType": "address",
          "name": "user",
          "type": "address"
        }
      ],
      "name": "getUserListings",
      "outputs": [
        {
          "internalType": "uint256[]",
          "name": "",
          "type": "uint256[]"
        }
      ],
      "stateMutability": "view",
      "type": "function"
    },
    {
      "inputs": [
        {
          "internalType": "uint256",
          "name": "listingId",
          "type": "uint256"
        }
      ],
      "name": "isListingValid",
      "outputs": [
        {
          "internalType": "bool",
          "name": "",
          "type": "bool"
        }
      ],
      "stateMutability": "view",
      "type": "function"
    },
    {
      "inputs": [
        {
          "internalType": "uint256",
          "name": "",
          "type": "uint256"
        }
      ],
      "name": "listings",
      "outputs": [
        {
          "internalType": "uint256",
          "name": "id",
          "type": "uint256"
        },
        {
          "internalType": "address",
          "name": "seller",
          "type": "address"
        },
        {
          "internalType": "enum DungeonMarketplace.NFTType",
          "name": "nftType",
          "type": "uint8"
        },
        {
          "internalType": "address",
          "name": "nftContract",
          "type": "address"
        },
        {
          "internalType": "uint256",
          "name": "tokenId",
          "type": "uint256"
        },
        {
          "internalType": "uint256",
          "name": "price",
          "type": "uint256"
        },
        {
          "internalType": "enum DungeonMarketplace.ListingStatus",
          "name": "status",
          "type": "uint8"
        },
        {
          "internalType": "uint256",
          "name": "createdAt",
          "type": "uint256"
        },
        {
          "internalType": "uint256",
          "name": "updatedAt",
          "type": "uint256"
        }
      ],
      "stateMutability": "view",
      "type": "function"
    },
    {
      "inputs": [],
      "name": "owner",
      "outputs": [
        {
          "internalType": "address",
          "name": "",
          "type": "address"
        }
      ],
      "stateMutability": "view",
      "type": "function"
    },
    {
      "inputs": [],
      "name": "platformFee",
      "outputs": [
        {
          "internalType": "uint256",
          "name": "",
          "type": "uint256"
        }
      ],
      "stateMutability": "view",
      "type": "function"
    },
    {
      "inputs": [
        {
          "internalType": "uint256",
          "name": "listingId",
          "type": "uint256"
        }
      ],
      "name": "purchaseNFT",
      "outputs": [],
      "stateMutability": "nonpayable",
      "type": "function"
    },
    {
      "inputs": [],
      "name": "renounceOwnership",
      "outputs": [],
      "stateMutability": "nonpayable",
      "type": "function"
    },
    {
      "inputs": [
        {
          "internalType": "address",
          "name": "newRecipient",
          "type": "address"
        }
      ],
      "name": "setFeeRecipient",
      "outputs": [],
      "stateMutability": "nonpayable",
      "type": "function"
    },
    {
      "inputs": [
        {
          "internalType": "address",
          "name": "nftContract",
          "type": "address"
        },
        {
          "internalType": "bool",
          "name": "approved",
          "type": "bool"
        }
      ],
      "name": "setNFTContractApproval",
      "outputs": [],
      "stateMutability": "nonpayable",
      "type": "function"
    },
    {
      "inputs": [
        {
          "internalType": "uint256",
          "name": "newFee",
          "type": "uint256"
        }
      ],
      "name": "setPlatformFee",
      "outputs": [],
      "stateMutability": "nonpayable",
      "type": "function"
    },
    {
      "inputs": [],
      "name": "soulToken",
      "outputs": [
        {
          "internalType": "contract IERC20",
          "name": "",
          "type": "address"
        }
      ],
      "stateMutability": "view",
      "type": "function"
    },
    {
      "inputs": [
        {
          "internalType": "address",
          "name": "newOwner",
          "type": "address"
        }
      ],
      "name": "transferOwnership",
      "outputs": [],
      "stateMutability": "nonpayable",
      "type": "function"
    },
    {
      "inputs": [
        {
          "internalType": "uint256",
          "name": "listingId",
          "type": "uint256"
        },
        {
          "internalType": "uint256",
          "name": "newPrice",
          "type": "uint256"
        }
      ],
      "name": "updateListingPrice",
      "outputs": [],
      "stateMutability": "nonpayable",
      "type": "function"
    },
    {
      "inputs": [
        {
          "internalType": "address",
          "name": "",
          "type": "address"
        },
        {
          "internalType": "uint256",
          "name": "",
          "type": "uint256"
        }
      ],
      "name": "userListings",
      "outputs": [
        {
          "internalType": "uint256",
          "name": "",
          "type": "uint256"
        }
      ],
      "stateMutability": "view",
      "type": "function"
    }
  ],
  "bytecode": "0x604060a0815234620002ad576200199390813803806200001f81620002c8565b9384398201606083820312620002ad576200003a83620002ee565b6020916200004a838601620002ee565b858501516001600160401b0396919291878211620002ad570181601f82011215620002ad578051968711620002b2578660051b9085806200008d818501620002c8565b809a81520192820101928311620002ad5785809101915b83831062000292575050505060019260009284845533156200027a578454336001600160a01b03198083168217885588519990956001600160a01b03949193909285929183167f8be0079c531659141344cd1fd0a4f28419497f9722a3daafe3b4186f6b6457e08a80a360fa6003551698891562000238575082168015620001f457869860805260049485541617845584975b62000163575b865161166490816200032f8239608051818181610ba701528181610cf60152610e7e0152f35b8051881015620001ee57816200017a898362000303565b5116855260068352868520805460ff191687179055816200019c898362000303565b51167fd0e189b4a2f825c9b8f1d51ccf0a5372a27616a07c3c9da092dd64b6e487caf1848951898152a26000198814620001db57968501968562000137565b634e487b7160e01b855260118452602485fd5b6200013d565b875162461bcd60e51b815260048101859052601560248201527f496e76616c69642066656520726563697069656e7400000000000000000000006044820152606490fd5b62461bcd60e51b815260048101859052601a60248201527f496e76616c696420534f554c20746f6b656e20616464726573730000000000006044820152606490fd5b8551631e4fbdf760e01b815260048101859052602490fd5b81906200029f84620002ee565b8152019101908590620000a4565b600080fd5b634e487b7160e01b600052604160045260246000fd5b6040519190601f01601f191682016001600160401b03811183821017620002b257604052565b51906001600160a01b0382168203620002ad57565b8051821015620003185760209160051b010190565b634e487b7160e01b600052603260045260246000fdfe6080604052600436101561001257600080fd5b6000803560e01c80630d9cfe5e14611232578063107a274a146110e657806312e8e2c314611052578063150bde0314610bf457806326232a2e14610bd65780632d5f4a1e14610b91578063305a67a814610b0b57806342ca57d11461068b578063469048401461066257806350b6541414610623578063715018a6146105c5578063732533871461059c57806386cfa7d3146105465780638da5cb5b1461051d578063bc063e1a14610500578063be9ad61e146104e2578063c460494314610447578063c56370e9146103be578063de74e57b14610318578063e74b981b14610253578063eb18a9d8146101a15763f2fde38b1461010f57600080fd5b3461019e57602036600319011261019e576101286112fd565b610130611361565b6001600160a01b0390811690811561018557600154826bffffffffffffffffffffffff60a01b821617600155167f8be0079c531659141344cd1fd0a4f28419497f9722a3daafe3b4186f6b6457e0600080a380f35b604051631e4fbdf760e01b815260048101849052602490fd5b80fd5b503461019e5760208060031936011261024f576001600160a01b036101c46112fd565b168252600781526040822060405192838383549182815201908193835284832090835b81811061023b57505050846101fd91038561140c565b60405193838594850191818652518092526040850193925b82811061022457505050500390f35b835185528695509381019392810192600101610215565b8254845292860192600192830192016101e7565b5080fd5b503461019e57602036600319011261019e5761026d6112fd565b610275611361565b6001600160a01b0381811680156102df57600480546001600160a01b03198116929092179055604080516001600160a01b0393909216831682529290911660208201527faaebcf1bfa00580e41d966056b48521fa9f202645c86d4ddf28113e617c1b1d39190a180f35b60405162461bcd60e51b8152602060048201526011602482015270125b9d985b1a59081c9958da5c1a595b9d607a1b6044820152606490fd5b503461019e57602036600319011261019e57604061012091600435815260056020522080549060018101549060ff8260a01c1660018060a01b03908160028401541660038401549060048501549260ff600587015416946007600688015497015497604051998a5216602089015261038f81611313565b60408801526060870152608086015260a08501526103ac81611313565b60c084015260e0830152610100820152f35b503461019e57602036600319011261019e576004356103db611361565b808252600560205260408220600581016002815461040560ff82166103ff81611313565b15611488565b60ff1916179055426007820155600101546001600160a01b0316907f8e25282255ab31897df2b0456bb993ac7f84d376861aefd84901d2d63a7428a28380a380f35b503461019e57604036600319011261019e576004357f36cfe22dfcf2d3781d9de6b307d67a5431b45492dad5e70e53dd4af34c25b84960406024358385526005602052818520906104a560018060a01b0360018401541633146114c9565b6104b960ff6005840154166103ff81611313565b6104c481151561138d565b6004820191818354935560074291015582519182526020820152a280f35b503461019e578060031936011261019e576020600254604051908152f35b503461019e578060031936011261019e5760206040516103e88152f35b503461019e578060031936011261019e576001546040516001600160a01b039091168152602090f35b503461019e57604036600319011261019e576105606112fd565b6001600160a01b031681526007602052604081208054602435929083101561019e57602061058e8484611333565b90546040519160031b1c8152f35b503461019e57602036600319011261019e5760206105bb600435611506565b6040519015158152f35b503461019e578060031936011261019e576105de611361565b600180546001600160a01b031981169091556000906001600160a01b03167f8be0079c531659141344cd1fd0a4f28419497f9722a3daafe3b4186f6b6457e08280a380f35b503461019e57602036600319011261019e5760209060ff906040906001600160a01b0361064e6112fd565b168152600684522054166040519015158152f35b503461019e578060031936011261019e576004546040516001600160a01b039091168152602090f35b503461019e57608036600319011261019e576003600435101561019e576024356001600160a01b0381168103610b06576106c3611465565b6001600160a01b03811682526006602052604082205460ff1615610ac1576106ee606435151561138d565b6040516331a9108f60e11b815260443560048201526020816024816001600160a01b0386165afa908115610a33578391610aa2575b50336001600160a01b0390911603610a6d5760405163e985e9c560e01b81523360048201523060248201526020816044816001600160a01b0386165afa908115610a33578391610a3e575b5080156109bd575b15610978576002546000198114610964576001810160025560405161079a816113d9565b60018201815260076020820133815260408301906107b9600435611313565b60043582526060840160018060a01b038716815260808501604435815260a0860190606435825260c08701928a845260e088019442865261010089019642885260018b018d52600560205260408d2099518a5560018a019160018060a01b039051168254915161082881611313565b61083181611313565b6001600160a81b03199092161760a09190911b60ff60a01b16179055516002880180546001600160a01b0319166001600160a01b039290921691909117905551600387015551600486015551600585019061088b81611313565b61089481611313565b60ff80198354169116179055516006840155519101553383526007602052604083208054906801000000000000000082101561095057906108da91600182018155611333565b81549060031b9060018401821b91600019901b19161790556108fd600435611313565b6040519160018060a01b0316825260443560208301526064356040830152600435917f44d68946436fa2a8a9c3b1dfb63d74967ac6295d1e8fec2173e4019caf6a814a6060600133940192a46001815580f35b634e487b7160e01b85526041600452602485fd5b634e487b7160e01b83526011600452602483fd5b60405162461bcd60e51b815260206004820152601860248201527f4d61726b6574706c616365206e6f7420617070726f76656400000000000000006044820152606490fd5b5060405163020604bf60e21b815260443560048201526020816024816001600160a01b0386165afa908115610a33578391610a04575b506001600160a01b03163014610776565b610a26915060203d602011610a2c575b610a1e818361140c565b81019061142e565b386109f3565b503d610a14565b6040513d85823e3d90fd5b610a60915060203d602011610a66575b610a58818361140c565b81019061144d565b3861076e565b503d610a4e565b60405162461bcd60e51b815260206004820152600d60248201526c2737ba103a34329037bbb732b960991b6044820152606490fd5b610abb915060203d602011610a2c57610a1e818361140c565b38610723565b60405162461bcd60e51b815260206004820152601960248201527f4e465420636f6e7472616374206e6f7420617070726f766564000000000000006044820152606490fd5b600080fd5b503461019e57602036600319011261019e57600435808252600560205260408220610b4360018060a01b0360018301541633146114c9565b6005810160028154610b5b60ff82166103ff81611313565b60ff191617905560074291015533907f8e25282255ab31897df2b0456bb993ac7f84d376861aefd84901d2d63a7428a28380a380f35b503461019e578060031936011261019e576040517f00000000000000000000000000000000000000000000000000000000000000006001600160a01b03168152602090f35b503461019e578060031936011261019e576020600354604051908152f35b503461019e57602036600319011261019e57610c0e611465565b600435815260056020526040812060058101610c3160ff8254166103ff81611313565b6001820180546001600160a01b0316923384146110145760018060a01b03600282015416926003820154604051906331a9108f60e11b82526004820152602081602481885afa8015610e315786918891610ff5575b506001600160a01b031603610fb0576004820193845460035496878202978289041482151715610f9c5761271088048203918211610f9c576040516323b872dd60e01b81523360048201526001600160a01b0390911660248201526044810191909152602081806064810103818b7f00000000000000000000000000000000000000000000000000000000000000006001600160a01b03165af1908115610f2d578891610f7d575b5015610f38576127108604610e40575b8660018060a01b0385541691600385015490803b15610e3c57604051632142170760e11b81526001600160a01b0394909416600485015233602485015260448401919091528290606490829084905af18015610e3157610dff575b50805460ff191660011790554260079091015554905460408051918252612710909304602082015233926001600160a01b039290921691600435917f3bd542e9438f588150e97cc403322cf382f689deeeca87e4fbe5efcf8f7d2ee19190a46001815580f35b67ffffffffffffffff8197929711610e1d5760405294612710610d99565b634e487b7160e01b82526041600452602482fd5b6040513d89823e3d90fd5b8280fd5b600480546040516323b872dd60e01b815233928101929092526001600160a01b0316602482015261271087046044820152602081806064810103818b7f00000000000000000000000000000000000000000000000000000000000000006001600160a01b03165af1908115610f2d578891610f0e575b50610d3e5760405162461bcd60e51b815260206004820152602560248201527f534f554c207472616e7366657220746f2066656520726563697069656e742066604482015264185a5b195960da1b6064820152608490fd5b610f27915060203d602011610a6657610a58818361140c565b38610eb6565b6040513d8a823e3d90fd5b60405162461bcd60e51b815260206004820152601e60248201527f534f554c207472616e7366657220746f2073656c6c6572206661696c656400006044820152606490fd5b610f96915060203d602011610a6657610a58818361140c565b38610d2e565b634e487b7160e01b89526011600452602489fd5b60405162461bcd60e51b815260206004820152601d60248201527f4e4654206e6f206c6f6e676572206f776e65642062792073656c6c65720000006044820152606490fd5b61100e915060203d602011610a2c57610a1e818361140c565b38610c86565b60405162461bcd60e51b815260206004820152601660248201527543616e6e6f7420627579206f776e206c697374696e6760501b6044820152606490fd5b503461019e57602036600319011261019e5760043561106f611361565b6103e881116110b25760407fd347e206f25a89b917fc9482f1a2d294d749baa4dc9bde7fb495ee11fe49164391600354908060035582519182526020820152a180f35b60405162461bcd60e51b815260206004820152600c60248201526b08ccaca40e8dede40d0d2ced60a31b6044820152606490fd5b503461019e57602036600319011261019e5761012090604080519161110a836113d9565b80835280602084015280828401528060608401528060808401528060a08401528060c08401528060e0840152806101008094015260043581526005602052209060405191611157836113d9565b8054835260018101546001600160a01b0380821660208601908152929160408601919060a01c60ff1661118981611313565b82528060028401541690606087019182526003840154906080880191825260048501549260a0890193845260ff6005870154169460c08a01956111cb81611313565b865282600760068901549860e08d01998a520154988a8c01998a526040519b518c52511660208b0152516111fe81611313565b60408a0152511660608801525160808701525160a08601525161122081611313565b60c08501525160e08401525190820152f35b503461019e57604036600319011261019e5761124c6112fd565b60243590811515809203610e3c57611262611361565b6001600160a01b03169081156112b85760207fd0e189b4a2f825c9b8f1d51ccf0a5372a27616a07c3c9da092dd64b6e487caf191838552600682526040852060ff1981541660ff8316179055604051908152a280f35b60405162461bcd60e51b815260206004820152601860248201527f496e76616c696420636f6e7472616374206164647265737300000000000000006044820152606490fd5b600435906001600160a01b0382168203610b0657565b6003111561131d57565b634e487b7160e01b600052602160045260246000fd5b805482101561134b5760005260206000200190600090565b634e487b7160e01b600052603260045260246000fd5b6001546001600160a01b0316330361137557565b60405163118cdaa760e01b8152336004820152602490fd5b1561139457565b60405162461bcd60e51b815260206004820152601c60248201527f5072696365206d7573742062652067726561746572207468616e2030000000006044820152606490fd5b610120810190811067ffffffffffffffff8211176113f657604052565b634e487b7160e01b600052604160045260246000fd5b90601f8019910116810190811067ffffffffffffffff8211176113f657604052565b90816020910312610b0657516001600160a01b0381168103610b065790565b90816020910312610b0657518015158103610b065790565b600260005414611476576002600055565b604051633ee5aeb560e01b8152600490fd5b1561148f57565b60405162461bcd60e51b81526020600482015260126024820152714c697374696e67206e6f742061637469766560701b6044820152606490fd5b156114d057565b60405162461bcd60e51b815260206004820152600e60248201526d2737ba103a34329039b2b63632b960911b6044820152606490fd5b6000526005602052604060002060405190611520826113d9565b8054825260018101546001600160a01b03808216602085019081529092909160a01c60ff1661154e81611313565b604085015282600282015416906060850191825260038101549460808101958652600482015460a0820152610100600760ff6005850154169361159085611313565b8460c0850152600681015460e085015201549101526115ae81611313565b6115b781611313565b6116255782602091511693516024604051809681936331a9108f60e11b835260048301525afa928315611619576000936115f7575b508190511691161490565b829193506116129060203d8111610a2c57610a1e818361140c565b92906115ec565b6040513d6000823e3d90fd5b5050505060009056fea2646970667358221220ba56c4a924f411a70857ac4aec1f665ced80a58460cbcd7e598174aa583a46f764736f6c63430008140033",
  "linkReferences": {},
  "deployedLinkReferences": {}
}