{
  "_format": "hh-sol-artifact-1",
  "contractName": "OfferSystem",
  "sourceName": "contracts/current/marketplace/OfferSystem.sol",
  "abi": [
    {
      "inputs": [
        {
          "internalType": "address",
          "name": "_soulToken",
          "type": "address"
        },
        {
          "internalType": "address",
          "name": "_feeRecipient",
          "type": "address"
        },
        {
          "internalType": "address[]",
          "name": "_nftContracts",
          "type": "address[]"
        }
      ],
      "stateMutability": "nonpayable",
      "type": "constructor"
    },
    {
      "inputs": [
        {
          "internalType": "address",
          "name": "owner",
          "type": "address"
        }
      ],
      "name": "OwnableInvalidOwner",
      "type": "error"
    },
    {
      "inputs": [
        {
          "internalType": "address",
          "name": "account",
          "type": "address"
        }
      ],
      "name": "OwnableUnauthorizedAccount",
      "type": "error"
    },
    {
      "inputs": [],
      "name": "ReentrancyGuardReentrantCall",
      "type": "error"
    },
    {
      "anonymous": false,
      "inputs": [
        {
          "indexed": false,
          "internalType": "address",
          "name": "oldRecipient",
          "type": "address"
        },
        {
          "indexed": false,
          "internalType": "address",
          "name": "newRecipient",
          "type": "address"
        }
      ],
      "name": "FeeRecipientUpdated",
      "type": "event"
    },
    {
      "anonymous": false,
      "inputs": [
        {
          "indexed": true,
          "internalType": "address",
          "name": "nftContract",
          "type": "address"
        },
        {
          "indexed": false,
          "internalType": "bool",
          "name": "approved",
          "type": "bool"
        }
      ],
      "name": "NFTContractApproved",
      "type": "event"
    },
    {
      "anonymous": false,
      "inputs": [
        {
          "indexed": true,
          "internalType": "uint256",
          "name": "offerId",
          "type": "uint256"
        },
        {
          "indexed": true,
          "internalType": "address",
          "name": "buyer",
          "type": "address"
        },
        {
          "indexed": true,
          "internalType": "address",
          "name": "seller",
          "type": "address"
        },
        {
          "indexed": false,
          "internalType": "uint256",
          "name": "amount",
          "type": "uint256"
        },
        {
          "indexed": false,
          "internalType": "uint256",
          "name": "platformFeeAmount",
          "type": "uint256"
        }
      ],
      "name": "OfferAccepted",
      "type": "event"
    },
    {
      "anonymous": false,
      "inputs": [
        {
          "indexed": true,
          "internalType": "uint256",
          "name": "offerId",
          "type": "uint256"
        },
        {
          "indexed": true,
          "internalType": "address",
          "name": "buyer",
          "type": "address"
        }
      ],
      "name": "OfferCancelled",
      "type": "event"
    },
    {
      "anonymous": false,
      "inputs": [
        {
          "indexed": true,
          "internalType": "uint256",
          "name": "offerId",
          "type": "uint256"
        },
        {
          "indexed": true,
          "internalType": "address",
          "name": "buyer",
          "type": "address"
        },
        {
          "indexed": true,
          "internalType": "address",
          "name": "seller",
          "type": "address"
        },
        {
          "indexed": false,
          "internalType": "enum OfferSystem.NFTType",
          "name": "nftType",
          "type": "uint8"
        },
        {
          "indexed": false,
          "internalType": "address",
          "name": "nftContract",
          "type": "address"
        },
        {
          "indexed": false,
          "internalType": "uint256",
          "name": "tokenId",
          "type": "uint256"
        },
        {
          "indexed": false,
          "internalType": "uint256",
          "name": "amount",
          "type": "uint256"
        },
        {
          "indexed": false,
          "internalType": "uint256",
          "name": "expiresAt",
          "type": "uint256"
        },
        {
          "indexed": false,
          "internalType": "string",
          "name": "message",
          "type": "string"
        }
      ],
      "name": "OfferCreated",
      "type": "event"
    },
    {
      "anonymous": false,
      "inputs": [
        {
          "indexed": true,
          "internalType": "uint256",
          "name": "offerId",
          "type": "uint256"
        },
        {
          "indexed": true,
          "internalType": "address",
          "name": "seller",
          "type": "address"
        }
      ],
      "name": "OfferDeclined",
      "type": "event"
    },
    {
      "anonymous": false,
      "inputs": [
        {
          "indexed": true,
          "internalType": "uint256",
          "name": "offerId",
          "type": "uint256"
        }
      ],
      "name": "OfferExpired",
      "type": "event"
    },
    {
      "anonymous": false,
      "inputs": [
        {
          "indexed": true,
          "internalType": "address",
          "name": "previousOwner",
          "type": "address"
        },
        {
          "indexed": true,
          "internalType": "address",
          "name": "newOwner",
          "type": "address"
        }
      ],
      "name": "OwnershipTransferred",
      "type": "event"
    },
    {
      "anonymous": false,
      "inputs": [
        {
          "indexed": false,
          "internalType": "uint256",
          "name": "oldFee",
          "type": "uint256"
        },
        {
          "indexed": false,
          "internalType": "uint256",
          "name": "newFee",
          "type": "uint256"
        }
      ],
      "name": "PlatformFeeUpdated",
      "type": "event"
    },
    {
      "inputs": [],
      "name": "MAX_FEE",
      "outputs": [
        {
          "internalType": "uint256",
          "name": "",
          "type": "uint256"
        }
      ],
      "stateMutability": "view",
      "type": "function"
    },
    {
      "inputs": [
        {
          "internalType": "uint256",
          "name": "offerId",
          "type": "uint256"
        }
      ],
      "name": "acceptOffer",
      "outputs": [],
      "stateMutability": "nonpayable",
      "type": "function"
    },
    {
      "inputs": [
        {
          "internalType": "address",
          "name": "",
          "type": "address"
        }
      ],
      "name": "approvedNFTContracts",
      "outputs": [
        {
          "internalType": "bool",
          "name": "",
          "type": "bool"
        }
      ],
      "stateMutability": "view",
      "type": "function"
    },
    {
      "inputs": [
        {
          "internalType": "uint256",
          "name": "offerId",
          "type": "uint256"
        }
      ],
      "name": "cancelOffer",
      "outputs": [],
      "stateMutability": "nonpayable",
      "type": "function"
    },
    {
      "inputs": [
        {
          "internalType": "uint256",
          "name": "offerId",
          "type": "uint256"
        }
      ],
      "name": "declineOffer",
      "outputs": [],
      "stateMutability": "nonpayable",
      "type": "function"
    },
    {
      "inputs": [
        {
          "internalType": "uint256",
          "name": "offerId",
          "type": "uint256"
        }
      ],
      "name": "emergencyCancelOffer",
      "outputs": [],
      "stateMutability": "nonpayable",
      "type": "function"
    },
    {
      "inputs": [
        {
          "internalType": "uint256",
          "name": "",
          "type": "uint256"
        }
      ],
      "name": "escrowed",
      "outputs": [
        {
          "internalType": "bool",
          "name": "",
          "type": "bool"
        }
      ],
      "stateMutability": "view",
      "type": "function"
    },
    {
      "inputs": [],
      "name": "feeRecipient",
      "outputs": [
        {
          "internalType": "address",
          "name": "",
          "type": "address"
        }
      ],
      "stateMutability": "view",
      "type": "function"
    },
    {
      "inputs": [],
      "name": "getCurrentOfferId",
      "outputs": [
        {
          "internalType": "uint256",
          "name": "",
          "type": "uint256"
        }
      ],
      "stateMutability": "view",
      "type": "function"
    },
    {
      "inputs": [
        {
          "internalType": "address",
          "name": "nftContract",
          "type": "address"
        },
        {
          "internalType": "uint256",
          "name": "tokenId",
          "type": "uint256"
        }
      ],
      "name": "getNFTOffers",
      "outputs": [
        {
          "internalType": "uint256[]",
          "name": "",
          "type": "uint256[]"
        }
      ],
      "stateMutability": "view",
      "type": "function"
    },
    {
      "inputs": [
        {
          "internalType": "uint256",
          "name": "offerId",
          "type": "uint256"
        }
      ],
      "name": "getOffer",
      "outputs": [
        {
          "components": [
            {
              "internalType": "uint256",
              "name": "id",
              "type": "uint256"
            },
            {
              "internalType": "address",
              "name": "buyer",
              "type": "address"
            },
            {
              "internalType": "address",
              "name": "seller",
              "type": "address"
            },
            {
              "internalType": "enum OfferSystem.NFTType",
              "name": "nftType",
              "type": "uint8"
            },
            {
              "internalType": "address",
              "name": "nftContract",
              "type": "address"
            },
            {
              "internalType": "uint256",
              "name": "tokenId",
              "type": "uint256"
            },
            {
              "internalType": "uint256",
              "name": "amount",
              "type": "uint256"
            },
            {
              "internalType": "uint256",
              "name": "expiresAt",
              "type": "uint256"
            },
            {
              "internalType": "enum OfferSystem.OfferStatus",
              "name": "status",
              "type": "uint8"
            },
            {
              "internalType": "uint256",
              "name": "createdAt",
              "type": "uint256"
            },
            {
              "internalType": "string",
              "name": "message",
              "type": "string"
            }
          ],
          "internalType": "struct OfferSystem.Offer",
          "name": "",
          "type": "tuple"
        }
      ],
      "stateMutability": "view",
      "type": "function"
    },
    {
      "inputs": [
        {
          "internalType": "address",
          "name": "user",
          "type": "address"
        }
      ],
      "name": "getUserOffersMade",
      "outputs": [
        {
          "internalType": "uint256[]",
          "name": "",
          "type": "uint256[]"
        }
      ],
      "stateMutability": "view",
      "type": "function"
    },
    {
      "inputs": [
        {
          "internalType": "address",
          "name": "user",
          "type": "address"
        }
      ],
      "name": "getUserOffersReceived",
      "outputs": [
        {
          "internalType": "uint256[]",
          "name": "",
          "type": "uint256[]"
        }
      ],
      "stateMutability": "view",
      "type": "function"
    },
    {
      "inputs": [
        {
          "internalType": "uint256",
          "name": "offerId",
          "type": "uint256"
        }
      ],
      "name": "isOfferValid",
      "outputs": [
        {
          "internalType": "bool",
          "name": "",
          "type": "bool"
        }
      ],
      "stateMutability": "view",
      "type": "function"
    },
    {
      "inputs": [
        {
          "internalType": "address",
          "name": "seller",
          "type": "address"
        },
        {
          "internalType": "enum OfferSystem.NFTType",
          "name": "nftType",
          "type": "uint8"
        },
        {
          "internalType": "address",
          "name": "nftContract",
          "type": "address"
        },
        {
          "internalType": "uint256",
          "name": "tokenId",
          "type": "uint256"
        },
        {
          "internalType": "uint256",
          "name": "amount",
          "type": "uint256"
        },
        {
          "internalType": "uint256",
          "name": "duration",
          "type": "uint256"
        },
        {
          "internalType": "string",
          "name": "message",
          "type": "string"
        }
      ],
      "name": "makeOffer",
      "outputs": [],
      "stateMutability": "nonpayable",
      "type": "function"
    },
    {
      "inputs": [
        {
          "internalType": "uint256[]",
          "name": "offerIds",
          "type": "uint256[]"
        }
      ],
      "name": "markExpiredOffers",
      "outputs": [],
      "stateMutability": "nonpayable",
      "type": "function"
    },
    {
      "inputs": [
        {
          "internalType": "bytes32",
          "name": "",
          "type": "bytes32"
        },
        {
          "internalType": "uint256",
          "name": "",
          "type": "uint256"
        }
      ],
      "name": "nftOffers",
      "outputs": [
        {
          "internalType": "uint256",
          "name": "",
          "type": "uint256"
        }
      ],
      "stateMutability": "view",
      "type": "function"
    },
    {
      "inputs": [
        {
          "internalType": "uint256",
          "name": "",
          "type": "uint256"
        }
      ],
      "name": "offers",
      "outputs": [
        {
          "internalType": "uint256",
          "name": "id",
          "type": "uint256"
        },
        {
          "internalType": "address",
          "name": "buyer",
          "type": "address"
        },
        {
          "internalType": "address",
          "name": "seller",
          "type": "address"
        },
        {
          "internalType": "enum OfferSystem.NFTType",
          "name": "nftType",
          "type": "uint8"
        },
        {
          "internalType": "address",
          "name": "nftContract",
          "type": "address"
        },
        {
          "internalType": "uint256",
          "name": "tokenId",
          "type": "uint256"
        },
        {
          "internalType": "uint256",
          "name": "amount",
          "type": "uint256"
        },
        {
          "internalType": "uint256",
          "name": "expiresAt",
          "type": "uint256"
        },
        {
          "internalType": "enum OfferSystem.OfferStatus",
          "name": "status",
          "type": "uint8"
        },
        {
          "internalType": "uint256",
          "name": "createdAt",
          "type": "uint256"
        },
        {
          "internalType": "string",
          "name": "message",
          "type": "string"
        }
      ],
      "stateMutability": "view",
      "type": "function"
    },
    {
      "inputs": [],
      "name": "owner",
      "outputs": [
        {
          "internalType": "address",
          "name": "",
          "type": "address"
        }
      ],
      "stateMutability": "view",
      "type": "function"
    },
    {
      "inputs": [],
      "name": "platformFee",
      "outputs": [
        {
          "internalType": "uint256",
          "name": "",
          "type": "uint256"
        }
      ],
      "stateMutability": "view",
      "type": "function"
    },
    {
      "inputs": [],
      "name": "renounceOwnership",
      "outputs": [],
      "stateMutability": "nonpayable",
      "type": "function"
    },
    {
      "inputs": [
        {
          "internalType": "address",
          "name": "newRecipient",
          "type": "address"
        }
      ],
      "name": "setFeeRecipient",
      "outputs": [],
      "stateMutability": "nonpayable",
      "type": "function"
    },
    {
      "inputs": [
        {
          "internalType": "address",
          "name": "nftContract",
          "type": "address"
        },
        {
          "internalType": "bool",
          "name": "approved",
          "type": "bool"
        }
      ],
      "name": "setNFTContractApproval",
      "outputs": [],
      "stateMutability": "nonpayable",
      "type": "function"
    },
    {
      "inputs": [
        {
          "internalType": "uint256",
          "name": "newFee",
          "type": "uint256"
        }
      ],
      "name": "setPlatformFee",
      "outputs": [],
      "stateMutability": "nonpayable",
      "type": "function"
    },
    {
      "inputs": [],
      "name": "soulToken",
      "outputs": [
        {
          "internalType": "contract IERC20",
          "name": "",
          "type": "address"
        }
      ],
      "stateMutability": "view",
      "type": "function"
    },
    {
      "inputs": [
        {
          "internalType": "address",
          "name": "newOwner",
          "type": "address"
        }
      ],
      "name": "transferOwnership",
      "outputs": [],
      "stateMutability": "nonpayable",
      "type": "function"
    },
    {
      "inputs": [
        {
          "internalType": "address",
          "name": "",
          "type": "address"
        },
        {
          "internalType": "uint256",
          "name": "",
          "type": "uint256"
        }
      ],
      "name": "userOffersMade",
      "outputs": [
        {
          "internalType": "uint256",
          "name": "",
          "type": "uint256"
        }
      ],
      "stateMutability": "view",
      "type": "function"
    },
    {
      "inputs": [
        {
          "internalType": "address",
          "name": "",
          "type": "address"
        },
        {
          "internalType": "uint256",
          "name": "",
          "type": "uint256"
        }
      ],
      "name": "userOffersReceived",
      "outputs": [
        {
          "internalType": "uint256",
          "name": "",
          "type": "uint256"
        }
      ],
      "stateMutability": "view",
      "type": "function"
    }
  ],
  "bytecode": "0x604060a0815234620002c957620026b290813803806200001f81620002e4565b9384398201606083820312620002c9576200003a836200030a565b6020916200004a8386016200030a565b858501516001600160401b0396919291878211620002c9570181601f82011215620002c9578051968711620002ce578660051b9085806200008d818501620002e4565b809a81520192820101928311620002c95785809101915b838310620002ae5750505050600192600092848455331562000296578454336001600160a01b03198083168217885588519990956001600160a01b03949193909285929183167f8be0079c531659141344cd1fd0a4f28419497f9722a3daafe3b4186f6b6457e08a80a360fa60035516988915620002545750821680156200021057869860805260049485541617845584975b6200017f575b865161236790816200034b82396080518181816102b70152818161067901528181610c3901528181610dbc0152818161113a01528181611bc50152611d600152f35b80518810156200020a57816200019689836200031f565b5116855260068352868520805460ff19168717905581620001b889836200031f565b51167fd0e189b4a2f825c9b8f1d51ccf0a5372a27616a07c3c9da092dd64b6e487caf1848951898152a26000198814620001f757968501968562000137565b634e487b7160e01b855260118452602485fd5b6200013d565b875162461bcd60e51b815260048101859052601560248201527f496e76616c69642066656520726563697069656e7400000000000000000000006044820152606490fd5b62461bcd60e51b815260048101859052601a60248201527f496e76616c696420534f554c20746f6b656e20616464726573730000000000006044820152606490fd5b8551631e4fbdf760e01b815260048101859052602490fd5b8190620002bb846200030a565b8152019101908590620000a4565b600080fd5b634e487b7160e01b600052604160045260246000fd5b6040519190601f01601f191682016001600160401b03811183821017620002ce57604052565b51906001600160a01b0382168203620002c957565b8051821015620003345760209160051b010190565b634e487b7160e01b600052603260045260246000fdfe6080604052600436101561001257600080fd5b6000803560e01c80630d9cfe5e14611e835780631243d82b14611e6557806312e8e2c314611dd157806314262ee714611c8557806319f0817414611c1257806326232a2e14611bf45780632d5f4a1e14611baf57806334918bde14611b805780634579268a146119c0578063469048401461199757806350b654141461195857806360c11ee2146118b65780636453a50f1461186e578063715018a61461181157806371dda98e14610fd95780637349532d14610f915780638a72ea6a14610ec25780638da5cb5b14610e9957806397f7236314610e515780639abe144114610c8d578063a9da5f0614610b56578063bc063e1a14610b39578063c7237d5614610a32578063c815729d146104da578063db1884be14610457578063e74b981b14610392578063ef706adf146101e35763f2fde38b1461015157600080fd5b346101e05760203660031901126101e05761016a611f4e565b610172612177565b6001600160a01b039081169081156101c757600154826bffffffffffffffffffffffff60a01b821617600155167f8be0079c531659141344cd1fd0a4f28419497f9722a3daafe3b4186f6b6457e0600080a380f35b604051631e4fbdf760e01b815260048101849052602490fd5b80fd5b50346101e05760208060031936011261038e5760043580835260058252604083206001810154919290916001600160a01b03908116330361035957600783019260ff8454166005811015610345579061023f87949392156122b1565b858452600a835260ff60408520541661028b575b50505050600460ff1982541617905533907f1f51377b3e685a0e2419f9bb4ba7c07ec54936353ba3d0fb3c6538dab67662228380a380f35b6005015460405163a9059cbb60e01b8152336004820152602481019190915292829184916044918391907f0000000000000000000000000000000000000000000000000000000000000000165af191821561033a57600a926102f491879161030d575b506122f0565b8385525260408320805460ff1916905582388080610253565b61032d9150833d8511610333575b61032581836120af565b8101906121c2565b386102ee565b503d61031b565b6040513d87823e3d90fd5b634e487b7160e01b87526021600452602487fd5b60405162461bcd60e51b815260048101839052600d60248201526c2737ba103a343290313abcb2b960991b6044820152606490fd5b5080fd5b50346101e05760203660031901126101e0576103ac611f4e565b6103b4612177565b6001600160a01b03818116801561041e57600480546001600160a01b03198116929092179055604080516001600160a01b0393909216831682529290911660208201527faaebcf1bfa00580e41d966056b48521fa9f202645c86d4ddf28113e617c1b1d39190a180f35b60405162461bcd60e51b8152602060048201526011602482015270125b9d985b1a59081c9958da5c1a595b9d607a1b6044820152606490fd5b50346101e05760208060031936011261038e576001600160a01b0361047a611f4e565b1682526008815260408220916040518092808554928381520194835280832092905b8282106104c3576104bf856104b3818903826120af565b60405191829182611f69565b0390f35b83548652948501946001938401939091019061049c565b50346101e05760208060031936011261038e576004356104f8612251565b808352600582526040832060028101546001600160a01b039291906105209084163314612274565b600781019260ff84541660058110156103455761053d90156122b1565b600682015442116109fd57828652600a855260ff604087205416156109c35780600383015416936004830154906040516331a9108f60e11b8152826004820152602490888183818b5afa9081156107d6578a916109a6575b50843391160361096d5760405163e985e9c560e01b815233600482015230602482015288816044818b5afa9081156107d6578a91610950575b5080156108ef575b1561089d57600585019687549060035480830290838204148315171561088a5761271090049687830392831161088a5760018c9101958787541692803b1561088657604051632142170760e11b81523360048201526001600160a01b0394909416602485015260448401919091528290606490829084905af1801561087b5761084d575b5060405163a9059cbb60e01b80825233600483015260248201929092527f00000000000000000000000000000000000000000000000000000000000000008616908a816044818f865af1908115610842578c91610825575b50156107e157868a918161071f575b505050505060ff1990600182825416179055848852600a87526040882090815416905554169254936040519485528401527f8210e9bd2a5d8bc2c71608bf97cbb56d747cc7a054aed7897eec4b881c441c9a60403394a46001815580f35b6004805460405195865289166001600160a01b0316908501526024840191909152829060449082908e905af19081156107d6578a916107b9575b501561076857808886826106c1565b8760256084926040519262461bcd60e51b845260048401528201527f534f554c207472616e7366657220746f2066656520726563697069656e742066604482015264185a5b195960da1b6064820152fd5b6107d09150893d8b116103335761032581836120af565b38610759565b6040513d8c823e3d90fd5b60405162461bcd60e51b8152600481018b9052601e818501527f534f554c207472616e7366657220746f2073656c6c6572206661696c656400006044820152606490fd5b61083c91508b3d8d116103335761032581836120af565b386106b2565b6040513d8e823e3d90fd5b67ffffffffffffffff819b929b1161086957604052983861065a565b50634e487b7160e01b81526041600452fd5b6040513d8d823e3d90fd5b8280fd5b634e487b7160e01b8c526011600452838cfd5b8760266084926040519262461bcd60e51b845260048401528201527f436f6e7472616374206e6f7420617070726f76656420666f72204e465420747260448201526530b739b332b960d11b6064820152fd5b5060405163020604bf60e21b815260048101849052888183818b5afa9081156107d6578a91610923575b50841630146105d6565b6109439150893d8b11610949575b61093b81836120af565b8101906121a3565b38610919565b503d610931565b6109679150893d8b116103335761032581836120af565b386105ce565b8760136064926040519262461bcd60e51b8452600484015282015272139195081b9bc81b1bdb99d95c881bdddb9959606a1b6044820152fd5b6109bd9150893d8b116109495761093b81836120af565b38610595565b60405162461bcd60e51b8152600481018690526012602482015271119d5b991cc81b9bdd08195cd8dc9bddd95960721b6044820152606490fd5b60405162461bcd60e51b815260048101869052600d60248201526c13d999995c88195e1c1a5c9959609a1b6044820152606490fd5b50346101e05760203660031901126101e057600435815260056020526040812060405190610a5f8261207c565b8054825260018101546001600160a01b03908116602084015260028201548082166040850152610a989060a01c60ff16606085016121ff565b6003820154166080830152600481015460a0830152600581015460c083015260068101549160e08101928352610140610af5600960ff60078601541694610ae46101008601968761220b565b6008810154610120860152016120d1565b910152516005811015610b255760209250159081610b19575b506040519015158152f35b90505142111538610b0e565b634e487b7160e01b83526021600452602483fd5b50346101e057806003193601126101e05760206040516103e88152f35b50346101e05760208060031936011261038e576004358083526005825260408320600281015491926001600160a01b0392610b949084163314612274565b600782019260ff845416600581101561034557610bb190156122b1565b848652600a825260ff604087205416610bfc575b505050600260ff1982541617905533907fe3fdc826407186ec30616e74f05c87de143d0d28f4016af6043253ba041156638380a380f35b600183015460059093015460405163a9059cbb60e01b81529382166001600160a01b031660048501526024840152819083908188816044810103927f0000000000000000000000000000000000000000000000000000000000000000165af191821561033a57600a92610c7591879161030d57506122f0565b8385525260408320805460ff19169055388080610bc5565b50346101e05760208060031936011261038e5767ffffffffffffffff90600435828111610e4d5736602382011215610e4d578060040135928311610e4d576024600591368286851b83010111610e4957855b858110610cea578680f35b8281851b830101359081885284865260408820916007830160ff8082541688811015610e36571580610e29575b610d2e575b505050610d2991506121da565b610cdf565b828b52888b600a92838352604082205416610d83575b505050610d299350600360ff198254161790557f48e57f5f7de6743b5c1c749447ff980262d36d0ad5142c942523d48dc821a1718980a2388080610d1c565b6001870154968a015460405163a9059cbb60e01b81526001600160a01b03988916600482015260248101919091529687916044918391907f0000000000000000000000000000000000000000000000000000000000000000165af194851561087b57610d2995610df9918d91610e1257506122f0565b828b52885260408a20805460ff1916905538888b610d44565b61032d91508b3d8d116103335761032581836120af565b5060068501544211610d17565b634e487b7160e01b8c526021600452878cfd5b8580fd5b8380fd5b50346101e05760403660031901126101e0576024359060043581526009602052604081209081548310156101e0576020610e8b8484612014565b90546040519160031b1c8152f35b50346101e057806003193601126101e0576001546040516001600160a01b039091168152602090f35b50346101e05760203660031901126101e0576040602091600435815260058352206104bf81549160018060a01b0390610f7982600183015416926002830154816003850154166004850154600586015491610f5a60068801549460ff60078a01541696610f36600960088c01549b016120d1565b9a6040519e8f9e8f9081520152811660408d015260ff60608d019160a01c16611fa4565b60808a015260a089015260c088015260e0870152610100860190611fc7565b61012084015261016080610140850152830190611fd4565b50346101e05760403660031901126101e057610fab611f4e565b6001600160a01b03168152600860205260408120805460243592908310156101e0576020610e8b8484612014565b50346101e05760e03660031901126101e057610ff3611f4e565b6003602435101561038e576044356001600160a01b038116900361038e5767ffffffffffffffff60c4351161038e5736602360c43501121561038e5767ffffffffffffffff60c435600401351161038e5736602460c4356004013560c43501011161038e57611060612251565b6044356001600160a01b031682526006602052604082205460ff16156117cc576001600160a01b0381161561178e576001600160a01b0381163314611749576084351561170457610e1060a435106116ca5762278d0060a43511611691576040516331a9108f60e11b815260643560048201526020816024816044356001600160a01b03165afa908115611622578391611672575b506001600160a01b0382811691160361162d576040516323b872dd60e01b81523360048201523060248201526084356044820152602081606481866001600160a01b037f0000000000000000000000000000000000000000000000000000000000000000165af1908115611622578391611603575b50156115c75761117b6002546121da565b908160025560a435420142116115b3576040516111978161207c565b8281523360208201526001600160a01b03821660408201526111be602435606083016121ff565b6044356001600160a01b0316608082015260643560a082015260843560c08201524260a435810160e08301526101008201859052610120820152604051611215600460c4350135601f01601f1916602001826120af565b60c435600481013580835290602401602083013784602060c435600401358301015261014082015282845260056020526040842090805182556001820160018060a01b03602083015116906bffffffffffffffffffffffff60a01b91828254161790556002830160018060a01b036040840151168154906060850151600381101561159f5760ff60a01b9060a01b16916affffffffffffffffffffff60a81b1617179055600383019060018060a01b036080840151169082541617905560a0810151600483015560c0810151600583015560e081015160068301556007820161010082015160058110156103455790610140929160ff801983541691161790556101208101516008840155015180519067ffffffffffffffff821161158b576113416009840154612042565b601f8111611547575b50602090601f83116001146114da57600992918791836114cf575b50508160011b916000199060031b1c1916179101555b818352600a60205260408320600160ff1982541617905533835260076020526113a78260408520612217565b6001600160a01b03811683526008602052604083206113c7908390612217565b60405160443560601b6bffffffffffffffffffffffff19166020820190815260643560348301529061140681605481015b03601f1981018352826120af565b5190208352600960205261141d8260408520612217565b6040519061142d82602435611fa4565b6001600160a01b036044351660208301526064356040830152608435606083015260a4354201608083015260c060a0830181905260c435600481013591840182905260240160e08401378360e060c435600401358401015260018060a01b0316917fc9b95fafbacf28c590566cefe12251defa23300c5d635da98ec5c64e06b34aa2339260e081601f19601f60c4356004013501168101030190a46001815580f35b015190503880611365565b906009840187526020872091875b601f198516811061152f5750918391600193600995601f19811610611516575b505050811b0191015561137b565b015160001960f88460031b161c19169055388080611508565b919260206001819286850151815501940192016114e8565b60098401875260208720601f840160051c810160208510611584575b601f830160051c8201811061157957505061134a565b888155600101611563565b5080611563565b634e487b7160e01b86526041600452602486fd5b634e487b7160e01b8a52602160045260248afd5b634e487b7160e01b83526011600452602483fd5b60405162461bcd60e51b815260206004820152601460248201527314d3d553081d1c985b9cd9995c8819985a5b195960621b6044820152606490fd5b61161c915060203d6020116103335761032581836120af565b3861116a565b6040513d85823e3d90fd5b60405162461bcd60e51b815260206004820152601a60248201527f53656c6c657220646f65736e2774206f776e20746865204e46540000000000006044820152606490fd5b61168b915060203d6020116109495761093b81836120af565b386110f5565b60405162461bcd60e51b81526020600482015260116024820152704475726174696f6e20746f6f206c6f6e6760781b6044820152606490fd5b60405162461bcd60e51b8152602060048201526012602482015271111d5c985d1a5bdb881d1bdbc81cda1bdc9d60721b6044820152606490fd5b60405162461bcd60e51b815260206004820152601d60248201527f416d6f756e74206d7573742062652067726561746572207468616e20300000006044820152606490fd5b60405162461bcd60e51b815260206004820152601d60248201527f43616e6e6f74206d616b65206f6666657220746f20796f757273656c660000006044820152606490fd5b60405162461bcd60e51b8152602060048201526016602482015275496e76616c69642073656c6c6572206164647265737360501b6044820152606490fd5b60405162461bcd60e51b815260206004820152601960248201527f4e465420636f6e7472616374206e6f7420617070726f766564000000000000006044820152606490fd5b50346101e057806003193601126101e05761182a612177565b600180546001600160a01b0319811690915581906001600160a01b03167f8be0079c531659141344cd1fd0a4f28419497f9722a3daafe3b4186f6b6457e08280a380f35b50346101e05760403660031901126101e057611888611f4e565b6001600160a01b03168152600760205260408120805460243592908310156101e0576020610e8b8484612014565b50346101e05760403660031901126101e0576118d0611f4e565b60405160609190911b6bffffffffffffffffffffffff1916602080830191825260243560348401529161190681605481016113f8565b51902082526009815260408220916040518092808554928381520194835280832092905b828210611941576104bf856104b3818903826120af565b83548652948501946001938401939091019061192a565b50346101e05760203660031901126101e05760209060ff906040906001600160a01b03611983611f4e565b168152600684522054166040519015158152f35b50346101e057806003193601126101e0576004546040516001600160a01b039091168152602090f35b50346101e05760203660031901126101e05760406101409160608383516119e68161207c565b838152836020820152838582015283838201528360808201528360a08201528360c08201528360e0820152836101008201528361012082015201526004358152600560205220611acf600960405192611a3e8461207c565b8054845260018101546001600160a01b03908116602086015260028201549081166040860152611a779060a01c60ff16606086016121ff565b60038101546001600160a01b03166080850152600481015460a0850152600581015460c0850152600681015460e08501526007810154611abe9060ff16610100860161220b565b6008810154610120850152016120d1565b828201526104bf604051928392602084528051602085015260018060a01b03602082015116604085015260018060a01b036040820151166060850152611b1d60608201516080860190611fa4565b60018060a01b0360808201511660a085015260a081015160c085015260c081015160e085015260e0810151610100850152611b62610100820151610120860190611fc7565b61012081015182850152015161016080840152610180830190611fd4565b50346101e05760203660031901126101e05760ff60406020926004358152600a84522054166040519015158152f35b50346101e057806003193601126101e0576040517f00000000000000000000000000000000000000000000000000000000000000006001600160a01b03168152602090f35b50346101e057806003193601126101e0576020600354604051908152f35b50346101e05760208060031936011261038e576001600160a01b03611c35611f4e565b1682526007815260408220916040518092808554928381520194835280832092905b828210611c6e576104bf856104b3818903826120af565b835486529485019460019384019390910190611c57565b50346101e05760208060031936011261038e5760043590611ca4612177565b818352600581526040832090600782019060ff8254166005811015611dbd57611ccd90156122b1565b838552600a815260ff604086205416611d22575b50805460ff19166004179055600101546001600160a01b0316907f1f51377b3e685a0e2419f9bb4ba7c07ec54936353ba3d0fb3c6538dab67662228380a380f35b6001830154600584015460405163a9059cbb60e01b81526001600160a01b039283166004820152602481019190915291908190839060449082908a907f0000000000000000000000000000000000000000000000000000000000000000165af1918215611db257600a92611d9c91889161030d57506122f0565b8486525260408420805460ff1916905538611ce1565b6040513d88823e3d90fd5b634e487b7160e01b86526021600452602486fd5b50346101e05760203660031901126101e057600435611dee612177565b6103e88111611e315760407fd347e206f25a89b917fc9482f1a2d294d749baa4dc9bde7fb495ee11fe49164391600354908060035582519182526020820152a180f35b60405162461bcd60e51b815260206004820152600c60248201526b08ccaca40e8dede40d0d2ced60a31b6044820152606490fd5b50346101e057806003193601126101e0576020600254604051908152f35b50346101e05760403660031901126101e057611e9d611f4e565b6024359081151580920361088657611eb3612177565b6001600160a01b0316908115611f095760207fd0e189b4a2f825c9b8f1d51ccf0a5372a27616a07c3c9da092dd64b6e487caf191838552600682526040852060ff1981541660ff8316179055604051908152a280f35b60405162461bcd60e51b815260206004820152601860248201527f496e76616c696420636f6e7472616374206164647265737300000000000000006044820152606490fd5b600435906001600160a01b0382168203611f6457565b600080fd5b6020908160408183019282815285518094520193019160005b828110611f90575050505090565b835185529381019392810192600101611f82565b906003821015611fb15752565b634e487b7160e01b600052602160045260246000fd5b906005821015611fb15752565b919082519283825260005b848110612000575050826000602080949584010152601f8019910116010190565b602081830181015184830182015201611fdf565b805482101561202c5760005260206000200190600090565b634e487b7160e01b600052603260045260246000fd5b90600182811c92168015612072575b602083101461205c57565b634e487b7160e01b600052602260045260246000fd5b91607f1691612051565b610160810190811067ffffffffffffffff82111761209957604052565b634e487b7160e01b600052604160045260246000fd5b90601f8019910116810190811067ffffffffffffffff82111761209957604052565b90604051918260008254926120e584612042565b9081845260019485811690816000146121545750600114612111575b505061210f925003836120af565b565b9093915060005260209081600020936000915b81831061213c57505061210f93508201013880612101565b85548884018501529485019487945091830191612124565b91505061210f94506020925060ff191682840152151560051b8201013880612101565b6001546001600160a01b0316330361218b57565b60405163118cdaa760e01b8152336004820152602490fd5b90816020910312611f6457516001600160a01b0381168103611f645790565b90816020910312611f6457518015158103611f645790565b60001981146121e95760010190565b634e487b7160e01b600052601160045260246000fd5b6003821015611fb15752565b6005821015611fb15752565b8054680100000000000000008110156120995761223991600182018155612014565b819291549060031b91821b91600019901b1916179055565b600260005414612262576002600055565b604051633ee5aeb560e01b8152600490fd5b1561227b57565b60405162461bcd60e51b815260206004820152600e60248201526d2737ba103a34329039b2b63632b960911b6044820152606490fd5b156122b857565b60405162461bcd60e51b815260206004820152601060248201526f4f66666572206e6f742061637469766560801b6044820152606490fd5b156122f757565b60405162461bcd60e51b815260206004820152601260248201527114d3d553081c99599d5b990819985a5b195960721b6044820152606490fdfea2646970667358221220d8c6f804ce49350b9aa5034aeb61bc75efdac3a68f191750272af108f97cc78f64736f6c63430008140033",
  "linkReferences": {},
  "deployedLinkReferences": {}
}