{
  "_format": "hh-sol-artifact-1",
  "contractName": "Relic",
  "sourceName": "contracts/current/nft/Relic.sol",
  "abi": [
    {
      "inputs": [
        {
          "internalType": "address",
          "name": "initialOwner",
          "type": "address"
        }
      ],
      "stateMutability": "nonpayable",
      "type": "constructor"
    },
    {
      "inputs": [
        {
          "internalType": "address",
          "name": "sender",
          "type": "address"
        },
        {
          "internalType": "uint256",
          "name": "tokenId",
          "type": "uint256"
        },
        {
          "internalType": "address",
          "name": "owner",
          "type": "address"
        }
      ],
      "name": "ERC721IncorrectOwner",
      "type": "error"
    },
    {
      "inputs": [
        {
          "internalType": "address",
          "name": "operator",
          "type": "address"
        },
        {
          "internalType": "uint256",
          "name": "tokenId",
          "type": "uint256"
        }
      ],
      "name": "ERC721InsufficientApproval",
      "type": "error"
    },
    {
      "inputs": [
        {
          "internalType": "address",
          "name": "approver",
          "type": "address"
        }
      ],
      "name": "ERC721InvalidApprover",
      "type": "error"
    },
    {
      "inputs": [
        {
          "internalType": "address",
          "name": "operator",
          "type": "address"
        }
      ],
      "name": "ERC721InvalidOperator",
      "type": "error"
    },
    {
      "inputs": [
        {
          "internalType": "address",
          "name": "owner",
          "type": "address"
        }
      ],
      "name": "ERC721InvalidOwner",
      "type": "error"
    },
    {
      "inputs": [
        {
          "internalType": "address",
          "name": "receiver",
          "type": "address"
        }
      ],
      "name": "ERC721InvalidReceiver",
      "type": "error"
    },
    {
      "inputs": [
        {
          "internalType": "address",
          "name": "sender",
          "type": "address"
        }
      ],
      "name": "ERC721InvalidSender",
      "type": "error"
    },
    {
      "inputs": [
        {
          "internalType": "uint256",
          "name": "tokenId",
          "type": "uint256"
        }
      ],
      "name": "ERC721NonexistentToken",
      "type": "error"
    },
    {
      "inputs": [],
      "name": "EnforcedPause",
      "type": "error"
    },
    {
      "inputs": [],
      "name": "ExpectedPause",
      "type": "error"
    },
    {
      "inputs": [
        {
          "internalType": "address",
          "name": "owner",
          "type": "address"
        }
      ],
      "name": "OwnableInvalidOwner",
      "type": "error"
    },
    {
      "inputs": [
        {
          "internalType": "address",
          "name": "account",
          "type": "address"
        }
      ],
      "name": "OwnableUnauthorizedAccount",
      "type": "error"
    },
    {
      "inputs": [],
      "name": "ReentrancyGuardReentrantCall",
      "type": "error"
    },
    {
      "inputs": [
        {
          "internalType": "address",
          "name": "token",
          "type": "address"
        }
      ],
      "name": "SafeERC20FailedOperation",
      "type": "error"
    },
    {
      "anonymous": false,
      "inputs": [
        {
          "indexed": true,
          "internalType": "address",
          "name": "owner",
          "type": "address"
        },
        {
          "indexed": true,
          "internalType": "address",
          "name": "approved",
          "type": "address"
        },
        {
          "indexed": true,
          "internalType": "uint256",
          "name": "tokenId",
          "type": "uint256"
        }
      ],
      "name": "Approval",
      "type": "event"
    },
    {
      "anonymous": false,
      "inputs": [
        {
          "indexed": true,
          "internalType": "address",
          "name": "owner",
          "type": "address"
        },
        {
          "indexed": true,
          "internalType": "address",
          "name": "operator",
          "type": "address"
        },
        {
          "indexed": false,
          "internalType": "bool",
          "name": "approved",
          "type": "bool"
        }
      ],
      "name": "ApprovalForAll",
      "type": "event"
    },
    {
      "anonymous": false,
      "inputs": [
        {
          "indexed": true,
          "internalType": "address",
          "name": "newAddress",
          "type": "address"
        }
      ],
      "name": "AscensionAltarSet",
      "type": "event"
    },
    {
      "anonymous": false,
      "inputs": [
        {
          "indexed": false,
          "internalType": "string",
          "name": "newBaseURI",
          "type": "string"
        }
      ],
      "name": "BaseURISet",
      "type": "event"
    },
    {
      "anonymous": false,
      "inputs": [
        {
          "indexed": true,
          "internalType": "address",
          "name": "player",
          "type": "address"
        },
        {
          "indexed": false,
          "internalType": "uint256",
          "name": "quantity",
          "type": "uint256"
        },
        {
          "indexed": false,
          "internalType": "uint8",
          "name": "maxRarity",
          "type": "uint8"
        },
        {
          "indexed": false,
          "internalType": "uint256[]",
          "name": "tokenIds",
          "type": "uint256[]"
        }
      ],
      "name": "BatchMintCompleted",
      "type": "event"
    },
    {
      "anonymous": false,
      "inputs": [
        {
          "indexed": false,
          "internalType": "uint256",
          "name": "tierId",
          "type": "uint256"
        },
        {
          "indexed": false,
          "internalType": "uint256",
          "name": "minQuantity",
          "type": "uint256"
        },
        {
          "indexed": false,
          "internalType": "uint8",
          "name": "maxRarity",
          "type": "uint8"
        },
        {
          "indexed": false,
          "internalType": "string",
          "name": "tierName",
          "type": "string"
        }
      ],
      "name": "BatchTierSet",
      "type": "event"
    },
    {
      "anonymous": false,
      "inputs": [
        {
          "indexed": false,
          "internalType": "string",
          "name": "newContractURI",
          "type": "string"
        }
      ],
      "name": "ContractURIUpdated",
      "type": "event"
    },
    {
      "anonymous": false,
      "inputs": [
        {
          "indexed": true,
          "internalType": "address",
          "name": "core",
          "type": "address"
        },
        {
          "indexed": true,
          "internalType": "address",
          "name": "token",
          "type": "address"
        }
      ],
      "name": "ContractsSet",
      "type": "event"
    },
    {
      "anonymous": false,
      "inputs": [
        {
          "indexed": false,
          "internalType": "uint256",
          "name": "newSeed",
          "type": "uint256"
        }
      ],
      "name": "DynamicSeedUpdated",
      "type": "event"
    },
    {
      "anonymous": false,
      "inputs": [
        {
          "indexed": true,
          "internalType": "address",
          "name": "user",
          "type": "address"
        },
        {
          "indexed": true,
          "internalType": "address",
          "name": "executor",
          "type": "address"
        },
        {
          "indexed": false,
          "internalType": "uint256",
          "name": "quantity",
          "type": "uint256"
        }
      ],
      "name": "ForcedRevealExecuted",
      "type": "event"
    },
    {
      "anonymous": false,
      "inputs": [
        {
          "indexed": true,
          "internalType": "address",
          "name": "player",
          "type": "address"
        },
        {
          "indexed": false,
          "internalType": "uint256",
          "name": "quantity",
          "type": "uint256"
        },
        {
          "indexed": false,
          "internalType": "uint256",
          "name": "blockNumber",
          "type": "uint256"
        },
        {
          "indexed": false,
          "internalType": "bool",
          "name": "fromVault",
          "type": "bool"
        }
      ],
      "name": "MintCommitted",
      "type": "event"
    },
    {
      "anonymous": false,
      "inputs": [
        {
          "indexed": true,
          "internalType": "address",
          "name": "previousOwner",
          "type": "address"
        },
        {
          "indexed": true,
          "internalType": "address",
          "name": "newOwner",
          "type": "address"
        }
      ],
      "name": "OwnershipTransferred",
      "type": "event"
    },
    {
      "anonymous": false,
      "inputs": [
        {
          "indexed": false,
          "internalType": "address",
          "name": "account",
          "type": "address"
        }
      ],
      "name": "Paused",
      "type": "event"
    },
    {
      "anonymous": false,
      "inputs": [
        {
          "indexed": true,
          "internalType": "uint256",
          "name": "tokenId",
          "type": "uint256"
        },
        {
          "indexed": true,
          "internalType": "address",
          "name": "owner",
          "type": "address"
        },
        {
          "indexed": false,
          "internalType": "uint8",
          "name": "rarity",
          "type": "uint8"
        },
        {
          "indexed": false,
          "internalType": "uint8",
          "name": "capacity",
          "type": "uint8"
        }
      ],
      "name": "RelicBurned",
      "type": "event"
    },
    {
      "anonymous": false,
      "inputs": [
        {
          "indexed": true,
          "internalType": "uint256",
          "name": "tokenId",
          "type": "uint256"
        },
        {
          "indexed": true,
          "internalType": "address",
          "name": "owner",
          "type": "address"
        },
        {
          "indexed": false,
          "internalType": "uint8",
          "name": "rarity",
          "type": "uint8"
        },
        {
          "indexed": false,
          "internalType": "uint8",
          "name": "capacity",
          "type": "uint8"
        }
      ],
      "name": "RelicMinted",
      "type": "event"
    },
    {
      "anonymous": false,
      "inputs": [
        {
          "indexed": true,
          "internalType": "uint256",
          "name": "tokenId",
          "type": "uint256"
        },
        {
          "indexed": true,
          "internalType": "address",
          "name": "owner",
          "type": "address"
        },
        {
          "indexed": false,
          "internalType": "uint8",
          "name": "rarity",
          "type": "uint8"
        },
        {
          "indexed": false,
          "internalType": "uint8",
          "name": "capacity",
          "type": "uint8"
        }
      ],
      "name": "RelicRevealed",
      "type": "event"
    },
    {
      "anonymous": false,
      "inputs": [
        {
          "indexed": true,
          "internalType": "address",
          "name": "user",
          "type": "address"
        },
        {
          "indexed": true,
          "internalType": "address",
          "name": "proxy",
          "type": "address"
        }
      ],
      "name": "RevealedByProxy",
      "type": "event"
    },
    {
      "anonymous": false,
      "inputs": [
        {
          "indexed": true,
          "internalType": "address",
          "name": "from",
          "type": "address"
        },
        {
          "indexed": true,
          "internalType": "address",
          "name": "to",
          "type": "address"
        },
        {
          "indexed": true,
          "internalType": "uint256",
          "name": "tokenId",
          "type": "uint256"
        }
      ],
      "name": "Transfer",
      "type": "event"
    },
    {
      "anonymous": false,
      "inputs": [
        {
          "indexed": false,
          "internalType": "address",
          "name": "account",
          "type": "address"
        }
      ],
      "name": "Unpaused",
      "type": "event"
    },
    {
      "anonymous": false,
      "inputs": [
        {
          "indexed": true,
          "internalType": "address",
          "name": "vrfManager",
          "type": "address"
        }
      ],
      "name": "VRFManagerSet",
      "type": "event"
    },
    {
      "inputs": [],
      "name": "MAX_REVEAL_WINDOW",
      "outputs": [
        {
          "internalType": "uint256",
          "name": "",
          "type": "uint256"
        }
      ],
      "stateMutability": "view",
      "type": "function"
    },
    {
      "inputs": [],
      "name": "REVEAL_BLOCK_DELAY",
      "outputs": [
        {
          "internalType": "uint256",
          "name": "",
          "type": "uint256"
        }
      ],
      "stateMutability": "view",
      "type": "function"
    },
    {
      "inputs": [
        {
          "internalType": "address",
          "name": "to",
          "type": "address"
        },
        {
          "internalType": "uint256",
          "name": "tokenId",
          "type": "uint256"
        }
      ],
      "name": "approve",
      "outputs": [],
      "stateMutability": "nonpayable",
      "type": "function"
    },
    {
      "inputs": [],
      "name": "ascensionAltarAddress",
      "outputs": [
        {
          "internalType": "address",
          "name": "",
          "type": "address"
        }
      ],
      "stateMutability": "view",
      "type": "function"
    },
    {
      "inputs": [
        {
          "internalType": "address",
          "name": "owner",
          "type": "address"
        }
      ],
      "name": "balanceOf",
      "outputs": [
        {
          "internalType": "uint256",
          "name": "",
          "type": "uint256"
        }
      ],
      "stateMutability": "view",
      "type": "function"
    },
    {
      "inputs": [],
      "name": "baseURI",
      "outputs": [
        {
          "internalType": "string",
          "name": "",
          "type": "string"
        }
      ],
      "stateMutability": "view",
      "type": "function"
    },
    {
      "inputs": [
        {
          "internalType": "uint256",
          "name": "",
          "type": "uint256"
        }
      ],
      "name": "batchTiers",
      "outputs": [
        {
          "internalType": "uint256",
          "name": "minQuantity",
          "type": "uint256"
        },
        {
          "internalType": "uint8",
          "name": "maxRarity",
          "type": "uint8"
        },
        {
          "internalType": "string",
          "name": "tierName",
          "type": "string"
        }
      ],
      "stateMutability": "view",
      "type": "function"
    },
    {
      "inputs": [
        {
          "internalType": "uint256",
          "name": "_tokenId",
          "type": "uint256"
        }
      ],
      "name": "burnFromAltar",
      "outputs": [],
      "stateMutability": "nonpayable",
      "type": "function"
    },
    {
      "inputs": [
        {
          "internalType": "address",
          "name": "_user",
          "type": "address"
        }
      ],
      "name": "canForceReveal",
      "outputs": [
        {
          "internalType": "bool",
          "name": "",
          "type": "bool"
        }
      ],
      "stateMutability": "view",
      "type": "function"
    },
    {
      "inputs": [
        {
          "internalType": "address",
          "name": "_user",
          "type": "address"
        }
      ],
      "name": "canReveal",
      "outputs": [
        {
          "internalType": "bool",
          "name": "",
          "type": "bool"
        }
      ],
      "stateMutability": "view",
      "type": "function"
    },
    {
      "inputs": [],
      "name": "contractURI",
      "outputs": [
        {
          "internalType": "string",
          "name": "",
          "type": "string"
        }
      ],
      "stateMutability": "view",
      "type": "function"
    },
    {
      "inputs": [],
      "name": "dungeonCore",
      "outputs": [
        {
          "internalType": "contract IDungeonCore",
          "name": "",
          "type": "address"
        }
      ],
      "stateMutability": "view",
      "type": "function"
    },
    {
      "inputs": [],
      "name": "dynamicSeed",
      "outputs": [
        {
          "internalType": "uint256",
          "name": "",
          "type": "uint256"
        }
      ],
      "stateMutability": "view",
      "type": "function"
    },
    {
      "inputs": [
        {
          "internalType": "address",
          "name": "user",
          "type": "address"
        }
      ],
      "name": "forceRevealExpired",
      "outputs": [],
      "stateMutability": "nonpayable",
      "type": "function"
    },
    {
      "inputs": [],
      "name": "getAllBatchTiers",
      "outputs": [
        {
          "components": [
            {
              "internalType": "uint256",
              "name": "minQuantity",
              "type": "uint256"
            },
            {
              "internalType": "uint8",
              "name": "maxRarity",
              "type": "uint8"
            },
            {
              "internalType": "string",
              "name": "tierName",
              "type": "string"
            }
          ],
          "internalType": "struct Relic.BatchTier[]",
          "name": "",
          "type": "tuple[]"
        }
      ],
      "stateMutability": "view",
      "type": "function"
    },
    {
      "inputs": [
        {
          "internalType": "uint256",
          "name": "tokenId",
          "type": "uint256"
        }
      ],
      "name": "getApproved",
      "outputs": [
        {
          "internalType": "address",
          "name": "",
          "type": "address"
        }
      ],
      "stateMutability": "view",
      "type": "function"
    },
    {
      "inputs": [
        {
          "internalType": "uint256",
          "name": "_quantity",
          "type": "uint256"
        }
      ],
      "name": "getBatchTierInfo",
      "outputs": [
        {
          "internalType": "uint8",
          "name": "maxRarity",
          "type": "uint8"
        },
        {
          "internalType": "string",
          "name": "tierName",
          "type": "string"
        },
        {
          "internalType": "uint256",
          "name": "exactTierQuantity",
          "type": "uint256"
        },
        {
          "internalType": "uint256",
          "name": "totalCost",
          "type": "uint256"
        }
      ],
      "stateMutability": "view",
      "type": "function"
    },
    {
      "inputs": [
        {
          "internalType": "uint256",
          "name": "_quantity",
          "type": "uint256"
        }
      ],
      "name": "getMaxRarityForQuantity",
      "outputs": [
        {
          "internalType": "uint8",
          "name": "maxRarity",
          "type": "uint8"
        },
        {
          "internalType": "string",
          "name": "tierName",
          "type": "string"
        }
      ],
      "stateMutability": "view",
      "type": "function"
    },
    {
      "inputs": [
        {
          "internalType": "uint256",
          "name": "tokenId",
          "type": "uint256"
        }
      ],
      "name": "getRelicProperties",
      "outputs": [
        {
          "internalType": "uint8",
          "name": "rarity",
          "type": "uint8"
        },
        {
          "internalType": "uint8",
          "name": "capacity",
          "type": "uint8"
        }
      ],
      "stateMutability": "view",
      "type": "function"
    },
    {
      "inputs": [
        {
          "internalType": "uint256",
          "name": "_quantity",
          "type": "uint256"
        }
      ],
      "name": "getRequiredSoulShardAmount",
      "outputs": [
        {
          "internalType": "uint256",
          "name": "",
          "type": "uint256"
        }
      ],
      "stateMutability": "view",
      "type": "function"
    },
    {
      "inputs": [
        {
          "internalType": "address",
          "name": "_user",
          "type": "address"
        }
      ],
      "name": "getRevealBlocksRemaining",
      "outputs": [
        {
          "internalType": "uint256",
          "name": "",
          "type": "uint256"
        }
      ],
      "stateMutability": "view",
      "type": "function"
    },
    {
      "inputs": [
        {
          "internalType": "address",
          "name": "_user",
          "type": "address"
        }
      ],
      "name": "getUserCommitment",
      "outputs": [
        {
          "components": [
            {
              "internalType": "uint256",
              "name": "blockNumber",
              "type": "uint256"
            },
            {
              "internalType": "uint256",
              "name": "quantity",
              "type": "uint256"
            },
            {
              "internalType": "uint256",
              "name": "payment",
              "type": "uint256"
            },
            {
              "internalType": "bytes32",
              "name": "commitment",
              "type": "bytes32"
            },
            {
              "internalType": "bool",
              "name": "fulfilled",
              "type": "bool"
            },
            {
              "internalType": "uint8",
              "name": "maxRarity",
              "type": "uint8"
            },
            {
              "internalType": "bool",
              "name": "fromVault",
              "type": "bool"
            }
          ],
          "internalType": "struct Relic.MintCommitment",
          "name": "",
          "type": "tuple"
        }
      ],
      "stateMutability": "view",
      "type": "function"
    },
    {
      "inputs": [
        {
          "internalType": "address",
          "name": "_user",
          "type": "address"
        }
      ],
      "name": "getUserPendingTokens",
      "outputs": [
        {
          "internalType": "uint256[]",
          "name": "",
          "type": "uint256[]"
        }
      ],
      "stateMutability": "view",
      "type": "function"
    },
    {
      "inputs": [
        {
          "internalType": "address",
          "name": "owner",
          "type": "address"
        },
        {
          "internalType": "address",
          "name": "operator",
          "type": "address"
        }
      ],
      "name": "isApprovedForAll",
      "outputs": [
        {
          "internalType": "bool",
          "name": "",
          "type": "bool"
        }
      ],
      "stateMutability": "view",
      "type": "function"
    },
    {
      "inputs": [
        {
          "internalType": "address",
          "name": "_to",
          "type": "address"
        },
        {
          "internalType": "uint8",
          "name": "_rarity",
          "type": "uint8"
        },
        {
          "internalType": "uint8",
          "name": "_capacity",
          "type": "uint8"
        }
      ],
      "name": "mintFromAltar",
      "outputs": [
        {
          "internalType": "uint256",
          "name": "",
          "type": "uint256"
        }
      ],
      "stateMutability": "nonpayable",
      "type": "function"
    },
    {
      "inputs": [
        {
          "internalType": "uint256",
          "name": "_quantity",
          "type": "uint256"
        }
      ],
      "name": "mintFromVault",
      "outputs": [],
      "stateMutability": "payable",
      "type": "function"
    },
    {
      "inputs": [
        {
          "internalType": "uint256",
          "name": "_quantity",
          "type": "uint256"
        }
      ],
      "name": "mintFromWallet",
      "outputs": [],
      "stateMutability": "payable",
      "type": "function"
    },
    {
      "inputs": [],
      "name": "mintPriceUSD",
      "outputs": [
        {
          "internalType": "uint256",
          "name": "",
          "type": "uint256"
        }
      ],
      "stateMutability": "view",
      "type": "function"
    },
    {
      "inputs": [],
      "name": "name",
      "outputs": [
        {
          "internalType": "string",
          "name": "",
          "type": "string"
        }
      ],
      "stateMutability": "view",
      "type": "function"
    },
    {
      "inputs": [],
      "name": "owner",
      "outputs": [
        {
          "internalType": "address",
          "name": "",
          "type": "address"
        }
      ],
      "stateMutability": "view",
      "type": "function"
    },
    {
      "inputs": [
        {
          "internalType": "uint256",
          "name": "tokenId",
          "type": "uint256"
        }
      ],
      "name": "ownerOf",
      "outputs": [
        {
          "internalType": "address",
          "name": "",
          "type": "address"
        }
      ],
      "stateMutability": "view",
      "type": "function"
    },
    {
      "inputs": [],
      "name": "pause",
      "outputs": [],
      "stateMutability": "nonpayable",
      "type": "function"
    },
    {
      "inputs": [],
      "name": "paused",
      "outputs": [
        {
          "internalType": "bool",
          "name": "",
          "type": "bool"
        }
      ],
      "stateMutability": "view",
      "type": "function"
    },
    {
      "inputs": [],
      "name": "platformFee",
      "outputs": [
        {
          "internalType": "uint256",
          "name": "",
          "type": "uint256"
        }
      ],
      "stateMutability": "view",
      "type": "function"
    },
    {
      "inputs": [
        {
          "internalType": "uint256",
          "name": "",
          "type": "uint256"
        }
      ],
      "name": "relicData",
      "outputs": [
        {
          "internalType": "uint8",
          "name": "rarity",
          "type": "uint8"
        },
        {
          "internalType": "uint8",
          "name": "capacity",
          "type": "uint8"
        },
        {
          "internalType": "bool",
          "name": "isRevealed",
          "type": "bool"
        }
      ],
      "stateMutability": "view",
      "type": "function"
    },
    {
      "inputs": [],
      "name": "renounceOwnership",
      "outputs": [],
      "stateMutability": "nonpayable",
      "type": "function"
    },
    {
      "inputs": [],
      "name": "revealMint",
      "outputs": [],
      "stateMutability": "nonpayable",
      "type": "function"
    },
    {
      "inputs": [
        {
          "internalType": "address",
          "name": "user",
          "type": "address"
        }
      ],
      "name": "revealMintFor",
      "outputs": [],
      "stateMutability": "nonpayable",
      "type": "function"
    },
    {
      "inputs": [
        {
          "internalType": "address",
          "name": "from",
          "type": "address"
        },
        {
          "internalType": "address",
          "name": "to",
          "type": "address"
        },
        {
          "internalType": "uint256",
          "name": "tokenId",
          "type": "uint256"
        }
      ],
      "name": "safeTransferFrom",
      "outputs": [],
      "stateMutability": "nonpayable",
      "type": "function"
    },
    {
      "inputs": [
        {
          "internalType": "address",
          "name": "from",
          "type": "address"
        },
        {
          "internalType": "address",
          "name": "to",
          "type": "address"
        },
        {
          "internalType": "uint256",
          "name": "tokenId",
          "type": "uint256"
        },
        {
          "internalType": "bytes",
          "name": "data",
          "type": "bytes"
        }
      ],
      "name": "safeTransferFrom",
      "outputs": [],
      "stateMutability": "nonpayable",
      "type": "function"
    },
    {
      "inputs": [
        {
          "internalType": "address",
          "name": "operator",
          "type": "address"
        },
        {
          "internalType": "bool",
          "name": "approved",
          "type": "bool"
        }
      ],
      "name": "setApprovalForAll",
      "outputs": [],
      "stateMutability": "nonpayable",
      "type": "function"
    },
    {
      "inputs": [
        {
          "internalType": "address",
          "name": "_address",
          "type": "address"
        }
      ],
      "name": "setAscensionAltarAddress",
      "outputs": [],
      "stateMutability": "nonpayable",
      "type": "function"
    },
    {
      "inputs": [
        {
          "internalType": "string",
          "name": "_newBaseURI",
          "type": "string"
        }
      ],
      "name": "setBaseURI",
      "outputs": [],
      "stateMutability": "nonpayable",
      "type": "function"
    },
    {
      "inputs": [
        {
          "internalType": "uint256",
          "name": "_tierId",
          "type": "uint256"
        },
        {
          "internalType": "uint256",
          "name": "_minQuantity",
          "type": "uint256"
        },
        {
          "internalType": "uint8",
          "name": "_maxRarity",
          "type": "uint8"
        },
        {
          "internalType": "string",
          "name": "_tierName",
          "type": "string"
        }
      ],
      "name": "setBatchTier",
      "outputs": [],
      "stateMutability": "nonpayable",
      "type": "function"
    },
    {
      "inputs": [
        {
          "internalType": "string",
          "name": "newContractURI",
          "type": "string"
        }
      ],
      "name": "setContractURI",
      "outputs": [],
      "stateMutability": "nonpayable",
      "type": "function"
    },
    {
      "inputs": [
        {
          "internalType": "address",
          "name": "_address",
          "type": "address"
        }
      ],
      "name": "setDungeonCore",
      "outputs": [],
      "stateMutability": "nonpayable",
      "type": "function"
    },
    {
      "inputs": [
        {
          "internalType": "uint256",
          "name": "_newPrice",
          "type": "uint256"
        }
      ],
      "name": "setMintPriceUSD",
      "outputs": [],
      "stateMutability": "nonpayable",
      "type": "function"
    },
    {
      "inputs": [
        {
          "internalType": "uint256",
          "name": "_newFee",
          "type": "uint256"
        }
      ],
      "name": "setPlatformFee",
      "outputs": [],
      "stateMutability": "nonpayable",
      "type": "function"
    },
    {
      "inputs": [
        {
          "internalType": "address",
          "name": "_address",
          "type": "address"
        }
      ],
      "name": "setSoulShardToken",
      "outputs": [],
      "stateMutability": "nonpayable",
      "type": "function"
    },
    {
      "inputs": [
        {
          "internalType": "string",
          "name": "_newURI",
          "type": "string"
        }
      ],
      "name": "setUnrevealedURI",
      "outputs": [],
      "stateMutability": "nonpayable",
      "type": "function"
    },
    {
      "inputs": [
        {
          "internalType": "address",
          "name": "_vrfManager",
          "type": "address"
        }
      ],
      "name": "setVRFManager",
      "outputs": [],
      "stateMutability": "nonpayable",
      "type": "function"
    },
    {
      "inputs": [],
      "name": "soulShardToken",
      "outputs": [
        {
          "internalType": "contract IERC20",
          "name": "",
          "type": "address"
        }
      ],
      "stateMutability": "view",
      "type": "function"
    },
    {
      "inputs": [
        {
          "internalType": "bytes4",
          "name": "interfaceId",
          "type": "bytes4"
        }
      ],
      "name": "supportsInterface",
      "outputs": [
        {
          "internalType": "bool",
          "name": "",
          "type": "bool"
        }
      ],
      "stateMutability": "view",
      "type": "function"
    },
    {
      "inputs": [],
      "name": "symbol",
      "outputs": [
        {
          "internalType": "string",
          "name": "",
          "type": "string"
        }
      ],
      "stateMutability": "view",
      "type": "function"
    },
    {
      "inputs": [],
      "name": "tierCount",
      "outputs": [
        {
          "internalType": "uint256",
          "name": "",
          "type": "uint256"
        }
      ],
      "stateMutability": "view",
      "type": "function"
    },
    {
      "inputs": [
        {
          "internalType": "uint256",
          "name": "tokenId",
          "type": "uint256"
        }
      ],
      "name": "tokenURI",
      "outputs": [
        {
          "internalType": "string",
          "name": "",
          "type": "string"
        }
      ],
      "stateMutability": "view",
      "type": "function"
    },
    {
      "inputs": [
        {
          "internalType": "address",
          "name": "from",
          "type": "address"
        },
        {
          "internalType": "address",
          "name": "to",
          "type": "address"
        },
        {
          "internalType": "uint256",
          "name": "tokenId",
          "type": "uint256"
        }
      ],
      "name": "transferFrom",
      "outputs": [],
      "stateMutability": "nonpayable",
      "type": "function"
    },
    {
      "inputs": [
        {
          "internalType": "address",
          "name": "newOwner",
          "type": "address"
        }
      ],
      "name": "transferOwnership",
      "outputs": [],
      "stateMutability": "nonpayable",
      "type": "function"
    },
    {
      "inputs": [],
      "name": "unpause",
      "outputs": [],
      "stateMutability": "nonpayable",
      "type": "function"
    },
    {
      "inputs": [],
      "name": "unrevealedURI",
      "outputs": [
        {
          "internalType": "string",
          "name": "",
          "type": "string"
        }
      ],
      "stateMutability": "view",
      "type": "function"
    },
    {
      "inputs": [
        {
          "internalType": "address",
          "name": "",
          "type": "address"
        }
      ],
      "name": "userCommitments",
      "outputs": [
        {
          "internalType": "uint256",
          "name": "blockNumber",
          "type": "uint256"
        },
        {
          "internalType": "uint256",
          "name": "quantity",
          "type": "uint256"
        },
        {
          "internalType": "uint256",
          "name": "payment",
          "type": "uint256"
        },
        {
          "internalType": "bytes32",
          "name": "commitment",
          "type": "bytes32"
        },
        {
          "internalType": "bool",
          "name": "fulfilled",
          "type": "bool"
        },
        {
          "internalType": "uint8",
          "name": "maxRarity",
          "type": "uint8"
        },
        {
          "internalType": "bool",
          "name": "fromVault",
          "type": "bool"
        }
      ],
      "stateMutability": "view",
      "type": "function"
    },
    {
      "inputs": [
        {
          "internalType": "address",
          "name": "",
          "type": "address"
        },
        {
          "internalType": "uint256",
          "name": "",
          "type": "uint256"
        }
      ],
      "name": "userPendingTokens",
      "outputs": [
        {
          "internalType": "uint256",
          "name": "",
          "type": "uint256"
        }
      ],
      "stateMutability": "view",
      "type": "function"
    },
    {
      "inputs": [],
      "name": "vrfManager",
      "outputs": [
        {
          "internalType": "address",
          "name": "",
          "type": "address"
        }
      ],
      "stateMutability": "view",
      "type": "function"
    },
    {
      "inputs": [],
      "name": "withdrawNativeFunding",
      "outputs": [],
      "stateMutability": "nonpayable",
      "type": "function"
    },
    {
      "inputs": [],
      "name": "withdrawSoulShard",
      "outputs": [],
      "stateMutability": "nonpayable",
      "type": "function"
    },
    {
      "stateMutability": "payable",
      "type": "receive"
    }
  ],
  "bytecode": "0x6080346200108857601f6200630c38819003918201601f19168301916001600160401b0383118484101762000c6e578084926020946040528339810103126200108857516001600160a01b0380821691829003620010885762000061620010ed565b91601583527f44756e67656f6e2044656c766572732052656c69630000000000000000000000602084015262000096620010ed565b600381526222222960e91b602082015283519092906001600160401b03811162000c6e57620000c76000546200110d565b601f811162001047575b50602094601f821160011462000fcf5794819293949560009262000fc3575b50508160011b916000199060031b1c1916176000555b82516001600160401b03811162000c6e57620001246001546200110d565b601f811162000f75575b506020601f821160011462000efc578192939460009262000ef0575b50508160011b916000199060031b1c1916176001555b811562000ed757600680546001600160a01b031981168417909155167f8be0079c531659141344cd1fd0a4f28419497f9722a3daafe3b4186f6b6457e0600080a36001600755671bc16d674ec80000601255660110d9316ec000601355620001ca6016546200110d565b601f811162000e88575b50609360169081556000527f68747470733a2f2f64756e67656f6e2d64656c766572732d6d65746164617461600080516020620062ec833981519152557f2d7365727665722e6f6e72656e6465722e636f6d2f6170692f72656c69632f757fd833147d7dc355ba459fc788f669e58cfaf9dc25ddcd0702e87d69c7b512428a55681b9c995d99585b195960ba1b7fd833147d7dc355ba459fc788f669e58cfaf9dc25ddcd0702e87d69c7b512428b556001601155620002926200108d565b600181526020810160058152620002a8620010ed565b90600b82526a14da5b99db1948135a5b9d60aa1b60208301526040830191825260008052601460205260406000209251835560ff6001840191511660ff198254161790555180519060018060401b03821162000c6e576200031c826200031260028601546200110d565b6002860162001163565b602090601f831160011462000e1357600292916000918362000e07575b50508160011b916000199060031b1c1916179101555b620003596200108d565b6005815260208101600581526200036f620010ed565b90600b82526a42726f6e7a65205061636b60a81b6020830152604083019182526001600052601460205260406000209251835560ff6001840191511660ff198254161790555180519060018060401b03821162000c6e57620003da826200031260028601546200110d565b602090601f831160011462000d9257600292916000918362000d86575b50508160011b916000199060031b1c1916179101555b620004176200108d565b600a815260208101600581526200042d620010ed565b90600b82526a53696c766572205061636b60a81b6020830152604083019182526002600052601460205260406000209251835560ff6001840191511660ff198254161790555180519060018060401b03821162000c6e5762000498826200031260028601546200110d565b602090601f831160011462000d1157600292916000918362000d05575b50508160011b916000199060031b1c1916179101555b620004d56200108d565b601481526020810160058152620004eb620010ed565b906009825268476f6c64205061636b60b81b6020830152604083019182526003600052601460205260406000209251835560ff6001840191511660ff198254161790555180519060018060401b03821162000c6e5762000554826200031260028601546200110d565b602090601f831160011462000c9057600292916000918362000c84575b50508160011b916000199060031b1c1916179101555b620005916200108d565b6032815260056020820152620005a6620010ed565b600d81526c506c6174696e756d205061636b60981b602082015260408201526004600052601460205260408060002091805183556001830160ff60208301511660ff19825416179055015180519060018060401b03821162000c6e5762000616826200031260028601546200110d565b602090601f831160011462000bf957600292916000918362000bed575b50508160011b916000199060031b1c1916179101555b6005601555620006ef6200065c620010ad565b60018152600160208201526001604082015260ff60608201600181526001600052601a602052620006d58260408060002095828151168319885416178755620006bc83602083015116889061ff0082549160081b169061ff001916179055565b0151855462ff00001916911660101b62ff000016178455565b51825463ff0000001916911660181b63ff00000016179055565b62000772620006fd620010ad565b6001815260ff6020820160028152620006d58260408501600381526200075a826060880195600487526005600052601a60205281604060002099511682198a54161789555116879061ff0082549160081b169061ff001916179055565b51855462ff00001916911660101b62ff000016178455565b620007dd62000780620010ad565b6001815260ff6020820160038152620006d58260408501600481526200075a82606088019560078752600a600052601a60205281604060002099511682198a54161789555116879061ff0082549160081b169061ff001916179055565b62000848620007eb620010ad565b6002815260ff6020820160048152620006d58260408501600781526200075a826060880195600c87526014600052601a60205281604060002099511682198a54161789555116879061ff0082549160081b169061ff001916179055565b620008b362000856620010ad565b6002815260ff6020820160068152620006d58260408501600d81526200075a826060880195601987526032600052601a60205281604060002099511682198a54161789555116879061ff0082549160081b169061ff001916179055565b620008bd620010cd565b60018152600060208201526000604082015260006060820152600060808201526001600052601b602052608060406000209160ff81511660ff198454161783556200092060ff602083015116849061ff0082549160081b169061ff001916179055565b6040810151835462ff0000191660109190911b62ff0000161783556060810151835463ff000000191660189190911b63ff00000016178355015164ff0000000082549160201b169064ff0000000019161790556200097d620010cd565b60038152602081016002815262000a1960ff6040840160008152620009ff82606087019260008452620009e78260808a019860008a526005600052601b6020528160406000209b511682198c5416178b555116899061ff0082549160081b169061ff001916179055565b51875462ff00001916911660101b62ff000016178655565b51845463ff0000001916911660181b63ff00000016178355565b5164ff0000000082549160201b169064ff00000000191617905562000a3d620010cd565b60068152602081016003815262000aa760ff6040840160018152620009ff82606087019260008452620009e78260808a019860008a52600a600052601b6020528160406000209b511682198c5416178b555116899061ff0082549160081b169061ff001916179055565b5164ff0000000082549160201b169064ff00000000191617905562000acb620010cd565b600b8152602081016006815262000b3560ff6040840160038152620009ff82606087019260008452620009e78260808a019860008a526014600052601b6020528160406000209b511682198c5416178b555116899061ff0082549160081b169061ff001916179055565b5164ff0000000082549160201b169064ff00000000191617905562000b59620010cd565b60198152602081016010815262000bc360ff6040840160088152620009ff82606087019260018452620009e78260808a019860008a526032600052601b6020528160406000209b511682198c5416178b555116899061ff0082549160081b169061ff001916179055565b5164ff0000000082549160201b169064ff0000000019161790556040516151089081620011a48239f35b01519050388062000633565b906002840160005260206000209160005b601f198516811062000c555750918391600193600295601f1981161062000c3b575b505050811b0191015562000649565b015160001960f88460031b161c1916905538808062000c2c565b9192602060018192868501518155019401920162000c0a565b634e487b7160e01b600052604160045260246000fd5b01519050388062000571565b906002840160005260206000209160005b601f198516811062000cec5750918391600193600295601f1981161062000cd2575b505050811b0191015562000587565b015160001960f88460031b161c1916905538808062000cc3565b9192602060018192868501518155019401920162000ca1565b015190503880620004b5565b906002840160005260206000209160005b601f198516811062000d6d5750918391600193600295601f1981161062000d53575b505050811b01910155620004cb565b015160001960f88460031b161c1916905538808062000d44565b9192602060018192868501518155019401920162000d22565b015190503880620003f7565b906002840160005260206000209160005b601f198516811062000dee5750918391600193600295601f1981161062000dd4575b505050811b019101556200040d565b015160001960f88460031b161c1916905538808062000dc5565b9192602060018192868501518155019401920162000da3565b01519050388062000339565b906002840160005260206000209160005b601f198516811062000e6f5750918391600193600295601f1981161062000e55575b505050811b019101556200034f565b015160001960f88460031b161c1916905538808062000e46565b9192602060018192868501518155019401920162000e24565b601660005262000ed090601f0160051c600080516020620062ec833981519152017fd833147d7dc355ba459fc788f669e58cfaf9dc25ddcd0702e87d69c7b512428c6200114a565b38620001d4565b604051631e4fbdf760e01b815260006004820152602490fd5b0151905038806200014a565b60016000908152600080516020620062cc8339815191529190601f198416905b81811062000f5c5750958360019596971062000f42575b505050811b0160015562000160565b015160001960f88460031b161c1916905538808062000f33565b9192602060018192868b01518155019401920162000f1c565b600160005262000fb190600080516020620062cc833981519152601f840160051c8101916020851062000fb8575b601f0160051c01906200114a565b386200012e565b909150819062000fa3565b015190503880620000f0565b6000808052601f19831696600080516020620062ac8339815191529290915b8881106200102e5750836001959697981062001014575b505050811b0160005562000106565b015160001960f88460031b161c1916905538808062001005565b9192602060018192868501518155019401920162000fee565b600080526200108190600080516020620062ac833981519152601f840160051c8101916020851062000fb857601f0160051c01906200114a565b38620000d1565b600080fd5b60405190606082016001600160401b0381118382101762000c6e57604052565b60405190608082016001600160401b0381118382101762000c6e57604052565b6040519060a082016001600160401b0381118382101762000c6e57604052565b60408051919082016001600160401b0381118382101762000c6e57604052565b90600182811c921680156200113f575b60208310146200112957565b634e487b7160e01b600052602260045260246000fd5b91607f16916200111d565b81811062001156575050565b600081556001016200114a565b9190601f81116200117357505050565b620011a1926000526020600020906020601f840160051c8301931062000fb857601f0160051c01906200114a565b56fe6080604052600436101561001b575b361561001957600080fd5b005b6000803560e01c806268f22e146132dc57806301ffc9a71461326d57806306fdde03146131c9578063081812fc1461318c578063095ea7b3146130a957806312e8e2c314613086578063166829e3146130625780631cbb4131146130255780631dafec0014612f5157806323b872dd14612f3957806326232a2e14612f1b5780632ca5f30a14612ee95780633a92c0ac14612ecb5780633f4ba83a14612e60578063415d6a0114612d6a57806342842e0e14612d3c5780634350772c14612d135780634403940214612cea57806355f804b314612b585780635b6ef03214612ad55780635c975abb14612ab25780636352211e14612a8157806367cfab5814612a585780636844126f146129c05780636ab1b29b146129515780636aef50691461279e5780636c0360eb1461270a5780637035bf18146126ee57806370a0823114612696578063715018a6146126395780637a33eabc146125d15780638456cb591461257657806386da2bd7146125205780638973bc7e146125045780638b3fd44f146122775780638da5cb5b1461224e5780638f2fec08146121c7578063936315d614612199578063938e3d7b14611fdc57806395d89b4114611f0d57806396b55f7d14611eef5780639b41886c14611ed15780639bd1613514611d80578063a20fd5c414611c84578063a22cb46514611bd8578063b1d78c9a14611bb1578063b88d4fde14611b42578063bfbfccb214611a85578063c1b39a3e14611a5c578063c47d4357146119e1578063c820c7f1146118dc578063c87b56dd146118bc578063c886015d14611581578063cc64cb7c14610c60578063d0fdcc0914610823578063d96fe72d14610807578063db4b826814610799578063de4b53bd14610742578063e0d5e1b4146106c8578063e8a3d485146105e6578063e985e9c514610592578063eb578bca1461054f578063f2fde38b146104bf578063f30cf6b6146104795763fe2c7fee146102f1575061000e565b346104765760209081600319360112610476576001600160401b03600435818111610472576103249036906004016134fd565b9261032d613729565b835191821161045e5761034160165461351b565b601f8111610406575b5080601f83116001146103855750829382939261037a575b50508160011b916000199060031b1c19161760165580f35b015190503880610362565b60168452601f198316947fd833147d7dc355ba459fc788f669e58cfaf9dc25ddcd0702e87d69c7b5124289929185905b8782106103ee5750508360019596106103d5575b505050811b0160165580f35b015160001960f88460031b161c191690553880806103c9565b806001859682949686015181550195019301906103b5565b61044e90601685527fd833147d7dc355ba459fc788f669e58cfaf9dc25ddcd0702e87d69c7b5124289601f850160051c810191848610610454575b601f0160051c019061453a565b3861034a565b9091508190610441565b634e487b7160e01b83526041600452602483fd5b8280fd5b80fd5b50346104765760203660031901126104765760406060916004358152600b602052205460ff604051918181168352818160081c16602084015260101c1615156040820152f35b5034610476576020366003190112610476576104d9613344565b6104e1613729565b6001600160a01b0390811690811561053657600654826bffffffffffffffffffffffff60a01b821617600655167f8be0079c531659141344cd1fd0a4f28419497f9722a3daafe3b4186f6b6457e0600080a380f35b604051631e4fbdf760e01b815260048101849052602490fd5b50346104765760203660031901126104765760ff61058e610571600435613a89565b604092919251938493168352604060208401526040830190613393565b0390f35b5034610476576040366003190112610476576105ac613344565b60406105b661335a565b9260018060a01b0380931681526005602052209116600052602052602060ff604060002054166040519015158152f35b50346104765780600319360112610476576040516000600a546106088161351b565b808452906001908181169081156106a15750600114610646575b61058e846106328186038261348a565b604051918291602083526020830190613393565b600a600090815292507fc65a7bb8d6351c1cf70c95a316cc6a92839c986682d98bc35f958f4883f9d2a85b82841061068957505050810160200161063282610622565b80546020858701810191909152909301928101610671565b60ff191660208087019190915292151560051b850190920192506106329150839050610622565b5034610476576020366003190112610476576106e2613344565b6106ea613cb2565b6106f2613c94565b6106fb81613e07565b6001600160a01b031633819003610716575b50600160075580f35b33907f03b940e5594caf9c29015b39d851054d069d150d662629de6bbdc3086fc163cd8380a33861070d565b5034610476576020366003190112610476576040906004358152601460205220805461058e61077b600260ff6001860154169401613613565b60405193849384526020840152606060408401526060830190613393565b5034610476576020366003190112610476576107b3613344565b6107bb613729565b600d80546001600160a01b0319166001600160a01b03928316908117909155600c549091167f14662a0fccd762a05d5e1fa6afdd204554c4cf90fe58b5c5947f664fb71925f58380a380f35b5034610476578060031936011261047657602060405160038152f35b50602080600319360112610c5c576004359061083d613cb2565b610845613c94565b81151580610c51575b61085790613b28565b3383526017815261087660408420805415908115610c42575b50613b74565b61087f82613a89565b5061088983614daf565b908461089785601354613bc0565b600f546001600160a01b039491908690861680610bd2575b50506108bd90341015613be0565b60048585600c5416604051928380926329bdca3760e01b82525afa8015610b115785918491610b98575b501690813b156104725760405163d064ff1960e01b8152336004820152602481019190915291908290604490829084905af18015610b8d57610b5e575b506040513360601b6bffffffffffffffffffffffff19168482019081524360148201526034810186905286929161096881605484015b03601f19810183528261348a565b51902092600f541680610a6a575b50610a1160ff6001926109fb6004610a2a9760405190610995826133ed565b4382528a8083018d815260408b60178287019434865260608801968752608088019e8f528b60a089019b168b5260c088019d8e523383525220935184555160018401555160028301555160038201550195511515869060ff801983541691151516179055565b51845461ff001916911660081b61ff0016178355565b51815462ff0000191690151560101b62ff000016179055565b6040519182524390820152600160408201527fe76693a509b276a8f091f368f5ee1fcd90a958858d61248bdb8588205bcd734560603392a2600160075580f35b6040516321ffa5f960e21b81528581600481855afa918215610b5357869286928691610b1c575b5060405163435639fb60e11b8152336004820152602481018a905260ff861660448201526064810193909352919291839160849183915af1908115610b11578591610add575b50610976565b90809293503d8311610b0a575b610af4818361348a565b81010312610b055784908338610ad7565b600080fd5b503d610aea565b6040513d85823e3d90fd5b93925050935081813d8311610b4c575b610b36818361348a565b81010312610b0557518692859185919084610a91565b503d610b2c565b6040513d86823e3d90fd5b6001600160401b038196929611610b79576040529338610924565b634e487b7160e01b82526041600452602482fd5b6040513d88823e3d90fd5b809250878092503d8311610bcb575b610bb1818361348a565b8101031261047257518481168103610472578490386108e7565b503d610ba7565b6040516321ffa5f960e21b81529190829060049082905afa908115610b53578491610c0f575b50610c06906108bd92613bd3565b905085386108af565b90508681813d8311610c3b575b610c26818361348a565b81010312610c3757516108bd610bf8565b8380fd5b503d610c1c565b60ff9150600401541638610870565b50603282111561084e565b5080fd5b503461047657602036600319011261047657610c7a613344565b610c82613cb2565b610c8a613c94565b6001600160a01b03811682526017602052604082208054610cac811515613cd5565b610cbd60ff60048401541615613d1a565b600381019081811161156d57610102018091116112d35743111561152f576001600160a01b03821680845260176020908152604080862060048082018054600160ff1991821681179092556019808752858b20838c528752858b20805483169055878b52808752858b2060028c528752858b20805483169055878b52808752858b2060038c528752858b20805483169055878b52808752858b20938b52928652848a20805482169055958952908452828820600589529093529086208054909316909255810154601c805490869055909390806114eb575b50838552601b602052604085209360405194610db086613439565b549460ff8616815260ff808760081c1691826020820152818860101c166040820152818860181c166060820152818860201c16608082015296161590816114e2575b506113bf575b50845b60ff60808601511660ff82161015610e6257601c54600160401b811015610e4e5790610e30826001610e499401601c5561477a565b81549060031b9060ff6005831b921b19161790556147b7565b610dfb565b634e487b7160e01b87526041600452602487fd5b508493845b60ff60608301511660ff82161015610eba57601c54600160401b811015610e4e5790610e9c826001610eb59401601c5561477a565b81549060031b9060ff6004831b921b19161790556147b7565b610e67565b508493845b60ff60408401511660ff82161015610f1257601c54600160401b811015610e4e5790610ef4826001610f0d9401601c5561477a565b81549060031b9060ff6003831b921b19161790556147b7565b610ebf565b508493845b60ff60208501511660ff82161015610f6a57601c54600160401b811015610e4e5790610f4c826001610f659401601c5561477a565b81549060031b9060ff6002831b921b19161790556147b7565b610f17565b508493845b60ff85511660ff82161015610fc257601c54600160401b811015610e4e5760ff91610fa3826001610fbb9401601c5561477a565b81549060031b90856001831b921b19161790556147b7565b9050610f6f565b50601c54859450600019908181019081116112e757805b6112fb57508254600381018091116112e75740156112c4575b5061100060018301546144c6565b91845b60018201548110156110fa57601180549061101d826144f8565b90558061102a8387614507565b5261107d60405161103a8161341e565b88815260208082018a815260408084018c8152868d52600b9093528b2092518354915161ffff1990921660ff919091161760089190911b61ff0016178255610a11565b6110878185614575565b6001600160a01b0384168752601860205260408720805490600160401b8210156110e6576110c3826110da9260016110e19796950181556136b7565b819391549060031b91821b91600019901b19161790565b90556144f8565b611003565b634e487b7160e01b89526041600452602489fd5b5092939193825b85518110156111ec57806111186111e79288614507565b5160ff6111248361477a565b90549060031b1c1690808752600b602052604087208260ff1982541617815561115e83829061ff0082549160081b169061ff001916179055565b805462ff00001916620100001790556040805160ff841680825260208201526001600160a01b0388169183916000805160206150938339815191529190a36040805160ff90931680845260208401526001600160a01b038716927f6887aac0938f877edd3b2e270244e90b56b78b9da03bfc5bd410f1f90728479c91819081015b0390a36144f8565b611101565b50600190847f0908417bb2d0393a45bf6efe35cecf8dbedbab1767b8d95f650094c6ccd1d0ac8760ff60048685015494015460081c1661123a604051928392888060a01b038a16968461451b565b0390a2818060a01b038316845260176020526112716040852060046000918281558260018201558260028201558260038201550155565b601860205261128260408520614551565b015460405190815233916001600160a01b0316907fa65d0fdb45e0e0e3df56379247bc241e554ab7115be9ea5b25a37920bfbba3c290602090a3600160075580f35b43904301116112d35784610ff2565b634e487b7160e01b84526011600452602484fd5b634e487b7160e01b86526011600452602486fd5b6040516020810190428252826040820152604081526113198161341e565b51902060018201908183116113ab57811561139757611391929161138c910661136e60ff6113468561477a565b90549060031b1c169161138760ff61135d8361477a565b90549060031b1c1661136e8761477a565b90919060ff8084549260031b9316831b921b1916179055565b61477a565b613a66565b80610fd9565b634e487b7160e01b88526012600452602488fd5b634e487b7160e01b88526011600452602488fd5b9093506005811015611420575060018452601b6020526040842060ff604051916113e883613439565b548181168352818160081c166020840152818160101c166040840152818160181c16606084015260201c166080820152925b38610df8565b600a81101561147c575060058452601b6020526040842060ff6040519161144683613439565b548181168352818160081c166020840152818160101c166040840152818160181c16606084015260201c1660808201529261141a565b60148110156114a25750600a8452601b6020526040842060ff6040519161144683613439565b603211156114c65760148452601b6020526040842060ff6040519161144683613439565b60328452601b6020526040842060ff6040519161144683613439565b90501538610df2565b601f7f0e4562a10381dec21b205ed72637e6b1b523bdd0e4d4d50af5cd23dd4500a211910160051c8101905b8181106115245750610d95565b868155600101611517565b60405162461bcd60e51b815260206004820152601660248201527514995b1a58ce88139bdd08195e1c1a5c9959081e595d60521b6044820152606490fd5b634e487b7160e01b85526011600452602485fd5b50602080600319360112610c5c576004359061159b613cb2565b6115a3613c94565b811515806118b1575b6115b590613b28565b338352601781526115d360408420805415908115610c425750613b74565b6115dc82613a89565b50836115e784614daf565b6115f385601354613bc0565b600f546001600160a01b0392908316918683611833575b50611654925061161c90341015613be0565b82600d5416604051916323b872dd60e01b8884015233602484015230604484015260648301526064825261164f82613439565b613c2c565b6040513360601b6bffffffffffffffffffffffff1916858201908152436014820152603481018790529061168b816054840161095a565b51902090600f54168061175c575b50610a1160ff61171d946109fb60048695604051906116b7826133ed565b4382528a8083018d815260408a60178287019434865260608801968752608088019e8f528b60a089019b168b5260c088019d8e523383525220935184555160018401555160028301555160038201550195511515869060ff801983541691151516179055565b60405191825243908201528160408201527fe76693a509b276a8f091f368f5ee1fcd90a958858d61248bdb8588205bcd734560603392a2600160075580f35b6040516321ffa5f960e21b8152908582600481845afa8015610b5357869186859287906117fd575b60405163435639fb60e11b8152336004820152602481018c905260ff9092166044830152606482019390935293508391829081608481015b03925af1908115610b115785916117d4575b50611699565b813d83116117f6575b6117e7818361348a565b81010312610c5c5783386117ce565b503d6117dd565b505091905082813d831161182c575b611816818361348a565b81010312610c3757828691866117bc9451611784565b503d61180c565b6040516321ffa5f960e21b815293849060049082905afa9283156118a6578593611871575b506118696116549361161c92613bd3565b90508661160a565b92508683813d831161189f575b611888818361348a565b8101031261189b57915191611869611858565b8480fd5b503d61187e565b6040513d87823e3d90fd5b5060328211156115ac565b50346104765760203660031901126104765761058e610632600435614b21565b5034610476576060366003190112610476576118f6613344565b6024359060ff8216808303610c3757600080516020615093833981519152602094610a1194936119d660ff9461199e61192d6136e5565b9160018060a01b039561194587600e54163314614ad5565b6011549a8b998a926040519461195a8661341e565b8552818f604090870192828a168452818801966001885281526020600b90522095511682198654161785555116839061ff0082549160081b169061ff001916179055565b6119a88684614575565b6119b36011546144f8565b60115560405193849316968390929160ff60209181604085019616845216910152565b0390a3604051908152f35b50346104765780600319360112610476576119fa613729565b8080808060018060a01b036006541647905af1611a1561391a565b5015611a1e5780f35b60405162461bcd60e51b815260206004820152601660248201527513985d1a5d99481dda5d1a191c985dc819985a5b195960521b6044820152606490fd5b5034610476578060031936011261047657600f546040516001600160a01b039091168152602090f35b503461047657602036600319011261047657604090600435611aa6816138f7565b508152600b6020522060405190611abc8261341e565b549060ff8216815260ff6020820192818160081c16845260101c161580156040830152611afd575190516040805160ff938416815292909116602083015290f35b60405162461bcd60e51b815260206004820152601760248201527f52656c69633a204e6f74207965742072657665616c65640000000000000000006044820152606490fd5b503461047657608036600319011261047657611b5c613344565b611b6461335a565b90604435606435926001600160401b03841161189b573660238501121561189b57611b9c611bae9436906024816004013591016134c6565b92611ba8838383613755565b3361394a565b80f35b5034610476576020366003190112610476576020611bd0600435614daf565b604051908152f35b503461047657604036600319011261047657611bf2613344565b6024359081151590818303610c37576001600160a01b0316918215611c6b57611c3c90338552600560205260408520848652602052604085209060ff801983541691151516179055565b6040519081527f17307eab39ab6107e8899845ad3d59bd9653f200f220920489ca2b5937696c3160203392a380f35b604051630b61174360e31b815260048101849052602490fd5b5034610476576020366003190112610476576001600160a01b03611ca6613344565b1681526017602052604081209060405190611cc0826133ed565b600483549384845260018101546020850152600281015460408501526003810154606085015201549160c060ff808516159485156080850152818160081c1660a085015260101c1615159101528215159182611d78575b5081611d2b575b6020826040519015158152f35b90506003820191828111611d645761010201809211611d505750602090431138611d1e565b634e487b7160e01b81526011600452602490fd5b634e487b7160e01b82526011600452602482fd5b915038611d17565b5034610476578060031936011261047657601554611d9d81613d66565b90611dab604051928361348a565b808252601f19611dba82613d66565b01835b818110611ea7575050825b818110611e4f57505060405190602092838301848452825180915260408401948060408360051b870101940192955b828710611e045785850386f35b909192938280611e3f600193603f198a8203018652604089518051835260ff8582015116858401520151906060908160408201520190613393565b9601920196019592919092611df7565b80611ea2918552602060148152611e82600260408820600581549460405195611e778761341e565b865285015201613613565b6040820152611e918286614507565b52611e9c8185614507565b506144f8565b611dc8565b602090604051611eb68161341e565b86815282878183015260606040830152828701015201611dbd565b50346104765780600319360112610476576020601254604051908152f35b50346104765780600319360112610476576020601554604051908152f35b503461047657806003193601126104765760405190806001805491611f318361351b565b80865292828116908115611fb25750600114611f58575b61058e856106328187038261348a565b92508083527fb10e2d527612073b26eecdfd717e6a320cf44b4afac2b0732d9fcbe2b7fa0cf65b828410611f9a5750505081016020016106328261058e611f48565b80546020858701810191909152909301928101611f7f565b86955061058e9693506020925061063294915060ff191682840152151560051b8201019293611f48565b50346104765760209081600319360112610476576001600160401b03600435818111610472576120109036906004016134fd565b90612019613729565b815190811161045e5761202d600a5461351b565b601f811161214c575b5083601f82116001146120aa5790808495927f905d981207a7d0b6c62cc46ab0be2a076d0298e4a86d0ab79882dbd01ac37378959161209f575b508160011b916000199060031b1c191617600a555b612099604051928284938452830190613393565b0390a180f35b905083015138612070565b600a84527fc65a7bb8d6351c1cf70c95a316cc6a92839c986682d98bc35f958f4883f9d2a890601f198316855b81811061213557509183917f905d981207a7d0b6c62cc46ab0be2a076d0298e4a86d0ab79882dbd01ac373789697946001941061211c575b5050811b01600a55612085565b85015160001960f88460031b161c19169055388061210f565b9192876001819286890151815501940192016120d7565b61219390600a85527fc65a7bb8d6351c1cf70c95a316cc6a92839c986682d98bc35f958f4883f9d2a8601f840160051c81019187851061045457601f0160051c019061453a565b38612036565b50346104765760203660031901126104765760206121bd6121b8613344565b614e81565b6040519015158152f35b503461047657602080600319360112610c5c576001600160a01b036121ea613344565b168252601881526040822091604051809384918482549182815201918452848420935b85828210612238575050506122249250038361348a565b61058e6040519282849384528301906136f5565b855484526001958601958895509301920161220d565b50346104765780600319360112610476576006546040516001600160a01b039091168152602090f35b503461047657608036600319011261047657600435906024356122986136e5565b926001600160401b039160643583811161189b576122ba9036906004016134fd565b946122c3613729565b600a8310156124bf5760ff1690600180831015806124b4575b1561246f576040516122ed8161341e565b82815260209560028783019286845260408101938b8552888b5260148a5260408b209151825560ff86830191511660ff1982541617905501915180519182116110e657819061233c845461351b565b601f8111612441575b508890601f83116001146123e2578a926123d7575b5050600019600383901b1c191690831b1790555b6015548410156123c3575b5094612099917fc03e8a93a79fa8eb0097f5fbbbb816f93271b89d3ffc92753e027320b992f93e959660405195869586528501526040840152608060608401526080830190613393565b83018084116112e757601555612099612379565b01519050388061235a565b848b52898b208694509190601f1984168c5b8c82821061242b5750508411612412575b505050811b01905561236e565b015160001960f88460031b161c19169055388080612405565b83850151865589979095019493840193016123f4565b61246990858c528a8c20601f850160051c8101918c861061045457601f0160051c019061453a565b38612345565b60405162461bcd60e51b815260206004820152601960248201527f52656c69633a20496e76616c6964206d617820726172697479000000000000006044820152606490fd5b5060058311156122dc565b60405162461bcd60e51b815260206004820152601860248201527f52656c69633a205469657220494420746f6f206c6172676500000000000000006044820152606490fd5b5034610476578060031936011261047657602060405160ff8152f35b50346104765760403660031901126104765761253a613344565b6001600160a01b031681526018602052604081208054602435929083101561047657602061256884846136b7565b90546040519160031b1c8152f35b503461047657806003193601126104765761258f613729565b612597613c94565b600160ff1960085416176008557f62e78cea01bee320cd4e420270b5ea74000d11b0c9f74754ebdbfc544b05a2586020604051338152a180f35b5034610476576020366003190112610476576125eb613344565b6125f3613729565b600f80546001600160a01b0319166001600160a01b039290921691821790557feda44c694e75c8161562f6179238b37a8daa291b6b2229613ed903ed92ab2d3d8280a280f35b5034610476578060031936011261047657612652613729565b600680546001600160a01b0319811690915581906001600160a01b03167f8be0079c531659141344cd1fd0a4f28419497f9722a3daafe3b4186f6b6457e08280a380f35b5034610476576020366003190112610476576001600160a01b036126b8613344565b1680156126d5578160409160209352600383522054604051908152f35b6040516322718ad960e21b815260048101839052602490fd5b503461047657806003193601126104765761058e610632613555565b5034610476578060031936011261047657604051908060095461272c8161351b565b80855291600191808316908115611fb257506001146127555761058e856106328187038261348a565b9250600983526000805160206150b38339815191525b8284106127865750505081016020016106328261058e611f48565b8054602085870181019190915290930192810161276b565b503461047657602080600319360112610c5c576004359060018060a01b036127cb81600e54163314614ad5565b6127d4836138f7565b838552600b83526040852090604051916127ed8361341e565b549160ff8316815260ff85820193818160081c16855260101c161580156040830152612900575191516040805160ff948516815293909116602084015285938793909283169185917f7f33b20c4df962ca720387409232fd87c13e869902a3e55f0f5fefe0a87768259190a382825260028452604082205416600281159485156128cc575b848452526040822080546001600160a01b03191690557fddf252ad1be2c89b69c2b068fc378daa952ba7f163c4a11628f55a4df523b3ef8280a46128b4575080f35b60249060405190637e27328960e01b82526004820152fd5b600085815260046020526040902080546001600160a01b031916905582845260038152604084208054600019019055612872565b60405162461bcd60e51b815260048101869052602360248201527f52656c69633a2043616e6e6f74206275726e20756e72657665616c65642072656044820152626c696360e81b6064820152608490fd5b50346104765760203660031901126104765761296b613344565b612973613729565b600c80546001600160a01b0319166001600160a01b03928316908117909155600d54909116907f14662a0fccd762a05d5e1fa6afdd204554c4cf90fe58b5c5947f664fb71925f58380a380f35b503461047657602080600319360112610c5c5760043591806129e184613a89565b9180915090601554915b828110612a2a57505050612a1b612a03608095614daf565b91604051958695600587528601526080850190613393565b91604084015260608301520390f35b80825260148652604082205480881015612a4e575b50612a49906144f8565b6129eb565b9450612a49612a3f565b5034610476578060031936011261047657600c546040516001600160a01b039091168152602090f35b5034610476576020366003190112610476576020612aa06004356138f7565b6040516001600160a01b039091168152f35b5034610476578060031936011261047657602060ff600854166040519015158152f35b50346104765760203660031901126104765760e0906040906001600160a01b03612afd613344565b16815260176020522060ff8154916001810154906002810154600460038301549201549260405195865260208601526040850152606084015281811615156080840152818160081c1660a084015260101c16151560c0820152f35b50346104765760209081600319360112610476576001600160401b0360043581811161047257612b8c9036906004016134fd565b90612b95613729565b815190811161045e57612ba960095461351b565b601f8111612caf575b5083601f8211600114612c1f5790808495927ff9c7803e94e0d3c02900d8a90893a6d5e90dd04d32a4cfe825520f82bf9f32f69591612c14575b508160011b916000199060031b1c191617600955612099604051928284938452830190613393565b905083015138612bec565b600984526000805160206150b383398151915290601f198316855b818110612c9857509183917ff9c7803e94e0d3c02900d8a90893a6d5e90dd04d32a4cfe825520f82bf9f32f696979460019410612c7f575b5050811b01600955612085565b85015160001960f88460031b161c191690553880612c72565b919287600181928689015181550194019201612c3a565b612ce490600985526000805160206150b3833981519152601f840160051c81019187851061045457601f0160051c019061453a565b38612bb2565b5034610476578060031936011261047657600d546040516001600160a01b039091168152602090f35b5034610476578060031936011261047657600e546040516001600160a01b039091168152602090f35b503461047657611bae612d4e366133b8565b9060405192612d5c8461346f565b858452611ba8838383613755565b503461047657602036600319011261047657604060e091612d89613344565b8160c08451612d97816133ed565b82815282602082015282868201528260608201528260808201528260a0820152015260018060a01b0316815260176020522060405190612dd6826133ed565b60ff815492838152600183015460208201908152600284015493604083019485526004600382015491606085019283520154946080840192858716151584528560c060a0870196828a60081c168852019760101c16151587526040519788525160208801525160408701525160608601525115156080850152511660a083015251151560c0820152f35b5034610476578060031936011261047657612e79613729565b60085460ff811615612eb95760ff19166008557f5db9ee0a495bf2e6ff9c91a7834c1ba4fdd244a5e8aa4e537bd38aeae4b073aa6020604051338152a180f35b604051638dfc202b60e01b8152600490fd5b50346104765780600319360112610476576020601054604051908152f35b5034610476578060031936011261047657612f02613cb2565b612f0a613c94565b612f1333613e07565b600160075580f35b50346104765780600319360112610476576020601354604051908152f35b503461047657611bae612f4b366133b8565b91613755565b5034610476578060031936011261047657612f6a613729565b600d546040516370a0823160e01b81523060048201526001600160a01b03918216602082602481845afa918215610b53578492612ff2575b5081612fac578380f35b60065460405163a9059cbb60e01b602082015293166001600160a01b03166024840152604480840192909252908252612feb919061164f60648361348a565b3880808380f35b9091506020813d821161301d575b8161300d6020938361348a565b81010312610c3757519038612fa2565b3d9150613000565b503461047657602036600319011261047657600435613042613729565b670de0b6b3a764000090818102918183041490151715611d645760125580f35b5034610476576020366003190112610476576020611bd0613081613344565b614fbd565b5034610476576020366003190112610476576130a0613729565b60043560135580f35b5034610476576040366003190112610476576130c3613344565b6024356130cf816138f7565b33151580613179575b8061314e575b613136576001600160a01b039283169282918491167f8c5be1e5ebec7d5bd14f71427d1e84f3dd0314c0f7b2291e5b200ac8c7c3b9258680a4825260046020526040822080546001600160a01b031916909117905580f35b60405163a9fbf51f60e01b8152336004820152602490fd5b506001600160a01b038116845260056020908152604080862033875290915284205460ff16156130de565b506001600160a01b0381163314156130d8565b5034610476576020366003190112610476576020906004356131ad816138f7565b50815260048252604060018060a01b0391205416604051908152f35b5034610476578060031936011261047657604051908080546131ea8161351b565b80855291600191808316908115611fb257506001146132135761058e856106328187038261348a565b80809450527f290decd9548b62a8d60345a988386fc84ba6bc95484008f6362f93160ef3e5635b8284106132555750505081016020016106328261058e611f48565b8054602085870181019190915290930192810161323a565b50346104765760203660031901126104765760043563ffffffff60e01b8116809103610c5c576020906380ac58cd60e01b81149081156132cb575b81156132ba575b506040519015158152f35b6301ffc9a760e01b149050826132af565b635b5e139f60e01b811491506132a8565b5034610476576020366003190112610476576132f6613344565b6132fe613729565b600e80546001600160a01b0319166001600160a01b039290921691821790557f088c5ec3908e3424c43d8102e8e1cc8eb8820a25e326b9c31cc58963046b92e98280a280f35b600435906001600160a01b0382168203610b0557565b602435906001600160a01b0382168203610b0557565b60005b8381106133835750506000910152565b8181015183820152602001613373565b906020916133ac81518092818552858086019101613370565b601f01601f1916010190565b6060906003190112610b05576001600160a01b03906004358281168103610b0557916024359081168103610b05579060443590565b60e081019081106001600160401b0382111761340857604052565b634e487b7160e01b600052604160045260246000fd5b606081019081106001600160401b0382111761340857604052565b60a081019081106001600160401b0382111761340857604052565b608081019081106001600160401b0382111761340857604052565b602081019081106001600160401b0382111761340857604052565b90601f801991011681019081106001600160401b0382111761340857604052565b6001600160401b03811161340857601f01601f191660200190565b9291926134d2826134ab565b916134e0604051938461348a565b829481845281830111610b05578281602093846000960137010152565b9080601f83011215610b0557816020613518933591016134c6565b90565b90600182811c9216801561354b575b602083101461353557565b634e487b7160e01b600052602260045260246000fd5b91607f169161352a565b60405190600082601654916135698361351b565b808352926001908181169081156135f15750600114613592575b506135909250038361348a565b565b6016600090815291507fd833147d7dc355ba459fc788f669e58cfaf9dc25ddcd0702e87d69c7b51242895b8483106135d65750613590935050810160200138613583565b81935090816020925483858a010152019101909185926135bd565b90506020925061359094915060ff191682840152151560051b82010138613583565b90604051918260008254926136278461351b565b9081845260019485811690816000146136945750600114613651575b50506135909250038361348a565b9093915060005260209081600020936000915b81831061367c57505061359093508201013880613643565b85548884018501529485019487945091830191613664565b91505061359094506020925060ff191682840152151560051b8201013880613643565b80548210156136cf5760005260206000200190600090565b634e487b7160e01b600052603260045260246000fd5b6044359060ff82168203610b0557565b90815180825260208080930193019160005b828110613715575050505090565b835185529381019392810192600101613707565b6006546001600160a01b0316330361373d57565b60405163118cdaa760e01b8152336004820152602490fd5b6001600160a01b0391821692909183156138de57600092828452826020956002875260409684888820541696879133151580613845575b509060027fddf252ad1be2c89b69c2b068fc378daa952ba7f163c4a11628f55a4df523b3ef9284613812575b858352600381528b8320805460010190558683525289812080546001600160a01b0319168517905580a416928383036137f15750505050565b6064945051926364283d7b60e01b8452600484015260248301526044820152fd5b600087815260046020526040902080546001600160a01b0319169055848352600381528b832080546000190190556137b8565b9193945091508061389d575b156138615785929187913861378c565b87868861387e576024915190637e27328960e01b82526004820152fd5b905163177e802f60e01b81523360048201526024810191909152604490fd5b5033871480156138c2575b806138515750858252600481523385898420541614613851565b5086825260058152878220338352815260ff88832054166138a8565b604051633250574960e11b815260006004820152602490fd5b6000818152600260205260409020546001600160a01b03169081156128b4575090565b3d15613945573d9061392b826134ab565b91613939604051938461348a565b82523d6000602084013e565b606090565b9293823b61395a575b5050505050565b61399e9060018060a01b038094169560405194859481630a85bd0160e11b988988521660048701521660248501526044840152608060648401526084830190613393565b03906020816000938185885af190829082613a1e575b50506139ec57826139c361391a565b80519190826139e557604051633250574960e11b815260048101839052602490fd5b6020915001fd5b6001600160e01b03191603613a0657503880808080613953565b60249060405190633250574960e11b82526004820152fd5b909192506020813d8211613a5e575b81613a3a6020938361348a565b81010312610c5c5751906001600160e01b03198216820361047657509038806139b4565b3d9150613a2d565b8015613a73576000190190565b634e487b7160e01b600052601160045260246000fd5b601554805b613ace575050600590604051604081018181106001600160401b0382111761340857604052600b81526a14da5b99db1948135a5b9d60aa1b602082015290565b6000198101818111613b135760409060009081526014602052208054831015613b015750613afb90613a66565b80613a8e565b92915050613518600260059301613613565b60246000634e487b7160e01b81526011600452fd5b15613b2f57565b60405162461bcd60e51b815260206004820152601760248201527f52656c69633a20496e76616c6964207175616e746974790000000000000000006044820152606490fd5b15613b7b57565b60405162461bcd60e51b815260206004820152601c60248201527f52656c69633a2050726576696f7573206d696e742070656e64696e67000000006044820152606490fd5b81810292918115918404141715613a7357565b91908201809211613a7357565b15613be757565b60405162461bcd60e51b815260206004820152601b60248201527f52656c69633a20496e73756666696369656e74207061796d656e7400000000006044820152606490fd5b906000602091828151910182855af115613c88576000513d613c7f57506001600160a01b0381163b155b613c5d5750565b604051635274afe760e01b81526001600160a01b039091166004820152602490fd5b60011415613c56565b6040513d6000823e3d90fd5b60ff60085416613ca057565b60405163d93c066560e01b8152600490fd5b600260075414613cc3576002600755565b604051633ee5aeb560e01b8152600490fd5b15613cdc57565b60405162461bcd60e51b815260206004820152601660248201527514995b1a58ce88139bc81c195b991a5b99c81b5a5b9d60521b6044820152606490fd5b15613d2157565b60405162461bcd60e51b815260206004820152601760248201527f52656c69633a20416c72656164792072657665616c65640000000000000000006044820152606490fd5b6001600160401b0381116134085760051b60200190565b9190604083820312610b055782518015158103610b05579260209081810151906001600160401b038211610b0557019180601f84011215610b05578251613dc381613d66565b93613dd1604051958661348a565b818552838086019260051b820101928311610b05578301905b828210613df8575050505090565b81518152908301908301613dea565b9060018060a01b0380831660005260176020526040600020613e2b81541515613cd5565b600481018054613e3e60ff821615613d1a565b83600f54169081614271575b505050546003810190818111613a735781431061422c5761010201809111613a735743116141e757808316600090815260176020908152604080832060048082018054600160ff199182168117909255601986528487209187529452828520805485169055600285528285208054851690556003808652838620805486169055908552828520805485169055600585529190932080549092169091558154919491908101908110613a7357409384156141d2575b613f0b60018201546144c6565b9460005b6001830154811015613fd857601190815491613f2a836144f8565b905581613f37828a614507565b52613f94604051613f478161341e565b600081526020810160008152610a1160ff60408401926000845287600052600b60205281604060002095511682198654161785555116839061ff0082549160081b169061ff001916179055565b613f9e8286614575565b85851660005260186020526040600020918254600160401b811015613408576110c381613fd39560016110da940181556136b7565b613f0f565b50919294909360005b82518110156141445780613ff861413f9285614507565b516140a760405188602082018981526060926bffffffffffffffffffffffff1983851b16604082015286605482015260748681830152815261403981613439565b5190208c82166000526017602052604060002060c060ff60046040519361405f856133ed565b8054855260018101549788602087015260028201546040870152600382015490860152015481811615156080850152818160081c1660a085015260101c1615159101526147c8565b6000828152600b60209081526040918290208054600885901b61ff001660ff861662ffffff199092168217176201000017909155825181815291820152919291898c169183916000805160206150938339815191529190a36040805160ff9093168084526020840152888b16927f6887aac0938f877edd3b2e270244e90b56b78b9da03bfc5bd410f1f90728479c91819081016111df565b613fe1565b50949391507f0908417bb2d0393a45bf6efe35cecf8dbedbab1767b8d95f650094c6ccd1d0ac9060ff6004600185015494015460081c1661418e604051928392888816968461451b565b0390a21660005260176020526141c0604060002060046000918281558260018201558260028201558260038201550155565b60186020526135906040600020614551565b93506000194301438111613a73574093613efe565b60405162461bcd60e51b815260206004820152601c60248201527f52656c69633a2052657665616c2077696e646f772065787069726564000000006044820152606490fd5b60405162461bcd60e51b815260206004820152601a60248201527f52656c69633a20546f6f206561726c7920746f2072657665616c0000000000006044820152606490fd5b600060249260405193848092635681dbe960e01b8252898c1660048301525afa918215613c885760009060009361449e575b5080614494575b15613e4a57600160ff19918216811784558786166000908152601960209081526040808320848452909152808220805485169055600282528082208054851690556003825280822080548516905560048252808220805485169055600582529020805483169055938401805496979596939492939092919061432b906144c6565b936000835b614378575b505050509060ff7f0908417bb2d0393a45bf6efe35cecf8dbedbab1767b8d95f650094c6ccd1d0ac9254935460081c1661418e604051928392888816968461451b565b845481101561448f57906144878493928a6011805490614397826144f8565b9055806143a4848c614507565b528b816000805160206150938339815191526143ce8c846143c5898c614507565b519154916147c8565b946144278a8c610a1160ff604051936143e68561341e565b818c168086526020808701918252604080880196875260008c8152600b909252902095518654915161ff0090851660081b16931691161761ff001916178355565b6144318385614575565b6040805160ff881680825260208201529490911693a36040805160ff90931680845260208401528c8e16927f6887aac0938f877edd3b2e270244e90b56b78b9da03bfc5bd410f1f90728479c91819081016111df565b909192614330565b614335565b50815115156142aa565b90506144be9192503d806000833e6144b6818361348a565b810190613d7d565b9190386142a3565b906144d082613d66565b6144dd604051918261348a565b82815280926144ee601f1991613d66565b0190602036910137565b6000198114613a735760010190565b80518210156136cf5760209160051b010190565b60ff6135189493606093835216602082015281604082015201906136f5565b818110614545575050565b6000815560010161453a565b80546000825580614560575050565b6135909160005260206000209081019061453a565b60408051926145838461346f565b60008085526001600160a01b0394848616948515614762578383526020966002885285842054168487821515928361472f575b81875260038b528887208054600101905582875260028b5288872080546001600160a01b031916831790557fddf252ad1be2c89b69c2b068fc378daa952ba7f163c4a11628f55a4df523b3ef8780a4614717573b614617575b505050505050565b856146549185969798955180938192630a85bd0160e11b978884523360048501528760248501526044840152608060648401526084830190613393565b0381858a5af1908290826146d3575b505061469b5750505061467461391a565b8051939084614695578251633250574960e11b815260048101859052602490fd5b84925001fd5b9194506001600160e01b0319909116036146bc57505038808080808061460f565b602492505190633250574960e11b82526004820152fd5b909192508781813d8311614710575b6146ec818361348a565b81010312610c5c5751906001600160e01b0319821682036104765750903880614663565b503d6146e2565b84516339e3563760e11b815260048101849052602490fd5b600083815260046020526040902080546001600160a01b031916905580875260038b5288872080546000190190556145b6565b8451633250574960e11b815260048101849052602490fd5b90601c548210156136cf57601c600052601f8260051c7f0e4562a10381dec21b205ed72637e6b1b523bdd0e4d4d50af5cd23dd4500a21101921690565b60ff1660ff8114613a735760010190565b90919060649006602c811015614a9957506001915b81600052601a90602090828252604092836000208451906147fd82613454565b5460ff968792838316948582526008908585831c16898401526010938686861c168b85015260189387606097861c168782015297156149a3575b5050505050600582891614614964575b600482891614614923575b6003828916146148e2575b6002828916146148a4575b5050506001600160a01b0316600090815260198252828120858516825290915220805490916148988282166147b7565b169060ff191617905590565b60018060a01b038416600052601985528560002060026000528552818660002054169201511611156148d9575b388481614868565b600194506148d1565b905060018060a01b03831660005260198452846000206003600052845285856000205416868684015116111561491a575b859061485d565b60029650614913565b905060018060a01b03831660005260198452846000206004600052845285856000205416868584015116111561495b575b8590614852565b60039650614954565b905060018060a01b0383166000526019845284600020600560005284528585600020541686835116111561499a575b8590614847565b60049650614993565b869495975091849392918260058694106000146149fb575060016000528a528a600020958b51966149d388613454565b54948580938282168a521c168b8801521c16898501521c1683820152915b3880808080614837565b600a811015614a3f575060056000528a528a600020958b5196614a1d88613454565b54948580938282168a521c168b8801521c16898501521c1683820152916149f1565b6014811015614a615750600a6000528a528a600020958b5196614a1d88613454565b60321115614a815760146000528a528a600020958b5196614a1d88613454565b60326000528a528a600020958b5196614a1d88613454565b604f811015614aab57506002916147dd565b605e811015614abd57506003916147dd565b60631115614acd576004916147dd565b6005916147dd565b15614adc57565b60405162461bcd60e51b815260206004820152601e60248201527f52656c69633a2043616c6c6572206973206e6f742074686520416c74617200006044820152606490fd5b614b2a816138f7565b506000908082526020600b815260ff604084205460101c1615614da45760095492614b548461351b565b15614d66578291817a184f03e93ff9f4daa797ed6e38ed64bf6a1f0100000000000000008481811015614d58575b50506d04ee2d6d415b85acef810000000080861015614d4c575b50662386f26fc1000080861015614d3f575b506305f5e10080861015614d32575b5061271080861015614d25575b506064851015614d17575b600a80951015614d0f575b60019182820195614c09614bf3886134ab565b97614c01604051998a61348a565b8089526134ab565b95846021848a0195601f19809a013688378a0101905b614ce0575b5050506040519684889594614c388361351b565b92818116908115614cbf5750600114614c6f575b50505050614c6282916135189651938491613370565b010390810183528261348a565b90919297939450600982526000805160206150b38339815191525b838310614ca95750505061351895614c62918501019291953880614c4c565b80548a84018a0152899650918801918101614c8a565b60ff191688860152505050801515028401019150614c626135183880614c4c565b600019019082906f181899199a1a9b1b9c1cb0b131b232b360811b8282061a835304908582614c1f5750614c24565b600101614be0565b936064600291049401614bd5565b6004919504940138614bca565b6008919504940138614bbd565b6010919504940138614bae565b82919504940138614b9c565b049450604090503880614b82565b60405162461bcd60e51b815260048101839052601660248201527514995b1a58ce8818985cd9555492481b9bdd081cd95d60521b6044820152606490fd5b505050613518613555565b600c546001600160a01b031691908215614e3c578015614e35576020601254602460405180968193637b2e0fcf60e01b835260048301525afa928315613c8857600093614e02575b506135189192613bc0565b6020813d8211614e2d575b81614e1a6020938361348a565b81010312610c3757519250613518614df7565b3d9150614e0d565b5060009150565b60405162461bcd60e51b815260206004820152601b60248201527f44756e67656f6e436f72652061646472657373206e6f742073657400000000006044820152606490fd5b6001600160a01b0390811660008181526017602052604080822090519192908390600490614eae856133ed565b8054855260018101546020860152600281015460408601526003810154606086015201549460ff608085019681811615158852818160081c1660a087015260101c16151560c0850152600f54169182614f65575b50505080518015159384614f5b575b5083614f43575b5082614f2357505090565b51600381019250828111611d645761010201809211611d50575043111590565b90925060038101809111611d64574310159138614f18565b5115935038614f11565b602460405180948193635681dbe960e01b835260048301525afa908115610b11578391614fa2575b50614f9a57388281614f02565b505050600190565b614fb691503d8085833e6144b6818361348a565b5038614f8d565b6001600160a01b0316600090815260176020526040808220905190614fe1826133ed565b6004815491828452600181015460208501526002810154604085015260038101546060850152015460ff808216151591826080860152818160081c1660a086015260101c16151560c0840152811590811561508a575b5061508557600381018091116150715743101561506d5751906003820191828111611d6457439003600301918211611d50575090565b5090565b634e487b7160e01b83526011600452602483fd5b505090565b90503861503756fec8a443c1907d413e7a1dca411f6c6e7a16f3aa80eed13699a22eab2af2c4c1e46e1540171b6c0c960b71a7020d9f60077f6af931a8bbf590da0223dacf75c7afa26469706673582212203e3e2eeeab52baf30b1fab978eff4612fc6508351c21c69b2d7190b5a113529e64736f6c63430008140033290decd9548b62a8d60345a988386fc84ba6bc95484008f6362f93160ef3e563b10e2d527612073b26eecdfd717e6a320cf44b4afac2b0732d9fcbe2b7fa0cf6d833147d7dc355ba459fc788f669e58cfaf9dc25ddcd0702e87d69c7b5124289",
  "linkReferences": {},
  "deployedLinkReferences": {}
}