{
  "_format": "hh-sol-artifact-1",
  "contractName": "VRFManager",
  "sourceName": "contracts/current/core/VRFManager.sol",
  "abi": [
    {
      "inputs": [
        {
          "internalType": "address",
          "name": "_vrfCoordinator",
          "type": "address"
        }
      ],
      "stateMutability": "nonpayable",
      "type": "constructor"
    },
    {
      "inputs": [
        {
          "internalType": "address",
          "name": "owner",
          "type": "address"
        }
      ],
      "name": "OwnableInvalidOwner",
      "type": "error"
    },
    {
      "inputs": [
        {
          "internalType": "address",
          "name": "account",
          "type": "address"
        }
      ],
      "name": "OwnableUnauthorizedAccount",
      "type": "error"
    },
    {
      "inputs": [],
      "name": "ReentrancyGuardReentrantCall",
      "type": "error"
    },
    {
      "anonymous": false,
      "inputs": [
        {
          "indexed": true,
          "internalType": "address",
          "name": "previousOwner",
          "type": "address"
        },
        {
          "indexed": true,
          "internalType": "address",
          "name": "newOwner",
          "type": "address"
        }
      ],
      "name": "OwnershipTransferred",
      "type": "event"
    },
    {
      "anonymous": false,
      "inputs": [
        {
          "indexed": true,
          "internalType": "uint256",
          "name": "requestId",
          "type": "uint256"
        },
        {
          "indexed": false,
          "internalType": "uint256[]",
          "name": "randomWords",
          "type": "uint256[]"
        }
      ],
      "name": "RandomFulfilled",
      "type": "event"
    },
    {
      "anonymous": false,
      "inputs": [
        {
          "indexed": true,
          "internalType": "uint256",
          "name": "requestId",
          "type": "uint256"
        },
        {
          "indexed": true,
          "internalType": "address",
          "name": "requester",
          "type": "address"
        },
        {
          "indexed": false,
          "internalType": "enum VRFManager.RequestType",
          "name": "requestType",
          "type": "uint8"
        }
      ],
      "name": "RandomRequested",
      "type": "event"
    },
    {
      "inputs": [
        {
          "internalType": "address",
          "name": "contractAddress",
          "type": "address"
        }
      ],
      "name": "authorizeContract",
      "outputs": [],
      "stateMutability": "nonpayable",
      "type": "function"
    },
    {
      "inputs": [
        {
          "internalType": "address",
          "name": "",
          "type": "address"
        }
      ],
      "name": "authorizedContracts",
      "outputs": [
        {
          "internalType": "bool",
          "name": "",
          "type": "bool"
        }
      ],
      "stateMutability": "view",
      "type": "function"
    },
    {
      "inputs": [],
      "name": "callbackGasLimit",
      "outputs": [
        {
          "internalType": "uint32",
          "name": "",
          "type": "uint32"
        }
      ],
      "stateMutability": "view",
      "type": "function"
    },
    {
      "inputs": [
        {
          "internalType": "bytes",
          "name": "data",
          "type": "bytes"
        }
      ],
      "name": "decodeUserData",
      "outputs": [
        {
          "internalType": "address",
          "name": "user",
          "type": "address"
        },
        {
          "internalType": "uint256",
          "name": "quantity",
          "type": "uint256"
        },
        {
          "internalType": "uint8",
          "name": "maxRarity",
          "type": "uint8"
        },
        {
          "internalType": "bytes32",
          "name": "commitment",
          "type": "bytes32"
        }
      ],
      "stateMutability": "pure",
      "type": "function"
    },
    {
      "inputs": [
        {
          "internalType": "address",
          "name": "user",
          "type": "address"
        }
      ],
      "name": "getRandomForUser",
      "outputs": [
        {
          "internalType": "bool",
          "name": "fulfilled",
          "type": "bool"
        },
        {
          "internalType": "uint256[]",
          "name": "randomWords",
          "type": "uint256[]"
        }
      ],
      "stateMutability": "view",
      "type": "function"
    },
    {
      "inputs": [
        {
          "internalType": "uint256",
          "name": "requestId",
          "type": "uint256"
        }
      ],
      "name": "getRandomResult",
      "outputs": [
        {
          "internalType": "bool",
          "name": "fulfilled",
          "type": "bool"
        },
        {
          "internalType": "uint256[]",
          "name": "randomWords",
          "type": "uint256[]"
        }
      ],
      "stateMutability": "view",
      "type": "function"
    },
    {
      "inputs": [],
      "name": "getVrfRequestPrice",
      "outputs": [
        {
          "internalType": "uint256",
          "name": "",
          "type": "uint256"
        }
      ],
      "stateMutability": "view",
      "type": "function"
    },
    {
      "inputs": [],
      "name": "keyHash",
      "outputs": [
        {
          "internalType": "bytes32",
          "name": "",
          "type": "bytes32"
        }
      ],
      "stateMutability": "view",
      "type": "function"
    },
    {
      "inputs": [],
      "name": "owner",
      "outputs": [
        {
          "internalType": "address",
          "name": "",
          "type": "address"
        }
      ],
      "stateMutability": "view",
      "type": "function"
    },
    {
      "inputs": [
        {
          "internalType": "uint256",
          "name": "requestId",
          "type": "uint256"
        },
        {
          "internalType": "uint256[]",
          "name": "randomWords",
          "type": "uint256[]"
        }
      ],
      "name": "rawFulfillRandomWords",
      "outputs": [],
      "stateMutability": "nonpayable",
      "type": "function"
    },
    {
      "inputs": [],
      "name": "renounceOwnership",
      "outputs": [],
      "stateMutability": "nonpayable",
      "type": "function"
    },
    {
      "inputs": [],
      "name": "requestConfirmations",
      "outputs": [
        {
          "internalType": "uint16",
          "name": "",
          "type": "uint16"
        }
      ],
      "stateMutability": "view",
      "type": "function"
    },
    {
      "inputs": [
        {
          "internalType": "address",
          "name": "user",
          "type": "address"
        },
        {
          "internalType": "uint256",
          "name": "quantity",
          "type": "uint256"
        },
        {
          "internalType": "uint8",
          "name": "maxRarity",
          "type": "uint8"
        },
        {
          "internalType": "bytes32",
          "name": "commitment",
          "type": "bytes32"
        }
      ],
      "name": "requestRandomForUser",
      "outputs": [
        {
          "internalType": "uint256",
          "name": "requestId",
          "type": "uint256"
        }
      ],
      "stateMutability": "payable",
      "type": "function"
    },
    {
      "inputs": [
        {
          "internalType": "enum VRFManager.RequestType",
          "name": "requestType",
          "type": "uint8"
        },
        {
          "internalType": "uint32",
          "name": "numWords",
          "type": "uint32"
        },
        {
          "internalType": "bytes",
          "name": "data",
          "type": "bytes"
        }
      ],
      "name": "requestRandomness",
      "outputs": [
        {
          "internalType": "uint256",
          "name": "requestId",
          "type": "uint256"
        }
      ],
      "stateMutability": "payable",
      "type": "function"
    },
    {
      "inputs": [
        {
          "internalType": "uint256",
          "name": "",
          "type": "uint256"
        }
      ],
      "name": "requests",
      "outputs": [
        {
          "internalType": "address",
          "name": "requester",
          "type": "address"
        },
        {
          "internalType": "enum VRFManager.RequestType",
          "name": "requestType",
          "type": "uint8"
        },
        {
          "internalType": "bytes",
          "name": "data",
          "type": "bytes"
        },
        {
          "internalType": "bool",
          "name": "fulfilled",
          "type": "bool"
        }
      ],
      "stateMutability": "view",
      "type": "function"
    },
    {
      "inputs": [
        {
          "internalType": "address",
          "name": "contractAddress",
          "type": "address"
        }
      ],
      "name": "revokeContract",
      "outputs": [],
      "stateMutability": "nonpayable",
      "type": "function"
    },
    {
      "inputs": [
        {
          "internalType": "address",
          "name": "newOwner",
          "type": "address"
        }
      ],
      "name": "transferOwnership",
      "outputs": [],
      "stateMutability": "nonpayable",
      "type": "function"
    },
    {
      "inputs": [
        {
          "internalType": "bytes32",
          "name": "_keyHash",
          "type": "bytes32"
        },
        {
          "internalType": "uint32",
          "name": "_callbackGasLimit",
          "type": "uint32"
        },
        {
          "internalType": "uint16",
          "name": "_requestConfirmations",
          "type": "uint16"
        },
        {
          "internalType": "uint256",
          "name": "_vrfRequestPrice",
          "type": "uint256"
        }
      ],
      "name": "updateVRFConfig",
      "outputs": [],
      "stateMutability": "nonpayable",
      "type": "function"
    },
    {
      "inputs": [
        {
          "internalType": "address",
          "name": "",
          "type": "address"
        },
        {
          "internalType": "uint256",
          "name": "",
          "type": "uint256"
        }
      ],
      "name": "userRandomWords",
      "outputs": [
        {
          "internalType": "uint256",
          "name": "",
          "type": "uint256"
        }
      ],
      "stateMutability": "view",
      "type": "function"
    },
    {
      "inputs": [
        {
          "internalType": "address",
          "name": "",
          "type": "address"
        }
      ],
      "name": "userToRequestId",
      "outputs": [
        {
          "internalType": "uint256",
          "name": "",
          "type": "uint256"
        }
      ],
      "stateMutability": "view",
      "type": "function"
    },
    {
      "inputs": [],
      "name": "vrfCoordinator",
      "outputs": [
        {
          "internalType": "contract IVRFCoordinatorV2Plus",
          "name": "",
          "type": "address"
        }
      ],
      "stateMutability": "view",
      "type": "function"
    },
    {
      "inputs": [],
      "name": "vrfRequestPrice",
      "outputs": [
        {
          "internalType": "uint256",
          "name": "",
          "type": "uint256"
        }
      ],
      "stateMutability": "view",
      "type": "function"
    },
    {
      "inputs": [],
      "name": "withdraw",
      "outputs": [],
      "stateMutability": "nonpayable",
      "type": "function"
    },
    {
      "stateMutability": "payable",
      "type": "receive"
    }
  ],
  "bytecode": "0x60a03461012657601f6119d538819003918201601f19168301916001600160401b0383118484101761012b5780849260209460405283398101031261012657516001600160a01b03908181169081900361012657331561010d576000543360018060a01b0319821617600055604051923391167f8be0079c531659141344cd1fd0a4f28419497f9722a3daafe3b4186f6b6457e0600080a3600180557fba6e730de88d94a5510ae6613898bfb0c3de5d16e609c5b7da808747125506f760025564030007a12065ffffffffffff1960035416176003556611c37937e0800060045560805261189390816101428239608051818181610363015281816104ef01528181610bf301526110200152f35b604051631e4fbdf760e01b815260006004820152602490fd5b600080fd5b634e487b7160e01b600052604160045260246000fdfe604060808152600436101561001d575b50361561001b57600080fd5b005b600090813560e01c8063145048701461139e5780631fe543e314610f9857806324f7469714610f745780633ccfd60b14610f265780634c52b16c14610aff5780635681dbe914610acc57806361728f3914610aae57806367561d9314610a6c578063715018a614610a1257806371946a6a1461095f57806381d12c58146108a457806386ac73f61461042657806387fe97e4146104085780638c46877e146103b95780638da5cb5b14610392578063a3e56fa81461034f578063aea2035f146102ad578063b0fb162f1461028a578063cc2e3ee11461024b578063d35db10d14610214578063d5b9221b146101d7578063f2fde38b146101485763fcfa221714610127575061000f565b346101445781600319360112610144576020906004549051908152f35b5080fd5b503461014457602036600319011261014457610162611489565b61016a611629565b6001600160a01b039081169182156101c05750600054826bffffffffffffffffffffffff60a01b821617600055167f8be0079c531659141344cd1fd0a4f28419497f9722a3daafe3b4186f6b6457e0600080a380f35b51631e4fbdf760e01b815260048101849052602490fd5b50346101445760203660031901126101445760209160ff9082906001600160a01b03610201611489565b1681526006855220541690519015158152f35b50346101445760203660031901126101445760209181906001600160a01b0361023b611489565b1681526007845220549051908152f35b503461014457602036600319011261014457610265611489565b61026d611629565b6001600160a01b0316825260066020528120805460ff1916905580f35b50346101445781600319360112610144576003549051602091821c61ffff168152f35b50346101445760203660031901126101445761034b81608093600435815260056020522082516102dc81611419565b81546001600160a01b03811682526102fd9060a01c60ff16602083016116d5565b8351610317816103108160018701611570565b0382611467565b84820152610338600360ff600285015416936060840194151585520161174c565b94859101525115159151928392836114d3565b0390f35b5034610144578160031936011261014457517f00000000000000000000000000000000000000000000000000000000000000006001600160a01b03168152602090f35b5034610144578160031936011261014457905490516001600160a01b039091168152602090f35b50346101445780600319360112610144576103d2611489565b6001600160a01b0316825260086020528082208054602435919082101561040457835260209283902001549051908152f35b8380fd5b50346101445781600319360112610144576020906004549051908152f35b5060803660031901126101445761043b611489565b604435919060243560ff841684036108a057338552600660205261046460ff8487205416611655565b61046c61171b565b6004549361047c85341015611692565b63ffffffff808316958615610897575b60025460035487516309ff308b60e41b81526004810192909252600060248301819052602082811c61ffff16604485015263ffffffff92909516821660648401529816608482015260c060a482015260c48101979097528690818060e4810103917f00000000000000000000000000000000000000000000000000000000000000006001600160a01b03165af194851561088d578695610854575b5083516001600160a01b0384166020820152604081019290925260ff1660608201526064356080808301919091528152601f1961056560a083611467565b8351916105718361144b565b86835284519161058083611419565b3383526020830191888352868401908152606084019289845260808501958652888a526005602052878a209460018060a01b03905116855491516004811015610840576001600160a81b03199092161760a09190911b60ff60a01b16178455518051919067ffffffffffffffff831161082c576106006001860154611536565b601f81116107ee575b50602091601f8411600114610780575091806003959492610659948c92610775575b505060001982871b1c1916600191821b17908401555b511515600283019060ff801983541691151516179055565b0190519081519167ffffffffffffffff831161076157600160401b8311610761576020908254848455808510610747575b500190865260208620865b83811061073357505050506001600160a01b0316835260076020528083208290556004543481106106fb575b60208383805160008152827fca93f1e54f3c66e2912d6bd1a268c4ce86b4ed8f63e77c73a8ea55d4a3a3f674853393a36001805551908152f35b8380806107098194346116f8565b81811561072a575b3390f11561071f57826106c1565b51913d9150823e3d90fd5b506108fc610711565b600190602084519401938184015501610695565b83895282892061075b9181019086016116e1565b3861068a565b634e487b7160e01b87526041600452602487fd5b01519050388061062b565b600186018b5260208b2092919084168b5b8181106107d65750926001928592610659966003999896106107be575b505050811b016001840155610641565b015160001983891b60f8161c191690553880806107ae565b92936020600181928786015181550195019301610791565b61081c90600187018c5260208c20601f860160051c81019160208710610822575b601f0160051c01906116e1565b38610609565b909150819061080f565b634e487b7160e01b8a52604160045260248afd5b634e487b7160e01b8c52602160045260248cfd5b9094506020813d602011610885575b8161087060209383611467565b8101031261088057519338610527565b600080fd5b3d9150610863565b84513d88823e3d90fd5b6001965061048c565b8480fd5b50903461095c5760208060031936011261014457916080926004358352600581528183209081549360ff60028551946108eb866108e48160018501611570565b0387611467565b01541691845196879560018060a01b038816875261091360a09860ff858a01918b1c16611606565b860152835193846080870152825b8581106109465750505083830185015215156060830152601f01601f19168101030190f35b8181018301518982018901528896508201610921565b80fd5b50903461095c57602036600319011261095c5760043567ffffffffffffffff81116101445736602382011215610144576109a39036906024816004013591016114ef565b916080838051810103126101445760208301516001600160a01b038116929083900361095c57508061034b918401519360806109e16060830161173e565b9101519151948594859094939260ff90606093608084019760018060a01b0316845260208401521660408201520152565b823461095c578060031936011261095c57610a2b611629565b600080546001600160a01b0319811682556001600160a01b03167f8be0079c531659141344cd1fd0a4f28419497f9722a3daafe3b4186f6b6457e08280a380f35b503461014457602036600319011261014457610a86611489565b610a8e611629565b6001600160a01b0316825260066020528120805460ff1916600117905580f35b50346101445781600319360112610144576020906002549051908152f35b50346101445760203660031901126101445761034b90610af2610aed611489565b61179d565b92909151928392836114d3565b5090606036600319011261095c5760043591600483101561014457610b22611406565b916044359367ffffffffffffffff9182861161095c573660238701121561095c578560040135928084116101445736602485890101116101445733825260209660068852610b7560ff8785205416611655565b610b7d61171b565b60045490610b8d82341015611692565b60025460035488516309ff308b60e41b8152600481019290925260006024830181905261ffff828d1c16604484015263ffffffff91821660648401529916608482015260c060a482015260c48101989098526001600160a01b03918990899060e49082907f000000000000000000000000000000000000000000000000000000000000000087165af1978815610f1c578498610eed575b50865191610c318361144b565b848352610c5e885192610c4384611419565b3384528b840198610c54898b6116d5565b60243692016114ef565b968883019788526060830191868352608084019485528a875260058c52898720935116835491516004811015610ed95760ff60a01b9060a01b16916affffffffffffffffffffff60a81b16171782556001968783019051805190868211610ec557610cc98354611536565b8d601f8211610e97575b50508c908d601f8411600114610e2757509180610d20949260039796948b92610e1c575b505060001982881b1c1916908b1b179055511515600283019060ff801983541691151516179055565b0190518051928311610e0857600160401b8311610e085788908254848455808510610dee575b500190835287832085845b848110610ddc575050505050600454803411610da4575b5050610d7683518092611606565b837fca93f1e54f3c66e2912d6bd1a268c4ce86b4ed8f63e77c73a8ea55d4a3a3f674863393a3805551908152f35b818080610db28194346116f8565b818115610dd3575b3390f115610dc85780610d68565b8351903d90823e3d90fd5b506108fc610dba565b8a845194019381840155018690610d51565b838652828620610e029181019086016116e1565b38610d46565b634e487b7160e01b84526041600452602484fd5b015190503880610cf7565b90918b9392601f198416868c52838c20938c905b828210610e7e575050916003989795939185610d2098969410610e66575b505050811b019055610641565b0151600019838a1b60f8161c19169055388080610e59565b8484015186558f97909501949384019390810190610e3b565b848a52808a20610ebe92601f860160051c820192861061082257601f0160051c01906116e1565b388d610cd3565b634e487b7160e01b88526041600452602488fd5b634e487b7160e01b88526021600452602488fd5b9097508881813d8311610f15575b610f058183611467565b8101031261088057519638610c24565b503d610efb565b87513d86823e3d90fd5b5034610144578160031936011261014457610f3f611629565b8180808060018060a01b038154164790828215610f6b575bf115610f61575080f35b51903d90823e3d90fd5b506108fc610f57565b503461014457816003193601126101445760209063ffffffff600354169051908152f35b503461014457806003193601126101445760043590602480359167ffffffffffffffff80841161139a573660238501121561139a57836004013592818411611388578360051b835195602095610ff087840189611467565b8752858701838193830101913683116113845784889101915b83831061137457506001600160a01b0393925050507f00000000000000000000000000000000000000000000000000000000000000008216330361133a57878952600586528489209060028201805460ff81166113035760ff19166001179055875160038301919086811161125d57600160401b92838211611270578c8154838355838c8282106112e8575b5050505082908d52898d208d5b8381106112d6575050505083600184018c6110bd8254611536565b6111a0575b5050505050541691823b1561119c578784518094630a8cba3560e21b825289600483015286858301528183816110fb604482018d61149f565b03925af1801561119257611149575b505050906111437f9f1a143e0ae48a733432a8f7f1c23bf13298022ac471e7a2557a40089329859193925192828493845283019061149f565b0390a280f35b829793971161118057508552936111437f9f1a143e0ae48a733432a8f7f1c23bf13298022ac471e7a2557a4008932985913861110a565b634e487b7160e01b8352604160045282fd5b84513d8a823e3d90fd5b8780fd5b60806111c6928c8c5194859283926338ca353560e11b845260048401528c830190611570565b0381305afa909181611283575b506111df575b8c6110c2565b16806111ed575b84906111d9565b8b5260088852868b209089519287841161127057831161125d578b8254848455848b828210611242575b50505050908b52878b208b5b83811061123057506111e6565b82518282015591890191600101611223565b838661125495522091820191016116e1565b8b38848b611217565b634e487b7160e01b8c526041600452858cfd5b634e487b7160e01b8d526041600452868dfd5b925090506080823d82116112ce575b8161129f60809383611467565b810103126112ca57815186811681036112c6576112be8a88940161173e565b5090386111d3565b8d80fd5b8c80fd5b3d9150611292565b825182820155918b01916001016110a2565b83856112fa95522091820191016116e1565b8c38838c611095565b875162461bcd60e51b8152600481018a905260118188015270105b1c9958591e48199d5b199a5b1b1959607a1b6044820152606490fd5b845162461bcd60e51b8152600481018790526014818501527327b7363c902b29231021b7b7b93234b730ba37b960611b6044820152606490fd5b8235815291810191889101611009565b8a80fd5b634e487b7160e01b8752604160045286fd5b8580fd5b823461095c57608036600319011261095c576113b8611406565b60443561ffff81168103611402576113ce611629565b60043560025563ffffffff65ffff000000006003549260201b1692169065ffffffffffff1916171760035560643560045580f35b8280fd5b6024359063ffffffff8216820361088057565b60a0810190811067ffffffffffffffff82111761143557604052565b634e487b7160e01b600052604160045260246000fd5b6020810190811067ffffffffffffffff82111761143557604052565b90601f8019910116810190811067ffffffffffffffff82111761143557604052565b600435906001600160a01b038216820361088057565b90815180825260208080930193019160005b8281106114bf575050505090565b8351855293810193928101926001016114b1565b6040906114ec939215158152816020820152019061149f565b90565b92919267ffffffffffffffff82116114355760405191611519601f8201601f191660200184611467565b829481845281830111610880578281602093846000960137010152565b90600182811c92168015611566575b602083101461155057565b634e487b7160e01b600052602260045260246000fd5b91607f1691611545565b906000929180549161158183611536565b9182825260019384811690816000146115e357506001146115a3575b50505050565b90919394506000526020928360002092846000945b8386106115cf57505050500101903880808061159d565b8054858701830152940193859082016115b8565b9294505050602093945060ff191683830152151560051b0101903880808061159d565b9060048210156116135752565b634e487b7160e01b600052602160045260246000fd5b6000546001600160a01b0316330361163d57565b60405163118cdaa760e01b8152336004820152602490fd5b1561165c57565b60405162461bcd60e51b815260206004820152600e60248201526d139bdd08185d5d1a1bdc9a5e995960921b6044820152606490fd5b1561169957565b60405162461bcd60e51b8152602060048201526014602482015273496e73756666696369656e74205652462066656560601b6044820152606490fd5b60048210156116135752565b8181106116ec575050565b600081556001016116e1565b9190820391821161170557565b634e487b7160e01b600052601160045260246000fd5b60026001541461172c576002600155565b604051633ee5aeb560e01b8152600490fd5b519060ff8216820361088057565b9060405191828154918282526020928383019160005283600020936000905b8282106117835750505061178192500383611467565b565b85548452600195860195889550938101939091019061176b565b6001600160a01b039081166000818152600760205260408082205492949390928015611843578252600560205282822083516114ec9493926117f99060ff906117e584611419565b8454908116845260a01c16602083016116d5565b835161180c816103108160018701611570565b84820152608061182f600360ff600286015416946060850195151586520161174c565b91015251151594815260086020522061174c565b5050925051916118528361144b565b80835280368137919056fea2646970667358221220830dc001fbe3d90e5c39fed8c558529c788ed42e9f72475f10d34355863870ad64736f6c63430008140033",
  "linkReferences": {},
  "deployedLinkReferences": {}
}