{
  "_format": "hh-sol-artifact-1",
  "contractName": "Relic",
  "sourceName": "contracts/current/nft/Relic.sol",
  "abi": [
    {
      "inputs": [
        {
          "internalType": "address",
          "name": "initialOwner",
          "type": "address"
        }
      ],
      "stateMutability": "nonpayable",
      "type": "constructor"
    },
    {
      "inputs": [
        {
          "internalType": "address",
          "name": "sender",
          "type": "address"
        },
        {
          "internalType": "uint256",
          "name": "tokenId",
          "type": "uint256"
        },
        {
          "internalType": "address",
          "name": "owner",
          "type": "address"
        }
      ],
      "name": "ERC721IncorrectOwner",
      "type": "error"
    },
    {
      "inputs": [
        {
          "internalType": "address",
          "name": "operator",
          "type": "address"
        },
        {
          "internalType": "uint256",
          "name": "tokenId",
          "type": "uint256"
        }
      ],
      "name": "ERC721InsufficientApproval",
      "type": "error"
    },
    {
      "inputs": [
        {
          "internalType": "address",
          "name": "approver",
          "type": "address"
        }
      ],
      "name": "ERC721InvalidApprover",
      "type": "error"
    },
    {
      "inputs": [
        {
          "internalType": "address",
          "name": "operator",
          "type": "address"
        }
      ],
      "name": "ERC721InvalidOperator",
      "type": "error"
    },
    {
      "inputs": [
        {
          "internalType": "address",
          "name": "owner",
          "type": "address"
        }
      ],
      "name": "ERC721InvalidOwner",
      "type": "error"
    },
    {
      "inputs": [
        {
          "internalType": "address",
          "name": "receiver",
          "type": "address"
        }
      ],
      "name": "ERC721InvalidReceiver",
      "type": "error"
    },
    {
      "inputs": [
        {
          "internalType": "address",
          "name": "sender",
          "type": "address"
        }
      ],
      "name": "ERC721InvalidSender",
      "type": "error"
    },
    {
      "inputs": [
        {
          "internalType": "uint256",
          "name": "tokenId",
          "type": "uint256"
        }
      ],
      "name": "ERC721NonexistentToken",
      "type": "error"
    },
    {
      "inputs": [],
      "name": "EnforcedPause",
      "type": "error"
    },
    {
      "inputs": [],
      "name": "ExpectedPause",
      "type": "error"
    },
    {
      "inputs": [
        {
          "internalType": "address",
          "name": "owner",
          "type": "address"
        }
      ],
      "name": "OwnableInvalidOwner",
      "type": "error"
    },
    {
      "inputs": [
        {
          "internalType": "address",
          "name": "account",
          "type": "address"
        }
      ],
      "name": "OwnableUnauthorizedAccount",
      "type": "error"
    },
    {
      "inputs": [],
      "name": "ReentrancyGuardReentrantCall",
      "type": "error"
    },
    {
      "inputs": [
        {
          "internalType": "address",
          "name": "token",
          "type": "address"
        }
      ],
      "name": "SafeERC20FailedOperation",
      "type": "error"
    },
    {
      "anonymous": false,
      "inputs": [
        {
          "indexed": true,
          "internalType": "address",
          "name": "owner",
          "type": "address"
        },
        {
          "indexed": true,
          "internalType": "address",
          "name": "approved",
          "type": "address"
        },
        {
          "indexed": true,
          "internalType": "uint256",
          "name": "tokenId",
          "type": "uint256"
        }
      ],
      "name": "Approval",
      "type": "event"
    },
    {
      "anonymous": false,
      "inputs": [
        {
          "indexed": true,
          "internalType": "address",
          "name": "owner",
          "type": "address"
        },
        {
          "indexed": true,
          "internalType": "address",
          "name": "operator",
          "type": "address"
        },
        {
          "indexed": false,
          "internalType": "bool",
          "name": "approved",
          "type": "bool"
        }
      ],
      "name": "ApprovalForAll",
      "type": "event"
    },
    {
      "anonymous": false,
      "inputs": [
        {
          "indexed": true,
          "internalType": "address",
          "name": "newAddress",
          "type": "address"
        }
      ],
      "name": "AscensionAltarSet",
      "type": "event"
    },
    {
      "anonymous": false,
      "inputs": [
        {
          "indexed": false,
          "internalType": "string",
          "name": "newBaseURI",
          "type": "string"
        }
      ],
      "name": "BaseURISet",
      "type": "event"
    },
    {
      "anonymous": false,
      "inputs": [
        {
          "indexed": true,
          "internalType": "address",
          "name": "player",
          "type": "address"
        },
        {
          "indexed": false,
          "internalType": "uint256",
          "name": "quantity",
          "type": "uint256"
        },
        {
          "indexed": false,
          "internalType": "uint8",
          "name": "maxRarity",
          "type": "uint8"
        },
        {
          "indexed": false,
          "internalType": "uint256[]",
          "name": "tokenIds",
          "type": "uint256[]"
        }
      ],
      "name": "BatchMintCompleted",
      "type": "event"
    },
    {
      "anonymous": false,
      "inputs": [
        {
          "indexed": false,
          "internalType": "string",
          "name": "newContractURI",
          "type": "string"
        }
      ],
      "name": "ContractURIUpdated",
      "type": "event"
    },
    {
      "anonymous": false,
      "inputs": [
        {
          "indexed": true,
          "internalType": "address",
          "name": "core",
          "type": "address"
        },
        {
          "indexed": true,
          "internalType": "address",
          "name": "token",
          "type": "address"
        }
      ],
      "name": "ContractsSet",
      "type": "event"
    },
    {
      "anonymous": false,
      "inputs": [
        {
          "indexed": true,
          "internalType": "address",
          "name": "player",
          "type": "address"
        },
        {
          "indexed": false,
          "internalType": "uint256",
          "name": "quantity",
          "type": "uint256"
        },
        {
          "indexed": false,
          "internalType": "bool",
          "name": "fromVault",
          "type": "bool"
        }
      ],
      "name": "MintRequested",
      "type": "event"
    },
    {
      "anonymous": false,
      "inputs": [
        {
          "indexed": true,
          "internalType": "address",
          "name": "previousOwner",
          "type": "address"
        },
        {
          "indexed": true,
          "internalType": "address",
          "name": "newOwner",
          "type": "address"
        }
      ],
      "name": "OwnershipTransferred",
      "type": "event"
    },
    {
      "anonymous": false,
      "inputs": [
        {
          "indexed": false,
          "internalType": "address",
          "name": "account",
          "type": "address"
        }
      ],
      "name": "Paused",
      "type": "event"
    },
    {
      "anonymous": false,
      "inputs": [
        {
          "indexed": true,
          "internalType": "uint256",
          "name": "tokenId",
          "type": "uint256"
        },
        {
          "indexed": true,
          "internalType": "address",
          "name": "owner",
          "type": "address"
        },
        {
          "indexed": false,
          "internalType": "uint8",
          "name": "rarity",
          "type": "uint8"
        },
        {
          "indexed": false,
          "internalType": "uint8",
          "name": "capacity",
          "type": "uint8"
        }
      ],
      "name": "RelicBurned",
      "type": "event"
    },
    {
      "anonymous": false,
      "inputs": [
        {
          "indexed": true,
          "internalType": "uint256",
          "name": "tokenId",
          "type": "uint256"
        },
        {
          "indexed": true,
          "internalType": "address",
          "name": "owner",
          "type": "address"
        },
        {
          "indexed": false,
          "internalType": "uint8",
          "name": "rarity",
          "type": "uint8"
        },
        {
          "indexed": false,
          "internalType": "uint8",
          "name": "capacity",
          "type": "uint8"
        }
      ],
      "name": "RelicMinted",
      "type": "event"
    },
    {
      "anonymous": false,
      "inputs": [
        {
          "indexed": true,
          "internalType": "address",
          "name": "from",
          "type": "address"
        },
        {
          "indexed": true,
          "internalType": "address",
          "name": "to",
          "type": "address"
        },
        {
          "indexed": true,
          "internalType": "uint256",
          "name": "tokenId",
          "type": "uint256"
        }
      ],
      "name": "Transfer",
      "type": "event"
    },
    {
      "anonymous": false,
      "inputs": [
        {
          "indexed": false,
          "internalType": "address",
          "name": "account",
          "type": "address"
        }
      ],
      "name": "Unpaused",
      "type": "event"
    },
    {
      "anonymous": false,
      "inputs": [
        {
          "indexed": true,
          "internalType": "address",
          "name": "vrfManager",
          "type": "address"
        }
      ],
      "name": "VRFManagerSet",
      "type": "event"
    },
    {
      "inputs": [
        {
          "internalType": "address",
          "name": "to",
          "type": "address"
        },
        {
          "internalType": "uint256",
          "name": "tokenId",
          "type": "uint256"
        }
      ],
      "name": "approve",
      "outputs": [],
      "stateMutability": "nonpayable",
      "type": "function"
    },
    {
      "inputs": [],
      "name": "ascensionAltarAddress",
      "outputs": [
        {
          "internalType": "address",
          "name": "",
          "type": "address"
        }
      ],
      "stateMutability": "view",
      "type": "function"
    },
    {
      "inputs": [
        {
          "internalType": "address",
          "name": "owner",
          "type": "address"
        }
      ],
      "name": "balanceOf",
      "outputs": [
        {
          "internalType": "uint256",
          "name": "",
          "type": "uint256"
        }
      ],
      "stateMutability": "view",
      "type": "function"
    },
    {
      "inputs": [],
      "name": "baseURI",
      "outputs": [
        {
          "internalType": "string",
          "name": "",
          "type": "string"
        }
      ],
      "stateMutability": "view",
      "type": "function"
    },
    {
      "inputs": [
        {
          "internalType": "uint256",
          "name": "_tokenId",
          "type": "uint256"
        }
      ],
      "name": "burnFromAltar",
      "outputs": [],
      "stateMutability": "nonpayable",
      "type": "function"
    },
    {
      "inputs": [],
      "name": "contractURI",
      "outputs": [
        {
          "internalType": "string",
          "name": "",
          "type": "string"
        }
      ],
      "stateMutability": "view",
      "type": "function"
    },
    {
      "inputs": [],
      "name": "dungeonCore",
      "outputs": [
        {
          "internalType": "contract IDungeonCore",
          "name": "",
          "type": "address"
        }
      ],
      "stateMutability": "view",
      "type": "function"
    },
    {
      "inputs": [
        {
          "internalType": "uint256",
          "name": "tokenId",
          "type": "uint256"
        }
      ],
      "name": "getApproved",
      "outputs": [
        {
          "internalType": "address",
          "name": "",
          "type": "address"
        }
      ],
      "stateMutability": "view",
      "type": "function"
    },
    {
      "inputs": [
        {
          "internalType": "uint256",
          "name": "tokenId",
          "type": "uint256"
        }
      ],
      "name": "getRelicProperties",
      "outputs": [
        {
          "internalType": "uint8",
          "name": "rarity",
          "type": "uint8"
        },
        {
          "internalType": "uint8",
          "name": "capacity",
          "type": "uint8"
        }
      ],
      "stateMutability": "view",
      "type": "function"
    },
    {
      "inputs": [
        {
          "internalType": "uint256",
          "name": "_quantity",
          "type": "uint256"
        }
      ],
      "name": "getRequiredSoulShardAmount",
      "outputs": [
        {
          "internalType": "uint256",
          "name": "",
          "type": "uint256"
        }
      ],
      "stateMutability": "view",
      "type": "function"
    },
    {
      "inputs": [
        {
          "internalType": "address",
          "name": "_user",
          "type": "address"
        }
      ],
      "name": "getUserRequest",
      "outputs": [
        {
          "components": [
            {
              "internalType": "uint256",
              "name": "quantity",
              "type": "uint256"
            },
            {
              "internalType": "uint256",
              "name": "payment",
              "type": "uint256"
            },
            {
              "internalType": "bool",
              "name": "fulfilled",
              "type": "bool"
            },
            {
              "internalType": "uint8",
              "name": "maxRarity",
              "type": "uint8"
            },
            {
              "internalType": "bool",
              "name": "fromVault",
              "type": "bool"
            },
            {
              "internalType": "uint256[]",
              "name": "pendingTokenIds",
              "type": "uint256[]"
            }
          ],
          "internalType": "struct Relic.MintRequest",
          "name": "",
          "type": "tuple"
        }
      ],
      "stateMutability": "view",
      "type": "function"
    },
    {
      "inputs": [
        {
          "internalType": "address",
          "name": "owner",
          "type": "address"
        },
        {
          "internalType": "address",
          "name": "operator",
          "type": "address"
        }
      ],
      "name": "isApprovedForAll",
      "outputs": [
        {
          "internalType": "bool",
          "name": "",
          "type": "bool"
        }
      ],
      "stateMutability": "view",
      "type": "function"
    },
    {
      "inputs": [
        {
          "internalType": "address",
          "name": "_to",
          "type": "address"
        },
        {
          "internalType": "uint8",
          "name": "_rarity",
          "type": "uint8"
        },
        {
          "internalType": "uint8",
          "name": "_capacity",
          "type": "uint8"
        }
      ],
      "name": "mintFromAltar",
      "outputs": [
        {
          "internalType": "uint256",
          "name": "",
          "type": "uint256"
        }
      ],
      "stateMutability": "nonpayable",
      "type": "function"
    },
    {
      "inputs": [
        {
          "internalType": "uint256",
          "name": "_quantity",
          "type": "uint256"
        }
      ],
      "name": "mintFromVault",
      "outputs": [],
      "stateMutability": "payable",
      "type": "function"
    },
    {
      "inputs": [
        {
          "internalType": "uint256",
          "name": "_quantity",
          "type": "uint256"
        }
      ],
      "name": "mintFromWallet",
      "outputs": [],
      "stateMutability": "payable",
      "type": "function"
    },
    {
      "inputs": [],
      "name": "mintPriceUSD",
      "outputs": [
        {
          "internalType": "uint256",
          "name": "",
          "type": "uint256"
        }
      ],
      "stateMutability": "view",
      "type": "function"
    },
    {
      "inputs": [],
      "name": "name",
      "outputs": [
        {
          "internalType": "string",
          "name": "",
          "type": "string"
        }
      ],
      "stateMutability": "view",
      "type": "function"
    },
    {
      "inputs": [
        {
          "internalType": "uint256",
          "name": "requestId",
          "type": "uint256"
        },
        {
          "internalType": "uint256[]",
          "name": "randomWords",
          "type": "uint256[]"
        }
      ],
      "name": "onVRFFulfilled",
      "outputs": [],
      "stateMutability": "nonpayable",
      "type": "function"
    },
    {
      "inputs": [],
      "name": "owner",
      "outputs": [
        {
          "internalType": "address",
          "name": "",
          "type": "address"
        }
      ],
      "stateMutability": "view",
      "type": "function"
    },
    {
      "inputs": [
        {
          "internalType": "uint256",
          "name": "tokenId",
          "type": "uint256"
        }
      ],
      "name": "ownerOf",
      "outputs": [
        {
          "internalType": "address",
          "name": "",
          "type": "address"
        }
      ],
      "stateMutability": "view",
      "type": "function"
    },
    {
      "inputs": [],
      "name": "pause",
      "outputs": [],
      "stateMutability": "nonpayable",
      "type": "function"
    },
    {
      "inputs": [],
      "name": "paused",
      "outputs": [
        {
          "internalType": "bool",
          "name": "",
          "type": "bool"
        }
      ],
      "stateMutability": "view",
      "type": "function"
    },
    {
      "inputs": [],
      "name": "platformFee",
      "outputs": [
        {
          "internalType": "uint256",
          "name": "",
          "type": "uint256"
        }
      ],
      "stateMutability": "view",
      "type": "function"
    },
    {
      "inputs": [
        {
          "internalType": "uint256",
          "name": "",
          "type": "uint256"
        }
      ],
      "name": "relicData",
      "outputs": [
        {
          "internalType": "uint8",
          "name": "rarity",
          "type": "uint8"
        },
        {
          "internalType": "uint8",
          "name": "capacity",
          "type": "uint8"
        },
        {
          "internalType": "bool",
          "name": "isRevealed",
          "type": "bool"
        }
      ],
      "stateMutability": "view",
      "type": "function"
    },
    {
      "inputs": [],
      "name": "renounceOwnership",
      "outputs": [],
      "stateMutability": "nonpayable",
      "type": "function"
    },
    {
      "inputs": [
        {
          "internalType": "uint256",
          "name": "",
          "type": "uint256"
        }
      ],
      "name": "requestIdToUser",
      "outputs": [
        {
          "internalType": "address",
          "name": "",
          "type": "address"
        }
      ],
      "stateMutability": "view",
      "type": "function"
    },
    {
      "inputs": [
        {
          "internalType": "address",
          "name": "from",
          "type": "address"
        },
        {
          "internalType": "address",
          "name": "to",
          "type": "address"
        },
        {
          "internalType": "uint256",
          "name": "tokenId",
          "type": "uint256"
        }
      ],
      "name": "safeTransferFrom",
      "outputs": [],
      "stateMutability": "nonpayable",
      "type": "function"
    },
    {
      "inputs": [
        {
          "internalType": "address",
          "name": "from",
          "type": "address"
        },
        {
          "internalType": "address",
          "name": "to",
          "type": "address"
        },
        {
          "internalType": "uint256",
          "name": "tokenId",
          "type": "uint256"
        },
        {
          "internalType": "bytes",
          "name": "data",
          "type": "bytes"
        }
      ],
      "name": "safeTransferFrom",
      "outputs": [],
      "stateMutability": "nonpayable",
      "type": "function"
    },
    {
      "inputs": [
        {
          "internalType": "address",
          "name": "operator",
          "type": "address"
        },
        {
          "internalType": "bool",
          "name": "approved",
          "type": "bool"
        }
      ],
      "name": "setApprovalForAll",
      "outputs": [],
      "stateMutability": "nonpayable",
      "type": "function"
    },
    {
      "inputs": [
        {
          "internalType": "address",
          "name": "_address",
          "type": "address"
        }
      ],
      "name": "setAscensionAltarAddress",
      "outputs": [],
      "stateMutability": "nonpayable",
      "type": "function"
    },
    {
      "inputs": [
        {
          "internalType": "string",
          "name": "_newBaseURI",
          "type": "string"
        }
      ],
      "name": "setBaseURI",
      "outputs": [],
      "stateMutability": "nonpayable",
      "type": "function"
    },
    {
      "inputs": [
        {
          "internalType": "string",
          "name": "newContractURI",
          "type": "string"
        }
      ],
      "name": "setContractURI",
      "outputs": [],
      "stateMutability": "nonpayable",
      "type": "function"
    },
    {
      "inputs": [
        {
          "internalType": "address",
          "name": "_address",
          "type": "address"
        }
      ],
      "name": "setDungeonCore",
      "outputs": [],
      "stateMutability": "nonpayable",
      "type": "function"
    },
    {
      "inputs": [
        {
          "internalType": "uint256",
          "name": "_newPrice",
          "type": "uint256"
        }
      ],
      "name": "setMintPriceUSD",
      "outputs": [],
      "stateMutability": "nonpayable",
      "type": "function"
    },
    {
      "inputs": [
        {
          "internalType": "uint256",
          "name": "_newFee",
          "type": "uint256"
        }
      ],
      "name": "setPlatformFee",
      "outputs": [],
      "stateMutability": "nonpayable",
      "type": "function"
    },
    {
      "inputs": [
        {
          "internalType": "address",
          "name": "_address",
          "type": "address"
        }
      ],
      "name": "setSoulShardToken",
      "outputs": [],
      "stateMutability": "nonpayable",
      "type": "function"
    },
    {
      "inputs": [
        {
          "internalType": "address",
          "name": "_vrfManager",
          "type": "address"
        }
      ],
      "name": "setVRFManager",
      "outputs": [],
      "stateMutability": "nonpayable",
      "type": "function"
    },
    {
      "inputs": [],
      "name": "soulShardToken",
      "outputs": [
        {
          "internalType": "contract IERC20",
          "name": "",
          "type": "address"
        }
      ],
      "stateMutability": "view",
      "type": "function"
    },
    {
      "inputs": [
        {
          "internalType": "bytes4",
          "name": "interfaceId",
          "type": "bytes4"
        }
      ],
      "name": "supportsInterface",
      "outputs": [
        {
          "internalType": "bool",
          "name": "",
          "type": "bool"
        }
      ],
      "stateMutability": "view",
      "type": "function"
    },
    {
      "inputs": [],
      "name": "symbol",
      "outputs": [
        {
          "internalType": "string",
          "name": "",
          "type": "string"
        }
      ],
      "stateMutability": "view",
      "type": "function"
    },
    {
      "inputs": [
        {
          "internalType": "uint256",
          "name": "tokenId",
          "type": "uint256"
        }
      ],
      "name": "tokenURI",
      "outputs": [
        {
          "internalType": "string",
          "name": "",
          "type": "string"
        }
      ],
      "stateMutability": "view",
      "type": "function"
    },
    {
      "inputs": [
        {
          "internalType": "address",
          "name": "from",
          "type": "address"
        },
        {
          "internalType": "address",
          "name": "to",
          "type": "address"
        },
        {
          "internalType": "uint256",
          "name": "tokenId",
          "type": "uint256"
        }
      ],
      "name": "transferFrom",
      "outputs": [],
      "stateMutability": "nonpayable",
      "type": "function"
    },
    {
      "inputs": [
        {
          "internalType": "address",
          "name": "newOwner",
          "type": "address"
        }
      ],
      "name": "transferOwnership",
      "outputs": [],
      "stateMutability": "nonpayable",
      "type": "function"
    },
    {
      "inputs": [],
      "name": "unpause",
      "outputs": [],
      "stateMutability": "nonpayable",
      "type": "function"
    },
    {
      "inputs": [
        {
          "internalType": "address",
          "name": "",
          "type": "address"
        }
      ],
      "name": "userRequests",
      "outputs": [
        {
          "internalType": "uint256",
          "name": "quantity",
          "type": "uint256"
        },
        {
          "internalType": "uint256",
          "name": "payment",
          "type": "uint256"
        },
        {
          "internalType": "bool",
          "name": "fulfilled",
          "type": "bool"
        },
        {
          "internalType": "uint8",
          "name": "maxRarity",
          "type": "uint8"
        },
        {
          "internalType": "bool",
          "name": "fromVault",
          "type": "bool"
        }
      ],
      "stateMutability": "view",
      "type": "function"
    },
    {
      "inputs": [],
      "name": "vrfManager",
      "outputs": [
        {
          "internalType": "address",
          "name": "",
          "type": "address"
        }
      ],
      "stateMutability": "view",
      "type": "function"
    },
    {
      "inputs": [],
      "name": "withdrawNativeFunding",
      "outputs": [],
      "stateMutability": "nonpayable",
      "type": "function"
    },
    {
      "inputs": [],
      "name": "withdrawSoulShard",
      "outputs": [],
      "stateMutability": "nonpayable",
      "type": "function"
    },
    {
      "stateMutability": "payable",
      "type": "receive"
    }
  ],
  "bytecode": "0x608034620003e457601f906001600160401b03601f19620038eb388190038581018316850184811186821017620003ce57859282916040528339602094859181010312620003e457516001600160a01b03948582169391849003620003e45762000068620003e9565b94601586527f44756e67656f6e2044656c766572732052656c69630000000000000000000000818701526200009c620003e9565b90600382526222222960e91b81830152865194848611620003ce576000958654986001998a81811c91168015620003c3575b85821014620003af579081878493116200035c575b508490878311600114620002fb578992620002ef575b5050600019600383901b1c191690891b1786555b8251948511620002db5787548881811c91168015620002d0575b83821014620002bc5790818587969594931162000263575b5081938511600114620001fe5750508492620001f2575b5050600019600383901b1c191690841b1783555b8115620001da57600680546001600160a01b0319811684179091556040519416907f8be0079c531659141344cd1fd0a4f28419497f9722a3daafe3b4186f6b6457e09080a380600755671bc16d674ec80000601255660110d9316ec0006013556011556134e190816200040a8239f35b60249060405190631e4fbdf760e01b82526004820152fd5b01519050388062000156565b889593929193168587528387209387905b8282106200024957505084116200022f575b505050811b0183556200016a565b015160001960f88460031b161c1916905538808062000221565b8484015186558a979095019493840193908101906200020f565b9091929394508887528287208580880160051c820192858910620002b2575b9188978c9297969594930160051c01915b828110620002a35750506200013f565b8981558897508b910162000293565b9250819262000282565b634e487b7160e01b87526022600452602487fd5b90607f169062000127565b634e487b7160e01b86526041600452602486fd5b015190503880620000f9565b90848c9416918a8052868b20928b5b888282106200034557505084116200032b575b505050811b0186556200010d565b015160001960f88460031b161c191690553880806200031d565b8385015186558f979095019493840193016200030a565b9091508880528489208780850160051c820192878610620003a5575b918d91869594930160051c01915b82811062000396575050620000e3565b8b81558594508d910162000386565b9250819262000378565b634e487b7160e01b89526022600452602489fd5b90607f1690620000ce565b634e487b7160e01b600052604160045260246000fd5b600080fd5b60408051919082016001600160401b03811183821017620003ce5760405256fe60406080815260049081361015610020575b5050361561001e57600080fd5b005b600091823560e01c806268f22e1461249457806301ffc9a7146123db57806306fdde0314612333578063081812fc146122fa578063095ea7b31461220757806312e8e2c3146121e55780631cbb4131146121935780631dafec001461206f57806323b872dd1461205757806326232a2e146120385780632a32e8d414611fac5780633f4ba83a14611f2a57806342842e0e14611efb5780634350772c14611ed35780634403940214611eab57806355f804b314611d055780635c975abb14611ce15780636352211e14611cb157806367cfab5814611c895780636ab1b29b14611c1d5780636aef506914611abf5780636c0360eb14611a1557806370a08231146119a7578063715018a61461194c5780637a33eabc146118e85780638456cb591461188d5780638da5cb5b14611865578063938e3d7b1461169b57806395d89b41146115ca5780639b41886c146115ab578063a22cb465146114ec578063b1d78c9a146114c5578063b88d4fde14611452578063bfbfccb2146113dc578063c1b39a3e146113b4578063c47d435714611331578063c820c7f114611214578063c87b56dd14610f4d578063c886015d14610b4e578063d0fdcc091461065e578063d6042eb81461056c578063db4b826814610501578063dc7d73bb146104d1578063e8601c6614610466578063e8a3d48514610379578063e985e9c514610324578063f2fde38b146102825763f30cf6b61461023c5750610011565b3461027e57602036600319011261027e576060928291358152600b60205220549060ff8151928181168452818160081c16602085015260101c16151590820152f35b8280fd5b503461027e57602036600319011261027e5761029c6124f8565b906102a5612745565b6001600160a01b038092169283156102f5575050600654826001600160a01b0319821617600655167f8be0079c531659141344cd1fd0a4f28419497f9722a3daafe3b4186f6b6457e0600080a380f35b908460249251917f1e4fbdf7000000000000000000000000000000000000000000000000000000008352820152fd5b5050346103755780600319360112610375576020916103416124f8565b8261034a61250e565b926001600160a01b03809316815260058652209116600052825260ff81600020541690519015158152f35b5080fd5b828434610463578060031936011261046357508051600091600a5461039d816126d7565b8084529060019081811690811561043b57506001146103de575b50506103c8826103da94038361260b565b51918291602083526020830190612547565b0390f35b600a600090815294507fc65a7bb8d6351c1cf70c95a316cc6a92839c986682d98bc35f958f4883f9d2a85b82861061042357505050918101602001916103c8826103b7565b80546020878701810191909152909501948101610409565b6103da965085925060209150926103c89360ff191682840152151560051b82010194506103b7565b80fd5b5050346103755760203660031901126103755760ff8160a0936001600160a01b0361048f6124f8565b168152601460205220805492600260018301549201549181519485526020850152828216151590840152818160081c16606084015260101c1615156080820152f35b503461027e57602036600319011261027e57816020936001600160a01b0392358152601085522054169051908152f35b83346104635760203660031901126104635761051b6124f8565b610523612745565b6001600160a01b0380911690816001600160a01b0319600d541617600d55600c54167f14662a0fccd762a05d5e1fa6afdd204554c4cf90fe58b5c5947f664fb71925f58380a380f35b505034610375576020918260031936011261046357816103da916001600160a01b036105966124f8565b606060a085516105a5816125d3565b858152858a82015285878201528583820152856080820152015216815260148552208251926105d3846125d3565b8154845260ff600183015492868601938452600281015492808701908385161515825261061c600360608a0194868860081c1686528660808c019860101c16151588520161300b565b9560a089019687528151998a99818b5251908a0152519088015251151560608701525116608085015251151560a08401525160c08084015260e0830190612711565b509060209081600319360112610b4a57823591610679612fd0565b610681612f9a565b82151580610b3f575b61069390612ae8565b338552601481526106b1828620805415908115610b30575b50612b59565b6106ba8361339b565b936106c784601354612bca565b3410610ac957856001600160a01b0395828488600c54168751928380927f29bdca370000000000000000000000000000000000000000000000000000000082525afa908115610abf579088918491610a85575b501690813b1561027e5785517fd064ff190000000000000000000000000000000000000000000000000000000081523385820190815260208101929092529291839182908490829060400103925af180156109a757610a57575b50858261078086612bf3565b96825b8781106109b1575085513360601b6bffffffffffffffffffffffff19168382019081526014810189905261081c92916107c981603484015b03601f19810183528261260b565b51902090600f5416906107dd821515612c5e565b875194858094819363435639fb60e11b8352338a8401606090939291936001600160a01b03608082019516815260016020820152600560408201520152565b03925af19081156109a7578791610975575b508652601082528286203381546001600160a01b031916179055825194610854866125d3565b84865282860195348752848101888152606082016005815260808301906001998a835260a08501958652338c5260148852888c2094518555518a85015560028401925115156108af90849060ff801983541691151516179055565b51825461ff00191660089190911b61ff001617825551815462ff0000191690151560101b62ff000016179055600301905180519267ffffffffffffffff84116109625750918387936109048385989795612cc0565b019488528188209488955b82871061094d575050507f61e364e3eabc785119e074fc551f39d64063d113dd457cccf0f14a6fcb3ede4f935082519485528401523392a260075580f35b8151878201559590930194879383019061090f565b886041602492634e487b7160e01b835252fd5b90508281813d83116109a0575b61098c818361260b565b8101031261099b57513861082e565b600080fd5b503d610982565b84513d89823e3d90fd5b9092610a4e9250610a499060118054906109ca82612c25565b9055806109d7858d612c34565b526109e28133612d7b565b610a3089516109f0816125a1565b8381528981018481528b8201858152938552600b8b52938b902090518154945161ffff1990951660ff919091161760089490941b61ff0016939093178355565b51815462ff0000191690151560101b62ff000016179055565b612c25565b87918491610783565b67ffffffffffffffff8197929711610a725783529438610774565b602482604189634e487b7160e01b835252fd5b809250868092503d8311610ab8575b610a9e818361260b565b8101031261027e5751878116810361027e5787903861071a565b503d610a94565b86513d85823e3d90fd5b90608492519162461bcd60e51b8352820152602860248201527f52656c69633a20496e73756666696369656e742076616c756520666f7220766160448201527f756c74206d696e740000000000000000000000000000000000000000000000006064820152fd5b60ff91506002015416386106ab565b50603283111561068a565b8380fd5b509060209081600319360112610b4a57823591610b69612fd0565b610b71612f9a565b82151580610f42575b610b8390612ae8565b33855260148152610ba0828620805415908115610b305750612b59565b610ba98361339b565b610bb584601354612bca565b3410610edb576001600160a01b0380600d5416918451907f23b872dd000000000000000000000000000000000000000000000000000000008583015233602483015230604483015260648201526064815260a081019267ffffffffffffffff9382811085821117610ec8578652610c2c9190612cfb565b610c3585612bf3565b9083885b878110610e44575085513360601b6bffffffffffffffffffffffff191682820190815260148101899052610cc99391610c7581603484016107bb565b51902090600f5416610c88811515612c5e565b898b895180968195829463435639fb60e11b845233908401606090939291936001600160a01b03608082019516815260016020820152600560408201520152565b03925af1908115610e3a578891610e09575b508752601083528387203381546001600160a01b031916179055835195610d01876125d3565b85875283870196348852858101898152606082019860058a5260808301908b825260a08401958652338c5260148852888c2093518455519960019a8b8501556002840192511515610d5e90849060ff801983541691151516179055565b51825461ff00191660089190911b61ff001617825551815462ff0000191690151560101b62ff00001617905560030191519081519384116109625750908383959492610dab8a9584612cc0565b0190835281832087845b878110610df457505050507f61e364e3eabc785119e074fc551f39d64063d113dd457cccf0f14a6fcb3ede4f935082519485528401523392a260075580f35b8351838201558a955092840192899101610db5565b90508381813d8311610e33575b610e20818361260b565b81010312610e2f575138610cdb565b8780fd5b503d610e16565b85513d8a823e3d90fd5b610ec19150610a498a6011805490610e5b82612c25565b905580610e688589612c34565b52610e738133612d7b565b610a308a51610e81816125a1565b8381528a81018481528c8201858152938552600b8c52938c902090518154945161ffff1990951660ff919091161760089490941b61ff0016939093178355565b8490610c39565b60248a60418b634e487b7160e01b835252fd5b6084858385519162461bcd60e51b83528201526024808201527f52656c69633a20496e73756666696369656e74207061796d656e742070726f7660448201527f69646564000000000000000000000000000000000000000000000000000000006064820152fd5b506032831115610b7a565b50919034610375576020918260031936011261046357833590610f6f82612961565b5060095494610f7d866126d7565b156111d257829082907a184f03e93ff9f4daa797ed6e38ed64bf6a1f01000000000000000083818110156111c5575b5050866d04ee2d6d415b85acef8100000000808510156111b6575b5050662386f26fc10000808410156111a7575b506305f5e10080841015611198575b506127108084101561118c575b5050606482101561117e575b600a80921015611176575b6001918282019061103561102083612645565b9261102d8951948561260b565b808452612645565b958460218a850195601f19809a01368837850101905b61113a575b50505085519784899594611063836126d7565b928a82821691826000146111135750506001146110b3575b50505091806110976110a495936103da98979551938491612524565b010390810186528561260b565b51928284938452830190612547565b8993949550600982527f6e1540171b6c0c960b71a7020d9f60077f6af931a8bbf590da0223dacf75c7af5b8383106110f9575050508401019190806110976103da61107b565b80549783018501979097528a968a949092019181016110de565b60ff1916898201528415159094028801909301955083925061109791506103da905061107b565b600019019082907f30313233343536373839616263646566000000000000000000000000000000008282061a83530490858261104b5750611050565b60010161100d565b906064600291049101611002565b90920491013880610ff6565b60089192930492019038610fe9565b60109192930492019038610fda565b90919293049201908638610fc7565b0492508591503880610fac565b6064908585519162461bcd60e51b8352820152601e60248201527f52656c69633a204261736520555249206e6f7420636f6e6669677572656400006044820152fd5b5050346103755760603660031901126103755761122f6124f8565b6024359060ff821680830361132d576044359060ff821695868303610463579585949361132460ff97946112ef7fc8a443c1907d413e7a1dca411f6c6e7a16f3aa80eed13699a22eab2af2c4c1e49560209b610a308c6001600160a01b039861129d8a600e5416331461332a565b6011549e8f9c8d958151976112b1896125a1565b885260208801938452818801966001885281526020600b90522095511682198654161785555116839061ff0082549160081b169061ff001916179055565b6112f98684612d7b565b611304601154612c25565b601155875160ff9788168152961660208701529116939081906040820190565b0390a351908152f35b8480fd5b50903461027e578260031936011261027e5761134b612745565b828080806001600160a01b036006541647905af161136761299c565b5015611371578280f35b906020606492519162461bcd60e51b8352820152601a60248201527f52656c69633a20455448207472616e73666572206661696c65640000000000006044820152fd5b5050346103755781600319360112610375576020906001600160a01b03600f54169051908152f35b503461027e57602036600319011261027e57918192356113fb81612961565b508152600b602052206103da825191611413836125a1565b549260ff8416928381528160ff808760081c169687602085015260101c161515910152519283928390929160ff60209181604085019616845216910152565b8382346103755760803660031901126103755761146d6124f8565b61147561250e565b6044359060643567ffffffffffffffff81116114c157366023820112156114c1576114be948160246114ac93369301359101612661565b926114b8838383612789565b336129cc565b80f35b8580fd5b50913461046357602036600319011261046357506114e56020923561339b565b9051908152f35b50903461027e578060031936011261027e576115066124f8565b90602435801515928382036114c1576001600160a01b031693841561157c575061154f9033865260056020528286208587526020528286209060ff801983541691151516179055565b519081527f17307eab39ab6107e8899845ad3d59bd9653f200f220920489ca2b5937696c3160203392a380f35b602490858451917f5b08ba18000000000000000000000000000000000000000000000000000000008352820152fd5b5050346103755781600319360112610375576020906012549051908152f35b5050346103755781600319360112610375578051908260018054916115ee836126d7565b808652928281169081156116735750600114611617575b5050506103c8826103da94038361260b565b94508085527fb10e2d527612073b26eecdfd717e6a320cf44b4afac2b0732d9fcbe2b7fa0cf65b82861061165b575050506103c88260206103da9582010194611605565b8054602087870181019190915290950194810161163e565b6103da9750869350602092506103c894915060ff191682840152151560051b82010194611605565b50919034610375576116ac36612698565b906116b5612745565b81519367ffffffffffffffff851161185257506116d3600a546126d7565b601f81116117f9575b50602093601f8111600114611753579081611742939285967f905d981207a7d0b6c62cc46ab0be2a076d0298e4a86d0ab79882dbd01ac373789691611748575b508160011b916000199060031b1c191617600a5551918291602083526020830190612547565b0390a180f35b90508301513861171c565b600a84527fc65a7bb8d6351c1cf70c95a316cc6a92839c986682d98bc35f958f4883f9d2a8601f198216855b8181106117e15750916001917f905d981207a7d0b6c62cc46ab0be2a076d0298e4a86d0ab79882dbd01ac37378969782611742979695106117c8575b5050811b01600a556103c8565b85015160001960f88460031b161c1916905538806117bb565b8588015183556020978801976001909301920161177f565b61184290600a85527fc65a7bb8d6351c1cf70c95a316cc6a92839c986682d98bc35f958f4883f9d2a8601f870160051c81019160208810611848575b601f0160051c0190612ca9565b386116dc565b9091508190611835565b836041602492634e487b7160e01b835252fd5b5050346103755781600319360112610375576020906001600160a01b03600654169051908152f35b50503461037557816003193601126103755760207f62e78cea01bee320cd4e420270b5ea74000d11b0c9f74754ebdbfc544b05a258916118cb612745565b6118d3612f9a565b600160ff19600854161760085551338152a180f35b8334610463576020366003190112610463576001600160a01b0361190a6124f8565b611912612745565b16806001600160a01b0319600f541617600f557feda44c694e75c8161562f6179238b37a8daa291b6b2229613ed903ed92ab2d3d8280a280f35b8334610463578060031936011261046357611965612745565b806001600160a01b036006546001600160a01b03198116600655167f8be0079c531659141344cd1fd0a4f28419497f9722a3daafe3b4186f6b6457e08280a380f35b509134610463576020366003190112610463576001600160a01b036119ca6124f8565b169283156119e75750806020938392526003845220549051908152f35b9060249251917f89c62b64000000000000000000000000000000000000000000000000000000008352820152fd5b50503461037557816003193601126103755780519082600954611a37816126d7565b808552916001918083169081156116735750600114611a62575050506103c8826103da94038361260b565b9450600985527f6e1540171b6c0c960b71a7020d9f60077f6af931a8bbf590da0223dacf75c7af5b828610611aa7575050506103c88260206103da9582010194611605565b80546020878701810191909152909501948101611a8a565b50903461027e5760209081600319360112610b4a5782359182856001600160a01b03611af081600e5416331461332a565b611af983612961565b838352600b8552837f7f33b20c4df962ca720387409232fd87c13e869902a3e55f0f5fefe0a87768258388862093611b74898b5196611b37886125a1565b5460ff808216808a52600883901c8216938a0184905260109290921c161515978d01979097528b5196875260208701529116939081906040820190565b0390a382825260028452848220541660028115948515611be5575b848452528482206001600160a01b031981541690557fddf252ad1be2c89b69c2b068fc378daa952ba7f163c4a11628f55a4df523b3ef8280a4611bd0578380f35b602493505191637e27328960e01b8352820152fd5b611c0685600052600460205260406000206001600160a01b03198154169055565b828452600381528684208054600019019055611b8f565b833461046357602036600319011261046357611c376124f8565b611c3f612745565b6001600160a01b0380911690816001600160a01b0319600c541617600c55600d5416907f14662a0fccd762a05d5e1fa6afdd204554c4cf90fe58b5c5947f664fb71925f58380a380f35b5050346103755781600319360112610375576020906001600160a01b03600c54169051908152f35b50913461046357602036600319011261046357506001600160a01b03611cd960209335612961565b915191168152f35b50503461037557816003193601126103755760209060ff6008541690519015158152f35b5091903461037557611d1636612698565b90611d1f612745565b81519367ffffffffffffffff85116118525750611d3d6009546126d7565b601f8111611e5d575b50602093601f8111600114611db7579081611742939285967ff9c7803e94e0d3c02900d8a90893a6d5e90dd04d32a4cfe825520f82bf9f32f69691611dac575b508160011b916000199060031b1c19161760095551918291602083526020830190612547565b905083015138611d86565b600984527f6e1540171b6c0c960b71a7020d9f60077f6af931a8bbf590da0223dacf75c7af601f198216855b818110611e455750916001917ff9c7803e94e0d3c02900d8a90893a6d5e90dd04d32a4cfe825520f82bf9f32f696978261174297969510611e2c575b5050811b016009556103c8565b85015160001960f88460031b161c191690553880611e1f565b85880151835560209788019760019093019201611de3565b611ea590600985527f6e1540171b6c0c960b71a7020d9f60077f6af931a8bbf590da0223dacf75c7af601f870160051c8101916020881061184857601f0160051c0190612ca9565b38611d46565b5050346103755781600319360112610375576020906001600160a01b03600d54169051908152f35b5050346103755781600319360112610375576020906001600160a01b03600e54169051908152f35b505034610375576114be90611f0f3661256c565b91925192611f1c846125ef565b8584526114b8838383612789565b503461027e578260031936011261027e57611f43612745565b6008549060ff821615611f85575060ff1916600855513381527f5db9ee0a495bf2e6ff9c91a7834c1ba4fdd244a5e8aa4e537bd38aeae4b073aa90602090a180f35b82517f8dfc202b000000000000000000000000000000000000000000000000000000008152fd5b509190346103755780600319360112610375576024359267ffffffffffffffff841161027e573660238501121561027e578381013593611ff7611fee8661262d565b9351938461260b565b84835260209460248685019160051b830101913683116114c157602401905b82821061202957856114be86863561305a565b81358152908601908601612016565b5050346103755781600319360112610375576020906013549051908152f35b8334610463576114be6120693661256c565b91612789565b503461027e578260031936011261027e57612088612745565b6001600160a01b0380600d5416908351927f70a082310000000000000000000000000000000000000000000000000000000084523090840152602083602481855afa928315612189578593612156575b50826120e2578480f35b61214e9361213b612149926006541691519485927fa9059cbb00000000000000000000000000000000000000000000000000000000602085015260248401602090939291936001600160a01b0360408201951681520152565b03601f19810184528361260b565b612cfb565b388080808480f35b9092506020813d8211612181575b816121716020938361260b565b8101031261132d575191386120d8565b3d9150612164565b84513d87823e3d90fd5b838234610375576020366003190112610375578035906121b1612745565b670de0b6b3a7640000918281029281840414901517156121d2575060125580f35b826011602492634e487b7160e01b835252fd5b83823461037557602036600319011261037557612200612745565b3560135580f35b50903461027e578060031936011261027e576122216124f8565b9160243561222e81612961565b331515806122e7575b806122bf575b6122905781906001600160a01b03809616958691167f8c5be1e5ebec7d5bd14f71427d1e84f3dd0314c0f7b2291e5b200ac8c7c3b9258880a484526020528220906001600160a01b031982541617905580f35b83517fa9fbf51f0000000000000000000000000000000000000000000000000000000081523381850152602490fd5b506001600160a01b0381168652600560205283862033875260205260ff84872054161561223d565b50336001600160a01b0382161415612237565b503461027e57602036600319011261027e5781602093826001600160a01b03933561232481612961565b50825285522054169051908152f35b505034610375578160031936011261037557805190828054612354816126d7565b80855291600191808316908115611673575060011461237f575050506103c8826103da94038361260b565b80809650527f290decd9548b62a8d60345a988386fc84ba6bc95484008f6362f93160ef3e5635b8286106123c3575050506103c88260206103da9582010194611605565b805460208787018101919091529095019481016123a6565b503461027e57602036600319011261027e5735906001600160e01b0319821680920361027e57602092507f80ac58cd00000000000000000000000000000000000000000000000000000000821491821561246a575b8215612440575b50519015158152f35b7f01ffc9a70000000000000000000000000000000000000000000000000000000014915038612437565b7f5b5e139f0000000000000000000000000000000000000000000000000000000081149250612430565b8334610463576020366003190112610463576001600160a01b036124b66124f8565b6124be612745565b16806001600160a01b0319600e541617600e557f088c5ec3908e3424c43d8102e8e1cc8eb8820a25e326b9c31cc58963046b92e98280a280f35b600435906001600160a01b038216820361099b57565b602435906001600160a01b038216820361099b57565b60005b8381106125375750506000910152565b8181015183820152602001612527565b9060209161256081518092818552858086019101612524565b601f01601f1916010190565b606090600319011261099b576001600160a01b0390600435828116810361099b5791602435908116810361099b579060443590565b6060810190811067ffffffffffffffff8211176125bd57604052565b634e487b7160e01b600052604160045260246000fd5b60c0810190811067ffffffffffffffff8211176125bd57604052565b6020810190811067ffffffffffffffff8211176125bd57604052565b90601f8019910116810190811067ffffffffffffffff8211176125bd57604052565b67ffffffffffffffff81116125bd5760051b60200190565b67ffffffffffffffff81116125bd57601f01601f191660200190565b92919261266d82612645565b9161267b604051938461260b565b82948184528183011161099b578281602093846000960137010152565b602060031982011261099b576004359067ffffffffffffffff821161099b578060238301121561099b578160246126d493600401359101612661565b90565b90600182811c92168015612707575b60208310146126f157565b634e487b7160e01b600052602260045260246000fd5b91607f16916126e6565b90815180825260208080930193019160005b828110612731575050505090565b835185529381019392810192600101612723565b6001600160a01b0360065416330361275957565b60246040517f118cdaa7000000000000000000000000000000000000000000000000000000008152336004820152fd5b90916001600160a01b0380931692831561294957600092828452826020956002875260409684888820541696879133151580612897575b509060027fddf252ad1be2c89b69c2b068fc378daa952ba7f163c4a11628f55a4df523b3ef928461285f575b858352600381528b83206001815401905586835252898120846001600160a01b031982541617905580a416928383036128255750505050565b6064945051927f64283d7b000000000000000000000000000000000000000000000000000000008452600484015260248301526044820152fd5b61288087600052600460205260406000206001600160a01b03198154169055565b848352600381528b832080546000190190556127ec565b91939450915080612908575b156128b3578592918791386127c0565b8786886128d0576024915190637e27328960e01b82526004820152fd5b90517f177e802f0000000000000000000000000000000000000000000000000000000081523360048201526024810191909152604490fd5b50338714801561292d575b806128a357508582526004815233858984205416146128a3565b5086825260058152878220338352815260ff8883205416612913565b6024604051633250574960e11b815260006004820152fd5b8060005260026020526001600160a01b0360406000205416908115612984575090565b60249060405190637e27328960e01b82526004820152fd5b3d156129c7573d906129ad82612645565b916129bb604051938461260b565b82523d6000602084013e565b606090565b9293823b6129dc575b5050505050565b612a21906001600160a01b038094169560405194859481630a85bd0160e11b988988521660048701521660248501526044840152608060648401526084830190612547565b03906020816000938185885af190829082612aa0575b5050612a6e5782612a4661299c565b8051919082612a675760248260405190633250574960e11b82526004820152fd5b6020915001fd5b6001600160e01b03191603612a88575038808080806129d5565b60249060405190633250574960e11b82526004820152fd5b909192506020813d8211612ae0575b81612abc6020938361260b565b810103126103755751906001600160e01b0319821682036104635750903880612a37565b3d9150612aaf565b15612aef57565b608460405162461bcd60e51b815260206004820152603260248201527f52656c69633a20496e76616c6964207175616e74697479202d206d757374206260448201527f65206265747765656e203120616e6420353000000000000000000000000000006064820152fd5b15612b6057565b608460405162461bcd60e51b815260206004820152602a60248201527f52656c69633a2050726576696f7573206d696e7420726571756573742073746960448201527f6c6c2070656e64696e67000000000000000000000000000000000000000000006064820152fd5b81810292918115918404141715612bdd57565b634e487b7160e01b600052601160045260246000fd5b90612bfd8261262d565b612c0a604051918261260b565b8281528092612c1b601f199161262d565b0190602036910137565b6000198114612bdd5760010190565b8051821015612c485760209160051b010190565b634e487b7160e01b600052603260045260246000fd5b15612c6557565b606460405162461bcd60e51b815260206004820152601260248201527f565246206e6f7420636f6e6669677572656400000000000000000000000000006044820152fd5b818110612cb4575050565b60008155600101612ca9565b906801000000000000000081116125bd57815490808355818110612ce357505050565b612cf99260005260206000209182019101612ca9565b565b906000602091828151910182855af115612d6f576000513d612d6657506001600160a01b0381163b155b612d2c5750565b6024906001600160a01b03604051917f5274afe7000000000000000000000000000000000000000000000000000000008352166004820152fd5b60011415612d25565b6040513d6000823e3d90fd5b6040805192612d89846125ef565b60008085526001600160a01b0394858516948515612f835783835260209660028852858420541684878215159283612f4b575b81875260038b528887206001815401905582875260028b52888720826001600160a01b03198254161790557fddf252ad1be2c89b69c2b068fc378daa952ba7f163c4a11628f55a4df523b3ef8780a4612f1b573b612e1d575b505050505050565b85612e5a9185969798955180938192630a85bd0160e11b978884523360048501528760248501526044840152608060648401526084830190612547565b0381858a5af190829082612ed7575b5050612ea057505050612e7a61299c565b8051939084612e9a57602484845190633250574960e11b82526004820152fd5b84925001fd5b6001600160e01b0319919295501603612ec0575050388080808080612e15565b602492505190633250574960e11b82526004820152fd5b909192508781813d8311612f14575b612ef0818361260b565b810103126103755751906001600160e01b0319821682036104635750903880612e69565b503d612ee6565b6024838651907f73c6ac6e0000000000000000000000000000000000000000000000000000000082526004820152fd5b612f6c83600052600460205260406000206001600160a01b03198154169055565b80875260038b528887208054600019019055612dbc565b602483865190633250574960e11b82526004820152fd5b60ff60085416612fa657565b60046040517fd93c0665000000000000000000000000000000000000000000000000000000008152fd5b600260075414612fe1576002600755565b60046040517f3ee5aeb5000000000000000000000000000000000000000000000000000000008152fd5b9060405191828154918282526020928383019160005283600020936000905b82821061304057505050612cf99250038361260b565b85548452600195860195889550938101939091019061302a565b91906001600160a01b03600f5416330361332557805115613325578260005260106020526001600160a01b036040600020541690811561331f57816000526014602052604060002092600284015460ff81166133175760ff191660011760028501556130c86003850161300b565b91805115612c4857602001519460005b855481101561325a576130eb8185612c34565b5190856001600160a01b036130ff84612961565b16036132505760405188602082015282604082015260608281830152815280608081011067ffffffffffffffff6080830111176125bd57613203927fc8a443c1907d413e7a1dca411f6c6e7a16f3aa80eed13699a22eab2af2c4c1e46131fb8360808b950160405260648151602083012006602c811060001461320857506131e16001915b613190608082016125a1565b60ff8381166080830181815260a08401918252600160c09094019384526000898152600b6020526040902090518154925161ffff1990931693169290921760089190911b61ff001617815590610a30565b6040805160ff909216808352602083015290918291820190565b0390a3612c25565b6130d8565b604f81101561321d57506131e1600291613184565b605e81101561323257506131e1600391613184565b60631115613245576131e1600491613184565b6131e1600591613184565b6132039150612c25565b5092937f0908417bb2d0393a45bf6efe35cecf8dbedbab1767b8d95f650094c6ccd1d0ac9195509184926132b360ff6002835493015460081c169260405193849384526020840152606060408401526060830190612711565b0390a2600052601060205260406000206001600160a01b031981541690556000526014602052600360406000206000815560006001820155600060028201550180546000825580613302575050565b612cf991600052602060002090810190612ca9565b509350505050565b50509050565b509050565b1561333157565b608460405162461bcd60e51b815260206004820152603860248201527f52656c69633a204e6f7420617574686f72697a6564202d206f6e6c7920416c7460448201527f6172206f6620417363656e73696f6e2063616e2063616c6c00000000000000006064820152fd5b906001600160a01b03600c541691821561344157801561343a5760206012546024604051809681937f7b2e0fcf00000000000000000000000000000000000000000000000000000000835260048301525afa928315612d6f57600093613407575b506126d49192612bca565b6020813d8211613432575b8161341f6020938361260b565b81010312610b4a575192506126d46133fc565b3d9150613412565b5060009150565b608460405162461bcd60e51b815260206004820152602360248201527f52656c69633a2044756e67656f6e436f726520636f6e7472616374206e6f742060448201527f73657400000000000000000000000000000000000000000000000000000000006064820152fdfea26469706673582212201d53c717192b2fbbdc460b10f2d038207b51a7ddb6f66e4a6ef556dc9d54afbd64736f6c63430008140033",
  "linkReferences": {},
  "deployedLinkReferences": {}
}