{
  "_format": "hh-sol-artifact-1",
  "contractName": "VRFConsumerV2Plus",
  "sourceName": "contracts/current/core/VRFConsumerV2Plus.sol",
  "abi": [
    {
      "inputs": [
        {
          "internalType": "uint256",
          "name": "subscriptionId",
          "type": "uint256"
        },
        {
          "internalType": "address",
          "name": "vrfCoordinator",
          "type": "address"
        }
      ],
      "stateMutability": "nonpayable",
      "type": "constructor"
    },
    {
      "inputs": [
        {
          "internalType": "address",
          "name": "have",
          "type": "address"
        },
        {
          "internalType": "address",
          "name": "want",
          "type": "address"
        }
      ],
      "name": "OnlyCoordinatorCanFulfill",
      "type": "error"
    },
    {
      "inputs": [
        {
          "internalType": "address",
          "name": "have",
          "type": "address"
        },
        {
          "internalType": "address",
          "name": "owner",
          "type": "address"
        },
        {
          "internalType": "address",
          "name": "coordinator",
          "type": "address"
        }
      ],
      "name": "OnlyOwnerOrCoordinator",
      "type": "error"
    },
    {
      "inputs": [],
      "name": "ZeroAddress",
      "type": "error"
    },
    {
      "anonymous": false,
      "inputs": [
        {
          "indexed": true,
          "internalType": "address",
          "name": "contractAddress",
          "type": "address"
        },
        {
          "indexed": false,
          "internalType": "bool",
          "name": "authorized",
          "type": "bool"
        }
      ],
      "name": "AuthorizationChanged",
      "type": "event"
    },
    {
      "anonymous": false,
      "inputs": [
        {
          "indexed": true,
          "internalType": "uint256",
          "name": "requestId",
          "type": "uint256"
        },
        {
          "indexed": true,
          "internalType": "address",
          "name": "callbackContract",
          "type": "address"
        },
        {
          "indexed": false,
          "internalType": "string",
          "name": "reason",
          "type": "string"
        }
      ],
      "name": "CallbackFailed",
      "type": "event"
    },
    {
      "anonymous": false,
      "inputs": [
        {
          "indexed": true,
          "internalType": "uint256",
          "name": "requestId",
          "type": "uint256"
        },
        {
          "indexed": true,
          "internalType": "address",
          "name": "callbackContract",
          "type": "address"
        }
      ],
      "name": "CallbackSuccess",
      "type": "event"
    },
    {
      "anonymous": false,
      "inputs": [
        {
          "indexed": false,
          "internalType": "address",
          "name": "vrfCoordinator",
          "type": "address"
        }
      ],
      "name": "CoordinatorSet",
      "type": "event"
    },
    {
      "anonymous": false,
      "inputs": [
        {
          "indexed": true,
          "internalType": "address",
          "name": "from",
          "type": "address"
        },
        {
          "indexed": true,
          "internalType": "address",
          "name": "to",
          "type": "address"
        }
      ],
      "name": "OwnershipTransferRequested",
      "type": "event"
    },
    {
      "anonymous": false,
      "inputs": [
        {
          "indexed": true,
          "internalType": "address",
          "name": "from",
          "type": "address"
        },
        {
          "indexed": true,
          "internalType": "address",
          "name": "to",
          "type": "address"
        }
      ],
      "name": "OwnershipTransferred",
      "type": "event"
    },
    {
      "anonymous": false,
      "inputs": [
        {
          "indexed": true,
          "internalType": "uint256",
          "name": "requestId",
          "type": "uint256"
        },
        {
          "indexed": false,
          "internalType": "uint256[]",
          "name": "randomWords",
          "type": "uint256[]"
        }
      ],
      "name": "RequestFulfilled",
      "type": "event"
    },
    {
      "anonymous": false,
      "inputs": [
        {
          "indexed": true,
          "internalType": "uint256",
          "name": "requestId",
          "type": "uint256"
        },
        {
          "indexed": false,
          "internalType": "uint32",
          "name": "numWords",
          "type": "uint32"
        }
      ],
      "name": "RequestSent",
      "type": "event"
    },
    {
      "inputs": [],
      "name": "acceptOwnership",
      "outputs": [],
      "stateMutability": "nonpayable",
      "type": "function"
    },
    {
      "inputs": [
        {
          "internalType": "address",
          "name": "contract_",
          "type": "address"
        }
      ],
      "name": "authorizeContract",
      "outputs": [],
      "stateMutability": "nonpayable",
      "type": "function"
    },
    {
      "inputs": [
        {
          "internalType": "address",
          "name": "",
          "type": "address"
        }
      ],
      "name": "authorized",
      "outputs": [
        {
          "internalType": "bool",
          "name": "",
          "type": "bool"
        }
      ],
      "stateMutability": "view",
      "type": "function"
    },
    {
      "inputs": [],
      "name": "callbackGasLimit",
      "outputs": [
        {
          "internalType": "uint32",
          "name": "",
          "type": "uint32"
        }
      ],
      "stateMutability": "view",
      "type": "function"
    },
    {
      "inputs": [
        {
          "internalType": "address",
          "name": "user",
          "type": "address"
        }
      ],
      "name": "getRandomForUser",
      "outputs": [
        {
          "internalType": "bool",
          "name": "fulfilled",
          "type": "bool"
        },
        {
          "internalType": "uint256[]",
          "name": "randomWords",
          "type": "uint256[]"
        }
      ],
      "stateMutability": "view",
      "type": "function"
    },
    {
      "inputs": [
        {
          "internalType": "uint256",
          "name": "_requestId",
          "type": "uint256"
        }
      ],
      "name": "getRequestStatus",
      "outputs": [
        {
          "internalType": "bool",
          "name": "fulfilled",
          "type": "bool"
        },
        {
          "internalType": "uint256[]",
          "name": "randomWords",
          "type": "uint256[]"
        }
      ],
      "stateMutability": "view",
      "type": "function"
    },
    {
      "inputs": [],
      "name": "getTotalFee",
      "outputs": [
        {
          "internalType": "uint256",
          "name": "",
          "type": "uint256"
        }
      ],
      "stateMutability": "pure",
      "type": "function"
    },
    {
      "inputs": [],
      "name": "getVrfRequestPrice",
      "outputs": [
        {
          "internalType": "uint256",
          "name": "",
          "type": "uint256"
        }
      ],
      "stateMutability": "pure",
      "type": "function"
    },
    {
      "inputs": [],
      "name": "keyHash",
      "outputs": [
        {
          "internalType": "bytes32",
          "name": "",
          "type": "bytes32"
        }
      ],
      "stateMutability": "view",
      "type": "function"
    },
    {
      "inputs": [
        {
          "internalType": "address",
          "name": "",
          "type": "address"
        }
      ],
      "name": "lastRequestIdByAddress",
      "outputs": [
        {
          "internalType": "uint256",
          "name": "",
          "type": "uint256"
        }
      ],
      "stateMutability": "view",
      "type": "function"
    },
    {
      "inputs": [],
      "name": "numWords",
      "outputs": [
        {
          "internalType": "uint32",
          "name": "",
          "type": "uint32"
        }
      ],
      "stateMutability": "view",
      "type": "function"
    },
    {
      "inputs": [],
      "name": "owner",
      "outputs": [
        {
          "internalType": "address",
          "name": "",
          "type": "address"
        }
      ],
      "stateMutability": "view",
      "type": "function"
    },
    {
      "inputs": [
        {
          "internalType": "uint256",
          "name": "requestId",
          "type": "uint256"
        },
        {
          "internalType": "uint256[]",
          "name": "randomWords",
          "type": "uint256[]"
        }
      ],
      "name": "rawFulfillRandomWords",
      "outputs": [],
      "stateMutability": "nonpayable",
      "type": "function"
    },
    {
      "inputs": [],
      "name": "requestConfirmations",
      "outputs": [
        {
          "internalType": "uint16",
          "name": "",
          "type": "uint16"
        }
      ],
      "stateMutability": "view",
      "type": "function"
    },
    {
      "inputs": [
        {
          "internalType": "uint256",
          "name": "",
          "type": "uint256"
        }
      ],
      "name": "requestIdToContract",
      "outputs": [
        {
          "internalType": "address",
          "name": "",
          "type": "address"
        }
      ],
      "stateMutability": "view",
      "type": "function"
    },
    {
      "inputs": [
        {
          "internalType": "uint256",
          "name": "",
          "type": "uint256"
        }
      ],
      "name": "requestIdToUser",
      "outputs": [
        {
          "internalType": "address",
          "name": "",
          "type": "address"
        }
      ],
      "stateMutability": "view",
      "type": "function"
    },
    {
      "inputs": [
        {
          "internalType": "address",
          "name": "user",
          "type": "address"
        },
        {
          "internalType": "uint256",
          "name": "quantity",
          "type": "uint256"
        },
        {
          "internalType": "uint8",
          "name": "",
          "type": "uint8"
        },
        {
          "internalType": "bytes32",
          "name": "",
          "type": "bytes32"
        }
      ],
      "name": "requestRandomForUser",
      "outputs": [
        {
          "internalType": "uint256",
          "name": "requestId",
          "type": "uint256"
        }
      ],
      "stateMutability": "nonpayable",
      "type": "function"
    },
    {
      "inputs": [
        {
          "internalType": "uint32",
          "name": "_numWords",
          "type": "uint32"
        }
      ],
      "name": "requestRandomWords",
      "outputs": [
        {
          "internalType": "uint256",
          "name": "requestId",
          "type": "uint256"
        }
      ],
      "stateMutability": "nonpayable",
      "type": "function"
    },
    {
      "inputs": [
        {
          "internalType": "uint8",
          "name": "",
          "type": "uint8"
        },
        {
          "internalType": "uint32",
          "name": "_numWords",
          "type": "uint32"
        },
        {
          "internalType": "bytes",
          "name": "data",
          "type": "bytes"
        }
      ],
      "name": "requestRandomness",
      "outputs": [
        {
          "internalType": "uint256",
          "name": "requestId",
          "type": "uint256"
        }
      ],
      "stateMutability": "nonpayable",
      "type": "function"
    },
    {
      "inputs": [
        {
          "internalType": "uint256",
          "name": "",
          "type": "uint256"
        }
      ],
      "name": "s_requests",
      "outputs": [
        {
          "internalType": "bool",
          "name": "fulfilled",
          "type": "bool"
        },
        {
          "internalType": "bool",
          "name": "exists",
          "type": "bool"
        },
        {
          "internalType": "address",
          "name": "requester",
          "type": "address"
        }
      ],
      "stateMutability": "view",
      "type": "function"
    },
    {
      "inputs": [],
      "name": "s_subscriptionId",
      "outputs": [
        {
          "internalType": "uint256",
          "name": "",
          "type": "uint256"
        }
      ],
      "stateMutability": "view",
      "type": "function"
    },
    {
      "inputs": [],
      "name": "s_vrfCoordinator",
      "outputs": [
        {
          "internalType": "contract IVRFCoordinatorV2Plus",
          "name": "",
          "type": "address"
        }
      ],
      "stateMutability": "view",
      "type": "function"
    },
    {
      "inputs": [
        {
          "internalType": "address",
          "name": "addr",
          "type": "address"
        },
        {
          "internalType": "bool",
          "name": "auth",
          "type": "bool"
        }
      ],
      "name": "setAuthorizedContract",
      "outputs": [],
      "stateMutability": "nonpayable",
      "type": "function"
    },
    {
      "inputs": [
        {
          "internalType": "address",
          "name": "_vrfCoordinator",
          "type": "address"
        }
      ],
      "name": "setCoordinator",
      "outputs": [],
      "stateMutability": "nonpayable",
      "type": "function"
    },
    {
      "inputs": [
        {
          "internalType": "uint256",
          "name": "_subscriptionId",
          "type": "uint256"
        }
      ],
      "name": "setSubscriptionId",
      "outputs": [],
      "stateMutability": "nonpayable",
      "type": "function"
    },
    {
      "inputs": [
        {
          "internalType": "bytes32",
          "name": "_keyHash",
          "type": "bytes32"
        },
        {
          "internalType": "uint32",
          "name": "_callbackGasLimit",
          "type": "uint32"
        },
        {
          "internalType": "uint16",
          "name": "_requestConfirmations",
          "type": "uint16"
        },
        {
          "internalType": "uint32",
          "name": "_numWords",
          "type": "uint32"
        }
      ],
      "name": "setVRFParams",
      "outputs": [],
      "stateMutability": "nonpayable",
      "type": "function"
    },
    {
      "inputs": [
        {
          "internalType": "address",
          "name": "to",
          "type": "address"
        }
      ],
      "name": "transferOwnership",
      "outputs": [],
      "stateMutability": "nonpayable",
      "type": "function"
    },
    {
      "inputs": [],
      "name": "vrfRequestPrice",
      "outputs": [
        {
          "internalType": "uint256",
          "name": "",
          "type": "uint256"
        }
      ],
      "stateMutability": "pure",
      "type": "function"
    }
  ],
  "bytecode": "0x60803461012557601f611a1b38819003918201601f19168301916001600160401b0383118484101761012a5780849260409485528339810103126101255780516020909101516001600160a01b038116908190036101255733156100e057600080546001600160a01b0319908116331790915581156100ce5760025416176002557f130dba50ad435d4ecc214aad0d5820474137bd68e7e77724144f27c3c377d3d4600855660100030007a12060018060501b031960095416176009556007556040516118da90816101418239f35b60405163d92e233d60e01b8152600490fd5b60405162461bcd60e51b815260206004820152601860248201527f43616e6e6f7420736574206f776e657220746f207a65726f00000000000000006044820152606490fd5b600080fd5b634e487b7160e01b600052604160045260246000fdfe6080604081815260048036101561001557600080fd5b600091823560e01c938463052a029d146113a2575083631fe543e31461105157836324f746971461102c578363350c693c14610ffc5783634c52b16c14610d745783635681dbe914610d4057836361728f3914610d2157836367561d9314610cb357836379ba509714610c075783637ae316d01461015a5783637ccfd7fc14610bdf57836386ac73f6146108e557836387fe97e41461015a5783638ac00021146108c65783638da5cb5b146108a05783638ea98117146107ad5783639eccacf614610785578363a168fa8914610737578363b0fb162f14610713578363b9181611146106d7578363c1e0d236146106b6578363d8a4676f146105df578363dc7d73bb146105af578363e726f2e114610330578363f2fa7392146102a6578363f2fde38b146101eb57508263fac722791461015f57505063fcfa22171461015a57600080fd5b611442565b346101e75760803660031901126101e7576101786113e9565b906044359061ffff821682036101e35760643563ffffffff80821682036101de5765ffff00000000926101a961145e565b3560085569ffffffff0000000000006009549260301b1694169069ffffffffffffffffffff1916179160201b16171760095580f35b600080fd5b8380fd5b5080fd5b90346102a25760203660031901126102a2576102056113d3565b9061020e61145e565b6001600160a01b038092169233841461025f575050816001600160a01b031960015416176001558254167fed8889f560326eb138920d842192f0eb3dd22b4f139c87a2c57538e05bae12788380a380f35b906020606492519162461bcd60e51b8352820152601760248201527f43616e6e6f74207472616e7366657220746f2073656c660000000000000000006044820152fd5b8280fd5b9050346101e757806003193601126101e7576102c06113d3565b906024359182151580840361032c577f5fe3a0cb9aeae856eac34445ace9544f3e15c21fa6f9bffeca60d662a690ca1b926103246001600160a01b0360209461030761145e565b1695868852600a85528288209060ff801983541691151516179055565b51908152a280f35b8480fd5b8290346101e757602092836003193601126102a25780359063ffffffff908183168093036101de578490338252600a875260ff85832054168015610597575b610378906114b6565b866103f56001600160a01b039485600254169060085490600754906009546103ac8c516103a481611501565b8a815261166e565b928c51946103b986611533565b85528785015261ffff81881c168c85015216606083015288608083015260a08201528851998a80948193634d8e1c2f60e11b83528883016115cd565b03925af195861561058d57829661055e575b5084519261041484611501565b82845285516104228161154f565b8381528881019460019081875288830190815260608301963388528a875260038c526104608a882094511515859060ff801983541691151516179055565b51835461ff00191690151560081b61ff0016178355518051908284019067ffffffffffffffff831161054b57938c979383838a8f9c9995988f99849f9c986104a791611626565b019087528a8720879d8e5b1061051e57505050507fcc58b13ad3eab50626c6a6300b1d139cd6ebb1688a7cced9461c2f7e762665ee989950600201945116936001600160a01b031994858254161790553382528552868282205586815260068552209033908254161790558451908152a251908152f35b93975093979a5093979a8195998451940193818401550199969293848d9a97938f9a96938e98948e6104b2565b602488604189634e487b7160e01b835252fd5b9095508681813d8311610586575b610576818361156b565b810103126101de57519487610407565b503d61056c565b85513d84823e3d90fd5b506103786001600160a01b038354163314905061036f565b90346102a25760203660031901126102a257816020936001600160a01b0392358152600585522054169051908152f35b82346106b357602092836003193601126101e757929092358084526003825261061060ff8486205460081c166116c1565b8352600381528183208251916106258361154f565b60ff82548181161515855260081c1615158184015260019485830190855196878489958554928381520194845280842093905b82821061069b57868a6106978b6001600160a01b0360028d61067c878e038861156b565b868685015201541660608201525115159151928392836113fc565b0390f35b845486528a9650948501949383019390830190610658565b80fd5b50346101e75760203660031901126101e7576106d061145e565b3560075580f35b9050346101e75760203660031901126101e75760ff816020936001600160a01b036107006113d3565b168152600a855220541690519015158152f35b9050346101e757816003193601126101e7576009549051602091821c61ffff168152f35b90346102a25760203660031901126102a2576060928291358152600360205220906001600160a01b0360028354930154169060ff8151938181161515855260081c1615156020840152820152f35b9050346101e757816003193601126101e7576020906001600160a01b03600254169051908152f35b346102a25760203660031901126102a2576107c66113d3565b6001600160a01b0390818554168033141580610892575b61085157501691821561082a5750816020917fd1a6a14209a385a964d036e404cb5cfb71f4000cdb03c9366292430787261be6936001600160a01b0319600254161760025551908152a180f35b90517fd92e233d000000000000000000000000000000000000000000000000000000008152fd5b848460649285600254169151927f061db9c1000000000000000000000000000000000000000000000000000000008452339084015260248301526044820152fd5b5082600254163314156107dd565b9050346101e757816003193601126101e7576001600160a01b0360209254169051908152f35b9050346101e757816003193601126101e7576020906007549051908152f35b8290346101e75760803660031901126101e7576109006113d3565b6024359060443560ff8116036101de57338452602094600a865260ff84862054168015610bc7575b610931906114b6565b82151580610bbc575b15610b7a5784906001600160a01b03876109c482600254166008546007546009549963ffffffff8091169a61097b8d5161097381611501565b8b815261166e565b928d519461098886611533565b85528785015261ffff81881c168d85015216606083015289608083015260a082015289519a8b80948193634d8e1c2f60e11b83528983016115cd565b03925af1968715610b70578397610b41575b508551936109e385611501565b83855286516109f18161154f565b8481528981019560019081885289830190815260608301973389528b885260038d52610a2f8b892094511515859060ff801983541691151516179055565b51835461ff00191690151560081b61ff0016178355518051908284019067ffffffffffffffff8311610b2e579282828f8f9c9995968f9995829d999f9c98610a7691611626565b019087528a8720875b838110610aff5750505050508160027fcc58b13ad3eab50626c6a6300b1d139cd6ebb1688a7cced9461c2f7e762665ee9a9b01965116956001600160a01b0319968782541617905516908183528652878383205587825260058652828220908482541617905560068552209033908254161790558451908152a251908152f35b9184979b9e989c919493969a9d5080959950519401938184015501928c96928f9a969c9995928f9c9995610a7f565b60248960418a634e487b7160e01b835252fd5b9096508781813d8311610b69575b610b59818361156b565b810103126101de575195886109d6565b503d610b4f565b86513d85823e3d90fd5b6064908685519162461bcd60e51b8352820152601060248201527f496e76616c6964207175616e74697479000000000000000000000000000000006044820152fd5b50603283111561093a565b506109316001600160a01b0386541633149050610928565b9050346101e757816003193601126101e75760209063ffffffff60095460301c169051908152f35b346102a257826003193601126102a257600154916001600160a01b03918284163303610c7057505082546001600160a01b03198082163390811786559316600155167f8be0079c531659141344cd1fd0a4f28419497f9722a3daafe3b4186f6b6457e08380a380f35b906020606492519162461bcd60e51b8352820152601660248201527f4d7573742062652070726f706f736564206f776e6572000000000000000000006044820152fd5b9050346101e75760203660031901126101e7577f5fe3a0cb9aeae856eac34445ace9544f3e15c21fa6f9bffeca60d662a690ca1b60206001600160a01b03610cf96113d3565b610d0161145e565b1692838552600a8252808520600160ff198254161790555160018152a280f35b9050346101e757816003193601126101e7576020906008549051908152f35b9050346101e75760203660031901126101e75761069790610d67610d626113d3565b6117b8565b92909151928392836113fc565b8290346101e75760603660031901126101e757823560ff8116036101de57610d9a6113e9565b67ffffffffffffffff9360443585811161032c573660238201121561032c5780820135868111610ff857369101602401116101e35733845283602095600a875260ff85832054168015610fe0575b610df1906114b6565b6001600160a01b039087610e6e83600254166008546007549860095490610e1c8c516103a481611501565b9a8c5193610e2985611533565b84528684015261ffff82871c168c84015263ffffffff8092166060840152169889608083015260a082015289519a8b80948193634d8e1c2f60e11b83528b83016115cd565b03925af1968715610b70578397610fb1575b50855193610e8d85611501565b838552865191610e9c8361154f565b8483528983019560019283885289850191825260608501973389528b885260038d52610eda8b892096511515879060ff801983541691151516179055565b51855461ff00191690151560081b61ff0016178555905180519284860192908411610f9e57509282828d8c96610f188f9c999d9a9697839c98611626565b01908552888520855b838110610f8557505050505060027fcc58b13ad3eab50626c6a6300b1d139cd6ebb1688a7cced9461c2f7e762665ee979801935116926001600160a01b0319938482541617905586815260068552209033908254161790558451908152a251908152f35b8251828201558e9b508f9a8e9850909201918401610f21565b876041602492634e487b7160e01b835252fd5b9096508781813d8311610fd9575b610fc9818361156b565b810103126101de57519588610e80565b503d610fbf565b50610df16001600160a01b0383541633149050610de8565b8580fd5b90346102a25760203660031901126102a257816020936001600160a01b0392358152600685522054169051908152f35b9050346101e757816003193601126101e75760209063ffffffff600954169051908152f35b90346102a257816003193601126102a25780359160249081359067ffffffffffffffff9283831161139e573660238401121561139e57828501359484861161139a57818401938236918860051b01011161139a576001600160a01b0380600254168033036113655750878952602095600387526110d660ff868c205460081c166116c1565b888a5260038752848a2091600180938160ff19825416178155016110fa8a82611626565b8b52878b2087848d5b8c81106113535750505050898b5260068852858b2054169384611160575b8a8a7ffe2e2d779dba245964d4e3ef9b994be63856fd568bf7d3ca9e224755cb1bd54d8b8b61115a8c8c5193838594855284019161170c565b0390a280f35b843b1561134f578551907f2a32e8d40000000000000000000000000000000000000000000000000000000082528a8583015286818301528b82806111a98d60448301908d61170c565b0381838a5af19283611307575b505050917ffe2e2d779dba245964d4e3ef9b994be63856fd568bf7d3ca9e224755cb1bd54d979695939161115a9593156000146112db57908a9060033d116112cb575b506308c379a014611273575b611218575b505b91819394958980611121565b877f5c41fb4923274451a2db5fa9224b1b87bb2f4fa045ccb01f13fe07200b086faf60608451888152600d898201527f556e6b6e6f776e206572726f720000000000000000000000000000000000000086820152a38861120a565b61127b611749565b80611287575b50611205565b905081897f5c41fb4923274451a2db5fa9224b1b87bb2f4fa045ccb01f13fe07200b086faf6112c28d9487519182918c83528c83019061158d565b0390a38a611281565b90508a803e895160e01c8b6111f9565b5050877f97a73a3f0df71dbb81244cdb12749a3ea4fb0a5b4628a2461ab8a92180e94a308a80a361120c565b829c939c1161133e57508552988161115a7ffe2e2d779dba245964d4e3ef9b994be63856fd568bf7d3ca9e224755cb1bd54d6111b6565b82604186634e487b7160e01b835252fd5b8a80fd5b8b833593019281850155018590611103565b90506044928451927f1cf993f40000000000000000000000000000000000000000000000000000000084523390840152820152fd5b8780fd5b8680fd5b91346101e35760203660031901126101e357926020936001600160a01b036113c86113d3565b168252845220548152f35b600435906001600160a01b03821682036101de57565b6024359063ffffffff821682036101de57565b90606091604081019115158152602092816040858094015285518094520193019160005b82811061142e575050505090565b835185529381019392810192600101611420565b346101de5760003660031901126101de57602060405160008152f35b6001600160a01b0360005416330361147257565b606460405162461bcd60e51b815260206004820152601660248201527f4f6e6c792063616c6c61626c65206279206f776e6572000000000000000000006044820152fd5b156114bd57565b606460405162461bcd60e51b815260206004820152600e60248201527f4e6f7420617574686f72697a65640000000000000000000000000000000000006044820152fd5b6020810190811067ffffffffffffffff82111761151d57604052565b634e487b7160e01b600052604160045260246000fd5b60c0810190811067ffffffffffffffff82111761151d57604052565b6080810190811067ffffffffffffffff82111761151d57604052565b90601f8019910116810190811067ffffffffffffffff82111761151d57604052565b919082519283825260005b8481106115b9575050826000602080949584010152601f8019910116010190565b602081830181015184830182015201611598565b60e060a06116239360208452805160208501526020810151604085015261ffff604082015116606085015263ffffffff8060608301511660808601526080820151168285015201519160c080820152019061158d565b90565b68010000000000000000821161151d5780549180825582811061164857505050565b60009182526020822092830192015b82811061166357505050565b818155600101611657565b604051907f92fd13380000000000000000000000000000000000000000000000000000000060208301525115156024820152602481526060810181811067ffffffffffffffff82111761151d5760405290565b156116c857565b606460405162461bcd60e51b815260206004820152601160248201527f72657175657374206e6f7420666f756e640000000000000000000000000000006044820152fd5b90918281527f07ffffffffffffffffffffffffffffffffffffffffffffffffffffffffffffff83116101de5760209260051b809284830137010190565b600060443d1061162357604051600319913d83016004833e815167ffffffffffffffff918282113d6024840111176117a7578184019485519384116117af573d850101602084870101116117a757506116239291016020019061156b565b949350505050565b50949350505050565b906001600160a01b039182600091168152602092600484526040808320548015801561188c575b611872578391959352600383528481208551936117fb8561154f565b60ff82548181161515875260081c161515818601526001968783019381519889848b958854928381520197845280842093905b82821061185a57505050505061184882600295038361156b565b85015201541660608201525115159190565b84548952978801978c9650938301939083019061182e565b50519350611881905083611501565b808352803681379190565b508084526003865260ff8285205460081c16156117df56fea26469706673582212201058d75c274efecf316b7c037f073ae927e8e6b82db6d382b4cba448588ddbd564736f6c63430008140033",
  "linkReferences": {},
  "deployedLinkReferences": {}
}