{
  "_format": "hh-sol-artifact-1",
  "contractName": "AltarOfAscensionVRF",
  "sourceName": "contracts/current/core/AltarOfAscension.sol",
  "abi": [
    {
      "inputs": [
        {
          "internalType": "address",
          "name": "_initialOwner",
          "type": "address"
        }
      ],
      "stateMutability": "nonpayable",
      "type": "constructor"
    },
    {
      "inputs": [],
      "name": "EnforcedPause",
      "type": "error"
    },
    {
      "inputs": [],
      "name": "ExpectedPause",
      "type": "error"
    },
    {
      "inputs": [
        {
          "internalType": "address",
          "name": "owner",
          "type": "address"
        }
      ],
      "name": "OwnableInvalidOwner",
      "type": "error"
    },
    {
      "inputs": [
        {
          "internalType": "address",
          "name": "account",
          "type": "address"
        }
      ],
      "name": "OwnableUnauthorizedAccount",
      "type": "error"
    },
    {
      "inputs": [],
      "name": "ReentrancyGuardReentrantCall",
      "type": "error"
    },
    {
      "anonymous": false,
      "inputs": [
        {
          "indexed": true,
          "internalType": "address",
          "name": "player",
          "type": "address"
        },
        {
          "indexed": false,
          "internalType": "uint8",
          "name": "bonusRate",
          "type": "uint8"
        }
      ],
      "name": "AdditionalVIPBonusSet",
      "type": "event"
    },
    {
      "anonymous": false,
      "inputs": [
        {
          "indexed": true,
          "internalType": "address",
          "name": "previousOwner",
          "type": "address"
        },
        {
          "indexed": true,
          "internalType": "address",
          "name": "newOwner",
          "type": "address"
        }
      ],
      "name": "OwnershipTransferred",
      "type": "event"
    },
    {
      "anonymous": false,
      "inputs": [
        {
          "indexed": false,
          "internalType": "address",
          "name": "account",
          "type": "address"
        }
      ],
      "name": "Paused",
      "type": "event"
    },
    {
      "anonymous": false,
      "inputs": [
        {
          "indexed": true,
          "internalType": "address",
          "name": "player",
          "type": "address"
        },
        {
          "indexed": false,
          "internalType": "uint256",
          "name": "totalAttempts",
          "type": "uint256"
        },
        {
          "indexed": false,
          "internalType": "uint256",
          "name": "totalBurned",
          "type": "uint256"
        },
        {
          "indexed": false,
          "internalType": "uint256",
          "name": "totalMinted",
          "type": "uint256"
        }
      ],
      "name": "PlayerStatsUpdated",
      "type": "event"
    },
    {
      "anonymous": false,
      "inputs": [
        {
          "indexed": false,
          "internalType": "address",
          "name": "account",
          "type": "address"
        }
      ],
      "name": "Unpaused",
      "type": "event"
    },
    {
      "anonymous": false,
      "inputs": [
        {
          "indexed": true,
          "internalType": "address",
          "name": "player",
          "type": "address"
        },
        {
          "indexed": true,
          "internalType": "address",
          "name": "tokenContract",
          "type": "address"
        },
        {
          "indexed": false,
          "internalType": "uint8",
          "name": "baseRarity",
          "type": "uint8"
        },
        {
          "indexed": false,
          "internalType": "uint8",
          "name": "targetRarity",
          "type": "uint8"
        },
        {
          "indexed": false,
          "internalType": "uint256[]",
          "name": "burnedTokenIds",
          "type": "uint256[]"
        },
        {
          "indexed": false,
          "internalType": "uint256[]",
          "name": "mintedTokenIds",
          "type": "uint256[]"
        },
        {
          "indexed": false,
          "internalType": "uint8",
          "name": "outcome",
          "type": "uint8"
        },
        {
          "indexed": false,
          "internalType": "uint256",
          "name": "fee",
          "type": "uint256"
        },
        {
          "indexed": false,
          "internalType": "uint8",
          "name": "vipLevel",
          "type": "uint8"
        },
        {
          "indexed": false,
          "internalType": "uint8",
          "name": "totalVipBonus",
          "type": "uint8"
        }
      ],
      "name": "UpgradeAttempted",
      "type": "event"
    },
    {
      "anonymous": false,
      "inputs": [
        {
          "indexed": true,
          "internalType": "address",
          "name": "player",
          "type": "address"
        },
        {
          "indexed": false,
          "internalType": "address",
          "name": "tokenContract",
          "type": "address"
        },
        {
          "indexed": false,
          "internalType": "uint8",
          "name": "baseRarity",
          "type": "uint8"
        },
        {
          "indexed": false,
          "internalType": "uint256[]",
          "name": "burnedTokenIds",
          "type": "uint256[]"
        }
      ],
      "name": "UpgradeRequested",
      "type": "event"
    },
    {
      "anonymous": false,
      "inputs": [
        {
          "indexed": true,
          "internalType": "address",
          "name": "player",
          "type": "address"
        },
        {
          "indexed": false,
          "internalType": "uint8",
          "name": "outcome",
          "type": "uint8"
        },
        {
          "indexed": false,
          "internalType": "uint8",
          "name": "targetRarity",
          "type": "uint8"
        }
      ],
      "name": "UpgradeRevealed",
      "type": "event"
    },
    {
      "anonymous": false,
      "inputs": [
        {
          "indexed": true,
          "internalType": "uint8",
          "name": "fromRarity",
          "type": "uint8"
        },
        {
          "components": [
            {
              "internalType": "uint8",
              "name": "materialsRequired",
              "type": "uint8"
            },
            {
              "internalType": "uint256",
              "name": "nativeFee",
              "type": "uint256"
            },
            {
              "internalType": "uint8",
              "name": "greatSuccessChance",
              "type": "uint8"
            },
            {
              "internalType": "uint8",
              "name": "successChance",
              "type": "uint8"
            },
            {
              "internalType": "uint8",
              "name": "partialFailChance",
              "type": "uint8"
            },
            {
              "internalType": "uint256",
              "name": "cooldownTime",
              "type": "uint256"
            },
            {
              "internalType": "bool",
              "name": "isActive",
              "type": "bool"
            }
          ],
          "indexed": false,
          "internalType": "struct AltarOfAscensionVRF.UpgradeRule",
          "name": "rule",
          "type": "tuple"
        }
      ],
      "name": "UpgradeRuleSet",
      "type": "event"
    },
    {
      "anonymous": false,
      "inputs": [
        {
          "indexed": true,
          "internalType": "address",
          "name": "vrfManager",
          "type": "address"
        }
      ],
      "name": "VRFManagerSet",
      "type": "event"
    },
    {
      "anonymous": false,
      "inputs": [
        {
          "indexed": true,
          "internalType": "uint256",
          "name": "requestId",
          "type": "uint256"
        },
        {
          "indexed": false,
          "internalType": "uint256",
          "name": "randomWordsCount",
          "type": "uint256"
        }
      ],
      "name": "VRFRequestFulfilled",
      "type": "event"
    },
    {
      "inputs": [],
      "name": "MAX_ADDITIONAL_BONUS",
      "outputs": [
        {
          "internalType": "uint8",
          "name": "",
          "type": "uint8"
        }
      ],
      "stateMutability": "view",
      "type": "function"
    },
    {
      "inputs": [],
      "name": "MAX_VIP_BONUS",
      "outputs": [
        {
          "internalType": "uint8",
          "name": "",
          "type": "uint8"
        }
      ],
      "stateMutability": "view",
      "type": "function"
    },
    {
      "inputs": [
        {
          "internalType": "address",
          "name": "",
          "type": "address"
        }
      ],
      "name": "activeUpgradeRequest",
      "outputs": [
        {
          "internalType": "uint256",
          "name": "",
          "type": "uint256"
        }
      ],
      "stateMutability": "view",
      "type": "function"
    },
    {
      "inputs": [
        {
          "internalType": "address",
          "name": "",
          "type": "address"
        }
      ],
      "name": "additionalVipBonusRate",
      "outputs": [
        {
          "internalType": "uint8",
          "name": "",
          "type": "uint8"
        }
      ],
      "stateMutability": "view",
      "type": "function"
    },
    {
      "inputs": [],
      "name": "dungeonCore",
      "outputs": [
        {
          "internalType": "contract IDungeonCore",
          "name": "",
          "type": "address"
        }
      ],
      "stateMutability": "view",
      "type": "function"
    },
    {
      "inputs": [
        {
          "internalType": "uint256[]",
          "name": "tokenIds",
          "type": "uint256[]"
        }
      ],
      "name": "emergencyUnlock",
      "outputs": [],
      "stateMutability": "nonpayable",
      "type": "function"
    },
    {
      "inputs": [
        {
          "internalType": "uint8",
          "name": "_baseRarity",
          "type": "uint8"
        }
      ],
      "name": "getUpgradeCost",
      "outputs": [
        {
          "internalType": "uint256",
          "name": "totalCost",
          "type": "uint256"
        }
      ],
      "stateMutability": "view",
      "type": "function"
    },
    {
      "inputs": [
        {
          "internalType": "address",
          "name": "_user",
          "type": "address"
        }
      ],
      "name": "getUserRequest",
      "outputs": [
        {
          "components": [
            {
              "internalType": "address",
              "name": "tokenContract",
              "type": "address"
            },
            {
              "internalType": "uint8",
              "name": "baseRarity",
              "type": "uint8"
            },
            {
              "internalType": "uint256[]",
              "name": "burnedTokenIds",
              "type": "uint256[]"
            },
            {
              "internalType": "bool",
              "name": "fulfilled",
              "type": "bool"
            },
            {
              "internalType": "uint256",
              "name": "payment",
              "type": "uint256"
            }
          ],
          "internalType": "struct AltarOfAscensionVRF.UpgradeRequest",
          "name": "",
          "type": "tuple"
        }
      ],
      "stateMutability": "view",
      "type": "function"
    },
    {
      "inputs": [],
      "name": "globalStats",
      "outputs": [
        {
          "internalType": "uint256",
          "name": "totalAttempts",
          "type": "uint256"
        },
        {
          "internalType": "uint256",
          "name": "totalBurned",
          "type": "uint256"
        },
        {
          "internalType": "uint256",
          "name": "totalMinted",
          "type": "uint256"
        },
        {
          "internalType": "uint256",
          "name": "totalFeesCollected",
          "type": "uint256"
        }
      ],
      "stateMutability": "view",
      "type": "function"
    },
    {
      "inputs": [],
      "name": "heroContract",
      "outputs": [
        {
          "internalType": "contract IHero",
          "name": "",
          "type": "address"
        }
      ],
      "stateMutability": "view",
      "type": "function"
    },
    {
      "inputs": [
        {
          "internalType": "address",
          "name": "",
          "type": "address"
        },
        {
          "internalType": "uint8",
          "name": "",
          "type": "uint8"
        }
      ],
      "name": "lastUpgradeTime",
      "outputs": [
        {
          "internalType": "uint256",
          "name": "",
          "type": "uint256"
        }
      ],
      "stateMutability": "view",
      "type": "function"
    },
    {
      "inputs": [
        {
          "internalType": "uint256",
          "name": "",
          "type": "uint256"
        }
      ],
      "name": "lockedTokens",
      "outputs": [
        {
          "internalType": "bool",
          "name": "",
          "type": "bool"
        }
      ],
      "stateMutability": "view",
      "type": "function"
    },
    {
      "inputs": [
        {
          "internalType": "uint256",
          "name": "requestId",
          "type": "uint256"
        },
        {
          "internalType": "uint256[]",
          "name": "randomWords",
          "type": "uint256[]"
        }
      ],
      "name": "onVRFFulfilled",
      "outputs": [],
      "stateMutability": "nonpayable",
      "type": "function"
    },
    {
      "inputs": [],
      "name": "owner",
      "outputs": [
        {
          "internalType": "address",
          "name": "",
          "type": "address"
        }
      ],
      "stateMutability": "view",
      "type": "function"
    },
    {
      "inputs": [],
      "name": "pause",
      "outputs": [],
      "stateMutability": "nonpayable",
      "type": "function"
    },
    {
      "inputs": [],
      "name": "paused",
      "outputs": [
        {
          "internalType": "bool",
          "name": "",
          "type": "bool"
        }
      ],
      "stateMutability": "view",
      "type": "function"
    },
    {
      "inputs": [
        {
          "internalType": "address",
          "name": "",
          "type": "address"
        }
      ],
      "name": "playerStats",
      "outputs": [
        {
          "internalType": "uint256",
          "name": "totalAttempts",
          "type": "uint256"
        },
        {
          "internalType": "uint256",
          "name": "totalBurned",
          "type": "uint256"
        },
        {
          "internalType": "uint256",
          "name": "totalMinted",
          "type": "uint256"
        },
        {
          "internalType": "uint256",
          "name": "totalFeesCollected",
          "type": "uint256"
        }
      ],
      "stateMutability": "view",
      "type": "function"
    },
    {
      "inputs": [],
      "name": "relicContract",
      "outputs": [
        {
          "internalType": "contract IRelic",
          "name": "",
          "type": "address"
        }
      ],
      "stateMutability": "view",
      "type": "function"
    },
    {
      "inputs": [],
      "name": "renounceOwnership",
      "outputs": [],
      "stateMutability": "nonpayable",
      "type": "function"
    },
    {
      "inputs": [
        {
          "internalType": "uint256",
          "name": "",
          "type": "uint256"
        }
      ],
      "name": "requestIdToUser",
      "outputs": [
        {
          "internalType": "address",
          "name": "",
          "type": "address"
        }
      ],
      "stateMutability": "view",
      "type": "function"
    },
    {
      "inputs": [
        {
          "internalType": "address",
          "name": "_player",
          "type": "address"
        },
        {
          "internalType": "uint8",
          "name": "_bonusRate",
          "type": "uint8"
        }
      ],
      "name": "setAdditionalVIPBonus",
      "outputs": [],
      "stateMutability": "nonpayable",
      "type": "function"
    },
    {
      "inputs": [
        {
          "internalType": "address",
          "name": "_address",
          "type": "address"
        }
      ],
      "name": "setDungeonCore",
      "outputs": [],
      "stateMutability": "nonpayable",
      "type": "function"
    },
    {
      "inputs": [
        {
          "internalType": "uint8",
          "name": "_fromRarity",
          "type": "uint8"
        },
        {
          "components": [
            {
              "internalType": "uint8",
              "name": "materialsRequired",
              "type": "uint8"
            },
            {
              "internalType": "uint256",
              "name": "nativeFee",
              "type": "uint256"
            },
            {
              "internalType": "uint8",
              "name": "greatSuccessChance",
              "type": "uint8"
            },
            {
              "internalType": "uint8",
              "name": "successChance",
              "type": "uint8"
            },
            {
              "internalType": "uint8",
              "name": "partialFailChance",
              "type": "uint8"
            },
            {
              "internalType": "uint256",
              "name": "cooldownTime",
              "type": "uint256"
            },
            {
              "internalType": "bool",
              "name": "isActive",
              "type": "bool"
            }
          ],
          "internalType": "struct AltarOfAscensionVRF.UpgradeRule",
          "name": "_rule",
          "type": "tuple"
        }
      ],
      "name": "setUpgradeRule",
      "outputs": [],
      "stateMutability": "nonpayable",
      "type": "function"
    },
    {
      "inputs": [
        {
          "internalType": "address",
          "name": "_vrfManager",
          "type": "address"
        }
      ],
      "name": "setVRFManager",
      "outputs": [],
      "stateMutability": "nonpayable",
      "type": "function"
    },
    {
      "inputs": [
        {
          "internalType": "address",
          "name": "newOwner",
          "type": "address"
        }
      ],
      "name": "transferOwnership",
      "outputs": [],
      "stateMutability": "nonpayable",
      "type": "function"
    },
    {
      "inputs": [],
      "name": "unpause",
      "outputs": [],
      "stateMutability": "nonpayable",
      "type": "function"
    },
    {
      "inputs": [
        {
          "internalType": "address",
          "name": "_tokenContract",
          "type": "address"
        },
        {
          "internalType": "uint256[]",
          "name": "_tokenIds",
          "type": "uint256[]"
        }
      ],
      "name": "upgradeNFTs",
      "outputs": [],
      "stateMutability": "payable",
      "type": "function"
    },
    {
      "inputs": [
        {
          "internalType": "uint8",
          "name": "",
          "type": "uint8"
        }
      ],
      "name": "upgradeRules",
      "outputs": [
        {
          "internalType": "uint8",
          "name": "materialsRequired",
          "type": "uint8"
        },
        {
          "internalType": "uint256",
          "name": "nativeFee",
          "type": "uint256"
        },
        {
          "internalType": "uint8",
          "name": "greatSuccessChance",
          "type": "uint8"
        },
        {
          "internalType": "uint8",
          "name": "successChance",
          "type": "uint8"
        },
        {
          "internalType": "uint8",
          "name": "partialFailChance",
          "type": "uint8"
        },
        {
          "internalType": "uint256",
          "name": "cooldownTime",
          "type": "uint256"
        },
        {
          "internalType": "bool",
          "name": "isActive",
          "type": "bool"
        }
      ],
      "stateMutability": "view",
      "type": "function"
    },
    {
      "inputs": [
        {
          "internalType": "address",
          "name": "",
          "type": "address"
        }
      ],
      "name": "userRequests",
      "outputs": [
        {
          "internalType": "address",
          "name": "tokenContract",
          "type": "address"
        },
        {
          "internalType": "uint8",
          "name": "baseRarity",
          "type": "uint8"
        },
        {
          "internalType": "bool",
          "name": "fulfilled",
          "type": "bool"
        },
        {
          "internalType": "uint256",
          "name": "payment",
          "type": "uint256"
        }
      ],
      "stateMutability": "view",
      "type": "function"
    },
    {
      "inputs": [],
      "name": "vrfManager",
      "outputs": [
        {
          "internalType": "address",
          "name": "",
          "type": "address"
        }
      ],
      "stateMutability": "view",
      "type": "function"
    },
    {
      "inputs": [],
      "name": "withdrawBNB",
      "outputs": [],
      "stateMutability": "nonpayable",
      "type": "function"
    },
    {
      "stateMutability": "payable",
      "type": "receive"
    }
  ],
  "bytecode": "0x608034620003ad57601f62002de338819003918201601f19168301916001600160401b03831184841017620003b257808492602094604052833981010312620003ad57516001600160a01b0380821691829003620003ad57811562000394576000548260018060a01b0319821617600055167f8be0079c531659141344cd1fd0a4f28419497f9722a3daafe3b4186f6b6457e0600080a360018055620000a4620003c8565b600581526611c37937e08000602082015260086040820152604d6060820152600d6080820152600a60a0820152600160c08201526001600052600e60205260c06004604060002060ff84511660ff198254161781556020840151600182015560ff60408501511660028201549061ff00606087015160081b169062ff0000608088015160101b169262ffffff1916171717600282015560a0840151600382015501910151151560ff8019835416911617905562000160620003c8565b60048152662386f26fc100006020820152600660408201526045606082015260146080820152600a60a0820152600160c08201526002600052600e60205260c06004604060002060ff84511660ff19825416178155602084015160018201556002810160ff60408601511681549061ff00606088015160081b169062ff0000608089015160101b169262ffffff1916171717905560a0840151600382015501910151151560ff801983541691161790556200021a620003c8565b6003815266470de4df8200006020820152600460408201526029606082015260286080820152600a60a0820152600160c08201526003600052600e60205260c06004604060002060ff84511660ff19825416178155602084015160018201556002810160ff60408601511681549061ff00606088015160081b169062ff0000608089015160101b169262ffffff1916171717905560a0840151600382015501910151151560ff80198354169116179055620002d4620003c8565b6002815266b1a2bc2ec500006020820152600360408201526016606082015260326080820152600a60a0820152600160c08201526004600052600e60205260c06004604060002060ff84511660ff19825416178155602084015160018201556002810160ff60408601511681549061ff00606088015160081b169062ff0000608089015160101b169262ffffff1916171717905560a0840151600382015501910151151560ff801983541691161790556040516129fa9081620003e98239f35b604051631e4fbdf760e01b815260006004820152602490fd5b600080fd5b634e487b7160e01b600052604160045260246000fd5b6040519060e082016001600160401b03811183821017620003b25760405256fe60406080815260049081361015610020575b5050361561001e57600080fd5b005b600090813560e01c9283630b5fbf4f14610ea35783630b656b4714610de05783630daf999a14610db95783631d111d1314610cf25783631d2319bf14610cb957836324a342d714610c3e5783632a32e8d414610c015783633f4ba83a14610b805783635bb9d7c914610b0c5783635c975abb14610ae957836367cfab5814610abf5783636ab1b29b146109465783636e438861146108fd578363715018a6146108a45783637a33eabc146108405783638456cb59146107e65783638da5cb5b146107c1578363ac0cc6e41461078b578363c1b39a3e14610764578363cdafbbb6146106fe578363d45d929214610657578363d5654ae714610631578363d6042eb81461051b578363dc7d73bb146104ec578363dcec3294146104c1578363e24ef97614610187578363e4dc4efc1461047c578363e8601c6614610416578363f1a550bd1461022e578363f2fde38b1461018c5750505063fa9cefb814610187573880610011565b61102e565b3461022a57602036600319011261022a576101a5610ef4565b906101ae61104a565b6001600160a01b038092169283156101fb5750508254826001600160a01b03198216178455167f8be0079c531659141344cd1fd0a4f28419497f9722a3daafe3b4186f6b6457e08380a380f35b908460249251917f1e4fbdf7000000000000000000000000000000000000000000000000000000008352820152fd5b8280fd5b3461022a5761010036600319011261022a57610248610ecf565b60e03660231901126104125761025c61104a565b60ff80911692600184101580610408575b610276906127f7565b60648261029d610295610287612994565b61028f6129a4565b90611e49565b61028f6129b4565b16116103c657838552600e602052808520926024358381168091036103ba5760ff198554161784556044359182600186015560028501846102dc612994565b1681549061ff006102eb6129a4565b60081b169062ff00006102fc6129b4565b60101b169262ffffff1916171717905560c4359485600382015560e435801515938482036103c25761033a92019060ff801983541691151516179055565b80519284610346610ee4565b1684526020840152606435908482168092036103be578301526084358381168091036103ba57606083015260a4359283168093036103b6577fdd3e24032c64538bc58e54b229496277fe66257702d4ddc3f1eb09f0a03d7b2b9360e093608084015260a083015260c0820152a280f35b8580fd5b8680fd5b8780fd5b8980fd5b5162461bcd60e51b8152602081840152601660248201527f416c7461723a20496e76616c6964206368616e636573000000000000000000006044820152606490fd5b508284111561026d565b8380fd5b50346104785760203660031901126104785790816080926001600160a01b03928361043f610ef4565b1681526011602052209081549160ff600381600284015416920154938351958116865260a01c1660208501521515908301526060820152f35b5080fd5b5090346104be57806003193601126104be5750600a54600b54600c54600d549351928352602083019190915260408201526060810191909152608090f35b0390f35b80fd5b3461022a57602036600319011261022a578160209360ff923581526007855220541690519015158152f35b3461022a57602036600319011261022a57816020936001600160a01b0392358152600885522054169051908152f35b5090346104be57602090816003193601126104be5790610539610ef4565b91806080855161054881610f0a565b828152828582015260608782015282606082015201526001600160a01b0380931681526011825283812084519161057e83610f0a565b815492858416815260ff8582019460a01c16845286516001976105ae826105a7818c8901611db8565b0383610f88565b80830191825260ff6003816002880154169660608601971515885201549660808501978852825199898b5260c08b01955116898b0152511690880152519460a0606088015285518092528060e088019601925b82811061061e57845115156080890152855160a089015287870388f35b8351875295810195928101928801610601565b91346104be57806003193601126104be57506001600160a01b0360209254169051908152f35b9250806003193601126104785761066c610ef4565b6024359367ffffffffffffffff928386116106fa57366023870112156106fa57858201359384116106fa573660248560051b880101116106fa576106ae611bc5565b6002600154146106d457505060246106cd9394600260015501906110e6565b6001805580f35b517f3ee5aeb5000000000000000000000000000000000000000000000000000000008152fd5b8480fd5b50346104785760203660031901126104785780916001600160a01b03610722610ef4565b168152600960205220906104ba825491600184015493600360028201549101549151948594859094939260609260808301968352602083015260408201520152565b50346104785781600319360112610478576020906001600160a01b03600554169051908152f35b503461047857602036600319011261047857806020926001600160a01b036107b1610ef4565b1681526006845220549051908152f35b50346104785781600319360112610478576001600160a01b0360209254169051908152f35b503461047857816003193601126104785760207f62e78cea01bee320cd4e420270b5ea74000d11b0c9f74754ebdbfc544b05a2589161082361104a565b61082b611bc5565b600160ff19600254161760025551338152a180f35b82346104be5760203660031901126104be576001600160a01b03610862610ef4565b61086a61104a565b16806001600160a01b031960055416176005557feda44c694e75c8161562f6179238b37a8daa291b6b2229613ed903ed92ab2d3d8280a280f35b82346104be57806003193601126104be576108bd61104a565b806001600160a01b0381546001600160a01b031981168355167f8be0079c531659141344cd1fd0a4f28419497f9722a3daafe3b4186f6b6457e08280a380f35b50346104785780600319360112610478578060209261091a610ef4565b6001600160a01b0361092a610ee4565b91168252600f855260ff83832091168252845220549051908152f35b903461022a576020908160031936011261041257610962610ef4565b61096a61104a565b7fffffffffffffffffffffff0000000000000000000000000000000000000000ff74ffffffffffffffffffffffffffffffffffffffff006002549260081b1691161790816002556001600160a01b03809260081c16928151937f8db7d31200000000000000000000000000000000000000000000000000000000855281858781845afa948515610ab557908692918896610a94575b508190856001600160a01b031997168760035416176003558451938480927f532c50450000000000000000000000000000000000000000000000000000000082525afa928315610a8b57508692610a5e575b5050169082541617905580f35b610a7d9250803d10610a84575b610a758183610f88565b810190611d99565b8580610a51565b503d610a6b565b513d88823e3d90fd5b82919650610aae90823d8411610a8457610a758183610f88565b95906109ff565b83513d89823e3d90fd5b50346104785781600319360112610478576020906001600160a01b0360025460081c169051908152f35b503461047857816003193601126104785760209060ff6002541690519015158152f35b903461022a57602091826003193601126104125780359067ffffffffffffffff82116106fa57610b3e91369101611010565b91610b4761104a565b835b8351811015610b7c5780610b60610b779286611c08565b51865260078352838620805460ff191690556110b1565b610b49565b8480f35b3461022a578260031936011261022a57610b9861104a565b6002549060ff821615610bda575060ff1916600255513381527f5db9ee0a495bf2e6ff9c91a7834c1ba4fdd244a5e8aa4e537bd38aeae4b073aa90602090a180f35b82517f8dfc202b000000000000000000000000000000000000000000000000000000008152fd5b903461022a57366003190112610478576024359067ffffffffffffffff821161022a57610c34610c3b9236908301611010565b9035611c34565b80f35b903461022a57602036600319011261022a5760e0928160ff9182610c60610ecf565b168152600e6020522090808254169360018301549382600285015492600386015495015416948151968752602087015282821690860152818160081c16606086015260101c16608084015260a0830152151560c0820152f35b50346104785760203660031901126104785760ff816020936001600160a01b03610ce1610ef4565b168152601085522054169051908152f35b903461022a578260031936011261022a57610d0b61104a565b828080806001600160a01b0381541647905af13d15610db4573d67ffffffffffffffff8111610da157825190610d4b601f8201601f191660200183610f88565b81528460203d92013e5b15610d5e578280f35b906020606492519162461bcd60e51b8352820152601d60248201527f416c7461723a204e6174697665207769746864726177206661696c65640000006044820152fd5b602485604186634e487b7160e01b835252fd5b610d55565b50346104785781600319360112610478576020906001600160a01b03600354169051908152f35b3461022a578160031936011261022a57610df8610ef4565b60ff610e02610ee4565b610e0a61104a565b169160148311610e6057507fdfd2e01092b866f2fc03a989021ebf3e0aab55f650ff1955d1183b38ca7df09b916001600160a01b036020921693848652601083528086208260ff1982541617905551908152a280f35b606490602085519162461bcd60e51b8352820152601560248201527f416c7461723a20426f6e757320746f6f206869676800000000000000000000006044820152fd5b503461047857602036600319011261047857602090610ec8610ec3610ecf565b612927565b9051908152f35b6004359060ff82168203610edf57565b600080fd5b6024359060ff82168203610edf57565b600435906001600160a01b0382168203610edf57565b60a0810190811067ffffffffffffffff821117610f2657604052565b634e487b7160e01b600052604160045260246000fd5b60e0810190811067ffffffffffffffff821117610f2657604052565b67ffffffffffffffff8111610f2657604052565b6020810190811067ffffffffffffffff821117610f2657604052565b90601f8019910116810190811067ffffffffffffffff821117610f2657604052565b67ffffffffffffffff8111610f265760051b60200190565b9291610fcd82610faa565b91610fdb6040519384610f88565b829481845260208094019160051b8101928311610edf57905b8282106110015750505050565b81358152908301908301610ff4565b9080601f83011215610edf5781602061102b93359101610fc2565b90565b34610edf576000366003190112610edf57602060405160148152f35b6001600160a01b0360005416330361105e57565b60246040517f118cdaa7000000000000000000000000000000000000000000000000000000008152336004820152fd5b9190820180921161109b57565b634e487b7160e01b600052601160045260246000fd5b600019811461109b5760010190565b91908110156110d05760051b0190565b634e487b7160e01b600052603260045260246000fd5b9291909233600052601160205260406000206001600160a01b0381541615908115611bb6575b5015611b7257336000526006602052604060002054611b2e576001600160a01b036003541693846001600160a01b03831614808015611b11575b15611acd578315611a89578015611a2a57604051631a9b371b60e21b8152823560048201526040816024818a5afa90811561163f57600091611a0a575b50955b60ff87161515806119fd575b61119b906127f7565b60005b85811061179f5750505060ff8516600052600e60205260406000206040516111c581610f3c565b60ff82541681526001820154602082015260ff60028301548181166040840152818160081c16606084015260101c16608082015260ff600460038401549360a0840194855201541615801560c083015261175b5760ff81511615611717575160ff1684036116d3576112579033600052600f602052604060002060ff881660005260205260406000205490519061108e565b421061168f5761126685612927565b340361164b5733600052600f602052604060002060ff8616600052602052426040600020556001600160a01b0360055416806112e057606460405162461bcd60e51b815260206004820152602060248201527f416c7461723a2056524620726571756972656420666f722075706772616465736044820152fd5b6040513360601b60208201526bffffffffffffffffffffffff198460601b1660348201527fff000000000000000000000000000000000000000000000000000000000000008760f81b1660488201527f07ffffffffffffffffffffffffffffffffffffffffffffffffffffffffffffff8511610edf5760009160846020928760051b8660498301376113826049828a60051b8101036029810184520182610f88565b83815191012060405194859384927f86ac73f6000000000000000000000000000000000000000000000000000000008452336004850152600160248501526001604485015260648401525af190811561163f5760009161160d575b503360005260066020528060406000205560005260086020526040600020336001600160a01b031982541617905560005b8381106115db57506040519461142386610f0a565b6001600160a01b03831686526020860160ff82168152611444368685610fc2565b60408801908152600060608901523460808901523360005260116020526040600020916001600160a01b038951167fffffffffffffffffffffff00000000000000000000000000000000000000000074ff00000000000000000000000000000000000000008554935160a01b16921617178255519687519767ffffffffffffffff8911610f2657680100000000000000008911610f26576001830154896001850155808a106115af575b50602001976001830160005260206000209860005b82811061159b575050507f2a04b1128e055e7ea0ba756b319cc73f07017e0a0fbad24bff336cfb8c5339269596975090600360808361155a606060ff979601511515600286019060ff801983541691151516179055565b01519101556001600160a01b0360405194168452166020830152606060408301528360608301528360051b906080830137608081339460051b8101030190a2565b60019060208351930192818d015501611503565b6001840160005289602060002091820191015b8181106115cf57506114ee565b600081556001016115c2565b806115ea6116089286856110c0565b3560005260076020526040600020600160ff198254161790556110b1565b61140e565b90506020813d602011611637575b8161162860209383610f88565b81010312610edf5751386113dd565b3d915061161b565b6040513d6000823e3d90fd5b606460405162461bcd60e51b815260206004820152601d60248201527f416c7461723a204578616374207061796d656e742072657175697265640000006044820152fd5b606460405162461bcd60e51b815260206004820152601f60248201527f416c7461723a205374696c6c20696e20636f6f6c646f776e20706572696f64006044820152fd5b606460405162461bcd60e51b815260206004820152601f60248201527f416c7461723a20496e636f7272656374206d6174657269616c20636f756e74006044820152fd5b606460405162461bcd60e51b815260206004820152601360248201527f416c7461723a20496e76616c69642072756c65000000000000000000000000006044820152fd5b606460405162461bcd60e51b815260206004820152601760248201527f416c7461723a20557067726164652064697361626c65640000000000000000006044820152fd5b6117aa8187866110c0565b35604051906331a9108f60e11b825260048201526020816024816001600160a01b038a165afa90811561163f576000916119de575b506001600160a01b033391160361199a576117fb8187866110c0565b35600052600760205260ff604060002054166119565782156118de576118228187866110c0565b3560405190631a9b371b60e21b82526004820152604081602481865afa90811561163f576000916118ae575b505b60ff808a1691160361186a57611865906110b1565b61119e565b606460405162461bcd60e51b815260206004820152601660248201527f416c7461723a20526172697479206d69736d61746368000000000000000000006044820152fd5b6118d0915060403d6040116118d7575b6118c88183610f88565b8101906127da565b503861184e565b503d6118be565b6001600160a01b036004541660406118f78389886110c0565b356024825180948193635fdfe65960e11b835260048301525afa90811561163f57600091611926575b50611850565b611948915060403d60401161194f575b6119408183610f88565b8101906127b9565b5038611920565b503d611936565b606460405162461bcd60e51b815260206004820152601360248201527f416c7461723a20546f6b656e206c6f636b6564000000000000000000000000006044820152fd5b606460405162461bcd60e51b815260206004820152601060248201527f416c7461723a204e6f74206f776e6572000000000000000000000000000000006044820152fd5b6119f7915060203d602011610a8457610a758183610f88565b386117df565b50600560ff881610611192565b611a23915060403d6040116118d7576118c88183610f88565b5038611183565b602460406001600160a01b0360045416815192838092635fdfe65960e11b8252873560048301525afa90811561163f57600091611a69575b5095611186565b611a82915060403d60401161194f576119408183610f88565b5038611a62565b606460405162461bcd60e51b815260206004820152601060248201527f416c7461723a204e6f20746f6b656e73000000000000000000000000000000006044820152fd5b606460405162461bcd60e51b815260206004820152601760248201527f416c7461723a20496e76616c696420636f6e74726163740000000000000000006044820152fd5b506001600160a01b03600454166001600160a01b03841614611146565b606460405162461bcd60e51b815260206004820152601d60248201527f416c7461723a205265717565737420616c7265616479206163746976650000006044820152fd5b606460405162461bcd60e51b815260206004820152601f60248201527f416c7461723a2050726576696f757320757067726164652070656e64696e67006044820152fd5b60ff915060020154163861110c565b60ff60025416611bd157565b60046040517fd93c0665000000000000000000000000000000000000000000000000000000008152fd5b8051156110d05760200190565b80518210156110d05760209160051b010190565b80548210156110d05760005260206000200190600090565b6005546001600160a01b0393929084163303611d9357805115611d9357600093828552602091600883526040918287205416958615611d8a57868152601184528281209660ff600289015416611d8057611c98611c9084611bfb565b518983611e5d565b808252600685528382208290558582526008855283822080546001600160a01b03191690556001978890810183825b611d41575b5050508152601184528281209681885580880180549083815581611d25575b5050506003878260027f039e13e1070272831a469fee81cadd186792456052d1c2b4ab06cdc1d1fb3be698999a01550155519051908152a2565b8352858320908101905b81811015611ceb578381558201611d2f565b8154811015611d7b5780611d58611d759284611c1c565b90549060031b1c86526007895287862060ff1981541690556110b1565b82611cc7565b611ccc565b5050505050509050565b50505050509050565b50509050565b90816020910312610edf57516001600160a01b0381168103610edf5790565b90815480825260208092019260005281600020916000905b828210611dde575050505090565b835485529384019360019384019390910190611dd0565b90815180825260208080930193019160005b828110611e15575050505090565b835185529381019392810192600101611e07565b519060ff82168203610edf57565b60ff60019116019060ff821161109b57565b9060ff8091169116019060ff821161109b57565b60028201805460ff191660011790559092909160005b600185018054821015611fb4578554906001600160a01b039081831692611e9a8583611c1c565b9054926040918251946331a9108f60e11b8652600391821b1c600486015260209485816024818b5afa908115611fa957600091611f8c575b50868c169687911603611ef45750505050505050611eef906110b1565b611e73565b8294969a507f4276a3d1ee577aeb60c126af05909a6e0718cacf5bd6b54181d74aa86db75dd198506000975090611f6091611f6e94969a9c935193611f3885610f6c565b898552015494805198899860ff60a0998a1c168a528901526101008091890152870190611db8565b908582036060870152611df5565b9160006080850152830152600060c0830152600060e08301520390a3565b611fa39150863d8811610a8457610a758183610f88565b38611ed2565b84513d6000823e3d90fd5b5050909280549160ff8360a01c16600052600e60205260406000209260ff600460405195611fe187610f3c565b8281541687526001810154602088015282600282015481811660408a0152818160081c1660608a015260101c166080880152600381015460a0880152015416151560c0850152600093600460206001600160a01b0360025460081c16604051928380927f76ed36710000000000000000000000000000000000000000000000000000000082525afa908115612618576001600160a01b039160209188916125fb575b506024604051809481937f32854c13000000000000000000000000000000000000000000000000000000008352818d166004840152165afa8691816125bf575b506125b7575b506001600160a01b03861660005260106020526120ee60ff6040600020541686611e49565b92601460ff8516116125ae575b61211060ff60608401511660ff86169061108e565b60648111156125a6575060645b60009260ff6040820151168060648506106000146123e65750505050505060039282549160ff8360a01c169261218861215585611e37565b946121836040516121748161216d8160018d01611db8565b0382610f88565b6001600160a01b038516612842565b611e37565b906040519182606081011067ffffffffffffffff606085011117610f26576001600160a01b036121e392606085016040526002855260403660208701376121d2838383168d612623565b6121db86611bfb565b521689612623565b8151600110156110d0576040820152915b600185015483516003870154916001600160a01b038a16600052600960205260406000208054612223906110b1565b90556001600160a01b038a16600052600960205260406000206001018181549061224c9161108e565b90556001600160a01b038a1660005260096020526040600020600201828154906122759161108e565b90556001600160a01b038a16600052600960205260406000206003018381549061229e9161108e565b9055600a546122ac906110b1565b600a55600b54906122bc9161108e565b600b55600c54906122cc9161108e565b600c55600d54906122dc9161108e565b600d556001600160a01b038716600052600960205260406000208054906001810154906002015490604051928352602083015260408201526001600160a01b0388169060607fa59fa8b79115e096a83695b3285fad27bd9f0565a3e52f114745d15c9c7e748691a28454926003860154906040519687968660a01c60ff16885260ff1660208801526101008060408901528701906001019061237d91611db8565b868103606088015261238e91611df5565b9660ff16608086015260a085015260ff1660c084015260ff1660e08301526001600160a01b0316936001600160a01b031692037f4276a3d1ee577aeb60c126af05909a6e0718cacf5bd6b54181d74aa86db75dd191a3565b6123f28360ff92611e49565b1660648406101561248857505050505060029282549161244f60ff8460a01c166124486001600160a01b0361242683611e37565b96169161218360016124428a61216d6040518094819301611db8565b84612842565b9088612623565b604051906040820182811067ffffffffffffffff821117610f2657604052600182526020368184013761248182611bfb565b52916121f4565b6124ad8160ff60806124a36064968360408198015116611e49565b9201511690611e49565b169106101561255e57505060019282549160ff8360a01c16926040516124da8161216d8160018a01611db8565b6124ed816001600160a01b038416612842565b5160011c6124fa81610faa565b916125086040519384610f88565b818352601f1961251783610faa565b0136602085013760005b82811061253157505050916121f4565b61255990612549886001600160a01b0385168d612623565b6125538287611c08565b526110b1565b612521565b9390916125916000936001600160a01b036040519161258b836125848160018c01611db8565b0384610f88565b16612842565b60405161259d81610f6c565b838152916121f4565b60ff1661211d565b601493506120fb565b9450386120c9565b9091506020813d6020116125f3575b816125db60209383610f88565b810103126103ba576125ec90611e29565b90386120c3565b3d91506125ce565b6126129150823d8411610a8457610a758183610f88565b38612083565b6040513d88823e3d90fd5b9060646020926001600160a01b03928380600354169116146000146126d257600061264d8661272c565b84600354169060ff60405198899788967e2144f600000000000000000000000000000000000000000000000000000000885216600487015216602485015260448401525af190811561163f576000916126a4575090565b906020823d82116126ca575b816126bd60209383610f88565b810103126104be57505190565b3d91506126b0565b6000836004541660ff60405197889687957fc820c7f10000000000000000000000000000000000000000000000000000000087521660048601521680602485015260448401525af190811561163f576000916126a4575090565b60ff166001810361274a575060244206600f0180600f1161109b5790565b600281036127655750603342066032018060321161109b5790565b600381036127805750603342066064018060641161109b5790565b6004810361279b5750603342066096018060961161109b5790565b6005036127b4576038420660c8018060c81161109b5790565b60ff90565b9190826040910312610edf5761102b60206127d384611e29565b9301611e29565b9190826040910312610edf5760206127f183611e29565b92015190565b156127fe57565b606460405162461bcd60e51b815260206004820152601560248201527f416c7461723a20496e76616c69642072617269747900000000000000000000006044820152fd5b91909160005b8351811015611d93576001600160a01b03600381815416828516146000146128d65754166128768286611c08565b51813b15610edf5760008092602460409384519586938492636aef506960e01b845260048401525af19081156128cc5750906128b892916128bd575b506110b1565b612848565b6128c690610f58565b386128b2565b513d6000823e3d90fd5b50600490815416906128e88387611c08565b51823b15610edf5760009060246040938385519687948593636aef506960e01b85528401525af19081156128cc5750906128b892916128bd57506110b1565b60ff809116600052600e60205260406000209060c06040519161294983610f3c565b80845416835260046001850154948560208601528260028201548181166040880152818160081c16606088015260101c166080860152600381015460a0860152015416151591015290565b60643560ff81168103610edf5790565b60843560ff81168103610edf5790565b60a43560ff81168103610edf579056fea26469706673582212203b924e6c157297cfdc5ed5e2f0e8b70bb2eefb3bee1aa9b4b7abe35e888c40df64736f6c63430008140033",
  "linkReferences": {},
  "deployedLinkReferences": {}
}