{
  "_format": "hh-sol-artifact-1",
  "contractName": "DungeonMaster_StandardCallback",
  "sourceName": "contracts/current/core/DungeonMaster.sol",
  "abi": [
    {
      "inputs": [
        {
          "internalType": "address",
          "name": "_initialOwner",
          "type": "address"
        }
      ],
      "stateMutability": "nonpayable",
      "type": "constructor"
    },
    {
      "inputs": [],
      "name": "EnforcedPause",
      "type": "error"
    },
    {
      "inputs": [],
      "name": "ExpectedPause",
      "type": "error"
    },
    {
      "inputs": [
        {
          "internalType": "address",
          "name": "owner",
          "type": "address"
        }
      ],
      "name": "OwnableInvalidOwner",
      "type": "error"
    },
    {
      "inputs": [
        {
          "internalType": "address",
          "name": "account",
          "type": "address"
        }
      ],
      "name": "OwnableUnauthorizedAccount",
      "type": "error"
    },
    {
      "inputs": [],
      "name": "ReentrancyGuardReentrantCall",
      "type": "error"
    },
    {
      "inputs": [
        {
          "internalType": "address",
          "name": "token",
          "type": "address"
        }
      ],
      "name": "SafeERC20FailedOperation",
      "type": "error"
    },
    {
      "anonymous": false,
      "inputs": [
        {
          "indexed": true,
          "internalType": "address",
          "name": "newAddress",
          "type": "address"
        }
      ],
      "name": "DungeonCoreSet",
      "type": "event"
    },
    {
      "anonymous": false,
      "inputs": [
        {
          "indexed": true,
          "internalType": "uint256",
          "name": "dungeonId",
          "type": "uint256"
        },
        {
          "indexed": false,
          "internalType": "uint256",
          "name": "requiredPower",
          "type": "uint256"
        },
        {
          "indexed": false,
          "internalType": "uint256",
          "name": "rewardAmountUSD",
          "type": "uint256"
        },
        {
          "indexed": false,
          "internalType": "uint8",
          "name": "baseSuccessRate",
          "type": "uint8"
        }
      ],
      "name": "DungeonSet",
      "type": "event"
    },
    {
      "anonymous": false,
      "inputs": [
        {
          "indexed": true,
          "internalType": "address",
          "name": "newAddress",
          "type": "address"
        }
      ],
      "name": "DungeonStorageSet",
      "type": "event"
    },
    {
      "anonymous": false,
      "inputs": [
        {
          "indexed": true,
          "internalType": "address",
          "name": "player",
          "type": "address"
        },
        {
          "indexed": true,
          "internalType": "uint256",
          "name": "partyId",
          "type": "uint256"
        },
        {
          "indexed": false,
          "internalType": "bool",
          "name": "success",
          "type": "bool"
        },
        {
          "indexed": false,
          "internalType": "uint256",
          "name": "reward",
          "type": "uint256"
        },
        {
          "indexed": false,
          "internalType": "uint256",
          "name": "expGained",
          "type": "uint256"
        }
      ],
      "name": "ExpeditionFulfilled",
      "type": "event"
    },
    {
      "anonymous": false,
      "inputs": [
        {
          "indexed": true,
          "internalType": "address",
          "name": "player",
          "type": "address"
        },
        {
          "indexed": false,
          "internalType": "uint256",
          "name": "partyId",
          "type": "uint256"
        },
        {
          "indexed": false,
          "internalType": "uint256",
          "name": "dungeonId",
          "type": "uint256"
        }
      ],
      "name": "ExpeditionRequested",
      "type": "event"
    },
    {
      "anonymous": false,
      "inputs": [
        {
          "indexed": true,
          "internalType": "address",
          "name": "player",
          "type": "address"
        },
        {
          "indexed": false,
          "internalType": "uint256",
          "name": "partyId",
          "type": "uint256"
        },
        {
          "indexed": false,
          "internalType": "bool",
          "name": "success",
          "type": "bool"
        }
      ],
      "name": "ExpeditionRevealed",
      "type": "event"
    },
    {
      "anonymous": false,
      "inputs": [
        {
          "indexed": true,
          "internalType": "address",
          "name": "previousOwner",
          "type": "address"
        },
        {
          "indexed": true,
          "internalType": "address",
          "name": "newOwner",
          "type": "address"
        }
      ],
      "name": "OwnershipTransferred",
      "type": "event"
    },
    {
      "anonymous": false,
      "inputs": [
        {
          "indexed": false,
          "internalType": "address",
          "name": "account",
          "type": "address"
        }
      ],
      "name": "Paused",
      "type": "event"
    },
    {
      "anonymous": false,
      "inputs": [
        {
          "indexed": true,
          "internalType": "address",
          "name": "user",
          "type": "address"
        },
        {
          "indexed": true,
          "internalType": "address",
          "name": "proxy",
          "type": "address"
        }
      ],
      "name": "RevealedByProxy",
      "type": "event"
    },
    {
      "anonymous": false,
      "inputs": [
        {
          "indexed": true,
          "internalType": "address",
          "name": "user",
          "type": "address"
        },
        {
          "indexed": true,
          "internalType": "uint256",
          "name": "partyId",
          "type": "uint256"
        },
        {
          "indexed": false,
          "internalType": "uint256",
          "name": "amount",
          "type": "uint256"
        }
      ],
      "name": "RewardsBanked",
      "type": "event"
    },
    {
      "anonymous": false,
      "inputs": [
        {
          "indexed": true,
          "internalType": "address",
          "name": "newAddress",
          "type": "address"
        }
      ],
      "name": "SoulShardTokenSet",
      "type": "event"
    },
    {
      "anonymous": false,
      "inputs": [
        {
          "indexed": false,
          "internalType": "address",
          "name": "account",
          "type": "address"
        }
      ],
      "name": "Unpaused",
      "type": "event"
    },
    {
      "anonymous": false,
      "inputs": [
        {
          "indexed": true,
          "internalType": "address",
          "name": "vrfManager",
          "type": "address"
        }
      ],
      "name": "VRFManagerSet",
      "type": "event"
    },
    {
      "anonymous": false,
      "inputs": [
        {
          "indexed": true,
          "internalType": "uint256",
          "name": "requestId",
          "type": "uint256"
        },
        {
          "indexed": false,
          "internalType": "uint256",
          "name": "randomWordsCount",
          "type": "uint256"
        }
      ],
      "name": "VRFRequestFulfilled",
      "type": "event"
    },
    {
      "inputs": [],
      "name": "COOLDOWN_PERIOD",
      "outputs": [
        {
          "internalType": "uint256",
          "name": "",
          "type": "uint256"
        }
      ],
      "stateMutability": "view",
      "type": "function"
    },
    {
      "inputs": [
        {
          "internalType": "uint256",
          "name": "_partyId",
          "type": "uint256"
        }
      ],
      "name": "claimRewards",
      "outputs": [],
      "stateMutability": "view",
      "type": "function"
    },
    {
      "inputs": [],
      "name": "dungeonCore",
      "outputs": [
        {
          "internalType": "contract IDungeonCore",
          "name": "",
          "type": "address"
        }
      ],
      "stateMutability": "view",
      "type": "function"
    },
    {
      "inputs": [],
      "name": "dungeonStorage",
      "outputs": [
        {
          "internalType": "contract IDungeonStorage",
          "name": "",
          "type": "address"
        }
      ],
      "stateMutability": "view",
      "type": "function"
    },
    {
      "inputs": [],
      "name": "explorationFee",
      "outputs": [
        {
          "internalType": "uint256",
          "name": "",
          "type": "uint256"
        }
      ],
      "stateMutability": "view",
      "type": "function"
    },
    {
      "inputs": [
        {
          "internalType": "uint256",
          "name": "_dungeonId",
          "type": "uint256"
        }
      ],
      "name": "getDungeon",
      "outputs": [
        {
          "internalType": "uint256",
          "name": "requiredPower",
          "type": "uint256"
        },
        {
          "internalType": "uint256",
          "name": "rewardAmountUSD",
          "type": "uint256"
        },
        {
          "internalType": "uint8",
          "name": "baseSuccessRate",
          "type": "uint8"
        },
        {
          "internalType": "bool",
          "name": "isInitialized",
          "type": "bool"
        }
      ],
      "stateMutability": "view",
      "type": "function"
    },
    {
      "inputs": [],
      "name": "getExpeditionCost",
      "outputs": [
        {
          "internalType": "uint256",
          "name": "totalCost",
          "type": "uint256"
        },
        {
          "internalType": "uint256",
          "name": "explorationFeeAmount",
          "type": "uint256"
        },
        {
          "internalType": "uint256",
          "name": "vrfFeeAmount",
          "type": "uint256"
        }
      ],
      "stateMutability": "view",
      "type": "function"
    },
    {
      "inputs": [
        {
          "internalType": "uint256",
          "name": "_partyId",
          "type": "uint256"
        }
      ],
      "name": "getPartyStatus",
      "outputs": [
        {
          "internalType": "uint256",
          "name": "cooldownEndsAt",
          "type": "uint256"
        },
        {
          "internalType": "uint256",
          "name": "unclaimedRewards",
          "type": "uint256"
        }
      ],
      "stateMutability": "view",
      "type": "function"
    },
    {
      "inputs": [
        {
          "internalType": "address",
          "name": "_user",
          "type": "address"
        }
      ],
      "name": "getUserRequest",
      "outputs": [
        {
          "components": [
            {
              "internalType": "uint256",
              "name": "partyId",
              "type": "uint256"
            },
            {
              "internalType": "uint256",
              "name": "dungeonId",
              "type": "uint256"
            },
            {
              "internalType": "address",
              "name": "player",
              "type": "address"
            },
            {
              "internalType": "bool",
              "name": "fulfilled",
              "type": "bool"
            },
            {
              "internalType": "uint256",
              "name": "payment",
              "type": "uint256"
            }
          ],
          "internalType": "struct DungeonMaster_StandardCallback.ExpeditionRequest",
          "name": "",
          "type": "tuple"
        }
      ],
      "stateMutability": "view",
      "type": "function"
    },
    {
      "inputs": [],
      "name": "globalRewardMultiplier",
      "outputs": [
        {
          "internalType": "uint256",
          "name": "",
          "type": "uint256"
        }
      ],
      "stateMutability": "view",
      "type": "function"
    },
    {
      "inputs": [
        {
          "internalType": "uint256",
          "name": "requestId",
          "type": "uint256"
        },
        {
          "internalType": "uint256[]",
          "name": "randomWords",
          "type": "uint256[]"
        }
      ],
      "name": "onVRFFulfilled",
      "outputs": [],
      "stateMutability": "nonpayable",
      "type": "function"
    },
    {
      "inputs": [],
      "name": "owner",
      "outputs": [
        {
          "internalType": "address",
          "name": "",
          "type": "address"
        }
      ],
      "stateMutability": "view",
      "type": "function"
    },
    {
      "inputs": [],
      "name": "pause",
      "outputs": [],
      "stateMutability": "nonpayable",
      "type": "function"
    },
    {
      "inputs": [],
      "name": "paused",
      "outputs": [
        {
          "internalType": "bool",
          "name": "",
          "type": "bool"
        }
      ],
      "stateMutability": "view",
      "type": "function"
    },
    {
      "inputs": [],
      "name": "renounceOwnership",
      "outputs": [],
      "stateMutability": "nonpayable",
      "type": "function"
    },
    {
      "inputs": [
        {
          "internalType": "uint256",
          "name": "_partyId",
          "type": "uint256"
        },
        {
          "internalType": "uint256",
          "name": "_dungeonId",
          "type": "uint256"
        }
      ],
      "name": "requestExpedition",
      "outputs": [],
      "stateMutability": "payable",
      "type": "function"
    },
    {
      "inputs": [
        {
          "internalType": "uint256",
          "name": "",
          "type": "uint256"
        }
      ],
      "name": "requestIdToUser",
      "outputs": [
        {
          "internalType": "address",
          "name": "",
          "type": "address"
        }
      ],
      "stateMutability": "view",
      "type": "function"
    },
    {
      "inputs": [
        {
          "internalType": "uint256",
          "name": "_dungeonId",
          "type": "uint256"
        },
        {
          "internalType": "uint256",
          "name": "_requiredPower",
          "type": "uint256"
        },
        {
          "internalType": "uint256",
          "name": "_rewardAmountUSD",
          "type": "uint256"
        },
        {
          "internalType": "uint8",
          "name": "_baseSuccessRate",
          "type": "uint8"
        }
      ],
      "name": "setDungeon",
      "outputs": [],
      "stateMutability": "nonpayable",
      "type": "function"
    },
    {
      "inputs": [
        {
          "internalType": "address",
          "name": "_newAddress",
          "type": "address"
        }
      ],
      "name": "setDungeonCore",
      "outputs": [],
      "stateMutability": "nonpayable",
      "type": "function"
    },
    {
      "inputs": [
        {
          "internalType": "address",
          "name": "_newAddress",
          "type": "address"
        }
      ],
      "name": "setDungeonStorage",
      "outputs": [],
      "stateMutability": "nonpayable",
      "type": "function"
    },
    {
      "inputs": [
        {
          "internalType": "uint256",
          "name": "_newFee",
          "type": "uint256"
        }
      ],
      "name": "setExplorationFee",
      "outputs": [],
      "stateMutability": "nonpayable",
      "type": "function"
    },
    {
      "inputs": [
        {
          "internalType": "uint256",
          "name": "_newMultiplier",
          "type": "uint256"
        }
      ],
      "name": "setGlobalRewardMultiplier",
      "outputs": [],
      "stateMutability": "nonpayable",
      "type": "function"
    },
    {
      "inputs": [
        {
          "internalType": "address",
          "name": "_newAddress",
          "type": "address"
        }
      ],
      "name": "setSoulShardToken",
      "outputs": [],
      "stateMutability": "nonpayable",
      "type": "function"
    },
    {
      "inputs": [
        {
          "internalType": "address",
          "name": "_vrfManager",
          "type": "address"
        }
      ],
      "name": "setVRFManager",
      "outputs": [],
      "stateMutability": "nonpayable",
      "type": "function"
    },
    {
      "inputs": [],
      "name": "soulShardToken",
      "outputs": [
        {
          "internalType": "contract IERC20",
          "name": "",
          "type": "address"
        }
      ],
      "stateMutability": "view",
      "type": "function"
    },
    {
      "inputs": [
        {
          "internalType": "address",
          "name": "newOwner",
          "type": "address"
        }
      ],
      "name": "transferOwnership",
      "outputs": [],
      "stateMutability": "nonpayable",
      "type": "function"
    },
    {
      "inputs": [],
      "name": "unpause",
      "outputs": [],
      "stateMutability": "nonpayable",
      "type": "function"
    },
    {
      "inputs": [
        {
          "internalType": "address",
          "name": "",
          "type": "address"
        }
      ],
      "name": "userRequests",
      "outputs": [
        {
          "internalType": "uint256",
          "name": "partyId",
          "type": "uint256"
        },
        {
          "internalType": "uint256",
          "name": "dungeonId",
          "type": "uint256"
        },
        {
          "internalType": "address",
          "name": "player",
          "type": "address"
        },
        {
          "internalType": "bool",
          "name": "fulfilled",
          "type": "bool"
        },
        {
          "internalType": "uint256",
          "name": "payment",
          "type": "uint256"
        }
      ],
      "stateMutability": "view",
      "type": "function"
    },
    {
      "inputs": [],
      "name": "vrfManager",
      "outputs": [
        {
          "internalType": "address",
          "name": "",
          "type": "address"
        }
      ],
      "stateMutability": "view",
      "type": "function"
    },
    {
      "inputs": [],
      "name": "withdrawNativeFunding",
      "outputs": [],
      "stateMutability": "nonpayable",
      "type": "function"
    },
    {
      "inputs": [],
      "name": "withdrawSoulShard",
      "outputs": [],
      "stateMutability": "nonpayable",
      "type": "function"
    }
  ],
  "bytecode": "0x6080346100d057601f61217e38819003918201601f19168301916001600160401b038311848410176100d5578084926020946040528339810103126100d057516001600160a01b0390818116908190036100d05780156100b757600080546001600160a01b03198116831782556040519316907f8be0079c531659141344cd1fd0a4f28419497f9722a3daafe3b4186f6b6457e09080a3600180556103e86007556605543df729c00060085561209290816100ec8239f35b604051631e4fbdf760e01b815260006004820152602490fd5b600080fd5b634e487b7160e01b600052604160045260246000fdfe608060408181526004918236101561001657600080fd5b600092833560e01c9182630962ef7914610e5f575081631dafec0014610c795781632a32e8d414610bd75781633f4ba83a14610b545781633f9e8acd14610b325781634403940214610b0b5781635896cccc14610abe5781635c975abb14610a9a57816367cfab5814610a6f5781636ab1b29b146109d55781636e99d52f146109b75781636eb5d36114610951578163715018a6146108f857816376994b64146108cf5781637a33eabc146108695781637fa23093146108345781638456cb59146107d95781638da5cb5b146107b3578163a91198271461078b578163ad0d43c21461076c578163bdb77176146105a9578163c143c4a814610548578163c1b39a3e14610520578163c47d435714610431578163d6042eb814610370578163db4b82681461030a578163dc7d73bb146102d9578163e625d1f4146102b7578163e8601c6614610248578163f2fde38b1461019b575063f7cb333e1461017a57600080fd5b346101975781600319360112610197576020906008549051908152f35b5080fd5b91905034610244576020366003190112610244578135916001600160a01b0391828416809403610240576101cd610f78565b8315610211575050600054826001600160a01b0319821617600055167f8be0079c531659141344cd1fd0a4f28419497f9722a3daafe3b4186f6b6457e0600080a380f35b908460249251917f1e4fbdf7000000000000000000000000000000000000000000000000000000008352820152fd5b8480fd5b8280fd5b90503461024457602036600319011261024457356001600160a01b03908181168091036102b357828460ff9260a09652600960205220805493600182015493600360028401549301549482519687526020870152821690850152841c16151560608301526080820152f35b8380fd5b839034610197576020366003190112610197576102d2610f78565b3560085580f35b90503461024457602036600319011261024457816020936001600160a01b0392358152600685522054169051908152f35b839034610197576020366003190112610197578035906001600160a01b03821680920361024457610339610f78565b816001600160a01b03198254161790557f5b041fdbb07c066df55211c4936ce14e84504e79020b987168fa2022f1b13e798280a280f35b9050346102445760203660031901126102445735906001600160a01b03918281168091036102b35783829160a095608084516103ab81610f1e565b8281528260208201528286820152826060820152015281526009602052208151916103d583610f1e565b815493848452600183015492602085019384526002810154936080600385880193858816855260ff60608a01988c1c16151588520154960195865283519687525160208701525116908401525115156060830152516080820152f35b9190503461024457826003193601126102445761044c610f78565b828080806001600160a01b0381541647905af13d1561051b573d67ffffffffffffffff81116105085782519061048c601f8201601f191660200183610f56565b81528460203d92013e5b1561049f578280f35b906020608492519162461bcd60e51b8352820152602d60248201527f44756e67656f6e4d61737465723a204e617469766520746f6b656e207769746860448201527f64726177616c206661696c6564000000000000000000000000000000000000006064820152fd5b602485604186634e487b7160e01b835252fd5b610496565b5050346101975781600319360112610197576020906001600160a01b03600554169051908152f35b9180915060031936011261024457600260015414610583575061057c9060026001556105726117ae565b6024359035610fe0565b6001805580f35b517f3ee5aeb5000000000000000000000000000000000000000000000000000000008152fd5b9190503461024457608036600319011261024457813591602435916044356064359260ff8416809403610768576105de610f78565b606484116106ff57868351916105f383610ed8565b86835260208301848152858401918783526060850192600184526001600160a01b0360035416803b156106fb578b9460ff879360a4968c519a8b998a987f1ba77917000000000000000000000000000000000000000000000000000000008a528901525160248801525160448701525116606485015251151560848401525af180156106f1576106b5575b50815193845260208401528201527ffaa9851dea424ac560635cbbb6a715dbd9be8d55803dfebaadc3730a6a83f1e290606090a280f35b9160609391966106e67ffaa9851dea424ac560635cbbb6a715dbd9be8d55803dfebaadc3730a6a83f1e29694610f0a565b96919350919361067e565b83513d89823e3d90fd5b8580fd5b608490602084519162461bcd60e51b8352820152602e60248201527f44756e67656f6e4d61737465723a205375636365737320726174652063616e6e60448201527f6f742065786365656420313030250000000000000000000000000000000000006064820152fd5b8680fd5b5050346101975781600319360112610197576020906007549051908152f35b5050346101975781600319360112610197576020906001600160a01b03600354169051908152f35b5050346101975781600319360112610197576001600160a01b0360209254169051908152f35b50503461019757816003193601126101975760207f62e78cea01bee320cd4e420270b5ea74000d11b0c9f74754ebdbfc544b05a25891610817610f78565b61081f6117ae565b600160ff19600254161760025551338152a180f35b9050823461086657602036600319011261086657506108539035611ebe565b6020815191015182519182526020820152f35b80fd5b83903461019757602036600319011261019757356001600160a01b03811680910361019757610896610f78565b806001600160a01b031960055416176005557feda44c694e75c8161562f6179238b37a8daa291b6b2229613ed903ed92ab2d3d8280a280f35b505034610197578160031936011261019757606091600854918051928084526020840152820152f35b8334610866578060031936011261086657610911610f78565b806001600160a01b0381546001600160a01b031981168355167f8be0079c531659141344cd1fd0a4f28419497f9722a3daafe3b4186f6b6457e08280a380f35b83903461019757602036600319011261019757356001600160a01b0381168091036101975761097e610f78565b806001600160a01b031960035416176003557fb62a30fb8f7c73a0e4bc061efea54bc34145e5553d3eefa0695e6c29357de4348280a280f35b50503461019757816003193601126101975760209051620151808152f35b83903461019757602036600319011261019757356001600160a01b0381169081810361024457610a03610f78565b7fffffffffffffffffffffff0000000000000000000000000000000000000000ff74ffffffffffffffffffffffffffffffffffffffff006002549260081b169116176002557f45e919947eac4ba070dccb2545cf1e7e330fd110330232d74a6996e9e2308f248280a280f35b5050346101975781600319360112610197576020906001600160a01b0360025460081c169051908152f35b50503461019757816003193601126101975760209060ff6002541690519015158152f35b8284346108665760203660031901126108665750610ade60809235611f54565b90815191602081015191606060ff8284015116920151151592815194855260208501528301526060820152f35b828434610866578060031936011261086657506001600160a01b0360209254169051908152f35b83903461019757602036600319011261019757610b4d610f78565b3560075580f35b905034610244578260031936011261024457610b6e610f78565b6002549060ff821615610bb0575060ff1916600255513381527f5db9ee0a495bf2e6ff9c91a7834c1ba4fdd244a5e8aa4e537bd38aeae4b073aa90602090a180f35b82517f8dfc202b000000000000000000000000000000000000000000000000000000008152fd5b83833461019757806003193601126101975767ffffffffffffffff926024358481116102b357366023820112156102b35780820135948511610c66578460051b925192602095610c2987830186610f56565b8452602486850191830101913683116106fb57602401905b828210610c575785610c548686356117e4565b80f35b81358152908601908601610c41565b602484604184634e487b7160e01b835252fd5b91905034610244578260031936011261024457610c94610f78565b6001600160a01b039081835416918215610df6578482517f70a0823100000000000000000000000000000000000000000000000000000000815230868201526020928382602481895afa918215610dec578392610dbd575b5081610cf6578280f35b610d5a610d4c91845416928651928391878301957fa9059cbb00000000000000000000000000000000000000000000000000000000875260248401602090939291936001600160a01b0360408201951681520152565b03601f198101835282610f56565b519082865af115610db45783513d610dab5750813b155b610d7d57808481808280f35b6024935051917f5274afe7000000000000000000000000000000000000000000000000000000008352820152fd5b60011415610d71565b513d84823e3d90fd5b9091508381813d8311610de5575b610dd58183610f56565b8101031261024457519038610cec565b503d610dcb565b85513d85823e3d90fd5b608484602084519162461bcd60e51b8352820152603660248201527f44756e67656f6e4d61737465723a20536f756c536861726420746f6b656e206360448201527f6f6e7472616374206e6f7420636f6e66696775726564000000000000000000006064820152fd5b84346108665760203660031901126108665750602060849262461bcd60e51b8352820152603660248201527f444d3a205265776172647320617265206175746f6d61746963616c6c7920646560448201527f706f736974656420746f20506c617965725661756c74000000000000000000006064820152fd5b6080810190811067ffffffffffffffff821117610ef457604052565b634e487b7160e01b600052604160045260246000fd5b67ffffffffffffffff8111610ef457604052565b60a0810190811067ffffffffffffffff821117610ef457604052565b6040810190811067ffffffffffffffff821117610ef457604052565b90601f8019910116810190811067ffffffffffffffff821117610ef457604052565b6001600160a01b03600054163303610f8c57565b60246040517f118cdaa7000000000000000000000000000000000000000000000000000000008152336004820152fd5b90816020910312610fdb57516001600160a01b0381168103610fdb5790565b600080fd5b906000913383526020936009855260409160028386200154946001600160a01b0395868116159081156117a0575b5015611737578560025460081c16948451966303aae71960e61b885260049789818a818b5afa9081156113e657908291859161171a575b50168651976331a9108f60e11b8952858a8a01526024988b818b81865afa90811561142b5786916116ed575b50833391160361168657151580611679575b156116125761109183611f54565b9061109b86611ebe565b916060810151156115ab57825142106115445788878b8d835195869384927f216688e90000000000000000000000000000000000000000000000000000000084528301525afa91821561142b578692611515575b5051116114ae576008543403611447576201518042018042116114355781528160035416875191639a7db97f60e01b8352868b8401526080838b81855afa90811561142b57869387926113f4575b508c8151910151908a519461115186610ed8565b85528d85019081528a850191825260ff6060860193168352833b156113f0578a517fb02080ae000000000000000000000000000000000000000000000000000000008152808e018a90529451858d01525160448501525160648401525160ff1660848301528490829060a490829084905af180156113e6576113d3575b50806005541680611219576064898b8a818b519362461bcd60e51b85528401528201527f444d3a2056524620726571756972656420666f722065787065646974696f6e736044820152fd5b9660848599858c979a600196999d95979b8b51878101913360601b835260348201528b60548201526054815261124e81610ed8565b5190208b5197889687957f86ac73f600000000000000000000000000000000000000000000000000000000875233908701528501526001604485015260648401525af19081156113c957869161137c575b50856003917f5efd282bbc5aae1d6abe95f156091cdc51d6b2f4377898c1f529f22ac0a21647975260068452858120336001600160a01b03198254161790558551926112ea84610f1e565b88845284840186815287850191338352606086019184835289608088019534875233815260098a522096518755516001870155600286019251167fffffffffffffffffffffff00000000000000000000000000000000000000000074ff000000000000000000000000000000000000000084549351151560a01b169216171790555191015582519485528401523392a2565b90508281813d83116113c2575b6113938183610f56565b81010312610fdb57517f5efd282bbc5aae1d6abe95f156091cdc51d6b2f4377898c1f529f22ac0a2164761129f565b503d611389565b85513d88823e3d90fd5b6113df90939193610f0a565b91386111ce565b87513d86823e3d90fd5b8780fd5b909350611418915060803d8111611424575b6114108183610f56565b810190611e95565b9294915038905061113d565b503d611406565b89513d88823e3d90fd5b888560118c634e487b7160e01b835252fd5b60848960358a8d8b519362461bcd60e51b85528401528201527f44756e67656f6e4d61737465723a204578616374206578706c6f726174696f6e60448201527f20666565207061796d656e7420726571756972656400000000000000000000006064820152fd5b60848960388a8d8b519362461bcd60e51b85528401528201527f44756e67656f6e4d61737465723a20506172747920706f77657220696e73756660448201527f66696369656e7420666f7220746869732064756e67656f6e00000000000000006064820152fd5b9091508881813d831161153d575b61152d8183610f56565b810103126106fb575190386110ef565b503d611523565b60848b60308c8f8d519362461bcd60e51b85528401528201527f44756e67656f6e4d61737465723a205061727479206973207374696c6c206f6e60448201527f20636f6f6c646f776e20706572696f64000000000000000000000000000000006064820152fd5b60848b60388c8f8d519362461bcd60e51b85528401528201527f44756e67656f6e4d61737465723a2044756e67656f6e20646f6573206e6f742060448201527f6578697374206f72206e6f7420696e697469616c697a656400000000000000006064820152fd5b60848960358a8d8b519362461bcd60e51b85528401528201527f44756e67656f6e4d61737465723a20436f726520636f6e747261637473206e6f60448201527f742070726f7065726c7920636f6e6669677572656400000000000000000000006064820152fd5b5081600354161515611083565b60848a602c8b8e8c519362461bcd60e51b85528401528201527f44756e67656f6e4d61737465723a2043616c6c6572206973206e6f742074686560448201527f207061727479206f776e657200000000000000000000000000000000000000006064820152fd5b61170d91508c8d3d10611713575b6117058183610f56565b810190610fbc565b38611071565b503d6116fb565b61173191508b3d8d11611713576117058183610f56565b38611045565b60848785519062461bcd60e51b82526004820152603860248201527f44756e67656f6e4d61737465723a2050726576696f757320657870656469746960448201527f6f6e2072657175657374207374696c6c2070656e64696e6700000000000000006064820152fd5b60ff915060a01c163861100e565b60ff600254166117ba57565b60046040517fd93c0665000000000000000000000000000000000000000000000000000000008152fd5b9190916001600160a01b03806005541633036118d3578351156118d357600093828552602091600683526040862054169485156118cb5785815260098352604081209560ff600288015460a01c166118c2578251156118ae5761186e7f039e13e1070272831a469fee81cadd186792456052d1c2b4ab06cdc1d1fb3be695969785850151906118e7565b85825260068452604082206001600160a01b03198154169055815260098352600360408220828155826001820155826002820155015551604051908152a2565b602482634e487b7160e01b81526032600452fd5b50505050509050565b505050509050565b50509050565b519060ff82168203610fdb57565b9060028201600092815490740100000000000000000000000000000000000000007fffffffffffffffffffffff00ffffffffffffffffffffffffffffffffffffffff83161783556001600160a01b03908160025460081c169360409687516303aae71960e61b8152602095600491878184818c5afa908115611e8b57918888928d948791611e6e575b50602489549551809581936331a9108f60e11b8352888a840152165afa918215611e6457859493929189979691889293611e45575b50169788911603611e0557506001850154988a6119c18b611f54565b838a8c879451928380927f76ed36710000000000000000000000000000000000000000000000000000000082525afa908115611dfb578b8f93928a928991611dde575b5060248d865194859384927f32854c130000000000000000000000000000000000000000000000000000000084528c840152165afa879181611da1575b50611d98575b5060ff91829101511691160160ff8111611d855760ff169060648211611d7c575b606490061097611a78839a611f54565b908915611d7057888201518c51907f7b2e0fcf000000000000000000000000000000000000000000000000000000008252848201528981602481855afa908115611d66578591611d39575b5060075490818102918183041490151715611d26576103e890049081611c44575b5050600a905104955b81888660025460081c168d51928380927f7aa6b20b0000000000000000000000000000000000000000000000000000000082525afa908115611c3a579086918591611c1d575b501691823b156102b357611b8f928492838a938f51968795869485937ff3007bc40000000000000000000000000000000000000000000000000000000085528401602090939291936001600160a01b0360408201951681520152565b03925af1611c09575b5050917f036fa7ebe32c81d713bab4f5c2a50eb37d9633d474f2561a7c28ea52c9a263566060989694927f8d729483ceacc818e2eba5a141ff5a1152155f5325e43fee2d5aa0075ae128289896945416988992549687948951918883528783015289820152a38351928352820152a2565b611c138291610f0a565b6108665780611b98565b611c3491508a3d8c11611713576117058183610f56565b38611b33565b8c513d86823e3d90fd5b8391929b5089908d51928380927f29bdca370000000000000000000000000000000000000000000000000000000082525afa908115611c3a579086918591611d09575b5016803b156102b3578b517f47e7ef240000000000000000000000000000000000000000000000000000000081526001600160a01b038916848201908152602081018490529091859183919082908490829060400103925af18015611c3a57611cf5575b5098600a38611ae4565b92611d02600a9294610f0a565b9290611ceb565b611d2091508a3d8c11611713576117058183610f56565b38611c87565b602485601186634e487b7160e01b835252fd5b90508981813d8311611d5f575b611d508183610f56565b81010312610240575138611ac3565b503d611d46565b8d513d87823e3d90fd5b50601490510495611aed565b60649150611a68565b602484601185634e487b7160e01b835252fd5b925060ff611a47565b8d80929495508193503d8311611dd7575b611dbc8183610f56565b810103126107685790611dd08f93926118d9565b9038611a41565b503d611db2565b611df59150823d8411611713576117058183610f56565b38611a04565b8e513d88823e3d90fd5b999350509250506060939295507f036fa7ebe32c81d713bab4f5c2a50eb37d9633d474f2561a7c28ea52c9a26356945081815193818552840152820152a3565b611e5d9193508b3d8d11611713576117058183610f56565b91386119a5565b8c513d87823e3d90fd5b611e859150823d8411611713576117058183610f56565b38611970565b8b513d86823e3d90fd5b9190826080910312610fdb57815191602081015191611ebb6060604084015193016118d9565b90565b60006020604051611ece81610f3a565b828152015260806001600160a01b036003541691602460405180948193639a7db97f60e01b835260048301525afa8015611f48576000918291611f24575b5060405191611f1a83610f3a565b8252602082015290565b9050611f3e915060803d8111611424576114108183610f56565b5091509038611f0c565b6040513d6000823e3d90fd5b60609060408051611f6481610ed8565b60009381858093528260208201528284820152015260806001600160a01b03600354169260248351809581937f956e958a00000000000000000000000000000000000000000000000000000000835260048301525afa91821561205257838080928195611ff4575b50509060ff91835195611fde87610ed8565b8652602086015216908301521515606082015290565b9450945050506080823d821161204a575b8161201260809383610f56565b810103126102445781519260208301519360606120308486016118d9565b94015191821515830361086657509390929060ff38611fcc565b3d9150612005565b81513d85823e3d90fdfea26469706673582212206993cd53a433012d9756c86da1b0fbad0b97bb4cab682e4f9d4431ab7985520464736f6c63430008140033",
  "linkReferences": {},
  "deployedLinkReferences": {}
}