{
  "_format": "hh-sol-artifact-1",
  "contractName": "Hero",
  "sourceName": "contracts/current/nft/Hero.sol",
  "abi": [
    {
      "inputs": [
        {
          "internalType": "address",
          "name": "initialOwner",
          "type": "address"
        }
      ],
      "stateMutability": "nonpayable",
      "type": "constructor"
    },
    {
      "inputs": [
        {
          "internalType": "address",
          "name": "sender",
          "type": "address"
        },
        {
          "internalType": "uint256",
          "name": "tokenId",
          "type": "uint256"
        },
        {
          "internalType": "address",
          "name": "owner",
          "type": "address"
        }
      ],
      "name": "ERC721IncorrectOwner",
      "type": "error"
    },
    {
      "inputs": [
        {
          "internalType": "address",
          "name": "operator",
          "type": "address"
        },
        {
          "internalType": "uint256",
          "name": "tokenId",
          "type": "uint256"
        }
      ],
      "name": "ERC721InsufficientApproval",
      "type": "error"
    },
    {
      "inputs": [
        {
          "internalType": "address",
          "name": "approver",
          "type": "address"
        }
      ],
      "name": "ERC721InvalidApprover",
      "type": "error"
    },
    {
      "inputs": [
        {
          "internalType": "address",
          "name": "operator",
          "type": "address"
        }
      ],
      "name": "ERC721InvalidOperator",
      "type": "error"
    },
    {
      "inputs": [
        {
          "internalType": "address",
          "name": "owner",
          "type": "address"
        }
      ],
      "name": "ERC721InvalidOwner",
      "type": "error"
    },
    {
      "inputs": [
        {
          "internalType": "address",
          "name": "receiver",
          "type": "address"
        }
      ],
      "name": "ERC721InvalidReceiver",
      "type": "error"
    },
    {
      "inputs": [
        {
          "internalType": "address",
          "name": "sender",
          "type": "address"
        }
      ],
      "name": "ERC721InvalidSender",
      "type": "error"
    },
    {
      "inputs": [
        {
          "internalType": "uint256",
          "name": "tokenId",
          "type": "uint256"
        }
      ],
      "name": "ERC721NonexistentToken",
      "type": "error"
    },
    {
      "inputs": [],
      "name": "EnforcedPause",
      "type": "error"
    },
    {
      "inputs": [],
      "name": "ExpectedPause",
      "type": "error"
    },
    {
      "inputs": [
        {
          "internalType": "address",
          "name": "owner",
          "type": "address"
        }
      ],
      "name": "OwnableInvalidOwner",
      "type": "error"
    },
    {
      "inputs": [
        {
          "internalType": "address",
          "name": "account",
          "type": "address"
        }
      ],
      "name": "OwnableUnauthorizedAccount",
      "type": "error"
    },
    {
      "inputs": [],
      "name": "ReentrancyGuardReentrantCall",
      "type": "error"
    },
    {
      "inputs": [
        {
          "internalType": "address",
          "name": "token",
          "type": "address"
        }
      ],
      "name": "SafeERC20FailedOperation",
      "type": "error"
    },
    {
      "anonymous": false,
      "inputs": [
        {
          "indexed": true,
          "internalType": "address",
          "name": "owner",
          "type": "address"
        },
        {
          "indexed": true,
          "internalType": "address",
          "name": "approved",
          "type": "address"
        },
        {
          "indexed": true,
          "internalType": "uint256",
          "name": "tokenId",
          "type": "uint256"
        }
      ],
      "name": "Approval",
      "type": "event"
    },
    {
      "anonymous": false,
      "inputs": [
        {
          "indexed": true,
          "internalType": "address",
          "name": "owner",
          "type": "address"
        },
        {
          "indexed": true,
          "internalType": "address",
          "name": "operator",
          "type": "address"
        },
        {
          "indexed": false,
          "internalType": "bool",
          "name": "approved",
          "type": "bool"
        }
      ],
      "name": "ApprovalForAll",
      "type": "event"
    },
    {
      "anonymous": false,
      "inputs": [
        {
          "indexed": true,
          "internalType": "address",
          "name": "newAddress",
          "type": "address"
        }
      ],
      "name": "AscensionAltarSet",
      "type": "event"
    },
    {
      "anonymous": false,
      "inputs": [
        {
          "indexed": false,
          "internalType": "string",
          "name": "newBaseURI",
          "type": "string"
        }
      ],
      "name": "BaseURISet",
      "type": "event"
    },
    {
      "anonymous": false,
      "inputs": [
        {
          "indexed": true,
          "internalType": "address",
          "name": "player",
          "type": "address"
        },
        {
          "indexed": false,
          "internalType": "uint256",
          "name": "quantity",
          "type": "uint256"
        },
        {
          "indexed": false,
          "internalType": "uint8",
          "name": "maxRarity",
          "type": "uint8"
        },
        {
          "indexed": false,
          "internalType": "uint256[]",
          "name": "tokenIds",
          "type": "uint256[]"
        }
      ],
      "name": "BatchMintCompleted",
      "type": "event"
    },
    {
      "anonymous": false,
      "inputs": [
        {
          "indexed": false,
          "internalType": "string",
          "name": "newContractURI",
          "type": "string"
        }
      ],
      "name": "ContractURIUpdated",
      "type": "event"
    },
    {
      "anonymous": false,
      "inputs": [
        {
          "indexed": true,
          "internalType": "address",
          "name": "core",
          "type": "address"
        },
        {
          "indexed": true,
          "internalType": "address",
          "name": "token",
          "type": "address"
        }
      ],
      "name": "ContractsSet",
      "type": "event"
    },
    {
      "anonymous": false,
      "inputs": [
        {
          "indexed": true,
          "internalType": "uint256",
          "name": "tokenId",
          "type": "uint256"
        },
        {
          "indexed": true,
          "internalType": "address",
          "name": "owner",
          "type": "address"
        },
        {
          "indexed": false,
          "internalType": "uint8",
          "name": "rarity",
          "type": "uint8"
        },
        {
          "indexed": false,
          "internalType": "uint256",
          "name": "power",
          "type": "uint256"
        }
      ],
      "name": "HeroBurned",
      "type": "event"
    },
    {
      "anonymous": false,
      "inputs": [
        {
          "indexed": true,
          "internalType": "uint256",
          "name": "tokenId",
          "type": "uint256"
        },
        {
          "indexed": true,
          "internalType": "address",
          "name": "owner",
          "type": "address"
        },
        {
          "indexed": false,
          "internalType": "uint8",
          "name": "rarity",
          "type": "uint8"
        },
        {
          "indexed": false,
          "internalType": "uint256",
          "name": "power",
          "type": "uint256"
        }
      ],
      "name": "HeroMinted",
      "type": "event"
    },
    {
      "anonymous": false,
      "inputs": [
        {
          "indexed": true,
          "internalType": "address",
          "name": "player",
          "type": "address"
        },
        {
          "indexed": false,
          "internalType": "uint256",
          "name": "quantity",
          "type": "uint256"
        },
        {
          "indexed": false,
          "internalType": "bool",
          "name": "fromVault",
          "type": "bool"
        }
      ],
      "name": "MintRequested",
      "type": "event"
    },
    {
      "anonymous": false,
      "inputs": [
        {
          "indexed": true,
          "internalType": "address",
          "name": "previousOwner",
          "type": "address"
        },
        {
          "indexed": true,
          "internalType": "address",
          "name": "newOwner",
          "type": "address"
        }
      ],
      "name": "OwnershipTransferred",
      "type": "event"
    },
    {
      "anonymous": false,
      "inputs": [
        {
          "indexed": false,
          "internalType": "address",
          "name": "account",
          "type": "address"
        }
      ],
      "name": "Paused",
      "type": "event"
    },
    {
      "anonymous": false,
      "inputs": [
        {
          "indexed": true,
          "internalType": "address",
          "name": "from",
          "type": "address"
        },
        {
          "indexed": true,
          "internalType": "address",
          "name": "to",
          "type": "address"
        },
        {
          "indexed": true,
          "internalType": "uint256",
          "name": "tokenId",
          "type": "uint256"
        }
      ],
      "name": "Transfer",
      "type": "event"
    },
    {
      "anonymous": false,
      "inputs": [
        {
          "indexed": false,
          "internalType": "address",
          "name": "account",
          "type": "address"
        }
      ],
      "name": "Unpaused",
      "type": "event"
    },
    {
      "anonymous": false,
      "inputs": [
        {
          "indexed": true,
          "internalType": "address",
          "name": "vrfManager",
          "type": "address"
        }
      ],
      "name": "VRFManagerSet",
      "type": "event"
    },
    {
      "inputs": [
        {
          "internalType": "address",
          "name": "to",
          "type": "address"
        },
        {
          "internalType": "uint256",
          "name": "tokenId",
          "type": "uint256"
        }
      ],
      "name": "approve",
      "outputs": [],
      "stateMutability": "nonpayable",
      "type": "function"
    },
    {
      "inputs": [],
      "name": "ascensionAltarAddress",
      "outputs": [
        {
          "internalType": "address",
          "name": "",
          "type": "address"
        }
      ],
      "stateMutability": "view",
      "type": "function"
    },
    {
      "inputs": [
        {
          "internalType": "address",
          "name": "owner",
          "type": "address"
        }
      ],
      "name": "balanceOf",
      "outputs": [
        {
          "internalType": "uint256",
          "name": "",
          "type": "uint256"
        }
      ],
      "stateMutability": "view",
      "type": "function"
    },
    {
      "inputs": [],
      "name": "baseURI",
      "outputs": [
        {
          "internalType": "string",
          "name": "",
          "type": "string"
        }
      ],
      "stateMutability": "view",
      "type": "function"
    },
    {
      "inputs": [
        {
          "internalType": "uint256",
          "name": "_tokenId",
          "type": "uint256"
        }
      ],
      "name": "burnFromAltar",
      "outputs": [],
      "stateMutability": "nonpayable",
      "type": "function"
    },
    {
      "inputs": [],
      "name": "contractURI",
      "outputs": [
        {
          "internalType": "string",
          "name": "",
          "type": "string"
        }
      ],
      "stateMutability": "view",
      "type": "function"
    },
    {
      "inputs": [],
      "name": "dungeonCore",
      "outputs": [
        {
          "internalType": "contract IDungeonCore",
          "name": "",
          "type": "address"
        }
      ],
      "stateMutability": "view",
      "type": "function"
    },
    {
      "inputs": [
        {
          "internalType": "uint256",
          "name": "tokenId",
          "type": "uint256"
        }
      ],
      "name": "getApproved",
      "outputs": [
        {
          "internalType": "address",
          "name": "",
          "type": "address"
        }
      ],
      "stateMutability": "view",
      "type": "function"
    },
    {
      "inputs": [
        {
          "internalType": "uint256",
          "name": "tokenId",
          "type": "uint256"
        }
      ],
      "name": "getHeroProperties",
      "outputs": [
        {
          "internalType": "uint8",
          "name": "rarity",
          "type": "uint8"
        },
        {
          "internalType": "uint256",
          "name": "power",
          "type": "uint256"
        }
      ],
      "stateMutability": "view",
      "type": "function"
    },
    {
      "inputs": [
        {
          "internalType": "uint256",
          "name": "_quantity",
          "type": "uint256"
        }
      ],
      "name": "getRequiredSoulShardAmount",
      "outputs": [
        {
          "internalType": "uint256",
          "name": "",
          "type": "uint256"
        }
      ],
      "stateMutability": "view",
      "type": "function"
    },
    {
      "inputs": [
        {
          "internalType": "address",
          "name": "_user",
          "type": "address"
        }
      ],
      "name": "getUserRequest",
      "outputs": [
        {
          "components": [
            {
              "internalType": "uint256",
              "name": "quantity",
              "type": "uint256"
            },
            {
              "internalType": "uint256",
              "name": "payment",
              "type": "uint256"
            },
            {
              "internalType": "bool",
              "name": "fulfilled",
              "type": "bool"
            },
            {
              "internalType": "uint8",
              "name": "maxRarity",
              "type": "uint8"
            },
            {
              "internalType": "bool",
              "name": "fromVault",
              "type": "bool"
            },
            {
              "internalType": "uint256[]",
              "name": "pendingTokenIds",
              "type": "uint256[]"
            }
          ],
          "internalType": "struct Hero.MintRequest",
          "name": "",
          "type": "tuple"
        }
      ],
      "stateMutability": "view",
      "type": "function"
    },
    {
      "inputs": [
        {
          "internalType": "uint256",
          "name": "",
          "type": "uint256"
        }
      ],
      "name": "heroData",
      "outputs": [
        {
          "internalType": "uint8",
          "name": "rarity",
          "type": "uint8"
        },
        {
          "internalType": "uint256",
          "name": "power",
          "type": "uint256"
        },
        {
          "internalType": "bool",
          "name": "isRevealed",
          "type": "bool"
        }
      ],
      "stateMutability": "view",
      "type": "function"
    },
    {
      "inputs": [
        {
          "internalType": "address",
          "name": "owner",
          "type": "address"
        },
        {
          "internalType": "address",
          "name": "operator",
          "type": "address"
        }
      ],
      "name": "isApprovedForAll",
      "outputs": [
        {
          "internalType": "bool",
          "name": "",
          "type": "bool"
        }
      ],
      "stateMutability": "view",
      "type": "function"
    },
    {
      "inputs": [
        {
          "internalType": "address",
          "name": "_to",
          "type": "address"
        },
        {
          "internalType": "uint8",
          "name": "_rarity",
          "type": "uint8"
        },
        {
          "internalType": "uint256",
          "name": "_power",
          "type": "uint256"
        }
      ],
      "name": "mintFromAltar",
      "outputs": [
        {
          "internalType": "uint256",
          "name": "",
          "type": "uint256"
        }
      ],
      "stateMutability": "nonpayable",
      "type": "function"
    },
    {
      "inputs": [
        {
          "internalType": "uint256",
          "name": "_quantity",
          "type": "uint256"
        }
      ],
      "name": "mintFromVault",
      "outputs": [],
      "stateMutability": "payable",
      "type": "function"
    },
    {
      "inputs": [
        {
          "internalType": "uint256",
          "name": "_quantity",
          "type": "uint256"
        }
      ],
      "name": "mintFromWallet",
      "outputs": [],
      "stateMutability": "payable",
      "type": "function"
    },
    {
      "inputs": [],
      "name": "mintPriceUSD",
      "outputs": [
        {
          "internalType": "uint256",
          "name": "",
          "type": "uint256"
        }
      ],
      "stateMutability": "view",
      "type": "function"
    },
    {
      "inputs": [],
      "name": "name",
      "outputs": [
        {
          "internalType": "string",
          "name": "",
          "type": "string"
        }
      ],
      "stateMutability": "view",
      "type": "function"
    },
    {
      "inputs": [
        {
          "internalType": "uint256",
          "name": "requestId",
          "type": "uint256"
        },
        {
          "internalType": "uint256[]",
          "name": "randomWords",
          "type": "uint256[]"
        }
      ],
      "name": "onVRFFulfilled",
      "outputs": [],
      "stateMutability": "nonpayable",
      "type": "function"
    },
    {
      "inputs": [],
      "name": "owner",
      "outputs": [
        {
          "internalType": "address",
          "name": "",
          "type": "address"
        }
      ],
      "stateMutability": "view",
      "type": "function"
    },
    {
      "inputs": [
        {
          "internalType": "uint256",
          "name": "tokenId",
          "type": "uint256"
        }
      ],
      "name": "ownerOf",
      "outputs": [
        {
          "internalType": "address",
          "name": "",
          "type": "address"
        }
      ],
      "stateMutability": "view",
      "type": "function"
    },
    {
      "inputs": [],
      "name": "pause",
      "outputs": [],
      "stateMutability": "nonpayable",
      "type": "function"
    },
    {
      "inputs": [],
      "name": "paused",
      "outputs": [
        {
          "internalType": "bool",
          "name": "",
          "type": "bool"
        }
      ],
      "stateMutability": "view",
      "type": "function"
    },
    {
      "inputs": [],
      "name": "platformFee",
      "outputs": [
        {
          "internalType": "uint256",
          "name": "",
          "type": "uint256"
        }
      ],
      "stateMutability": "view",
      "type": "function"
    },
    {
      "inputs": [],
      "name": "renounceOwnership",
      "outputs": [],
      "stateMutability": "nonpayable",
      "type": "function"
    },
    {
      "inputs": [
        {
          "internalType": "uint256",
          "name": "",
          "type": "uint256"
        }
      ],
      "name": "requestIdToUser",
      "outputs": [
        {
          "internalType": "address",
          "name": "",
          "type": "address"
        }
      ],
      "stateMutability": "view",
      "type": "function"
    },
    {
      "inputs": [
        {
          "internalType": "address",
          "name": "from",
          "type": "address"
        },
        {
          "internalType": "address",
          "name": "to",
          "type": "address"
        },
        {
          "internalType": "uint256",
          "name": "tokenId",
          "type": "uint256"
        }
      ],
      "name": "safeTransferFrom",
      "outputs": [],
      "stateMutability": "nonpayable",
      "type": "function"
    },
    {
      "inputs": [
        {
          "internalType": "address",
          "name": "from",
          "type": "address"
        },
        {
          "internalType": "address",
          "name": "to",
          "type": "address"
        },
        {
          "internalType": "uint256",
          "name": "tokenId",
          "type": "uint256"
        },
        {
          "internalType": "bytes",
          "name": "data",
          "type": "bytes"
        }
      ],
      "name": "safeTransferFrom",
      "outputs": [],
      "stateMutability": "nonpayable",
      "type": "function"
    },
    {
      "inputs": [
        {
          "internalType": "address",
          "name": "operator",
          "type": "address"
        },
        {
          "internalType": "bool",
          "name": "approved",
          "type": "bool"
        }
      ],
      "name": "setApprovalForAll",
      "outputs": [],
      "stateMutability": "nonpayable",
      "type": "function"
    },
    {
      "inputs": [
        {
          "internalType": "address",
          "name": "_address",
          "type": "address"
        }
      ],
      "name": "setAscensionAltarAddress",
      "outputs": [],
      "stateMutability": "nonpayable",
      "type": "function"
    },
    {
      "inputs": [
        {
          "internalType": "string",
          "name": "_newBaseURI",
          "type": "string"
        }
      ],
      "name": "setBaseURI",
      "outputs": [],
      "stateMutability": "nonpayable",
      "type": "function"
    },
    {
      "inputs": [
        {
          "internalType": "string",
          "name": "newContractURI",
          "type": "string"
        }
      ],
      "name": "setContractURI",
      "outputs": [],
      "stateMutability": "nonpayable",
      "type": "function"
    },
    {
      "inputs": [
        {
          "internalType": "address",
          "name": "_address",
          "type": "address"
        }
      ],
      "name": "setDungeonCore",
      "outputs": [],
      "stateMutability": "nonpayable",
      "type": "function"
    },
    {
      "inputs": [
        {
          "internalType": "uint256",
          "name": "_newPrice",
          "type": "uint256"
        }
      ],
      "name": "setMintPriceUSD",
      "outputs": [],
      "stateMutability": "nonpayable",
      "type": "function"
    },
    {
      "inputs": [
        {
          "internalType": "uint256",
          "name": "_newFee",
          "type": "uint256"
        }
      ],
      "name": "setPlatformFee",
      "outputs": [],
      "stateMutability": "nonpayable",
      "type": "function"
    },
    {
      "inputs": [
        {
          "internalType": "address",
          "name": "_address",
          "type": "address"
        }
      ],
      "name": "setSoulShardToken",
      "outputs": [],
      "stateMutability": "nonpayable",
      "type": "function"
    },
    {
      "inputs": [
        {
          "internalType": "address",
          "name": "_vrfManager",
          "type": "address"
        }
      ],
      "name": "setVRFManager",
      "outputs": [],
      "stateMutability": "nonpayable",
      "type": "function"
    },
    {
      "inputs": [],
      "name": "soulShardToken",
      "outputs": [
        {
          "internalType": "contract IERC20",
          "name": "",
          "type": "address"
        }
      ],
      "stateMutability": "view",
      "type": "function"
    },
    {
      "inputs": [
        {
          "internalType": "bytes4",
          "name": "interfaceId",
          "type": "bytes4"
        }
      ],
      "name": "supportsInterface",
      "outputs": [
        {
          "internalType": "bool",
          "name": "",
          "type": "bool"
        }
      ],
      "stateMutability": "view",
      "type": "function"
    },
    {
      "inputs": [],
      "name": "symbol",
      "outputs": [
        {
          "internalType": "string",
          "name": "",
          "type": "string"
        }
      ],
      "stateMutability": "view",
      "type": "function"
    },
    {
      "inputs": [
        {
          "internalType": "uint256",
          "name": "tokenId",
          "type": "uint256"
        }
      ],
      "name": "tokenURI",
      "outputs": [
        {
          "internalType": "string",
          "name": "",
          "type": "string"
        }
      ],
      "stateMutability": "view",
      "type": "function"
    },
    {
      "inputs": [
        {
          "internalType": "address",
          "name": "from",
          "type": "address"
        },
        {
          "internalType": "address",
          "name": "to",
          "type": "address"
        },
        {
          "internalType": "uint256",
          "name": "tokenId",
          "type": "uint256"
        }
      ],
      "name": "transferFrom",
      "outputs": [],
      "stateMutability": "nonpayable",
      "type": "function"
    },
    {
      "inputs": [
        {
          "internalType": "address",
          "name": "newOwner",
          "type": "address"
        }
      ],
      "name": "transferOwnership",
      "outputs": [],
      "stateMutability": "nonpayable",
      "type": "function"
    },
    {
      "inputs": [],
      "name": "unpause",
      "outputs": [],
      "stateMutability": "nonpayable",
      "type": "function"
    },
    {
      "inputs": [
        {
          "internalType": "address",
          "name": "",
          "type": "address"
        }
      ],
      "name": "userRequests",
      "outputs": [
        {
          "internalType": "uint256",
          "name": "quantity",
          "type": "uint256"
        },
        {
          "internalType": "uint256",
          "name": "payment",
          "type": "uint256"
        },
        {
          "internalType": "bool",
          "name": "fulfilled",
          "type": "bool"
        },
        {
          "internalType": "uint8",
          "name": "maxRarity",
          "type": "uint8"
        },
        {
          "internalType": "bool",
          "name": "fromVault",
          "type": "bool"
        }
      ],
      "stateMutability": "view",
      "type": "function"
    },
    {
      "inputs": [],
      "name": "vrfManager",
      "outputs": [
        {
          "internalType": "address",
          "name": "",
          "type": "address"
        }
      ],
      "stateMutability": "view",
      "type": "function"
    },
    {
      "inputs": [],
      "name": "withdrawNativeFunding",
      "outputs": [],
      "stateMutability": "nonpayable",
      "type": "function"
    },
    {
      "inputs": [],
      "name": "withdrawSoulShard",
      "outputs": [],
      "stateMutability": "nonpayable",
      "type": "function"
    },
    {
      "stateMutability": "payable",
      "type": "receive"
    }
  ],
  "bytecode": "0x608034620003e457601f906001600160401b03601f1962003a7b388190038581018316850184811186821017620003ce57859282916040528339602094859181010312620003e457516001600160a01b03948582169391849003620003e45762000068620003e9565b94601486527f44756e67656f6e2044656c76657273204865726f000000000000000000000000818701526200009c620003e9565b90600382526208888960eb1b81830152865194848611620003ce576000958654986001998a81811c91168015620003c3575b85821014620003af579081878493116200035c575b508490878311600114620002fb578992620002ef575b5050600019600383901b1c191690891b1786555b8251948511620002db5787548881811c91168015620002d0575b83821014620002bc5790818587969594931162000263575b5081938511600114620001fe5750508492620001f2575b5050600019600383901b1c191690841b1783555b8115620001da57600680546001600160a01b0319811684179091556040519416907f8be0079c531659141344cd1fd0a4f28419497f9722a3daafe3b4186f6b6457e09080a380600755671bc16d674ec80000601255660110d9316ec00060135560115561367190816200040a8239f35b60249060405190631e4fbdf760e01b82526004820152fd5b01519050388062000156565b889593929193168587528387209387905b8282106200024957505084116200022f575b505050811b0183556200016a565b015160001960f88460031b161c1916905538808062000221565b8484015186558a979095019493840193908101906200020f565b9091929394508887528287208580880160051c820192858910620002b2575b9188978c9297969594930160051c01915b828110620002a35750506200013f565b8981558897508b910162000293565b9250819262000282565b634e487b7160e01b87526022600452602487fd5b90607f169062000127565b634e487b7160e01b86526041600452602486fd5b015190503880620000f9565b90848c9416918a8052868b20928b5b888282106200034557505084116200032b575b505050811b0186556200010d565b015160001960f88460031b161c191690553880806200031d565b8385015186558f979095019493840193016200030a565b9091508880528489208780850160051c820192878610620003a5575b918d91869594930160051c01915b82811062000396575050620000e3565b8b81558594508d910162000386565b9250819262000378565b634e487b7160e01b89526022600452602489fd5b90607f1690620000ce565b634e487b7160e01b600052604160045260246000fd5b600080fd5b60408051919082016001600160401b03811183821017620003ce5760405256fe60406080815260049081361015610020575b5050361561001e57600080fd5b005b600091823560e01c80622144f6146123b657806268f22e1461235257806301ffc9a71461229957806306fdde03146121f1578063081812fc146121b8578063095ea7b3146120c557806312e8e2c3146120a35780631cbb4131146120515780631dafec0014611f2957806323b872dd14611f1157806326232a2e14611ef25780632a32e8d414611e665780633f4ba83a14611de457806342842e0e14611db55780634350772c14611d8d5780634403940214611d6557806355f804b314611bbf5780635c975abb14611b9b5780636352211e14611b6b57806367cfab5814611b435780636a6cdc6c14611acf5780636ab1b29b14611a635780636aef50691461190a5780636c0360eb1461186057806370a08231146117f2578063715018a61461179757806373b31190146117505780637a33eabc146116ec5780638456cb59146116915780638da5cb5b14611669578063938e3d7b1461149f57806395d89b41146113ce5780639b41886c146113af578063a22cb465146112f0578063b1d78c9a146112c9578063b88d4fde14611256578063c1b39a3e1461122e578063c47d4357146111ab578063c87b56dd14610ee4578063c886015d14610aeb578063d0fdcc091461061a578063d6042eb814610528578063db4b8268146104bd578063dc7d73bb1461048d578063e8601c6614610422578063e8a3d48514610335578063e985e9c5146102e05763f2fde38b1461023b5750610011565b346102dc5760203660031901126102dc576102546124bf565b9061025d61270c565b6001600160a01b038092169283156102ad575050600654826001600160a01b0319821617600655167f8be0079c531659141344cd1fd0a4f28419497f9722a3daafe3b4186f6b6457e0600080a380f35b908460249251917f1e4fbdf7000000000000000000000000000000000000000000000000000000008352820152fd5b8280fd5b5050346103315780600319360112610331576020916102fd6124bf565b826103066124d5565b926001600160a01b03809316815260058652209116600052825260ff81600020541690519015158152f35b5080fd5b82843461041f578060031936011261041f57508051600091600a546103598161269e565b808452906001908181169081156103f7575060011461039a575b5050610384826103969403836125d2565b5191829160208352602083019061250e565b0390f35b600a600090815294507fc65a7bb8d6351c1cf70c95a316cc6a92839c986682d98bc35f958f4883f9d2a85b8286106103df575050509181016020019161038482610373565b805460208787018101919091529095019481016103c5565b610396965085925060209150926103849360ff191682840152151560051b8201019450610373565b80fd5b5050346103315760203660031901126103315760ff8160a0936001600160a01b0361044b6124bf565b168152601460205220805492600260018301549201549181519485526020850152828216151590840152818160081c16606084015260101c1615156080820152f35b50346102dc5760203660031901126102dc57816020936001600160a01b0392358152601085522054169051908152f35b833461041f57602036600319011261041f576104d76124bf565b6104df61270c565b6001600160a01b0380911690816001600160a01b0319600d541617600d55600c54167f14662a0fccd762a05d5e1fa6afdd204554c4cf90fe58b5c5947f664fb71925f58380a380f35b505034610331576020918260031936011261041f5781610396916001600160a01b036105526124bf565b606060a085516105618161259a565b858152858a820152858782015285838201528560808201520152168152601485522082519261058f8461259a565b8154845260ff60018301549286860193845260028101549280870190838516151582526105d8600360608a0194868860081c1686528660808c019860101c161515885201612fd2565b9560a089019687528151998a99818b5251908a0152519088015251151560608701525116608085015251151560a08401525160c08084015260e08301906126d8565b509060209081600319360112610ae757823591610635612f97565b61063d612f61565b82151580610adc575b61064f90612aaf565b3385526014815261066d828620805415908115610acd575b50612b20565b6106768361352b565b9361068384601354612b91565b3410610a6657856001600160a01b0395828488600c54168751928380927f29bdca370000000000000000000000000000000000000000000000000000000082525afa908115610a5c579088918491610a22575b501690813b156102dc5785517fd064ff190000000000000000000000000000000000000000000000000000000081523385820190815260208101929092529291839182908490829060400103925af18015610959576109f4575b50858261073c86612bba565b96825b878110610963575085513360601b6bffffffffffffffffffffffff1916838201908152601481018990526107d8929161078581603484015b03601f1981018352826125d2565b51902090600f541690610799821515612c25565b875194858094819363435639fb60e11b8352338a8401606090939291936001600160a01b03608082019516815260016020820152600560408201520152565b03925af1908115610959578791610927575b50865260108252828620336001600160a01b03198254161790558251946108108661259a565b8486526003838701963488528581018981526060820160058152608083019060019a8b835260a08501968752338d5260148952898d2094518555518b85015561086c6002850193511515849060ff801983541691151516179055565b519061ff0062ff000084549251151560101b169260081b169062ffff0019161717905501905180519267ffffffffffffffff84116109145750918387936108b68385989795612c87565b019488528188209488955b8287106108ff575050507f61e364e3eabc785119e074fc551f39d64063d113dd457cccf0f14a6fcb3ede4f935082519485528401523392a260075580f35b815187820155959093019487938301906108c1565b886041602492634e487b7160e01b835252fd5b90508281813d8311610952575b61093e81836125d2565b8101031261094d5751386107ea565b600080fd5b503d610934565b84513d89823e3d90fd5b9092506109eb91506109e6601180549061097c82612bec565b905580610989848c612bfb565b526109948133612d42565b60028851916109a283612568565b8c83528c60ff8b8b860192808452818701948186528152600b8d522094511660ff1985541617845551600184015551151591019060ff801983541691151516179055565b612bec565b8791849161073f565b67ffffffffffffffff8197929711610a0f5783529438610730565b602482604189634e487b7160e01b835252fd5b809250868092503d8311610a55575b610a3b81836125d2565b810103126102dc575187811681036102dc578790386106d6565b503d610a31565b86513d85823e3d90fd5b90608492519162461bcd60e51b8352820152602760248201527f4865726f3a20496e73756666696369656e742076616c756520666f722076617560448201527f6c74206d696e74000000000000000000000000000000000000000000000000006064820152fd5b60ff9150600201541638610667565b506032831115610646565b8380fd5b509060209081600319360112610ae757823591610b06612f97565b610b0e612f61565b82151580610ed9575b610b2090612aaf565b33855260148152610b3d828620805415908115610acd5750612b20565b610b468361352b565b610b5284601354612b91565b3410610e71576001600160a01b0380600d5416918451907f23b872dd000000000000000000000000000000000000000000000000000000008583015233602483015230604483015260648201526064815260a081019267ffffffffffffffff9382811085821117610e5e578652610bc99190612cc2565b610bd285612bba565b9083885b878110610dd7575085513360601b6bffffffffffffffffffffffff191682820190815260148101899052610c669391610c128160348401610777565b51902090600f5416610c25811515612c25565b898b895180968195829463435639fb60e11b845233908401606090939291936001600160a01b03608082019516815260016020820152600560408201520152565b03925af1908115610dcd578891610d9c575b50875260108352838720336001600160a01b0319825416179055835195610c9e8761259a565b8587526003848801973489528681018a8152606082019960058b5260808301908c825260a08401968752338d5260148952898d2093518455519a60019b8c850155610cfc6002850193511515849060ff801983541691151516179055565b519061ff0062ff000084549251151560101b169260081b169062ffff001916171790550191519081519384116109145750908383959492610d3e8a9584612c87565b0190835281832087845b878110610d8757505050507f61e364e3eabc785119e074fc551f39d64063d113dd457cccf0f14a6fcb3ede4f935082519485528401523392a260075580f35b8351838201558a955092840192899101610d48565b90508381813d8311610dc6575b610db381836125d2565b81010312610dc2575138610c78565b8780fd5b503d610da9565b85513d8a823e3d90fd5b610e5791506109e68a60026011805490610df082612bec565b905580610dfd868a612bfb565b52610e088133612d42565b8960ff8c805195610e1887612568565b808752600b84880194828652838901968388528352522094511660ff1985541617845551600184015551151591019060ff801983541691151516179055565b8490610bd6565b60248a60418b634e487b7160e01b835252fd5b6084858385519162461bcd60e51b8352820152602360248201527f4865726f3a20496e73756666696369656e74207061796d656e742070726f766960448201527f64656400000000000000000000000000000000000000000000000000000000006064820152fd5b506032831115610b17565b50919034610331576020918260031936011261041f57833590610f0682612928565b5060095494610f148661269e565b1561116957829082907a184f03e93ff9f4daa797ed6e38ed64bf6a1f010000000000000000838181101561115c575b5050866d04ee2d6d415b85acef81000000008085101561114d575b5050662386f26fc100008084101561113e575b506305f5e1008084101561112f575b5061271080841015611123575b50506064821015611115575b600a8092101561110d575b60019182820190610fcc610fb78361260c565b92610fc4895194856125d2565b80845261260c565b958460218a850195601f19809a01368837850101905b6110d1575b50505085519784899594610ffa8361269e565b928a82821691826000146110aa57505060011461104a575b505050918061102e61103b9593610396989795519384916124eb565b01039081018652856125d2565b5192828493845283019061250e565b8993949550600982527f6e1540171b6c0c960b71a7020d9f60077f6af931a8bbf590da0223dacf75c7af5b8383106110905750505084010191908061102e610396611012565b80549783018501979097528a968a94909201918101611075565b60ff1916898201528415159094028801909301955083925061102e91506103969050611012565b600019019082907f30313233343536373839616263646566000000000000000000000000000000008282061a835304908582610fe25750610fe7565b600101610fa4565b906064600291049101610f99565b90920491013880610f8d565b60089192930492019038610f80565b60109192930492019038610f71565b90919293049201908638610f5e565b0492508591503880610f43565b6064908585519162461bcd60e51b8352820152601d60248201527f4865726f3a204261736520555249206e6f7420636f6e666967757265640000006044820152fd5b5090346102dc57826003193601126102dc576111c561270c565b828080806001600160a01b036006541647905af16111e1612963565b50156111eb578280f35b906020606492519162461bcd60e51b8352820152601960248201527f4865726f3a20455448207472616e73666572206661696c6564000000000000006044820152fd5b5050346103315781600319360112610331576020906001600160a01b03600f54169051908152f35b838234610331576080366003190112610331576112716124bf565b6112796124d5565b6044359060643567ffffffffffffffff81116112c557366023820112156112c5576112c2948160246112b093369301359101612628565b926112bc838383612750565b33612993565b80f35b8580fd5b50913461041f57602036600319011261041f57506112e96020923561352b565b9051908152f35b5090346102dc57806003193601126102dc5761130a6124bf565b90602435801515928382036112c5576001600160a01b031693841561138057506113539033865260056020528286208587526020528286209060ff801983541691151516179055565b519081527f17307eab39ab6107e8899845ad3d59bd9653f200f220920489ca2b5937696c3160203392a380f35b602490858451917f5b08ba18000000000000000000000000000000000000000000000000000000008352820152fd5b5050346103315781600319360112610331576020906012549051908152f35b5050346103315781600319360112610331578051908260018054916113f28361269e565b80865292828116908115611477575060011461141b575b505050610384826103969403836125d2565b94508085527fb10e2d527612073b26eecdfd717e6a320cf44b4afac2b0732d9fcbe2b7fa0cf65b82861061145f575050506103848260206103969582010194611409565b80546020878701810191909152909501948101611442565b61039697508693506020925061038494915060ff191682840152151560051b82010194611409565b50919034610331576114b03661265f565b906114b961270c565b81519367ffffffffffffffff851161165657506114d7600a5461269e565b601f81116115fd575b50602093601f8111600114611557579081611546939285967f905d981207a7d0b6c62cc46ab0be2a076d0298e4a86d0ab79882dbd01ac37378969161154c575b508160011b916000199060031b1c191617600a555191829160208352602083019061250e565b0390a180f35b905083015138611520565b600a84527fc65a7bb8d6351c1cf70c95a316cc6a92839c986682d98bc35f958f4883f9d2a8601f198216855b8181106115e55750916001917f905d981207a7d0b6c62cc46ab0be2a076d0298e4a86d0ab79882dbd01ac37378969782611546979695106115cc575b5050811b01600a55610384565b85015160001960f88460031b161c1916905538806115bf565b85880151835560209788019760019093019201611583565b61164690600a85527fc65a7bb8d6351c1cf70c95a316cc6a92839c986682d98bc35f958f4883f9d2a8601f870160051c8101916020881061164c575b601f0160051c0190612c70565b386114e0565b9091508190611639565b836041602492634e487b7160e01b835252fd5b5050346103315781600319360112610331576020906001600160a01b03600654169051908152f35b50503461033157816003193601126103315760207f62e78cea01bee320cd4e420270b5ea74000d11b0c9f74754ebdbfc544b05a258916116cf61270c565b6116d7612f61565b600160ff19600854161760085551338152a180f35b833461041f57602036600319011261041f576001600160a01b0361170e6124bf565b61171661270c565b16806001600160a01b0319600f541617600f557feda44c694e75c8161562f6179238b37a8daa291b6b2229613ed903ed92ab2d3d8280a280f35b50346102dc5760203660031901126102dc576060928291358152600b602052209060ff8254169160ff60026001830154920154169082519384526020840152151590820152f35b833461041f578060031936011261041f576117b061270c565b806001600160a01b036006546001600160a01b03198116600655167f8be0079c531659141344cd1fd0a4f28419497f9722a3daafe3b4186f6b6457e08280a380f35b50913461041f57602036600319011261041f576001600160a01b036118156124bf565b169283156118325750806020938392526003845220549051908152f35b9060249251917f89c62b64000000000000000000000000000000000000000000000000000000008352820152fd5b505034610331578160031936011261033157805190826009546118828161269e565b8085529160019180831690811561147757506001146118ad57505050610384826103969403836125d2565b9450600985527f6e1540171b6c0c960b71a7020d9f60077f6af931a8bbf590da0223dacf75c7af5b8286106118f2575050506103848260206103969582010194611409565b805460208787018101919091529095019481016118d5565b5090346102dc5760209081600319360112610ae75782359182856001600160a01b0361193b81600e541633146134ba565b61194483612928565b838352600b8552837f4ea24cce0fda81cee15bace7541c9ae5cc434fe4b80d5065b70dbae17db1a05183888620936119ba898b5161198181612568565b875460ff90811680835260018a0154938301849052600290990154161515908d01528b5196875260208701529116939081906040820190565b0390a382825260028452848220541660028115948515611a2b575b848452528482206001600160a01b031981541690557fddf252ad1be2c89b69c2b068fc378daa952ba7f163c4a11628f55a4df523b3ef8280a4611a16578380f35b602493505191637e27328960e01b8352820152fd5b611a4c85600052600460205260406000206001600160a01b03198154169055565b8284526003815286842080546000190190556119d5565b833461041f57602036600319011261041f57611a7d6124bf565b611a8561270c565b6001600160a01b0380911690816001600160a01b0319600c541617600c55600d5416907f14662a0fccd762a05d5e1fa6afdd204554c4cf90fe58b5c5947f664fb71925f58380a380f35b50346102dc5760203660031901126102dc5791819235611aee81612928565b508152600b6020522090610396815191611b0783612568565b60ff845416928381528160ff6002600188015497886020860152015416151591015251928392836020909392919360ff60408201951681520152565b5050346103315781600319360112610331576020906001600160a01b03600c54169051908152f35b50913461041f57602036600319011261041f57506001600160a01b03611b9360209335612928565b915191168152f35b50503461033157816003193601126103315760209060ff6008541690519015158152f35b5091903461033157611bd03661265f565b90611bd961270c565b81519367ffffffffffffffff85116116565750611bf760095461269e565b601f8111611d17575b50602093601f8111600114611c71579081611546939285967ff9c7803e94e0d3c02900d8a90893a6d5e90dd04d32a4cfe825520f82bf9f32f69691611c66575b508160011b916000199060031b1c1916176009555191829160208352602083019061250e565b905083015138611c40565b600984527f6e1540171b6c0c960b71a7020d9f60077f6af931a8bbf590da0223dacf75c7af601f198216855b818110611cff5750916001917ff9c7803e94e0d3c02900d8a90893a6d5e90dd04d32a4cfe825520f82bf9f32f696978261154697969510611ce6575b5050811b01600955610384565b85015160001960f88460031b161c191690553880611cd9565b85880151835560209788019760019093019201611c9d565b611d5f90600985527f6e1540171b6c0c960b71a7020d9f60077f6af931a8bbf590da0223dacf75c7af601f870160051c8101916020881061164c57601f0160051c0190612c70565b38611c00565b5050346103315781600319360112610331576020906001600160a01b03600d54169051908152f35b5050346103315781600319360112610331576020906001600160a01b03600e54169051908152f35b505034610331576112c290611dc936612533565b91925192611dd6846125b6565b8584526112bc838383612750565b50346102dc57826003193601126102dc57611dfd61270c565b6008549060ff821615611e3f575060ff1916600855513381527f5db9ee0a495bf2e6ff9c91a7834c1ba4fdd244a5e8aa4e537bd38aeae4b073aa90602090a180f35b82517f8dfc202b000000000000000000000000000000000000000000000000000000008152fd5b509190346103315780600319360112610331576024359267ffffffffffffffff84116102dc57366023850112156102dc578381013593611eb1611ea8866125f4565b935193846125d2565b84835260209460248685019160051b830101913683116112c557602401905b828210611ee357856112c2868635613021565b81358152908601908601611ed0565b5050346103315781600319360112610331576020906013549051908152f35b833461041f576112c2611f2336612533565b91612750565b50346102dc57826003193601126102dc57611f4261270c565b6001600160a01b0380600d5416908351927f70a082310000000000000000000000000000000000000000000000000000000084523090840152602083602481855afa928315612047578593612010575b5082611f9c578480f35b61200893611ff5612003926006541691519485927fa9059cbb00000000000000000000000000000000000000000000000000000000602085015260248401602090939291936001600160a01b0360408201951681520152565b03601f1981018452836125d2565b612cc2565b388080808480f35b9092506020813d821161203f575b8161202b602093836125d2565b8101031261203b57519138611f92565b8480fd5b3d915061201e565b84513d87823e3d90fd5b8382346103315760203660031901126103315780359061206f61270c565b670de0b6b3a764000091828102928184041490151715612090575060125580f35b826011602492634e487b7160e01b835252fd5b838234610331576020366003190112610331576120be61270c565b3560135580f35b5090346102dc57806003193601126102dc576120df6124bf565b916024356120ec81612928565b331515806121a5575b8061217d575b61214e5781906001600160a01b03809616958691167f8c5be1e5ebec7d5bd14f71427d1e84f3dd0314c0f7b2291e5b200ac8c7c3b9258880a484526020528220906001600160a01b031982541617905580f35b83517fa9fbf51f0000000000000000000000000000000000000000000000000000000081523381850152602490fd5b506001600160a01b0381168652600560205283862033875260205260ff8487205416156120fb565b50336001600160a01b03821614156120f5565b50346102dc5760203660031901126102dc5781602093826001600160a01b0393356121e281612928565b50825285522054169051908152f35b5050346103315781600319360112610331578051908280546122128161269e565b80855291600191808316908115611477575060011461223d57505050610384826103969403836125d2565b80809650527f290decd9548b62a8d60345a988386fc84ba6bc95484008f6362f93160ef3e5635b828610612281575050506103848260206103969582010194611409565b80546020878701810191909152909501948101612264565b50346102dc5760203660031901126102dc5735906001600160e01b031982168092036102dc57602092507f80ac58cd000000000000000000000000000000000000000000000000000000008214918215612328575b82156122fe575b50519015158152f35b7f01ffc9a700000000000000000000000000000000000000000000000000000000149150386122f5565b7f5b5e139f00000000000000000000000000000000000000000000000000000000811492506122ee565b833461041f57602036600319011261041f576001600160a01b036123746124bf565b61237c61270c565b16806001600160a01b0319600e541617600e557f088c5ec3908e3424c43d8102e8e1cc8eb8820a25e326b9c31cc58963046b92e98280a280f35b505034610331576060366003190112610331576123d16124bf565b6024359060ff82169081830361203b57937f57c4a553ea4024e9d030303a99f6e58dad3e8267764f90605b4a2c968e3b237e60029493926020966124b66044356124836001600160a01b039461242c86600e541633146134ba565b6011549a8b988b519261243e84612568565b83528d830185815260ff8d80860193600185528d81526020600b90522094511660ff1985541617845551600184015551151591019060ff801983541691151516179055565b61248d8684612d42565b612498601154612bec565b601155875160ff909716875260208701529116939081906040820190565b0390a351908152f35b600435906001600160a01b038216820361094d57565b602435906001600160a01b038216820361094d57565b60005b8381106124fe5750506000910152565b81810151838201526020016124ee565b90602091612527815180928185528580860191016124eb565b601f01601f1916010190565b606090600319011261094d576001600160a01b0390600435828116810361094d5791602435908116810361094d579060443590565b6060810190811067ffffffffffffffff82111761258457604052565b634e487b7160e01b600052604160045260246000fd5b60c0810190811067ffffffffffffffff82111761258457604052565b6020810190811067ffffffffffffffff82111761258457604052565b90601f8019910116810190811067ffffffffffffffff82111761258457604052565b67ffffffffffffffff81116125845760051b60200190565b67ffffffffffffffff811161258457601f01601f191660200190565b9291926126348261260c565b9161264260405193846125d2565b82948184528183011161094d578281602093846000960137010152565b602060031982011261094d576004359067ffffffffffffffff821161094d578060238301121561094d5781602461269b93600401359101612628565b90565b90600182811c921680156126ce575b60208310146126b857565b634e487b7160e01b600052602260045260246000fd5b91607f16916126ad565b90815180825260208080930193019160005b8281106126f8575050505090565b8351855293810193928101926001016126ea565b6001600160a01b0360065416330361272057565b60246040517f118cdaa7000000000000000000000000000000000000000000000000000000008152336004820152fd5b90916001600160a01b038093169283156129105760009282845282602095600287526040968488882054169687913315158061285e575b509060027fddf252ad1be2c89b69c2b068fc378daa952ba7f163c4a11628f55a4df523b3ef9284612826575b858352600381528b83206001815401905586835252898120846001600160a01b031982541617905580a416928383036127ec5750505050565b6064945051927f64283d7b000000000000000000000000000000000000000000000000000000008452600484015260248301526044820152fd5b61284787600052600460205260406000206001600160a01b03198154169055565b848352600381528b832080546000190190556127b3565b919394509150806128cf575b1561287a57859291879138612787565b878688612897576024915190637e27328960e01b82526004820152fd5b90517f177e802f0000000000000000000000000000000000000000000000000000000081523360048201526024810191909152604490fd5b5033871480156128f4575b8061286a575085825260048152338589842054161461286a565b5086825260058152878220338352815260ff88832054166128da565b6024604051633250574960e11b815260006004820152fd5b8060005260026020526001600160a01b036040600020541690811561294b575090565b60249060405190637e27328960e01b82526004820152fd5b3d1561298e573d906129748261260c565b9161298260405193846125d2565b82523d6000602084013e565b606090565b9293823b6129a3575b5050505050565b6129e8906001600160a01b038094169560405194859481630a85bd0160e11b98898852166004870152166024850152604484015260806064840152608483019061250e565b03906020816000938185885af190829082612a67575b5050612a355782612a0d612963565b8051919082612a2e5760248260405190633250574960e11b82526004820152fd5b6020915001fd5b6001600160e01b03191603612a4f5750388080808061299c565b60249060405190633250574960e11b82526004820152fd5b909192506020813d8211612aa7575b81612a83602093836125d2565b810103126103315751906001600160e01b03198216820361041f57509038806129fe565b3d9150612a76565b15612ab657565b608460405162461bcd60e51b815260206004820152603160248201527f4865726f3a20496e76616c6964207175616e74697479202d206d75737420626560448201527f206265747765656e203120616e642035300000000000000000000000000000006064820152fd5b15612b2757565b608460405162461bcd60e51b815260206004820152602960248201527f4865726f3a2050726576696f7573206d696e742072657175657374207374696c60448201527f6c2070656e64696e6700000000000000000000000000000000000000000000006064820152fd5b81810292918115918404141715612ba457565b634e487b7160e01b600052601160045260246000fd5b90612bc4826125f4565b612bd160405191826125d2565b8281528092612be2601f19916125f4565b0190602036910137565b6000198114612ba45760010190565b8051821015612c0f5760209160051b010190565b634e487b7160e01b600052603260045260246000fd5b15612c2c57565b606460405162461bcd60e51b815260206004820152601260248201527f565246206e6f7420636f6e6669677572656400000000000000000000000000006044820152fd5b818110612c7b575050565b60008155600101612c70565b9068010000000000000000811161258457815490808355818110612caa57505050565b612cc09260005260206000209182019101612c70565b565b906000602091828151910182855af115612d36576000513d612d2d57506001600160a01b0381163b155b612cf35750565b6024906001600160a01b03604051917f5274afe7000000000000000000000000000000000000000000000000000000008352166004820152fd5b60011415612cec565b6040513d6000823e3d90fd5b6040805192612d50846125b6565b60008085526001600160a01b0394858516948515612f4a5783835260209660028852858420541684878215159283612f12575b81875260038b528887206001815401905582875260028b52888720826001600160a01b03198254161790557fddf252ad1be2c89b69c2b068fc378daa952ba7f163c4a11628f55a4df523b3ef8780a4612ee2573b612de4575b505050505050565b85612e219185969798955180938192630a85bd0160e11b97888452336004850152876024850152604484015260806064840152608483019061250e565b0381858a5af190829082612e9e575b5050612e6757505050612e41612963565b8051939084612e6157602484845190633250574960e11b82526004820152fd5b84925001fd5b6001600160e01b0319919295501603612e87575050388080808080612ddc565b602492505190633250574960e11b82526004820152fd5b909192508781813d8311612edb575b612eb781836125d2565b810103126103315751906001600160e01b03198216820361041f5750903880612e30565b503d612ead565b6024838651907f73c6ac6e0000000000000000000000000000000000000000000000000000000082526004820152fd5b612f3383600052600460205260406000206001600160a01b03198154169055565b80875260038b528887208054600019019055612d83565b602483865190633250574960e11b82526004820152fd5b60ff60085416612f6d57565b60046040517fd93c0665000000000000000000000000000000000000000000000000000000008152fd5b600260075414612fa8576002600755565b60046040517f3ee5aeb5000000000000000000000000000000000000000000000000000000008152fd5b9060405191828154918282526020928383019160005283600020936000905b82821061300757505050612cc0925003836125d2565b855484526001958601958895509381019390910190612ff1565b91906001600160a01b03600f541633036134b5578051156134b5578260005260106020526001600160a01b03604060002054169081156134af57816000526014602052604060002092600284015460ff81166134a75760ff1916600117600285015561308f60038501612fd2565b91805115612c0f57602001519460005b85548110156133ea576130b28185612bfb565b51856001600160a01b036130c583612928565b16036133e05760405188602082015281604082015260608381830152815280608081011067ffffffffffffffff6080830111176125845760808101604052805160208201206064808206602c8110156133a457506001925b60ff84166001036131fd575050602490818106600f01600f116131e85788926131e39594927f57c4a553ea4024e9d030303a99f6e58dad3e8267764f90605b4a2c968e3b237e9206600f01905b6131c960405161317981612568565b60ff8316815260026020820185815260408301906001825288600052600b60205260ff604060002094511660ff1985541617845551600184015551151591019060ff801983541691151516179055565b6040805160ff9290921682526020820192909252a3612bec565b61309f565b50634e487b7160e01b60005260116004526000fd5b600260ff859796949516146000146132525750506032916033810683018311612ba4576131e394899360337f57c4a553ea4024e9d030303a99f6e58dad3e8267764f90605b4a2c968e3b237e9306019061316a565b90929060ff861660030361329f57506033810683018311612ba4576131e394899360337f57c4a553ea4024e9d030303a99f6e58dad3e8267764f90605b4a2c968e3b237e9306019061316a565b919394926004928360ff86161460001461330e57505060969160338206830183116132f9575088926131e395949260337f57c4a553ea4024e9d030303a99f6e58dad3e8267764f90605b4a2c968e3b237e9306019061316a565b601190634e487b7160e01b6000525260246000fd5b60ff851660050361335f57505060c89160388206830183116132f9575088926131e395949260387f57c4a553ea4024e9d030303a99f6e58dad3e8267764f90605b4a2c968e3b237e9306019061316a565b8062461bcd60e51b60808093015260206084820152601a60a48201527f4865726f3a20496e76616c6964207261726974792076616c756500000000000060c482015201fd5b604f8110156133b6575060029261311d565b605e8110156133c8575060039261311d565b606311156133d85760049261311d565b60059261311d565b506131e390612bec565b5092937f0908417bb2d0393a45bf6efe35cecf8dbedbab1767b8d95f650094c6ccd1d0ac91955091849261344360ff6002835493015460081c1692604051938493845260208401526060604084015260608301906126d8565b0390a2600052601060205260406000206001600160a01b031981541690556000526014602052600360406000206000815560006001820155600060028201550180546000825580613492575050565b612cc091600052602060002090810190612c70565b509350505050565b50509050565b509050565b156134c157565b608460405162461bcd60e51b815260206004820152603760248201527f4865726f3a204e6f7420617574686f72697a6564202d206f6e6c7920416c746160448201527f72206f6620417363656e73696f6e2063616e2063616c6c0000000000000000006064820152fd5b906001600160a01b03600c54169182156135d15780156135ca5760206012546024604051809681937f7b2e0fcf00000000000000000000000000000000000000000000000000000000835260048301525afa928315612d3657600093613597575b5061269b9192612b91565b6020813d82116135c2575b816135af602093836125d2565b81010312610ae75751925061269b61358c565b3d91506135a2565b5060009150565b608460405162461bcd60e51b815260206004820152602260248201527f4865726f3a2044756e67656f6e436f726520636f6e7472616374206e6f74207360448201527f65740000000000000000000000000000000000000000000000000000000000006064820152fdfea26469706673582212205cdf06a53f48eb2b4f3e2111ae6cdc6069f55b80ceeb2910f8c6ddcb0a19c5e464736f6c63430008140033",
  "linkReferences": {},
  "deployedLinkReferences": {}
}