{
  "_format": "hh-sol-artifact-1",
  "contractName": "VIPStaking",
  "sourceName": "contracts/current/nft/VIPStaking.sol",
  "abi": [
    {
      "inputs": [
        {
          "internalType": "address",
          "name": "initialOwner",
          "type": "address"
        }
      ],
      "stateMutability": "nonpayable",
      "type": "constructor"
    },
    {
      "inputs": [
        {
          "internalType": "address",
          "name": "sender",
          "type": "address"
        },
        {
          "internalType": "uint256",
          "name": "tokenId",
          "type": "uint256"
        },
        {
          "internalType": "address",
          "name": "owner",
          "type": "address"
        }
      ],
      "name": "ERC721IncorrectOwner",
      "type": "error"
    },
    {
      "inputs": [
        {
          "internalType": "address",
          "name": "operator",
          "type": "address"
        },
        {
          "internalType": "uint256",
          "name": "tokenId",
          "type": "uint256"
        }
      ],
      "name": "ERC721InsufficientApproval",
      "type": "error"
    },
    {
      "inputs": [
        {
          "internalType": "address",
          "name": "approver",
          "type": "address"
        }
      ],
      "name": "ERC721InvalidApprover",
      "type": "error"
    },
    {
      "inputs": [
        {
          "internalType": "address",
          "name": "operator",
          "type": "address"
        }
      ],
      "name": "ERC721InvalidOperator",
      "type": "error"
    },
    {
      "inputs": [
        {
          "internalType": "address",
          "name": "owner",
          "type": "address"
        }
      ],
      "name": "ERC721InvalidOwner",
      "type": "error"
    },
    {
      "inputs": [
        {
          "internalType": "address",
          "name": "receiver",
          "type": "address"
        }
      ],
      "name": "ERC721InvalidReceiver",
      "type": "error"
    },
    {
      "inputs": [
        {
          "internalType": "address",
          "name": "sender",
          "type": "address"
        }
      ],
      "name": "ERC721InvalidSender",
      "type": "error"
    },
    {
      "inputs": [
        {
          "internalType": "uint256",
          "name": "tokenId",
          "type": "uint256"
        }
      ],
      "name": "ERC721NonexistentToken",
      "type": "error"
    },
    {
      "inputs": [],
      "name": "EnforcedPause",
      "type": "error"
    },
    {
      "inputs": [],
      "name": "ExpectedPause",
      "type": "error"
    },
    {
      "inputs": [
        {
          "internalType": "address",
          "name": "owner",
          "type": "address"
        }
      ],
      "name": "OwnableInvalidOwner",
      "type": "error"
    },
    {
      "inputs": [
        {
          "internalType": "address",
          "name": "account",
          "type": "address"
        }
      ],
      "name": "OwnableUnauthorizedAccount",
      "type": "error"
    },
    {
      "inputs": [],
      "name": "ReentrancyGuardReentrantCall",
      "type": "error"
    },
    {
      "inputs": [
        {
          "internalType": "address",
          "name": "token",
          "type": "address"
        }
      ],
      "name": "SafeERC20FailedOperation",
      "type": "error"
    },
    {
      "anonymous": false,
      "inputs": [
        {
          "indexed": true,
          "internalType": "address",
          "name": "owner",
          "type": "address"
        },
        {
          "indexed": true,
          "internalType": "address",
          "name": "approved",
          "type": "address"
        },
        {
          "indexed": true,
          "internalType": "uint256",
          "name": "tokenId",
          "type": "uint256"
        }
      ],
      "name": "Approval",
      "type": "event"
    },
    {
      "anonymous": false,
      "inputs": [
        {
          "indexed": true,
          "internalType": "address",
          "name": "owner",
          "type": "address"
        },
        {
          "indexed": true,
          "internalType": "address",
          "name": "operator",
          "type": "address"
        },
        {
          "indexed": false,
          "internalType": "bool",
          "name": "approved",
          "type": "bool"
        }
      ],
      "name": "ApprovalForAll",
      "type": "event"
    },
    {
      "anonymous": false,
      "inputs": [
        {
          "indexed": false,
          "internalType": "string",
          "name": "newBaseURI",
          "type": "string"
        }
      ],
      "name": "BaseURISet",
      "type": "event"
    },
    {
      "anonymous": false,
      "inputs": [
        {
          "indexed": false,
          "internalType": "string",
          "name": "newContractURI",
          "type": "string"
        }
      ],
      "name": "ContractURIUpdated",
      "type": "event"
    },
    {
      "anonymous": false,
      "inputs": [
        {
          "indexed": true,
          "internalType": "address",
          "name": "newAddress",
          "type": "address"
        }
      ],
      "name": "DungeonCoreSet",
      "type": "event"
    },
    {
      "anonymous": false,
      "inputs": [
        {
          "indexed": true,
          "internalType": "address",
          "name": "previousOwner",
          "type": "address"
        },
        {
          "indexed": true,
          "internalType": "address",
          "name": "newOwner",
          "type": "address"
        }
      ],
      "name": "OwnershipTransferred",
      "type": "event"
    },
    {
      "anonymous": false,
      "inputs": [
        {
          "indexed": false,
          "internalType": "address",
          "name": "account",
          "type": "address"
        }
      ],
      "name": "Paused",
      "type": "event"
    },
    {
      "anonymous": false,
      "inputs": [
        {
          "indexed": true,
          "internalType": "address",
          "name": "newAddress",
          "type": "address"
        }
      ],
      "name": "SoulShardTokenSet",
      "type": "event"
    },
    {
      "anonymous": false,
      "inputs": [
        {
          "indexed": true,
          "internalType": "address",
          "name": "user",
          "type": "address"
        },
        {
          "indexed": false,
          "internalType": "uint256",
          "name": "amount",
          "type": "uint256"
        },
        {
          "indexed": false,
          "internalType": "uint256",
          "name": "tokenId",
          "type": "uint256"
        }
      ],
      "name": "Staked",
      "type": "event"
    },
    {
      "anonymous": false,
      "inputs": [
        {
          "indexed": true,
          "internalType": "address",
          "name": "from",
          "type": "address"
        },
        {
          "indexed": true,
          "internalType": "address",
          "name": "to",
          "type": "address"
        },
        {
          "indexed": true,
          "internalType": "uint256",
          "name": "tokenId",
          "type": "uint256"
        }
      ],
      "name": "Transfer",
      "type": "event"
    },
    {
      "anonymous": false,
      "inputs": [
        {
          "indexed": false,
          "internalType": "address",
          "name": "account",
          "type": "address"
        }
      ],
      "name": "Unpaused",
      "type": "event"
    },
    {
      "anonymous": false,
      "inputs": [
        {
          "indexed": true,
          "internalType": "address",
          "name": "user",
          "type": "address"
        },
        {
          "indexed": false,
          "internalType": "uint256",
          "name": "amount",
          "type": "uint256"
        }
      ],
      "name": "UnstakeClaimed",
      "type": "event"
    },
    {
      "anonymous": false,
      "inputs": [
        {
          "indexed": true,
          "internalType": "address",
          "name": "user",
          "type": "address"
        },
        {
          "indexed": false,
          "internalType": "uint256",
          "name": "amount",
          "type": "uint256"
        },
        {
          "indexed": false,
          "internalType": "uint256",
          "name": "availableAt",
          "type": "uint256"
        }
      ],
      "name": "UnstakeRequested",
      "type": "event"
    },
    {
      "inputs": [
        {
          "internalType": "address",
          "name": "",
          "type": "address"
        },
        {
          "internalType": "uint256",
          "name": "",
          "type": "uint256"
        }
      ],
      "name": "approve",
      "outputs": [],
      "stateMutability": "pure",
      "type": "function"
    },
    {
      "inputs": [
        {
          "internalType": "address",
          "name": "owner",
          "type": "address"
        }
      ],
      "name": "balanceOf",
      "outputs": [
        {
          "internalType": "uint256",
          "name": "",
          "type": "uint256"
        }
      ],
      "stateMutability": "view",
      "type": "function"
    },
    {
      "inputs": [],
      "name": "baseURI",
      "outputs": [
        {
          "internalType": "string",
          "name": "",
          "type": "string"
        }
      ],
      "stateMutability": "view",
      "type": "function"
    },
    {
      "inputs": [],
      "name": "claimUnstaked",
      "outputs": [],
      "stateMutability": "nonpayable",
      "type": "function"
    },
    {
      "inputs": [],
      "name": "contractURI",
      "outputs": [
        {
          "internalType": "string",
          "name": "",
          "type": "string"
        }
      ],
      "stateMutability": "view",
      "type": "function"
    },
    {
      "inputs": [],
      "name": "dungeonCore",
      "outputs": [
        {
          "internalType": "contract IDungeonCore",
          "name": "",
          "type": "address"
        }
      ],
      "stateMutability": "view",
      "type": "function"
    },
    {
      "inputs": [
        {
          "internalType": "uint256",
          "name": "tokenId",
          "type": "uint256"
        }
      ],
      "name": "getApproved",
      "outputs": [
        {
          "internalType": "address",
          "name": "",
          "type": "address"
        }
      ],
      "stateMutability": "view",
      "type": "function"
    },
    {
      "inputs": [
        {
          "internalType": "address",
          "name": "_user",
          "type": "address"
        }
      ],
      "name": "getVipLevel",
      "outputs": [
        {
          "internalType": "uint8",
          "name": "",
          "type": "uint8"
        }
      ],
      "stateMutability": "view",
      "type": "function"
    },
    {
      "inputs": [
        {
          "internalType": "address",
          "name": "_user",
          "type": "address"
        }
      ],
      "name": "getVipTaxReduction",
      "outputs": [
        {
          "internalType": "uint256",
          "name": "",
          "type": "uint256"
        }
      ],
      "stateMutability": "view",
      "type": "function"
    },
    {
      "inputs": [
        {
          "internalType": "address",
          "name": "owner",
          "type": "address"
        },
        {
          "internalType": "address",
          "name": "operator",
          "type": "address"
        }
      ],
      "name": "isApprovedForAll",
      "outputs": [
        {
          "internalType": "bool",
          "name": "",
          "type": "bool"
        }
      ],
      "stateMutability": "view",
      "type": "function"
    },
    {
      "inputs": [],
      "name": "name",
      "outputs": [
        {
          "internalType": "string",
          "name": "",
          "type": "string"
        }
      ],
      "stateMutability": "view",
      "type": "function"
    },
    {
      "inputs": [],
      "name": "owner",
      "outputs": [
        {
          "internalType": "address",
          "name": "",
          "type": "address"
        }
      ],
      "stateMutability": "view",
      "type": "function"
    },
    {
      "inputs": [
        {
          "internalType": "uint256",
          "name": "tokenId",
          "type": "uint256"
        }
      ],
      "name": "ownerOf",
      "outputs": [
        {
          "internalType": "address",
          "name": "",
          "type": "address"
        }
      ],
      "stateMutability": "view",
      "type": "function"
    },
    {
      "inputs": [],
      "name": "pause",
      "outputs": [],
      "stateMutability": "nonpayable",
      "type": "function"
    },
    {
      "inputs": [],
      "name": "paused",
      "outputs": [
        {
          "internalType": "bool",
          "name": "",
          "type": "bool"
        }
      ],
      "stateMutability": "view",
      "type": "function"
    },
    {
      "inputs": [],
      "name": "renounceOwnership",
      "outputs": [],
      "stateMutability": "nonpayable",
      "type": "function"
    },
    {
      "inputs": [
        {
          "internalType": "uint256",
          "name": "_amount",
          "type": "uint256"
        }
      ],
      "name": "requestUnstake",
      "outputs": [],
      "stateMutability": "nonpayable",
      "type": "function"
    },
    {
      "inputs": [
        {
          "internalType": "address",
          "name": "from",
          "type": "address"
        },
        {
          "internalType": "address",
          "name": "to",
          "type": "address"
        },
        {
          "internalType": "uint256",
          "name": "tokenId",
          "type": "uint256"
        }
      ],
      "name": "safeTransferFrom",
      "outputs": [],
      "stateMutability": "nonpayable",
      "type": "function"
    },
    {
      "inputs": [
        {
          "internalType": "address",
          "name": "",
          "type": "address"
        },
        {
          "internalType": "address",
          "name": "",
          "type": "address"
        },
        {
          "internalType": "uint256",
          "name": "",
          "type": "uint256"
        },
        {
          "internalType": "bytes",
          "name": "",
          "type": "bytes"
        }
      ],
      "name": "safeTransferFrom",
      "outputs": [],
      "stateMutability": "pure",
      "type": "function"
    },
    {
      "inputs": [
        {
          "internalType": "address",
          "name": "",
          "type": "address"
        },
        {
          "internalType": "bool",
          "name": "",
          "type": "bool"
        }
      ],
      "name": "setApprovalForAll",
      "outputs": [],
      "stateMutability": "pure",
      "type": "function"
    },
    {
      "inputs": [
        {
          "internalType": "string",
          "name": "_newBaseURI",
          "type": "string"
        }
      ],
      "name": "setBaseURI",
      "outputs": [],
      "stateMutability": "nonpayable",
      "type": "function"
    },
    {
      "inputs": [
        {
          "internalType": "string",
          "name": "newContractURI",
          "type": "string"
        }
      ],
      "name": "setContractURI",
      "outputs": [],
      "stateMutability": "nonpayable",
      "type": "function"
    },
    {
      "inputs": [
        {
          "internalType": "address",
          "name": "_newAddress",
          "type": "address"
        }
      ],
      "name": "setDungeonCore",
      "outputs": [],
      "stateMutability": "nonpayable",
      "type": "function"
    },
    {
      "inputs": [
        {
          "internalType": "address",
          "name": "_newAddress",
          "type": "address"
        }
      ],
      "name": "setSoulShardToken",
      "outputs": [],
      "stateMutability": "nonpayable",
      "type": "function"
    },
    {
      "inputs": [
        {
          "internalType": "uint256",
          "name": "_newCooldown",
          "type": "uint256"
        }
      ],
      "name": "setUnstakeCooldown",
      "outputs": [],
      "stateMutability": "nonpayable",
      "type": "function"
    },
    {
      "inputs": [],
      "name": "soulShardToken",
      "outputs": [
        {
          "internalType": "contract IERC20",
          "name": "",
          "type": "address"
        }
      ],
      "stateMutability": "view",
      "type": "function"
    },
    {
      "inputs": [
        {
          "internalType": "uint256",
          "name": "_amount",
          "type": "uint256"
        }
      ],
      "name": "stake",
      "outputs": [],
      "stateMutability": "nonpayable",
      "type": "function"
    },
    {
      "inputs": [
        {
          "internalType": "bytes4",
          "name": "interfaceId",
          "type": "bytes4"
        }
      ],
      "name": "supportsInterface",
      "outputs": [
        {
          "internalType": "bool",
          "name": "",
          "type": "bool"
        }
      ],
      "stateMutability": "view",
      "type": "function"
    },
    {
      "inputs": [],
      "name": "symbol",
      "outputs": [
        {
          "internalType": "string",
          "name": "",
          "type": "string"
        }
      ],
      "stateMutability": "view",
      "type": "function"
    },
    {
      "inputs": [
        {
          "internalType": "uint256",
          "name": "_tokenId",
          "type": "uint256"
        }
      ],
      "name": "tokenURI",
      "outputs": [
        {
          "internalType": "string",
          "name": "",
          "type": "string"
        }
      ],
      "stateMutability": "view",
      "type": "function"
    },
    {
      "inputs": [],
      "name": "totalPendingUnstakes",
      "outputs": [
        {
          "internalType": "uint256",
          "name": "",
          "type": "uint256"
        }
      ],
      "stateMutability": "view",
      "type": "function"
    },
    {
      "inputs": [
        {
          "internalType": "address",
          "name": "",
          "type": "address"
        },
        {
          "internalType": "address",
          "name": "",
          "type": "address"
        },
        {
          "internalType": "uint256",
          "name": "",
          "type": "uint256"
        }
      ],
      "name": "transferFrom",
      "outputs": [],
      "stateMutability": "pure",
      "type": "function"
    },
    {
      "inputs": [
        {
          "internalType": "address",
          "name": "newOwner",
          "type": "address"
        }
      ],
      "name": "transferOwnership",
      "outputs": [],
      "stateMutability": "nonpayable",
      "type": "function"
    },
    {
      "inputs": [],
      "name": "unpause",
      "outputs": [],
      "stateMutability": "nonpayable",
      "type": "function"
    },
    {
      "inputs": [],
      "name": "unstakeCooldown",
      "outputs": [
        {
          "internalType": "uint256",
          "name": "",
          "type": "uint256"
        }
      ],
      "stateMutability": "view",
      "type": "function"
    },
    {
      "inputs": [
        {
          "internalType": "address",
          "name": "",
          "type": "address"
        }
      ],
      "name": "unstakeQueue",
      "outputs": [
        {
          "internalType": "uint256",
          "name": "amount",
          "type": "uint256"
        },
        {
          "internalType": "uint256",
          "name": "availableAt",
          "type": "uint256"
        }
      ],
      "stateMutability": "view",
      "type": "function"
    },
    {
      "inputs": [
        {
          "internalType": "address",
          "name": "",
          "type": "address"
        }
      ],
      "name": "userStakes",
      "outputs": [
        {
          "internalType": "uint256",
          "name": "amount",
          "type": "uint256"
        },
        {
          "internalType": "uint256",
          "name": "tokenId",
          "type": "uint256"
        }
      ],
      "stateMutability": "view",
      "type": "function"
    },
    {
      "inputs": [
        {
          "internalType": "uint256",
          "name": "amount",
          "type": "uint256"
        }
      ],
      "name": "withdrawStakedTokens",
      "outputs": [],
      "stateMutability": "nonpayable",
      "type": "function"
    }
  ],
  "bytecode": "0x608034620003d457601f906001600160401b03601f196200270a388190038581018316850184811186821017620003be57859282916040528339602094859181010312620003d457516001600160a01b03948582169391849003620003d45762000068620003d9565b94601386527f44756e67656f6e2044656c766572732056495000000000000000000000000000818701526200009c620003d9565b90600382526222222b60e91b81830152865194848611620003be576000958654986001998a81811c91168015620003b3575b858210146200039f579081878493116200034c575b508490878311600114620002eb578992620002df575b5050600019600383901b1c191690891b1786555b8251948511620002cb5787548881811c91168015620002c0575b83821014620002ac5790818587969594931162000253575b5081938511600114620001ee5750508492620001e2575b5050600019600383901b1c191690841b1783555b8115620001ca57600680546001600160a01b0319811684179091556040519416907f8be0079c531659141344cd1fd0a4f28419497f9722a3daafe3b4186f6b6457e09080a380600755600c5562015180600d556123109081620003fa8239f35b60249060405190631e4fbdf760e01b82526004820152fd5b01519050388062000156565b889593929193168587528387209387905b8282106200023957505084116200021f575b505050811b0183556200016a565b015160001960f88460031b161c1916905538808062000211565b8484015186558a97909501949384019390810190620001ff565b9091929394508887528287208580880160051c820192858910620002a2575b9188978c9297969594930160051c01915b828110620002935750506200013f565b8981558897508b910162000283565b9250819262000272565b634e487b7160e01b87526022600452602487fd5b90607f169062000127565b634e487b7160e01b86526041600452602486fd5b015190503880620000f9565b90848c9416918a8052868b20928b5b888282106200033557505084116200031b575b505050811b0186556200010d565b015160001960f88460031b161c191690553880806200030d565b8385015186558f97909501949384019301620002fa565b9091508880528489208780850160051c82019287861062000395575b918d91869594930160051c01915b82811062000386575050620000e3565b8b81558594508d910162000376565b9250819262000368565b634e487b7160e01b89526022600452602489fd5b90607f1690620000ce565b634e487b7160e01b600052604160045260246000fd5b600080fd5b60408051919082016001600160401b03811183821017620003be5760405256fe6080604081815260048036101561001557600080fd5b600092833560e01c90816301ffc9a714611abd5750806306fdde0314611a15578063081812fc146119dc578063095ea7b31461197e5780630a57336a1461195657806323095721146117a657806323b872dd1461178f57806332854c131461176c5780633f4ba83a146116ea57806342842e0e146116c7578063440394021461169f57806355f804b3146114e45780635c975abb146114c05780636352211e1461149057806367cfab581461146557806368bbf757146114465780636ab1b29b146113af5780636c0360eb1461130557806370a0823114611297578063715018a61461123c5780637eefd5ae1461121d5780638456cb59146111c25780638da5cb5b1461119a5780638da7ad2314611159578063938e3d7b14610f8557806395d89b4114610edd578063a22cb46514610e74578063a3158b5314610e52578063a694fc3a1461091b578063b799e74e146108da578063b88d4fde1461087f578063c87b56dd146105b1578063d276290d14610463578063d32a40b61461040b578063db4b8268146103a4578063e8a3d485146102bb578063e985e9c5146102695763f2fde38b146101c557600080fd5b34610265576020366003190112610265576101de611bd5565b906101e7611d5b565b6001600160a01b03809216928315610236575050600654826001600160a01b0319821617600655167f8be0079c531659141344cd1fd0a4f28419497f9722a3daafe3b4186f6b6457e08380a380f35b908460249251917f1e4fbdf7000000000000000000000000000000000000000000000000000000008352820152fd5b8280fd5b5050346102b757806003193601126102b75760ff81602093610289611bd5565b610291611bf0565b6001600160a01b0391821683526005875283832091168252855220549151911615158152f35b5080fd5b5050346102b757816003193601126102b75780519082600b546102dd81611d21565b8085529160019180831690811561037c575060011461031f575b5050506103098261031b940383611c6d565b51918291602083526020830190611bb0565b0390f35b9450600b85527f0175b7a638427703f0dbe7bb9bbf987a2551717b34e79f33b5b1008d1fa01db95b8286106103645750505061030982602061031b95820101946102f7565b80546020878701810191909152909501948101610347565b61031b97508693506020925061030994915060ff191682840152151560051b820101946102f7565b8334610408576020366003190112610408576001600160a01b036103c6611bd5565b6103ce611d5b565b16806001600160a01b031960095416176009557f5b041fdbb07c066df55211c4936ce14e84504e79020b987168fa2022f1b13e798280a280f35b80fd5b509190346102b75760203660031901126102b75760ff61043161042c611bd5565b611fe0565b1691603283029280840460321490151715610450576020838351908152f35b80601185634e487b7160e01b6024945252fd5b50903461026557826003193601126102655761047d611ecc565b338352601060205280832091825492831561056e576001015442106105075750338352601060205282600182822082815501556104bc82600e54611f07565b600e556104d582336001600160a01b0360095416611f14565b519081527fcb15bbbdc28223e1198be8308a502cd2706d6c42b33d19f96c1589dd5e241ae460203392a2600160075580f35b6020608492519162461bcd60e51b83528201526024808201527f5649503a20436f6f6c646f776e20706572696f64206973206e6f74206f76657260448201527f20796574000000000000000000000000000000000000000000000000000000006064820152fd5b506020606492519162461bcd60e51b8352820152601f60248201527f5649503a204e6f2070656e64696e6720756e7374616b652072657175657374006044820152fd5b509034610265576020918260031936011261087b5780356105d181611d9f565b50600a8054916105e083611d21565b1561083957818194829089937a184f03e93ff9f4daa797ed6e38ed64bf6a1f010000000000000000908181101561082c575b5050886d04ee2d6d415b85acef81000000008084101561081e575b5050662386f26fc100008083101561080f575b506305f5e10080831015610800575b50612710808310156107f4575b505060648110156107e6575b10156107de575b600192838201908361069861068384611c8f565b936106908a519586611c6d565b808552611c8f565b968660218b860196601f19809b01368937860101905b6107a2575b505050865198899581956106c684611d21565b938b8382169182600014610776575050600114610715575b878b61031b8c6107068d858d806106f98f8f51938491611b8d565b0103908101865285611c6d565b51928284938452830190611bb0565b8a9495965082527fc65a7bb8d6351c1cf70c95a316cc6a92839c986682d98bc35f958f4883f9d2a85b83831061075c575050508401019190806106f961031b6107066106de565b80549783018501979097528a968a9490920191810161073e565b60ff19168a820152851515909502890190940196508493506106f9925061031b915061070690506106de565b600019019082907f30313233343536373839616263646566000000000000000000000000000000008282061a8353049087826106ae57506106b3565b60010161066f565b606460029104920191610668565b9301929004388061065c565b6008919492049101923861064f565b60109194920491019238610640565b94019390910490883861062d565b8995500491503880610612565b6064848787519162461bcd60e51b8352820152601460248201527f5649503a2062617365555249206e6f74207365740000000000000000000000006044820152fd5b8380fd5b8382346102b75760803660031901126102b75761089a611bd5565b506108a3611bf0565b5060643567ffffffffffffffff81116102655736602382011215610265576108d49250602481369301359101611cab565b50611f7c565b5050346102b75760203660031901126102b75780916001600160a01b036108ff611bd5565b1681526010602052206001815491015482519182526020820152f35b509034610265576020918260031936011261087b5780359261093b611ecc565b610943611e96565b8315610e12573385526010815282852054610dac576001600160a01b039182600954168015610d6a5784517f23b872dd000000000000000000000000000000000000000000000000000000008482015260249133838301523060448301528760648301526064825260a0820182811067ffffffffffffffff821117610d585787526109ce9190611e16565b338752600f835260018588206109e5888254611df3565b815501918254948515610a2c575b88887f1449c6dd7851abc30abf37f57715f492010519147cc2652fbc38202c18a6ee9089898982519485528401523392a2600160075580f35b9091929450600c5490600019808314610d465760018301600c5582809755875191610a5683611c3b565b8a83523315610d3157838b526002875280898c205416610cca57838b5260028752888b205416908115159081610ca0575b50338b5260038752888b2060018154019055838b5260028752888b20336001600160a01b0319825416179055838b8a51937fddf252ad1be2c89b69c2b068fc378daa952ba7f163c4a11628f55a4df523b3ef339280a4610c745750333b156109f35790848985610b41869b979c9996958b5195869485947f150b7a0200000000000000000000000000000000000000000000000000000000998a875233908701528501526044840152608060648401526084830190611bb0565b038189335af1869181610c18575b50610bab57505050503d600014610ba2573d610b6a81611c8f565b90610b7785519283611c6d565b81528092823d92013e5b81519182610b9f575050505190633250574960e11b82523390820152fd5b01fd5b60609150610b81565b9497929691947fffffffff000000000000000000000000000000000000000000000000000000001603610c0457507f1449c6dd7851abc30abf37f57715f492010519147cc2652fbc38202c18a6ee9090503880806109f3565b845190633250574960e11b82523390820152fd5b9091508581813d8311610c6d575b610c308183611c6d565b81010312610c6957517fffffffff0000000000000000000000000000000000000000000000000000000081168103610c69579038610b4f565b8680fd5b503d610c26565b808a857f73c6ac6e00000000000000000000000000000000000000000000000000000000889452820152fd5b858852898c206001600160a01b03198154169055828c5260038852898c2090815401905538610a87565b608485602b888a8d519362461bcd60e51b85528401528201527f506c6179657250726f66696c653a205468697320534254206973206e6f6e2d7460448201527f72616e7366657261626c650000000000000000000000000000000000000000006064820152fd5b85858c8b5191633250574960e11b8352820152fd5b848a601186634e487b7160e01b835252fd5b838a604187634e487b7160e01b835252fd5b5060649184519162461bcd60e51b8352820152601a60248201527f5649503a20546f6b656e2061646472657373206e6f74207365740000000000006044820152fd5b608492519162461bcd60e51b8352820152602860248201527f5649503a20596f75206861766520612070656e64696e6720756e7374616b652060448201527f746f20636c61696d0000000000000000000000000000000000000000000000006064820152fd5b606492519162461bcd60e51b8352820152601360248201527f5649503a2043616e6e6f74207374616b652030000000000000000000000000006044820152fd5b8382346102b75760203660031901126102b757610e6d611d5b565b35600d5580f35b508234610408578260031936011261040857610e8e611bd5565b506024358015150361040857506020606492519162461bcd60e51b8352820152601b60248201527f5649503a205342542063616e6e6f7420626520617070726f76656400000000006044820152fd5b5050346102b757816003193601126102b757805190826001805491610f0183611d21565b8086529282811690811561037c5750600114610f29575050506103098261031b940383611c6d565b94508085527fb10e2d527612073b26eecdfd717e6a320cf44b4afac2b0732d9fcbe2b7fa0cf65b828610610f6d5750505061030982602061031b95820101946102f7565b80546020878701810191909152909501948101610f50565b509190346102b757610f9636611ce2565b90610f9f611d5b565b81519367ffffffffffffffff85116111465750610fbd600b54611d21565b601f81116110e3575b50602093601f811160011461103d57908161102c939285967f905d981207a7d0b6c62cc46ab0be2a076d0298e4a86d0ab79882dbd01ac373789691611032575b508160011b916000199060031b1c191617600b5551918291602083526020830190611bb0565b0390a180f35b905083015138611006565b600b84527f0175b7a638427703f0dbe7bb9bbf987a2551717b34e79f33b5b1008d1fa01db9601f198216855b8181106110cb5750916001917f905d981207a7d0b6c62cc46ab0be2a076d0298e4a86d0ab79882dbd01ac3737896978261102c979695106110b2575b5050811b01600b55610309565b85015160001960f88460031b161c1916905538806110a5565b85880151835560209788019760019093019201611069565b600b84527f0175b7a638427703f0dbe7bb9bbf987a2551717b34e79f33b5b1008d1fa01db9601f860160051c8101916020871061113c575b601f0160051c01905b8181106111315750610fc6565b848155600101611124565b909150819061111b565b836041602492634e487b7160e01b835252fd5b5050346102b75760203660031901126102b75780916001600160a01b0361117e611bd5565b168152600f602052206001815491015482519182526020820152f35b5050346102b757816003193601126102b7576020906001600160a01b03600654169051908152f35b5050346102b757816003193601126102b75760207f62e78cea01bee320cd4e420270b5ea74000d11b0c9f74754ebdbfc544b05a25891611200611d5b565b611208611e96565b600160ff19600854161760085551338152a180f35b5050346102b757816003193601126102b757602090600d549051908152f35b8334610408578060031936011261040857611255611d5b565b806001600160a01b036006546001600160a01b03198116600655167f8be0079c531659141344cd1fd0a4f28419497f9722a3daafe3b4186f6b6457e08280a380f35b509134610408576020366003190112610408576001600160a01b036112ba611bd5565b169283156112d75750806020938392526003845220549051908152f35b9060249251917f89c62b64000000000000000000000000000000000000000000000000000000008352820152fd5b5050346102b757816003193601126102b75780519082600a5461132781611d21565b8085529160019180831690811561037c5750600114611352575050506103098261031b940383611c6d565b9450600a85527fc65a7bb8d6351c1cf70c95a316cc6a92839c986682d98bc35f958f4883f9d2a85b8286106113975750505061030982602061031b95820101946102f7565b8054602087870181019190915290950194810161137a565b8334610408576020366003190112610408576001600160a01b036113d1611bd5565b6113d9611d5b565b6008547fffffffffffffffffffffff0000000000000000000000000000000000000000ff74ffffffffffffffffffffffffffffffffffffffff008360081b16911617600855167f45e919947eac4ba070dccb2545cf1e7e330fd110330232d74a6996e9e2308f248280a280f35b5050346102b757816003193601126102b757602090600e549051908152f35b5050346102b757816003193601126102b7576020906001600160a01b0360085460081c169051908152f35b50913461040857602036600319011261040857506001600160a01b036114b860209335611d9f565b915191168152f35b5050346102b757816003193601126102b75760209060ff6008541690519015158152f35b509190346102b7576114f536611ce2565b906114fe611d5b565b81519367ffffffffffffffff8511611146575061151c600a54611d21565b601f811161163c575b50602093601f811160011461159657908161102c939285967ff9c7803e94e0d3c02900d8a90893a6d5e90dd04d32a4cfe825520f82bf9f32f6969161158b575b508160011b916000199060031b1c191617600a5551918291602083526020830190611bb0565b905083015138611565565b600a84527fc65a7bb8d6351c1cf70c95a316cc6a92839c986682d98bc35f958f4883f9d2a8601f198216855b8181106116245750916001917ff9c7803e94e0d3c02900d8a90893a6d5e90dd04d32a4cfe825520f82bf9f32f696978261102c9796951061160b575b5050811b01600a55610309565b85015160001960f88460031b161c1916905538806115fe565b858801518355602097880197600190930192016115c2565b600a84527fc65a7bb8d6351c1cf70c95a316cc6a92839c986682d98bc35f958f4883f9d2a8601f860160051c81019160208710611695575b601f0160051c01905b81811061168a5750611525565b84815560010161167d565b9091508190611674565b5050346102b757816003193601126102b7576020906001600160a01b03600954169051908152f35b5050346102b7576116d736611c06565b505050516116e481611c3b565b52611f7c565b5034610265578260031936011261026557611703611d5b565b6008549060ff821615611745575060ff1916600855513381527f5db9ee0a495bf2e6ff9c91a7834c1ba4fdd244a5e8aa4e537bd38aeae4b073aa90602090a180f35b82517f8dfc202b000000000000000000000000000000000000000000000000000000008152fd5b5050346102b75760203660031901126102b75760209060ff6114b861042c611bd5565b83346104085761179e36611c06565b505050611f7c565b509190346102b75760209081600319360112610265578335916117c7611ecc565b6117cf611e96565b338452600f81528184208315158061194b575b156119095733855260108252828520546118a157611801848254611f07565b905561180f83600e54611df3565b600e5561181e600d5442611df3565b90825183810181811067ffffffffffffffff82111761188e577f57e41df54512c76148b5ba9b643d149752b0d35e493b969bd017d0a3fe5228cf959697508452858152600182820184815233895260108452858920925183555191015582519485528401523392a2600160075580f35b60248760418a634e487b7160e01b835252fd5b6084868385519162461bcd60e51b8352820152602b60248201527f5649503a2050726576696f757320756e7374616b65207265717565737420737460448201527f696c6c2070656e64696e670000000000000000000000000000000000000000006064820152fd5b6064868385519162461bcd60e51b8352820152601b60248201527f5649503a20496e76616c696420756e7374616b6520616d6f756e7400000000006044820152fd5b5080548411156117e2565b8382346102b75760203660031901126102b75761197b90611975611d5b565b3561220f565b80f35b50823461040857826003193601126104085750602060649261199e611bd5565b50519162461bcd60e51b8352820152601b60248201527f5649503a205342542063616e6e6f7420626520617070726f76656400000000006044820152fd5b50346102655760203660031901126102655781602093826001600160a01b039335611a0681611d9f565b50825285522054169051908152f35b5050346102b757816003193601126102b757805190828054611a3681611d21565b8085529160019180831690811561037c5750600114611a61575050506103098261031b940383611c6d565b80809650527f290decd9548b62a8d60345a988386fc84ba6bc95484008f6362f93160ef3e5635b828610611aa55750505061030982602061031b95820101946102f7565b80546020878701810191909152909501948101611a88565b9250503461026557602036600319011261026557357fffffffff00000000000000000000000000000000000000000000000000000000811680910361026557602092507f80ac58cd000000000000000000000000000000000000000000000000000000008114908115611b63575b8115611b39575b5015158152f35b7f01ffc9a70000000000000000000000000000000000000000000000000000000091501438611b32565b7f5b5e139f0000000000000000000000000000000000000000000000000000000081149150611b2b565b60005b838110611ba05750506000910152565b8181015183820152602001611b90565b90602091611bc981518092818552858086019101611b8d565b601f01601f1916010190565b600435906001600160a01b0382168203611beb57565b600080fd5b602435906001600160a01b0382168203611beb57565b6060906003190112611beb576001600160a01b03906004358281168103611beb57916024359081168103611beb579060443590565b6020810190811067ffffffffffffffff821117611c5757604052565b634e487b7160e01b600052604160045260246000fd5b90601f8019910116810190811067ffffffffffffffff821117611c5757604052565b67ffffffffffffffff8111611c5757601f01601f191660200190565b929192611cb782611c8f565b91611cc56040519384611c6d565b829481845281830111611beb578281602093846000960137010152565b6020600319820112611beb576004359067ffffffffffffffff8211611beb5780602383011215611beb57816024611d1e93600401359101611cab565b90565b90600182811c92168015611d51575b6020831014611d3b57565b634e487b7160e01b600052602260045260246000fd5b91607f1691611d30565b6001600160a01b03600654163303611d6f57565b60246040517f118cdaa7000000000000000000000000000000000000000000000000000000008152336004820152fd5b8060005260026020526001600160a01b0360406000205416908115611dc2575090565b602490604051907f7e2732890000000000000000000000000000000000000000000000000000000082526004820152fd5b91908201809211611e0057565b634e487b7160e01b600052601160045260246000fd5b906000602091828151910182855af115611e8a576000513d611e8157506001600160a01b0381163b155b611e475750565b6024906001600160a01b03604051917f5274afe7000000000000000000000000000000000000000000000000000000008352166004820152fd5b60011415611e40565b6040513d6000823e3d90fd5b60ff60085416611ea257565b60046040517fd93c0665000000000000000000000000000000000000000000000000000000008152fd5b600260075414611edd576002600755565b60046040517f3ee5aeb5000000000000000000000000000000000000000000000000000000008152fd5b91908203918211611e0057565b916001600160a01b03604051927fa9059cbb000000000000000000000000000000000000000000000000000000006020850152166024830152604482015260448152608081019181831067ffffffffffffffff841117611c5757611f7a92604052611e16565b565b606460405162461bcd60e51b815260206004820152601e60248201527f5649503a205342542063616e6e6f74206265207472616e7366657272656400006044820152fd5b8115611fca570490565b634e487b7160e01b600052601260045260246000fd5b6001600160a01b0380600092168252600f602052604082205490811580156120c9575b6120885760209060085460081c16916024604051809481937fb6395e3100000000000000000000000000000000000000000000000000000000835260048301525afa9081156120be57829161208d575b5068056bc75e2d6310000090818110612088576120719250046120d8565b60ff8111612080575b60ff1690565b5060ff61207a565b505090565b90506020813d82116120b6575b816120a760209383611c6d565b810103126102b7575138612053565b3d915061209a565b6040513d84823e3d90fd5b508060085460081c1615612003565b60018082111561220b576121a79080837001000000000000000000000000000000008110156121f4575b806801000000000000000060049210156121e7575b6401000000008110156121da575b620100008110156121cd575b6101008110156121c1575b60108110156121b5575b10156121ae575b600302811c61215c8185611fc0565b01811c6121698185611fc0565b01811c6121768185611fc0565b01811c6121838185611fc0565b01811c6121908185611fc0565b01811c61219d8185611fc0565b01901c8092611fc0565b8111900390565b811b61214d565b811c9160021b91612146565b60081c91811b9161213c565b60101c9160081b91612131565b60201c9160101b91612125565b60401c9160201b91612117565b50680100000000000000009050608084901c612102565b5090565b6001600160a01b039081600954166040517f70a08231000000000000000000000000000000000000000000000000000000008152306004820152602081602481855afa8015611e8a576000906122a7575b61226e9150600e5490611f07565b8215801561229e575b612296575b50811561229157611f7a926006541690611f14565b505050565b91503861227c565b50808311612277565b6020823d82116122d2575b816122bf60209383611c6d565b81010312610408575061226e9051612260565b3d91506122b256fea264697066735822122057f09170be3d48b8db21c30473b87413da3ab14601b20d92aee372561379697a64736f6c63430008140033",
  "linkReferences": {},
  "deployedLinkReferences": {}
}