{
  "_format": "hh-sol-artifact-1",
  "contractName": "AltarOfAscension",
  "sourceName": "contracts/AltarOfAscension.sol",
  "abi": [
    {
      "inputs": [
        {
          "internalType": "address",
          "name": "_initialOwner",
          "type": "address"
        }
      ],
      "stateMutability": "nonpayable",
      "type": "constructor"
    },
    {
      "inputs": [],
      "name": "EnforcedPause",
      "type": "error"
    },
    {
      "inputs": [],
      "name": "ExpectedPause",
      "type": "error"
    },
    {
      "inputs": [
        {
          "internalType": "address",
          "name": "owner",
          "type": "address"
        }
      ],
      "name": "OwnableInvalidOwner",
      "type": "error"
    },
    {
      "inputs": [
        {
          "internalType": "address",
          "name": "account",
          "type": "address"
        }
      ],
      "name": "OwnableUnauthorizedAccount",
      "type": "error"
    },
    {
      "inputs": [],
      "name": "ReentrancyGuardReentrantCall",
      "type": "error"
    },
    {
      "anonymous": false,
      "inputs": [
        {
          "indexed": true,
          "internalType": "address",
          "name": "newAddress",
          "type": "address"
        }
      ],
      "name": "DungeonCoreSet",
      "type": "event"
    },
    {
      "anonymous": false,
      "inputs": [
        {
          "indexed": false,
          "internalType": "uint256",
          "name": "newSeed",
          "type": "uint256"
        }
      ],
      "name": "DynamicSeedUpdated",
      "type": "event"
    },
    {
      "anonymous": false,
      "inputs": [
        {
          "indexed": true,
          "internalType": "address",
          "name": "newAddress",
          "type": "address"
        }
      ],
      "name": "HeroContractSet",
      "type": "event"
    },
    {
      "anonymous": false,
      "inputs": [
        {
          "indexed": true,
          "internalType": "address",
          "name": "previousOwner",
          "type": "address"
        },
        {
          "indexed": true,
          "internalType": "address",
          "name": "newOwner",
          "type": "address"
        }
      ],
      "name": "OwnershipTransferred",
      "type": "event"
    },
    {
      "anonymous": false,
      "inputs": [
        {
          "indexed": false,
          "internalType": "address",
          "name": "account",
          "type": "address"
        }
      ],
      "name": "Paused",
      "type": "event"
    },
    {
      "anonymous": false,
      "inputs": [
        {
          "indexed": true,
          "internalType": "address",
          "name": "newAddress",
          "type": "address"
        }
      ],
      "name": "RelicContractSet",
      "type": "event"
    },
    {
      "anonymous": false,
      "inputs": [
        {
          "indexed": false,
          "internalType": "address",
          "name": "account",
          "type": "address"
        }
      ],
      "name": "Unpaused",
      "type": "event"
    },
    {
      "anonymous": false,
      "inputs": [
        {
          "indexed": true,
          "internalType": "address",
          "name": "player",
          "type": "address"
        },
        {
          "indexed": true,
          "internalType": "address",
          "name": "tokenContract",
          "type": "address"
        },
        {
          "indexed": false,
          "internalType": "uint8",
          "name": "targetRarity",
          "type": "uint8"
        },
        {
          "indexed": false,
          "internalType": "uint8",
          "name": "outcome",
          "type": "uint8"
        }
      ],
      "name": "UpgradeProcessed",
      "type": "event"
    },
    {
      "anonymous": false,
      "inputs": [
        {
          "indexed": true,
          "internalType": "uint8",
          "name": "fromRarity",
          "type": "uint8"
        },
        {
          "components": [
            {
              "internalType": "uint8",
              "name": "materialsRequired",
              "type": "uint8"
            },
            {
              "internalType": "uint256",
              "name": "nativeFee",
              "type": "uint256"
            },
            {
              "internalType": "uint8",
              "name": "greatSuccessChance",
              "type": "uint8"
            },
            {
              "internalType": "uint8",
              "name": "successChance",
              "type": "uint8"
            },
            {
              "internalType": "uint8",
              "name": "partialFailChance",
              "type": "uint8"
            }
          ],
          "indexed": false,
          "internalType": "struct AltarOfAscension.UpgradeRule",
          "name": "rule",
          "type": "tuple"
        }
      ],
      "name": "UpgradeRuleSet",
      "type": "event"
    },
    {
      "inputs": [],
      "name": "dungeonCore",
      "outputs": [
        {
          "internalType": "contract IDungeonCore",
          "name": "",
          "type": "address"
        }
      ],
      "stateMutability": "view",
      "type": "function"
    },
    {
      "inputs": [],
      "name": "dynamicSeed",
      "outputs": [
        {
          "internalType": "uint256",
          "name": "",
          "type": "uint256"
        }
      ],
      "stateMutability": "view",
      "type": "function"
    },
    {
      "inputs": [],
      "name": "heroContract",
      "outputs": [
        {
          "internalType": "contract IHero",
          "name": "",
          "type": "address"
        }
      ],
      "stateMutability": "view",
      "type": "function"
    },
    {
      "inputs": [],
      "name": "owner",
      "outputs": [
        {
          "internalType": "address",
          "name": "",
          "type": "address"
        }
      ],
      "stateMutability": "view",
      "type": "function"
    },
    {
      "inputs": [],
      "name": "pause",
      "outputs": [],
      "stateMutability": "nonpayable",
      "type": "function"
    },
    {
      "inputs": [],
      "name": "paused",
      "outputs": [
        {
          "internalType": "bool",
          "name": "",
          "type": "bool"
        }
      ],
      "stateMutability": "view",
      "type": "function"
    },
    {
      "inputs": [],
      "name": "relicContract",
      "outputs": [
        {
          "internalType": "contract IRelic",
          "name": "",
          "type": "address"
        }
      ],
      "stateMutability": "view",
      "type": "function"
    },
    {
      "inputs": [],
      "name": "renounceOwnership",
      "outputs": [],
      "stateMutability": "nonpayable",
      "type": "function"
    },
    {
      "inputs": [
        {
          "internalType": "address",
          "name": "_newAddress",
          "type": "address"
        }
      ],
      "name": "setDungeonCore",
      "outputs": [],
      "stateMutability": "nonpayable",
      "type": "function"
    },
    {
      "inputs": [
        {
          "internalType": "address",
          "name": "_address",
          "type": "address"
        }
      ],
      "name": "setHeroContract",
      "outputs": [],
      "stateMutability": "nonpayable",
      "type": "function"
    },
    {
      "inputs": [
        {
          "internalType": "address",
          "name": "_address",
          "type": "address"
        }
      ],
      "name": "setRelicContract",
      "outputs": [],
      "stateMutability": "nonpayable",
      "type": "function"
    },
    {
      "inputs": [
        {
          "internalType": "uint8",
          "name": "_fromRarity",
          "type": "uint8"
        },
        {
          "components": [
            {
              "internalType": "uint8",
              "name": "materialsRequired",
              "type": "uint8"
            },
            {
              "internalType": "uint256",
              "name": "nativeFee",
              "type": "uint256"
            },
            {
              "internalType": "uint8",
              "name": "greatSuccessChance",
              "type": "uint8"
            },
            {
              "internalType": "uint8",
              "name": "successChance",
              "type": "uint8"
            },
            {
              "internalType": "uint8",
              "name": "partialFailChance",
              "type": "uint8"
            }
          ],
          "internalType": "struct AltarOfAscension.UpgradeRule",
          "name": "_rule",
          "type": "tuple"
        }
      ],
      "name": "setUpgradeRule",
      "outputs": [],
      "stateMutability": "nonpayable",
      "type": "function"
    },
    {
      "inputs": [
        {
          "internalType": "address",
          "name": "newOwner",
          "type": "address"
        }
      ],
      "name": "transferOwnership",
      "outputs": [],
      "stateMutability": "nonpayable",
      "type": "function"
    },
    {
      "inputs": [],
      "name": "unpause",
      "outputs": [],
      "stateMutability": "nonpayable",
      "type": "function"
    },
    {
      "inputs": [
        {
          "internalType": "uint256",
          "name": "_newSeed",
          "type": "uint256"
        }
      ],
      "name": "updateDynamicSeed",
      "outputs": [],
      "stateMutability": "nonpayable",
      "type": "function"
    },
    {
      "inputs": [
        {
          "internalType": "address",
          "name": "_tokenContract",
          "type": "address"
        },
        {
          "internalType": "uint256[]",
          "name": "_tokenIds",
          "type": "uint256[]"
        }
      ],
      "name": "upgradeNFTs",
      "outputs": [],
      "stateMutability": "payable",
      "type": "function"
    },
    {
      "inputs": [
        {
          "internalType": "uint8",
          "name": "",
          "type": "uint8"
        }
      ],
      "name": "upgradeRules",
      "outputs": [
        {
          "internalType": "uint8",
          "name": "materialsRequired",
          "type": "uint8"
        },
        {
          "internalType": "uint256",
          "name": "nativeFee",
          "type": "uint256"
        },
        {
          "internalType": "uint8",
          "name": "greatSuccessChance",
          "type": "uint8"
        },
        {
          "internalType": "uint8",
          "name": "successChance",
          "type": "uint8"
        },
        {
          "internalType": "uint8",
          "name": "partialFailChance",
          "type": "uint8"
        }
      ],
      "stateMutability": "view",
      "type": "function"
    },
    {
      "inputs": [],
      "name": "withdrawNative",
      "outputs": [],
      "stateMutability": "nonpayable",
      "type": "function"
    }
  ],
  "bytecode": "0x608034620002f557601f6200194d38819003918201601f19168301926001600160401b039290919083851183861017620002fa5780839260409687528339602092839181010312620002f557516001600160a01b03928382169291839003620002f5578215620002dd57600080546001600160a01b0319811685178255865195919491167f8be0079c531659141344cd1fd0a4f28419497f9722a3daafe3b4186f6b6457e08580a36001938480558281014281523360601b8783015260348252606082019282841090841117620002c95782875281519020600555620000e58262000310565b6005825260808101946611c37937e08000865260a08201926005845260c08301926041845260e00191601c8352808752600686528887209060ff809351169860ff19998a8454161783555181830155826002809301965116958054955162ff0000968796519861ff00998a62ffffff199a8b9260101b169460081b169216171717905589888885858d8551906200017c8262000310565b6004825284820190662386f26fc100008252848884019860048a52606085019860338a52608086019860238a5287825260069052209351169083541617825551878201550193511688888b8654955160081b16935160101b169316171717905589888885858d855190620001f08262000310565b600382528482019066470de4df8200008252848884019860038a526060850198888a526080860198602d8a526003825260069052209351169083541617825551878201550193511688888b8654955160081b16935160101b16931617171790558951906200025e8262000310565b82825287820166b1a2bc2ec5000081528b83019a848c52858d606086019c60128e52608087019c60328e5260048252600690522094511690845416178355519082015501965116928654955160081b16935160101b16931617171790555161162090816200032d8239f35b634e487b7160e01b85526041600452602485fd5b8451631e4fbdf760e01b815260006004820152602490fd5b600080fd5b634e487b7160e01b600052604160045260246000fd5b60a081019081106001600160401b03821117620002fa5760405256fe608080604052600436101561001357600080fd5b60003560e01c9081630daf999a1461114f5750806324a342d7146110e95780633706dc4b1461109d5780633a92c0ac1461107f5780633db47d0014610e9f5780633f4ba83a14610e3557806350431ce414610d735780635c975abb14610d5057806367cfab5814610d235780636ab1b29b14610c60578063715018a614610c075780638456cb5914610bad5780638da5cb5b14610b84578063b2a4750014610b1d578063d2ac0f5914610ab6578063d45d9292146101a1578063d5654ae7146101785763f2fde38b146100e557600080fd5b34610173576020366003190112610173576100fe611183565b610106611199565b6001600160a01b0390811690811561015a57600054826bffffffffffffffffffffffff60a01b821617600055167f8be0079c531659141344cd1fd0a4f28419497f9722a3daafe3b4186f6b6457e0600080a3005b604051631e4fbdf760e01b815260006004820152602490fd5b600080fd5b34610173576000366003190112610173576004546040516001600160a01b039091168152602090f35b6040366003190112610173576101b5611183565b67ffffffffffffffff8060243511610173573660236024350112156101735760243560040135116101735736602480356004013560051b8135010111610173576101fd61127e565b6001906002825414610aa457600282556024356004013515610a5f576003546001600160a01b03169081151580610a4b575b15610a06576001600160a01b038116820361094a5760408051631a9b371b60e21b81526024803581013560048301529091908290816001600160a01b0386165afa9081156105905760009161092a575b50915b60ff831615158061091d575b156108ce5760005b6024356004013581106106b357505060ff821660005260209160068352604060002090604051916102c6836111c5565b60ff815416928381526002878301549287830193845201549360ff8516604083015260ff606095818160081c168785015260101c16608083015215610653575160ff166004602435013503610602575134106105bd5760005b6024356004013581106105085750606460055460405186810191825242604082015233851b8582015260ff60f81b8460f81b16607482015260558152610364816111f5565b5190200660ff8216600052600685526040600020600260405191610387836111c5565b60ff81541683528881015488840152015460ff81166040830181815260ff8360081c168785019281845260ff608087019560101c1685528087106000146104685750505050505090610428916103e66103df8361129c565b86336113e1565b6103f26103df8361129c565b6003905b60ff6005549216946040519188830193845260408301528581830152815261041d816111f5565b51902060055561129c565b9260ff6040519416845283015260018060a01b0316907f439b38cfc4c33bb6bdf9be028896a64a60b89c4da76bff6fd84874dae719c41960403392a38055005b60ff91610474916112ae565b16851015610499575050505090610428916104916103df8361129c565b6002906103f6565b9160ff6104b26104bb93828080975116915116906112ae565b915116906112ae565b168210156104fa5751861c607f1660005b8181106104e1575050906104289186906103f6565b6104f5906104f08588336113e1565b611233565b6104cc565b5090610428916000906103f6565b6003546001600160a01b0385811691160361059c576003546001600160a01b03169061053e816024803560048101359101611258565b35823b1561017357600092602484926040519586938492636aef506960e01b845260048401525af19182156105905761057c92610581575b50611233565b61031f565b61058a906111e1565b87610576565b6040513d6000823e3d90fd5b60018060a01b03600454169061053e81602435600401356024803501611258565b60405162461bcd60e51b815260048101859052601b60248201527f416c7461723a20496e73756666696369656e7420424e422066656500000000006044820152606490fd5b60405162461bcd60e51b8152600481018690526024808201527f416c7461723a20496e636f7272656374206e756d626572206f66206d6174657260448201526369616c7360e01b6064820152608490fd5b60405162461bcd60e51b815260048101879052603260248201527f416c7461723a20557067726164657320666f7220746869732072617269747920604482015271185c99481b9bdd0818dbdb999a59dd5c995960721b6064820152608490fd5b6001600160a01b03831682036107e7576106d881602435600401356024803501611258565b6040516331a9108f60e11b8152903560048201526020816024816001600160a01b0388165afa801561059057610721916000916107b8575b506001600160a01b03163314611330565b61073681602435600401356024803501611258565b60408051631a9b371b60e21b815291356004830152909190826024816001600160a01b0388165afa91821561059057610783926104f091600091610788575b5060ff808816911614611386565b610296565b6107aa915060403d6040116107b1575b6107a28183611211565b8101906112f4565b5088610775565b503d610798565b6107da915060203d6020116107e0575b6107d28183611211565b810190611311565b87610710565b503d6107c8565b6107fc81602435600401356024803501611258565b6040516331a9108f60e11b8152903560048201526020816024816001600160a01b0388165afa801561059057610844916000916107b857506001600160a01b03163314611330565b61085981602435600401356024803501611258565b60408051635fdfe65960e11b815291356004830152909190826024816001600160a01b0388165afa91821561059057610783926104f0916000916108a5575060ff808816911614611386565b6107aa915060403d6040116108c7575b6108bf8183611211565b8101906112d0565b503d6108b5565b60405162461bcd60e51b815260206004820152602160248201527f416c7461723a20496e76616c69642072617269747920666f72207570677261646044820152606560f81b6064820152608490fd5b50600560ff84161061028e565b610943915060403d6040116107b1576107a28183611211565b508461027f565b6004546001600160a01b038281169116036109c15760408051635fdfe65960e11b81526024803581013560048301529091908290816001600160a01b0386165afa908115610590576000916109a1575b5091610282565b6109ba915060403d6040116108c7576108bf8183611211565b508461099a565b60405162461bcd60e51b815260206004820152601d60248201527f416c7461723a20496e76616c696420746f6b656e20636f6e74726163740000006044820152606490fd5b60405162461bcd60e51b815260206004820152601860248201527f416c7461723a20436f6e747261637473206e6f742073657400000000000000006044820152606490fd5b506004546001600160a01b0316151561022f565b60405162461bcd60e51b815260206004820152601c60248201527f416c7461723a204e6f206d6174657269616c732070726f7669646564000000006044820152606490fd5b604051633ee5aeb560e01b8152600490fd5b3461017357602036600319011261017357610acf611183565b610ad7611199565b600380546001600160a01b0319166001600160a01b039290921691821790557f66bc4bfd56f2104006bad233fc730445bafcda57858bcb241c43fe70a19ac73c600080a2005b3461017357602036600319011261017357610b36611183565b610b3e611199565b600480546001600160a01b0319166001600160a01b039290921691821790557f8920e7fbf160226a5498b7a18e7982c9136f38ff4bd292188b6b680b82734a11600080a2005b34610173576000366003190112610173576000546040516001600160a01b039091168152602090f35b3461017357600036600319011261017357610bc6611199565b610bce61127e565b600160ff1960025416176002557f62e78cea01bee320cd4e420270b5ea74000d11b0c9f74754ebdbfc544b05a2586020604051338152a1005b3461017357600036600319011261017357610c20611199565b600080546001600160a01b0319811682556001600160a01b03167f8be0079c531659141344cd1fd0a4f28419497f9722a3daafe3b4186f6b6457e08280a3005b3461017357602036600319011261017357610c79611183565b610c81611199565b6001600160a01b038116908115610cde5760028054610100600160a81b03191660089290921b610100600160a81b03169190911790557f45e919947eac4ba070dccb2545cf1e7e330fd110330232d74a6996e9e2308f24600080a2005b60405162461bcd60e51b815260206004820152601d60248201527f416c7461723a20416464726573732063616e6e6f74206265207a65726f0000006044820152606490fd5b346101735760003660031901126101735760025460405160089190911c6001600160a01b03168152602090f35b3461017357600036600319011261017357602060ff600254166040519015158152f35b3461017357600036600319011261017357610d8c611199565b6000805481908190819047906001600160a01b03165af13d15610e30573d67ffffffffffffffff8111610e1a5760405190610dd1601f8201601f191660200183611211565b8152600060203d92013e5b15610de357005b60405162461bcd60e51b815260206004820152600f60248201526e15da5d1a191c985dc819985a5b1959608a1b6044820152606490fd5b634e487b7160e01b600052604160045260246000fd5b610ddc565b3461017357600036600319011261017357610e4e611199565b60025460ff811615610e8d5760ff19166002557f5db9ee0a495bf2e6ff9c91a7834c1ba4fdd244a5e8aa4e537bd38aeae4b073aa6020604051338152a1005b604051638dfc202b60e01b8152600490fd5b346101735760c036600319011261017357610eb8611173565b60a036602319011261017357610ecc611199565b60ff8091169081151580611075575b1561103b57606481610f07610eff610ef16115ba565b610ef96115ca565b906112ae565b610ef96115da565b161015610fe45781600052600660205260406000209060243591818316809303610173578260ff198254161781556002604435918260018201550182610f4b6115ba565b1681549061ff00610f5a6115ca565b60081b169062ff0000610f6b6115da565b60101b169262ffffff19161717179055604051928352602083015260643581811680910361017357604083015260843581811680910361017357606083015260a435908116809103610173578160a09160807f4159ca31556ff07d0153c52adbacf3167a2ef051bf0c835c6b1863ef35af66e4940152a2005b60405162461bcd60e51b815260206004820152602960248201527f416c7461723a20546f74616c206368616e6365206d757374206265206c6573736044820152680207468616e203130360bc1b6064820152608490fd5b60405162461bcd60e51b8152602060048201526012602482015271496e76616c69642066726f6d52617269747960701b6044820152606490fd5b5060058210610edb565b34610173576000366003190112610173576020600554604051908152f35b34610173576020366003190112610173577f6b2ef7fbf20c7dc4747c84307cfd2178ccc921ab1e016cfa964f640ba898ee9960206004356110dc611199565b80600555604051908152a1005b346101735760203660031901126101735760ff611104611173565b16600052600660205260a0604060002060ff8082541691600260018201549101549060405193845260208401528181166040840152818160081c16606084015260101c166080820152f35b34610173576000366003190112610173576003546001600160a01b03168152602090f35b6004359060ff8216820361017357565b600435906001600160a01b038216820361017357565b6000546001600160a01b031633036111ad57565b60405163118cdaa760e01b8152336004820152602490fd5b60a0810190811067ffffffffffffffff821117610e1a57604052565b67ffffffffffffffff8111610e1a57604052565b6080810190811067ffffffffffffffff821117610e1a57604052565b90601f8019910116810190811067ffffffffffffffff821117610e1a57604052565b60001981146112425760010190565b634e487b7160e01b600052601160045260246000fd5b91908110156112685760051b0190565b634e487b7160e01b600052603260045260246000fd5b60ff6002541661128a57565b60405163d93c066560e01b8152600490fd5b60ff60019116019060ff821161124257565b9060ff8091169116019060ff821161124257565b519060ff8216820361017357565b9190826040910312610173576112f160206112ea846112c2565b93016112c2565b90565b919082604091031261017357602061130b836112c2565b92015190565b9081602091031261017357516001600160a01b03811681036101735790565b1561133757565b60405162461bcd60e51b815260206004820152602160248201527f416c7461723a204e6f74206f776e6572206f6620616c6c206d6174657269616c6044820152607360f81b6064820152608490fd5b1561138d57565b60405162461bcd60e51b815260206004820152602660248201527f416c7461723a204d6174657269616c73206d75737420686176652073616d652060448201526572617269747960d01b6064820152608490fd5b60035490916001600160a01b0391908216908216810361145157611404846114e5565b92813b15610173576000606492819560ff60405198899788966210a27b60e11b885216600487015216602485015260448401525af18015610590576114465750565b61144f906111e1565b565b9260ff1692831515806114da575b156114a457803b156101735760009283606492604051968795869463c820c7f160e01b865216600485015280602485015260448401525af18015610590576114465750565b60405162461bcd60e51b815260206004820152600e60248201526d496e76616c69642072617269747960901b6044820152606490fd5b50600584111561145f565b604051602081019042825260ff83169260ff60f81b9060f81b1660408201523360601b6041820152603581526060810181811067ffffffffffffffff821117610e1a5760405251902090600181146115a757600281146115945760038114611581576004811461156e5760051461155c5750600090565b6038900660c8018060c8116112425790565b5060339006609601806096116112425790565b5060339006606401806064116112425790565b5060339006603201806032116112425790565b5060249006600f0180600f116112425790565b60643560ff811681036101735790565b60843560ff811681036101735790565b60a43560ff81168103610173579056fea26469706673582212203e78316cbbef2275e104f201087920d9b2e6aff6378daa48fe6b6e9170f16c3764736f6c63430008140033",
  "linkReferences": {},
  "deployedLinkReferences": {}
}