{
  "_format": "hh-sol-artifact-1",
  "contractName": "DungeonMaster",
  "sourceName": "contracts/DungeonMaster.sol",
  "abi": [
    {
      "inputs": [
        {
          "internalType": "address",
          "name": "_initialOwner",
          "type": "address"
        }
      ],
      "stateMutability": "nonpayable",
      "type": "constructor"
    },
    {
      "inputs": [],
      "name": "EnforcedPause",
      "type": "error"
    },
    {
      "inputs": [],
      "name": "ExpectedPause",
      "type": "error"
    },
    {
      "inputs": [
        {
          "internalType": "address",
          "name": "owner",
          "type": "address"
        }
      ],
      "name": "OwnableInvalidOwner",
      "type": "error"
    },
    {
      "inputs": [
        {
          "internalType": "address",
          "name": "account",
          "type": "address"
        }
      ],
      "name": "OwnableUnauthorizedAccount",
      "type": "error"
    },
    {
      "inputs": [],
      "name": "ReentrancyGuardReentrantCall",
      "type": "error"
    },
    {
      "inputs": [
        {
          "internalType": "address",
          "name": "token",
          "type": "address"
        }
      ],
      "name": "SafeERC20FailedOperation",
      "type": "error"
    },
    {
      "anonymous": false,
      "inputs": [
        {
          "indexed": true,
          "internalType": "address",
          "name": "newAddress",
          "type": "address"
        }
      ],
      "name": "DungeonCoreSet",
      "type": "event"
    },
    {
      "anonymous": false,
      "inputs": [
        {
          "indexed": true,
          "internalType": "uint256",
          "name": "dungeonId",
          "type": "uint256"
        },
        {
          "indexed": false,
          "internalType": "uint256",
          "name": "requiredPower",
          "type": "uint256"
        },
        {
          "indexed": false,
          "internalType": "uint256",
          "name": "rewardAmountUSD",
          "type": "uint256"
        },
        {
          "indexed": false,
          "internalType": "uint8",
          "name": "baseSuccessRate",
          "type": "uint8"
        }
      ],
      "name": "DungeonSet",
      "type": "event"
    },
    {
      "anonymous": false,
      "inputs": [
        {
          "indexed": true,
          "internalType": "address",
          "name": "newAddress",
          "type": "address"
        }
      ],
      "name": "DungeonStorageSet",
      "type": "event"
    },
    {
      "anonymous": false,
      "inputs": [
        {
          "indexed": false,
          "internalType": "uint256",
          "name": "newSeed",
          "type": "uint256"
        }
      ],
      "name": "DynamicSeedUpdated",
      "type": "event"
    },
    {
      "anonymous": false,
      "inputs": [
        {
          "indexed": true,
          "internalType": "address",
          "name": "player",
          "type": "address"
        },
        {
          "indexed": true,
          "internalType": "uint256",
          "name": "partyId",
          "type": "uint256"
        },
        {
          "indexed": false,
          "internalType": "bool",
          "name": "success",
          "type": "bool"
        },
        {
          "indexed": false,
          "internalType": "uint256",
          "name": "reward",
          "type": "uint256"
        },
        {
          "indexed": false,
          "internalType": "uint256",
          "name": "expGained",
          "type": "uint256"
        }
      ],
      "name": "ExpeditionFulfilled",
      "type": "event"
    },
    {
      "anonymous": false,
      "inputs": [
        {
          "indexed": true,
          "internalType": "address",
          "name": "previousOwner",
          "type": "address"
        },
        {
          "indexed": true,
          "internalType": "address",
          "name": "newOwner",
          "type": "address"
        }
      ],
      "name": "OwnershipTransferred",
      "type": "event"
    },
    {
      "anonymous": false,
      "inputs": [
        {
          "indexed": true,
          "internalType": "uint256",
          "name": "partyId",
          "type": "uint256"
        },
        {
          "indexed": false,
          "internalType": "uint256",
          "name": "costInSoulShard",
          "type": "uint256"
        }
      ],
      "name": "PartyRested",
      "type": "event"
    },
    {
      "anonymous": false,
      "inputs": [
        {
          "indexed": false,
          "internalType": "address",
          "name": "account",
          "type": "address"
        }
      ],
      "name": "Paused",
      "type": "event"
    },
    {
      "anonymous": false,
      "inputs": [
        {
          "indexed": true,
          "internalType": "uint256",
          "name": "partyId",
          "type": "uint256"
        },
        {
          "indexed": false,
          "internalType": "uint256",
          "name": "amount",
          "type": "uint256"
        },
        {
          "indexed": false,
          "internalType": "uint256",
          "name": "cost",
          "type": "uint256"
        }
      ],
      "name": "ProvisionsBought",
      "type": "event"
    },
    {
      "anonymous": false,
      "inputs": [
        {
          "indexed": false,
          "internalType": "uint256",
          "name": "newDivisor",
          "type": "uint256"
        }
      ],
      "name": "RestCostDivisorSet",
      "type": "event"
    },
    {
      "anonymous": false,
      "inputs": [
        {
          "indexed": true,
          "internalType": "address",
          "name": "user",
          "type": "address"
        },
        {
          "indexed": true,
          "internalType": "uint256",
          "name": "partyId",
          "type": "uint256"
        },
        {
          "indexed": false,
          "internalType": "uint256",
          "name": "amount",
          "type": "uint256"
        }
      ],
      "name": "RewardsBanked",
      "type": "event"
    },
    {
      "anonymous": false,
      "inputs": [
        {
          "indexed": false,
          "internalType": "address",
          "name": "account",
          "type": "address"
        }
      ],
      "name": "Unpaused",
      "type": "event"
    },
    {
      "inputs": [],
      "name": "COOLDOWN_PERIOD",
      "outputs": [
        {
          "internalType": "uint256",
          "name": "",
          "type": "uint256"
        }
      ],
      "stateMutability": "view",
      "type": "function"
    },
    {
      "inputs": [
        {
          "internalType": "uint256",
          "name": "_dungeonId",
          "type": "uint256"
        },
        {
          "internalType": "uint256",
          "name": "_requiredPower",
          "type": "uint256"
        },
        {
          "internalType": "uint256",
          "name": "_rewardAmountUSD",
          "type": "uint256"
        },
        {
          "internalType": "uint8",
          "name": "_baseSuccessRate",
          "type": "uint8"
        }
      ],
      "name": "adminSetDungeon",
      "outputs": [],
      "stateMutability": "nonpayable",
      "type": "function"
    },
    {
      "inputs": [
        {
          "internalType": "uint256",
          "name": "_partyId",
          "type": "uint256"
        },
        {
          "internalType": "uint256",
          "name": "_amount",
          "type": "uint256"
        }
      ],
      "name": "buyProvisions",
      "outputs": [],
      "stateMutability": "nonpayable",
      "type": "function"
    },
    {
      "inputs": [
        {
          "internalType": "uint256",
          "name": "_partyId",
          "type": "uint256"
        }
      ],
      "name": "claimRewards",
      "outputs": [],
      "stateMutability": "nonpayable",
      "type": "function"
    },
    {
      "inputs": [],
      "name": "dungeonCore",
      "outputs": [
        {
          "internalType": "contract IDungeonCore",
          "name": "",
          "type": "address"
        }
      ],
      "stateMutability": "view",
      "type": "function"
    },
    {
      "inputs": [],
      "name": "dungeonStorage",
      "outputs": [
        {
          "internalType": "contract IDungeonStorage",
          "name": "",
          "type": "address"
        }
      ],
      "stateMutability": "view",
      "type": "function"
    },
    {
      "inputs": [],
      "name": "dynamicSeed",
      "outputs": [
        {
          "internalType": "uint256",
          "name": "",
          "type": "uint256"
        }
      ],
      "stateMutability": "view",
      "type": "function"
    },
    {
      "inputs": [],
      "name": "explorationFee",
      "outputs": [
        {
          "internalType": "uint256",
          "name": "",
          "type": "uint256"
        }
      ],
      "stateMutability": "view",
      "type": "function"
    },
    {
      "inputs": [],
      "name": "globalRewardMultiplier",
      "outputs": [
        {
          "internalType": "uint256",
          "name": "",
          "type": "uint256"
        }
      ],
      "stateMutability": "view",
      "type": "function"
    },
    {
      "inputs": [
        {
          "internalType": "uint256",
          "name": "_partyId",
          "type": "uint256"
        }
      ],
      "name": "isPartyLocked",
      "outputs": [
        {
          "internalType": "bool",
          "name": "",
          "type": "bool"
        }
      ],
      "stateMutability": "view",
      "type": "function"
    },
    {
      "inputs": [],
      "name": "owner",
      "outputs": [
        {
          "internalType": "address",
          "name": "",
          "type": "address"
        }
      ],
      "stateMutability": "view",
      "type": "function"
    },
    {
      "inputs": [],
      "name": "pause",
      "outputs": [],
      "stateMutability": "nonpayable",
      "type": "function"
    },
    {
      "inputs": [],
      "name": "paused",
      "outputs": [
        {
          "internalType": "bool",
          "name": "",
          "type": "bool"
        }
      ],
      "stateMutability": "view",
      "type": "function"
    },
    {
      "inputs": [],
      "name": "provisionPriceUSD",
      "outputs": [
        {
          "internalType": "uint256",
          "name": "",
          "type": "uint256"
        }
      ],
      "stateMutability": "view",
      "type": "function"
    },
    {
      "inputs": [],
      "name": "renounceOwnership",
      "outputs": [],
      "stateMutability": "nonpayable",
      "type": "function"
    },
    {
      "inputs": [
        {
          "internalType": "uint256",
          "name": "_partyId",
          "type": "uint256"
        },
        {
          "internalType": "uint256",
          "name": "_dungeonId",
          "type": "uint256"
        }
      ],
      "name": "requestExpedition",
      "outputs": [],
      "stateMutability": "payable",
      "type": "function"
    },
    {
      "inputs": [],
      "name": "restCostPowerDivisor",
      "outputs": [
        {
          "internalType": "uint256",
          "name": "",
          "type": "uint256"
        }
      ],
      "stateMutability": "view",
      "type": "function"
    },
    {
      "inputs": [
        {
          "internalType": "uint256",
          "name": "_partyId",
          "type": "uint256"
        }
      ],
      "name": "restParty",
      "outputs": [],
      "stateMutability": "nonpayable",
      "type": "function"
    },
    {
      "inputs": [
        {
          "internalType": "address",
          "name": "_newAddress",
          "type": "address"
        }
      ],
      "name": "setDungeonCore",
      "outputs": [],
      "stateMutability": "nonpayable",
      "type": "function"
    },
    {
      "inputs": [
        {
          "internalType": "address",
          "name": "_newAddress",
          "type": "address"
        }
      ],
      "name": "setDungeonStorage",
      "outputs": [],
      "stateMutability": "nonpayable",
      "type": "function"
    },
    {
      "inputs": [
        {
          "internalType": "uint256",
          "name": "_newFee",
          "type": "uint256"
        }
      ],
      "name": "setExplorationFee",
      "outputs": [],
      "stateMutability": "nonpayable",
      "type": "function"
    },
    {
      "inputs": [
        {
          "internalType": "uint256",
          "name": "_newMultiplier",
          "type": "uint256"
        }
      ],
      "name": "setGlobalRewardMultiplier",
      "outputs": [],
      "stateMutability": "nonpayable",
      "type": "function"
    },
    {
      "inputs": [
        {
          "internalType": "uint256",
          "name": "_newPrice",
          "type": "uint256"
        }
      ],
      "name": "setProvisionPriceUSD",
      "outputs": [],
      "stateMutability": "nonpayable",
      "type": "function"
    },
    {
      "inputs": [
        {
          "internalType": "uint256",
          "name": "_newDivisor",
          "type": "uint256"
        }
      ],
      "name": "setRestCostPowerDivisor",
      "outputs": [],
      "stateMutability": "nonpayable",
      "type": "function"
    },
    {
      "inputs": [
        {
          "internalType": "address",
          "name": "newOwner",
          "type": "address"
        }
      ],
      "name": "transferOwnership",
      "outputs": [],
      "stateMutability": "nonpayable",
      "type": "function"
    },
    {
      "inputs": [],
      "name": "unpause",
      "outputs": [],
      "stateMutability": "nonpayable",
      "type": "function"
    },
    {
      "inputs": [
        {
          "internalType": "uint256",
          "name": "_newSeed",
          "type": "uint256"
        }
      ],
      "name": "updateDynamicSeed",
      "outputs": [],
      "stateMutability": "nonpayable",
      "type": "function"
    },
    {
      "inputs": [],
      "name": "withdrawNativeFunding",
      "outputs": [],
      "stateMutability": "nonpayable",
      "type": "function"
    },
    {
      "inputs": [],
      "name": "withdrawSoulShard",
      "outputs": [],
      "stateMutability": "nonpayable",
      "type": "function"
    }
  ],
  "bytecode": "0x60803461012a576001600160401b0390601f6200234038819003918201601f19168301918483118484101761012f5780849260209460405283398101031261012a57516001600160a01b038082169182900361012a57811561011157600080546001600160a01b031981168417825560405191939192167f8be0079c531659141344cd1fd0a4f28419497f9722a3daafe3b4186f6b6457e08480a360018055671bc16d674ec800006005556103e86006556605543df729c00060075560c860085560208101914283523360601b6040830152603482526060820193828510908511176100fd5750826040525190206004556121fa9081620001468239f35b634e487b7160e01b81526041600452602490fd5b604051631e4fbdf760e01b815260006004820152602490fd5b600080fd5b634e487b7160e01b600052604160045260246000fdfe6080604052600436101561001257600080fd5b6000803560e01c80630962ef7914611ba45780631bf4a16214611b865780631dafec0014611a585780633706dc4b14611a0a5780633a92c0ac146119ec5780633f4ba83a146119815780633f9e8acd1461195e5780635c975abb1461193b57806367cfab581461190e5780636ab1b29b146118935780636e99d52f146118755780636eb5d3611461180d578063715018a6146117b357806377bcf67e146114a85780637a70d1911461147f5780638456cb59146114245780638da5cb5b146113fd578063a70ad1671461101a578063a911982714610ff1578063ad0d43c214610fd3578063c143c4a81461062c578063c47d435714610563578063e4bb695014610512578063e625d1f4146104ef578063e695722a146102ca578063e7fa7754146102ac578063f2fde38b14610216578063f7cb333e146101f85763fd0fedf71461015c57600080fd5b346101f55760203660031901126101f557600435610178611e57565b80156101b0576020817f9ba584a7c3acac44e4a5338655aaecf499af15ec23beb70875d0e60d7ec75e4b92600855604051908152a180f35b60405162461bcd60e51b815260206004820152601760248201527f444d3a2044697669736f72206d757374206265203e20300000000000000000006044820152606490fd5b80fd5b50346101f557806003193601126101f5576020600754604051908152f35b50346101f55760203660031901126101f5576004356001600160a01b03818116918290036102a857610246611e57565b811561028f57600054826bffffffffffffffffffffffff60a01b821617600055167f8be0079c531659141344cd1fd0a4f28419497f9722a3daafe3b4186f6b6457e0600080a380f35b604051631e4fbdf760e01b815260048101849052602490fd5b8280fd5b50346101f557806003193601126101f5576020600854604051908152f35b50346101f55760803660031901126101f557600435602435604435906064359160ff83168093036103ea576102fd611e57565b6003546001600160a01b031680156104aa578415158061043b575b156103fd57604051869161032b82611e97565b848252602082019184835260408101918783526060820160018152813b156103f9578560a4928b9260ff8397604051998a988997631ba7791760e01b895260048901525160248801525160448701525116606485015251151560848401525af180156103ee576103d2575b5050907ffaa9851dea424ac560635cbbb6a715dbd9be8d55803dfebaadc3730a6a83f1e29260609260405192835260208301526040820152a280f35b6103de90939293611e83565b6103ea57908438610396565b8480fd5b6040513d84823e3d90fd5b8580fd5b60405162461bcd60e51b815260206004820152601660248201527511134e88125b9d985b1a5908191d5b99d95bdb88125160521b6044820152606490fd5b50604051631ca6589b60e01b8152602081600481855afa90811561049f578791610469575b50851115610318565b90506020813d8211610497575b8161048360209383611eb3565b81010312610492575138610460565b600080fd5b3d9150610476565b6040513d89823e3d90fd5b60405162461bcd60e51b815260206004820152601a60248201527f444d3a2044756e67656f6e53746f72616765206e6f74207365740000000000006044820152606490fd5b50346101f55760203660031901126101f557610509611e57565b60043560075580f35b50346101f55760203660031901126101f55760043561052f611e57565b670de0b6b3a76400009081810291818304149015171561054f5760055580f35b634e487b7160e01b82526011600452602482fd5b50346101f557806003193601126101f55761057c611e57565b8080808060018060a01b0381541647905af13d15610627573d67ffffffffffffffff811161061357604051906105bc601f8201601f191660200183611eb3565b81528260203d92013e5b156105ce5780f35b60405162461bcd60e51b815260206004820152601a60248201527f444d3a204e6174697665207769746864726177206661696c65640000000000006044820152606490fd5b634e487b7160e01b83526041600452602483fd5b6105c6565b5061063636611e41565b61063e6120d1565b6106466120b3565b600254604051630e9bb10560e01b8082529260089290921c6001600160a01b03169190602081600481865afa908115610fab576024916020918891610fb6575b506040516331a9108f60e11b81526004810188905292839182906001600160a01b03165afa8015610fab576106cd918791610f8c575b506001600160a01b03163314611ef4565b6007543410610f515781151580610f3d575b15610ef857600354604051631625b33360e21b8152600481018390526001600160a01b039091169390608081602481885afa90811561049f578791610ed9575b50604051637fa2309360e01b81526004810187905291608083602481895afa928315610c0e578893610ea8575b50606082015115610e7157825115610e385760208301514210610dfb57604051908152602081600481885afa908115610c0e576024916040918a91610ddc575b50815163216688e960e01b8152600481018a905292839182906001600160a01b03165afa908115610c0e578891610dac575b50606083015160011b6101fe60fe821691168103610d985760640360ff8111610d985760649160ff6107f1921690611f36565b04905111610d405780518015610d2c576000190181526201518042014211610d18574262015180016020820152604051631625b33360e21b815260048101839052608081602481885afa90811561049f578791610ce9575b5060405163c116355760e01b8152879190602081600481895afa908115610cde576024916020918b91610cc1575b506040516332854c1360e01b815233600482015292839182906001600160a01b03165afa899181610c81575b50610c78575b50604060ff910151169060ff808216830111610aec579060ff80921601169060648211610c6f575b6004546040519060208201524260408201523360601b6060820152866074820152836094820152609481528060c081011067ffffffffffffffff60c083011117610c595760c081016040526064815160208301200695838710600014610c5057631625b33360e21b60c0830190815260c4830186905260809160249082905afa8015610c0e576020610974916103e8938b91610c19575b50015160065490611f36565b604051637b2e0fcf60e01b81529190046004820152602081602481885afa908115610c0e578891610bdc575b50925b600581029080820460051490151715610aec5760148101809111610aec5787919083871015610bd357945b85610b16575b5083610b00575b60ff606082015116602d8110610ace575b5060045483871015610ac85760015b604051906020820192835288604083015260ff60f81b9060f81b16606082015260418152610a2881611e97565b5190206004556003546001600160a01b0316803b156102a857610a659183918983604051809681958294635810405760e11b845260048401611fbd565b03925af180156103ee57610ab4575b505060405193108352602083015260408201527f036fa7ebe32c81d713bab4f5c2a50eb37d9633d474f2561a7c28ea52c9a2635660603392a36001805580f35b610abd90611e83565b6103f9578538610a74565b826109fb565b90915060ff8114610aec5760010160ff1660608201528690386109ec565b634e487b7160e01b88526011600452602488fd5b60408101610b0f858251611fb0565b90526109db565b60206004916040519283809263c4d3db4760e01b82525afa908115610bc8578391610b99575b506001600160a01b0316803b156102a857604051633cc01ef160e21b815233600482015260248101879052839182908290604490829084905af1610b81575b506109d4565b610b8a90611e83565b610b95578138610b7b565b5080fd5b610bbb915060203d602011610bc1575b610bb38183611eb3565b810190611ed5565b38610b3c565b503d610ba9565b6040513d85823e3d90fd5b60021c946109ce565b90506020813d602011610c06575b81610bf760209383611eb3565b810103126104925751386109a0565b3d9150610bea565b6040513d8a823e3d90fd5b610c43915060803d608011610c49575b60c081610c398293838601611eb3565b83010191016120f4565b38610968565b503d610c29565b505086926109a3565b634e487b7160e01b600052604160045260246000fd5b606491506108d1565b915060406108a9565b9091506020813d602011610cb9575b81610c9d60209383611eb3565b81010312610cb557610cae90611f5f565b90386108a3565b8980fd5b3d9150610c90565b610cd89150823d8411610bc157610bb38183611eb3565b38610877565b6040513d8b823e3d90fd5b610d0b915060803d608011610d11575b610d038183611eb3565b8101906120f4565b38610849565b503d610cf9565b634e487b7160e01b86526011600452602486fd5b634e487b7160e01b87526011600452602487fd5b60405162461bcd60e51b815260206004820152602a60248201527f444d3a20506f77657220746f6f206c6f77206f7220706172747920697320746f6044820152691bc819985d1a59dd595960b21b6064820152608490fd5b634e487b7160e01b89526011600452602489fd5b610dce915060403d604011610dd5575b610dc68183611eb3565b810190612140565b50386107be565b503d610dbc565b610df5915060203d602011610bc157610bb38183611eb3565b3861078c565b60405162461bcd60e51b815260206004820152601560248201527422269d102830b93a3c9037b71031b7b7b63237bbb760591b6044820152606490fd5b60405162461bcd60e51b8152602060048201526011602482015270444d3a204e6f2070726f766973696f6e7360781b6044820152606490fd5b60405162461bcd60e51b815260206004820152600f60248201526e444d3a2044756e67656f6e20444e4560881b6044820152606490fd5b610ecb91935060803d608011610ed2575b610ec38183611eb3565b810190611f6d565b913861074c565b503d610eb9565b610ef2915060803d608011610d1157610d038183611eb3565b3861071f565b60405162461bcd60e51b815260206004820152601a60248201527f444d3a20436f726520636f6e747261637473206e6f74207365740000000000006044820152606490fd5b506003546001600160a01b031615156106df565b60405162461bcd60e51b815260206004820152601360248201527211134e8810939088199959481b9bdd081b595d606a1b6044820152606490fd5b610fa5915060203d602011610bc157610bb38183611eb3565b386106bc565b6040513d88823e3d90fd5b610fcd9150823d8411610bc157610bb38183611eb3565b38610686565b50346101f557806003193601126101f5576020600654604051908152f35b50346101f557806003193601126101f5576003546040516001600160a01b039091168152602090f35b50346101f557602080600319360112610b9557600435906110396120d1565b6110416120b3565b600254604051630e9bb10560e01b8082526001600160a01b03939260081c841691908382600481865afa92831561049f57859288946113de575b508460405180956331a9108f60e11b8252896004830152816024998a92165afa938415610c0e5786946110b9918a916113c1575b5084163314611ef4565b6080836003541660405195868092637fa2309360e01b82528b60048301525afa938415610c0e5788946113a1575b50606084019160ff8351161561135d576040519081528581600481855afa908115610cde5784916040918b91611340575b508882518094819363216688e960e01b83528d6004840152165afa908115610cde578991611320575b50670de0b6b3a76400009081810291818304149015171561130d576008549081156112f8570480156112bc5790858995949392604051988991637b2e0fcf60e01b8352600483015281845afa96871561127c578597611287575b5090856004926040519384809263267071ad60e01b82525afa801561127c57876111d4918794859161125f575b50309086339116611ff0565b5260035416803b156102a857604051635810405760e11b81529183918391829084908290611206908c60048401611fbd565b03925af180156103ee57611247575b50507f7bb826ce2c36a61e4c98891c3154c0a3910de69426d539749e77f52b55b661f191604051908152a26001805580f35b61125090611e83565b61125b578338611215565b8380fd5b6112769150893d8b11610bc157610bb38183611eb3565b386111c8565b6040513d87823e3d90fd5b8680929850819396503d83116112b5575b6112a28183611eb3565b810103126104925751948793908561119b565b503d611298565b60405162461bcd60e51b81526004810187905260158189015274444d3a205265737420636f7374206973207a65726f60581b6044820152606490fd5b87634e487b7160e01b60005260126004526000fd5b634e487b7160e01b895260116004528689fd5b611339915060403d604011610dd557610dc68183611eb3565b5038611141565b6113579150883d8a11610bc157610bb38183611eb3565b38611118565b60405162461bcd60e51b8152600481018790526019818901527f444d3a205061727479206973206e6f74206661746967756564000000000000006044820152606490fd5b6113ba91945060803d8111610ed257610ec38183611eb3565b92386110e7565b6113d89150873d8911610bc157610bb38183611eb3565b386110af565b6113f6919450853d8711610bc157610bb38183611eb3565b923861107b565b50346101f557806003193601126101f557546040516001600160a01b039091168152602090f35b50346101f557806003193601126101f55761143d611e57565b6114456120b3565b600160ff1960025416176002557f62e78cea01bee320cd4e420270b5ea74000d11b0c9f74754ebdbfc544b05a2586020604051338152a180f35b50346101f55760203660031901126101f557602061149e600435612156565b6040519015158152f35b50346101f5576114b736611e41565b6114bf6120d1565b6114c76120b3565b600254604051630e9bb10560e01b81526001600160a01b0360089290921c821692916020918281600481885afa90811561049f57829184918991611796575b506024604051809481936331a9108f60e11b83528b6004840152165afa801561049f5761153e918891611779575b5082163314611ef4565b821561173b5783156116f657859061155884600554611f36565b9460405195637b2e0fcf60e01b875260048701528386602481845afa958615610bc85783966116c1575b50836004916040519283809263267071ad60e01b82525afa908115610bc8576115ba91879185916116a4575b50309084339116611ff0565b600354604051637fa2309360e01b8152600481018890529116608082602481845afa918215610bc8578392611684575b506115f6858351611fb0565b8252803b156102a857604051635810405760e11b81529183918391829084908290611625908d60048401611fbd565b03925af180156103ee5761166c575b5050907ff36c43f16dcae2cfc540459bc78e6827c6549a52b3c4a2c1762544c73682b846926040928351928352820152a26001805580f35b61167890939293611e83565b6103ea57908438611634565b61169d91925060803d8111610ed257610ec38183611eb3565b90386115ea565b6116bb9150863d8811610bc157610bb38183611eb3565b386115ae565b84809297508194503d83116116ef575b6116db8183611eb3565b810103126104925790519386919083611582565b503d6116d1565b60405162461bcd60e51b815260048101839052601760248201527f444d3a2044756e67656f6e436f7265206e6f74207365740000000000000000006044820152606490fd5b60405162461bcd60e51b81526004810183905260166024820152750444d3a20416d6f756e74206d757374206265203e20360541b6044820152606490fd5b6117909150843d8611610bc157610bb38183611eb3565b38611534565b6117ad9150823d8411610bc157610bb38183611eb3565b38611506565b50346101f557806003193601126101f5576117cc611e57565b600080546001600160a01b0319811682556001600160a01b03167f8be0079c531659141344cd1fd0a4f28419497f9722a3daafe3b4186f6b6457e08280a380f35b50346101f55760203660031901126101f5576004356001600160a01b03811690819003610b955761183c611e57565b600380546001600160a01b031916821790557fb62a30fb8f7c73a0e4bc061efea54bc34145e5553d3eefa0695e6c29357de4348280a280f35b50346101f557806003193601126101f5576020604051620151808152f35b50346101f55760203660031901126101f5576004356001600160a01b038116908181036102a8576118c2611e57565b60028054610100600160a81b03191660089290921b610100600160a81b03169190911790557f45e919947eac4ba070dccb2545cf1e7e330fd110330232d74a6996e9e2308f248280a280f35b50346101f557806003193601126101f55760025460405160089190911c6001600160a01b03168152602090f35b50346101f557806003193601126101f557602060ff600254166040519015158152f35b50346101f55760203660031901126101f557611978611e57565b60043560065580f35b50346101f557806003193601126101f55761199a611e57565b60025460ff8116156119da5760ff19166002557f5db9ee0a495bf2e6ff9c91a7834c1ba4fdd244a5e8aa4e537bd38aeae4b073aa6020604051338152a180f35b604051638dfc202b60e01b8152600490fd5b50346101f557806003193601126101f5576020600454604051908152f35b50346101f55760203660031901126101f5577f6b2ef7fbf20c7dc4747c84307cfd2178ccc921ab1e016cfa964f640ba898ee996020600435611a4a611e57565b80600455604051908152a180f35b50346101f557806003193601126101f557611a71611e57565b60025460405163267071ad60e01b81526020916001600160a01b03919083908290600490829060081c86165afa8015611b7b5782918591611b5e575b5016604051916370a0823160e01b83523060048401528383602481855afa92831561127c578593611b2f575b5082611ae3578480f35b845460405163a9059cbb60e01b95810195909552166001600160a01b03166024840152604480840192909252908252611b279190611b22606483611eb3565b61204b565b388080808480f35b9092508381813d8311611b57575b611b478183611eb3565b8101031261049257519138611ad9565b503d611b3d565b611b759150843d8611610bc157610bb38183611eb3565b38611aad565b6040513d86823e3d90fd5b50346101f557806003193601126101f5576020600554604051908152f35b50346101f557602080600319360112610b955760043590611bc36120d1565b611bcb6120b3565b600254604051630e9bb10560e01b81526001600160a01b03929182908290600490829060081c87165afa90811561127c57839183918791611e24575b506024604051809481936331a9108f60e11b8352896004840152165afa801561127c57611c3f918691611e07575b5083163314611ef4565b600354604051637fa2309360e01b81526004810185905292908116608084602481845afa938415610fab578694611de7575b506040840193845115611da2579086918286519652813b156102a8578291611cb091604051948580948193635810405760e11b83528c60048401611fbd565b03925af18015610fab57611d8f575b5080600483879360025460081c1660405192838092632d45772760e01b82525afa908115610bc8578391611d72575b5016803b15610b95576040516311f9fbc960e21b8152336004820152602481018590529082908290604490829084905af180156103ee57611d5e575b50507f1a9f444c0be07bb77fd6de35b64b68078068977002def04df716d67ad2f49e23906040519283523392a36001805580f35b611d6790611e83565b61125b578338611d2a565b611d899150843d8611610bc157610bb38183611eb3565b38611cee565b611d9b90959195611e83565b9338611cbf565b60405162461bcd60e51b815260048101859052601760248201527f444d3a204e6f207265776172647320746f20636c61696d0000000000000000006044820152606490fd5b611e0091945060803d8111610ed257610ec38183611eb3565b9238611c71565b611e1e9150833d8511610bc157610bb38183611eb3565b38611c35565b611e3b9150823d8411610bc157610bb38183611eb3565b38611c07565b6040906003190112610492576004359060243590565b6000546001600160a01b03163303611e6b57565b60405163118cdaa760e01b8152336004820152602490fd5b67ffffffffffffffff8111610c5957604052565b6080810190811067ffffffffffffffff821117610c5957604052565b90601f8019910116810190811067ffffffffffffffff821117610c5957604052565b9081602091031261049257516001600160a01b03811681036104925790565b15611efb57565b60405162461bcd60e51b815260206004820152601360248201527222269d102737ba103830b93a3c9037bbb732b960691b6044820152606490fd5b81810292918115918404141715611f4957565b634e487b7160e01b600052601160045260246000fd5b519060ff8216820361049257565b9081608091031261049257611fa8606060405192611f8a84611e97565b80518452602081015160208501526040810151604085015201611f5f565b606082015290565b91908201809211611f4957565b90929160ff606060809260a085019685528051602086015260208101516040860152604081015182860152015116910152565b6040516323b872dd60e01b60208201526001600160a01b03928316602482015292909116604483015260648083019390935291815260a081019181831067ffffffffffffffff841117610c59576120499260405261204b565b565b906000602091828151910182855af1156120a7576000513d61209e57506001600160a01b0381163b155b61207c5750565b604051635274afe760e01b81526001600160a01b039091166004820152602490fd5b60011415612075565b6040513d6000823e3d90fd5b60ff600254166120bf57565b60405163d93c066560e01b8152600490fd5b6002600154146120e2576002600155565b604051633ee5aeb560e01b8152600490fd5b908160809103126104925760606040519161210e83611e97565b805183526020810151602084015261212860408201611f5f565b60408401520151801515810361049257606082015290565b9190826040910312610492576020825192015190565b6003546001600160a01b03169081156121bd57608090602460405180948193637fa2309360e01b835260048301525afa80156120a75760209160009161219f575b500151421090565b6121b7915060803d8111610ed257610ec38183611eb3565b38612197565b505060009056fea2646970667358221220e57add4f4a4bfa58406850d5a76371d03818150d667f31cc0d99efd2a838060164736f6c63430008140033",
  "linkReferences": {},
  "deployedLinkReferences": {}
}