{
  "_format": "hh-sol-artifact-1",
  "contractName": "DungeonMasterV2_Fixed",
  "sourceName": "contracts/current/core/DungeonMaster.sol",
  "abi": [
    {
      "inputs": [
        {
          "internalType": "address",
          "name": "_initialOwner",
          "type": "address"
        }
      ],
      "stateMutability": "nonpayable",
      "type": "constructor"
    },
    {
      "inputs": [],
      "name": "EnforcedPause",
      "type": "error"
    },
    {
      "inputs": [],
      "name": "ExpectedPause",
      "type": "error"
    },
    {
      "inputs": [
        {
          "internalType": "address",
          "name": "owner",
          "type": "address"
        }
      ],
      "name": "OwnableInvalidOwner",
      "type": "error"
    },
    {
      "inputs": [
        {
          "internalType": "address",
          "name": "account",
          "type": "address"
        }
      ],
      "name": "OwnableUnauthorizedAccount",
      "type": "error"
    },
    {
      "inputs": [],
      "name": "ReentrancyGuardReentrantCall",
      "type": "error"
    },
    {
      "inputs": [
        {
          "internalType": "address",
          "name": "token",
          "type": "address"
        }
      ],
      "name": "SafeERC20FailedOperation",
      "type": "error"
    },
    {
      "anonymous": false,
      "inputs": [
        {
          "indexed": true,
          "internalType": "address",
          "name": "newAddress",
          "type": "address"
        }
      ],
      "name": "DungeonCoreSet",
      "type": "event"
    },
    {
      "anonymous": false,
      "inputs": [
        {
          "indexed": true,
          "internalType": "uint256",
          "name": "dungeonId",
          "type": "uint256"
        },
        {
          "indexed": false,
          "internalType": "uint256",
          "name": "requiredPower",
          "type": "uint256"
        },
        {
          "indexed": false,
          "internalType": "uint256",
          "name": "rewardAmountUSD",
          "type": "uint256"
        },
        {
          "indexed": false,
          "internalType": "uint8",
          "name": "baseSuccessRate",
          "type": "uint8"
        }
      ],
      "name": "DungeonSet",
      "type": "event"
    },
    {
      "anonymous": false,
      "inputs": [
        {
          "indexed": true,
          "internalType": "address",
          "name": "newAddress",
          "type": "address"
        }
      ],
      "name": "DungeonStorageSet",
      "type": "event"
    },
    {
      "anonymous": false,
      "inputs": [
        {
          "indexed": false,
          "internalType": "uint256",
          "name": "newSeed",
          "type": "uint256"
        }
      ],
      "name": "DynamicSeedUpdated",
      "type": "event"
    },
    {
      "anonymous": false,
      "inputs": [
        {
          "indexed": true,
          "internalType": "address",
          "name": "player",
          "type": "address"
        },
        {
          "indexed": true,
          "internalType": "uint256",
          "name": "partyId",
          "type": "uint256"
        },
        {
          "indexed": false,
          "internalType": "bool",
          "name": "success",
          "type": "bool"
        },
        {
          "indexed": false,
          "internalType": "uint256",
          "name": "reward",
          "type": "uint256"
        },
        {
          "indexed": false,
          "internalType": "uint256",
          "name": "expGained",
          "type": "uint256"
        }
      ],
      "name": "ExpeditionFulfilled",
      "type": "event"
    },
    {
      "anonymous": false,
      "inputs": [
        {
          "indexed": true,
          "internalType": "address",
          "name": "previousOwner",
          "type": "address"
        },
        {
          "indexed": true,
          "internalType": "address",
          "name": "newOwner",
          "type": "address"
        }
      ],
      "name": "OwnershipTransferred",
      "type": "event"
    },
    {
      "anonymous": false,
      "inputs": [
        {
          "indexed": false,
          "internalType": "address",
          "name": "account",
          "type": "address"
        }
      ],
      "name": "Paused",
      "type": "event"
    },
    {
      "anonymous": false,
      "inputs": [
        {
          "indexed": true,
          "internalType": "address",
          "name": "user",
          "type": "address"
        },
        {
          "indexed": true,
          "internalType": "uint256",
          "name": "partyId",
          "type": "uint256"
        },
        {
          "indexed": false,
          "internalType": "uint256",
          "name": "amount",
          "type": "uint256"
        }
      ],
      "name": "RewardsBanked",
      "type": "event"
    },
    {
      "anonymous": false,
      "inputs": [
        {
          "indexed": true,
          "internalType": "address",
          "name": "newAddress",
          "type": "address"
        }
      ],
      "name": "SoulShardTokenSet",
      "type": "event"
    },
    {
      "anonymous": false,
      "inputs": [
        {
          "indexed": false,
          "internalType": "address",
          "name": "account",
          "type": "address"
        }
      ],
      "name": "Unpaused",
      "type": "event"
    },
    {
      "inputs": [],
      "name": "COOLDOWN_PERIOD",
      "outputs": [
        {
          "internalType": "uint256",
          "name": "",
          "type": "uint256"
        }
      ],
      "stateMutability": "view",
      "type": "function"
    },
    {
      "inputs": [
        {
          "internalType": "uint256",
          "name": "_partyId",
          "type": "uint256"
        }
      ],
      "name": "claimRewards",
      "outputs": [],
      "stateMutability": "nonpayable",
      "type": "function"
    },
    {
      "inputs": [],
      "name": "dungeonCore",
      "outputs": [
        {
          "internalType": "contract IDungeonCore",
          "name": "",
          "type": "address"
        }
      ],
      "stateMutability": "view",
      "type": "function"
    },
    {
      "inputs": [],
      "name": "dungeonStorage",
      "outputs": [
        {
          "internalType": "contract IDungeonStorage",
          "name": "",
          "type": "address"
        }
      ],
      "stateMutability": "view",
      "type": "function"
    },
    {
      "inputs": [],
      "name": "dynamicSeed",
      "outputs": [
        {
          "internalType": "uint256",
          "name": "",
          "type": "uint256"
        }
      ],
      "stateMutability": "view",
      "type": "function"
    },
    {
      "inputs": [],
      "name": "explorationFee",
      "outputs": [
        {
          "internalType": "uint256",
          "name": "",
          "type": "uint256"
        }
      ],
      "stateMutability": "view",
      "type": "function"
    },
    {
      "inputs": [
        {
          "internalType": "uint256",
          "name": "_dungeonId",
          "type": "uint256"
        }
      ],
      "name": "getDungeon",
      "outputs": [
        {
          "internalType": "uint256",
          "name": "requiredPower",
          "type": "uint256"
        },
        {
          "internalType": "uint256",
          "name": "rewardAmountUSD",
          "type": "uint256"
        },
        {
          "internalType": "uint8",
          "name": "baseSuccessRate",
          "type": "uint8"
        },
        {
          "internalType": "bool",
          "name": "isInitialized",
          "type": "bool"
        }
      ],
      "stateMutability": "view",
      "type": "function"
    },
    {
      "inputs": [
        {
          "internalType": "uint256",
          "name": "_partyId",
          "type": "uint256"
        }
      ],
      "name": "getPartyStatus",
      "outputs": [
        {
          "internalType": "uint256",
          "name": "cooldownEndsAt",
          "type": "uint256"
        },
        {
          "internalType": "uint256",
          "name": "unclaimedRewards",
          "type": "uint256"
        }
      ],
      "stateMutability": "view",
      "type": "function"
    },
    {
      "inputs": [],
      "name": "globalRewardMultiplier",
      "outputs": [
        {
          "internalType": "uint256",
          "name": "",
          "type": "uint256"
        }
      ],
      "stateMutability": "view",
      "type": "function"
    },
    {
      "inputs": [],
      "name": "owner",
      "outputs": [
        {
          "internalType": "address",
          "name": "",
          "type": "address"
        }
      ],
      "stateMutability": "view",
      "type": "function"
    },
    {
      "inputs": [],
      "name": "pause",
      "outputs": [],
      "stateMutability": "nonpayable",
      "type": "function"
    },
    {
      "inputs": [],
      "name": "paused",
      "outputs": [
        {
          "internalType": "bool",
          "name": "",
          "type": "bool"
        }
      ],
      "stateMutability": "view",
      "type": "function"
    },
    {
      "inputs": [],
      "name": "renounceOwnership",
      "outputs": [],
      "stateMutability": "nonpayable",
      "type": "function"
    },
    {
      "inputs": [
        {
          "internalType": "uint256",
          "name": "_partyId",
          "type": "uint256"
        },
        {
          "internalType": "uint256",
          "name": "_dungeonId",
          "type": "uint256"
        }
      ],
      "name": "requestExpedition",
      "outputs": [],
      "stateMutability": "payable",
      "type": "function"
    },
    {
      "inputs": [
        {
          "internalType": "uint256",
          "name": "_dungeonId",
          "type": "uint256"
        },
        {
          "internalType": "uint256",
          "name": "_requiredPower",
          "type": "uint256"
        },
        {
          "internalType": "uint256",
          "name": "_rewardAmountUSD",
          "type": "uint256"
        },
        {
          "internalType": "uint8",
          "name": "_baseSuccessRate",
          "type": "uint8"
        }
      ],
      "name": "setDungeon",
      "outputs": [],
      "stateMutability": "nonpayable",
      "type": "function"
    },
    {
      "inputs": [
        {
          "internalType": "address",
          "name": "_newAddress",
          "type": "address"
        }
      ],
      "name": "setDungeonCore",
      "outputs": [],
      "stateMutability": "nonpayable",
      "type": "function"
    },
    {
      "inputs": [
        {
          "internalType": "address",
          "name": "_newAddress",
          "type": "address"
        }
      ],
      "name": "setDungeonStorage",
      "outputs": [],
      "stateMutability": "nonpayable",
      "type": "function"
    },
    {
      "inputs": [
        {
          "internalType": "uint256",
          "name": "_newFee",
          "type": "uint256"
        }
      ],
      "name": "setExplorationFee",
      "outputs": [],
      "stateMutability": "nonpayable",
      "type": "function"
    },
    {
      "inputs": [
        {
          "internalType": "uint256",
          "name": "_newMultiplier",
          "type": "uint256"
        }
      ],
      "name": "setGlobalRewardMultiplier",
      "outputs": [],
      "stateMutability": "nonpayable",
      "type": "function"
    },
    {
      "inputs": [
        {
          "internalType": "address",
          "name": "_newAddress",
          "type": "address"
        }
      ],
      "name": "setSoulShardToken",
      "outputs": [],
      "stateMutability": "nonpayable",
      "type": "function"
    },
    {
      "inputs": [],
      "name": "soulShardToken",
      "outputs": [
        {
          "internalType": "contract IERC20",
          "name": "",
          "type": "address"
        }
      ],
      "stateMutability": "view",
      "type": "function"
    },
    {
      "inputs": [
        {
          "internalType": "address",
          "name": "newOwner",
          "type": "address"
        }
      ],
      "name": "transferOwnership",
      "outputs": [],
      "stateMutability": "nonpayable",
      "type": "function"
    },
    {
      "inputs": [],
      "name": "unpause",
      "outputs": [],
      "stateMutability": "nonpayable",
      "type": "function"
    },
    {
      "inputs": [
        {
          "internalType": "uint256",
          "name": "_newSeed",
          "type": "uint256"
        }
      ],
      "name": "updateDynamicSeed",
      "outputs": [],
      "stateMutability": "nonpayable",
      "type": "function"
    },
    {
      "inputs": [],
      "name": "withdrawNativeFunding",
      "outputs": [],
      "stateMutability": "nonpayable",
      "type": "function"
    },
    {
      "inputs": [],
      "name": "withdrawSoulShard",
      "outputs": [],
      "stateMutability": "nonpayable",
      "type": "function"
    }
  ],
  "bytecode": "0x608034610117576001600160401b0390601f61194c38819003918201601f19168301918483118484101761011c5780849260209460405283398101031261011757516001600160a01b03808216918290036101175781156100fe57600080546001600160a01b031981168417825560405191939192167f8be0079c531659141344cd1fd0a4f28419497f9722a3daafe3b4186f6b6457e08480a3600180556103e86006556605543df729c00060075560208101914283523360601b6040830152603482526060820193828510908511176100ea57508260405251902060055561181990816101338239f35b634e487b7160e01b81526041600452602490fd5b604051631e4fbdf760e01b815260006004820152602490fd5b600080fd5b634e487b7160e01b600052604160045260246000fdfe6040608081526004908136101561001557600080fd5b600091823560e01c9081630962ef79146110fb5781631dafec00146110005781633706dc4b14610fb25781633a92c0ac14610f935781633f4ba83a14610f295781633f9e8acd14610f075781634403940214610edf5781635896cccc14610e925781635c975abb14610e6e57816367cfab5814610e415781636ab1b29b14610dc75781636e99d52f14610da95781636eb5d36114610d42578163715018a614610ce85781637fa2309314610cb35781638456cb5914610c585781638da5cb5b14610c30578163a911982714610c07578163ad0d43c214610be8578163bdb7717614610a68578163c143c4a814610350578163c47d435714610288578163db4b826814610221578163e625d1f4146101ff578163f2fde38b14610162575063f7cb333e1461014157600080fd5b3461015e578160031936011261015e576020906007549051908152f35b5080fd5b919050346101fb5760203660031901126101fb576001600160a01b038235818116939192908490036101f757610196611329565b83156101e1575050600054826bffffffffffffffffffffffff60a01b821617600055167f8be0079c531659141344cd1fd0a4f28419497f9722a3daafe3b4186f6b6457e0600080a380f35b51631e4fbdf760e01b8152908101849052602490fd5b8480fd5b8280fd5b83903461015e57602036600319011261015e5761021a611329565b3560075580f35b83903461015e57602036600319011261015e5780356001600160a01b03811691908290036101fb57610251611329565b80546001600160a01b031916821790557f5b041fdbb07c066df55211c4936ce14e84504e79020b987168fa2022f1b13e798280a280f35b919050346101fb57826003193601126101fb576102a3611329565b8280808060018060a01b0381541647905af13d1561034b573d67ffffffffffffffff8111610338578251906102e2601f8201601f1916602001836113b7565b81528460203d92013e5b156102f5578280f35b906020606492519162461bcd60e51b8352820152601a60248201527f444d3a204e6174697665207769746864726177206661696c65640000000000006044820152fd5b634e487b7160e01b855260418452602485fd5b6102ec565b8391508260031936011261015e57803590602480359161036e611458565b61037661143a565b60025486516303aae71960e61b81526020959160081c6001600160a01b039081169187818681865afa908115610a5e579082918a91610a41575b50169589516331a9108f60e11b81528486820152888188818b5afa908115610a3757906103e8918b91610a1a575b50831633146113f8565b60075434106109e257821515806109d5575b1561099357610408816116f5565b61041185611551565b9760608201511561095e578851421061092357908b889281519384809263216688e960e01b82528a8c8301525afa918215610919578b926108ea575b5051116108b45762015180420180421161083b57875261046c816116f5565b8a516376ed367160e01b81528a91908a818981895afa908115610734578c8c8f949388938391610897575b5085516332854c1360e01b815233818e01529384918e918391165afa909181610856575b5061084d575b5060ff91829101511691160160ff811161083b5760ff169660648811610832575b600554978b51988a8a01908152428d8b01523360601b60608b01528660748b01528360948b015260948a5260c08a019967ffffffffffffffff9a8181108c82111761081e578e525190206064900610938a9261053d906116f5565b908515610812578a8d8a82850151915180948193637b2e0fcf60e01b83528d8301525afa908115610734578c916107e5575b50600654908181029181830414901517156107d3576103e89004801515898c8f83610758575b50505061073e575b50600a905104925b868a8d8360025460081c16905192838092637aa6b20b60e01b82525afa908115610734578c91610707575b5016803b15610703578b51633cc01ef160e21b815233818901908152602081018690528c92839183919082908490829060400103925af16106eb575b5050816106c1575b61061e90856115ef565b895192835287830152888201527f036fa7ebe32c81d713bab4f5c2a50eb37d9633d474f2561a7c28ea52c9a2635660603392a36005549186519185830193845242888401528783526060830194838610908611176106ae575050827f6b2ef7fbf20c7dc4747c84307cfd2178ccc921ab1e016cfa964f640ba898ee99959652519020806005558152a16001805580f35b604190634e487b7160e01b600052526000fd5b8881018051908382018092116106d75752610614565b88601189634e487b7160e01b600052526000fd5b6106f490611387565b6106ff57898c61060c565b8980fd5b8a80fd5b61072791508b3d8d1161072d575b61071f81836113b7565b8101906113d9565b8d6105d0565b503d610715565b8d513d8e823e3d90fd5b600a9193506107518133878b5416611489565b929061059d565b8b5490516370a0823160e01b815230818e015293509091839182908a165afa9081156107c9579082918e91610793575b501015898c8f610595565b8092508d8092503d83116107c2575b6107ac81836113b7565b810103126107bd578190518f610788565b600080fd5b503d6107a2565b8e513d8f823e3d90fd5b634e487b7160e01b8c5260118852888cfd5b90508a81813d831161080b575b6107fc81836113b7565b810103126107bd57518d61056f565b503d6107f2565b506014905104926105a5565b8a60418b634e487b7160e01b600052526000fd5b606497506104e2565b634e487b7160e01b8a5260118652868afd5b925060ff6104c1565b8d80929495508193503d8311610890575b61087181836113b7565b8101031261088c57906108858e939261147b565b908f6104bb565b8c80fd5b503d610867565b6108ae9150823d841161072d5761071f81836113b7565b38610497565b895162461bcd60e51b815280860189905260118188015270444d3a20506f77657220746f6f206c6f7760781b6044820152606490fd5b9091508b81813d8311610912575b61090281836113b7565b810103126107035751908c61044d565b503d6108f8565b8c513d8d823e3d90fd5b508a5162461bcd60e51b81528087018a90526015818901527422269d102830b93a3c9037b71031b7b7b63237bbb760591b6044820152606490fd5b508a5162461bcd60e51b81528087018a9052600f818901526e444d3a2044756e67656f6e20444e4560881b6044820152606490fd5b895162461bcd60e51b8152808601899052601a818801527f444d3a20436f726520636f6e747261637473206e6f74207365740000000000006044820152606490fd5b50816003541615156103fa565b895162461bcd60e51b81528086018990526013818801527211134e8810939088199959481b9bdd081b595d606a1b6044820152606490fd5b610a3191508a3d8c1161072d5761071f81836113b7565b8c6103de565b8b513d8c823e3d90fd5b610a589150893d8b1161072d5761071f81836113b7565b8b6103b0565b8a513d8b823e3d90fd5b919050346101fb5760803660031901126101fb57813591602435916044356064359260ff8416809403610be457610a9d611329565b60648411610ba85786835191610ab283611355565b86835260208301848152858401878152600160608601908152600354909391906001600160a01b0316803b15610ba4578b9460ff879360a4968c519a8b998a98631ba7791760e01b8a528901525160248801525160448701525116606485015251151560848401525af18015610b9a57610b5e575b50815193845260208401528201527ffaa9851dea424ac560635cbbb6a715dbd9be8d55803dfebaadc3730a6a83f1e290606090a280f35b916060939196610b8f7ffaa9851dea424ac560635cbbb6a715dbd9be8d55803dfebaadc3730a6a83f1e29694611387565b969193509193610b27565b83513d89823e3d90fd5b8580fd5b606490602084519162461bcd60e51b835282015260166024820152750444d3a20537563636573732072617465203e203130360541b6044820152fd5b8680fd5b50503461015e578160031936011261015e576020906006549051908152f35b50503461015e578160031936011261015e5760035490516001600160a01b039091168152602090f35b50503461015e578160031936011261015e57905490516001600160a01b039091168152602090f35b50503461015e578160031936011261015e5760207f62e78cea01bee320cd4e420270b5ea74000d11b0c9f74754ebdbfc544b05a25891610c96611329565b610c9e61143a565b600160ff19600254161760025551338152a180f35b90508234610ce5576020366003190112610ce55750610cd29035611551565b6020815191015182519182526020820152f35b80fd5b8334610ce55780600319360112610ce557610d01611329565b80546001600160a01b03198116825581906001600160a01b03167f8be0079c531659141344cd1fd0a4f28419497f9722a3daafe3b4186f6b6457e08280a380f35b83903461015e57602036600319011261015e57356001600160a01b0381169081900361015e57610d70611329565b600380546001600160a01b031916821790557fb62a30fb8f7c73a0e4bc061efea54bc34145e5553d3eefa0695e6c29357de4348280a280f35b50503461015e578160031936011261015e5760209051620151808152f35b83903461015e57602036600319011261015e57356001600160a01b038116908181036101fb57610df5611329565b60028054610100600160a81b03191660089290921b610100600160a81b03169190911790557f45e919947eac4ba070dccb2545cf1e7e330fd110330232d74a6996e9e2308f248280a280f35b50503461015e578160031936011261015e57600254905160089190911c6001600160a01b03168152602090f35b50503461015e578160031936011261015e5760209060ff6002541690519015158152f35b828434610ce5576020366003190112610ce55750610eb2608092356116f5565b90815191602081015191606060ff8284015116920151151592815194855260208501528301526060820152f35b9050346101fb57826003193601126101fb575490516001600160a01b03909116815260209150f35b83903461015e57602036600319011261015e57610f22611329565b3560065580f35b9050346101fb57826003193601126101fb57610f43611329565b6002549060ff821615610f85575060ff1916600255513381527f5db9ee0a495bf2e6ff9c91a7834c1ba4fdd244a5e8aa4e537bd38aeae4b073aa90602090a180f35b8251638dfc202b60e01b8152fd5b50503461015e578160031936011261015e576020906005549051908152f35b9050346101fb5760203660031901126101fb577f6b2ef7fbf20c7dc4747c84307cfd2178ccc921ab1e016cfa964f640ba898ee99916020913590610ff4611329565b8160055551908152a180f35b919050346101fb57826003193601126101fb5761101b611329565b81546001600160a01b03929083169081156110b8578251906370a0823160e01b82523090820152602081602481855afa9283156110af57508492611078575b5081611064578380f35b6110719284541690611489565b3880808380f35b9091506020813d82116110a7575b81611093602093836113b7565b810103126110a35751903861105a565b8380fd5b3d9150611086565b513d86823e3d90fd5b606490602084519162461bcd60e51b8352820152601b60248201527f444d3a20536f756c536861726420746f6b656e206e6f742073657400000000006044820152fd5b9050346101fb576020806003193601126110a35781359261111a611458565b61112261143a565b60025481516303aae71960e61b81526001600160a01b039491849082908490829060081c89165afa908115610b9a5785918591899161130c575b5060248551809481936331a9108f60e11b83528b88840152165afa908115610b9a57906111949188916112ef575b50851633146113f8565b61119d85611551565b93838501948551156112ac576111b8908887519752876115ef565b8154169082516370a0823160e01b815230828201528481602481865afa9081156112a257908691899161126d575b501061122a57509061121c847f1a9f444c0be07bb77fd6de35b64b68078068977002def04df716d67ad2f49e2394933390611489565b519283523392a36001805580f35b825162461bcd60e51b8152908101849052601a60248201527f444d3a20496e73756666696369656e7420536f756c53686172640000000000006044820152606490fd5b809250868092503d831161129b575b61128681836113b7565b8101031261129757859051386111e6565b8780fd5b503d61127c565b84513d8a823e3d90fd5b835162461bcd60e51b8152808401869052601760248201527f444d3a204e6f207265776172647320746f20636c61696d0000000000000000006044820152606490fd5b6113069150853d871161072d5761071f81836113b7565b3861118a565b6113239150823d841161072d5761071f81836113b7565b3861115c565b6000546001600160a01b0316330361133d57565b60405163118cdaa760e01b8152336004820152602490fd5b6080810190811067ffffffffffffffff82111761137157604052565b634e487b7160e01b600052604160045260246000fd5b67ffffffffffffffff811161137157604052565b6040810190811067ffffffffffffffff82111761137157604052565b90601f8019910116810190811067ffffffffffffffff82111761137157604052565b908160209103126107bd57516001600160a01b03811681036107bd5790565b156113ff57565b60405162461bcd60e51b815260206004820152601360248201527222269d102737ba103830b93a3c9037bbb732b960691b6044820152606490fd5b60ff6002541661144657565b60405163d93c066560e01b8152600490fd5b600260015414611469576002600155565b604051633ee5aeb560e01b8152600490fd5b519060ff821682036107bd57565b60405163a9059cbb60e01b60208083019182526001600160a01b0394909416602483015260448083019590955293815290926000916114c96064826113b7565b519082855af11561151c576000513d61151357506001600160a01b0381163b155b6114f15750565b604051635274afe760e01b81526001600160a01b039091166004820152602490fd5b600114156114ea565b6040513d6000823e3d90fd5b91908260809103126107bd5781519160208101519161154e60606040840151930161147b565b90565b600060206040516115618161139b565b8281520152600354604051639a7db97f60e01b81526004810192909252608090829060249082906001600160a01b03165afa801561151c5760009182916115bb575b50604051916115b18361139b565b8252602082015290565b90506115de915060803d81116115e8575b6115d681836113b7565b810190611528565b50915090386115a3565b503d6115cc565b60035460408051639a7db97f60e01b81526004810184905290926001600160a01b0390921691608082602481865afa9081156116ea5760009283926116c3575b50602086519601519185519361164485611355565b84526020840196875285840192835260ff6060850191168152843b156107bd5760009460ff869260a49589519a8b988997635810405760e11b89526004890152516024880152516044870152516064860152511660848401525af19081156116b957506116ae5750565b6116b790611387565b565b513d6000823e3d90fd5b9092506116de915060803d81116115e8576115d681836113b7565b9293915038905061162f565b84513d6000823e3d90fd5b6060906040805161170581611355565b600093818580935282602082015282848201520152608060018060a01b0360035416926024835180958193634ab74ac560e11b835260048301525afa9182156117d95783808092819561177b575b50509060ff9183519561176587611355565b8652602086015216908301521515606082015290565b9450945050506080823d82116117d1575b81611799608093836113b7565b810103126101fb5781519260208301519360606117b784860161147b565b940151918215158303610ce557509390929060ff38611753565b3d915061178c565b81513d85823e3d90fdfea264697066735822122076bf286d7c7334774f587588bebe79ea17ce7d3036dc8b3c3d9e2a858777746064736f6c63430008140033",
  "linkReferences": {},
  "deployedLinkReferences": {}
}