{
  "_format": "hh-sol-artifact-1",
  "contractName": "DungeonMaster",
  "sourceName": "contracts/current/core/DungeonMaster.sol",
  "abi": [
    {
      "inputs": [
        {
          "internalType": "address",
          "name": "_initialOwner",
          "type": "address"
        }
      ],
      "stateMutability": "nonpayable",
      "type": "constructor"
    },
    {
      "inputs": [],
      "name": "EnforcedPause",
      "type": "error"
    },
    {
      "inputs": [],
      "name": "ExpectedPause",
      "type": "error"
    },
    {
      "inputs": [
        {
          "internalType": "address",
          "name": "owner",
          "type": "address"
        }
      ],
      "name": "OwnableInvalidOwner",
      "type": "error"
    },
    {
      "inputs": [
        {
          "internalType": "address",
          "name": "account",
          "type": "address"
        }
      ],
      "name": "OwnableUnauthorizedAccount",
      "type": "error"
    },
    {
      "inputs": [],
      "name": "ReentrancyGuardReentrantCall",
      "type": "error"
    },
    {
      "inputs": [
        {
          "internalType": "address",
          "name": "token",
          "type": "address"
        }
      ],
      "name": "SafeERC20FailedOperation",
      "type": "error"
    },
    {
      "anonymous": false,
      "inputs": [
        {
          "indexed": true,
          "internalType": "address",
          "name": "newAddress",
          "type": "address"
        }
      ],
      "name": "DungeonCoreSet",
      "type": "event"
    },
    {
      "anonymous": false,
      "inputs": [
        {
          "indexed": true,
          "internalType": "uint256",
          "name": "dungeonId",
          "type": "uint256"
        },
        {
          "indexed": false,
          "internalType": "uint256",
          "name": "requiredPower",
          "type": "uint256"
        },
        {
          "indexed": false,
          "internalType": "uint256",
          "name": "rewardAmountUSD",
          "type": "uint256"
        },
        {
          "indexed": false,
          "internalType": "uint8",
          "name": "baseSuccessRate",
          "type": "uint8"
        }
      ],
      "name": "DungeonSet",
      "type": "event"
    },
    {
      "anonymous": false,
      "inputs": [
        {
          "indexed": true,
          "internalType": "address",
          "name": "newAddress",
          "type": "address"
        }
      ],
      "name": "DungeonStorageSet",
      "type": "event"
    },
    {
      "anonymous": false,
      "inputs": [
        {
          "indexed": false,
          "internalType": "uint256",
          "name": "newSeed",
          "type": "uint256"
        }
      ],
      "name": "DynamicSeedUpdated",
      "type": "event"
    },
    {
      "anonymous": false,
      "inputs": [
        {
          "indexed": true,
          "internalType": "address",
          "name": "player",
          "type": "address"
        },
        {
          "indexed": false,
          "internalType": "uint256",
          "name": "partyId",
          "type": "uint256"
        },
        {
          "indexed": false,
          "internalType": "uint256",
          "name": "dungeonId",
          "type": "uint256"
        },
        {
          "indexed": false,
          "internalType": "uint256",
          "name": "blockNumber",
          "type": "uint256"
        }
      ],
      "name": "ExpeditionCommitted",
      "type": "event"
    },
    {
      "anonymous": false,
      "inputs": [
        {
          "indexed": true,
          "internalType": "address",
          "name": "player",
          "type": "address"
        },
        {
          "indexed": true,
          "internalType": "uint256",
          "name": "partyId",
          "type": "uint256"
        },
        {
          "indexed": false,
          "internalType": "bool",
          "name": "success",
          "type": "bool"
        },
        {
          "indexed": false,
          "internalType": "uint256",
          "name": "reward",
          "type": "uint256"
        },
        {
          "indexed": false,
          "internalType": "uint256",
          "name": "expGained",
          "type": "uint256"
        }
      ],
      "name": "ExpeditionFulfilled",
      "type": "event"
    },
    {
      "anonymous": false,
      "inputs": [
        {
          "indexed": true,
          "internalType": "address",
          "name": "player",
          "type": "address"
        },
        {
          "indexed": false,
          "internalType": "uint256",
          "name": "partyId",
          "type": "uint256"
        },
        {
          "indexed": false,
          "internalType": "bool",
          "name": "success",
          "type": "bool"
        }
      ],
      "name": "ExpeditionRevealed",
      "type": "event"
    },
    {
      "anonymous": false,
      "inputs": [
        {
          "indexed": true,
          "internalType": "address",
          "name": "user",
          "type": "address"
        },
        {
          "indexed": true,
          "internalType": "address",
          "name": "executor",
          "type": "address"
        }
      ],
      "name": "ForcedRevealExecuted",
      "type": "event"
    },
    {
      "anonymous": false,
      "inputs": [
        {
          "indexed": true,
          "internalType": "address",
          "name": "previousOwner",
          "type": "address"
        },
        {
          "indexed": true,
          "internalType": "address",
          "name": "newOwner",
          "type": "address"
        }
      ],
      "name": "OwnershipTransferred",
      "type": "event"
    },
    {
      "anonymous": false,
      "inputs": [
        {
          "indexed": false,
          "internalType": "address",
          "name": "account",
          "type": "address"
        }
      ],
      "name": "Paused",
      "type": "event"
    },
    {
      "anonymous": false,
      "inputs": [
        {
          "indexed": true,
          "internalType": "address",
          "name": "user",
          "type": "address"
        },
        {
          "indexed": true,
          "internalType": "address",
          "name": "proxy",
          "type": "address"
        }
      ],
      "name": "RevealedByProxy",
      "type": "event"
    },
    {
      "anonymous": false,
      "inputs": [
        {
          "indexed": true,
          "internalType": "address",
          "name": "user",
          "type": "address"
        },
        {
          "indexed": true,
          "internalType": "uint256",
          "name": "partyId",
          "type": "uint256"
        },
        {
          "indexed": false,
          "internalType": "uint256",
          "name": "amount",
          "type": "uint256"
        }
      ],
      "name": "RewardsBanked",
      "type": "event"
    },
    {
      "anonymous": false,
      "inputs": [
        {
          "indexed": true,
          "internalType": "address",
          "name": "newAddress",
          "type": "address"
        }
      ],
      "name": "SoulShardTokenSet",
      "type": "event"
    },
    {
      "anonymous": false,
      "inputs": [
        {
          "indexed": false,
          "internalType": "address",
          "name": "account",
          "type": "address"
        }
      ],
      "name": "Unpaused",
      "type": "event"
    },
    {
      "anonymous": false,
      "inputs": [
        {
          "indexed": true,
          "internalType": "address",
          "name": "vrfManager",
          "type": "address"
        }
      ],
      "name": "VRFManagerSet",
      "type": "event"
    },
    {
      "anonymous": false,
      "inputs": [
        {
          "indexed": true,
          "internalType": "uint256",
          "name": "requestId",
          "type": "uint256"
        },
        {
          "indexed": false,
          "internalType": "uint256",
          "name": "randomWordsCount",
          "type": "uint256"
        }
      ],
      "name": "VRFRequestFulfilled",
      "type": "event"
    },
    {
      "inputs": [],
      "name": "COOLDOWN_PERIOD",
      "outputs": [
        {
          "internalType": "uint256",
          "name": "",
          "type": "uint256"
        }
      ],
      "stateMutability": "view",
      "type": "function"
    },
    {
      "inputs": [],
      "name": "MAX_REVEAL_WINDOW",
      "outputs": [
        {
          "internalType": "uint256",
          "name": "",
          "type": "uint256"
        }
      ],
      "stateMutability": "view",
      "type": "function"
    },
    {
      "inputs": [],
      "name": "REVEAL_BLOCK_DELAY",
      "outputs": [
        {
          "internalType": "uint256",
          "name": "",
          "type": "uint256"
        }
      ],
      "stateMutability": "view",
      "type": "function"
    },
    {
      "inputs": [
        {
          "internalType": "address",
          "name": "_user",
          "type": "address"
        }
      ],
      "name": "canForceReveal",
      "outputs": [
        {
          "internalType": "bool",
          "name": "",
          "type": "bool"
        }
      ],
      "stateMutability": "view",
      "type": "function"
    },
    {
      "inputs": [
        {
          "internalType": "address",
          "name": "_user",
          "type": "address"
        }
      ],
      "name": "canReveal",
      "outputs": [
        {
          "internalType": "bool",
          "name": "",
          "type": "bool"
        }
      ],
      "stateMutability": "view",
      "type": "function"
    },
    {
      "inputs": [
        {
          "internalType": "uint256",
          "name": "_partyId",
          "type": "uint256"
        }
      ],
      "name": "claimRewards",
      "outputs": [],
      "stateMutability": "view",
      "type": "function"
    },
    {
      "inputs": [],
      "name": "dungeonCore",
      "outputs": [
        {
          "internalType": "contract IDungeonCore",
          "name": "",
          "type": "address"
        }
      ],
      "stateMutability": "view",
      "type": "function"
    },
    {
      "inputs": [],
      "name": "dungeonStorage",
      "outputs": [
        {
          "internalType": "contract IDungeonStorage",
          "name": "",
          "type": "address"
        }
      ],
      "stateMutability": "view",
      "type": "function"
    },
    {
      "inputs": [],
      "name": "dynamicSeed",
      "outputs": [
        {
          "internalType": "uint256",
          "name": "",
          "type": "uint256"
        }
      ],
      "stateMutability": "view",
      "type": "function"
    },
    {
      "inputs": [],
      "name": "explorationFee",
      "outputs": [
        {
          "internalType": "uint256",
          "name": "",
          "type": "uint256"
        }
      ],
      "stateMutability": "view",
      "type": "function"
    },
    {
      "inputs": [
        {
          "internalType": "address",
          "name": "user",
          "type": "address"
        }
      ],
      "name": "forceRevealExpired",
      "outputs": [],
      "stateMutability": "nonpayable",
      "type": "function"
    },
    {
      "inputs": [
        {
          "internalType": "uint256",
          "name": "_dungeonId",
          "type": "uint256"
        }
      ],
      "name": "getDungeon",
      "outputs": [
        {
          "internalType": "uint256",
          "name": "requiredPower",
          "type": "uint256"
        },
        {
          "internalType": "uint256",
          "name": "rewardAmountUSD",
          "type": "uint256"
        },
        {
          "internalType": "uint8",
          "name": "baseSuccessRate",
          "type": "uint8"
        },
        {
          "internalType": "bool",
          "name": "isInitialized",
          "type": "bool"
        }
      ],
      "stateMutability": "view",
      "type": "function"
    },
    {
      "inputs": [],
      "name": "getExpeditionCost",
      "outputs": [
        {
          "internalType": "uint256",
          "name": "totalCost",
          "type": "uint256"
        },
        {
          "internalType": "uint256",
          "name": "explorationFeeAmount",
          "type": "uint256"
        },
        {
          "internalType": "uint256",
          "name": "vrfFeeAmount",
          "type": "uint256"
        }
      ],
      "stateMutability": "view",
      "type": "function"
    },
    {
      "inputs": [
        {
          "internalType": "uint256",
          "name": "_partyId",
          "type": "uint256"
        }
      ],
      "name": "getPartyStatus",
      "outputs": [
        {
          "internalType": "uint256",
          "name": "cooldownEndsAt",
          "type": "uint256"
        },
        {
          "internalType": "uint256",
          "name": "unclaimedRewards",
          "type": "uint256"
        }
      ],
      "stateMutability": "view",
      "type": "function"
    },
    {
      "inputs": [
        {
          "internalType": "address",
          "name": "_user",
          "type": "address"
        }
      ],
      "name": "getRevealBlocksRemaining",
      "outputs": [
        {
          "internalType": "uint256",
          "name": "",
          "type": "uint256"
        }
      ],
      "stateMutability": "view",
      "type": "function"
    },
    {
      "inputs": [
        {
          "internalType": "address",
          "name": "_user",
          "type": "address"
        }
      ],
      "name": "getUserCommitment",
      "outputs": [
        {
          "components": [
            {
              "internalType": "uint256",
              "name": "blockNumber",
              "type": "uint256"
            },
            {
              "internalType": "uint256",
              "name": "partyId",
              "type": "uint256"
            },
            {
              "internalType": "uint256",
              "name": "dungeonId",
              "type": "uint256"
            },
            {
              "internalType": "address",
              "name": "player",
              "type": "address"
            },
            {
              "internalType": "bytes32",
              "name": "commitment",
              "type": "bytes32"
            },
            {
              "internalType": "bool",
              "name": "fulfilled",
              "type": "bool"
            },
            {
              "internalType": "uint256",
              "name": "payment",
              "type": "uint256"
            }
          ],
          "internalType": "struct DungeonMaster.ExpeditionCommitment",
          "name": "",
          "type": "tuple"
        }
      ],
      "stateMutability": "view",
      "type": "function"
    },
    {
      "inputs": [],
      "name": "globalRewardMultiplier",
      "outputs": [
        {
          "internalType": "uint256",
          "name": "",
          "type": "uint256"
        }
      ],
      "stateMutability": "view",
      "type": "function"
    },
    {
      "inputs": [
        {
          "internalType": "uint256",
          "name": "requestId",
          "type": "uint256"
        },
        {
          "internalType": "uint256[]",
          "name": "randomWords",
          "type": "uint256[]"
        }
      ],
      "name": "onVRFFulfilled",
      "outputs": [],
      "stateMutability": "nonpayable",
      "type": "function"
    },
    {
      "inputs": [],
      "name": "owner",
      "outputs": [
        {
          "internalType": "address",
          "name": "",
          "type": "address"
        }
      ],
      "stateMutability": "view",
      "type": "function"
    },
    {
      "inputs": [],
      "name": "pause",
      "outputs": [],
      "stateMutability": "nonpayable",
      "type": "function"
    },
    {
      "inputs": [],
      "name": "paused",
      "outputs": [
        {
          "internalType": "bool",
          "name": "",
          "type": "bool"
        }
      ],
      "stateMutability": "view",
      "type": "function"
    },
    {
      "inputs": [],
      "name": "renounceOwnership",
      "outputs": [],
      "stateMutability": "nonpayable",
      "type": "function"
    },
    {
      "inputs": [
        {
          "internalType": "uint256",
          "name": "_partyId",
          "type": "uint256"
        },
        {
          "internalType": "uint256",
          "name": "_dungeonId",
          "type": "uint256"
        }
      ],
      "name": "requestExpedition",
      "outputs": [],
      "stateMutability": "payable",
      "type": "function"
    },
    {
      "inputs": [],
      "name": "revealExpedition",
      "outputs": [],
      "stateMutability": "nonpayable",
      "type": "function"
    },
    {
      "inputs": [
        {
          "internalType": "address",
          "name": "user",
          "type": "address"
        }
      ],
      "name": "revealExpeditionFor",
      "outputs": [],
      "stateMutability": "nonpayable",
      "type": "function"
    },
    {
      "inputs": [
        {
          "internalType": "uint256",
          "name": "_dungeonId",
          "type": "uint256"
        },
        {
          "internalType": "uint256",
          "name": "_requiredPower",
          "type": "uint256"
        },
        {
          "internalType": "uint256",
          "name": "_rewardAmountUSD",
          "type": "uint256"
        },
        {
          "internalType": "uint8",
          "name": "_baseSuccessRate",
          "type": "uint8"
        }
      ],
      "name": "setDungeon",
      "outputs": [],
      "stateMutability": "nonpayable",
      "type": "function"
    },
    {
      "inputs": [
        {
          "internalType": "address",
          "name": "_newAddress",
          "type": "address"
        }
      ],
      "name": "setDungeonCore",
      "outputs": [],
      "stateMutability": "nonpayable",
      "type": "function"
    },
    {
      "inputs": [
        {
          "internalType": "address",
          "name": "_newAddress",
          "type": "address"
        }
      ],
      "name": "setDungeonStorage",
      "outputs": [],
      "stateMutability": "nonpayable",
      "type": "function"
    },
    {
      "inputs": [
        {
          "internalType": "uint256",
          "name": "_newFee",
          "type": "uint256"
        }
      ],
      "name": "setExplorationFee",
      "outputs": [],
      "stateMutability": "nonpayable",
      "type": "function"
    },
    {
      "inputs": [
        {
          "internalType": "uint256",
          "name": "_newMultiplier",
          "type": "uint256"
        }
      ],
      "name": "setGlobalRewardMultiplier",
      "outputs": [],
      "stateMutability": "nonpayable",
      "type": "function"
    },
    {
      "inputs": [
        {
          "internalType": "address",
          "name": "_newAddress",
          "type": "address"
        }
      ],
      "name": "setSoulShardToken",
      "outputs": [],
      "stateMutability": "nonpayable",
      "type": "function"
    },
    {
      "inputs": [
        {
          "internalType": "address",
          "name": "_vrfManager",
          "type": "address"
        }
      ],
      "name": "setVRFManager",
      "outputs": [],
      "stateMutability": "nonpayable",
      "type": "function"
    },
    {
      "inputs": [],
      "name": "soulShardToken",
      "outputs": [
        {
          "internalType": "contract IERC20",
          "name": "",
          "type": "address"
        }
      ],
      "stateMutability": "view",
      "type": "function"
    },
    {
      "inputs": [
        {
          "internalType": "address",
          "name": "newOwner",
          "type": "address"
        }
      ],
      "name": "transferOwnership",
      "outputs": [],
      "stateMutability": "nonpayable",
      "type": "function"
    },
    {
      "inputs": [],
      "name": "unpause",
      "outputs": [],
      "stateMutability": "nonpayable",
      "type": "function"
    },
    {
      "inputs": [
        {
          "internalType": "address",
          "name": "",
          "type": "address"
        }
      ],
      "name": "userCommitments",
      "outputs": [
        {
          "internalType": "uint256",
          "name": "blockNumber",
          "type": "uint256"
        },
        {
          "internalType": "uint256",
          "name": "partyId",
          "type": "uint256"
        },
        {
          "internalType": "uint256",
          "name": "dungeonId",
          "type": "uint256"
        },
        {
          "internalType": "address",
          "name": "player",
          "type": "address"
        },
        {
          "internalType": "bytes32",
          "name": "commitment",
          "type": "bytes32"
        },
        {
          "internalType": "bool",
          "name": "fulfilled",
          "type": "bool"
        },
        {
          "internalType": "uint256",
          "name": "payment",
          "type": "uint256"
        }
      ],
      "stateMutability": "view",
      "type": "function"
    },
    {
      "inputs": [],
      "name": "vrfManager",
      "outputs": [
        {
          "internalType": "address",
          "name": "",
          "type": "address"
        }
      ],
      "stateMutability": "view",
      "type": "function"
    },
    {
      "inputs": [],
      "name": "withdrawNativeFunding",
      "outputs": [],
      "stateMutability": "nonpayable",
      "type": "function"
    },
    {
      "inputs": [],
      "name": "withdrawSoulShard",
      "outputs": [],
      "stateMutability": "nonpayable",
      "type": "function"
    }
  ],
  "bytecode": "0x608034620000d757601f6200315438819003918201601f19168301916001600160401b03831184841017620000dc57808492602094604052833981010312620000d757516001600160a01b039081811690819003620000d7578015620000be57600080546001600160a01b03198116831782556040519316907f8be0079c531659141344cd1fd0a4f28419497f9722a3daafe3b4186f6b6457e09080a3600180556103e86007556605543df729c0006008556130619081620000f38239f35b604051631e4fbdf760e01b815260006004820152602490fd5b600080fd5b634e487b7160e01b600052604160045260246000fdfe60806040908082526004908136101561001757600080fd5b600092833560e01c9182630962ef791461154857508163166829e31461150f5781631dafec00146113505781632a32e8d4146111d25781633a92c0ac146111b35781633f4ba83a1461112f5781633f9e8acd1461110d578163415d6a01146110185781634403940214610ff05781635896cccc14610fa25781635b6ef03214610f1e5781635c975abb14610efa57816367cfab5814610ecf5781636ab1b29b14610e355781636e99d52f14610e175781636eb5d36114610db1578163715018a614610d5857816376994b6414610c8a5781637a33eabc14610c245781637fa2309314610bf35781638456cb5914610b985781638973bc7e14610b7c5781638da5cb5b14610b56578163936315d614610b1b578163a20fd5c414610a20578163a9119827146109f8578163ad0d43c2146109d9578163b5b5d439146109ac578163bdb7717614610814578163c143c4a8146107e3578163c1b39a3e146107bb578163c47d435714610739578163cc64cb7c146103bf578163d96fe72d146103a3578163db4b82681461033d578163e625d1f41461031b578163f2fde38b14610273578163f7cb333e14610254575063fc149903146101d357600080fd5b3461025057602036600319011261025057356001600160a01b0381169081810361024c5761021090610203612019565b61020b611fe3565b612180565b803303610220575b506001805580f35b33907f03b940e5594caf9c29015b39d851054d069d150d662629de6bbdc3086fc163cd8380a338610218565b8280fd5b5080fd5b8390346102505781600319360112610250576020906008549051908152f35b90503461024c57602036600319011261024c578135916001600160a01b0391828416809403610317576102a461167b565b83156102e8575050600054826001600160a01b0319821617600055167f8be0079c531659141344cd1fd0a4f28419497f9722a3daafe3b4186f6b6457e0600080a380f35b908460249251917f1e4fbdf7000000000000000000000000000000000000000000000000000000008352820152fd5b8480fd5b5050346102505760203660031901126102505761033661167b565b3560085580f35b505034610250576020366003190112610250578035906001600160a01b03821680920361024c5761036c61167b565b816001600160a01b03198254161790557f5b041fdbb07c066df55211c4936ce14e84504e79020b987168fa2022f1b13e798280a280f35b8390346102505781600319360112610250576020905160038152f35b90503461024c5760209081600319360112610735578235926001600160a01b0392838516809503610731576103f2612019565b6103fa611fe3565b8486526009815282862061042260ff6005835493610419851515612054565b0154161561209f565b600381019081811161071e576101020180911161070b574311156106cb5784600052600981528260002060058101600160ff198254161790558460025460081c168451916303aae71960e61b835283838681855afa9283156106c0579087916000946106a1575b50846001820194602486548a5195869384926331a9108f60e11b84528c840152165afa918215610696578589928892600095610677575b506003810194848654169b8c9116146104d890612938565b600201546104e590612ce9565b516014900494895192838092637aa6b20b60e01b82525afa90811561066c5790829160009161063f575b501691823b1561063a5761057a60007f8d729483ceacc818e2eba5a141ff5a1152155f5325e43fee2d5aa0075ae12828958a956105fe9c8360099c895196879586948593633cc01ef160e21b85528401602090939291936001600160a01b0360408201951681520152565b03925af161062b575b505416925480847f036fa7ebe32c81d713bab4f5c2a50eb37d9633d474f2561a7c28ea52c9a26356606085516000815260008a820152600087820152a38151908152600085820152a2846000525260002060066000918281558260018201558260028201558260038201558260048201558260058201550155565b33907f6ccc5e45adc708ef83223a38f9c21bfd7f45a9fa7f45f4d7e2db8224ec8fe3c28380a36001805580f35b61063490611611565b38610583565b600080fd5b61065f9150873d8911610665575b6106578183611641565b8101906116bf565b3861050f565b503d61064d565b88513d6000823e3d90fd5b61068f919550823d8411610665576106578183611641565b93386104c0565b87513d6000823e3d90fd5b6106b9919450853d8711610665576106578183611641565b9238610489565b86513d6000823e3d90fd5b606492519162461bcd60e51b8352820152601360248201527f444d3a204e6f74206578706972656420796574000000000000000000000000006044820152fd5b602487601185634e487b7160e01b835252fd5b602488601186634e487b7160e01b835252fd5b8580fd5b8380fd5b90503461024c578260031936011261024c5761075361167b565b828080806001600160a01b0381541647905af161076e61170e565b5015610778578280f35b906020606492519162461bcd60e51b8352820152601a60248201527f444d3a204e6174697665207769746864726177206661696c65640000000000006044820152fd5b8390346102505781600319360112610250576020906001600160a01b03600554169051908152f35b36600319011290506102505761080d906107fb612019565b610803611fe3565b602435903561174e565b6001805580f35b90503461024c57608036600319011261024c57813591602435916044356064359260ff84168094036109a85761084861167b565b60648411610965578683519161085d836115f5565b86835260208301848152858401918783526060850192600184526001600160a01b0360035416803b15610731578b9460ff879360a4968c519a8b998a987f1ba77917000000000000000000000000000000000000000000000000000000008a528901525160248801525160448701525116606485015251151560848401525af1801561095b5761091f575b50815193845260208401528201527ffaa9851dea424ac560635cbbb6a715dbd9be8d55803dfebaadc3730a6a83f1e290606090a280f35b9160609391966109507ffaa9851dea424ac560635cbbb6a715dbd9be8d55803dfebaadc3730a6a83f1e29694611611565b9691935091936108e8565b83513d89823e3d90fd5b606490602084519162461bcd60e51b8352820152601660248201527f444d3a20537563636573732072617465203e20313030000000000000000000006044820152fd5b8680fd5b83346109d657806003193601126109d6576109c5612019565b6109cd611fe3565b61080d33612180565b80fd5b8390346102505781600319360112610250576020906007549051908152f35b8390346102505781600319360112610250576020906001600160a01b03600354169051908152f35b839150346102505760203660031901126102505782356001600160a01b03908181168091036107355783526009602052818320928251610a5f816115c3565b84549283825260018601546020830152600286015485830152600386015416606082015285850154608082015260c0600660ff6005880154161596871560a085015201549101528115159384610b13575b5083610ac3575b60208484519015158152f35b909192506003820191828111610b005761010201809211610aed5750602092504311908380610ab7565b80601185634e487b7160e01b6024945252fd5b602482601187634e487b7160e01b835252fd5b935085610ab0565b9190503461024c57602036600319011261024c5735916001600160a01b03831683036109d65750610b4d602092612df1565b90519015158152f35b8390346102505781600319360112610250576001600160a01b0360209254169051908152f35b8390346102505781600319360112610250576020905160ff8152f35b83903461025057816003193601126102505760207f62e78cea01bee320cd4e420270b5ea74000d11b0c9f74754ebdbfc544b05a25891610bd661167b565b610bde611fe3565b600160ff19600254161760025551338152a180f35b8284346109d65760203660031901126109d65750610c119035612c53565b6020815191015182519182526020820152f35b50503461025057602036600319011261025057356001600160a01b03811680910361025057610c5161167b565b806001600160a01b031960055416176005557feda44c694e75c8161562f6179238b37a8daa291b6b2229613ed903ed92ab2d3d8280a280f35b90503461024c578260031936011261024c576008549183906001600160a01b036005541680610ce4575b505080610cc4610ce092856116de565b9251938493846040919493926060820195825260208201520152565b0390f35b6020908451928380926321ffa5f960e21b82525afa859181610d1e575b50610ce093949550610d16575b849392610cb4565b905038610d0e565b9091506020813d8211610d50575b81610d3960209383611641565b810103126107315751939450849390610ce0610d01565b3d9150610d2c565b83346109d657806003193601126109d657610d7161167b565b806001600160a01b0381546001600160a01b031981168355167f8be0079c531659141344cd1fd0a4f28419497f9722a3daafe3b4186f6b6457e08280a380f35b50503461025057602036600319011261025057356001600160a01b03811680910361025057610dde61167b565b806001600160a01b031960035416176003557fb62a30fb8f7c73a0e4bc061efea54bc34145e5553d3eefa0695e6c29357de4348280a280f35b83903461025057816003193601126102505760209051620151808152f35b50503461025057602036600319011261025057356001600160a01b0381169081810361024c57610e6361167b565b7fffffffffffffffffffffff0000000000000000000000000000000000000000ff74ffffffffffffffffffffffffffffffffffffffff006002549260081b169116176002557f45e919947eac4ba070dccb2545cf1e7e330fd110330232d74a6996e9e2308f248280a280f35b8390346102505781600319360112610250576020906001600160a01b0360025460081c169051908152f35b83903461025057816003193601126102505760209060ff6002541690519015158152f35b90503461024c57602036600319011261024c578135906001600160a01b03918281168091036103175784829160e09652600960205220908154936001830154936002840154906003850154169184015492600660ff600587015416950154958151978852602088015286015260608501526080840152151560a083015260c0820152f35b905082346109d65760203660031901126109d65750610fc360809235612ce9565b90815191602081015191606060ff8284015116920151151592815194855260208501528301526060820152f35b905082346109d657806003193601126109d657506001600160a01b0360209254169051908152f35b90503461024c57602036600319011261024c578135906001600160a01b03918281168091036103175784829160e09660c08451611054816115c3565b82815282602082015282868201528260608201528260808201528260a0820152015281526009602052209080519261108b846115c3565b825494858552600184015492602086019384526002850154818701908152836003870154169260608801938452860154946080880195865260c0600660ff60058a0154169860a08b019915158a5201549801978852825198895251602089015251908701525116606085015251608084015251151560a08301525160c0820152f35b5050346102505760203660031901126102505761112861167b565b3560075580f35b9190503461024c578260031936011261024c5761114a61167b565b6002549060ff82161561118c575060ff1916600255513381527f5db9ee0a495bf2e6ff9c91a7834c1ba4fdd244a5e8aa4e537bd38aeae4b073aa90602090a180f35b82517f8dfc202b000000000000000000000000000000000000000000000000000000008152fd5b8390346102505781600319360112610250576020906006549051908152f35b9190503461024c578160031936011261024c576024359067ffffffffffffffff8211610735573660238301121561073557818101359161121183611663565b9061121e85519283611641565b83825260209360248584019160051b8301019136831161134c576024869101915b83831061133c57505050506001600160a01b036005541633036112d4578051156112925751925192835235917f039e13e1070272831a469fee81cadd186792456052d1c2b4ab06cdc1d1fb3be69190a280f35b5090606492519162461bcd60e51b8352820152601c60248201527f444d3a204e6f2072616e646f6d20776f7264732070726f7669646564000000006044820152fd5b5090608492519162461bcd60e51b8352820152602860248201527f44756e67656f6e4d61737465723a204f6e6c7920565246204d616e616765722060448201527f63616e2063616c6c0000000000000000000000000000000000000000000000006064820152fd5b823581529181019186910161123f565b8780fd5b90503461024c578260031936011261024c5761136a61167b565b6001600160a01b0390818354169182156114cc578482517f70a0823100000000000000000000000000000000000000000000000000000000815230868201526020928382602481895afa9182156114c2578392611493575b50816113cc578280f35b61143061142291845416928651928391878301957fa9059cbb00000000000000000000000000000000000000000000000000000000875260248401602090939291936001600160a01b0360408201951681520152565b03601f198101835282611641565b519082865af11561148a5783513d6114815750813b155b61145357808481808280f35b6024935051917f5274afe7000000000000000000000000000000000000000000000000000000008352820152fd5b60011415611447565b513d84823e3d90fd5b9091508381813d83116114bb575b6114ab8183611641565b8101031261024c575190386113c2565b503d6114a1565b85513d85823e3d90fd5b606484602084519162461bcd60e51b8352820152601b60248201527f444d3a20536f756c536861726420746f6b656e206e6f742073657400000000006044820152fd5b9190503461024c57602036600319011261024c5735916001600160a01b03831683036109d65750611541602092612f5d565b9051908152f35b839085346109d65760203660031901126109d65750602060849262461bcd60e51b8352820152603660248201527f444d3a205265776172647320617265206175746f6d61746963616c6c7920646560448201527f706f736974656420746f20506c617965725661756c74000000000000000000006064820152fd5b60e0810190811067ffffffffffffffff8211176115df57604052565b634e487b7160e01b600052604160045260246000fd5b6080810190811067ffffffffffffffff8211176115df57604052565b67ffffffffffffffff81116115df57604052565b6040810190811067ffffffffffffffff8211176115df57604052565b90601f8019910116810190811067ffffffffffffffff8211176115df57604052565b67ffffffffffffffff81116115df5760051b60200190565b6001600160a01b0360005416330361168f57565b60246040517f118cdaa7000000000000000000000000000000000000000000000000000000008152336004820152fd5b9081602091031261063a57516001600160a01b038116810361063a5790565b919082018092116116eb57565b634e487b7160e01b600052601160045260246000fd5b919082039182116116eb57565b3d15611749573d9067ffffffffffffffff82116115df576040519161173d601f8201601f191660200184611641565b82523d6000602084013e565b606090565b600033815260209060098252604091828220805415908115611fd4575b5015611f91576001600160a01b038060025460081c168451906303aae71960e61b825260049184818481855afa908115611f87579084918791611f6a575b50168651916331a9108f60e11b8352888484015260249286818581865afa908115611cc6578891611f4d575b508533911603611f0c57151580611eff575b15611ebe576117f589612ce9565b906117ff89612c53565b91606081015115611e7d5782514210611e3c57888a858251809581937f216688e90000000000000000000000000000000000000000000000000000000083528a8301525afa918215611cc6578892611e0d575b505111611dcc57858386866005541680611d68575b505050611876816008546116de565b91823410611d2757620151804201804211611d155781528560035416895191639a7db97f60e01b83528b878401526080838781855afa908115611d0b578a938b92611cd4575b50898151910151908c51946118d0866115f5565b85528a85019081528c850191825260ff6060860193168352833b15611cd0578c517fb02080ae000000000000000000000000000000000000000000000000000000008152808a018f90529451858901525160448501525160648401525160ff1660848301528890829060a490829084905af18015611cc657611cb3575b508460055416908a82611a825789611a7d9a989550611a5b94507fd6c7276602a3e7a4a473ac9a1d6d34b2c1c8b22c7cb03067963471fc79edd3039b999793506006969250516119d181611422888201948d433388929091607494926bffffffffffffffffffffffff199060601b1684526014840152603483015260548201520190565b51902087519687936119e2856115c3565b4385528d8786018c81528b87019182528b606088019433865260808901968752600960c060a08b019a838c52019b348d5233835252209a518b555160018b01555160028a0155600389019151166001600160a01b03198254161790555190860155511515600585019060ff801983541691151516179055565b5191015551908152602081019390935243604084015233929081906060820190565b0390a2565b89513360601b6bffffffffffffffffffffffff1916818a01908152436014820152603481018d905260548101929092529598949796949593949293879190611acd8160748401611422565b5190209360848b51809481937f86ac73f60000000000000000000000000000000000000000000000000000000083528d339084015260018d840152600160448401528860648401525af18015611ca957928986938d89948e97611c73575b5091611bbc93916006969593825198611b438a6115c3565b438a52858a01908152838a0191825260608a019333855260808b01958652600960a08c01978a895260c08d019a348c52339052528c2099518a555160018a0155516002890155600388019151166001600160a01b0319825416179055518a860155511515600585019060ff801983541691151516179055565b51910155803411611c0e575b50509251938452505050602081019190915243604082015233907fd6c7276602a3e7a4a473ac9a1d6d34b2c1c8b22c7cb03067963471fc79edd303908060608101611a7d565b8180611c1b819334611701565b335af1611c2661170e565b5015611c33578080611bc8565b90601191606494519362461bcd60e51b85528401528201527f444d3a20526566756e64206661696c65640000000000000000000000000000006044820152fd5b93955050945050813d8311611ca2575b611c8d8183611641565b8101031261063a57848491898b948d38611b2b565b503d611c83565b89513d87823e3d90fd5b611cbf90979197611611565b953861194d565b89513d8a823e3d90fd5b8b80fd5b909350611cf8915060803d8111611d04575b611cf08183611641565b810190612c2a565b929491503890506118bc565b503d611ce6565b8b513d8c823e3d90fd5b8489601188634e487b7160e01b835252fd5b6064856018868a8d519362461bcd60e51b85528401528201527f444d3a20496e73756666696369656e74207061796d656e7400000000000000006044820152fd5b909192508951928380926321ffa5f960e21b82525afa908115611dc2578791611d95575b50838638611867565b90508581813d8311611dbb575b611dac8183611641565b810103126109a8575138611d8c565b503d611da2565b88513d89823e3d90fd5b606483601184888b519362461bcd60e51b85528401528201527f444d3a20506f77657220746f6f206c6f770000000000000000000000000000006044820152fd5b9091508881813d8311611e35575b611e258183611641565b8101031261134c57519038611852565b503d611e1b565b6064856015868a8d519362461bcd60e51b85528401528201527f444d3a205061727479206f6e20636f6f6c646f776e00000000000000000000006044820152fd5b606485600f868a8d519362461bcd60e51b85528401528201527f444d3a2044756e67656f6e20444e4500000000000000000000000000000000006044820152fd5b606483601a84888b519362461bcd60e51b85528401528201527f444d3a20436f726520636f6e747261637473206e6f74207365740000000000006044820152fd5b50836003541615156117e7565b606484601385898c519362461bcd60e51b85528401528201527f444d3a204e6f74207061727479206f776e6572000000000000000000000000006044820152fd5b611f649150873d8911610665576106578183611641565b386117d5565b611f819150863d8811610665576106578183611641565b386117a9565b87513d88823e3d90fd5b60649083519062461bcd60e51b82526004820152601f60248201527f444d3a2050726576696f75732065787065646974696f6e2070656e64696e67006044820152fd5b60ff915060050154163861176b565b60ff60025416611fef57565b60046040517fd93c0665000000000000000000000000000000000000000000000000000000008152fd5b60026001541461202a576002600155565b60046040517f3ee5aeb5000000000000000000000000000000000000000000000000000000008152fd5b1561205b57565b606460405162461bcd60e51b815260206004820152601960248201527f444d3a204e6f2070656e64696e672065787065646974696f6e000000000000006044820152fd5b156120a657565b606460405162461bcd60e51b815260206004820152601460248201527f444d3a20416c72656164792072657665616c65640000000000000000000000006044820152fd5b5190811515820361063a57565b919060408382031261063a5761210c836120ea565b92602090818101519067ffffffffffffffff821161063a57019180601f8401121561063a57825161213c81611663565b9361214a6040519586611641565b818552838086019260051b82010192831161063a578301905b828210612171575050505090565b81518152908301908301612163565b906001600160a01b0380921660008181526020600981526040928383206121a981541515612054565b6121ba60ff6005830154161561209f565b8660055416806125ea575b505460038101908181116125d657814310612593576101020180911161257f57431161253c57808352600982528383209560058701600160ff198254161790558060025460081c1685516303aae71960e61b815260049885828b81865afa918215611dc257879261251d575b50600181015492868460248d888d5197889485936331a9108f60e11b8552840152165afa928315611cc65790859493929189936124fe575b506122806003830154938685169788911614612938565b8154600381018091116124eb578c8b91409384156124d0575b60020154968a6122a889612ce9565b948d9451938480926376ed367160e01b82525afa9182156124c6578f8a908f94938f938f94956124a2575b5090602491865195869485936332854c1360e01b8552840152165afa8c918161245c575b5091612313939160ff9593612454575b50849192015116612991565b16916064831161244b575b8951908882019283526bffffffffffffffffffffffff199060601b168a8201528360548201528460748201526074815260a0810181811067ffffffffffffffff821117612438576124369b9c50957f036fa7ebe32c81d713bab4f5c2a50eb37d9633d474f2561a7c28ea52c9a263566123f48c6123d384999760648a9860099f9e9d987f8d729483ceacc818e2eba5a141ff5a1152155f5325e43fee2d5aa0075ae128289c99865251902006108098866129a5565b92909151928392898460409194939260608201951515825260208201520152565b0390a388519081529015156020820152604090a28352522060066000918281558260018201558260028201558260038201558260048201558260058201550155565b565b60248a60418f634e487b7160e01b835252fd5b6064925061231e565b915084612307565b8c809294508193503d831161249b575b6124768183611641565b81010312611cd057918c60ff949261249061231395612983565b9294509092946122f7565b503d61246c565b6024929195506124be90853d8711610665576106578183611641565b9490916122d3565b8d513d8e823e3d90fd5b9350505060001943014381116124eb5740918a908d90612299565b60248a60118f634e487b7160e01b835252fd5b612516919350883d8a11610665576106578183611641565b9138612269565b612535919250863d8811610665576106578183611641565b9038612231565b60648285519062461bcd60e51b82526004820152601960248201527f444d3a2052657665616c2077696e646f772065787069726564000000000000006044820152fd5b602484634e487b7160e01b81526011600452fd5b60648487519062461bcd60e51b82526004820152601760248201527f444d3a20546f6f206561726c7920746f2072657665616c0000000000000000006044820152fd5b602485634e487b7160e01b81526011600452fd5b8551635681dbe960e01b8152858160248160049588878301525afa908115611f875786908792612913575b5080612909575b61262657506121c5565b80919250979293949751156128f657840151838852600985528588209160058301600160ff19825416179055888460025460081c16918851946303aae71960e61b865288868381875afa9586156128ec5783966128cd575b50868960018301549760248d51809481936331a9108f60e11b83528c89840152165afa9081156128c35784926126d18d95936002938e8d9c9b9a99926128a6575b505060038301548b169b168b14612938565b015496818b6126df8a612ce9565b96859651928380926376ed367160e01b82525afa93841561289b57918d8d94928c9496612875575b5090602492915195869485936332854c1360e01b8552840152165afa8c91816127c0575b50967f036fa7ebe32c81d713bab4f5c2a50eb37d9633d474f2561a7c28ea52c9a263566123f48c6124369e9f9c9a7f8d729483ceacc818e2eba5a141ff5a1152155f5325e43fee2d5aa0075ae128289860ff61279f60099f9d9a8d9a868a9f9b6123d3976124545750849192015116612991565b1690606482116127b7575b60649006108098866129a5565b606491506127aa565b9091508981813d831161286e575b6127d88183611641565b8101031261286a57967f036fa7ebe32c81d713bab4f5c2a50eb37d9633d474f2561a7c28ea52c9a263566123f48c6124369e9f9c9a7f8d729483ceacc818e2eba5a141ff5a1152155f5325e43fee2d5aa0075ae128289860ff61279f60099f9d9a8d9a868a9f9b61284b6123d398612983565b9c509a50509a9d9f9c509a9d9f505050989d9f505050509c9b9c61272b565b8c80fd5b503d6127ce565b6024939291965061289290863d8811610665576106578183611641565b95909192612707565b8d51903d90823e3d90fd5b6128bc9250803d10610665576106578183611641565b388e6126bf565b8b513d86823e3d90fd5b6128e5919650893d8b11610665576106578183611641565b943861267e565b8a513d85823e3d90fd5b602488603284634e487b7160e01b835252fd5b508051151561261c565b905061293191503d8088833e6129298183611641565b8101906120f7565b9038612615565b1561293f57565b606460405162461bcd60e51b815260206004820152601960248201527f444d3a204e6f206c6f6e676572207061727479206f776e6572000000000000006044820152fd5b519060ff8216820361063a57565b9060ff8091169116019060ff82116116eb57565b91929060009360006129b78193612ce9565b9115612c1e576001600160a01b03908160025460081c169160209081850151916040928351907f7b2e0fcf00000000000000000000000000000000000000000000000000000000825260048201528181602481895afa908115612be7578591612bf1575b50600754908181029181830414901517156125d6576103e890049485612afd575b505050505050600a905104925b6001600160a01b03600460208260025460081c1660405192838092637aa6b20b60e01b82525afa908115612af2578491612ad4575b501690813b1561024c57604051633cc01ef160e21b81526001600160a01b03919091166004820152602481018590529082908290604490829084905af1612ac3575050565b612acd8291611611565b6109d65750565b612aec915060203d8111610665576106578183611641565b38612a7e565b6040513d86823e3d90fd5b839495969a509060049181939451928380927f29bdca370000000000000000000000000000000000000000000000000000000082525afa918215612be7578592612bca575b505016803b1561024c5781517f47e7ef240000000000000000000000000000000000000000000000000000000081526001600160a01b038816600482015260248101859052919083908390604490829084905af190811561148a5750612bb4575b5050600a9094903880808080612a3c565b600a929350612bc290611611565b919038612ba3565b612be09250803d10610665576106578183611641565b3880612b42565b84513d87823e3d90fd5b90508181813d8311612c17575b612c088183611641565b81010312610317575138612a1b565b503d612bfe565b50601490510492612a49565b919082608091031261063a57815191602081015191612c50606060408401519301612983565b90565b60006020604051612c6381611625565b828152015260806001600160a01b036003541691602460405180948193639a7db97f60e01b835260048301525afa8015612cdd576000918291612cb9575b5060405191612caf83611625565b8252602082015290565b9050612cd3915060803d8111611d0457611cf08183611641565b5091509038612ca1565b6040513d6000823e3d90fd5b606060408051612cf8816115f5565b60009281848093528260208201528284820152015260806001600160a01b03600354169360248351809681937f956e958a00000000000000000000000000000000000000000000000000000000835260048301525afa918215612de65780938190828095612d89575b50509060ff91835195612d73876115f5565b8652602086015216908301521515606082015290565b939550935050506080823d8211612dde575b81612da860809383611641565b810103126109d6575080519160ff602083015193612dd36060612dcc858701612983565b95016120ea565b909490939138612d61565b3d9150612d9b565b9051903d90823e3d90fd5b6001600160a01b0380911690600090828252600960205260408220928260405192612e1b846115c3565b85548452600186015460208501526002860154604085015280600387015416606085015260048601546080850152600660ff6005880154169660a086019715158852015460c0850152600554169182612efa575b50505080518015159384612ef0575b5083612ed8575b5082612e9057505090565b51600381019250828111612ec45761010201809211612eb0575043111590565b80634e487b7160e01b602492526011600452fd5b602482634e487b7160e01b81526011600452fd5b90925060038101809111612ec4574310159138612e85565b5115935038612e7e565b602460405180948193635681dbe960e01b835260048301525afa908115612f52578391612f37575b50612f2f57388281612e6f565b505050600190565b612f4b91503d8085833e6129298183611641565b5038612f22565b6040513d85823e3d90fd5b6001600160a01b03806000921682526009602052604082209060405191612f83836115c3565b8054918284526001820154602085015260028201546040850152600382015416606084015260048101546080840152600660ff6005830154161515918260a0860152015460c08401528115908115613023575b5061301e576003810180911161300a5743101561300657519060038201809211612eb05750612c50904390611701565b5090565b602483634e487b7160e01b81526011600452fd5b505090565b905038612fd656fea264697066735822122004f887a0a313a12280684462b261461ed667a14809687b92a121fc510dae55c664736f6c63430008140033",
  "linkReferences": {},
  "deployedLinkReferences": {}
}