{
  "_format": "hh-sol-artifact-1",
  "contractName": "DungeonMasterV2",
  "sourceName": "contracts/DungeonMaster.sol",
  "abi": [
    {
      "inputs": [
        {
          "internalType": "address",
          "name": "_initialOwner",
          "type": "address"
        }
      ],
      "stateMutability": "nonpayable",
      "type": "constructor"
    },
    {
      "inputs": [],
      "name": "EnforcedPause",
      "type": "error"
    },
    {
      "inputs": [],
      "name": "ExpectedPause",
      "type": "error"
    },
    {
      "inputs": [
        {
          "internalType": "address",
          "name": "owner",
          "type": "address"
        }
      ],
      "name": "OwnableInvalidOwner",
      "type": "error"
    },
    {
      "inputs": [
        {
          "internalType": "address",
          "name": "account",
          "type": "address"
        }
      ],
      "name": "OwnableUnauthorizedAccount",
      "type": "error"
    },
    {
      "inputs": [],
      "name": "ReentrancyGuardReentrantCall",
      "type": "error"
    },
    {
      "inputs": [
        {
          "internalType": "address",
          "name": "token",
          "type": "address"
        }
      ],
      "name": "SafeERC20FailedOperation",
      "type": "error"
    },
    {
      "anonymous": false,
      "inputs": [
        {
          "indexed": true,
          "internalType": "address",
          "name": "newAddress",
          "type": "address"
        }
      ],
      "name": "DungeonCoreSet",
      "type": "event"
    },
    {
      "anonymous": false,
      "inputs": [
        {
          "indexed": true,
          "internalType": "uint256",
          "name": "dungeonId",
          "type": "uint256"
        },
        {
          "indexed": false,
          "internalType": "uint256",
          "name": "requiredPower",
          "type": "uint256"
        },
        {
          "indexed": false,
          "internalType": "uint256",
          "name": "rewardAmountUSD",
          "type": "uint256"
        },
        {
          "indexed": false,
          "internalType": "uint8",
          "name": "baseSuccessRate",
          "type": "uint8"
        }
      ],
      "name": "DungeonSet",
      "type": "event"
    },
    {
      "anonymous": false,
      "inputs": [
        {
          "indexed": true,
          "internalType": "address",
          "name": "newAddress",
          "type": "address"
        }
      ],
      "name": "DungeonStorageSet",
      "type": "event"
    },
    {
      "anonymous": false,
      "inputs": [
        {
          "indexed": false,
          "internalType": "uint256",
          "name": "newSeed",
          "type": "uint256"
        }
      ],
      "name": "DynamicSeedUpdated",
      "type": "event"
    },
    {
      "anonymous": false,
      "inputs": [
        {
          "indexed": true,
          "internalType": "address",
          "name": "player",
          "type": "address"
        },
        {
          "indexed": true,
          "internalType": "uint256",
          "name": "partyId",
          "type": "uint256"
        },
        {
          "indexed": false,
          "internalType": "bool",
          "name": "success",
          "type": "bool"
        },
        {
          "indexed": false,
          "internalType": "uint256",
          "name": "reward",
          "type": "uint256"
        },
        {
          "indexed": false,
          "internalType": "uint256",
          "name": "expGained",
          "type": "uint256"
        }
      ],
      "name": "ExpeditionFulfilled",
      "type": "event"
    },
    {
      "anonymous": false,
      "inputs": [
        {
          "indexed": true,
          "internalType": "address",
          "name": "previousOwner",
          "type": "address"
        },
        {
          "indexed": true,
          "internalType": "address",
          "name": "newOwner",
          "type": "address"
        }
      ],
      "name": "OwnershipTransferred",
      "type": "event"
    },
    {
      "anonymous": false,
      "inputs": [
        {
          "indexed": true,
          "internalType": "uint256",
          "name": "partyId",
          "type": "uint256"
        },
        {
          "indexed": false,
          "internalType": "uint256",
          "name": "costInSoulShard",
          "type": "uint256"
        },
        {
          "indexed": true,
          "internalType": "address",
          "name": "payer",
          "type": "address"
        }
      ],
      "name": "PartyRested",
      "type": "event"
    },
    {
      "anonymous": false,
      "inputs": [
        {
          "indexed": false,
          "internalType": "address",
          "name": "account",
          "type": "address"
        }
      ],
      "name": "Paused",
      "type": "event"
    },
    {
      "anonymous": false,
      "inputs": [
        {
          "indexed": true,
          "internalType": "uint256",
          "name": "partyId",
          "type": "uint256"
        },
        {
          "indexed": false,
          "internalType": "uint256",
          "name": "amount",
          "type": "uint256"
        },
        {
          "indexed": false,
          "internalType": "uint256",
          "name": "cost",
          "type": "uint256"
        },
        {
          "indexed": true,
          "internalType": "address",
          "name": "buyer",
          "type": "address"
        }
      ],
      "name": "ProvisionsBought",
      "type": "event"
    },
    {
      "anonymous": false,
      "inputs": [
        {
          "indexed": false,
          "internalType": "uint256",
          "name": "newDivisor",
          "type": "uint256"
        }
      ],
      "name": "RestCostDivisorSet",
      "type": "event"
    },
    {
      "anonymous": false,
      "inputs": [
        {
          "indexed": true,
          "internalType": "address",
          "name": "user",
          "type": "address"
        },
        {
          "indexed": true,
          "internalType": "uint256",
          "name": "partyId",
          "type": "uint256"
        },
        {
          "indexed": false,
          "internalType": "uint256",
          "name": "amount",
          "type": "uint256"
        }
      ],
      "name": "RewardsBanked",
      "type": "event"
    },
    {
      "anonymous": false,
      "inputs": [
        {
          "indexed": true,
          "internalType": "address",
          "name": "newAddress",
          "type": "address"
        }
      ],
      "name": "SoulShardTokenSet",
      "type": "event"
    },
    {
      "anonymous": false,
      "inputs": [
        {
          "indexed": false,
          "internalType": "address",
          "name": "account",
          "type": "address"
        }
      ],
      "name": "Unpaused",
      "type": "event"
    },
    {
      "inputs": [],
      "name": "COOLDOWN_PERIOD",
      "outputs": [
        {
          "internalType": "uint256",
          "name": "",
          "type": "uint256"
        }
      ],
      "stateMutability": "view",
      "type": "function"
    },
    {
      "inputs": [
        {
          "internalType": "uint256",
          "name": "_dungeonId",
          "type": "uint256"
        },
        {
          "internalType": "uint256",
          "name": "_requiredPower",
          "type": "uint256"
        },
        {
          "internalType": "uint256",
          "name": "_rewardAmountUSD",
          "type": "uint256"
        },
        {
          "internalType": "uint8",
          "name": "_baseSuccessRate",
          "type": "uint8"
        }
      ],
      "name": "adminSetDungeon",
      "outputs": [],
      "stateMutability": "nonpayable",
      "type": "function"
    },
    {
      "inputs": [
        {
          "internalType": "uint256",
          "name": "_partyId",
          "type": "uint256"
        },
        {
          "internalType": "uint256",
          "name": "_amount",
          "type": "uint256"
        }
      ],
      "name": "buyProvisions",
      "outputs": [],
      "stateMutability": "nonpayable",
      "type": "function"
    },
    {
      "inputs": [
        {
          "internalType": "uint256",
          "name": "_partyId",
          "type": "uint256"
        }
      ],
      "name": "claimRewards",
      "outputs": [],
      "stateMutability": "nonpayable",
      "type": "function"
    },
    {
      "inputs": [],
      "name": "dungeonCore",
      "outputs": [
        {
          "internalType": "contract IDungeonCore",
          "name": "",
          "type": "address"
        }
      ],
      "stateMutability": "view",
      "type": "function"
    },
    {
      "inputs": [],
      "name": "dungeonStorage",
      "outputs": [
        {
          "internalType": "contract IDungeonStorage",
          "name": "",
          "type": "address"
        }
      ],
      "stateMutability": "view",
      "type": "function"
    },
    {
      "inputs": [],
      "name": "dynamicSeed",
      "outputs": [
        {
          "internalType": "uint256",
          "name": "",
          "type": "uint256"
        }
      ],
      "stateMutability": "view",
      "type": "function"
    },
    {
      "inputs": [],
      "name": "explorationFee",
      "outputs": [
        {
          "internalType": "uint256",
          "name": "",
          "type": "uint256"
        }
      ],
      "stateMutability": "view",
      "type": "function"
    },
    {
      "inputs": [],
      "name": "globalRewardMultiplier",
      "outputs": [
        {
          "internalType": "uint256",
          "name": "",
          "type": "uint256"
        }
      ],
      "stateMutability": "view",
      "type": "function"
    },
    {
      "inputs": [
        {
          "internalType": "uint256",
          "name": "_partyId",
          "type": "uint256"
        }
      ],
      "name": "isPartyLocked",
      "outputs": [
        {
          "internalType": "bool",
          "name": "",
          "type": "bool"
        }
      ],
      "stateMutability": "view",
      "type": "function"
    },
    {
      "inputs": [],
      "name": "owner",
      "outputs": [
        {
          "internalType": "address",
          "name": "",
          "type": "address"
        }
      ],
      "stateMutability": "view",
      "type": "function"
    },
    {
      "inputs": [],
      "name": "pause",
      "outputs": [],
      "stateMutability": "nonpayable",
      "type": "function"
    },
    {
      "inputs": [],
      "name": "paused",
      "outputs": [
        {
          "internalType": "bool",
          "name": "",
          "type": "bool"
        }
      ],
      "stateMutability": "view",
      "type": "function"
    },
    {
      "inputs": [],
      "name": "provisionPriceUSD",
      "outputs": [
        {
          "internalType": "uint256",
          "name": "",
          "type": "uint256"
        }
      ],
      "stateMutability": "view",
      "type": "function"
    },
    {
      "inputs": [],
      "name": "renounceOwnership",
      "outputs": [],
      "stateMutability": "nonpayable",
      "type": "function"
    },
    {
      "inputs": [
        {
          "internalType": "uint256",
          "name": "_partyId",
          "type": "uint256"
        },
        {
          "internalType": "uint256",
          "name": "_dungeonId",
          "type": "uint256"
        }
      ],
      "name": "requestExpedition",
      "outputs": [],
      "stateMutability": "payable",
      "type": "function"
    },
    {
      "inputs": [],
      "name": "restCostPowerDivisor",
      "outputs": [
        {
          "internalType": "uint256",
          "name": "",
          "type": "uint256"
        }
      ],
      "stateMutability": "view",
      "type": "function"
    },
    {
      "inputs": [
        {
          "internalType": "uint256",
          "name": "_partyId",
          "type": "uint256"
        }
      ],
      "name": "restParty",
      "outputs": [],
      "stateMutability": "nonpayable",
      "type": "function"
    },
    {
      "inputs": [
        {
          "internalType": "address",
          "name": "_newAddress",
          "type": "address"
        }
      ],
      "name": "setDungeonCore",
      "outputs": [],
      "stateMutability": "nonpayable",
      "type": "function"
    },
    {
      "inputs": [
        {
          "internalType": "address",
          "name": "_newAddress",
          "type": "address"
        }
      ],
      "name": "setDungeonStorage",
      "outputs": [],
      "stateMutability": "nonpayable",
      "type": "function"
    },
    {
      "inputs": [
        {
          "internalType": "uint256",
          "name": "_newFee",
          "type": "uint256"
        }
      ],
      "name": "setExplorationFee",
      "outputs": [],
      "stateMutability": "nonpayable",
      "type": "function"
    },
    {
      "inputs": [
        {
          "internalType": "uint256",
          "name": "_newMultiplier",
          "type": "uint256"
        }
      ],
      "name": "setGlobalRewardMultiplier",
      "outputs": [],
      "stateMutability": "nonpayable",
      "type": "function"
    },
    {
      "inputs": [
        {
          "internalType": "uint256",
          "name": "_newPrice",
          "type": "uint256"
        }
      ],
      "name": "setProvisionPriceUSD",
      "outputs": [],
      "stateMutability": "nonpayable",
      "type": "function"
    },
    {
      "inputs": [
        {
          "internalType": "uint256",
          "name": "_newDivisor",
          "type": "uint256"
        }
      ],
      "name": "setRestCostPowerDivisor",
      "outputs": [],
      "stateMutability": "nonpayable",
      "type": "function"
    },
    {
      "inputs": [
        {
          "internalType": "address",
          "name": "_newAddress",
          "type": "address"
        }
      ],
      "name": "setSoulShardToken",
      "outputs": [],
      "stateMutability": "nonpayable",
      "type": "function"
    },
    {
      "inputs": [],
      "name": "soulShardToken",
      "outputs": [
        {
          "internalType": "contract IERC20",
          "name": "",
          "type": "address"
        }
      ],
      "stateMutability": "view",
      "type": "function"
    },
    {
      "inputs": [
        {
          "internalType": "address",
          "name": "newOwner",
          "type": "address"
        }
      ],
      "name": "transferOwnership",
      "outputs": [],
      "stateMutability": "nonpayable",
      "type": "function"
    },
    {
      "inputs": [],
      "name": "unpause",
      "outputs": [],
      "stateMutability": "nonpayable",
      "type": "function"
    },
    {
      "inputs": [
        {
          "internalType": "uint256",
          "name": "_newSeed",
          "type": "uint256"
        }
      ],
      "name": "updateDynamicSeed",
      "outputs": [],
      "stateMutability": "nonpayable",
      "type": "function"
    },
    {
      "inputs": [],
      "name": "withdrawNativeFunding",
      "outputs": [],
      "stateMutability": "nonpayable",
      "type": "function"
    },
    {
      "inputs": [],
      "name": "withdrawSoulShard",
      "outputs": [],
      "stateMutability": "nonpayable",
      "type": "function"
    }
  ],
  "bytecode": "0x60803461012a576001600160401b0390601f620022f938819003918201601f19168301918483118484101761012f5780849260209460405283398101031261012a57516001600160a01b038082169182900361012a57811561011157600080546001600160a01b031981168417825560405191939192167f8be0079c531659141344cd1fd0a4f28419497f9722a3daafe3b4186f6b6457e08480a360018055671bc16d674ec800006006556103e86007556605543df729c00060085560c860095560208101914283523360601b6040830152603482526060820193828510908511176100fd5750826040525190206005556121b39081620001468239f35b634e487b7160e01b81526041600452602490fd5b604051631e4fbdf760e01b815260006004820152602490fd5b600080fd5b634e487b7160e01b600052604160045260246000fdfe6080604052600436101561001257600080fd5b6000803560e01c80630962ef7914611b115780631bf4a16214611af35780631dafec0014611a0f5780633706dc4b146119c15780633a92c0ac146119a35780633f4ba83a146119385780633f9e8acd1461191557806344039402146118ec5780635c975abb146118c957806367cfab581461189c5780636ab1b29b146118215780636e99d52f146118035780636eb5d3611461179b578063715018a61461174157806377bcf67e146114405780637a70d191146114175780638456cb59146113bc5780638da5cb5b14611395578063a70ad16714610ff8578063a911982714610fcf578063ad0d43c214610fb1578063c143c4a8146106ae578063c47d4357146105e5578063db4b826814610579578063e4bb695014610528578063e625d1f414610505578063e695722a146102e0578063e7fa7754146102c2578063f2fde38b1461022c578063f7cb333e1461020e5763fd0fedf71461017257600080fd5b3461020b57602036600319011261020b5760043561018e611dc4565b80156101c6576020817f9ba584a7c3acac44e4a5338655aaecf499af15ec23beb70875d0e60d7ec75e4b92600955604051908152a180f35b60405162461bcd60e51b815260206004820152601760248201527f444d3a2044697669736f72206d757374206265203e20300000000000000000006044820152606490fd5b80fd5b503461020b578060031936011261020b576020600854604051908152f35b503461020b57602036600319011261020b576004356001600160a01b03818116918290036102be5761025c611dc4565b81156102a557600054826bffffffffffffffffffffffff60a01b821617600055167f8be0079c531659141344cd1fd0a4f28419497f9722a3daafe3b4186f6b6457e0600080a380f35b604051631e4fbdf760e01b815260048101849052602490fd5b8280fd5b503461020b578060031936011261020b576020600954604051908152f35b503461020b57608036600319011261020b57600435602435604435906064359160ff831680930361040057610313611dc4565b6003546001600160a01b031680156104c05784151580610451575b1561041357604051869161034182611e50565b848252602082019184835260408101918783526060820160018152813b1561040f578560a4928b9260ff8397604051998a988997631ba7791760e01b895260048901525160248801525160448701525116606485015251151560848401525af18015610404576103e8575b5050907ffaa9851dea424ac560635cbbb6a715dbd9be8d55803dfebaadc3730a6a83f1e29260609260405192835260208301526040820152a280f35b6103f490939293611e3c565b610400579084386103ac565b8480fd5b6040513d84823e3d90fd5b8580fd5b60405162461bcd60e51b815260206004820152601660248201527511134e88125b9d985b1a5908191d5b99d95bdb88125160521b6044820152606490fd5b50604051631ca6589b60e01b8152602081600481855afa9081156104b557879161047f575b5085111561032e565b90506020813d82116104ad575b8161049960209383611e6c565b810103126104a8575138610476565b600080fd5b3d915061048c565b6040513d89823e3d90fd5b60405162461bcd60e51b815260206004820152601a60248201527f444d3a2044756e67656f6e53746f72616765206e6f74207365740000000000006044820152606490fd5b503461020b57602036600319011261020b5761051f611dc4565b60043560085580f35b503461020b57602036600319011261020b57600435610545611dc4565b670de0b6b3a7640000908181029181830414901517156105655760065580f35b634e487b7160e01b82526011600452602482fd5b503461020b57602036600319011261020b576004356001600160a01b038116908190036105e1576105a8611dc4565b600480546001600160a01b031916821790557f5b041fdbb07c066df55211c4936ce14e84504e79020b987168fa2022f1b13e798280a280f35b5080fd5b503461020b578060031936011261020b576105fe611dc4565b8080808060018060a01b0381541647905af13d156106a9573d67ffffffffffffffff8111610695576040519061063e601f8201601f191660200183611e6c565b81528260203d92013e5b156106505780f35b60405162461bcd60e51b815260206004820152601a60248201527f444d3a204e6174697665207769746864726177206661696c65640000000000006044820152606490fd5b634e487b7160e01b83526041600452602483fd5b610648565b506106b836611dae565b6106c0612048565b6106c861202a565b6002546040516303aae71960e61b815260089190911c6001600160a01b031690602081600481855afa908115610fa6578591610f87575b506040516331a9108f60e11b8152600481018590526001600160a01b03919091169290602081602481875afa8015610f7c5761074d918791610f5d575b506001600160a01b0316331461206b565b6008543410610f225781151580610f0e575b15610ec957600354604051631625b33360e21b8152600481018390526001600160a01b039091169390608081602481885afa9081156104b5578791610eaa575b50604051637fa2309360e01b81526004810187905291608083602481895afa928315610c4b578893610e79575b50606082015115610e425760208301514210610e0557604060249181519283809263216688e960e01b82528b60048301525afa908115610c4b578891610dd5575b50606083015160011b6101fe60fe821691168103610dc15760640360ff8111610dc15760649160ff610840921690611ead565b04905111610d69576201518042014211610d55574262015180016020820152604051631625b33360e21b815260048101839052608081602481885afa9081156104b5578791610d26575b506040516376ed367160e01b8152879190602081600481895afa908115610d1b576024916020918b91610cfe575b506040516332854c1360e01b815233600482015292839182906001600160a01b03165afa899181610cbe575b50610cb5575b50604060ff910151169060ff808216830111610b2d579060ff80921601169060648211610cac575b6005546040519060208201524260408201523360601b6060820152866074820152836094820152609481528060c081011067ffffffffffffffff60c083011117610c965760c081016040526064815160208301200695838710600014610c8d57631625b33360e21b60c0830190815260c4830186905260809160249082905afa8015610c4b5760206109b5916103e8938b91610c56575b50015160075490611ead565b604051637b2e0fcf60e01b81529190046004820152602081602481885afa908115610c4b578891610c19575b50925b600581029080820460051490151715610b2d5760148101809111610b2d5787919083871015610c1057945b85610b57575b5083610b41575b60ff606082015116602d8110610b0f575b5060055483871015610b095760015b604051906020820192835288604083015260ff60f81b9060f81b16606082015260418152610a6981611e50565b5190206005556003546001600160a01b0316803b156102be57610aa69183918983604051809681958294635810405760e11b845260048401611f34565b03925af1801561040457610af5575b505060405193108352602083015260408201527f036fa7ebe32c81d713bab4f5c2a50eb37d9633d474f2561a7c28ea52c9a2635660603392a36001805580f35b610afe90611e3c565b61040f578538610ab5565b82610a3c565b90915060ff8114610b2d5760010160ff166060820152869038610a2d565b634e487b7160e01b88526011600452602488fd5b60408101610b50858251611f27565b9052610a1c565b602060049160405192838092637aa6b20b60e01b82525afa908115610c05578391610bd6575b506001600160a01b0316803b156102be57604051633cc01ef160e21b815233600482015260248101879052839182908290604490829084905af1610bc2575b50610a15565b610bcb90611e3c565b6105e1578138610bbc565b610bf8915060203d602011610bfe575b610bf08183611e6c565b810190611e8e565b38610b7d565b503d610be6565b6040513d85823e3d90fd5b60021c94610a0f565b90506020813d602011610c43575b81610c3460209383611e6c565b810103126104a85751386109e1565b3d9150610c27565b6040513d8a823e3d90fd5b610c80915060803d608011610c86575b60c081610c768293838601611e6c565b83010191016120ad565b386109a9565b503d610c66565b505086926109e4565b634e487b7160e01b600052604160045260246000fd5b60649150610912565b915060406108ea565b9091506020813d602011610cf6575b81610cda60209383611e6c565b81010312610cf257610ceb90611ed6565b90386108e4565b8980fd5b3d9150610ccd565b610d159150823d8411610bfe57610bf08183611e6c565b386108b8565b6040513d8b823e3d90fd5b610d48915060803d608011610d4e575b610d408183611e6c565b8101906120ad565b3861088a565b503d610d36565b634e487b7160e01b86526011600452602486fd5b60405162461bcd60e51b815260206004820152602a60248201527f444d3a20506f77657220746f6f206c6f77206f7220706172747920697320746f6044820152691bc819985d1a59dd595960b21b6064820152608490fd5b634e487b7160e01b89526011600452602489fd5b610df7915060403d604011610dfe575b610def8183611e6c565b8101906120f9565b503861080d565b503d610de5565b60405162461bcd60e51b815260206004820152601560248201527422269d102830b93a3c9037b71031b7b7b63237bbb760591b6044820152606490fd5b60405162461bcd60e51b815260206004820152600f60248201526e444d3a2044756e67656f6e20444e4560881b6044820152606490fd5b610e9c91935060803d608011610ea3575b610e948183611e6c565b810190611ee4565b91386107cc565b503d610e8a565b610ec3915060803d608011610d4e57610d408183611e6c565b3861079f565b60405162461bcd60e51b815260206004820152601a60248201527f444d3a20436f726520636f6e747261637473206e6f74207365740000000000006044820152606490fd5b506003546001600160a01b0316151561075f565b60405162461bcd60e51b815260206004820152601360248201527211134e8810939088199959481b9bdd081b595d606a1b6044820152606490fd5b610f76915060203d602011610bfe57610bf08183611e6c565b3861073c565b6040513d88823e3d90fd5b610fa0915060203d602011610bfe57610bf08183611e6c565b386106ff565b6040513d87823e3d90fd5b503461020b578060031936011261020b576020600754604051908152f35b503461020b578060031936011261020b576003546040516001600160a01b039091168152602090f35b503461020b576020806003193601126105e157600435611016612048565b61101e61202a565b6002546040516303aae71960e61b815260089190911c6001600160a01b0390811693918281600481885afa8015610f7c5782918791611378575b501690604051916331a9108f60e11b835284600484015260249284818581855afa908161135b575b506110c55760405162461bcd60e51b815260206004820152601860248201527711134e8814185c9d1e48191bd95cc81b9bdd08195e1a5cdd60421b6044820152606490fd5b826080836003541660405195868092637fa2309360e01b82528a60048301525afa938415610c4b57889461133b575b50606084019160ff835116156112f7576040829181519283809263216688e960e01b82528b60048301525afa908115610d1b5789916112d7575b50670de0b6b3a7640000908181029181830414901517156112c4576009549081156112af57049081156112745788949392918691604051809a8193637b2e0fcf60e01b835260048301525afa968715611269578497611235575b5083906111a888846004541661119f811515611df0565b30903390611f67565b5260035416803b156102be57604051635810405760e11b815291839183918290849082906111da908b60048401611f34565b03925af180156104045761121d575b50507f8753124f27a11cf015f376d283fd65894c5984f2e3e6d7e47d2e234c7bf0d5e3906040519384523393a36001805580f35b61122690611e3c565b6112315783386111e9565b8380fd5b85809298508195503d8311611262575b61124f8183611e6c565b810103126104a857868093519690611188565b503d611245565b6040513d86823e3d90fd5b8560156064926040519262461bcd60e51b8452600484015282015274444d3a205265737420636f7374206973207a65726f60581b6044820152fd5b82634e487b7160e01b60005260126004526000fd5b50634e487b7160e01b8852601160045287fd5b6112f0915060403d604011610dfe57610def8183611e6c565b503861112e565b60405162461bcd60e51b8152600481018790526019818401527f444d3a205061727479206973206e6f74206661746967756564000000000000006044820152606490fd5b61135491945060803d8111610ea357610e948183611e6c565b92386110f4565b61137190863d8811610bfe57610bf08183611e6c565b5038611080565b61138f9150843d8611610bfe57610bf08183611e6c565b38611058565b503461020b578060031936011261020b57546040516001600160a01b039091168152602090f35b503461020b578060031936011261020b576113d5611dc4565b6113dd61202a565b600160ff1960025416176002557f62e78cea01bee320cd4e420270b5ea74000d11b0c9f74754ebdbfc544b05a2586020604051338152a180f35b503461020b57602036600319011261020b57602061143660043561210f565b6040519015158152f35b503461020b5761144f36611dae565b90611458612048565b61146061202a565b81156117035760025460081c6001600160a01b039081169081156116be57806004541661148e811515611df0565b6040516303aae71960e61b8152602092908381600481885afa908115610c4b57829185918a916116a1575b506024604051809481936331a9108f60e11b83528b6004840152165afa9081611684575b506115225760405162461bcd60e51b815260206004820152601860248201527711134e8814185c9d1e48191bd95cc81b9bdd08195e1a5cdd60421b6044820152606490fd5b86918361153188600654611ead565b602460405180988193637b2e0fcf60e01b835260048301525afa948515610c0557839561164e575b50846115689130903390611f67565b600354604051637fa2309360e01b8152600481018790529116608082602481845afa918215610c0557839261162e575b506115a4878351611f27565b8252803b156102be57604051635810405760e11b815291839183918290849082906115d3908c60048401611f34565b03925af180156104045761161a575b50506040519384528301527fb5a3a517bab53a7baecbcc3f665f4cec868889feb976fc02a4f69f7b1ca2c2c060403393a36001805580f35b61162390611e3c565b6104005784386115e2565b61164791925060803d8111610ea357610e948183611e6c565b9038611598565b84809296508194503d831161167d575b6116688183611e6c565b810103126104a8576115688792519490611559565b503d61165e565b61169a90853d8711610bfe57610bf08183611e6c565b50386114dd565b6116b89150823d8411610bfe57610bf08183611e6c565b386114b9565b60405162461bcd60e51b815260206004820152601760248201527f444d3a2044756e67656f6e436f7265206e6f74207365740000000000000000006044820152606490fd5b60405162461bcd60e51b81526020600482015260166024820152750444d3a20416d6f756e74206d757374206265203e20360541b6044820152606490fd5b503461020b578060031936011261020b5761175a611dc4565b600080546001600160a01b0319811682556001600160a01b03167f8be0079c531659141344cd1fd0a4f28419497f9722a3daafe3b4186f6b6457e08280a380f35b503461020b57602036600319011261020b576004356001600160a01b038116908190036105e1576117ca611dc4565b600380546001600160a01b031916821790557fb62a30fb8f7c73a0e4bc061efea54bc34145e5553d3eefa0695e6c29357de4348280a280f35b503461020b578060031936011261020b576020604051620151808152f35b503461020b57602036600319011261020b576004356001600160a01b038116908181036102be57611850611dc4565b60028054610100600160a81b03191660089290921b610100600160a81b03169190911790557f45e919947eac4ba070dccb2545cf1e7e330fd110330232d74a6996e9e2308f248280a280f35b503461020b578060031936011261020b5760025460405160089190911c6001600160a01b03168152602090f35b503461020b578060031936011261020b57602060ff600254166040519015158152f35b503461020b578060031936011261020b576004546040516001600160a01b039091168152602090f35b503461020b57602036600319011261020b5761192f611dc4565b60043560075580f35b503461020b578060031936011261020b57611951611dc4565b60025460ff8116156119915760ff19166002557f5db9ee0a495bf2e6ff9c91a7834c1ba4fdd244a5e8aa4e537bd38aeae4b073aa6020604051338152a180f35b604051638dfc202b60e01b8152600490fd5b503461020b578060031936011261020b576020600554604051908152f35b503461020b57602036600319011261020b577f6b2ef7fbf20c7dc4747c84307cfd2178ccc921ab1e016cfa964f640ba898ee996020600435611a01611dc4565b80600555604051908152a180f35b503461020b578060031936011261020b57611a28611dc4565b6004546001600160a01b03908116611a41811515611df0565b6040516370a0823160e01b815230600482015290602082602481845afa918215611269578492611ac0575b5081611a76578380f35b835460405163a9059cbb60e01b602082015293166001600160a01b03166024840152604480840192909252908252611ab99190611ab4606483611e6c565b611fc2565b3880808380f35b9091506020813d8211611aeb575b81611adb60209383611e6c565b810103126104a857519038611a6c565b3d9150611ace565b503461020b578060031936011261020b576020600654604051908152f35b503461020b576020806003193601126105e15760043590611b30612048565b611b3861202a565b6002546040516303aae71960e61b81526001600160a01b03929182908290600490829060081c87165afa908115610fa657839183918791611d91575b506024604051809481936331a9108f60e11b8352896004840152165afa8015610fa657611bac918691611d74575b508316331461206b565b600354604051637fa2309360e01b81526004810185905292908116608084602481845afa938415610f7c578694611d54575b506040840193845115611d0f579086918286519652813b156102be578291611c1d91604051948580948193635810405760e11b83528c60048401611f34565b03925af18015610f7c57611cfc575b5080600483879360025460081c16604051928380926329bdca3760e01b82525afa908115610c05578391611cdf575b5016803b156105e1576040516311f9fbc960e21b8152336004820152602481018590529082908290604490829084905af1801561040457611ccb575b50507f1a9f444c0be07bb77fd6de35b64b68078068977002def04df716d67ad2f49e23906040519283523392a36001805580f35b611cd490611e3c565b611231578338611c97565b611cf69150843d8611610bfe57610bf08183611e6c565b38611c5b565b611d0890959195611e3c565b9338611c2c565b60405162461bcd60e51b815260048101859052601760248201527f444d3a204e6f207265776172647320746f20636c61696d0000000000000000006044820152606490fd5b611d6d91945060803d8111610ea357610e948183611e6c565b9238611bde565b611d8b9150833d8511610bfe57610bf08183611e6c565b38611ba2565b611da89150823d8411610bfe57610bf08183611e6c565b38611b74565b60409060031901126104a8576004359060243590565b6000546001600160a01b03163303611dd857565b60405163118cdaa760e01b8152336004820152602490fd5b15611df757565b60405162461bcd60e51b815260206004820152601b60248201527f444d3a20536f756c536861726420746f6b656e206e6f742073657400000000006044820152606490fd5b67ffffffffffffffff8111610c9657604052565b6080810190811067ffffffffffffffff821117610c9657604052565b90601f8019910116810190811067ffffffffffffffff821117610c9657604052565b908160209103126104a857516001600160a01b03811681036104a85790565b81810292918115918404141715611ec057565b634e487b7160e01b600052601160045260246000fd5b519060ff821682036104a857565b908160809103126104a857611f1f606060405192611f0184611e50565b80518452602081015160208501526040810151604085015201611ed6565b606082015290565b91908201809211611ec057565b90929160ff606060809260a085019685528051602086015260208101516040860152604081015182860152015116910152565b6040516323b872dd60e01b60208201526001600160a01b03928316602482015292909116604483015260648083019390935291815260a081019181831067ffffffffffffffff841117610c9657611fc092604052611fc2565b565b906000602091828151910182855af11561201e576000513d61201557506001600160a01b0381163b155b611ff35750565b604051635274afe760e01b81526001600160a01b039091166004820152602490fd5b60011415611fec565b6040513d6000823e3d90fd5b60ff6002541661203657565b60405163d93c066560e01b8152600490fd5b600260015414612059576002600155565b604051633ee5aeb560e01b8152600490fd5b1561207257565b60405162461bcd60e51b815260206004820152601360248201527222269d102737ba103830b93a3c9037bbb732b960691b6044820152606490fd5b908160809103126104a8576060604051916120c783611e50565b80518352602081015160208401526120e160408201611ed6565b6040840152015180151581036104a857606082015290565b91908260409103126104a8576020825192015190565b6003546001600160a01b031690811561217657608090602460405180948193637fa2309360e01b835260048301525afa801561201e57602091600091612158575b500151421090565b612170915060803d8111610ea357610e948183611e6c565b38612150565b505060009056fea2646970667358221220e6155d8df4eb9dd3da90a6d4c8f651f83f01eeedeab6ebe7228272f5ee0cb8ff64736f6c63430008140033",
  "linkReferences": {},
  "deployedLinkReferences": {}
}