{
  "_format": "hh-sol-artifact-1",
  "contractName": "Hero",
  "sourceName": "contracts/current/nft/Hero.sol",
  "abi": [
    {
      "inputs": [
        {
          "internalType": "address",
          "name": "initialOwner",
          "type": "address"
        }
      ],
      "stateMutability": "nonpayable",
      "type": "constructor"
    },
    {
      "inputs": [
        {
          "internalType": "address",
          "name": "sender",
          "type": "address"
        },
        {
          "internalType": "uint256",
          "name": "tokenId",
          "type": "uint256"
        },
        {
          "internalType": "address",
          "name": "owner",
          "type": "address"
        }
      ],
      "name": "ERC721IncorrectOwner",
      "type": "error"
    },
    {
      "inputs": [
        {
          "internalType": "address",
          "name": "operator",
          "type": "address"
        },
        {
          "internalType": "uint256",
          "name": "tokenId",
          "type": "uint256"
        }
      ],
      "name": "ERC721InsufficientApproval",
      "type": "error"
    },
    {
      "inputs": [
        {
          "internalType": "address",
          "name": "approver",
          "type": "address"
        }
      ],
      "name": "ERC721InvalidApprover",
      "type": "error"
    },
    {
      "inputs": [
        {
          "internalType": "address",
          "name": "operator",
          "type": "address"
        }
      ],
      "name": "ERC721InvalidOperator",
      "type": "error"
    },
    {
      "inputs": [
        {
          "internalType": "address",
          "name": "owner",
          "type": "address"
        }
      ],
      "name": "ERC721InvalidOwner",
      "type": "error"
    },
    {
      "inputs": [
        {
          "internalType": "address",
          "name": "receiver",
          "type": "address"
        }
      ],
      "name": "ERC721InvalidReceiver",
      "type": "error"
    },
    {
      "inputs": [
        {
          "internalType": "address",
          "name": "sender",
          "type": "address"
        }
      ],
      "name": "ERC721InvalidSender",
      "type": "error"
    },
    {
      "inputs": [
        {
          "internalType": "uint256",
          "name": "tokenId",
          "type": "uint256"
        }
      ],
      "name": "ERC721NonexistentToken",
      "type": "error"
    },
    {
      "inputs": [],
      "name": "EnforcedPause",
      "type": "error"
    },
    {
      "inputs": [],
      "name": "ExpectedPause",
      "type": "error"
    },
    {
      "inputs": [
        {
          "internalType": "address",
          "name": "owner",
          "type": "address"
        }
      ],
      "name": "OwnableInvalidOwner",
      "type": "error"
    },
    {
      "inputs": [
        {
          "internalType": "address",
          "name": "account",
          "type": "address"
        }
      ],
      "name": "OwnableUnauthorizedAccount",
      "type": "error"
    },
    {
      "inputs": [],
      "name": "ReentrancyGuardReentrantCall",
      "type": "error"
    },
    {
      "inputs": [
        {
          "internalType": "address",
          "name": "token",
          "type": "address"
        }
      ],
      "name": "SafeERC20FailedOperation",
      "type": "error"
    },
    {
      "anonymous": false,
      "inputs": [
        {
          "indexed": true,
          "internalType": "address",
          "name": "owner",
          "type": "address"
        },
        {
          "indexed": true,
          "internalType": "address",
          "name": "approved",
          "type": "address"
        },
        {
          "indexed": true,
          "internalType": "uint256",
          "name": "tokenId",
          "type": "uint256"
        }
      ],
      "name": "Approval",
      "type": "event"
    },
    {
      "anonymous": false,
      "inputs": [
        {
          "indexed": true,
          "internalType": "address",
          "name": "owner",
          "type": "address"
        },
        {
          "indexed": true,
          "internalType": "address",
          "name": "operator",
          "type": "address"
        },
        {
          "indexed": false,
          "internalType": "bool",
          "name": "approved",
          "type": "bool"
        }
      ],
      "name": "ApprovalForAll",
      "type": "event"
    },
    {
      "anonymous": false,
      "inputs": [
        {
          "indexed": true,
          "internalType": "address",
          "name": "newAddress",
          "type": "address"
        }
      ],
      "name": "AscensionAltarSet",
      "type": "event"
    },
    {
      "anonymous": false,
      "inputs": [
        {
          "indexed": false,
          "internalType": "string",
          "name": "newBaseURI",
          "type": "string"
        }
      ],
      "name": "BaseURISet",
      "type": "event"
    },
    {
      "anonymous": false,
      "inputs": [
        {
          "indexed": true,
          "internalType": "address",
          "name": "player",
          "type": "address"
        },
        {
          "indexed": false,
          "internalType": "uint256",
          "name": "quantity",
          "type": "uint256"
        },
        {
          "indexed": false,
          "internalType": "uint8",
          "name": "maxRarity",
          "type": "uint8"
        },
        {
          "indexed": false,
          "internalType": "uint256[]",
          "name": "tokenIds",
          "type": "uint256[]"
        }
      ],
      "name": "BatchMintCompleted",
      "type": "event"
    },
    {
      "anonymous": false,
      "inputs": [
        {
          "indexed": false,
          "internalType": "string",
          "name": "newContractURI",
          "type": "string"
        }
      ],
      "name": "ContractURIUpdated",
      "type": "event"
    },
    {
      "anonymous": false,
      "inputs": [
        {
          "indexed": true,
          "internalType": "address",
          "name": "core",
          "type": "address"
        },
        {
          "indexed": true,
          "internalType": "address",
          "name": "token",
          "type": "address"
        }
      ],
      "name": "ContractsSet",
      "type": "event"
    },
    {
      "anonymous": false,
      "inputs": [
        {
          "indexed": false,
          "internalType": "uint256",
          "name": "newSeed",
          "type": "uint256"
        }
      ],
      "name": "DynamicSeedUpdated",
      "type": "event"
    },
    {
      "anonymous": false,
      "inputs": [
        {
          "indexed": true,
          "internalType": "address",
          "name": "user",
          "type": "address"
        },
        {
          "indexed": true,
          "internalType": "address",
          "name": "executor",
          "type": "address"
        },
        {
          "indexed": false,
          "internalType": "uint256",
          "name": "quantity",
          "type": "uint256"
        }
      ],
      "name": "ForcedRevealExecuted",
      "type": "event"
    },
    {
      "anonymous": false,
      "inputs": [
        {
          "indexed": true,
          "internalType": "uint256",
          "name": "tokenId",
          "type": "uint256"
        },
        {
          "indexed": true,
          "internalType": "address",
          "name": "owner",
          "type": "address"
        },
        {
          "indexed": false,
          "internalType": "uint8",
          "name": "rarity",
          "type": "uint8"
        },
        {
          "indexed": false,
          "internalType": "uint256",
          "name": "power",
          "type": "uint256"
        }
      ],
      "name": "HeroBurned",
      "type": "event"
    },
    {
      "anonymous": false,
      "inputs": [
        {
          "indexed": true,
          "internalType": "uint256",
          "name": "tokenId",
          "type": "uint256"
        },
        {
          "indexed": true,
          "internalType": "address",
          "name": "owner",
          "type": "address"
        },
        {
          "indexed": false,
          "internalType": "uint8",
          "name": "rarity",
          "type": "uint8"
        },
        {
          "indexed": false,
          "internalType": "uint256",
          "name": "power",
          "type": "uint256"
        }
      ],
      "name": "HeroMinted",
      "type": "event"
    },
    {
      "anonymous": false,
      "inputs": [
        {
          "indexed": true,
          "internalType": "uint256",
          "name": "tokenId",
          "type": "uint256"
        },
        {
          "indexed": true,
          "internalType": "address",
          "name": "owner",
          "type": "address"
        },
        {
          "indexed": false,
          "internalType": "uint8",
          "name": "rarity",
          "type": "uint8"
        },
        {
          "indexed": false,
          "internalType": "uint256",
          "name": "power",
          "type": "uint256"
        }
      ],
      "name": "HeroRevealed",
      "type": "event"
    },
    {
      "anonymous": false,
      "inputs": [
        {
          "indexed": true,
          "internalType": "address",
          "name": "player",
          "type": "address"
        },
        {
          "indexed": false,
          "internalType": "uint256",
          "name": "quantity",
          "type": "uint256"
        },
        {
          "indexed": false,
          "internalType": "uint256",
          "name": "blockNumber",
          "type": "uint256"
        },
        {
          "indexed": false,
          "internalType": "bool",
          "name": "fromVault",
          "type": "bool"
        }
      ],
      "name": "MintCommitted",
      "type": "event"
    },
    {
      "anonymous": false,
      "inputs": [
        {
          "indexed": true,
          "internalType": "address",
          "name": "previousOwner",
          "type": "address"
        },
        {
          "indexed": true,
          "internalType": "address",
          "name": "newOwner",
          "type": "address"
        }
      ],
      "name": "OwnershipTransferred",
      "type": "event"
    },
    {
      "anonymous": false,
      "inputs": [
        {
          "indexed": false,
          "internalType": "address",
          "name": "account",
          "type": "address"
        }
      ],
      "name": "Paused",
      "type": "event"
    },
    {
      "anonymous": false,
      "inputs": [
        {
          "indexed": true,
          "internalType": "address",
          "name": "user",
          "type": "address"
        },
        {
          "indexed": true,
          "internalType": "address",
          "name": "proxy",
          "type": "address"
        }
      ],
      "name": "RevealedByProxy",
      "type": "event"
    },
    {
      "anonymous": false,
      "inputs": [
        {
          "indexed": true,
          "internalType": "address",
          "name": "from",
          "type": "address"
        },
        {
          "indexed": true,
          "internalType": "address",
          "name": "to",
          "type": "address"
        },
        {
          "indexed": true,
          "internalType": "uint256",
          "name": "tokenId",
          "type": "uint256"
        }
      ],
      "name": "Transfer",
      "type": "event"
    },
    {
      "anonymous": false,
      "inputs": [
        {
          "indexed": false,
          "internalType": "address",
          "name": "account",
          "type": "address"
        }
      ],
      "name": "Unpaused",
      "type": "event"
    },
    {
      "anonymous": false,
      "inputs": [
        {
          "indexed": true,
          "internalType": "address",
          "name": "vrfManager",
          "type": "address"
        }
      ],
      "name": "VRFManagerSet",
      "type": "event"
    },
    {
      "inputs": [],
      "name": "MAX_REVEAL_WINDOW",
      "outputs": [
        {
          "internalType": "uint256",
          "name": "",
          "type": "uint256"
        }
      ],
      "stateMutability": "view",
      "type": "function"
    },
    {
      "inputs": [],
      "name": "REVEAL_BLOCK_DELAY",
      "outputs": [
        {
          "internalType": "uint256",
          "name": "",
          "type": "uint256"
        }
      ],
      "stateMutability": "view",
      "type": "function"
    },
    {
      "inputs": [
        {
          "internalType": "address",
          "name": "to",
          "type": "address"
        },
        {
          "internalType": "uint256",
          "name": "tokenId",
          "type": "uint256"
        }
      ],
      "name": "approve",
      "outputs": [],
      "stateMutability": "nonpayable",
      "type": "function"
    },
    {
      "inputs": [],
      "name": "ascensionAltarAddress",
      "outputs": [
        {
          "internalType": "address",
          "name": "",
          "type": "address"
        }
      ],
      "stateMutability": "view",
      "type": "function"
    },
    {
      "inputs": [
        {
          "internalType": "address",
          "name": "owner",
          "type": "address"
        }
      ],
      "name": "balanceOf",
      "outputs": [
        {
          "internalType": "uint256",
          "name": "",
          "type": "uint256"
        }
      ],
      "stateMutability": "view",
      "type": "function"
    },
    {
      "inputs": [],
      "name": "baseURI",
      "outputs": [
        {
          "internalType": "string",
          "name": "",
          "type": "string"
        }
      ],
      "stateMutability": "view",
      "type": "function"
    },
    {
      "inputs": [
        {
          "internalType": "uint256",
          "name": "_tokenId",
          "type": "uint256"
        }
      ],
      "name": "burnFromAltar",
      "outputs": [],
      "stateMutability": "nonpayable",
      "type": "function"
    },
    {
      "inputs": [
        {
          "internalType": "address",
          "name": "_user",
          "type": "address"
        }
      ],
      "name": "canForceReveal",
      "outputs": [
        {
          "internalType": "bool",
          "name": "",
          "type": "bool"
        }
      ],
      "stateMutability": "view",
      "type": "function"
    },
    {
      "inputs": [
        {
          "internalType": "address",
          "name": "_user",
          "type": "address"
        }
      ],
      "name": "canReveal",
      "outputs": [
        {
          "internalType": "bool",
          "name": "",
          "type": "bool"
        }
      ],
      "stateMutability": "view",
      "type": "function"
    },
    {
      "inputs": [],
      "name": "contractURI",
      "outputs": [
        {
          "internalType": "string",
          "name": "",
          "type": "string"
        }
      ],
      "stateMutability": "view",
      "type": "function"
    },
    {
      "inputs": [],
      "name": "dungeonCore",
      "outputs": [
        {
          "internalType": "contract IDungeonCore",
          "name": "",
          "type": "address"
        }
      ],
      "stateMutability": "view",
      "type": "function"
    },
    {
      "inputs": [],
      "name": "dynamicSeed",
      "outputs": [
        {
          "internalType": "uint256",
          "name": "",
          "type": "uint256"
        }
      ],
      "stateMutability": "view",
      "type": "function"
    },
    {
      "inputs": [
        {
          "internalType": "address",
          "name": "user",
          "type": "address"
        }
      ],
      "name": "forceRevealExpired",
      "outputs": [],
      "stateMutability": "nonpayable",
      "type": "function"
    },
    {
      "inputs": [
        {
          "internalType": "uint256",
          "name": "tokenId",
          "type": "uint256"
        }
      ],
      "name": "getApproved",
      "outputs": [
        {
          "internalType": "address",
          "name": "",
          "type": "address"
        }
      ],
      "stateMutability": "view",
      "type": "function"
    },
    {
      "inputs": [
        {
          "internalType": "uint256",
          "name": "tokenId",
          "type": "uint256"
        }
      ],
      "name": "getHeroProperties",
      "outputs": [
        {
          "internalType": "uint8",
          "name": "rarity",
          "type": "uint8"
        },
        {
          "internalType": "uint256",
          "name": "power",
          "type": "uint256"
        }
      ],
      "stateMutability": "view",
      "type": "function"
    },
    {
      "inputs": [
        {
          "internalType": "uint256",
          "name": "_quantity",
          "type": "uint256"
        }
      ],
      "name": "getRequiredSoulShardAmount",
      "outputs": [
        {
          "internalType": "uint256",
          "name": "",
          "type": "uint256"
        }
      ],
      "stateMutability": "view",
      "type": "function"
    },
    {
      "inputs": [
        {
          "internalType": "address",
          "name": "_user",
          "type": "address"
        }
      ],
      "name": "getRevealBlocksRemaining",
      "outputs": [
        {
          "internalType": "uint256",
          "name": "",
          "type": "uint256"
        }
      ],
      "stateMutability": "view",
      "type": "function"
    },
    {
      "inputs": [
        {
          "internalType": "address",
          "name": "_user",
          "type": "address"
        }
      ],
      "name": "getUserCommitment",
      "outputs": [
        {
          "components": [
            {
              "internalType": "uint256",
              "name": "blockNumber",
              "type": "uint256"
            },
            {
              "internalType": "uint256",
              "name": "quantity",
              "type": "uint256"
            },
            {
              "internalType": "uint256",
              "name": "payment",
              "type": "uint256"
            },
            {
              "internalType": "bytes32",
              "name": "commitment",
              "type": "bytes32"
            },
            {
              "internalType": "bool",
              "name": "fulfilled",
              "type": "bool"
            },
            {
              "internalType": "uint8",
              "name": "maxRarity",
              "type": "uint8"
            },
            {
              "internalType": "bool",
              "name": "fromVault",
              "type": "bool"
            }
          ],
          "internalType": "struct Hero.MintCommitment",
          "name": "",
          "type": "tuple"
        }
      ],
      "stateMutability": "view",
      "type": "function"
    },
    {
      "inputs": [
        {
          "internalType": "address",
          "name": "_user",
          "type": "address"
        }
      ],
      "name": "getUserPendingTokens",
      "outputs": [
        {
          "internalType": "uint256[]",
          "name": "",
          "type": "uint256[]"
        }
      ],
      "stateMutability": "view",
      "type": "function"
    },
    {
      "inputs": [
        {
          "internalType": "uint256",
          "name": "",
          "type": "uint256"
        }
      ],
      "name": "heroData",
      "outputs": [
        {
          "internalType": "uint8",
          "name": "rarity",
          "type": "uint8"
        },
        {
          "internalType": "uint256",
          "name": "power",
          "type": "uint256"
        },
        {
          "internalType": "bool",
          "name": "isRevealed",
          "type": "bool"
        }
      ],
      "stateMutability": "view",
      "type": "function"
    },
    {
      "inputs": [
        {
          "internalType": "address",
          "name": "owner",
          "type": "address"
        },
        {
          "internalType": "address",
          "name": "operator",
          "type": "address"
        }
      ],
      "name": "isApprovedForAll",
      "outputs": [
        {
          "internalType": "bool",
          "name": "",
          "type": "bool"
        }
      ],
      "stateMutability": "view",
      "type": "function"
    },
    {
      "inputs": [
        {
          "internalType": "address",
          "name": "_to",
          "type": "address"
        },
        {
          "internalType": "uint8",
          "name": "_rarity",
          "type": "uint8"
        },
        {
          "internalType": "uint256",
          "name": "_power",
          "type": "uint256"
        }
      ],
      "name": "mintFromAltar",
      "outputs": [
        {
          "internalType": "uint256",
          "name": "",
          "type": "uint256"
        }
      ],
      "stateMutability": "nonpayable",
      "type": "function"
    },
    {
      "inputs": [
        {
          "internalType": "uint256",
          "name": "_quantity",
          "type": "uint256"
        }
      ],
      "name": "mintFromVault",
      "outputs": [],
      "stateMutability": "payable",
      "type": "function"
    },
    {
      "inputs": [
        {
          "internalType": "uint256",
          "name": "_quantity",
          "type": "uint256"
        }
      ],
      "name": "mintFromWallet",
      "outputs": [],
      "stateMutability": "payable",
      "type": "function"
    },
    {
      "inputs": [],
      "name": "mintPriceUSD",
      "outputs": [
        {
          "internalType": "uint256",
          "name": "",
          "type": "uint256"
        }
      ],
      "stateMutability": "view",
      "type": "function"
    },
    {
      "inputs": [],
      "name": "name",
      "outputs": [
        {
          "internalType": "string",
          "name": "",
          "type": "string"
        }
      ],
      "stateMutability": "view",
      "type": "function"
    },
    {
      "inputs": [
        {
          "internalType": "uint256",
          "name": "requestId",
          "type": "uint256"
        },
        {
          "internalType": "uint256[]",
          "name": "randomWords",
          "type": "uint256[]"
        }
      ],
      "name": "onVRFFulfilled",
      "outputs": [],
      "stateMutability": "nonpayable",
      "type": "function"
    },
    {
      "inputs": [],
      "name": "owner",
      "outputs": [
        {
          "internalType": "address",
          "name": "",
          "type": "address"
        }
      ],
      "stateMutability": "view",
      "type": "function"
    },
    {
      "inputs": [
        {
          "internalType": "uint256",
          "name": "tokenId",
          "type": "uint256"
        }
      ],
      "name": "ownerOf",
      "outputs": [
        {
          "internalType": "address",
          "name": "",
          "type": "address"
        }
      ],
      "stateMutability": "view",
      "type": "function"
    },
    {
      "inputs": [],
      "name": "pause",
      "outputs": [],
      "stateMutability": "nonpayable",
      "type": "function"
    },
    {
      "inputs": [],
      "name": "paused",
      "outputs": [
        {
          "internalType": "bool",
          "name": "",
          "type": "bool"
        }
      ],
      "stateMutability": "view",
      "type": "function"
    },
    {
      "inputs": [],
      "name": "platformFee",
      "outputs": [
        {
          "internalType": "uint256",
          "name": "",
          "type": "uint256"
        }
      ],
      "stateMutability": "view",
      "type": "function"
    },
    {
      "inputs": [],
      "name": "renounceOwnership",
      "outputs": [],
      "stateMutability": "nonpayable",
      "type": "function"
    },
    {
      "inputs": [],
      "name": "revealMint",
      "outputs": [],
      "stateMutability": "nonpayable",
      "type": "function"
    },
    {
      "inputs": [
        {
          "internalType": "address",
          "name": "user",
          "type": "address"
        }
      ],
      "name": "revealMintFor",
      "outputs": [],
      "stateMutability": "nonpayable",
      "type": "function"
    },
    {
      "inputs": [
        {
          "internalType": "address",
          "name": "from",
          "type": "address"
        },
        {
          "internalType": "address",
          "name": "to",
          "type": "address"
        },
        {
          "internalType": "uint256",
          "name": "tokenId",
          "type": "uint256"
        }
      ],
      "name": "safeTransferFrom",
      "outputs": [],
      "stateMutability": "nonpayable",
      "type": "function"
    },
    {
      "inputs": [
        {
          "internalType": "address",
          "name": "from",
          "type": "address"
        },
        {
          "internalType": "address",
          "name": "to",
          "type": "address"
        },
        {
          "internalType": "uint256",
          "name": "tokenId",
          "type": "uint256"
        },
        {
          "internalType": "bytes",
          "name": "data",
          "type": "bytes"
        }
      ],
      "name": "safeTransferFrom",
      "outputs": [],
      "stateMutability": "nonpayable",
      "type": "function"
    },
    {
      "inputs": [
        {
          "internalType": "address",
          "name": "operator",
          "type": "address"
        },
        {
          "internalType": "bool",
          "name": "approved",
          "type": "bool"
        }
      ],
      "name": "setApprovalForAll",
      "outputs": [],
      "stateMutability": "nonpayable",
      "type": "function"
    },
    {
      "inputs": [
        {
          "internalType": "address",
          "name": "_address",
          "type": "address"
        }
      ],
      "name": "setAscensionAltarAddress",
      "outputs": [],
      "stateMutability": "nonpayable",
      "type": "function"
    },
    {
      "inputs": [
        {
          "internalType": "string",
          "name": "_newBaseURI",
          "type": "string"
        }
      ],
      "name": "setBaseURI",
      "outputs": [],
      "stateMutability": "nonpayable",
      "type": "function"
    },
    {
      "inputs": [
        {
          "internalType": "string",
          "name": "newContractURI",
          "type": "string"
        }
      ],
      "name": "setContractURI",
      "outputs": [],
      "stateMutability": "nonpayable",
      "type": "function"
    },
    {
      "inputs": [
        {
          "internalType": "address",
          "name": "_address",
          "type": "address"
        }
      ],
      "name": "setDungeonCore",
      "outputs": [],
      "stateMutability": "nonpayable",
      "type": "function"
    },
    {
      "inputs": [
        {
          "internalType": "uint256",
          "name": "_newPrice",
          "type": "uint256"
        }
      ],
      "name": "setMintPriceUSD",
      "outputs": [],
      "stateMutability": "nonpayable",
      "type": "function"
    },
    {
      "inputs": [
        {
          "internalType": "uint256",
          "name": "_newFee",
          "type": "uint256"
        }
      ],
      "name": "setPlatformFee",
      "outputs": [],
      "stateMutability": "nonpayable",
      "type": "function"
    },
    {
      "inputs": [
        {
          "internalType": "address",
          "name": "_address",
          "type": "address"
        }
      ],
      "name": "setSoulShardToken",
      "outputs": [],
      "stateMutability": "nonpayable",
      "type": "function"
    },
    {
      "inputs": [
        {
          "internalType": "string",
          "name": "_newURI",
          "type": "string"
        }
      ],
      "name": "setUnrevealedURI",
      "outputs": [],
      "stateMutability": "nonpayable",
      "type": "function"
    },
    {
      "inputs": [
        {
          "internalType": "address",
          "name": "_vrfManager",
          "type": "address"
        }
      ],
      "name": "setVRFManager",
      "outputs": [],
      "stateMutability": "nonpayable",
      "type": "function"
    },
    {
      "inputs": [],
      "name": "soulShardToken",
      "outputs": [
        {
          "internalType": "contract IERC20",
          "name": "",
          "type": "address"
        }
      ],
      "stateMutability": "view",
      "type": "function"
    },
    {
      "inputs": [
        {
          "internalType": "bytes4",
          "name": "interfaceId",
          "type": "bytes4"
        }
      ],
      "name": "supportsInterface",
      "outputs": [
        {
          "internalType": "bool",
          "name": "",
          "type": "bool"
        }
      ],
      "stateMutability": "view",
      "type": "function"
    },
    {
      "inputs": [],
      "name": "symbol",
      "outputs": [
        {
          "internalType": "string",
          "name": "",
          "type": "string"
        }
      ],
      "stateMutability": "view",
      "type": "function"
    },
    {
      "inputs": [
        {
          "internalType": "uint256",
          "name": "tokenId",
          "type": "uint256"
        }
      ],
      "name": "tokenURI",
      "outputs": [
        {
          "internalType": "string",
          "name": "",
          "type": "string"
        }
      ],
      "stateMutability": "view",
      "type": "function"
    },
    {
      "inputs": [
        {
          "internalType": "address",
          "name": "from",
          "type": "address"
        },
        {
          "internalType": "address",
          "name": "to",
          "type": "address"
        },
        {
          "internalType": "uint256",
          "name": "tokenId",
          "type": "uint256"
        }
      ],
      "name": "transferFrom",
      "outputs": [],
      "stateMutability": "nonpayable",
      "type": "function"
    },
    {
      "inputs": [
        {
          "internalType": "address",
          "name": "newOwner",
          "type": "address"
        }
      ],
      "name": "transferOwnership",
      "outputs": [],
      "stateMutability": "nonpayable",
      "type": "function"
    },
    {
      "inputs": [],
      "name": "unpause",
      "outputs": [],
      "stateMutability": "nonpayable",
      "type": "function"
    },
    {
      "inputs": [],
      "name": "unrevealedURI",
      "outputs": [
        {
          "internalType": "string",
          "name": "",
          "type": "string"
        }
      ],
      "stateMutability": "view",
      "type": "function"
    },
    {
      "inputs": [
        {
          "internalType": "address",
          "name": "",
          "type": "address"
        }
      ],
      "name": "userCommitments",
      "outputs": [
        {
          "internalType": "uint256",
          "name": "blockNumber",
          "type": "uint256"
        },
        {
          "internalType": "uint256",
          "name": "quantity",
          "type": "uint256"
        },
        {
          "internalType": "uint256",
          "name": "payment",
          "type": "uint256"
        },
        {
          "internalType": "bytes32",
          "name": "commitment",
          "type": "bytes32"
        },
        {
          "internalType": "bool",
          "name": "fulfilled",
          "type": "bool"
        },
        {
          "internalType": "uint8",
          "name": "maxRarity",
          "type": "uint8"
        },
        {
          "internalType": "bool",
          "name": "fromVault",
          "type": "bool"
        }
      ],
      "stateMutability": "view",
      "type": "function"
    },
    {
      "inputs": [
        {
          "internalType": "address",
          "name": "",
          "type": "address"
        },
        {
          "internalType": "uint256",
          "name": "",
          "type": "uint256"
        }
      ],
      "name": "userPendingTokens",
      "outputs": [
        {
          "internalType": "uint256",
          "name": "",
          "type": "uint256"
        }
      ],
      "stateMutability": "view",
      "type": "function"
    },
    {
      "inputs": [],
      "name": "vrfManager",
      "outputs": [
        {
          "internalType": "address",
          "name": "",
          "type": "address"
        }
      ],
      "stateMutability": "view",
      "type": "function"
    },
    {
      "inputs": [],
      "name": "withdrawNativeFunding",
      "outputs": [],
      "stateMutability": "nonpayable",
      "type": "function"
    },
    {
      "inputs": [],
      "name": "withdrawSoulShard",
      "outputs": [],
      "stateMutability": "nonpayable",
      "type": "function"
    },
    {
      "stateMutability": "payable",
      "type": "receive"
    }
  ],
  "bytecode": "0x608034620005a757601f19620050ca38819003601f81810184168501946001600160401b039493909283871086881117620005915780849260409889528339602093849181010312620005a757516001600160a01b03919082811690819003620005a7576200006d620005cc565b926018968785527f44756e67656f6e2044656c76657273204865726f20565246000000000000000086860152620000a3620005cc565b9660068852652222242b292360d11b878901528551828111620005915780600097620000d08954620005ec565b8a89821162000560575b50508990888311600114620004fc578992620004f0575b50508160011b916000199060031b1c19161786555b8751918211620004dc578190600198620001218a54620005ec565b878111620004a1575b508891878411600114620004405750879262000434575b5050600019600383901b1c191690871b1786555b81156200041c57600680546001600160a01b031981168417909155167f8be0079c531659141344cd1fd0a4f28419497f9722a3daafe3b4186f6b6457e08480a383600755671bc16d674ec80000601255660110d9316ec000601355620001bd601454620005ec565b818111620003f7575b5050609160145560148152671c995d99585b195960c21b60028383207f68747470733a2f2f64756e67656f6e2d64656c766572732d6d6574616461746181557f2d7365727665722e6f6e72656e6465722e636f6d2f6170692f6865726f2f756e868201550155826011556200023a620005ac565b8381528281019380855286820190808252606083019080825280855287865260ff8986209451169380549751935163ff0000008094518b1b169063ffffffff19998a9661ff00809962ff00009d8e9416179160081b16179160101b1617179055878987878a8787620002ab620005ac565b9688885260ff8689019760028952808a0196600388528360608c019960048b52600583525220985116938c8954985160081b16955160101b169551901b169416171717179055620002fb620005ac565b9081528581016003815289820160048152606083019060078252600a88528a895260ff8c892094511686868d8d8b8954985160081b16955160101b169551901b1694161717171790556200034e620005ac565b6002815285810160048152898201600781526060830190600c8252601488528a895260ff8c892094511686868d8d8b8954985160081b16955160101b169551901b169416171717179055620003a2620005ac565b9660028852858801966006885260ff8a808b0197600d89528460608d019a60198c52603283525220995116948954985160081b16955160101b169551901b16941617171717905551614a879081620006438239f35b6003620004149260148552858520920160051c8201910162000629565b3880620001c6565b8751631e4fbdf760e01b815260048101859052602490fd5b01519050388062000141565b8a89528989208b959093929116895b8b8282106200048a575050841162000470575b505050811b01865562000155565b015160001960f88460031b161c1916905538808062000462565b8385015186558d979095019493840193016200044f565b620004cb908b8a528a8a208980870160051c8201928d8810620004d2575b0160051c019062000629565b386200012a565b92508192620004bf565b634e487b7160e01b86526041600452602486fd5b015190503880620000f1565b8980528a8a209285168a5b8c828210620005495750509084600195949392106200052f575b505050811b01865562000106565b015160001960f88460031b161c1916905538808062000521565b600185968293968601518155019501930162000507565b62000589918b80528a828d209181870160051c8301938710620004d2570160051c019062000629565b388a620000da565b634e487b7160e01b600052604160045260246000fd5b600080fd5b60405190608082016001600160401b038111838210176200059157604052565b60408051919082016001600160401b038111838210176200059157604052565b90600182811c921680156200061e575b60208310146200060857565b634e487b7160e01b600052602260045260246000fd5b91607f1691620005fc565b81811062000635575050565b600081556001016200062956fe6080604052600436101561001b575b361561001957600080fd5b005b6000803560e01c80622144f614612b1b57806268f22e14612ab757806301ffc9a7146129fc57806306fdde0314612958578063081812fc1461291b578063095ea7b31461282257806312e8e2c3146127ff578063166829e3146127db5780631cbb41311461279e5780631dafec001461268d57806323b872dd1461267557806326232a2e146126575780632a32e8d41461245d5780632ca5f30a1461242b5780633a92c0ac1461240d5780633f4ba83a1461238a578063415d6a011461229357806342842e0e146122655780634350772c1461223e578063440394021461221757806355f804b3146120745780635b6ef03214611ff25780635c975abb14611fcf5780636352211e14611f9f57806367cfab5814611f785780636a6cdc6c14611ebd5780636ab1b29b14611e515780636aef506914611ca75780636c0360eb14611c015780637035bf1814611be557806370a0823114611b75578063715018a614611b1a57806373b3119014611ad05780637a33eabc14611a6c5780638456cb5914611a1157806386da2bd7146119bb5780638973bc7e1461199f5780638da5cb5b146119785780638f2fec08146118f1578063936315d6146118c3578063938e3d7b1461171a57806395d89b411461164b5780639b41886c1461162d578063a20fd5c414611531578063a22cb4651461146d578063b1d78c9a14611446578063b88d4fde146113d2578063c1b39a3e146113ab578063c47d435714611329578063c87b56dd14611309578063c886015d14611056578063cc64cb7c14610a7d578063d0fdcc09146106ff578063d96fe72d146106e3578063db4b826814610678578063e0d5e1b4146105ff578063e8a3d48514610519578063e985e9c5146104c4578063f2fde38b146104235763fe2c7fee146102b9575061000e565b34610420576102c736612e01565b906102d0612f9a565b815167ffffffffffffffff811161040c576102ec601454612e40565b601f81116103b3575b50602080601f831160011461033257508293829392610327575b50508160011b916000199060031b1c19161760145580f35b01519050388061030f565b60148452601f198316947fce6d7b5282bd9a3661ae061feed1dbda4e52ab073b1f9285be6e155d9c38d4ec929185905b87821061039b575050836001959610610382575b505050811b0160145580f35b015160001960f88460031b161c19169055388080610376565b80600185968294968601518155019501930190610362565b6103fc90601484527fce6d7b5282bd9a3661ae061feed1dbda4e52ab073b1f9285be6e155d9c38d4ec601f840160051c81019160208510610402575b601f0160051c0190613b9e565b386102f5565b90915081906103ef565b602482634e487b7160e01b81526041600452fd5b80fd5b50346104205760203660031901126104205761043d612c29565b610445612f9a565b6001600160a01b0380911690811561049357600654826001600160a01b0319821617600655167f8be0079c531659141344cd1fd0a4f28419497f9722a3daafe3b4186f6b6457e0600080a380f35b602483604051907f1e4fbdf70000000000000000000000000000000000000000000000000000000082526004820152fd5b5034610420576040366003190112610420576104de612c29565b60406104e8612c3f565b926001600160a01b0380931681526005602052209116600052602052602060ff604060002054166040519015158152f35b50346104205780600319360112610420576040516000600a5461053b81612e40565b808452906001908181169081156105d8575060011461057d575b6105798461056581860382612d74565b604051918291602083526020830190612c78565b0390f35b600a600090815292507fc65a7bb8d6351c1cf70c95a316cc6a92839c986682d98bc35f958f4883f9d2a85b8284106105c057505050810160200161056582610555565b805460208587018101919091529093019281016105a8565b60ff191660208087019190915292151560051b850190920192506105659150839050610555565b5034610420576020366003190112610420576001600160a01b03610621612c29565b61062961349a565b610631613464565b61063a81613615565b1680330361064c575b50600160075580f35b33907f03b940e5594caf9c29015b39d851054d069d150d662629de6bbdc3086fc163cd8380a338610643565b503461042057602036600319011261042057610692612c29565b61069a612f9a565b6001600160a01b0380911690816001600160a01b0319600d541617600d55600c54167f14662a0fccd762a05d5e1fa6afdd204554c4cf90fe58b5c5947f664fb71925f58380a380f35b5034610420578060031936011261042057602060405160038152f35b50602080600319360112610a79576004359061071961349a565b610721613464565b81151580610a6e575b61073390613325565b3383526015815261075260408420805415908115610a5f575b50613370565b61075b82614758565b610767836013546133bb565b3410610a1b57836001600160a01b039160048484600c5416604051928380927f29bdca370000000000000000000000000000000000000000000000000000000082525afa8015610a1057849184916109e3575b501690813b156109df576040517fd064ff19000000000000000000000000000000000000000000000000000000008152336004820152602481019190915291908290604490829084905af180156109b8576109c3575b506040513360601b6bffffffffffffffffffffffff1916838201908152436014820152603481018590529061085281605484015b03601f198101835282612d74565b51902090600f541680610940575b5060405161086d81612d04565b438152828101908482526108dd6004604083019234845260608101958652608081019589875260a08201946005865260c083019660018852338c5260158a5260408c20935184555160018401555160028301555160038201550193511515849060ff801983541691151516179055565b519061ff0062ff000084549251151560101b169260081b169062ffff001916171790556040519182524390820152600160408201527fe76693a509b276a8f091f368f5ee1fcd90a958858d61248bdb8588205bcd734560603392a2600160075580f35b60405163435639fb60e11b81523360048201526024810185905260056044820152606481018390529083908290608490829089905af19081156109b857839161098a575b50610860565b813d83116109b1575b61099d8183612d74565b810103126109ac578138610984565b600080fd5b503d610993565b6040513d87823e3d90fd5b67ffffffffffffffff819592951161040c576040529238610810565b8280fd5b610a039150863d8811610a09575b6109fb8183612d74565b8101906134d5565b386107ba565b503d6109f1565b6040513d85823e3d90fd5b6064826040519062461bcd60e51b82526004820152600260248201527f49560000000000000000000000000000000000000000000000000000000000006044820152fd5b60ff915060040154163861074c565b50603282111561072a565b5080fd5b503461042057602036600319011261042057610a97612c29565b610a9f61349a565b610aa7613464565b6001600160a01b03811682526015602052604082208054610ac98115156134f4565b610ada60ff6004840154161561353f565b6003810190818111610f5c5761010201809111610f4857431115611012576001600160a01b038216835260156020526040832091600160ff19600485015416176004840155601760205260408420600185526020526040842060ff1981541690556001600160a01b0381168452601760205260408420600285526020526040842060ff1981541690556001600160a01b0381168452601760205260408420600385526020526040842060ff1981541690556001600160a01b0381168452601760205260408420600485526020526040842060ff1981541690556001600160a01b0381168452601760205260408420600585526020526040842060ff1981541690556001830154601a5485601a5580610fca575b50845b818110610f70575050825460038101809111610f5c574015610f3b575b610c1a6001840154613b2a565b90845b6001850154811015610d20576011805490610c3782613b5c565b905580610c448386613b6b565b52610c9e604051610c5481612cd2565b8881526002602082018a815260408301908b8252858c52600b60205260ff60408d2094511660ff1985541617845551600184015551151591019060ff801983541691151516179055565b610ca88184613e66565b6001600160a01b038316875260166020526040872080549068010000000000000000821015610d0c57610ce982610d00926001610d07979695018155612f38565b819391549060031b91821b91600019901b19161790565b9055613b5c565b610c1d565b602489634e487b7160e01b81526041600452fd5b5091845b8251811015610e6157610d378184613b6b565b5160ff610d4383614085565b90549060031b1c16906040518160208201526020815280604081011067ffffffffffffffff604083011117610d0c57907ff38fb73870bdd02683fad66fb67561b9981e4d40371e63e01ae2e8bf2345e176610e54610db4846040610e5c98979601604052602081519101208561441d565b838c52600b602052600260408d208660ff1982541617815582600182015501600160ff19825416179055604051847f57c4a553ea4024e9d030303a99f6e58dad3e8267764f90605b4a2c968e3b237e6001600160a01b038d169280610e2a868b836020909392919360ff60408201951681520152565b0390a36040519182916001600160a01b038c1696836020909392919360ff60408201951681520152565b0390a3613b5c565b610d24565b5084937f0908417bb2d0393a45bf6efe35cecf8dbedbab1767b8d95f650094c6ccd1d0ac60019360ff60048685015494015460081c16610eb16040519283926001600160a01b038a169684613b7f565b0390a26001600160a01b03831684526015602052610eea6040852060046000918281558260018201558260028201558260038201550155565b6016602052610efb60408520613bb5565b01546040519081527fa65d0fdb45e0e0e3df56379247bc241e554ab7115be9ea5b25a37920bfbba3c260206001600160a01b0333941692a3600160075580f35b4360001981011115610c0d575b602484634e487b7160e01b81526011600452fd5b602485634e487b7160e01b81526011600452fd5b601a5468010000000000000000811015610fb65790610f98826001610fb19401601a55614085565b81549060031b9060ff6001831b921b1916179055613b5c565b610bf0565b602487634e487b7160e01b81526041600452fd5b601a8652601f7f057c384a7d1c54f3a1b2e5e67b2617b8224fdfd1ea7234eea573a6ff665ff63e910160051c8101905b8181106110075750610bed565b868155600101610ffa565b606460405162461bcd60e51b815260206004820152600160248201527f4e000000000000000000000000000000000000000000000000000000000000006044820152fd5b50602080600319360112610a79576004359061107061349a565b611078613464565b811515806112fe575b61108a90613325565b338352601581526110a860408420805415908115610a5f5750613370565b6110b182614758565b6110bd836013546133bb565b34106112ba576111206001600160a01b039182600d5416604051917f23b872dd000000000000000000000000000000000000000000000000000000008684015233602484015230604484015260648301526064825261111b82612d58565b6133e4565b6040513360601b6bffffffffffffffffffffffff191683820190815243601482015260348101859052906111578160548401610844565b51902090600f541680611243575b5060405161117281612d04565b438152828101908482526111e16004604083019234845260608101958652608081019589875260a08201946005865260c08301968b8852338c5260158a5260408c20935184555160018401555160028301555160038201550193511515849060ff801983541691151516179055565b519061ff0062ff000084549251151560101b169260081b169062ffff0019161717905560405191825243908201528160408201527fe76693a509b276a8f091f368f5ee1fcd90a958858d61248bdb8588205bcd734560603392a2600160075580f35b60405163435639fb60e11b81523360048201526024810185905260056044820152606481018390529083908290608490829089905af19081156109b857839161128d575b50611165565b813d83116112b3575b6112a08183612d74565b810103126112af578138611287565b8380fd5b503d611296565b6064826040519062461bcd60e51b82526004820152600260248201527f49500000000000000000000000000000000000000000000000000000000000006044820152fd5b506032821115611081565b5034610420576020366003190112610420576105796105656004356144a5565b5034610420578060031936011261042057611342612f9a565b808080806001600160a01b036006541647905af161135e6131d9565b50156113675780f35b606460405162461bcd60e51b815260206004820152600160248201527f46000000000000000000000000000000000000000000000000000000000000006044820152fd5b503461042057806003193601126104205760206001600160a01b03600f5416604051908152f35b5034610420576080366003190112610420576113ec612c29565b6113f4612c3f565b906044356064359267ffffffffffffffff841161144257366023850112156114425761142d61143f943690602481600401359101612dca565b92611439838383612fde565b33613209565b80f35b8480fd5b5034610420576020366003190112610420576020611465600435614758565b604051908152f35b503461042057604036600319011261042057611487612c29565b60243590811515908183036112af576001600160a01b0316918215611500576114d190338552600560205260408520848652602052604085209060ff801983541691151516179055565b6040519081527f17307eab39ab6107e8899845ad3d59bd9653f200f220920489ca2b5937696c3160203392a380f35b602483604051907f5b08ba180000000000000000000000000000000000000000000000000000000082526004820152fd5b5034610420576020366003190112610420576001600160a01b03611553612c29565b168152601560205260408120906040519061156d82612d04565b600483549384845260018101546020850152600281015460408501526003810154606085015201549160c060ff808516159485156080850152818160081c1660a085015260101c1615159101528215159182611625575b50816115d8575b6020826040519015158152f35b9050600382019182811161161157610102018092116115fd57506020904311386115cb565b80634e487b7160e01b602492526011600452fd5b602482634e487b7160e01b81526011600452fd5b9150386115c4565b50346104205780600319360112610420576020601254604051908152f35b50346104205780600319360112610420576040519080600180549161166f83612e40565b808652928281169081156116f05750600114611696575b6105798561056581870382612d74565b92508083527fb10e2d527612073b26eecdfd717e6a320cf44b4afac2b0732d9fcbe2b7fa0cf65b8284106116d857505050810160200161056582610579611686565b805460208587018101919091529093019281016116bd565b8695506105799693506020925061056594915060ff191682840152151560051b8201019293611686565b50346104205761172936612e01565b90611732612f9a565b81519167ffffffffffffffff831161040c5761174f600a54612e40565b601f8111611875575b50602092601f81116001146117d05790816117bf9284957f905d981207a7d0b6c62cc46ab0be2a076d0298e4a86d0ab79882dbd01ac3737895916117c5575b508160011b916000199060031b1c191617600a55604051918291602083526020830190612c78565b0390a180f35b905082015138611797565b600a83527fc65a7bb8d6351c1cf70c95a316cc6a92839c986682d98bc35f958f4883f9d2a8601f198216845b81811061185d5750916001917f905d981207a7d0b6c62cc46ab0be2a076d0298e4a86d0ab79882dbd01ac373789596826117bf969510611844575b5050811b01600a55610565565b84015160001960f88460031b161c191690553880611837565b848701518355602096870196600190930192016117fc565b6118bd90600a84527fc65a7bb8d6351c1cf70c95a316cc6a92839c986682d98bc35f958f4883f9d2a8601f860160051c8101916020871061040257601f0160051c0190613b9e565b38611758565b50346104205760203660031901126104205760206118e76118e2612c29565b614842565b6040519015158152f35b503461042057602080600319360112610a79576001600160a01b03611914612c29565b168252601681526040822091604051809384918482549182815201918452848420935b858282106119625750505061194e92500383612d74565b610579604051928284938452830190612f66565b8554845260019586019588955093019201611937565b503461042057806003193601126104205760206001600160a01b0360065416604051908152f35b5034610420578060031936011261042057602060405160ff8152f35b5034610420576040366003190112610420576119d5612c29565b6001600160a01b0316815260166020526040812080546024359290831015610420576020611a038484612f38565b90546040519160031b1c8152f35b5034610420578060031936011261042057611a2a612f9a565b611a32613464565b600160ff1960085416176008557f62e78cea01bee320cd4e420270b5ea74000d11b0c9f74754ebdbfc544b05a2586020604051338152a180f35b5034610420576020366003190112610420576001600160a01b03611a8e612c29565b611a96612f9a565b16806001600160a01b0319600f541617600f557feda44c694e75c8161562f6179238b37a8daa291b6b2229613ed903ed92ab2d3d8280a280f35b50346104205760203660031901126104205760406060916004358152600b6020522060ff8154169060ff600260018301549201541690604051928352602083015215156040820152f35b5034610420578060031936011261042057611b33612f9a565b806001600160a01b036006546001600160a01b03198116600655167f8be0079c531659141344cd1fd0a4f28419497f9722a3daafe3b4186f6b6457e08280a380f35b5034610420576020366003190112610420576001600160a01b03611b97612c29565b168015611bb4578160409160209352600383522054604051908152f35b602482604051907f89c62b640000000000000000000000000000000000000000000000000000000082526004820152fd5b5034610420578060031936011261042057610579610565612e7a565b50346104205780600319360112610420576040519080600954611c2381612e40565b808552916001918083169081156116f05750600114611c4c576105798561056581870382612d74565b9250600983527f6e1540171b6c0c960b71a7020d9f60077f6af931a8bbf590da0223dacf75c7af5b828410611c8f57505050810160200161056582610579611686565b80546020858701810191909152909301928101611c74565b503461042057602080600319360112610a7957600435906001600160a01b03611cd581600e541633146143d2565b611cde836131b6565b838552600b83526040852090604051611cf681612cd2565b60ff835416815260ff60026001850154948784019586520154161580156040830152611e0d575191516040805160ff9094168452602084019190915285938793909283169185917f4ea24cce0fda81cee15bace7541c9ae5cc434fe4b80d5065b70dbae17db1a0519190a38282526002845260408220541660028115948515611dd4575b84845252604082206001600160a01b031981541690557fddf252ad1be2c89b69c2b068fc378daa952ba7f163c4a11628f55a4df523b3ef8280a4611dbc575080f35b60249060405190637e27328960e01b82526004820152fd5b611df585600052600460205260406000206001600160a01b03198154169055565b82845260038152604084208054600019019055611d7a565b6064856040519062461bcd60e51b82526004820152600160248201527f55000000000000000000000000000000000000000000000000000000000000006044820152fd5b503461042057602036600319011261042057611e6b612c29565b611e73612f9a565b6001600160a01b0380911690816001600160a01b0319600c541617600c55600d5416907f14662a0fccd762a05d5e1fa6afdd204554c4cf90fe58b5c5947f664fb71925f58380a380f35b503461042057602036600319011261042057604090600435611ede816131b6565b508152600b60205220604051611ef381612cd2565b60ff825416815260ff6002600184015493602084019485520154161580156040830152611f33575190516040805160ff9093168352602083019190915290f35b60405162461bcd60e51b815260206004820152600160248201527f52000000000000000000000000000000000000000000000000000000000000006044820152606490fd5b503461042057806003193601126104205760206001600160a01b03600c5416604051908152f35b5034610420576020366003190112610420576020611fbe6004356131b6565b6001600160a01b0360405191168152f35b5034610420578060031936011261042057602060ff600854166040519015158152f35b503461042057602036600319011261042057604060e0916001600160a01b03612019612c29565b16815260156020522060ff8154916001810154906002810154600460038301549201549260405195865260208601526040850152606084015281811615156080840152818160081c1660a084015260101c16151560c0820152f35b50346104205761208336612e01565b9061208c612f9a565b81519167ffffffffffffffff831161040c576120a9600954612e40565b601f81116121c9575b50602092601f81116001146121245790816117bf9284957ff9c7803e94e0d3c02900d8a90893a6d5e90dd04d32a4cfe825520f82bf9f32f69591612119575b508160011b916000199060031b1c191617600955604051918291602083526020830190612c78565b9050820151386120f1565b600983527f6e1540171b6c0c960b71a7020d9f60077f6af931a8bbf590da0223dacf75c7af601f198216845b8181106121b15750916001917ff9c7803e94e0d3c02900d8a90893a6d5e90dd04d32a4cfe825520f82bf9f32f69596826117bf969510612198575b5050811b01600955610565565b84015160001960f88460031b161c19169055388061218b565b84870151835560209687019660019093019201612150565b61221190600984527f6e1540171b6c0c960b71a7020d9f60077f6af931a8bbf590da0223dacf75c7af601f860160051c8101916020871061040257601f0160051c0190613b9e565b386120b2565b503461042057806003193601126104205760206001600160a01b03600d5416604051908152f35b503461042057806003193601126104205760206001600160a01b03600e5416604051908152f35b50346104205761143f61227736612c9d565b906040519261228584612d3c565b858452611439838383612fde565b503461042057602036600319011261042057604060e0916001600160a01b036122ba612c29565b8260c085516122c881612d04565b82815282602082015282878201528260608201528260808201528260a082015201521681526015602052206040519061230082612d04565b60ff815492838152600183015460208201908152600284015493604083019485526004600382015491606085019283520154946080840192858716151584528560c060a0870196828a60081c168852019760101c16151587526040519788525160208801525160408701525160608601525115156080850152511660a083015251151560c0820152f35b50346104205780600319360112610420576123a3612f9a565b60085460ff8116156123e35760ff19166008557f5db9ee0a495bf2e6ff9c91a7834c1ba4fdd244a5e8aa4e537bd38aeae4b073aa6020604051338152a180f35b60046040517f8dfc202b000000000000000000000000000000000000000000000000000000008152fd5b50346104205780600319360112610420576020601054604051908152f35b503461042057806003193601126104205761244461349a565b61244c613464565b61245533613615565b600160075580f35b503461042057604036600319011261042057602490813567ffffffffffffffff8111610a795736602382011215610a795780600401359061249d82612d96565b906124ab6040519283612d74565b828252602092858484019160051b830101913683116126535786859101915b83831061264357505050506001600160a01b0380600f54168033036126005790838692604051938480927fdc7d73bb00000000000000000000000000000000000000000000000000000000825260043560048301525afa9182156109b85785926125e1575b508116801561259e57845260158352604084209260ff60048501541661255b575061143f939450613bd9565b6064906002876040519262461bcd60e51b845260048401528201527f41460000000000000000000000000000000000000000000000000000000000006044820152fd5b6064846002886040519262461bcd60e51b845260048401528201527f49550000000000000000000000000000000000000000000000000000000000006044820152fd5b6125f9919250843d8611610a09576109fb8183612d74565b903861252f565b6064846002886040519262461bcd60e51b845260048401528201527f564d0000000000000000000000000000000000000000000000000000000000006044820152fd5b82358152918101918591016124ca565b8580fd5b50346104205780600319360112610420576020601354604051908152f35b50346104205761143f61268736612c9d565b91612fde565b50346104205780600319360112610420576126a6612f9a565b6001600160a01b0380600d5416604051907f70a08231000000000000000000000000000000000000000000000000000000008252306004830152602082602481845afa918215612793578492612760575b5081612701578380f35b6006546040517fa9059cbb00000000000000000000000000000000000000000000000000000000602082015293166001600160a01b03166024840152604480840192909252908252612759919061111b606483612d74565b3880808380f35b9091506020813d821161278b575b8161277b60209383612d74565b810103126112af575190386126f7565b3d915061276e565b6040513d86823e3d90fd5b5034610420576020366003190112610420576004356127bb612f9a565b670de0b6b3a7640000908181029181830414901517156116115760125580f35b50346104205760203660031901126104205760206114656127fa612c29565b61497c565b503461042057602036600319011261042057612819612f9a565b60043560135580f35b50346104205760403660031901126104205761283c612c29565b602435612848816131b6565b33151580612908575b806128de575b6128ae5781906001600160a01b03809416938491167f8c5be1e5ebec7d5bd14f71427d1e84f3dd0314c0f7b2291e5b200ac8c7c3b9258680a48252600460205260408220906001600160a01b031982541617905580f35b60246040517fa9fbf51f000000000000000000000000000000000000000000000000000000008152336004820152fd5b506001600160a01b038116845260056020526040842033855260205260ff60408520541615612857565b50336001600160a01b0382161415612851565b5034610420576020366003190112610420576001600160a01b036040602092600435612946816131b6565b50815260048452205416604051908152f35b50346104205780600319360112610420576040519080805461297981612e40565b808552916001918083169081156116f057506001146129a2576105798561056581870382612d74565b80809450527f290decd9548b62a8d60345a988386fc84ba6bc95484008f6362f93160ef3e5635b8284106129e457505050810160200161056582610579611686565b805460208587018101919091529093019281016129c9565b5034610420576020366003190112610420576004356001600160e01b03198116809103610a7957807f80ac58cd0000000000000000000000000000000000000000000000000000000060209214908115612a8d575b8115612a63575b506040519015158152f35b7f01ffc9a70000000000000000000000000000000000000000000000000000000091501482612a58565b7f5b5e139f0000000000000000000000000000000000000000000000000000000081149150612a51565b5034610420576020366003190112610420576001600160a01b03612ad9612c29565b612ae1612f9a565b16806001600160a01b0319600e541617600e557f088c5ec3908e3424c43d8102e8e1cc8eb8820a25e326b9c31cc58963046b92e98280a280f35b503461042057606036600319011261042057612b35612c29565b6024359060ff8216908183036112af57927f57c4a553ea4024e9d030303a99f6e58dad3e8267764f90605b4a2c968e3b237e60029392602095612c1e604435612be86001600160a01b0394612b8f86600e541633146143d2565b601154998a9860405192612ba284612cd2565b83528c830185815260ff604080860193600185528d81526020600b90522094511660ff1985541617845551600184015551151591019060ff801983541691151516179055565b612bf28684613e66565b612bfd601154613b5c565b6011556040519384931696836020909392919360ff60408201951681520152565b0390a3604051908152f35b600435906001600160a01b03821682036109ac57565b602435906001600160a01b03821682036109ac57565b60005b838110612c685750506000910152565b8181015183820152602001612c58565b90602091612c9181518092818552858086019101612c55565b601f01601f1916010190565b60609060031901126109ac576001600160a01b039060043582811681036109ac579160243590811681036109ac579060443590565b6060810190811067ffffffffffffffff821117612cee57604052565b634e487b7160e01b600052604160045260246000fd5b60e0810190811067ffffffffffffffff821117612cee57604052565b6080810190811067ffffffffffffffff821117612cee57604052565b6020810190811067ffffffffffffffff821117612cee57604052565b60a0810190811067ffffffffffffffff821117612cee57604052565b90601f8019910116810190811067ffffffffffffffff821117612cee57604052565b67ffffffffffffffff8111612cee5760051b60200190565b67ffffffffffffffff8111612cee57601f01601f191660200190565b929192612dd682612dae565b91612de46040519384612d74565b8294818452818301116109ac578281602093846000960137010152565b60206003198201126109ac576004359067ffffffffffffffff82116109ac57806023830112156109ac57816024612e3d93600401359101612dca565b90565b90600182811c92168015612e70575b6020831014612e5a57565b634e487b7160e01b600052602260045260246000fd5b91607f1691612e4f565b6040519060008260145491612e8e83612e40565b80835292600190818116908115612f165750600114612eb7575b50612eb592500383612d74565b565b6014600090815291507fce6d7b5282bd9a3661ae061feed1dbda4e52ab073b1f9285be6e155d9c38d4ec5b848310612efb5750612eb5935050810160200138612ea8565b81935090816020925483858a01015201910190918592612ee2565b905060209250612eb594915060ff191682840152151560051b82010138612ea8565b8054821015612f505760005260206000200190600090565b634e487b7160e01b600052603260045260246000fd5b90815180825260208080930193019160005b828110612f86575050505090565b835185529381019392810192600101612f78565b6001600160a01b03600654163303612fae57565b60246040517f118cdaa7000000000000000000000000000000000000000000000000000000008152336004820152fd5b90916001600160a01b0380931692831561319e576000928284528260209560028752604096848888205416968791331515806130ec575b509060027fddf252ad1be2c89b69c2b068fc378daa952ba7f163c4a11628f55a4df523b3ef92846130b4575b858352600381528b83206001815401905586835252898120846001600160a01b031982541617905580a4169283830361307a5750505050565b6064945051927f64283d7b000000000000000000000000000000000000000000000000000000008452600484015260248301526044820152fd5b6130d587600052600460205260406000206001600160a01b03198154169055565b848352600381528b83208054600019019055613041565b9193945091508061315d575b1561310857859291879138613015565b878688613125576024915190637e27328960e01b82526004820152fd5b90517f177e802f0000000000000000000000000000000000000000000000000000000081523360048201526024810191909152604490fd5b503387148015613182575b806130f857508582526004815233858984205416146130f8565b5086825260058152878220338352815260ff8883205416613168565b6024604051633250574960e11b815260006004820152fd5b8060005260026020526001600160a01b0360406000205416908115611dbc575090565b3d15613204573d906131ea82612dae565b916131f86040519384612d74565b82523d6000602084013e565b606090565b9293823b613219575b5050505050565b61325e906001600160a01b038094169560405194859481630a85bd0160e11b988988521660048701521660248501526044840152608060648401526084830190612c78565b03906020816000938185885af1908290826132dd575b50506132ab57826132836131d9565b80519190826132a45760248260405190633250574960e11b82526004820152fd5b6020915001fd5b6001600160e01b031916036132c557503880808080613212565b60249060405190633250574960e11b82526004820152fd5b909192506020813d821161331d575b816132f960209383612d74565b81010312610a795751906001600160e01b0319821682036104205750903880613274565b3d91506132ec565b1561332c57565b606460405162461bcd60e51b815260206004820152600260248201527f49510000000000000000000000000000000000000000000000000000000000006044820152fd5b1561337757565b606460405162461bcd60e51b815260206004820152600260248201527f504d0000000000000000000000000000000000000000000000000000000000006044820152fd5b818102929181159184041417156133ce57565b634e487b7160e01b600052601160045260246000fd5b906000602091828151910182855af115613458576000513d61344f57506001600160a01b0381163b155b6134155750565b6024906001600160a01b03604051917f5274afe7000000000000000000000000000000000000000000000000000000008352166004820152fd5b6001141561340e565b6040513d6000823e3d90fd5b60ff6008541661347057565b60046040517fd93c0665000000000000000000000000000000000000000000000000000000008152fd5b6002600754146134ab576002600755565b60046040517f3ee5aeb5000000000000000000000000000000000000000000000000000000008152fd5b908160209103126109ac57516001600160a01b03811681036109ac5790565b156134fb57565b606460405162461bcd60e51b815260206004820152600260248201527f4e500000000000000000000000000000000000000000000000000000000000006044820152fd5b1561354657565b606460405162461bcd60e51b815260206004820152600260248201527f41520000000000000000000000000000000000000000000000000000000000006044820152fd5b91906040838203126109ac57825180151581036109ac5792602090818101519067ffffffffffffffff82116109ac57019180601f840112156109ac5782516135d181612d96565b936135df6040519586612d74565b818552838086019260051b8201019283116109ac578301905b828210613606575050505090565b815181529083019083016135f8565b906001600160a01b038083166000526015602052604060002061363a815415156134f4565b61364b60ff6004830154161561353f565b81600f541680613aaf575b505460038101908181116133ce57814310613a6b57610102018091116133ce574311613a2757808316600090815260156020908152604080832060048082018054600160ff1991821681179092556017865284872091875294528285208054851690556002855282852080548516905560038086528386208054861690559085528285208054851690556005855291909320805490921690915581549194919081019081106133ce5740938415613a12575b6137156001820154613b2a565b9460005b60018301548110156137e95760119081549161373483613b5c565b905581613741828a613b6b565b526137a060405161375181612cd2565b600081526002602082016000815260408301906000825286600052600b60205260ff604060002094511660ff1985541617845551600184015551151591019060ff801983541691151516179055565b6137aa8286613e66565b8585166000526016602052604060002091825468010000000000000000811015612cee57610ce9816137e4956001610d0094018155612f38565b613719565b509294909360005b8251811015613983578061380861397e9285613b6b565b51604051907ff38fb73870bdd02683fad66fb67561b9981e4d40371e63e01ae2e8bf2345e1766138e56138de602085018b81526060956bffffffffffffffffffffffff198c881b16604082015287605482015260748681830152815261386d81612d58565b519020948d8b166000526015602052604060002060c060ff60046040519361389485612d04565b8054855260018101549586602087015260028201546040870152600382015490860152015481811615156080850152818160081c1660a085015260101c1615159101528a866140c2565b938461441d565b82600052600b6020526002604060002060ff861660ff1982541617815582600182015501600160ff198254161790558b837f57c4a553ea4024e9d030303a99f6e58dad3e8267764f90605b4a2c968e3b237e604051928c16928061395a868a836020909392919360ff60408201951681520152565b0390a36040805160ff90951685526020850191909152888c16939081908101610e54565b6137f1565b5094939192507f0908417bb2d0393a45bf6efe35cecf8dbedbab1767b8d95f650094c6ccd1d0ac9060ff6004600185015494015460081c166139ce6040519283928888169684613b7f565b0390a2166000526015602052613a00604060002060046000918281558260018201558260028201558260038201550155565b6016602052612eb56040600020613bb5565b935060001943014381116133ce574093613708565b606460405162461bcd60e51b815260206004820152600160248201527f45000000000000000000000000000000000000000000000000000000000000006044820152fd5b606460405162461bcd60e51b815260206004820152600260248201527f54450000000000000000000000000000000000000000000000000000000000006044820152fd5b600060249160405192838092635681dbe960e01b8252878a1660048301525afa90811561345857600090600092613b04575b5080613afa575b1561365657909150612eb59293613bd9565b5080511515613ae8565b9050613b2391503d806000833e613b1b8183612d74565b81019061358a565b9038613ae1565b90613b3482612d96565b613b416040519182612d74565b8281528092613b52601f1991612d96565b0190602036910137565b60001981146133ce5760010190565b8051821015612f505760209160051b010190565b60ff612e3d949360609383521660208201528160408201520190612f66565b818110613ba9575050565b60008155600101613b9e565b80546000825580613bc4575050565b612eb591600052602060002090810190613b9e565b60048381018054600160ff19918216811783556001600160a01b03851660008181526017602090815260408083208584528252808320805487169055600280845281842080548816905560038452818420805488169055888452818420805488169055600584528184208054881690559a85018054919b939a92999498929796909592949293909291613c6b90613b2a565b978b855b613cf5575b50505050505050927f0908417bb2d0393a45bf6efe35cecf8dbedbab1767b8d95f650094c6ccd1d0ac612eb5979695938293613cc160ff60169854925460081c16928a5193849384613b7f565b0390a2835260158152613cee84842060046000918281558260018201558260028201558260038201550155565b5220613bb5565b8754811015613e61576011805490613d0c82613b5c565b905580613d19838d613b6b565b52825115613e4e5782918f8f928f8f9289610e548f92613df48f9b8f95613def8f9c8f9d8a613e479f613d9f613d988f98977ff38fb73870bdd02683fad66fb67561b9981e4d40371e63e01ae2e8bf2345e1769f8e9901518c8b8151918883019384528201528d8152613d8b81612cd2565b5190209d8e9154916140c2565b9b8c61441d565b809c8c8b805197613daf89612cd2565b60ff8093168952868901948552600b828a01978789528d8352522096511690865416178555519084015551151591019060ff801983541691151516179055565b613e66565b805160ff8416815260208101859052879087907f57c4a553ea4024e9d030303a99f6e58dad3e8267764f90605b4a2c968e3b237e90604090a351928392836020909392919360ff60408201951681520152565b9091613c6f565b60248e60328a634e487b7160e01b835252fd5b613c74565b6040805192613e7484612d3c565b60008085526001600160a01b039485851694851561406e5783835260209660028852858420541684878215159283614036575b81875260038b528887206001815401905582875260028b52888720826001600160a01b03198254161790557fddf252ad1be2c89b69c2b068fc378daa952ba7f163c4a11628f55a4df523b3ef8780a4614006573b613f08575b505050505050565b85613f459185969798955180938192630a85bd0160e11b978884523360048501528760248501526044840152608060648401526084830190612c78565b0381858a5af190829082613fc2575b5050613f8b57505050613f656131d9565b8051939084613f8557602484845190633250574960e11b82526004820152fd5b84925001fd5b6001600160e01b0319919295501603613fab575050388080808080613f00565b602492505190633250574960e11b82526004820152fd5b909192508781813d8311613fff575b613fdb8183612d74565b81010312610a795751906001600160e01b0319821682036104205750903880613f54565b503d613fd1565b6024838651907f73c6ac6e0000000000000000000000000000000000000000000000000000000082526004820152fd5b61405783600052600460205260406000206001600160a01b03198154169055565b80875260038b528887208054600019019055613ea7565b602483865190633250574960e11b82526004820152fd5b90601a54821015612f5057601a600052601f8260051c7f057c384a7d1c54f3a1b2e5e67b2617b8224fdfd1ea7234eea573a6ff665ff63e01921690565b60649006602c81101561439657506001915b8060005260189160209083825260409283600020948451956140f587612d20565b5460ff968792838316948583526008908585831c16898501526010938686861c168b82015286606096851c1686820152961561429e575b5050505060058289161461425e575b60048289161461421c575b6003828916146141da575b60028289161461419b575b5050506001600160a01b031660005260178152816000209083851660005252600020908154908082168181146133ce57600101169060ff191617905590565b6001600160a01b038416600052601785528560002060026000528552818660002054169201511611156141d1575b38848161415c565b600194506141c9565b90506001600160a01b038316600052601784528460002060036000528452858560002054168686840151161115614213575b8590614151565b6002965061420c565b90506001600160a01b038316600052601784528460002060046000528452858560002054168685840151161115614255575b8590614146565b6003965061424e565b90506001600160a01b03831660005260178452846000206005600052845285856000205416868351161115614295575b859061413b565b6004965061428e565b85939496508392918160058593106000146142f457506001600052828a528a600020958b51966142cd88612d20565b54948580938282168a521c168b8801521c16898501521c1683820152915b3880808061412c565b600a81101561433957506005600052828a528a600020958b519661431788612d20565b54948580938282168a521c168b8801521c16898501521c1683820152916142eb565b601481101561435c5750600a600052828a528a600020958b519661431788612d20565b6032111561437d576014600052828a528a600020958b519661431788612d20565b6032600052828a528a600020958b519661431788612d20565b604f8110156143a857506002916140d4565b605e8110156143ba57506003916140d4565b606311156143ca576004916140d4565b6005916140d4565b156143d957565b606460405162461bcd60e51b815260206004820152600260248201527f4e410000000000000000000000000000000000000000000000000000000000006044820152fd5b60ff166001810361443b575060249006600f0180600f116133ce5790565b60028103614456575060339006603201806032116133ce5790565b60038103614471575060339006606401806064116133ce5790565b6004810361448c575060339006609601806096116133ce5790565b600503611f33576038900660c8018060c8116133ce5790565b6144ae816131b6565b506000908082526020600b815260ff6002604085200154161561474d57600954926144d884612e40565b15614709578291817a184f03e93ff9f4daa797ed6e38ed64bf6a1f01000000000000000084818110156146fb575b50506d04ee2d6d415b85acef8100000000808610156146ef575b50662386f26fc10000808610156146e2575b506305f5e100808610156146d5575b50612710808610156146c8575b5060648510156146ba575b600a809510156146b2575b6001918282019561458d61457788612dae565b97614585604051998a612d74565b808952612dae565b95846021848a0195601f19809a013688378a0101905b614676575b50505060405196848895946145bc83612e40565b9281811690811561465557506001146145f3575b505050506145e68291612e3d9651938491612c55565b0103908101835282612d74565b90919297939450600982527f6e1540171b6c0c960b71a7020d9f60077f6af931a8bbf590da0223dacf75c7af5b83831061463f57505050612e3d956145e69185010192919538806145d0565b80548a84018a0152899650918801918101614620565b60ff1916888601525050508015150284010191506145e6612e3d38806145d0565b600019019082907f30313233343536373839616263646566000000000000000000000000000000008282061a8353049085826145a357506145a8565b600101614564565b936064600291049401614559565b600491950494013861454e565b6008919504940138614541565b6010919504940138614532565b82919504940138614520565b049450604090503880614506565b6064826040519062461bcd60e51b82526004820152600160248201527f42000000000000000000000000000000000000000000000000000000000000006044820152fd5b505050612e3d612e7a565b906001600160a01b03600c54169182156147fe5780156147f75760206012546024604051809681937f7b2e0fcf00000000000000000000000000000000000000000000000000000000835260048301525afa928315613458576000936147c4575b50612e3d91926133bb565b6020813d82116147ef575b816147dc60209383612d74565b810103126112af57519250612e3d6147b9565b3d91506147cf565b5060009150565b606460405162461bcd60e51b815260206004820152600160248201527f44000000000000000000000000000000000000000000000000000000000000006044820152fd5b6001600160a01b03809116600090808252601560205260408220908260046040519361486d85612d04565b8054855260018101546020860152600281015460408601526003810154606086015201549460ff608085019681811615158852818160081c1660a087015260101c16151560c0850152600f54169182614924575b5050508051801515938461491a575b5083614902575b50826148e257505090565b5160038101925082811161161157610102018092116115fd575043111590565b909250600381018091116116115743101591386148d7565b51159350386148d0565b602460405180948193635681dbe960e01b835260048301525afa908115610a10578391614961575b50614959573882816148c1565b505050600190565b61497591503d8085833e613b1b8183612d74565b503861494c565b6001600160a01b03600091168152601560205260408120604051906149a082612d04565b6004815491828452600181015460208501526002810154604085015260038101546060850152015460ff808216151591826080860152818160081c1660a086015260101c16151560c08401528115908115614a49575b50614a445760038101809111614a3057431015614a2c5751906003820191828111611611574390036003019182116115fd575090565b5090565b602483634e487b7160e01b81526011600452fd5b505090565b9050386149f656fea2646970667358221220ae4075e8ad980e76000e856985317a707a3e065205586db0e111e59a10136f9b64736f6c63430008140033",
  "linkReferences": {},
  "deployedLinkReferences": {}
}