{
  "_format": "hh-sol-artifact-1",
  "contractName": "Hero",
  "sourceName": "contracts/current/nft/Hero.sol",
  "abi": [
    {
      "inputs": [
        {
          "internalType": "address",
          "name": "initialOwner",
          "type": "address"
        }
      ],
      "stateMutability": "nonpayable",
      "type": "constructor"
    },
    {
      "inputs": [
        {
          "internalType": "address",
          "name": "sender",
          "type": "address"
        },
        {
          "internalType": "uint256",
          "name": "tokenId",
          "type": "uint256"
        },
        {
          "internalType": "address",
          "name": "owner",
          "type": "address"
        }
      ],
      "name": "ERC721IncorrectOwner",
      "type": "error"
    },
    {
      "inputs": [
        {
          "internalType": "address",
          "name": "operator",
          "type": "address"
        },
        {
          "internalType": "uint256",
          "name": "tokenId",
          "type": "uint256"
        }
      ],
      "name": "ERC721InsufficientApproval",
      "type": "error"
    },
    {
      "inputs": [
        {
          "internalType": "address",
          "name": "approver",
          "type": "address"
        }
      ],
      "name": "ERC721InvalidApprover",
      "type": "error"
    },
    {
      "inputs": [
        {
          "internalType": "address",
          "name": "operator",
          "type": "address"
        }
      ],
      "name": "ERC721InvalidOperator",
      "type": "error"
    },
    {
      "inputs": [
        {
          "internalType": "address",
          "name": "owner",
          "type": "address"
        }
      ],
      "name": "ERC721InvalidOwner",
      "type": "error"
    },
    {
      "inputs": [
        {
          "internalType": "address",
          "name": "receiver",
          "type": "address"
        }
      ],
      "name": "ERC721InvalidReceiver",
      "type": "error"
    },
    {
      "inputs": [
        {
          "internalType": "address",
          "name": "sender",
          "type": "address"
        }
      ],
      "name": "ERC721InvalidSender",
      "type": "error"
    },
    {
      "inputs": [
        {
          "internalType": "uint256",
          "name": "tokenId",
          "type": "uint256"
        }
      ],
      "name": "ERC721NonexistentToken",
      "type": "error"
    },
    {
      "inputs": [],
      "name": "EnforcedPause",
      "type": "error"
    },
    {
      "inputs": [],
      "name": "ExpectedPause",
      "type": "error"
    },
    {
      "inputs": [
        {
          "internalType": "address",
          "name": "owner",
          "type": "address"
        }
      ],
      "name": "OwnableInvalidOwner",
      "type": "error"
    },
    {
      "inputs": [
        {
          "internalType": "address",
          "name": "account",
          "type": "address"
        }
      ],
      "name": "OwnableUnauthorizedAccount",
      "type": "error"
    },
    {
      "inputs": [],
      "name": "ReentrancyGuardReentrantCall",
      "type": "error"
    },
    {
      "inputs": [
        {
          "internalType": "address",
          "name": "token",
          "type": "address"
        }
      ],
      "name": "SafeERC20FailedOperation",
      "type": "error"
    },
    {
      "anonymous": false,
      "inputs": [
        {
          "indexed": true,
          "internalType": "address",
          "name": "owner",
          "type": "address"
        },
        {
          "indexed": true,
          "internalType": "address",
          "name": "approved",
          "type": "address"
        },
        {
          "indexed": true,
          "internalType": "uint256",
          "name": "tokenId",
          "type": "uint256"
        }
      ],
      "name": "Approval",
      "type": "event"
    },
    {
      "anonymous": false,
      "inputs": [
        {
          "indexed": true,
          "internalType": "address",
          "name": "owner",
          "type": "address"
        },
        {
          "indexed": true,
          "internalType": "address",
          "name": "operator",
          "type": "address"
        },
        {
          "indexed": false,
          "internalType": "bool",
          "name": "approved",
          "type": "bool"
        }
      ],
      "name": "ApprovalForAll",
      "type": "event"
    },
    {
      "anonymous": false,
      "inputs": [
        {
          "indexed": true,
          "internalType": "address",
          "name": "newAddress",
          "type": "address"
        }
      ],
      "name": "AscensionAltarSet",
      "type": "event"
    },
    {
      "anonymous": false,
      "inputs": [
        {
          "indexed": false,
          "internalType": "string",
          "name": "newBaseURI",
          "type": "string"
        }
      ],
      "name": "BaseURISet",
      "type": "event"
    },
    {
      "anonymous": false,
      "inputs": [
        {
          "indexed": true,
          "internalType": "address",
          "name": "player",
          "type": "address"
        },
        {
          "indexed": false,
          "internalType": "uint256",
          "name": "quantity",
          "type": "uint256"
        },
        {
          "indexed": false,
          "internalType": "uint8",
          "name": "maxRarity",
          "type": "uint8"
        },
        {
          "indexed": false,
          "internalType": "uint256[]",
          "name": "tokenIds",
          "type": "uint256[]"
        }
      ],
      "name": "BatchMintCompleted",
      "type": "event"
    },
    {
      "anonymous": false,
      "inputs": [
        {
          "indexed": false,
          "internalType": "string",
          "name": "newContractURI",
          "type": "string"
        }
      ],
      "name": "ContractURIUpdated",
      "type": "event"
    },
    {
      "anonymous": false,
      "inputs": [
        {
          "indexed": true,
          "internalType": "address",
          "name": "core",
          "type": "address"
        },
        {
          "indexed": true,
          "internalType": "address",
          "name": "token",
          "type": "address"
        }
      ],
      "name": "ContractsSet",
      "type": "event"
    },
    {
      "anonymous": false,
      "inputs": [
        {
          "indexed": true,
          "internalType": "uint256",
          "name": "tokenId",
          "type": "uint256"
        },
        {
          "indexed": true,
          "internalType": "address",
          "name": "owner",
          "type": "address"
        },
        {
          "indexed": false,
          "internalType": "uint8",
          "name": "rarity",
          "type": "uint8"
        },
        {
          "indexed": false,
          "internalType": "uint256",
          "name": "power",
          "type": "uint256"
        }
      ],
      "name": "HeroBurned",
      "type": "event"
    },
    {
      "anonymous": false,
      "inputs": [
        {
          "indexed": true,
          "internalType": "uint256",
          "name": "tokenId",
          "type": "uint256"
        },
        {
          "indexed": true,
          "internalType": "address",
          "name": "owner",
          "type": "address"
        },
        {
          "indexed": false,
          "internalType": "uint8",
          "name": "rarity",
          "type": "uint8"
        },
        {
          "indexed": false,
          "internalType": "uint256",
          "name": "power",
          "type": "uint256"
        }
      ],
      "name": "HeroMinted",
      "type": "event"
    },
    {
      "anonymous": false,
      "inputs": [
        {
          "indexed": true,
          "internalType": "address",
          "name": "player",
          "type": "address"
        },
        {
          "indexed": false,
          "internalType": "uint256",
          "name": "quantity",
          "type": "uint256"
        },
        {
          "indexed": false,
          "internalType": "bool",
          "name": "fromVault",
          "type": "bool"
        }
      ],
      "name": "MintRequested",
      "type": "event"
    },
    {
      "anonymous": false,
      "inputs": [
        {
          "indexed": true,
          "internalType": "address",
          "name": "previousOwner",
          "type": "address"
        },
        {
          "indexed": true,
          "internalType": "address",
          "name": "newOwner",
          "type": "address"
        }
      ],
      "name": "OwnershipTransferred",
      "type": "event"
    },
    {
      "anonymous": false,
      "inputs": [
        {
          "indexed": false,
          "internalType": "address",
          "name": "account",
          "type": "address"
        }
      ],
      "name": "Paused",
      "type": "event"
    },
    {
      "anonymous": false,
      "inputs": [
        {
          "indexed": true,
          "internalType": "address",
          "name": "from",
          "type": "address"
        },
        {
          "indexed": true,
          "internalType": "address",
          "name": "to",
          "type": "address"
        },
        {
          "indexed": true,
          "internalType": "uint256",
          "name": "tokenId",
          "type": "uint256"
        }
      ],
      "name": "Transfer",
      "type": "event"
    },
    {
      "anonymous": false,
      "inputs": [
        {
          "indexed": false,
          "internalType": "address",
          "name": "account",
          "type": "address"
        }
      ],
      "name": "Unpaused",
      "type": "event"
    },
    {
      "anonymous": false,
      "inputs": [
        {
          "indexed": true,
          "internalType": "address",
          "name": "vrfManager",
          "type": "address"
        }
      ],
      "name": "VRFManagerSet",
      "type": "event"
    },
    {
      "inputs": [
        {
          "internalType": "address",
          "name": "to",
          "type": "address"
        },
        {
          "internalType": "uint256",
          "name": "tokenId",
          "type": "uint256"
        }
      ],
      "name": "approve",
      "outputs": [],
      "stateMutability": "nonpayable",
      "type": "function"
    },
    {
      "inputs": [
        {
          "internalType": "address",
          "name": "owner",
          "type": "address"
        }
      ],
      "name": "balanceOf",
      "outputs": [
        {
          "internalType": "uint256",
          "name": "",
          "type": "uint256"
        }
      ],
      "stateMutability": "view",
      "type": "function"
    },
    {
      "inputs": [],
      "name": "baseURI",
      "outputs": [
        {
          "internalType": "string",
          "name": "",
          "type": "string"
        }
      ],
      "stateMutability": "view",
      "type": "function"
    },
    {
      "inputs": [
        {
          "internalType": "uint256",
          "name": "_tokenId",
          "type": "uint256"
        }
      ],
      "name": "burnFromAltar",
      "outputs": [],
      "stateMutability": "nonpayable",
      "type": "function"
    },
    {
      "inputs": [],
      "name": "contractURI",
      "outputs": [
        {
          "internalType": "string",
          "name": "",
          "type": "string"
        }
      ],
      "stateMutability": "view",
      "type": "function"
    },
    {
      "inputs": [],
      "name": "dungeonCore",
      "outputs": [
        {
          "internalType": "contract IDungeonCore",
          "name": "",
          "type": "address"
        }
      ],
      "stateMutability": "view",
      "type": "function"
    },
    {
      "inputs": [
        {
          "internalType": "uint256",
          "name": "tokenId",
          "type": "uint256"
        }
      ],
      "name": "getApproved",
      "outputs": [
        {
          "internalType": "address",
          "name": "",
          "type": "address"
        }
      ],
      "stateMutability": "view",
      "type": "function"
    },
    {
      "inputs": [
        {
          "internalType": "uint256",
          "name": "tokenId",
          "type": "uint256"
        }
      ],
      "name": "getHeroProperties",
      "outputs": [
        {
          "internalType": "uint8",
          "name": "rarity",
          "type": "uint8"
        },
        {
          "internalType": "uint256",
          "name": "power",
          "type": "uint256"
        }
      ],
      "stateMutability": "view",
      "type": "function"
    },
    {
      "inputs": [
        {
          "internalType": "uint256",
          "name": "_quantity",
          "type": "uint256"
        }
      ],
      "name": "getRequiredSoulShardAmount",
      "outputs": [
        {
          "internalType": "uint256",
          "name": "",
          "type": "uint256"
        }
      ],
      "stateMutability": "view",
      "type": "function"
    },
    {
      "inputs": [
        {
          "internalType": "address",
          "name": "_user",
          "type": "address"
        }
      ],
      "name": "getUserRequest",
      "outputs": [
        {
          "components": [
            {
              "internalType": "uint256",
              "name": "quantity",
              "type": "uint256"
            },
            {
              "internalType": "uint256",
              "name": "payment",
              "type": "uint256"
            },
            {
              "internalType": "bool",
              "name": "fulfilled",
              "type": "bool"
            },
            {
              "internalType": "uint8",
              "name": "maxRarity",
              "type": "uint8"
            },
            {
              "internalType": "bool",
              "name": "fromVault",
              "type": "bool"
            },
            {
              "internalType": "uint256[]",
              "name": "pendingTokenIds",
              "type": "uint256[]"
            }
          ],
          "internalType": "struct Hero.MintRequest",
          "name": "",
          "type": "tuple"
        }
      ],
      "stateMutability": "view",
      "type": "function"
    },
    {
      "inputs": [
        {
          "internalType": "uint256",
          "name": "",
          "type": "uint256"
        }
      ],
      "name": "heroData",
      "outputs": [
        {
          "internalType": "uint8",
          "name": "rarity",
          "type": "uint8"
        },
        {
          "internalType": "uint256",
          "name": "power",
          "type": "uint256"
        }
      ],
      "stateMutability": "view",
      "type": "function"
    },
    {
      "inputs": [
        {
          "internalType": "address",
          "name": "owner",
          "type": "address"
        },
        {
          "internalType": "address",
          "name": "operator",
          "type": "address"
        }
      ],
      "name": "isApprovedForAll",
      "outputs": [
        {
          "internalType": "bool",
          "name": "",
          "type": "bool"
        }
      ],
      "stateMutability": "view",
      "type": "function"
    },
    {
      "inputs": [
        {
          "internalType": "address",
          "name": "_to",
          "type": "address"
        },
        {
          "internalType": "uint8",
          "name": "_rarity",
          "type": "uint8"
        },
        {
          "internalType": "uint256",
          "name": "_power",
          "type": "uint256"
        }
      ],
      "name": "mintFromAltar",
      "outputs": [
        {
          "internalType": "uint256",
          "name": "",
          "type": "uint256"
        }
      ],
      "stateMutability": "nonpayable",
      "type": "function"
    },
    {
      "inputs": [
        {
          "internalType": "uint256",
          "name": "_quantity",
          "type": "uint256"
        }
      ],
      "name": "mintFromVault",
      "outputs": [],
      "stateMutability": "payable",
      "type": "function"
    },
    {
      "inputs": [
        {
          "internalType": "uint256",
          "name": "_quantity",
          "type": "uint256"
        }
      ],
      "name": "mintFromWallet",
      "outputs": [],
      "stateMutability": "payable",
      "type": "function"
    },
    {
      "inputs": [],
      "name": "mintPriceUSD",
      "outputs": [
        {
          "internalType": "uint256",
          "name": "",
          "type": "uint256"
        }
      ],
      "stateMutability": "view",
      "type": "function"
    },
    {
      "inputs": [],
      "name": "name",
      "outputs": [
        {
          "internalType": "string",
          "name": "",
          "type": "string"
        }
      ],
      "stateMutability": "view",
      "type": "function"
    },
    {
      "inputs": [
        {
          "internalType": "uint256",
          "name": "requestId",
          "type": "uint256"
        },
        {
          "internalType": "uint256[]",
          "name": "randomWords",
          "type": "uint256[]"
        }
      ],
      "name": "onVRFFulfilled",
      "outputs": [],
      "stateMutability": "nonpayable",
      "type": "function"
    },
    {
      "inputs": [],
      "name": "owner",
      "outputs": [
        {
          "internalType": "address",
          "name": "",
          "type": "address"
        }
      ],
      "stateMutability": "view",
      "type": "function"
    },
    {
      "inputs": [
        {
          "internalType": "uint256",
          "name": "tokenId",
          "type": "uint256"
        }
      ],
      "name": "ownerOf",
      "outputs": [
        {
          "internalType": "address",
          "name": "",
          "type": "address"
        }
      ],
      "stateMutability": "view",
      "type": "function"
    },
    {
      "inputs": [],
      "name": "pause",
      "outputs": [],
      "stateMutability": "nonpayable",
      "type": "function"
    },
    {
      "inputs": [],
      "name": "paused",
      "outputs": [
        {
          "internalType": "bool",
          "name": "",
          "type": "bool"
        }
      ],
      "stateMutability": "view",
      "type": "function"
    },
    {
      "inputs": [],
      "name": "platformFee",
      "outputs": [
        {
          "internalType": "uint256",
          "name": "",
          "type": "uint256"
        }
      ],
      "stateMutability": "view",
      "type": "function"
    },
    {
      "inputs": [],
      "name": "renounceOwnership",
      "outputs": [],
      "stateMutability": "nonpayable",
      "type": "function"
    },
    {
      "inputs": [
        {
          "internalType": "uint256",
          "name": "",
          "type": "uint256"
        }
      ],
      "name": "requestIdToUser",
      "outputs": [
        {
          "internalType": "address",
          "name": "",
          "type": "address"
        }
      ],
      "stateMutability": "view",
      "type": "function"
    },
    {
      "inputs": [
        {
          "internalType": "address",
          "name": "from",
          "type": "address"
        },
        {
          "internalType": "address",
          "name": "to",
          "type": "address"
        },
        {
          "internalType": "uint256",
          "name": "tokenId",
          "type": "uint256"
        }
      ],
      "name": "safeTransferFrom",
      "outputs": [],
      "stateMutability": "nonpayable",
      "type": "function"
    },
    {
      "inputs": [
        {
          "internalType": "address",
          "name": "from",
          "type": "address"
        },
        {
          "internalType": "address",
          "name": "to",
          "type": "address"
        },
        {
          "internalType": "uint256",
          "name": "tokenId",
          "type": "uint256"
        },
        {
          "internalType": "bytes",
          "name": "data",
          "type": "bytes"
        }
      ],
      "name": "safeTransferFrom",
      "outputs": [],
      "stateMutability": "nonpayable",
      "type": "function"
    },
    {
      "inputs": [
        {
          "internalType": "address",
          "name": "operator",
          "type": "address"
        },
        {
          "internalType": "bool",
          "name": "approved",
          "type": "bool"
        }
      ],
      "name": "setApprovalForAll",
      "outputs": [],
      "stateMutability": "nonpayable",
      "type": "function"
    },
    {
      "inputs": [
        {
          "internalType": "string",
          "name": "_newBaseURI",
          "type": "string"
        }
      ],
      "name": "setBaseURI",
      "outputs": [],
      "stateMutability": "nonpayable",
      "type": "function"
    },
    {
      "inputs": [
        {
          "internalType": "string",
          "name": "newContractURI",
          "type": "string"
        }
      ],
      "name": "setContractURI",
      "outputs": [],
      "stateMutability": "nonpayable",
      "type": "function"
    },
    {
      "inputs": [
        {
          "internalType": "address",
          "name": "_address",
          "type": "address"
        }
      ],
      "name": "setDungeonCore",
      "outputs": [],
      "stateMutability": "nonpayable",
      "type": "function"
    },
    {
      "inputs": [
        {
          "internalType": "uint256",
          "name": "_newPrice",
          "type": "uint256"
        }
      ],
      "name": "setMintPriceUSD",
      "outputs": [],
      "stateMutability": "nonpayable",
      "type": "function"
    },
    {
      "inputs": [
        {
          "internalType": "uint256",
          "name": "_newFee",
          "type": "uint256"
        }
      ],
      "name": "setPlatformFee",
      "outputs": [],
      "stateMutability": "nonpayable",
      "type": "function"
    },
    {
      "inputs": [
        {
          "internalType": "bytes4",
          "name": "interfaceId",
          "type": "bytes4"
        }
      ],
      "name": "supportsInterface",
      "outputs": [
        {
          "internalType": "bool",
          "name": "",
          "type": "bool"
        }
      ],
      "stateMutability": "view",
      "type": "function"
    },
    {
      "inputs": [],
      "name": "symbol",
      "outputs": [
        {
          "internalType": "string",
          "name": "",
          "type": "string"
        }
      ],
      "stateMutability": "view",
      "type": "function"
    },
    {
      "inputs": [
        {
          "internalType": "uint256",
          "name": "tokenId",
          "type": "uint256"
        }
      ],
      "name": "tokenURI",
      "outputs": [
        {
          "internalType": "string",
          "name": "",
          "type": "string"
        }
      ],
      "stateMutability": "view",
      "type": "function"
    },
    {
      "inputs": [
        {
          "internalType": "address",
          "name": "from",
          "type": "address"
        },
        {
          "internalType": "address",
          "name": "to",
          "type": "address"
        },
        {
          "internalType": "uint256",
          "name": "tokenId",
          "type": "uint256"
        }
      ],
      "name": "transferFrom",
      "outputs": [],
      "stateMutability": "nonpayable",
      "type": "function"
    },
    {
      "inputs": [
        {
          "internalType": "address",
          "name": "newOwner",
          "type": "address"
        }
      ],
      "name": "transferOwnership",
      "outputs": [],
      "stateMutability": "nonpayable",
      "type": "function"
    },
    {
      "inputs": [],
      "name": "unpause",
      "outputs": [],
      "stateMutability": "nonpayable",
      "type": "function"
    },
    {
      "inputs": [
        {
          "internalType": "address",
          "name": "",
          "type": "address"
        }
      ],
      "name": "userRequests",
      "outputs": [
        {
          "internalType": "uint256",
          "name": "quantity",
          "type": "uint256"
        },
        {
          "internalType": "uint256",
          "name": "payment",
          "type": "uint256"
        },
        {
          "internalType": "bool",
          "name": "fulfilled",
          "type": "bool"
        },
        {
          "internalType": "uint8",
          "name": "maxRarity",
          "type": "uint8"
        },
        {
          "internalType": "bool",
          "name": "fromVault",
          "type": "bool"
        }
      ],
      "stateMutability": "view",
      "type": "function"
    },
    {
      "inputs": [],
      "name": "withdrawNative",
      "outputs": [],
      "stateMutability": "nonpayable",
      "type": "function"
    },
    {
      "inputs": [],
      "name": "withdrawSoulShard",
      "outputs": [],
      "stateMutability": "nonpayable",
      "type": "function"
    },
    {
      "stateMutability": "payable",
      "type": "receive"
    }
  ],
  "bytecode": "0x608034620003e457601f906001600160401b03601f19620039be388190038581018316850184811186821017620003ce57859282916040528339602094859181010312620003e457516001600160a01b03948582169391849003620003e45762000068620003e9565b94601486527f44756e67656f6e2044656c76657273204865726f000000000000000000000000818701526200009c620003e9565b90600382526208888960eb1b81830152865194848611620003ce576000958654986001998a81811c91168015620003c3575b85821014620003af579081878493116200035c575b508490878311600114620002fb578992620002ef575b5050600019600383901b1c191690891b1786555b8251948511620002db5787548881811c91168015620002d0575b83821014620002bc5790818587969594931162000263575b5081938511600114620001fe5750508492620001f2575b5050600019600383901b1c191690841b1783555b8115620001da57600680546001600160a01b0319811684179091556040519416907f8be0079c531659141344cd1fd0a4f28419497f9722a3daafe3b4186f6b6457e09080a380600755671bc16d674ec80000600f55660110d9316ec000601055600e556135b490816200040a8239f35b60249060405190631e4fbdf760e01b82526004820152fd5b01519050388062000156565b889593929193168587528387209387905b8282106200024957505084116200022f575b505050811b0183556200016a565b015160001960f88460031b161c1916905538808062000221565b8484015186558a979095019493840193908101906200020f565b9091929394508887528287208580880160051c820192858910620002b2575b9188978c9297969594930160051c01915b828110620002a35750506200013f565b8981558897508b910162000293565b9250819262000282565b634e487b7160e01b87526022600452602487fd5b90607f169062000127565b634e487b7160e01b86526041600452602486fd5b015190503880620000f9565b90848c9416918a8052868b20928b5b888282106200034557505084116200032b575b505050811b0186556200010d565b015160001960f88460031b161c191690553880806200031d565b8385015186558f979095019493840193016200030a565b9091508880528489208780850160051c820192878610620003a5575b918d91869594930160051c01915b82811062000396575050620000e3565b8b81558594508d910162000386565b9250819262000378565b634e487b7160e01b89526022600452602489fd5b90607f1690620000ce565b634e487b7160e01b600052604160045260246000fd5b600080fd5b60408051919082016001600160401b03811183821017620003ce5760405256fe60406080815260049081361015610020575b5050361561001e57600080fd5b005b600091823560e01c80622144f6146121b957806301ffc9a71461210057806306fdde0314612058578063081812fc1461201f578063095ea7b314611f2c57806312e8e2c314611f0a5780631cbb413114611eb85780631dafec0014611d8b57806323b872dd14611d7357806326232a2e14611d545780632a32e8d414611cc85780633f4ba83a14611c4657806342842e0e14611c1757806350431ce414611b9457806355f804b3146119ee5780635c975abb146119ca5780636352211e1461199a57806367cfab58146119725780636a6cdc6c146119115780636ab1b29b146118545780636aef5069146117055780636c0360eb1461165b57806370a08231146115ed578063715018a61461159257806373b31190146115585780638456cb59146114fd5780638da5cb5b146114d5578063938e3d7b1461130b57806395d89b411461123a5780639b41886c1461121b578063a22cb4651461115c578063b1d78c9a14611135578063b88d4fde146110c2578063c87b56dd14610dfb578063c886015d14610a15578063d0fdcc091461056e578063d6042eb81461047c578063dc7d73bb1461044c578063e8601c66146103e1578063e8a3d485146102f4578063e985e9c51461029f5763f2fde38b146101fa5750610011565b3461029b57602036600319011261029b5761021361229c565b9061021c6124e9565b6001600160a01b0380921692831561026c575050600654826001600160a01b0319821617600655167f8be0079c531659141344cd1fd0a4f28419497f9722a3daafe3b4186f6b6457e0600080a380f35b908460249251917f1e4fbdf7000000000000000000000000000000000000000000000000000000008352820152fd5b8280fd5b5050346102f057806003193601126102f0576020916102bc61229c565b826102c56122b2565b926001600160a01b03809316815260058652209116600052825260ff81600020541690519015158152f35b5080fd5b8284346103de57806003193601126103de57508051600091600a546103188161247b565b808452906001908181169081156103b65750600114610359575b5050610343826103559403836123af565b519182916020835260208301906122eb565b0390f35b600a600090815294507fc65a7bb8d6351c1cf70c95a316cc6a92839c986682d98bc35f958f4883f9d2a85b82861061039e575050509181016020019161034382610332565b80546020878701810191909152909501948101610384565b610355965085925060209150926103439360ff191682840152151560051b8201019450610332565b80fd5b5050346102f05760203660031901126102f05760ff8160a0936001600160a01b0361040a61229c565b168152601160205220805492600260018301549201549181519485526020850152828216151590840152818160081c16606084015260101c1615156080820152f35b503461029b57602036600319011261029b57816020936001600160a01b0392358152600d85522054169051908152f35b5050346102f057602091826003193601126103de5781610355916001600160a01b036104a661229c565b606060a085516104b581612377565b858152858a82015285878201528583820152856080820152015216815260118552208251926104e384612377565b8154845260ff600183015492868601938452600281015492808701908385161515825261052c600360608a0194868860081c1686528660808c019860101c16151588520161328d565b9560a089019687528151998a99818b5251908a0152519088015251151560608701525116608085015251151560a08401525160c08084015260e08301906124b5565b509060209081600319360112610a1157823591610589612d74565b610591612d3e565b82151580610a06575b6105a39061288c565b338552601181526105c18286208054159081156109f7575b506128fd565b6105ca8361336c565b936105d78460105461296e565b341061099057856001600160a01b0395828488600c54168751928380927f29bdca370000000000000000000000000000000000000000000000000000000082525afa908115610986579088918491610959575b501690813b1561029b5785517fd064ff190000000000000000000000000000000000000000000000000000000081523385820190815260208101929092529291839182908490829060400103925af180156108b25761092b575b50858261069086612997565b96825b8781106108bc575085513360601b6bffffffffffffffffffffffff19168382019081526014810189905261073192916106d981603484015b03601f1981018352826123af565b519020906106e56134e2565b16906106f2821515612a02565b875194858094819363435639fb60e11b8352338a8401606090939291936001600160a01b03608082019516815260016020820152600560408201520152565b03925af19081156108b2578791610880575b508652600d8252828620336001600160a01b031982541617905582519461076986612377565b8486526003838701963488528581018981526060820160058152608083019060019a8b835260a08501968752338d5260118952898d2094518555518b8501556107c56002850193511515849060ff801983541691151516179055565b519061ff0062ff000084549251151560101b169260081b169062ffff0019161717905501905180519267ffffffffffffffff841161086d57509183879361080f8385989795612a64565b019488528188209488955b828710610858575050507f61e364e3eabc785119e074fc551f39d64063d113dd457cccf0f14a6fcb3ede4f935082519485528401523392a260075580f35b8151878201559590930194879383019061081a565b886041602492634e487b7160e01b835252fd5b90508281813d83116108ab575b61089781836123af565b810103126108a6575138610743565b600080fd5b503d61088d565b84513d89823e3d90fd5b9092506109229150600e8054906108d2826129c9565b9055806108df838b6129d8565b526108ea8133612b1f565b60018751916108f883612345565b8b8352878301908c82528c52600b885260ff898d2093511660ff19845416178355519101556129c9565b87918491610693565b67ffffffffffffffff81979297116109465783529438610684565b602482604189634e487b7160e01b835252fd5b6109799150863d881161097f575b61097181836123af565b8101906132dc565b3861062a565b503d610967565b86513d85823e3d90fd5b90608492519162461bcd60e51b8352820152602760248201527f4865726f3a20496e73756666696369656e742076616c756520666f722076617560448201527f6c74206d696e74000000000000000000000000000000000000000000000000006064820152fd5b60ff91506002015416386105bb565b50603283111561059a565b8380fd5b509060209081600319360112610a1157823591610a30612d74565b610a38612d3e565b82151580610df0575b610a4a9061288c565b33855260118152610a678286208054159081156109f757506128fd565b610a708361336c565b610a7c8460105461296e565b3410610d88576001600160a01b0380610a9361347c565b16918451907f23b872dd000000000000000000000000000000000000000000000000000000008583015233602483015230604483015260648201526064815260a081019267ffffffffffffffff9382811085821117610d75578652610af89190612a9f565b610b0185612997565b9083885b878110610d0b575085513360601b6bffffffffffffffffffffffff191682820190815260148101899052610b9a9391610b4181603484016106cb565b51902090610b4d6134e2565b16610b59811515612a02565b898b895180968195829463435639fb60e11b845233908401606090939291936001600160a01b03608082019516815260016020820152600560408201520152565b03925af1908115610d01578891610cd0575b508752600d8352838720336001600160a01b0319825416179055835195610bd287612377565b8587526003848801973489528681018a8152606082019960058b5260808301908c825260a08401968752338d5260118952898d2093518455519a60019b8c850155610c306002850193511515849060ff801983541691151516179055565b519061ff0062ff000084549251151560101b169260081b169062ffff0019161717905501915190815193841161086d5750908383959492610c728a9584612a64565b0190835281832087845b878110610cbb57505050507f61e364e3eabc785119e074fc551f39d64063d113dd457cccf0f14a6fcb3ede4f935082519485528401523392a260075580f35b8351838201558a955092840192899101610c7c565b90508381813d8311610cfa575b610ce781836123af565b81010312610cf6575138610bac565b8780fd5b503d610cdd565b85513d8a823e3d90fd5b610d6e9150896001600e805490610d21826129c9565b905580610d2e85896129d8565b52610d398133612b1f565b60ff8a805194610d4886612345565b8086528b8601938185528152600b8c522093511660ff19845416178355519101556129c9565b8490610b05565b60248a60418b634e487b7160e01b835252fd5b6084858385519162461bcd60e51b8352820152602360248201527f4865726f3a20496e73756666696369656e74207061796d656e742070726f766960448201527f64656400000000000000000000000000000000000000000000000000000000006064820152fd5b506032831115610a41565b509190346102f057602091826003193601126103de57833590610e1d82612705565b5060095494610e2b8661247b565b1561108057829082907a184f03e93ff9f4daa797ed6e38ed64bf6a1f0100000000000000008381811015611073575b5050866d04ee2d6d415b85acef810000000080851015611064575b5050662386f26fc1000080841015611055575b506305f5e10080841015611046575b506127108084101561103a575b5050606482101561102c575b600a80921015611024575b60019182820190610ee3610ece836123e9565b92610edb895194856123af565b8084526123e9565b958460218a850195601f19809a01368837850101905b610fe8575b50505085519784899594610f118361247b565b928a8282169182600014610fc1575050600114610f61575b5050509180610f45610f529593610355989795519384916122c8565b01039081018652856123af565b519282849384528301906122eb565b8993949550600982527f6e1540171b6c0c960b71a7020d9f60077f6af931a8bbf590da0223dacf75c7af5b838310610fa757505050840101919080610f45610355610f29565b80549783018501979097528a968a94909201918101610f8c565b60ff19168982015284151590940288019093019550839250610f4591506103559050610f29565b600019019082907f30313233343536373839616263646566000000000000000000000000000000008282061a835304908582610ef95750610efe565b600101610ebb565b906064600291049101610eb0565b90920491013880610ea4565b60089192930492019038610e97565b60109192930492019038610e88565b90919293049201908638610e75565b0492508591503880610e5a565b6064908585519162461bcd60e51b8352820152601d60248201527f4865726f3a204261736520555249206e6f7420636f6e666967757265640000006044820152fd5b8382346102f05760803660031901126102f0576110dd61229c565b6110e56122b2565b6044359060643567ffffffffffffffff811161113157366023820112156111315761112e9481602461111c93369301359101612405565b9261112883838361252d565b33612770565b80f35b8580fd5b5091346103de5760203660031901126103de57506111556020923561336c565b9051908152f35b50903461029b578060031936011261029b5761117661229c565b9060243580151592838203611131576001600160a01b03169384156111ec57506111bf9033865260056020528286208587526020528286209060ff801983541691151516179055565b519081527f17307eab39ab6107e8899845ad3d59bd9653f200f220920489ca2b5937696c3160203392a380f35b602490858451917f5b08ba18000000000000000000000000000000000000000000000000000000008352820152fd5b5050346102f057816003193601126102f057602090600f549051908152f35b5050346102f057816003193601126102f05780519082600180549161125e8361247b565b808652928281169081156112e35750600114611287575b505050610343826103559403836123af565b94508085527fb10e2d527612073b26eecdfd717e6a320cf44b4afac2b0732d9fcbe2b7fa0cf65b8286106112cb575050506103438260206103559582010194611275565b805460208787018101919091529095019481016112ae565b61035597508693506020925061034394915060ff191682840152151560051b82010194611275565b509190346102f05761131c3661243c565b906113256124e9565b81519367ffffffffffffffff85116114c25750611343600a5461247b565b601f8111611469575b50602093601f81116001146113c35790816113b2939285967f905d981207a7d0b6c62cc46ab0be2a076d0298e4a86d0ab79882dbd01ac3737896916113b8575b508160011b916000199060031b1c191617600a55519182916020835260208301906122eb565b0390a180f35b90508301513861138c565b600a84527fc65a7bb8d6351c1cf70c95a316cc6a92839c986682d98bc35f958f4883f9d2a8601f198216855b8181106114515750916001917f905d981207a7d0b6c62cc46ab0be2a076d0298e4a86d0ab79882dbd01ac373789697826113b297969510611438575b5050811b01600a55610343565b85015160001960f88460031b161c19169055388061142b565b858801518355602097880197600190930192016113ef565b6114b290600a85527fc65a7bb8d6351c1cf70c95a316cc6a92839c986682d98bc35f958f4883f9d2a8601f870160051c810191602088106114b8575b601f0160051c0190612a4d565b3861134c565b90915081906114a5565b836041602492634e487b7160e01b835252fd5b5050346102f057816003193601126102f0576020906001600160a01b03600654169051908152f35b5050346102f057816003193601126102f05760207f62e78cea01bee320cd4e420270b5ea74000d11b0c9f74754ebdbfc544b05a2589161153b6124e9565b611543612d3e565b600160ff19600854161760085551338152a180f35b503461029b57602036600319011261029b57358252600b6020908152918190208054600190910154915160ff909116815291820152604090f35b83346103de57806003193601126103de576115ab6124e9565b806001600160a01b036006546001600160a01b03198116600655167f8be0079c531659141344cd1fd0a4f28419497f9722a3daafe3b4186f6b6457e08280a380f35b5091346103de5760203660031901126103de576001600160a01b0361161061229c565b1692831561162d5750806020938392526003845220549051908152f35b9060249251917f89c62b64000000000000000000000000000000000000000000000000000000008352820152fd5b5050346102f057816003193601126102f0578051908260095461167d8161247b565b808552916001918083169081156112e357506001146116a857505050610343826103559403836123af565b9450600985527f6e1540171b6c0c960b71a7020d9f60077f6af931a8bbf590da0223dacf75c7af5b8286106116ed575050506103438260206103559582010194611275565b805460208787018101919091529095019481016116d0565b50903461029b5760209081600319360112610a115782359182856001600160a01b0361173b81611733613530565b1633146132fb565b61174483612705565b838352600b8552837f4ea24cce0fda81cee15bace7541c9ae5cc434fe4b80d5065b70dbae17db1a05183888620936117ab898b5161178181612345565b875460ff1680825260019098015491018190528b5196875260208701529116939081906040820190565b0390a38282526002845284822054166002811594851561181c575b848452528482206001600160a01b031981541690557fddf252ad1be2c89b69c2b068fc378daa952ba7f163c4a11628f55a4df523b3ef8280a4611807578380f35b602493505191637e27328960e01b8352820152fd5b61183d85600052600460205260406000206001600160a01b03198154169055565b8284526003815286842080546000190190556117c6565b503461029b57602036600319011261029b5761186e61229c565b906118776124e9565b6001600160a01b038092169283156118ce575050816001600160a01b0319600c541617600c556118a561347c565b16907f14662a0fccd762a05d5e1fa6afdd204554c4cf90fe58b5c5947f664fb71925f58380a380f35b906020606492519162461bcd60e51b8352820152601a60248201527f44756e67656f6e436f72652063616e6e6f74206265207a65726f0000000000006044820152fd5b503461029b57602036600319011261029b5781602093610355923561193581612705565b508152600b85522091805161194981612345565b835460ff1680825260019094015494018490525191825260208201929092529081906040820190565b5050346102f057816003193601126102f0576020906001600160a01b03600c54169051908152f35b5091346103de5760203660031901126103de57506001600160a01b036119c260209335612705565b915191168152f35b5050346102f057816003193601126102f05760209060ff6008541690519015158152f35b509190346102f0576119ff3661243c565b90611a086124e9565b81519367ffffffffffffffff85116114c25750611a2660095461247b565b601f8111611b46575b50602093601f8111600114611aa05790816113b2939285967ff9c7803e94e0d3c02900d8a90893a6d5e90dd04d32a4cfe825520f82bf9f32f69691611a95575b508160011b916000199060031b1c191617600955519182916020835260208301906122eb565b905083015138611a6f565b600984527f6e1540171b6c0c960b71a7020d9f60077f6af931a8bbf590da0223dacf75c7af601f198216855b818110611b2e5750916001917ff9c7803e94e0d3c02900d8a90893a6d5e90dd04d32a4cfe825520f82bf9f32f69697826113b297969510611b15575b5050811b01600955610343565b85015160001960f88460031b161c191690553880611b08565b85880151835560209788019760019093019201611acc565b611b8e90600985527f6e1540171b6c0c960b71a7020d9f60077f6af931a8bbf590da0223dacf75c7af601f870160051c810191602088106114b857601f0160051c0190612a4d565b38611a2f565b50903461029b578260031936011261029b57611bae6124e9565b828080806001600160a01b036006541647905af1611bca612740565b5015611bd4578280f35b906020606492519162461bcd60e51b8352820152601960248201527f4865726f3a20455448207472616e73666572206661696c6564000000000000006044820152fd5b5050346102f05761112e90611c2b36612310565b91925192611c3884612393565b85845261112883838361252d565b503461029b578260031936011261029b57611c5f6124e9565b6008549060ff821615611ca1575060ff1916600855513381527f5db9ee0a495bf2e6ff9c91a7834c1ba4fdd244a5e8aa4e537bd38aeae4b073aa90602090a180f35b82517f8dfc202b000000000000000000000000000000000000000000000000000000008152fd5b509190346102f057806003193601126102f0576024359267ffffffffffffffff841161029b573660238501121561029b578381013593611d13611d0a866123d1565b935193846123af565b84835260209460248685019160051b8301019136831161113157602401905b828210611d45578561112e868635612daf565b81358152908601908601611d32565b5050346102f057816003193601126102f0576020906010549051908152f35b83346103de5761112e611d8536612310565b9161252d565b503461029b578260031936011261029b57611da46124e9565b6001600160a01b0380611db561347c565b16908351927f70a082310000000000000000000000000000000000000000000000000000000084523090840152602083602481855afa928315611eae578593611e77575b5082611e03578480f35b611e6f93611e5c611e6a926006541691519485927fa9059cbb00000000000000000000000000000000000000000000000000000000602085015260248401602090939291936001600160a01b0360408201951681520152565b03601f1981018452836123af565b612a9f565b388080808480f35b9092506020813d8211611ea6575b81611e92602093836123af565b81010312611ea257519138611df9565b8480fd5b3d9150611e85565b84513d87823e3d90fd5b8382346102f05760203660031901126102f057803590611ed66124e9565b670de0b6b3a764000091828102928184041490151715611ef75750600f5580f35b826011602492634e487b7160e01b835252fd5b8382346102f05760203660031901126102f057611f256124e9565b3560105580f35b50903461029b578060031936011261029b57611f4661229c565b91602435611f5381612705565b3315158061200c575b80611fe4575b611fb55781906001600160a01b03809616958691167f8c5be1e5ebec7d5bd14f71427d1e84f3dd0314c0f7b2291e5b200ac8c7c3b9258880a484526020528220906001600160a01b031982541617905580f35b83517fa9fbf51f0000000000000000000000000000000000000000000000000000000081523381850152602490fd5b506001600160a01b0381168652600560205283862033875260205260ff848720541615611f62565b50336001600160a01b0382161415611f5c565b503461029b57602036600319011261029b5781602093826001600160a01b03933561204981612705565b50825285522054169051908152f35b5050346102f057816003193601126102f0578051908280546120798161247b565b808552916001918083169081156112e357506001146120a457505050610343826103559403836123af565b80809650527f290decd9548b62a8d60345a988386fc84ba6bc95484008f6362f93160ef3e5635b8286106120e8575050506103438260206103559582010194611275565b805460208787018101919091529095019481016120cb565b503461029b57602036600319011261029b5735906001600160e01b0319821680920361029b57602092507f80ac58cd00000000000000000000000000000000000000000000000000000000821491821561218f575b8215612165575b50519015158152f35b7f01ffc9a7000000000000000000000000000000000000000000000000000000001491503861215c565b7f5b5e139f0000000000000000000000000000000000000000000000000000000081149250612155565b5050346102f05760603660031901126102f0576121d461229c565b6024359060ff821690818303611ea257937f57c4a553ea4024e9d030303a99f6e58dad3e8267764f90605b4a2c968e3b237e60019493926020966122936044356001600160a01b039361222985611733613530565b600e54998a978a519261223b84612345565b835260ff8b8e8501928684528b81528f600b90522093511660ff198454161783555191015561226a8684612b1f565b612275600e546129c9565b600e55875160ff909716875260208701529116939081906040820190565b0390a351908152f35b600435906001600160a01b03821682036108a657565b602435906001600160a01b03821682036108a657565b60005b8381106122db5750506000910152565b81810151838201526020016122cb565b90602091612304815180928185528580860191016122c8565b601f01601f1916010190565b60609060031901126108a6576001600160a01b039060043582811681036108a6579160243590811681036108a6579060443590565b6040810190811067ffffffffffffffff82111761236157604052565b634e487b7160e01b600052604160045260246000fd5b60c0810190811067ffffffffffffffff82111761236157604052565b6020810190811067ffffffffffffffff82111761236157604052565b90601f8019910116810190811067ffffffffffffffff82111761236157604052565b67ffffffffffffffff81116123615760051b60200190565b67ffffffffffffffff811161236157601f01601f191660200190565b929192612411826123e9565b9161241f60405193846123af565b8294818452818301116108a6578281602093846000960137010152565b60206003198201126108a6576004359067ffffffffffffffff82116108a657806023830112156108a65781602461247893600401359101612405565b90565b90600182811c921680156124ab575b602083101461249557565b634e487b7160e01b600052602260045260246000fd5b91607f169161248a565b90815180825260208080930193019160005b8281106124d5575050505090565b8351855293810193928101926001016124c7565b6001600160a01b036006541633036124fd57565b60246040517f118cdaa7000000000000000000000000000000000000000000000000000000008152336004820152fd5b90916001600160a01b038093169283156126ed5760009282845282602095600287526040968488882054169687913315158061263b575b509060027fddf252ad1be2c89b69c2b068fc378daa952ba7f163c4a11628f55a4df523b3ef9284612603575b858352600381528b83206001815401905586835252898120846001600160a01b031982541617905580a416928383036125c95750505050565b6064945051927f64283d7b000000000000000000000000000000000000000000000000000000008452600484015260248301526044820152fd5b61262487600052600460205260406000206001600160a01b03198154169055565b848352600381528b83208054600019019055612590565b919394509150806126ac575b1561265757859291879138612564565b878688612674576024915190637e27328960e01b82526004820152fd5b90517f177e802f0000000000000000000000000000000000000000000000000000000081523360048201526024810191909152604490fd5b5033871480156126d1575b806126475750858252600481523385898420541614612647565b5086825260058152878220338352815260ff88832054166126b7565b6024604051633250574960e11b815260006004820152fd5b8060005260026020526001600160a01b0360406000205416908115612728575090565b60249060405190637e27328960e01b82526004820152fd5b3d1561276b573d90612751826123e9565b9161275f60405193846123af565b82523d6000602084013e565b606090565b9293823b612780575b5050505050565b6127c5906001600160a01b038094169560405194859481630a85bd0160e11b9889885216600487015216602485015260448401526080606484015260848301906122eb565b03906020816000938185885af190829082612844575b505061281257826127ea612740565b805191908261280b5760248260405190633250574960e11b82526004820152fd5b6020915001fd5b6001600160e01b0319160361282c57503880808080612779565b60249060405190633250574960e11b82526004820152fd5b909192506020813d8211612884575b81612860602093836123af565b810103126102f05751906001600160e01b0319821682036103de57509038806127db565b3d9150612853565b1561289357565b608460405162461bcd60e51b815260206004820152603160248201527f4865726f3a20496e76616c6964207175616e74697479202d206d75737420626560448201527f206265747765656e203120616e642035300000000000000000000000000000006064820152fd5b1561290457565b608460405162461bcd60e51b815260206004820152602960248201527f4865726f3a2050726576696f7573206d696e742072657175657374207374696c60448201527f6c2070656e64696e6700000000000000000000000000000000000000000000006064820152fd5b8181029291811591840414171561298157565b634e487b7160e01b600052601160045260246000fd5b906129a1826123d1565b6129ae60405191826123af565b82815280926129bf601f19916123d1565b0190602036910137565b60001981146129815760010190565b80518210156129ec5760209160051b010190565b634e487b7160e01b600052603260045260246000fd5b15612a0957565b606460405162461bcd60e51b815260206004820152601260248201527f565246206e6f7420636f6e6669677572656400000000000000000000000000006044820152fd5b818110612a58575050565b60008155600101612a4d565b9068010000000000000000811161236157815490808355818110612a8757505050565b612a9d9260005260206000209182019101612a4d565b565b906000602091828151910182855af115612b13576000513d612b0a57506001600160a01b0381163b155b612ad05750565b6024906001600160a01b03604051917f5274afe7000000000000000000000000000000000000000000000000000000008352166004820152fd5b60011415612ac9565b6040513d6000823e3d90fd5b6040805192612b2d84612393565b60008085526001600160a01b0394858516948515612d275783835260209660028852858420541684878215159283612cef575b81875260038b528887206001815401905582875260028b52888720826001600160a01b03198254161790557fddf252ad1be2c89b69c2b068fc378daa952ba7f163c4a11628f55a4df523b3ef8780a4612cbf573b612bc1575b505050505050565b85612bfe9185969798955180938192630a85bd0160e11b9788845233600485015287602485015260448401526080606484015260848301906122eb565b0381858a5af190829082612c7b575b5050612c4457505050612c1e612740565b8051939084612c3e57602484845190633250574960e11b82526004820152fd5b84925001fd5b6001600160e01b0319919295501603612c64575050388080808080612bb9565b602492505190633250574960e11b82526004820152fd5b909192508781813d8311612cb8575b612c9481836123af565b810103126102f05751906001600160e01b0319821682036103de5750903880612c0d565b503d612c8a565b6024838651907f73c6ac6e0000000000000000000000000000000000000000000000000000000082526004820152fd5b612d1083600052600460205260406000206001600160a01b03198154169055565b80875260038b528887208054600019019055612b60565b602483865190633250574960e11b82526004820152fd5b60ff60085416612d4a57565b60046040517fd93c0665000000000000000000000000000000000000000000000000000000008152fd5b600260075414612d85576002600755565b60046040517f3ee5aeb5000000000000000000000000000000000000000000000000000000008152fd5b6001600160a01b03612dbf6134e2565b163303613289578151156132895780600052600d6020526001600160a01b036040600020541690811561328457816000526011908160205260406000209360ff600286015416612779578051156129ec576020015194612e216003860161328d565b916001956000965b81548810156131a957612e3c88866129d8565b516040517f6352211e000000000000000000000000000000000000000000000000000000008152816004820152602081602481305afa60009181613188575b50612e9457505050612e8e6000976129c9565b96612e29565b6001600160a01b0389919a939a160361317a576040518a602082015281604082015260608381830152815280608081011067ffffffffffffffff6080830111176123615760808101604052805160208201206064808206602c81101561313e57506001925b60ff8416600103612fbc575050600f906024810682018211612fa7578a92612e8e95949260247f57c4a553ea4024e9d030303a99f6e58dad3e8267764f90605b4a2c968e3b237e930601905b604051612f5181612345565b60ff8216815260016020820184815286600052600b60205260ff604060002093511660ff1984541617835551910155612f9f604051928392836020909392919360ff60408201951681520152565b0390a36129c9565b89634e487b7160e01b60005260045260246000fd5b60ff841660020361300c5750506032906033810682018211612fa7578a92612e8e95949260337f57c4a553ea4024e9d030303a99f6e58dad3e8267764f90605b4a2c968e3b237e93060190612f45565b60ff84166003036130595750906033810682018211612fa7578a92612e8e95949260337f57c4a553ea4024e9d030303a99f6e58dad3e8267764f90605b4a2c968e3b237e93060190612f45565b60ff84166004036130a95750506096906033810682018211612fa7578a92612e8e95949260337f57c4a553ea4024e9d030303a99f6e58dad3e8267764f90605b4a2c968e3b237e93060190612f45565b60ff84166005036130f957505060c8906038810682018211612fa7578a92612e8e95949260387f57c4a553ea4024e9d030303a99f6e58dad3e8267764f90605b4a2c968e3b237e93060190612f45565b8062461bcd60e51b60808093015260206084820152601a60a48201527f4865726f3a20496e76616c6964207261726974792076616c756500000000000060c482015201fd5b604f8110156131505750600292612ef9565b605e8110156131625750600392612ef9565b6063111561317257600492612ef9565b600592612ef9565b509650612e8e6000976129c9565b6131a291925060203d60201161097f5761097181836123af565b9038612e7b565b919496509196508492600160ff19600285015416179182600285015561322d575b50505050600052600d60205260406000206001600160a01b03198154169055600052602052600360406000206000815560006001820155600060028201550180546000825580613218575050565b612a9d91600052602060002090810190612a4d565b6132787f0908417bb2d0393a45bf6efe35cecf8dbedbab1767b8d95f650094c6ccd1d0ac93549160ff604051948594855260081c1660208401526060604084015260608301906124b5565b0390a2813880806131ca565b505050565b5050565b9060405191828154918282526020928383019160005283600020936000905b8282106132c257505050612a9d925003836123af565b8554845260019586019588955093810193909101906132ac565b908160209103126108a657516001600160a01b03811681036108a65790565b1561330257565b608460405162461bcd60e51b815260206004820152603760248201527f4865726f3a204e6f7420617574686f72697a6564202d206f6e6c7920416c746160448201527f72206f6620417363656e73696f6e2063616e2063616c6c0000000000000000006064820152fd5b906001600160a01b03600c541691821561341257801561340b576020600f546024604051809681937f7b2e0fcf00000000000000000000000000000000000000000000000000000000835260048301525afa928315612b13576000936133d8575b50612478919261296e565b6020813d8211613403575b816133f0602093836123af565b81010312610a11575192506124786133cd565b3d91506133e3565b5060009150565b608460405162461bcd60e51b815260206004820152602260248201527f4865726f3a2044756e67656f6e436f726520636f6e7472616374206e6f74207360448201527f65740000000000000000000000000000000000000000000000000000000000006064820152fd5b600460206001600160a01b03600c5416604051928380927f267071ad0000000000000000000000000000000000000000000000000000000082525afa908115612b13576000916134ca575090565b612478915060203d811161097f5761097181836123af565b600460206001600160a01b03600c5416604051928380927f3c0928740000000000000000000000000000000000000000000000000000000082525afa908115612b13576000916134ca575090565b600460206001600160a01b03600c5416604051928380927f040db68e0000000000000000000000000000000000000000000000000000000082525afa908115612b13576000916134ca57509056fea264697066735822122030f21227a09f1f697bdee7f2e31d0e99b7028baba0b4fccceeeefc5bc3311d6964736f6c63430008140033",
  "linkReferences": {},
  "deployedLinkReferences": {}
}