{
  "_format": "hh-sol-artifact-1",
  "contractName": "Hero",
  "sourceName": "contracts/current/nft/Hero.sol",
  "abi": [
    {
      "inputs": [
        {
          "internalType": "address",
          "name": "initialOwner",
          "type": "address"
        }
      ],
      "stateMutability": "nonpayable",
      "type": "constructor"
    },
    {
      "inputs": [
        {
          "internalType": "address",
          "name": "sender",
          "type": "address"
        },
        {
          "internalType": "uint256",
          "name": "tokenId",
          "type": "uint256"
        },
        {
          "internalType": "address",
          "name": "owner",
          "type": "address"
        }
      ],
      "name": "ERC721IncorrectOwner",
      "type": "error"
    },
    {
      "inputs": [
        {
          "internalType": "address",
          "name": "operator",
          "type": "address"
        },
        {
          "internalType": "uint256",
          "name": "tokenId",
          "type": "uint256"
        }
      ],
      "name": "ERC721InsufficientApproval",
      "type": "error"
    },
    {
      "inputs": [
        {
          "internalType": "address",
          "name": "approver",
          "type": "address"
        }
      ],
      "name": "ERC721InvalidApprover",
      "type": "error"
    },
    {
      "inputs": [
        {
          "internalType": "address",
          "name": "operator",
          "type": "address"
        }
      ],
      "name": "ERC721InvalidOperator",
      "type": "error"
    },
    {
      "inputs": [
        {
          "internalType": "address",
          "name": "owner",
          "type": "address"
        }
      ],
      "name": "ERC721InvalidOwner",
      "type": "error"
    },
    {
      "inputs": [
        {
          "internalType": "address",
          "name": "receiver",
          "type": "address"
        }
      ],
      "name": "ERC721InvalidReceiver",
      "type": "error"
    },
    {
      "inputs": [
        {
          "internalType": "address",
          "name": "sender",
          "type": "address"
        }
      ],
      "name": "ERC721InvalidSender",
      "type": "error"
    },
    {
      "inputs": [
        {
          "internalType": "uint256",
          "name": "tokenId",
          "type": "uint256"
        }
      ],
      "name": "ERC721NonexistentToken",
      "type": "error"
    },
    {
      "inputs": [],
      "name": "EnforcedPause",
      "type": "error"
    },
    {
      "inputs": [],
      "name": "ExpectedPause",
      "type": "error"
    },
    {
      "inputs": [
        {
          "internalType": "address",
          "name": "owner",
          "type": "address"
        }
      ],
      "name": "OwnableInvalidOwner",
      "type": "error"
    },
    {
      "inputs": [
        {
          "internalType": "address",
          "name": "account",
          "type": "address"
        }
      ],
      "name": "OwnableUnauthorizedAccount",
      "type": "error"
    },
    {
      "inputs": [],
      "name": "ReentrancyGuardReentrantCall",
      "type": "error"
    },
    {
      "inputs": [
        {
          "internalType": "address",
          "name": "token",
          "type": "address"
        }
      ],
      "name": "SafeERC20FailedOperation",
      "type": "error"
    },
    {
      "anonymous": false,
      "inputs": [
        {
          "indexed": true,
          "internalType": "address",
          "name": "owner",
          "type": "address"
        },
        {
          "indexed": true,
          "internalType": "address",
          "name": "approved",
          "type": "address"
        },
        {
          "indexed": true,
          "internalType": "uint256",
          "name": "tokenId",
          "type": "uint256"
        }
      ],
      "name": "Approval",
      "type": "event"
    },
    {
      "anonymous": false,
      "inputs": [
        {
          "indexed": true,
          "internalType": "address",
          "name": "owner",
          "type": "address"
        },
        {
          "indexed": true,
          "internalType": "address",
          "name": "operator",
          "type": "address"
        },
        {
          "indexed": false,
          "internalType": "bool",
          "name": "approved",
          "type": "bool"
        }
      ],
      "name": "ApprovalForAll",
      "type": "event"
    },
    {
      "anonymous": false,
      "inputs": [
        {
          "indexed": true,
          "internalType": "address",
          "name": "newAddress",
          "type": "address"
        }
      ],
      "name": "AscensionAltarSet",
      "type": "event"
    },
    {
      "anonymous": false,
      "inputs": [
        {
          "indexed": false,
          "internalType": "string",
          "name": "newBaseURI",
          "type": "string"
        }
      ],
      "name": "BaseURISet",
      "type": "event"
    },
    {
      "anonymous": false,
      "inputs": [
        {
          "indexed": true,
          "internalType": "address",
          "name": "player",
          "type": "address"
        },
        {
          "indexed": false,
          "internalType": "uint256",
          "name": "quantity",
          "type": "uint256"
        },
        {
          "indexed": false,
          "internalType": "uint8",
          "name": "maxRarity",
          "type": "uint8"
        },
        {
          "indexed": false,
          "internalType": "uint256[]",
          "name": "tokenIds",
          "type": "uint256[]"
        }
      ],
      "name": "BatchMintCompleted",
      "type": "event"
    },
    {
      "anonymous": false,
      "inputs": [
        {
          "indexed": false,
          "internalType": "uint256",
          "name": "tierId",
          "type": "uint256"
        },
        {
          "indexed": false,
          "internalType": "uint256",
          "name": "minQuantity",
          "type": "uint256"
        },
        {
          "indexed": false,
          "internalType": "uint8",
          "name": "maxRarity",
          "type": "uint8"
        },
        {
          "indexed": false,
          "internalType": "string",
          "name": "tierName",
          "type": "string"
        }
      ],
      "name": "BatchTierSet",
      "type": "event"
    },
    {
      "anonymous": false,
      "inputs": [
        {
          "indexed": false,
          "internalType": "string",
          "name": "newContractURI",
          "type": "string"
        }
      ],
      "name": "ContractURIUpdated",
      "type": "event"
    },
    {
      "anonymous": false,
      "inputs": [
        {
          "indexed": true,
          "internalType": "address",
          "name": "core",
          "type": "address"
        },
        {
          "indexed": true,
          "internalType": "address",
          "name": "token",
          "type": "address"
        }
      ],
      "name": "ContractsSet",
      "type": "event"
    },
    {
      "anonymous": false,
      "inputs": [
        {
          "indexed": false,
          "internalType": "uint256",
          "name": "newSeed",
          "type": "uint256"
        }
      ],
      "name": "DynamicSeedUpdated",
      "type": "event"
    },
    {
      "anonymous": false,
      "inputs": [
        {
          "indexed": true,
          "internalType": "address",
          "name": "user",
          "type": "address"
        },
        {
          "indexed": true,
          "internalType": "address",
          "name": "executor",
          "type": "address"
        },
        {
          "indexed": false,
          "internalType": "uint256",
          "name": "quantity",
          "type": "uint256"
        }
      ],
      "name": "ForcedRevealExecuted",
      "type": "event"
    },
    {
      "anonymous": false,
      "inputs": [
        {
          "indexed": true,
          "internalType": "uint256",
          "name": "tokenId",
          "type": "uint256"
        },
        {
          "indexed": true,
          "internalType": "address",
          "name": "owner",
          "type": "address"
        },
        {
          "indexed": false,
          "internalType": "uint8",
          "name": "rarity",
          "type": "uint8"
        },
        {
          "indexed": false,
          "internalType": "uint256",
          "name": "power",
          "type": "uint256"
        }
      ],
      "name": "HeroBurned",
      "type": "event"
    },
    {
      "anonymous": false,
      "inputs": [
        {
          "indexed": true,
          "internalType": "uint256",
          "name": "tokenId",
          "type": "uint256"
        },
        {
          "indexed": true,
          "internalType": "address",
          "name": "owner",
          "type": "address"
        },
        {
          "indexed": false,
          "internalType": "uint8",
          "name": "rarity",
          "type": "uint8"
        },
        {
          "indexed": false,
          "internalType": "uint256",
          "name": "power",
          "type": "uint256"
        }
      ],
      "name": "HeroMinted",
      "type": "event"
    },
    {
      "anonymous": false,
      "inputs": [
        {
          "indexed": true,
          "internalType": "uint256",
          "name": "tokenId",
          "type": "uint256"
        },
        {
          "indexed": true,
          "internalType": "address",
          "name": "owner",
          "type": "address"
        },
        {
          "indexed": false,
          "internalType": "uint8",
          "name": "rarity",
          "type": "uint8"
        },
        {
          "indexed": false,
          "internalType": "uint256",
          "name": "power",
          "type": "uint256"
        }
      ],
      "name": "HeroRevealed",
      "type": "event"
    },
    {
      "anonymous": false,
      "inputs": [
        {
          "indexed": true,
          "internalType": "address",
          "name": "player",
          "type": "address"
        },
        {
          "indexed": false,
          "internalType": "uint256",
          "name": "quantity",
          "type": "uint256"
        },
        {
          "indexed": false,
          "internalType": "uint256",
          "name": "blockNumber",
          "type": "uint256"
        },
        {
          "indexed": false,
          "internalType": "bool",
          "name": "fromVault",
          "type": "bool"
        }
      ],
      "name": "MintCommitted",
      "type": "event"
    },
    {
      "anonymous": false,
      "inputs": [
        {
          "indexed": true,
          "internalType": "address",
          "name": "previousOwner",
          "type": "address"
        },
        {
          "indexed": true,
          "internalType": "address",
          "name": "newOwner",
          "type": "address"
        }
      ],
      "name": "OwnershipTransferred",
      "type": "event"
    },
    {
      "anonymous": false,
      "inputs": [
        {
          "indexed": false,
          "internalType": "address",
          "name": "account",
          "type": "address"
        }
      ],
      "name": "Paused",
      "type": "event"
    },
    {
      "anonymous": false,
      "inputs": [
        {
          "indexed": true,
          "internalType": "address",
          "name": "user",
          "type": "address"
        },
        {
          "indexed": true,
          "internalType": "address",
          "name": "proxy",
          "type": "address"
        }
      ],
      "name": "RevealedByProxy",
      "type": "event"
    },
    {
      "anonymous": false,
      "inputs": [
        {
          "indexed": true,
          "internalType": "address",
          "name": "from",
          "type": "address"
        },
        {
          "indexed": true,
          "internalType": "address",
          "name": "to",
          "type": "address"
        },
        {
          "indexed": true,
          "internalType": "uint256",
          "name": "tokenId",
          "type": "uint256"
        }
      ],
      "name": "Transfer",
      "type": "event"
    },
    {
      "anonymous": false,
      "inputs": [
        {
          "indexed": false,
          "internalType": "address",
          "name": "account",
          "type": "address"
        }
      ],
      "name": "Unpaused",
      "type": "event"
    },
    {
      "anonymous": false,
      "inputs": [
        {
          "indexed": true,
          "internalType": "address",
          "name": "vrfManager",
          "type": "address"
        }
      ],
      "name": "VRFManagerSet",
      "type": "event"
    },
    {
      "inputs": [],
      "name": "MAX_REVEAL_WINDOW",
      "outputs": [
        {
          "internalType": "uint256",
          "name": "",
          "type": "uint256"
        }
      ],
      "stateMutability": "view",
      "type": "function"
    },
    {
      "inputs": [],
      "name": "REVEAL_BLOCK_DELAY",
      "outputs": [
        {
          "internalType": "uint256",
          "name": "",
          "type": "uint256"
        }
      ],
      "stateMutability": "view",
      "type": "function"
    },
    {
      "inputs": [
        {
          "internalType": "address",
          "name": "to",
          "type": "address"
        },
        {
          "internalType": "uint256",
          "name": "tokenId",
          "type": "uint256"
        }
      ],
      "name": "approve",
      "outputs": [],
      "stateMutability": "nonpayable",
      "type": "function"
    },
    {
      "inputs": [],
      "name": "ascensionAltarAddress",
      "outputs": [
        {
          "internalType": "address",
          "name": "",
          "type": "address"
        }
      ],
      "stateMutability": "view",
      "type": "function"
    },
    {
      "inputs": [
        {
          "internalType": "address",
          "name": "owner",
          "type": "address"
        }
      ],
      "name": "balanceOf",
      "outputs": [
        {
          "internalType": "uint256",
          "name": "",
          "type": "uint256"
        }
      ],
      "stateMutability": "view",
      "type": "function"
    },
    {
      "inputs": [],
      "name": "baseURI",
      "outputs": [
        {
          "internalType": "string",
          "name": "",
          "type": "string"
        }
      ],
      "stateMutability": "view",
      "type": "function"
    },
    {
      "inputs": [
        {
          "internalType": "uint256",
          "name": "",
          "type": "uint256"
        }
      ],
      "name": "batchTiers",
      "outputs": [
        {
          "internalType": "uint256",
          "name": "minQuantity",
          "type": "uint256"
        },
        {
          "internalType": "uint8",
          "name": "maxRarity",
          "type": "uint8"
        },
        {
          "internalType": "string",
          "name": "tierName",
          "type": "string"
        }
      ],
      "stateMutability": "view",
      "type": "function"
    },
    {
      "inputs": [
        {
          "internalType": "uint256",
          "name": "_tokenId",
          "type": "uint256"
        }
      ],
      "name": "burnFromAltar",
      "outputs": [],
      "stateMutability": "nonpayable",
      "type": "function"
    },
    {
      "inputs": [
        {
          "internalType": "address",
          "name": "_user",
          "type": "address"
        }
      ],
      "name": "canForceReveal",
      "outputs": [
        {
          "internalType": "bool",
          "name": "",
          "type": "bool"
        }
      ],
      "stateMutability": "view",
      "type": "function"
    },
    {
      "inputs": [
        {
          "internalType": "address",
          "name": "_user",
          "type": "address"
        }
      ],
      "name": "canReveal",
      "outputs": [
        {
          "internalType": "bool",
          "name": "",
          "type": "bool"
        }
      ],
      "stateMutability": "view",
      "type": "function"
    },
    {
      "inputs": [],
      "name": "contractURI",
      "outputs": [
        {
          "internalType": "string",
          "name": "",
          "type": "string"
        }
      ],
      "stateMutability": "view",
      "type": "function"
    },
    {
      "inputs": [],
      "name": "dungeonCore",
      "outputs": [
        {
          "internalType": "contract IDungeonCore",
          "name": "",
          "type": "address"
        }
      ],
      "stateMutability": "view",
      "type": "function"
    },
    {
      "inputs": [],
      "name": "dynamicSeed",
      "outputs": [
        {
          "internalType": "uint256",
          "name": "",
          "type": "uint256"
        }
      ],
      "stateMutability": "view",
      "type": "function"
    },
    {
      "inputs": [
        {
          "internalType": "address",
          "name": "user",
          "type": "address"
        }
      ],
      "name": "forceRevealExpired",
      "outputs": [],
      "stateMutability": "nonpayable",
      "type": "function"
    },
    {
      "inputs": [],
      "name": "getAllBatchTiers",
      "outputs": [
        {
          "components": [
            {
              "internalType": "uint256",
              "name": "minQuantity",
              "type": "uint256"
            },
            {
              "internalType": "uint8",
              "name": "maxRarity",
              "type": "uint8"
            },
            {
              "internalType": "string",
              "name": "tierName",
              "type": "string"
            }
          ],
          "internalType": "struct Hero.BatchTier[]",
          "name": "",
          "type": "tuple[]"
        }
      ],
      "stateMutability": "view",
      "type": "function"
    },
    {
      "inputs": [
        {
          "internalType": "uint256",
          "name": "tokenId",
          "type": "uint256"
        }
      ],
      "name": "getApproved",
      "outputs": [
        {
          "internalType": "address",
          "name": "",
          "type": "address"
        }
      ],
      "stateMutability": "view",
      "type": "function"
    },
    {
      "inputs": [
        {
          "internalType": "uint256",
          "name": "_quantity",
          "type": "uint256"
        }
      ],
      "name": "getBatchTierInfo",
      "outputs": [
        {
          "internalType": "uint8",
          "name": "maxRarity",
          "type": "uint8"
        },
        {
          "internalType": "string",
          "name": "tierName",
          "type": "string"
        },
        {
          "internalType": "uint256",
          "name": "exactTierQuantity",
          "type": "uint256"
        },
        {
          "internalType": "uint256",
          "name": "totalCost",
          "type": "uint256"
        }
      ],
      "stateMutability": "view",
      "type": "function"
    },
    {
      "inputs": [
        {
          "internalType": "uint256",
          "name": "tokenId",
          "type": "uint256"
        }
      ],
      "name": "getHeroProperties",
      "outputs": [
        {
          "internalType": "uint8",
          "name": "rarity",
          "type": "uint8"
        },
        {
          "internalType": "uint256",
          "name": "power",
          "type": "uint256"
        }
      ],
      "stateMutability": "view",
      "type": "function"
    },
    {
      "inputs": [
        {
          "internalType": "uint256",
          "name": "_quantity",
          "type": "uint256"
        }
      ],
      "name": "getMaxRarityForQuantity",
      "outputs": [
        {
          "internalType": "uint8",
          "name": "maxRarity",
          "type": "uint8"
        },
        {
          "internalType": "string",
          "name": "tierName",
          "type": "string"
        }
      ],
      "stateMutability": "view",
      "type": "function"
    },
    {
      "inputs": [
        {
          "internalType": "uint256",
          "name": "_quantity",
          "type": "uint256"
        }
      ],
      "name": "getRequiredSoulShardAmount",
      "outputs": [
        {
          "internalType": "uint256",
          "name": "",
          "type": "uint256"
        }
      ],
      "stateMutability": "view",
      "type": "function"
    },
    {
      "inputs": [
        {
          "internalType": "address",
          "name": "_user",
          "type": "address"
        }
      ],
      "name": "getRevealBlocksRemaining",
      "outputs": [
        {
          "internalType": "uint256",
          "name": "",
          "type": "uint256"
        }
      ],
      "stateMutability": "view",
      "type": "function"
    },
    {
      "inputs": [
        {
          "internalType": "address",
          "name": "_user",
          "type": "address"
        }
      ],
      "name": "getUserCommitment",
      "outputs": [
        {
          "components": [
            {
              "internalType": "uint256",
              "name": "blockNumber",
              "type": "uint256"
            },
            {
              "internalType": "uint256",
              "name": "quantity",
              "type": "uint256"
            },
            {
              "internalType": "uint256",
              "name": "payment",
              "type": "uint256"
            },
            {
              "internalType": "bytes32",
              "name": "commitment",
              "type": "bytes32"
            },
            {
              "internalType": "bool",
              "name": "fulfilled",
              "type": "bool"
            },
            {
              "internalType": "uint8",
              "name": "maxRarity",
              "type": "uint8"
            },
            {
              "internalType": "bool",
              "name": "fromVault",
              "type": "bool"
            }
          ],
          "internalType": "struct Hero.MintCommitment",
          "name": "",
          "type": "tuple"
        }
      ],
      "stateMutability": "view",
      "type": "function"
    },
    {
      "inputs": [
        {
          "internalType": "address",
          "name": "_user",
          "type": "address"
        }
      ],
      "name": "getUserPendingTokens",
      "outputs": [
        {
          "internalType": "uint256[]",
          "name": "",
          "type": "uint256[]"
        }
      ],
      "stateMutability": "view",
      "type": "function"
    },
    {
      "inputs": [
        {
          "internalType": "uint256",
          "name": "",
          "type": "uint256"
        }
      ],
      "name": "heroData",
      "outputs": [
        {
          "internalType": "uint8",
          "name": "rarity",
          "type": "uint8"
        },
        {
          "internalType": "uint256",
          "name": "power",
          "type": "uint256"
        },
        {
          "internalType": "bool",
          "name": "isRevealed",
          "type": "bool"
        }
      ],
      "stateMutability": "view",
      "type": "function"
    },
    {
      "inputs": [
        {
          "internalType": "address",
          "name": "owner",
          "type": "address"
        },
        {
          "internalType": "address",
          "name": "operator",
          "type": "address"
        }
      ],
      "name": "isApprovedForAll",
      "outputs": [
        {
          "internalType": "bool",
          "name": "",
          "type": "bool"
        }
      ],
      "stateMutability": "view",
      "type": "function"
    },
    {
      "inputs": [
        {
          "internalType": "address",
          "name": "_to",
          "type": "address"
        },
        {
          "internalType": "uint8",
          "name": "_rarity",
          "type": "uint8"
        },
        {
          "internalType": "uint256",
          "name": "_power",
          "type": "uint256"
        }
      ],
      "name": "mintFromAltar",
      "outputs": [
        {
          "internalType": "uint256",
          "name": "",
          "type": "uint256"
        }
      ],
      "stateMutability": "nonpayable",
      "type": "function"
    },
    {
      "inputs": [
        {
          "internalType": "uint256",
          "name": "_quantity",
          "type": "uint256"
        }
      ],
      "name": "mintFromVault",
      "outputs": [],
      "stateMutability": "payable",
      "type": "function"
    },
    {
      "inputs": [
        {
          "internalType": "uint256",
          "name": "_quantity",
          "type": "uint256"
        }
      ],
      "name": "mintFromWallet",
      "outputs": [],
      "stateMutability": "payable",
      "type": "function"
    },
    {
      "inputs": [],
      "name": "mintPriceUSD",
      "outputs": [
        {
          "internalType": "uint256",
          "name": "",
          "type": "uint256"
        }
      ],
      "stateMutability": "view",
      "type": "function"
    },
    {
      "inputs": [],
      "name": "name",
      "outputs": [
        {
          "internalType": "string",
          "name": "",
          "type": "string"
        }
      ],
      "stateMutability": "view",
      "type": "function"
    },
    {
      "inputs": [],
      "name": "owner",
      "outputs": [
        {
          "internalType": "address",
          "name": "",
          "type": "address"
        }
      ],
      "stateMutability": "view",
      "type": "function"
    },
    {
      "inputs": [
        {
          "internalType": "uint256",
          "name": "tokenId",
          "type": "uint256"
        }
      ],
      "name": "ownerOf",
      "outputs": [
        {
          "internalType": "address",
          "name": "",
          "type": "address"
        }
      ],
      "stateMutability": "view",
      "type": "function"
    },
    {
      "inputs": [],
      "name": "pause",
      "outputs": [],
      "stateMutability": "nonpayable",
      "type": "function"
    },
    {
      "inputs": [],
      "name": "paused",
      "outputs": [
        {
          "internalType": "bool",
          "name": "",
          "type": "bool"
        }
      ],
      "stateMutability": "view",
      "type": "function"
    },
    {
      "inputs": [],
      "name": "platformFee",
      "outputs": [
        {
          "internalType": "uint256",
          "name": "",
          "type": "uint256"
        }
      ],
      "stateMutability": "view",
      "type": "function"
    },
    {
      "inputs": [],
      "name": "renounceOwnership",
      "outputs": [],
      "stateMutability": "nonpayable",
      "type": "function"
    },
    {
      "inputs": [],
      "name": "revealMint",
      "outputs": [],
      "stateMutability": "nonpayable",
      "type": "function"
    },
    {
      "inputs": [
        {
          "internalType": "address",
          "name": "user",
          "type": "address"
        }
      ],
      "name": "revealMintFor",
      "outputs": [],
      "stateMutability": "nonpayable",
      "type": "function"
    },
    {
      "inputs": [
        {
          "internalType": "address",
          "name": "from",
          "type": "address"
        },
        {
          "internalType": "address",
          "name": "to",
          "type": "address"
        },
        {
          "internalType": "uint256",
          "name": "tokenId",
          "type": "uint256"
        }
      ],
      "name": "safeTransferFrom",
      "outputs": [],
      "stateMutability": "nonpayable",
      "type": "function"
    },
    {
      "inputs": [
        {
          "internalType": "address",
          "name": "from",
          "type": "address"
        },
        {
          "internalType": "address",
          "name": "to",
          "type": "address"
        },
        {
          "internalType": "uint256",
          "name": "tokenId",
          "type": "uint256"
        },
        {
          "internalType": "bytes",
          "name": "data",
          "type": "bytes"
        }
      ],
      "name": "safeTransferFrom",
      "outputs": [],
      "stateMutability": "nonpayable",
      "type": "function"
    },
    {
      "inputs": [
        {
          "internalType": "address",
          "name": "operator",
          "type": "address"
        },
        {
          "internalType": "bool",
          "name": "approved",
          "type": "bool"
        }
      ],
      "name": "setApprovalForAll",
      "outputs": [],
      "stateMutability": "nonpayable",
      "type": "function"
    },
    {
      "inputs": [
        {
          "internalType": "address",
          "name": "_address",
          "type": "address"
        }
      ],
      "name": "setAscensionAltarAddress",
      "outputs": [],
      "stateMutability": "nonpayable",
      "type": "function"
    },
    {
      "inputs": [
        {
          "internalType": "string",
          "name": "_newBaseURI",
          "type": "string"
        }
      ],
      "name": "setBaseURI",
      "outputs": [],
      "stateMutability": "nonpayable",
      "type": "function"
    },
    {
      "inputs": [
        {
          "internalType": "uint256",
          "name": "_tierId",
          "type": "uint256"
        },
        {
          "internalType": "uint256",
          "name": "_minQuantity",
          "type": "uint256"
        },
        {
          "internalType": "uint8",
          "name": "_maxRarity",
          "type": "uint8"
        },
        {
          "internalType": "string",
          "name": "_tierName",
          "type": "string"
        }
      ],
      "name": "setBatchTier",
      "outputs": [],
      "stateMutability": "nonpayable",
      "type": "function"
    },
    {
      "inputs": [
        {
          "internalType": "string",
          "name": "newContractURI",
          "type": "string"
        }
      ],
      "name": "setContractURI",
      "outputs": [],
      "stateMutability": "nonpayable",
      "type": "function"
    },
    {
      "inputs": [
        {
          "internalType": "address",
          "name": "_address",
          "type": "address"
        }
      ],
      "name": "setDungeonCore",
      "outputs": [],
      "stateMutability": "nonpayable",
      "type": "function"
    },
    {
      "inputs": [
        {
          "internalType": "uint256",
          "name": "_newPrice",
          "type": "uint256"
        }
      ],
      "name": "setMintPriceUSD",
      "outputs": [],
      "stateMutability": "nonpayable",
      "type": "function"
    },
    {
      "inputs": [
        {
          "internalType": "uint256",
          "name": "_newFee",
          "type": "uint256"
        }
      ],
      "name": "setPlatformFee",
      "outputs": [],
      "stateMutability": "nonpayable",
      "type": "function"
    },
    {
      "inputs": [
        {
          "internalType": "address",
          "name": "_address",
          "type": "address"
        }
      ],
      "name": "setSoulShardToken",
      "outputs": [],
      "stateMutability": "nonpayable",
      "type": "function"
    },
    {
      "inputs": [
        {
          "internalType": "string",
          "name": "_newURI",
          "type": "string"
        }
      ],
      "name": "setUnrevealedURI",
      "outputs": [],
      "stateMutability": "nonpayable",
      "type": "function"
    },
    {
      "inputs": [
        {
          "internalType": "address",
          "name": "_vrfManager",
          "type": "address"
        }
      ],
      "name": "setVRFManager",
      "outputs": [],
      "stateMutability": "nonpayable",
      "type": "function"
    },
    {
      "inputs": [],
      "name": "soulShardToken",
      "outputs": [
        {
          "internalType": "contract IERC20",
          "name": "",
          "type": "address"
        }
      ],
      "stateMutability": "view",
      "type": "function"
    },
    {
      "inputs": [
        {
          "internalType": "bytes4",
          "name": "interfaceId",
          "type": "bytes4"
        }
      ],
      "name": "supportsInterface",
      "outputs": [
        {
          "internalType": "bool",
          "name": "",
          "type": "bool"
        }
      ],
      "stateMutability": "view",
      "type": "function"
    },
    {
      "inputs": [],
      "name": "symbol",
      "outputs": [
        {
          "internalType": "string",
          "name": "",
          "type": "string"
        }
      ],
      "stateMutability": "view",
      "type": "function"
    },
    {
      "inputs": [],
      "name": "tierCount",
      "outputs": [
        {
          "internalType": "uint256",
          "name": "",
          "type": "uint256"
        }
      ],
      "stateMutability": "view",
      "type": "function"
    },
    {
      "inputs": [
        {
          "internalType": "uint256",
          "name": "tokenId",
          "type": "uint256"
        }
      ],
      "name": "tokenURI",
      "outputs": [
        {
          "internalType": "string",
          "name": "",
          "type": "string"
        }
      ],
      "stateMutability": "view",
      "type": "function"
    },
    {
      "inputs": [
        {
          "internalType": "address",
          "name": "from",
          "type": "address"
        },
        {
          "internalType": "address",
          "name": "to",
          "type": "address"
        },
        {
          "internalType": "uint256",
          "name": "tokenId",
          "type": "uint256"
        }
      ],
      "name": "transferFrom",
      "outputs": [],
      "stateMutability": "nonpayable",
      "type": "function"
    },
    {
      "inputs": [
        {
          "internalType": "address",
          "name": "newOwner",
          "type": "address"
        }
      ],
      "name": "transferOwnership",
      "outputs": [],
      "stateMutability": "nonpayable",
      "type": "function"
    },
    {
      "inputs": [],
      "name": "unpause",
      "outputs": [],
      "stateMutability": "nonpayable",
      "type": "function"
    },
    {
      "inputs": [],
      "name": "unrevealedURI",
      "outputs": [
        {
          "internalType": "string",
          "name": "",
          "type": "string"
        }
      ],
      "stateMutability": "view",
      "type": "function"
    },
    {
      "inputs": [
        {
          "internalType": "address",
          "name": "",
          "type": "address"
        }
      ],
      "name": "userCommitments",
      "outputs": [
        {
          "internalType": "uint256",
          "name": "blockNumber",
          "type": "uint256"
        },
        {
          "internalType": "uint256",
          "name": "quantity",
          "type": "uint256"
        },
        {
          "internalType": "uint256",
          "name": "payment",
          "type": "uint256"
        },
        {
          "internalType": "bytes32",
          "name": "commitment",
          "type": "bytes32"
        },
        {
          "internalType": "bool",
          "name": "fulfilled",
          "type": "bool"
        },
        {
          "internalType": "uint8",
          "name": "maxRarity",
          "type": "uint8"
        },
        {
          "internalType": "bool",
          "name": "fromVault",
          "type": "bool"
        }
      ],
      "stateMutability": "view",
      "type": "function"
    },
    {
      "inputs": [
        {
          "internalType": "address",
          "name": "",
          "type": "address"
        },
        {
          "internalType": "uint256",
          "name": "",
          "type": "uint256"
        }
      ],
      "name": "userPendingTokens",
      "outputs": [
        {
          "internalType": "uint256",
          "name": "",
          "type": "uint256"
        }
      ],
      "stateMutability": "view",
      "type": "function"
    },
    {
      "inputs": [],
      "name": "vrfManager",
      "outputs": [
        {
          "internalType": "address",
          "name": "",
          "type": "address"
        }
      ],
      "stateMutability": "view",
      "type": "function"
    },
    {
      "inputs": [],
      "name": "withdrawNativeFunding",
      "outputs": [],
      "stateMutability": "nonpayable",
      "type": "function"
    },
    {
      "inputs": [],
      "name": "withdrawSoulShard",
      "outputs": [],
      "stateMutability": "nonpayable",
      "type": "function"
    },
    {
      "stateMutability": "payable",
      "type": "receive"
    }
  ],
  "bytecode": "0x6080346200108057601f6200640638819003918201601f19168301916001600160401b0383118484101762000c73578084926020946040528339810103126200108057516001600160a01b0380821691829003620010805762000061620010e5565b91601883527f44756e67656f6e2044656c76657273204865726f205652460000000000000000602084015262000096620010e5565b60068152652222242b292360d11b602082015283519092906001600160401b03811162000c7357620000ca60005462001105565b601f81116200103f575b50602094601f821160011462000fc75794819293949560009262000fbb575b50508160011b916000199060031b1c1916176000555b82516001600160401b03811162000c73576200012760015462001105565b601f811162000f6d575b506020601f821160011462000ef4578192939460009262000ee8575b50508160011b916000199060031b1c1916176001555b811562000ecf57600680546001600160a01b031981168417909155167f8be0079c531659141344cd1fd0a4f28419497f9722a3daafe3b4186f6b6457e0600080a36001600755671bc16d674ec80000601255660110d9316ec000601355620001cd60165462001105565b601f811162000e80575b50609160169081556000527f68747470733a2f2f64756e67656f6e2d64656c766572732d6d65746164617461600080516020620063e6833981519152557f2d7365727665722e6f6e72656e6465722e636f6d2f6170692f6865726f2f756e7fd833147d7dc355ba459fc788f669e58cfaf9dc25ddcd0702e87d69c7b512428a55671c995d99585b195960c21b7fd833147d7dc355ba459fc788f669e58cfaf9dc25ddcd0702e87d69c7b512428b5560016011556200029462001085565b600181526020810160058152620002aa620010e5565b90600b82526a14da5b99db1948135a5b9d60aa1b60208301526040830191825260008052601460205260406000209251835560ff6001840191511660ff19825416179055519081519060018060401b03821162000c7357600201906200031d8162000316845462001105565b846200115b565b6020601f821160011462000e165781929360009262000e0a575b50508160011b916000199060031b1c19161790555b6200035662001085565b6005815260208101600581526200036c620010e5565b90600b82526a42726f6e7a65205061636b60a81b6020830152604083019182526001600052601460205260406000209251835560ff6001840191511660ff198254161790555180519060018060401b03821162000c7357620003e182620003d7600286015462001105565b600286016200115b565b602090601f831160011462000d9757600292916000918362000d8b575b50508160011b916000199060031b1c1916179101555b6200041e62001085565b600a8152602081016005815262000434620010e5565b90600b82526a53696c766572205061636b60a81b6020830152604083019182526002600052601460205260406000209251835560ff6001840191511660ff198254161790555180519060018060401b03821162000c73576200049f82620003d7600286015462001105565b602090601f831160011462000d1657600292916000918362000d0a575b50508160011b916000199060031b1c1916179101555b620004dc62001085565b601481526020810160058152620004f2620010e5565b906009825268476f6c64205061636b60b81b6020830152604083019182526003600052601460205260406000209251835560ff6001840191511660ff198254161790555180519060018060401b03821162000c73576200055b82620003d7600286015462001105565b602090601f831160011462000c9557600292916000918362000c89575b50508160011b916000199060031b1c1916179101555b6200059862001085565b603281526020810160058152620005ae620010e5565b90600d82526c506c6174696e756d205061636b60981b6020830152604083019182526004600052601460205260406000209251835560ff6001840191511660ff198254161790555180519060018060401b03821162000c73576200061b82620003d7600286015462001105565b602090601f831160011462000bfe57600292916000918362000bf2575b50508160011b916000199060031b1c1916179101555b6005601555620006f462000661620010a5565b60018152600160208201526001604082015260ff60608201600181526001600052601a602052620006da8260408060002095828151168319885416178755620006c183602083015116889061ff0082549160081b169061ff001916179055565b0151855462ff00001916911660101b62ff000016178455565b51825463ff0000001916911660181b63ff00000016179055565b6200077762000702620010a5565b6001815260ff6020820160028152620006da8260408501600381526200075f826060880195600487526005600052601a60205281604060002099511682198a54161789555116879061ff0082549160081b169061ff001916179055565b51855462ff00001916911660101b62ff000016178455565b620007e262000785620010a5565b6001815260ff6020820160038152620006da8260408501600481526200075f82606088019560078752600a600052601a60205281604060002099511682198a54161789555116879061ff0082549160081b169061ff001916179055565b6200084d620007f0620010a5565b6002815260ff6020820160048152620006da8260408501600781526200075f826060880195600c87526014600052601a60205281604060002099511682198a54161789555116879061ff0082549160081b169061ff001916179055565b620008b86200085b620010a5565b6002815260ff6020820160068152620006da8260408501600d81526200075f826060880195601987526032600052601a60205281604060002099511682198a54161789555116879061ff0082549160081b169061ff001916179055565b620008c2620010c5565b60018152600060208201526000604082015260006060820152600060808201526001600052601b602052608060406000209160ff81511660ff198454161783556200092560ff602083015116849061ff0082549160081b169061ff001916179055565b6040810151835462ff0000191660109190911b62ff0000161783556060810151835463ff000000191660189190911b63ff00000016178355015164ff0000000082549160201b169064ff00000000191617905562000982620010c5565b60038152602081016002815262000a1e60ff604084016000815262000a0482606087019260008452620009ec8260808a019860008a526005600052601b6020528160406000209b511682198c5416178b555116899061ff0082549160081b169061ff001916179055565b51875462ff00001916911660101b62ff000016178655565b51845463ff0000001916911660181b63ff00000016178355565b5164ff0000000082549160201b169064ff00000000191617905562000a42620010c5565b60068152602081016003815262000aac60ff604084016001815262000a0482606087019260008452620009ec8260808a019860008a52600a600052601b6020528160406000209b511682198c5416178b555116899061ff0082549160081b169061ff001916179055565b5164ff0000000082549160201b169064ff00000000191617905562000ad0620010c5565b600b8152602081016006815262000b3a60ff604084016003815262000a0482606087019260008452620009ec8260808a019860008a526014600052601b6020528160406000209b511682198c5416178b555116899061ff0082549160081b169061ff001916179055565b5164ff0000000082549160201b169064ff00000000191617905562000b5e620010c5565b60198152602081016010815262000bc860ff604084016008815262000a0482606087019260018452620009ec8260808a019860008a526032600052601b6020528160406000209b511682198c5416178b555116899061ff0082549160081b169061ff001916179055565b5164ff0000000082549160201b169064ff00000000191617905560405161520a90816200119c8239f35b01519050388062000638565b906002840160005260206000209160005b601f198516811062000c5a5750918391600193600295601f1981161062000c40575b505050811b019101556200064e565b015160001960f88460031b161c1916905538808062000c31565b9192602060018192868501518155019401920162000c0f565b634e487b7160e01b600052604160045260246000fd5b01519050388062000578565b906002840160005260206000209160005b601f198516811062000cf15750918391600193600295601f1981161062000cd7575b505050811b019101556200058e565b015160001960f88460031b161c1916905538808062000cc8565b9192602060018192868501518155019401920162000ca6565b015190503880620004bc565b906002840160005260206000209160005b601f198516811062000d725750918391600193600295601f1981161062000d58575b505050811b01910155620004d2565b015160001960f88460031b161c1916905538808062000d49565b9192602060018192868501518155019401920162000d27565b015190503880620003fe565b90600284016000526020600020916000601f198516905b81811062000df15750916001939185600296941062000dd7575b505050811b0191015562000414565b015160001960f88460031b161c1916905538808062000dc8565b9293602060018192878601518155019501930162000dae565b01519050388062000337565b82600052602060002090600094601f198416955b86811062000e67575083600195961062000e4d575b505050811b0190556200034c565b015160001960f88460031b161c1916905538808062000e3f565b9192602060018192868501518155019401920162000e2a565b601660005262000ec890601f0160051c600080516020620063e6833981519152017fd833147d7dc355ba459fc788f669e58cfaf9dc25ddcd0702e87d69c7b512428c62001142565b38620001d7565b604051631e4fbdf760e01b815260006004820152602490fd5b0151905038806200014d565b60016000908152600080516020620063c68339815191529190601f198416905b81811062000f545750958360019596971062000f3a575b505050811b0160015562000163565b015160001960f88460031b161c1916905538808062000f2b565b9192602060018192868b01518155019401920162000f14565b600160005262000fa990600080516020620063c6833981519152601f840160051c8101916020851062000fb0575b601f0160051c019062001142565b3862000131565b909150819062000f9b565b015190503880620000f3565b6000808052601f19831696600080516020620063a68339815191529290915b88811062001026575083600195969798106200100c575b505050811b0160005562000109565b015160001960f88460031b161c1916905538808062000ffd565b9192602060018192868501518155019401920162000fe6565b600080526200107990600080516020620063a6833981519152601f840160051c8101916020851062000fb057601f0160051c019062001142565b38620000d4565b600080fd5b60405190606082016001600160401b0381118382101762000c7357604052565b60405190608082016001600160401b0381118382101762000c7357604052565b6040519060a082016001600160401b0381118382101762000c7357604052565b60408051919082016001600160401b0381118382101762000c7357604052565b90600182811c9216801562001137575b60208310146200112157565b634e487b7160e01b600052602260045260246000fd5b91607f169162001115565b8181106200114e575050565b6000815560010162001142565b9190601f81116200116b57505050565b62001199926000526020600020906020601f840160051c8301931062000fb057601f0160051c019062001142565b56fe6080604052600436101561001b575b361561001957600080fd5b005b6000803560e01c80622144f61461326057806268f22e146131f857806301ffc9a71461318957806306fdde03146130e5578063081812fc146130a8578063095ea7b314612fc557806312e8e2c314612fa2578063166829e314612f7e5780631cbb413114612f415780631dafec0014612e6d57806323b872dd14612e5557806326232a2e14612e375780632ca5f30a14612e055780633a92c0ac14612de75780633f4ba83a14612d7c578063415d6a0114612c8657806342842e0e14612c585780634350772c14612c2f5780634403940214612c0657806355f804b314612a745780635b6ef032146129f15780635c975abb146129ce5780636352211e1461299d57806367cfab58146129745780636844126f146128dc5780636a6cdc6c146128285780636ab1b29b146127b95780636aef50691461260a5780636c0360eb146125765780637035bf181461255a57806370a0823114612502578063715018a6146124a557806373b311901461245b5780637a33eabc146123f35780638456cb591461239857806386da2bd7146123425780638973bc7e146123265780638b3fd44f146120825780638da5cb5b146120595780638f2fec0814611fd2578063936315d614611fa4578063938e3d7b14611de757806395d89b4114611d1857806396b55f7d14611cfa5780639b41886c14611cdc5780639bd1613514611b8b578063a20fd5c414611a8f578063a22cb465146119e3578063b1d78c9a146119bc578063b88d4fde1461194d578063c1b39a3e14611924578063c47d4357146118a9578063c87b56dd14611889578063c886015d1461153a578063cc64cb7c14610bfd578063d0fdcc09146107dc578063d96fe72d146107c0578063db4b826814610752578063de4b53bd146106fb578063e0d5e1b414610681578063e8a3d4851461059f578063e985e9c51461054b578063eb578bca14610508578063f2fde38b146104785763fe2c7fee146102f0575061000e565b346104755760209081600319360112610475576001600160401b036004358181116104715761032390369060040161352f565b9261032c61374b565b835191821161045d5761034060165461354d565b601f8111610405575b5080601f831160011461038457508293829392610379575b50508160011b916000199060031b1c19161760165580f35b015190503880610361565b60168452601f198316947fd833147d7dc355ba459fc788f669e58cfaf9dc25ddcd0702e87d69c7b5124289929185905b8782106103ed5750508360019596106103d4575b505050811b0160165580f35b015160001960f88460031b161c191690553880806103c8565b806001859682949686015181550195019301906103b4565b61044d90601685527fd833147d7dc355ba459fc788f669e58cfaf9dc25ddcd0702e87d69c7b5124289601f850160051c810191848610610453575b601f0160051c0190614579565b38610349565b9091508190610440565b634e487b7160e01b83526041600452602483fd5b8280fd5b80fd5b50346104755760203660031901126104755761049261335b565b61049a61374b565b6001600160a01b039081169081156104ef57600654826bffffffffffffffffffffffff60a01b821617600655167f8be0079c531659141344cd1fd0a4f28419497f9722a3daafe3b4186f6b6457e0600080a380f35b604051631e4fbdf760e01b815260048101849052602490fd5b50346104755760203660031901126104755760ff61054761052a600435613aab565b6040929192519384931683526040602084015260408301906133aa565b0390f35b50346104755760403660031901126104755761056561335b565b604061056f613371565b9260018060a01b0380931681526005602052209116600052602052602060ff604060002054166040519015158152f35b50346104755780600319360112610475576040516000600a546105c18161354d565b8084529060019081811690811561065a57506001146105ff575b610547846105eb818603826134bc565b6040519182916020835260208301906133aa565b600a600090815292507fc65a7bb8d6351c1cf70c95a316cc6a92839c986682d98bc35f958f4883f9d2a85b8284106106425750505081016020016105eb826105db565b8054602085870181019190915290930192810161062a565b60ff191660208087019190915292151560051b850190920192506105eb91508390506105db565b50346104755760203660031901126104755761069b61335b565b6106a3613cbd565b6106ab613c9f565b6106b481613e0a565b6001600160a01b0316338190036106cf575b50600160075580f35b33907f03b940e5594caf9c29015b39d851054d069d150d662629de6bbdc3086fc163cd8380a3386106c6565b50346104755760203660031901126104755760409060043581526014602052208054610547610734600260ff6001860154169401613645565b604051938493845260208401526060604084015260608301906133aa565b50346104755760203660031901126104755761076c61335b565b61077461374b565b600d80546001600160a01b0319166001600160a01b03928316908117909155600c549091167f14662a0fccd762a05d5e1fa6afdd204554c4cf90fe58b5c5947f664fb71925f58380a380f35b5034610475578060031936011261047557602060405160038152f35b50602080600319360112610bf957600435906107f6613cbd565b6107fe613c9f565b81151580610bee575b61081090613b3a565b3383526017815261082f60408420805415908115610bdf575b50613b7f565b61083882613aab565b5061084283614eb1565b908461085085601354613bcb565b600f546001600160a01b039491908690861680610b64575b505061087690341015613beb565b60048585600c5416604051928380926329bdca3760e01b82525afa8015610b595785918491610b1f575b501690813b156104715760405163d064ff1960e01b8152336004820152602481019190915291908290604490829084905af18015610aab57610af0575b506040513360601b6bffffffffffffffffffffffff1916848201908152436014820152603481018690529061091f81605484015b03601f1981018352826134bc565b51902091600f541680610a0f575b506040519061093b82613435565b4382526109ac60048584019387855260408101953487526060820190815260808201968a885260ff60a084019616865260c083019660018852338c5260178a5260408c20935184555160018401555160028301555160038201550193511515849060ff801983541691151516179055565b519061ff0062ff000084549251151560101b169260081b169062ffff001916171790556040519182524390820152600160408201527fe76693a509b276a8f091f368f5ee1fcd90a958858d61248bdb8588205bcd734560603392a2600160075580f35b6040516321ffa5f960e21b81528481600481855afa8015610ae55785918891610ab6575b5060405163435639fb60e11b81523360048201526024810188905260ff85166044820152606481018690529283916084918391905af1908115610aab578491610a7d575b5061092d565b813d8311610aa4575b610a9081836134bc565b81010312610a9f578238610a77565b600080fd5b503d610a86565b6040513d88823e3d90fd5b82819392503d8311610ade575b610acd81836134bc565b81010312610a9f5784905138610a33565b503d610ac3565b6040513d89823e3d90fd5b6001600160401b038196929611610b0b5760405293386108dd565b634e487b7160e01b82526041600452602482fd5b809250878092503d8311610b52575b610b3881836134bc565b8101031261047157518481168103610471578490386108a0565b503d610b2e565b6040513d85823e3d90fd5b6040516321ffa5f960e21b81529190829060049082905afa908115610bd4578491610ba1575b50610b989061087692613bde565b90508538610868565b90508681813d8311610bcd575b610bb881836134bc565b81010312610bc95751610876610b8a565b8380fd5b503d610bae565b6040513d86823e3d90fd5b60ff9150600401541638610829565b506032821115610807565b5080fd5b503461047557602036600319011261047557610c1761335b565b610c1f613cbd565b610c27613c9f565b6001600160a01b03811682526017602052604082208054610c49811515613ce0565b610c5a60ff60048401541615613d24565b60038101908181116112af576101020180911161129b574311156114fd576001600160a01b03821680845260176020908152604080862060048082018054600160ff1991821681179092556019808752858b20838c528752858b20805483169055878b52808752858b2060028c528752858b20805483169055878b52808752858b2060038c528752858b20805483169055878b52808752858b20938b52928652848a20805482169055958952908452828820600589529093529086208054909316909255810154601c805490869055909390806114b9575b50838552601b602052604085209360405194610d4d86613450565b549460ff8616815260ff8660081c16602082015260ff8660101c16604082015260ff8660181c16606082015260ff8660201c1660808201529460ff81161590816114aa575b50611387575b50845b60ff60808601511660ff82161015610e0257601c54600160401b811015610dee5790610dd0826001610de99401601c556147b9565b81549060031b9060ff6005831b921b19161790556147f6565b610d9b565b634e487b7160e01b87526041600452602487fd5b508493845b60ff60608301511660ff82161015610e5a57601c54600160401b811015610dee5790610e3c826001610e559401601c556147b9565b81549060031b9060ff6004831b921b19161790556147f6565b610e07565b508493845b60ff60408401511660ff82161015610eb257601c54600160401b811015610dee5790610e94826001610ead9401601c556147b9565b81549060031b9060ff6003831b921b19161790556147f6565b610e5f565b508493845b60ff60208501511660ff82161015610f0a57601c54600160401b811015610dee5790610eec826001610f059401601c556147b9565b81549060031b9060ff6002831b921b19161790556147f6565b610eb7565b508493845b60ff85511660ff82161015610f6257601c54600160401b811015610dee5760ff91610f43826001610f5b9401601c556147b9565b81549060031b90856001831b921b19161790556147f6565b9050610f0f565b50849350601c54806000198101116112af5760001901805b6112c3575081546003810181116112af57600301401561128e575b610fa26001830154614505565b91845b60018201548110156110a3576011805490610fbf82614537565b905580610fcc8387614546565b52611026604051610fdc81613404565b8881526002602082018a815260408301908b8252858c52600b60205260ff60408d2094511660ff1985541617845551600184015551151591019060ff801983541691151516179055565b61103081856145b4565b6001600160a01b0384168752601860205260408720805490600160401b82101561108f5761106c8261108392600161108a9796950181556136e9565b819391549060031b91821b91600019901b19161790565b9055614537565b610fa5565b634e487b7160e01b89526041600452602489fd5b50918493845b82518110156111b657806110c06111b19285614546565b5160ff6110cc836147b9565b90549060031b1c16907ff38fb73870bdd02683fad66fb67561b9981e4d40371e63e01ae2e8bf2345e1766111a961111d604051602081019085825260208152611114816134a1565b51902085614b60565b838c52600b602052600260408d208660ff1982541617815582600182015501600160ff19825416179055604051846000805160206151b583398151915260018060a01b038d169280611180868b836020909392919360ff60408201951681520152565b0390a36040805160ff909616865260208601919091526001600160a01b038a1694918291820190565b0390a3614537565b6110a9565b5084937f0908417bb2d0393a45bf6efe35cecf8dbedbab1767b8d95f650094c6ccd1d0ac60019360ff60048685015494015460081c16611204604051928392888060a01b038a16968461455a565b0390a2818060a01b0383168452601760205261123b6040852060046000918281558260018201558260028201558260038201550155565b601860205261124c60408520614590565b015460405190815233916001600160a01b0316907fa65d0fdb45e0e0e3df56379247bc241e554ab7115be9ea5b25a37920bfbba3c290602090a3600160075580f35b4360001981011115610f95575b634e487b7160e01b84526011600452602484fd5b634e487b7160e01b85526011600452602485fd5b6040516020810190428252826040820152604081526112e181613404565b519020600182019081831161137357811561135f576113599291611354910661133660ff61130e856147b9565b90549060031b1c169161134f60ff611325836147b9565b90549060031b1c16611336876147b9565b90919060ff8084549260031b9316831b921b1916179055565b6147b9565b613a88565b80610f7a565b634e487b7160e01b87526012600452602487fd5b634e487b7160e01b87526011600452602487fd5b90935060058110156113e8575060018452601b6020526040842060ff604051916113b083613450565b548181168352818160081c166020840152818160101c166040840152818160181c16606084015260201c166080820152925b38610d98565b600a811015611444575060058452601b6020526040842060ff6040519161140e83613450565b548181168352818160081c166020840152818160101c166040840152818160181c16606084015260201c166080820152926113e2565b601481101561146a5750600a8452601b6020526040842060ff6040519161140e83613450565b6032111561148e5760148452601b6020526040842060ff6040519161140e83613450565b60328452601b6020526040842060ff6040519161140e83613450565b60ff915060081c161538610d92565b601f7f0e4562a10381dec21b205ed72637e6b1b523bdd0e4d4d50af5cd23dd4500a211910160051c8101905b8181106114f25750610d32565b8681556001016114e5565b60405162461bcd60e51b815260206004820152601560248201527412195c9bce88139bdd08195e1c1a5c9959081e595d605a1b6044820152606490fd5b50602080600319360112610bf95760043590611554613cbd565b61155c613c9f565b8115158061187e575b61156e90613b3a565b3383526017815261158c60408420805415908115610bdf5750613b7f565b61159582613aab565b5061159f83614eb1565b906115ac84601354613bcb565b600f546001600160a01b0393908416918583611800575b5061160d92506115d590341015613beb565b83600d5416604051916323b872dd60e01b8784015233602484015230604484015260648301526064825261160882613450565b613c37565b6040513360601b6bffffffffffffffffffffffff191684820190815243601482015260348101869052906116448160548401610911565b51902091600f541680611732575b506040519061166082613435565b4382526116d060048584019387855260408101953487526060820190815260808201968a885260ff60a084019616865260c08301968b8852338c5260178a5260408c20935184555160018401555160028301555160038201550193511515849060ff801983541691151516179055565b519061ff0062ff000084549251151560101b169260081b169062ffff0019161717905560405191825243908201528160408201527fe76693a509b276a8f091f368f5ee1fcd90a958858d61248bdb8588205bcd734560603392a2600160075580f35b6040516321ffa5f960e21b81528481600481855afa8015610ae557859188916117cd575b5060405163435639fb60e11b81523360048201526024810188905260ff85166044820152606481018690529283916084918391905af1908115610aab5784916117a0575b50611652565b813d83116117c6575b6117b381836134bc565b810103126117c257823861179a565b8480fd5b503d6117a9565b82819392503d83116117f9575b6117e481836134bc565b810103126117f55784905138611756565b8680fd5b503d6117da565b6040516321ffa5f960e21b815293849060049082905afa92831561187357889361183e575b5061183661160d936115d592613bde565b9050856115c3565b92508583813d831161186c575b61185581836134bc565b8101031261186857915191611836611825565b8780fd5b503d61184b565b6040513d8a823e3d90fd5b506032821115611565565b5034610475576020366003190112610475576105476105eb600435614c24565b50346104755780600319360112610475576118c261374b565b8080808060018060a01b036006541647905af16118dd61393c565b50156118e65780f35b60405162461bcd60e51b815260206004820152601660248201527513985d1a5d99481dda5d1a191c985dc819985a5b195960521b6044820152606490fd5b5034610475578060031936011261047557600f546040516001600160a01b039091168152602090f35b50346104755760803660031901126104755761196761335b565b61196f613371565b90604435606435926001600160401b0384116117c257366023850112156117c2576119a76119b99436906024816004013591016134f8565b926119b3838383613777565b3361396c565b80f35b50346104755760203660031901126104755760206119db600435614eb1565b604051908152f35b5034610475576040366003190112610475576119fd61335b565b6024359081151590818303610bc9576001600160a01b0316918215611a7657611a4790338552600560205260408520848652602052604085209060ff801983541691151516179055565b6040519081527f17307eab39ab6107e8899845ad3d59bd9653f200f220920489ca2b5937696c3160203392a380f35b604051630b61174360e31b815260048101849052602490fd5b5034610475576020366003190112610475576001600160a01b03611ab161335b565b1681526017602052604081209060405190611acb82613435565b600483549384845260018101546020850152600281015460408501526003810154606085015201549160c060ff808516159485156080850152818160081c1660a085015260101c1615159101528215159182611b83575b5081611b36575b6020826040519015158152f35b90506003820191828111611b6f5761010201809211611b5b5750602090431138611b29565b634e487b7160e01b81526011600452602490fd5b634e487b7160e01b82526011600452602482fd5b915038611b22565b5034610475578060031936011261047557601554611ba881613d69565b90611bb660405192836134bc565b808252601f19611bc582613d69565b01835b818110611cb2575050825b818110611c5a57505060405190602092838301848452825180915260408401948060408360051b870101940192955b828710611c0f5785850386f35b909192938280611c4a600193603f198a8203018652604089518051835260ff85820151168584015201519060609081604082015201906133aa565b9601920196019592919092611c02565b80611cad918552602060148152611c8d600260408820600581549460405195611c8287613404565b865285015201613645565b6040820152611c9c8286614546565b52611ca78185614546565b50614537565b611bd3565b602090604051611cc181613404565b86815282878183015260606040830152828701015201611bc8565b50346104755780600319360112610475576020601254604051908152f35b50346104755780600319360112610475576020601554604051908152f35b503461047557806003193601126104755760405190806001805491611d3c8361354d565b80865292828116908115611dbd5750600114611d63575b610547856105eb818703826134bc565b92508083527fb10e2d527612073b26eecdfd717e6a320cf44b4afac2b0732d9fcbe2b7fa0cf65b828410611da55750505081016020016105eb82610547611d53565b80546020858701810191909152909301928101611d8a565b869550610547969350602092506105eb94915060ff191682840152151560051b8201019293611d53565b50346104755760209081600319360112610475576001600160401b0360043581811161047157611e1b90369060040161352f565b90611e2461374b565b815190811161045d57611e38600a5461354d565b601f8111611f57575b5083601f8211600114611eb55790808495927f905d981207a7d0b6c62cc46ab0be2a076d0298e4a86d0ab79882dbd01ac373789591611eaa575b508160011b916000199060031b1c191617600a555b611ea46040519282849384528301906133aa565b0390a180f35b905083015138611e7b565b600a84527fc65a7bb8d6351c1cf70c95a316cc6a92839c986682d98bc35f958f4883f9d2a890601f198316855b818110611f4057509183917f905d981207a7d0b6c62cc46ab0be2a076d0298e4a86d0ab79882dbd01ac3737896979460019410611f27575b5050811b01600a55611e90565b85015160001960f88460031b161c191690553880611f1a565b919287600181928689015181550194019201611ee2565b611f9e90600a85527fc65a7bb8d6351c1cf70c95a316cc6a92839c986682d98bc35f958f4883f9d2a8601f840160051c81019187851061045357601f0160051c0190614579565b38611e41565b5034610475576020366003190112610475576020611fc8611fc361335b565b614f83565b6040519015158152f35b503461047557602080600319360112610bf9576001600160a01b03611ff561335b565b168252601881526040822091604051809384918482549182815201918452848420935b858282106120435750505061202f925003836134bc565b610547604051928284938452830190613717565b8554845260019586019588955093019201612018565b50346104755780600319360112610475576006546040516001600160a01b039091168152602090f35b50346104755760803660031901126104755760043590602435916044359060ff8216809203610471576001600160401b03916064358381116117c2576120cc90369060040161352f565b946120d561374b565b600a8310156122e157600180831015806122d6575b15612291576040516120fb81613404565b82815260209560028783019286845260408101938b8552888b5260148a5260408b209151825560ff86830191511660ff19825416179055019151805191821161108f57819061214a845461354d565b601f8111612263575b508890601f8311600114612204578a926121f9575b5050600019600383901b1c191690831b1790555b6015548410156121d1575b5094611ea4917fc03e8a93a79fa8eb0097f5fbbbb816f93271b89d3ffc92753e027320b992f93e9596604051958695865285015260408401526080606084015260808301906133aa565b83018084116121e557601555611ea4612187565b634e487b7160e01b86526011600452602486fd5b015190503880612168565b848b52898b208694509190601f1984168c5b8c82821061224d5750508411612234575b505050811b01905561217c565b015160001960f88460031b161c19169055388080612227565b8385015186558997909501949384019301612216565b61228b90858c528a8c20601f850160051c8101918c861061045357601f0160051c0190614579565b38612153565b60405162461bcd60e51b815260206004820152601860248201527f4865726f3a20496e76616c6964206d61782072617269747900000000000000006044820152606490fd5b5060058311156120ea565b60405162461bcd60e51b815260206004820152601760248201527f4865726f3a205469657220494420746f6f206c617267650000000000000000006044820152606490fd5b5034610475578060031936011261047557602060405160ff8152f35b50346104755760403660031901126104755761235c61335b565b6001600160a01b031681526018602052604081208054602435929083101561047557602061238a84846136e9565b90546040519160031b1c8152f35b50346104755780600319360112610475576123b161374b565b6123b9613c9f565b600160ff1960085416176008557f62e78cea01bee320cd4e420270b5ea74000d11b0c9f74754ebdbfc544b05a2586020604051338152a180f35b50346104755760203660031901126104755761240d61335b565b61241561374b565b600f80546001600160a01b0319166001600160a01b039290921691821790557feda44c694e75c8161562f6179238b37a8daa291b6b2229613ed903ed92ab2d3d8280a280f35b50346104755760203660031901126104755760406060916004358152600b6020522060ff8154169060ff600260018301549201541690604051928352602083015215156040820152f35b50346104755780600319360112610475576124be61374b565b600680546001600160a01b0319811690915581906001600160a01b03167f8be0079c531659141344cd1fd0a4f28419497f9722a3daafe3b4186f6b6457e08280a380f35b5034610475576020366003190112610475576001600160a01b0361252461335b565b168015612541578160409160209352600383522054604051908152f35b6040516322718ad960e21b815260048101839052602490fd5b50346104755780600319360112610475576105476105eb613587565b503461047557806003193601126104755760405190806009546125988161354d565b80855291600191808316908115611dbd57506001146125c157610547856105eb818703826134bc565b9250600983526000805160206151958339815191525b8284106125f25750505081016020016105eb82610547611d53565b805460208587018101919091529093019281016125d7565b503461047557602080600319360112610bf9576004359060018060a01b0361263781600e54163314614b14565b61264083613919565b838552600b8352604085209060405161265881613404565b60ff835416815260ff6002600185015494878401958652015416158015604083015261276a575191516040805160ff9094168452602084019190915285938793909283169185917f4ea24cce0fda81cee15bace7541c9ae5cc434fe4b80d5065b70dbae17db1a0519190a38282526002845260408220541660028115948515612736575b848452526040822080546001600160a01b03191690557fddf252ad1be2c89b69c2b068fc378daa952ba7f163c4a11628f55a4df523b3ef8280a461271e575080f35b60249060405190637e27328960e01b82526004820152fd5b600085815260046020526040902080546001600160a01b0319169055828452600381526040842080546000190190556126dc565b60405162461bcd60e51b815260048101869052602160248201527f4865726f3a2043616e6e6f74206275726e20756e72657665616c6564206865726044820152606f60f81b6064820152608490fd5b5034610475576020366003190112610475576127d361335b565b6127db61374b565b600c80546001600160a01b0319166001600160a01b03928316908117909155600d54909116907f14662a0fccd762a05d5e1fa6afdd204554c4cf90fe58b5c5947f664fb71925f58380a380f35b50346104755760203660031901126104755760409060043561284981613919565b508152600b6020522060405161285e81613404565b60ff825416815260ff600260018401549360208401948552015416158015604083015261289e575190516040805160ff9093168352602083019190915290f35b60405162461bcd60e51b815260206004820152601660248201527512195c9bce88139bdd081e595d081c995d99585b195960521b6044820152606490fd5b503461047557602080600319360112610bf95760043591806128fd84613aab565b9180915090601554915b8281106129465750505061293761291f608095614eb1565b916040519586956005875286015260808501906133aa565b91604084015260608301520390f35b8082526014865260408220548088101561296a575b5061296590614537565b612907565b945061296561295b565b5034610475578060031936011261047557600c546040516001600160a01b039091168152602090f35b50346104755760203660031901126104755760206129bc600435613919565b6040516001600160a01b039091168152f35b5034610475578060031936011261047557602060ff600854166040519015158152f35b50346104755760203660031901126104755760e0906040906001600160a01b03612a1961335b565b16815260176020522060ff8154916001810154906002810154600460038301549201549260405195865260208601526040850152606084015281811615156080840152818160081c1660a084015260101c16151560c0820152f35b50346104755760209081600319360112610475576001600160401b0360043581811161047157612aa890369060040161352f565b90612ab161374b565b815190811161045d57612ac560095461354d565b601f8111612bcb575b5083601f8211600114612b3b5790808495927ff9c7803e94e0d3c02900d8a90893a6d5e90dd04d32a4cfe825520f82bf9f32f69591612b30575b508160011b916000199060031b1c191617600955611ea46040519282849384528301906133aa565b905083015138612b08565b6009845260008051602061519583398151915290601f198316855b818110612bb457509183917ff9c7803e94e0d3c02900d8a90893a6d5e90dd04d32a4cfe825520f82bf9f32f696979460019410612b9b575b5050811b01600955611e90565b85015160001960f88460031b161c191690553880612b8e565b919287600181928689015181550194019201612b56565b612c009060098552600080516020615195833981519152601f840160051c81019187851061045357601f0160051c0190614579565b38612ace565b5034610475578060031936011261047557600d546040516001600160a01b039091168152602090f35b5034610475578060031936011261047557600e546040516001600160a01b039091168152602090f35b5034610475576119b9612c6a366133cf565b9060405192612c7884613486565b8584526119b3838383613777565b503461047557602036600319011261047557604060e091612ca561335b565b8160c08451612cb381613435565b82815282602082015282868201528260608201528260808201528260a0820152015260018060a01b0316815260176020522060405190612cf282613435565b60ff815492838152600183015460208201908152600284015493604083019485526004600382015491606085019283520154946080840192858716151584528560c060a0870196828a60081c168852019760101c16151587526040519788525160208801525160408701525160608601525115156080850152511660a083015251151560c0820152f35b5034610475578060031936011261047557612d9561374b565b60085460ff811615612dd55760ff19166008557f5db9ee0a495bf2e6ff9c91a7834c1ba4fdd244a5e8aa4e537bd38aeae4b073aa6020604051338152a180f35b604051638dfc202b60e01b8152600490fd5b50346104755780600319360112610475576020601054604051908152f35b5034610475578060031936011261047557612e1e613cbd565b612e26613c9f565b612e2f33613e0a565b600160075580f35b50346104755780600319360112610475576020601354604051908152f35b5034610475576119b9612e67366133cf565b91613777565b5034610475578060031936011261047557612e8661374b565b600d546040516370a0823160e01b81523060048201526001600160a01b03918216602082602481845afa918215610bd4578492612f0e575b5081612ec8578380f35b60065460405163a9059cbb60e01b602082015293166001600160a01b03166024840152604480840192909252908252612f0791906116086064836134bc565b3880808380f35b9091506020813d8211612f39575b81612f29602093836134bc565b81010312610bc957519038612ebe565b3d9150612f1c565b503461047557602036600319011261047557600435612f5e61374b565b670de0b6b3a764000090818102918183041490151715611b6f5760125580f35b50346104755760203660031901126104755760206119db612f9d61335b565b6150bf565b503461047557602036600319011261047557612fbc61374b565b60043560135580f35b503461047557604036600319011261047557612fdf61335b565b602435612feb81613919565b33151580613095575b8061306a575b613052576001600160a01b039283169282918491167f8c5be1e5ebec7d5bd14f71427d1e84f3dd0314c0f7b2291e5b200ac8c7c3b9258680a4825260046020526040822080546001600160a01b031916909117905580f35b60405163a9fbf51f60e01b8152336004820152602490fd5b506001600160a01b038116845260056020908152604080862033875290915284205460ff1615612ffa565b506001600160a01b038116331415612ff4565b5034610475576020366003190112610475576020906004356130c981613919565b50815260048252604060018060a01b0391205416604051908152f35b5034610475578060031936011261047557604051908080546131068161354d565b80855291600191808316908115611dbd575060011461312f57610547856105eb818703826134bc565b80809450527f290decd9548b62a8d60345a988386fc84ba6bc95484008f6362f93160ef3e5635b8284106131715750505081016020016105eb82610547611d53565b80546020858701810191909152909301928101613156565b50346104755760203660031901126104755760043563ffffffff60e01b8116809103610bf9576020906380ac58cd60e01b81149081156131e7575b81156131d6575b506040519015158152f35b6301ffc9a760e01b149050826131cb565b635b5e139f60e01b811491506131c4565b50346104755760203660031901126104755761321261335b565b61321a61374b565b600e80546001600160a01b0319166001600160a01b039290921691821790557f088c5ec3908e3424c43d8102e8e1cc8eb8820a25e326b9c31cc58963046b92e98280a280f35b50346104755760603660031901126104755761327a61335b565b6024359060ff821690818303610bc957926000805160206151b58339815191526002939260209561335060443561331a60018060a01b03946132c186600e54163314614b14565b601154998a98604051926132d484613404565b83528c830185815260ff604080860193600185528d81526020600b90522094511660ff1985541617845551600184015551151591019060ff801983541691151516179055565b61332486846145b4565b61332f601154614537565b6011556040519384931696836020909392919360ff60408201951681520152565b0390a3604051908152f35b600435906001600160a01b0382168203610a9f57565b602435906001600160a01b0382168203610a9f57565b60005b83811061339a5750506000910152565b818101518382015260200161338a565b906020916133c381518092818552858086019101613387565b601f01601f1916010190565b6060906003190112610a9f576001600160a01b03906004358281168103610a9f57916024359081168103610a9f579060443590565b606081019081106001600160401b0382111761341f57604052565b634e487b7160e01b600052604160045260246000fd5b60e081019081106001600160401b0382111761341f57604052565b60a081019081106001600160401b0382111761341f57604052565b608081019081106001600160401b0382111761341f57604052565b602081019081106001600160401b0382111761341f57604052565b604081019081106001600160401b0382111761341f57604052565b90601f801991011681019081106001600160401b0382111761341f57604052565b6001600160401b03811161341f57601f01601f191660200190565b929192613504826134dd565b9161351260405193846134bc565b829481845281830111610a9f578281602093846000960137010152565b9080601f83011215610a9f5781602061354a933591016134f8565b90565b90600182811c9216801561357d575b602083101461356757565b634e487b7160e01b600052602260045260246000fd5b91607f169161355c565b604051906000826016549161359b8361354d565b8083529260019081811690811561362357506001146135c4575b506135c2925003836134bc565b565b6016600090815291507fd833147d7dc355ba459fc788f669e58cfaf9dc25ddcd0702e87d69c7b51242895b84831061360857506135c29350508101602001386135b5565b81935090816020925483858a010152019101909185926135ef565b9050602092506135c294915060ff191682840152151560051b820101386135b5565b90604051918260008254926136598461354d565b9081845260019485811690816000146136c65750600114613683575b50506135c2925003836134bc565b9093915060005260209081600020936000915b8183106136ae5750506135c293508201013880613675565b85548884018501529485019487945091830191613696565b9150506135c294506020925060ff191682840152151560051b8201013880613675565b80548210156137015760005260206000200190600090565b634e487b7160e01b600052603260045260246000fd5b90815180825260208080930193019160005b828110613737575050505090565b835185529381019392810192600101613729565b6006546001600160a01b0316330361375f57565b60405163118cdaa760e01b8152336004820152602490fd5b6001600160a01b03918216929091831561390057600092828452826020956002875260409684888820541696879133151580613867575b509060027fddf252ad1be2c89b69c2b068fc378daa952ba7f163c4a11628f55a4df523b3ef9284613834575b858352600381528b8320805460010190558683525289812080546001600160a01b0319168517905580a416928383036138135750505050565b6064945051926364283d7b60e01b8452600484015260248301526044820152fd5b600087815260046020526040902080546001600160a01b0319169055848352600381528b832080546000190190556137da565b919394509150806138bf575b15613883578592918791386137ae565b8786886138a0576024915190637e27328960e01b82526004820152fd5b905163177e802f60e01b81523360048201526024810191909152604490fd5b5033871480156138e4575b806138735750858252600481523385898420541614613873565b5086825260058152878220338352815260ff88832054166138ca565b604051633250574960e11b815260006004820152602490fd5b6000818152600260205260409020546001600160a01b031690811561271e575090565b3d15613967573d9061394d826134dd565b9161395b60405193846134bc565b82523d6000602084013e565b606090565b9293823b61397c575b5050505050565b6139c09060018060a01b038094169560405194859481630a85bd0160e11b9889885216600487015216602485015260448401526080606484015260848301906133aa565b03906020816000938185885af190829082613a40575b5050613a0e57826139e561393c565b8051919082613a0757604051633250574960e11b815260048101839052602490fd5b6020915001fd5b6001600160e01b03191603613a2857503880808080613975565b60249060405190633250574960e11b82526004820152fd5b909192506020813d8211613a80575b81613a5c602093836134bc565b81010312610bf95751906001600160e01b03198216820361047557509038806139d6565b3d9150613a4f565b8015613a95576000190190565b634e487b7160e01b600052601160045260246000fd5b601554805b613ae0575050600590604051613ac5816134a1565b600b81526a14da5b99db1948135a5b9d60aa1b602082015290565b6000198101818111613b255760409060009081526014602052208054831015613b135750613b0d90613a88565b80613ab0565b9291505061354a600260059301613645565b60246000634e487b7160e01b81526011600452fd5b15613b4157565b60405162461bcd60e51b81526020600482015260166024820152754865726f3a20496e76616c6964207175616e7469747960501b6044820152606490fd5b15613b8657565b60405162461bcd60e51b815260206004820152601b60248201527f4865726f3a2050726576696f7573206d696e742070656e64696e6700000000006044820152606490fd5b81810292918115918404141715613a9557565b91908201809211613a9557565b15613bf257565b60405162461bcd60e51b815260206004820152601a60248201527f4865726f3a20496e73756666696369656e74207061796d656e740000000000006044820152606490fd5b906000602091828151910182855af115613c93576000513d613c8a57506001600160a01b0381163b155b613c685750565b604051635274afe760e01b81526001600160a01b039091166004820152602490fd5b60011415613c61565b6040513d6000823e3d90fd5b60ff60085416613cab57565b60405163d93c066560e01b8152600490fd5b600260075414613cce576002600755565b604051633ee5aeb560e01b8152600490fd5b15613ce757565b60405162461bcd60e51b815260206004820152601560248201527412195c9bce88139bc81c195b991a5b99c81b5a5b9d605a1b6044820152606490fd5b15613d2b57565b60405162461bcd60e51b815260206004820152601660248201527512195c9bce88105b1c9958591e481c995d99585b195960521b6044820152606490fd5b6001600160401b03811161341f5760051b60200190565b9190604083820312610a9f5782518015158103610a9f579260209081810151906001600160401b038211610a9f57019180601f84011215610a9f578251613dc681613d69565b93613dd460405195866134bc565b818552838086019260051b820101928311610a9f578301905b828210613dfb575050505090565b81518152908301908301613ded565b9060018060a01b0380831660005260176020526040600020613e2e81541515613ce0565b600481018054613e4160ff821615613d24565b83600f54169081614293575b505050546003810190818111613a955781431061424e5761010201809111613a9557431161420957808316600090815260176020908152604080832060048082018054600160ff199182168117909255601986528487209187529452828520805485169055600285528285208054851690556003808652838620805486169055908552828520805485169055600585529190932080549092169091558154919491908101908110613a9557409384156141f4575b613f0e6001820154614505565b9460005b6001830154811015613fdd57601190815491613f2d83614537565b905581613f3a828a614546565b52613f99604051613f4a81613404565b600081526002602082016000815260408301906000825286600052600b60205260ff604060002094511660ff1985541617845551600184015551151591019060ff801983541691151516179055565b613fa382866145b4565b85851660005260186020526040600020918254600160401b81101561341f5761106c81613fd8956001611083940181556136e9565b613f12565b509294909360005b82518110156141655780613ffc6141609285614546565b51604051907ff38fb73870bdd02683fad66fb67561b9981e4d40371e63e01ae2e8bf2345e1766140d96140d2602085018b81526060956bffffffffffffffffffffffff198c881b16604082015287605482015260748681830152815261406181613450565b519020948d8b166000526017602052604060002060c060ff60046040519361408885613435565b8054855260018101549586602087015260028201546040870152600382015490860152015481811615156080850152818160081c1660a085015260101c1615159101528a86614807565b9384614b60565b82600052600b6020526002604060002060ff861660ff1982541617815582600182015501600160ff198254161790558b836000805160206151b5833981519152604051928c16928061413c868a836020909392919360ff60408201951681520152565b0390a36040805160ff90951685526020850191909152888c169390819081016111a9565b613fe5565b5094939192507f0908417bb2d0393a45bf6efe35cecf8dbedbab1767b8d95f650094c6ccd1d0ac9060ff6004600185015494015460081c166141b0604051928392888816968461455a565b0390a21660005260176020526141e2604060002060046000918281558260018201558260028201558260038201550155565b60186020526135c26040600020614590565b93506000194301438111613a95574093613f01565b60405162461bcd60e51b815260206004820152601b60248201527f4865726f3a2052657665616c2077696e646f77206578706972656400000000006044820152606490fd5b60405162461bcd60e51b815260206004820152601960248201527f4865726f3a20546f6f206561726c7920746f2072657665616c000000000000006044820152606490fd5b600060249260405193848092635681dbe960e01b8252898c1660048301525afa918215613c93576000906000936144dd575b50806144d3575b15613e4d57600160ff1991821681178455878616600090815260196020908152604080832084845290915280822080548516905560028083528183208054861690556003835281832080548616905560048352818320805486169055600583529120805484169055948101805497989697949593949093929061434e90614505565b946000835b61439c575b50505050509060ff7f0908417bb2d0393a45bf6efe35cecf8dbedbab1767b8d95f650094c6ccd1d0ac9254935460081c166141b0604051928392888816968461455a565b85548110156144ce5790839160118054906143b682614537565b9055806143c3838b614546565b526143ce8284614546565b518b8954906143dc92614807565b908c8c6143e98587614546565b516143f49085614b60565b9360405161440181613404565b60ff821681528b6020820187815260408301908b825287600052600b6020526040600020935160ff168d855416178455518b840155511515910190614451919060ff801983541691151516179055565b61445b84836145b4565b6040805160ff83168152602081018790528484169186916000805160206151b58339815191529190a36040805160ff92909216825260208201959095529116927ff38fb73870bdd02683fad66fb67561b9981e4d40371e63e01ae2e8bf2345e17691a36144c790614537565b9091614353565b614358565b50815115156142cc565b90506144fd9192503d806000833e6144f581836134bc565b810190613d80565b9190386142c5565b9061450f82613d69565b61451c60405191826134bc565b828152809261452d601f1991613d69565b0190602036910137565b6000198114613a955760010190565b80518210156137015760209160051b010190565b60ff61354a949360609383521660208201528160408201520190613717565b818110614584575050565b60008155600101614579565b8054600082558061459f575050565b6135c291600052602060002090810190614579565b60408051926145c284613486565b60008085526001600160a01b03948486169485156147a1578383526020966002885285842054168487821515928361476e575b81875260038b528887208054600101905582875260028b5288872080546001600160a01b031916831790557fddf252ad1be2c89b69c2b068fc378daa952ba7f163c4a11628f55a4df523b3ef8780a4614756573b614656575b505050505050565b856146939185969798955180938192630a85bd0160e11b9788845233600485015287602485015260448401526080606484015260848301906133aa565b0381858a5af190829082614712575b50506146da575050506146b361393c565b80519390846146d4578251633250574960e11b815260048101859052602490fd5b84925001fd5b9194506001600160e01b0319909116036146fb57505038808080808061464e565b602492505190633250574960e11b82526004820152fd5b909192508781813d831161474f575b61472b81836134bc565b81010312610bf95751906001600160e01b03198216820361047557509038806146a2565b503d614721565b84516339e3563760e11b815260048101849052602490fd5b600083815260046020526040902080546001600160a01b031916905580875260038b5288872080546000190190556145f5565b8451633250574960e11b815260048101849052602490fd5b90601c5482101561370157601c600052601f8260051c7f0e4562a10381dec21b205ed72637e6b1b523bdd0e4d4d50af5cd23dd4500a21101921690565b60ff1660ff8114613a955760010190565b90919060649006602c811015614ad857506001915b81600052601a906020908282526040928360002084519061483c8261346b565b5460ff968792838316948582526008908585831c16898401526010938686861c168b85015260189387606097861c168782015297156149e2575b50505050506005828916146149a3575b600482891614614962575b600382891614614921575b6002828916146148e3575b5050506001600160a01b0316600090815260198252828120858516825290915220805490916148d78282166147f6565b169060ff191617905590565b60018060a01b03841660005260198552856000206002600052855281866000205416920151161115614918575b3884816148a7565b60019450614910565b905060018060a01b038316600052601984528460002060036000528452858560002054168686840151161115614959575b859061489c565b60029650614952565b905060018060a01b03831660005260198452846000206004600052845285856000205416868584015116111561499a575b8590614891565b60039650614993565b905060018060a01b038316600052601984528460002060056000528452858560002054168683511611156149d9575b8590614886565b600496506149d2565b86949597509184939291826005869410600014614a3a575060016000528a528a600020958b5196614a128861346b565b54948580938282168a521c168b8801521c16898501521c1683820152915b3880808080614876565b600a811015614a7e575060056000528a528a600020958b5196614a5c8861346b565b54948580938282168a521c168b8801521c16898501521c168382015291614a30565b6014811015614aa05750600a6000528a528a600020958b5196614a5c8861346b565b60321115614ac05760146000528a528a600020958b5196614a5c8861346b565b60326000528a528a600020958b5196614a5c8861346b565b604f811015614aea575060029161481c565b605e811015614afc575060039161481c565b60631115614b0c5760049161481c565b60059161481c565b15614b1b57565b60405162461bcd60e51b815260206004820152601d60248201527f4865726f3a2043616c6c6572206973206e6f742074686520416c7461720000006044820152606490fd5b60ff1660018103614b7e575060249006600f0180600f11613a955790565b60028103614b9957506033900660320180603211613a955790565b60038103614bb457506033900660640180606411613a955790565b60048103614bcf57506033900660960180609611613a955790565b600503614be8576038900660c8018060c811613a955790565b60405162461bcd60e51b81526020600482015260146024820152734865726f3a20496e76616c69642072617269747960601b6044820152606490fd5b614c2d81613919565b506000908082526020600b815260ff60026040852001541615614ea65760095492614c578461354d565b15614e69578291817a184f03e93ff9f4daa797ed6e38ed64bf6a1f0100000000000000008481811015614e5b575b50506d04ee2d6d415b85acef810000000080861015614e4f575b50662386f26fc1000080861015614e42575b506305f5e10080861015614e35575b5061271080861015614e28575b506064851015614e1a575b600a80951015614e12575b60019182820195614d0c614cf6886134dd565b97614d04604051998a6134bc565b8089526134dd565b95846021848a0195601f19809a013688378a0101905b614de3575b5050506040519684889594614d3b8361354d565b92818116908115614dc25750600114614d72575b50505050614d65829161354a9651938491613387565b01039081018352826134bc565b90919297939450600982526000805160206151958339815191525b838310614dac5750505061354a95614d65918501019291953880614d4f565b80548a84018a0152899650918801918101614d8d565b60ff191688860152505050801515028401019150614d6561354a3880614d4f565b600019019082906f181899199a1a9b1b9c1cb0b131b232b360811b8282061a835304908582614d225750614d27565b600101614ce3565b936064600291049401614cd8565b6004919504940138614ccd565b6008919504940138614cc0565b6010919504940138614cb1565b82919504940138614c9f565b049450604090503880614c85565b60405162461bcd60e51b815260048101839052601560248201527412195c9bce8818985cd9555492481b9bdd081cd95d605a1b6044820152606490fd5b50505061354a613587565b600c546001600160a01b031691908215614f3e578015614f37576020601254602460405180968193637b2e0fcf60e01b835260048301525afa928315613c9357600093614f04575b5061354a9192613bcb565b6020813d8211614f2f575b81614f1c602093836134bc565b81010312610bc95751925061354a614ef9565b3d9150614f0f565b5060009150565b60405162461bcd60e51b815260206004820152601b60248201527f44756e67656f6e436f72652061646472657373206e6f742073657400000000006044820152606490fd5b6001600160a01b0390811660008181526017602052604080822090519192908390600490614fb085613435565b8054855260018101546020860152600281015460408601526003810154606086015201549460ff608085019681811615158852818160081c1660a087015260101c16151560c0850152600f54169182615067575b5050508051801515938461505d575b5083615045575b508261502557505090565b51600381019250828111611b6f5761010201809211611b5b575043111590565b90925060038101809111611b6f57431015913861501a565b5115935038615013565b602460405180948193635681dbe960e01b835260048301525afa908115610b595783916150a4575b5061509c57388281615004565b505050600190565b6150b891503d8085833e6144f581836134bc565b503861508f565b6001600160a01b03166000908152601760205260408082209051906150e382613435565b6004815491828452600181015460208501526002810154604085015260038101546060850152015460ff808216151591826080860152818160081c1660a086015260101c16151560c0840152811590811561518c575b5061518757600381018091116151735743101561516f5751906003820191828111611b6f57439003600301918211611b5b575090565b5090565b634e487b7160e01b83526011600452602483fd5b505090565b90503861513956fe6e1540171b6c0c960b71a7020d9f60077f6af931a8bbf590da0223dacf75c7af57c4a553ea4024e9d030303a99f6e58dad3e8267764f90605b4a2c968e3b237ea2646970667358221220afded3ef4e5f6e51368b45dec2a97e54756e998c1a5dda219e8eac6797bf1f4264736f6c63430008140033290decd9548b62a8d60345a988386fc84ba6bc95484008f6362f93160ef3e563b10e2d527612073b26eecdfd717e6a320cf44b4afac2b0732d9fcbe2b7fa0cf6d833147d7dc355ba459fc788f669e58cfaf9dc25ddcd0702e87d69c7b5124289",
  "linkReferences": {},
  "deployedLinkReferences": {}
}