{
  "_format": "hh-sol-artifact-1",
  "contractName": "Hero",
  "sourceName": "contracts/Hero.sol",
  "abi": [
    {
      "inputs": [
        {
          "internalType": "address",
          "name": "initialOwner",
          "type": "address"
        }
      ],
      "stateMutability": "nonpayable",
      "type": "constructor"
    },
    {
      "inputs": [
        {
          "internalType": "address",
          "name": "sender",
          "type": "address"
        },
        {
          "internalType": "uint256",
          "name": "tokenId",
          "type": "uint256"
        },
        {
          "internalType": "address",
          "name": "owner",
          "type": "address"
        }
      ],
      "name": "ERC721IncorrectOwner",
      "type": "error"
    },
    {
      "inputs": [
        {
          "internalType": "address",
          "name": "operator",
          "type": "address"
        },
        {
          "internalType": "uint256",
          "name": "tokenId",
          "type": "uint256"
        }
      ],
      "name": "ERC721InsufficientApproval",
      "type": "error"
    },
    {
      "inputs": [
        {
          "internalType": "address",
          "name": "approver",
          "type": "address"
        }
      ],
      "name": "ERC721InvalidApprover",
      "type": "error"
    },
    {
      "inputs": [
        {
          "internalType": "address",
          "name": "operator",
          "type": "address"
        }
      ],
      "name": "ERC721InvalidOperator",
      "type": "error"
    },
    {
      "inputs": [
        {
          "internalType": "address",
          "name": "owner",
          "type": "address"
        }
      ],
      "name": "ERC721InvalidOwner",
      "type": "error"
    },
    {
      "inputs": [
        {
          "internalType": "address",
          "name": "receiver",
          "type": "address"
        }
      ],
      "name": "ERC721InvalidReceiver",
      "type": "error"
    },
    {
      "inputs": [
        {
          "internalType": "address",
          "name": "sender",
          "type": "address"
        }
      ],
      "name": "ERC721InvalidSender",
      "type": "error"
    },
    {
      "inputs": [
        {
          "internalType": "uint256",
          "name": "tokenId",
          "type": "uint256"
        }
      ],
      "name": "ERC721NonexistentToken",
      "type": "error"
    },
    {
      "inputs": [],
      "name": "EnforcedPause",
      "type": "error"
    },
    {
      "inputs": [],
      "name": "ExpectedPause",
      "type": "error"
    },
    {
      "inputs": [
        {
          "internalType": "address",
          "name": "owner",
          "type": "address"
        }
      ],
      "name": "OwnableInvalidOwner",
      "type": "error"
    },
    {
      "inputs": [
        {
          "internalType": "address",
          "name": "account",
          "type": "address"
        }
      ],
      "name": "OwnableUnauthorizedAccount",
      "type": "error"
    },
    {
      "inputs": [],
      "name": "ReentrancyGuardReentrantCall",
      "type": "error"
    },
    {
      "inputs": [
        {
          "internalType": "address",
          "name": "token",
          "type": "address"
        }
      ],
      "name": "SafeERC20FailedOperation",
      "type": "error"
    },
    {
      "anonymous": false,
      "inputs": [
        {
          "indexed": true,
          "internalType": "address",
          "name": "owner",
          "type": "address"
        },
        {
          "indexed": true,
          "internalType": "address",
          "name": "approved",
          "type": "address"
        },
        {
          "indexed": true,
          "internalType": "uint256",
          "name": "tokenId",
          "type": "uint256"
        }
      ],
      "name": "Approval",
      "type": "event"
    },
    {
      "anonymous": false,
      "inputs": [
        {
          "indexed": true,
          "internalType": "address",
          "name": "owner",
          "type": "address"
        },
        {
          "indexed": true,
          "internalType": "address",
          "name": "operator",
          "type": "address"
        },
        {
          "indexed": false,
          "internalType": "bool",
          "name": "approved",
          "type": "bool"
        }
      ],
      "name": "ApprovalForAll",
      "type": "event"
    },
    {
      "anonymous": false,
      "inputs": [
        {
          "indexed": true,
          "internalType": "address",
          "name": "newAddress",
          "type": "address"
        }
      ],
      "name": "AscensionAltarSet",
      "type": "event"
    },
    {
      "anonymous": false,
      "inputs": [
        {
          "indexed": false,
          "internalType": "string",
          "name": "newBaseURI",
          "type": "string"
        }
      ],
      "name": "BaseURISet",
      "type": "event"
    },
    {
      "anonymous": false,
      "inputs": [
        {
          "indexed": false,
          "internalType": "string",
          "name": "newContractURI",
          "type": "string"
        }
      ],
      "name": "ContractURIUpdated",
      "type": "event"
    },
    {
      "anonymous": false,
      "inputs": [
        {
          "indexed": true,
          "internalType": "address",
          "name": "core",
          "type": "address"
        },
        {
          "indexed": true,
          "internalType": "address",
          "name": "token",
          "type": "address"
        }
      ],
      "name": "ContractsSet",
      "type": "event"
    },
    {
      "anonymous": false,
      "inputs": [
        {
          "indexed": false,
          "internalType": "uint256",
          "name": "newSeed",
          "type": "uint256"
        }
      ],
      "name": "DynamicSeedUpdated",
      "type": "event"
    },
    {
      "anonymous": false,
      "inputs": [
        {
          "indexed": true,
          "internalType": "uint256",
          "name": "tokenId",
          "type": "uint256"
        },
        {
          "indexed": true,
          "internalType": "address",
          "name": "owner",
          "type": "address"
        },
        {
          "indexed": false,
          "internalType": "uint8",
          "name": "rarity",
          "type": "uint8"
        },
        {
          "indexed": false,
          "internalType": "uint256",
          "name": "power",
          "type": "uint256"
        }
      ],
      "name": "HeroBurned",
      "type": "event"
    },
    {
      "anonymous": false,
      "inputs": [
        {
          "indexed": true,
          "internalType": "uint256",
          "name": "tokenId",
          "type": "uint256"
        },
        {
          "indexed": true,
          "internalType": "address",
          "name": "owner",
          "type": "address"
        },
        {
          "indexed": false,
          "internalType": "uint8",
          "name": "rarity",
          "type": "uint8"
        },
        {
          "indexed": false,
          "internalType": "uint256",
          "name": "power",
          "type": "uint256"
        }
      ],
      "name": "HeroMinted",
      "type": "event"
    },
    {
      "anonymous": false,
      "inputs": [
        {
          "indexed": true,
          "internalType": "uint256",
          "name": "tokenId",
          "type": "uint256"
        },
        {
          "indexed": true,
          "internalType": "address",
          "name": "owner",
          "type": "address"
        },
        {
          "indexed": false,
          "internalType": "uint8",
          "name": "oldRarity",
          "type": "uint8"
        },
        {
          "indexed": false,
          "internalType": "uint8",
          "name": "newRarity",
          "type": "uint8"
        },
        {
          "indexed": false,
          "internalType": "uint256",
          "name": "newPower",
          "type": "uint256"
        }
      ],
      "name": "HeroUpgraded",
      "type": "event"
    },
    {
      "anonymous": false,
      "inputs": [
        {
          "indexed": true,
          "internalType": "address",
          "name": "previousOwner",
          "type": "address"
        },
        {
          "indexed": true,
          "internalType": "address",
          "name": "newOwner",
          "type": "address"
        }
      ],
      "name": "OwnershipTransferred",
      "type": "event"
    },
    {
      "anonymous": false,
      "inputs": [
        {
          "indexed": false,
          "internalType": "address",
          "name": "account",
          "type": "address"
        }
      ],
      "name": "Paused",
      "type": "event"
    },
    {
      "anonymous": false,
      "inputs": [
        {
          "indexed": true,
          "internalType": "address",
          "name": "from",
          "type": "address"
        },
        {
          "indexed": true,
          "internalType": "address",
          "name": "to",
          "type": "address"
        },
        {
          "indexed": true,
          "internalType": "uint256",
          "name": "tokenId",
          "type": "uint256"
        }
      ],
      "name": "Transfer",
      "type": "event"
    },
    {
      "anonymous": false,
      "inputs": [
        {
          "indexed": false,
          "internalType": "address",
          "name": "account",
          "type": "address"
        }
      ],
      "name": "Unpaused",
      "type": "event"
    },
    {
      "inputs": [
        {
          "internalType": "address",
          "name": "to",
          "type": "address"
        },
        {
          "internalType": "uint256",
          "name": "tokenId",
          "type": "uint256"
        }
      ],
      "name": "approve",
      "outputs": [],
      "stateMutability": "nonpayable",
      "type": "function"
    },
    {
      "inputs": [],
      "name": "ascensionAltarAddress",
      "outputs": [
        {
          "internalType": "address",
          "name": "",
          "type": "address"
        }
      ],
      "stateMutability": "view",
      "type": "function"
    },
    {
      "inputs": [
        {
          "internalType": "address",
          "name": "owner",
          "type": "address"
        }
      ],
      "name": "balanceOf",
      "outputs": [
        {
          "internalType": "uint256",
          "name": "",
          "type": "uint256"
        }
      ],
      "stateMutability": "view",
      "type": "function"
    },
    {
      "inputs": [],
      "name": "baseURI",
      "outputs": [
        {
          "internalType": "string",
          "name": "",
          "type": "string"
        }
      ],
      "stateMutability": "view",
      "type": "function"
    },
    {
      "inputs": [
        {
          "internalType": "uint256",
          "name": "_tokenId",
          "type": "uint256"
        }
      ],
      "name": "burnFromAltar",
      "outputs": [],
      "stateMutability": "nonpayable",
      "type": "function"
    },
    {
      "inputs": [],
      "name": "contractURI",
      "outputs": [
        {
          "internalType": "string",
          "name": "",
          "type": "string"
        }
      ],
      "stateMutability": "view",
      "type": "function"
    },
    {
      "inputs": [],
      "name": "dungeonCore",
      "outputs": [
        {
          "internalType": "contract IDungeonCore",
          "name": "",
          "type": "address"
        }
      ],
      "stateMutability": "view",
      "type": "function"
    },
    {
      "inputs": [],
      "name": "dynamicSeed",
      "outputs": [
        {
          "internalType": "uint256",
          "name": "",
          "type": "uint256"
        }
      ],
      "stateMutability": "view",
      "type": "function"
    },
    {
      "inputs": [
        {
          "internalType": "uint256",
          "name": "tokenId",
          "type": "uint256"
        }
      ],
      "name": "getApproved",
      "outputs": [
        {
          "internalType": "address",
          "name": "",
          "type": "address"
        }
      ],
      "stateMutability": "view",
      "type": "function"
    },
    {
      "inputs": [
        {
          "internalType": "uint256",
          "name": "tokenId",
          "type": "uint256"
        }
      ],
      "name": "getHeroProperties",
      "outputs": [
        {
          "internalType": "uint8",
          "name": "rarity",
          "type": "uint8"
        },
        {
          "internalType": "uint256",
          "name": "power",
          "type": "uint256"
        }
      ],
      "stateMutability": "view",
      "type": "function"
    },
    {
      "inputs": [
        {
          "internalType": "uint256",
          "name": "_quantity",
          "type": "uint256"
        }
      ],
      "name": "getRequiredSoulShardAmount",
      "outputs": [
        {
          "internalType": "uint256",
          "name": "",
          "type": "uint256"
        }
      ],
      "stateMutability": "view",
      "type": "function"
    },
    {
      "inputs": [
        {
          "internalType": "uint256",
          "name": "",
          "type": "uint256"
        }
      ],
      "name": "heroData",
      "outputs": [
        {
          "internalType": "uint8",
          "name": "rarity",
          "type": "uint8"
        },
        {
          "internalType": "uint256",
          "name": "power",
          "type": "uint256"
        }
      ],
      "stateMutability": "view",
      "type": "function"
    },
    {
      "inputs": [
        {
          "internalType": "address",
          "name": "owner",
          "type": "address"
        },
        {
          "internalType": "address",
          "name": "operator",
          "type": "address"
        }
      ],
      "name": "isApprovedForAll",
      "outputs": [
        {
          "internalType": "bool",
          "name": "",
          "type": "bool"
        }
      ],
      "stateMutability": "view",
      "type": "function"
    },
    {
      "inputs": [
        {
          "internalType": "address",
          "name": "_to",
          "type": "address"
        },
        {
          "internalType": "uint8",
          "name": "_rarity",
          "type": "uint8"
        },
        {
          "internalType": "uint256",
          "name": "_randomNumber",
          "type": "uint256"
        }
      ],
      "name": "mintFromAltar",
      "outputs": [
        {
          "internalType": "uint256",
          "name": "",
          "type": "uint256"
        }
      ],
      "stateMutability": "nonpayable",
      "type": "function"
    },
    {
      "inputs": [
        {
          "internalType": "uint256",
          "name": "_quantity",
          "type": "uint256"
        }
      ],
      "name": "mintFromVault",
      "outputs": [],
      "stateMutability": "payable",
      "type": "function"
    },
    {
      "inputs": [
        {
          "internalType": "uint256",
          "name": "_quantity",
          "type": "uint256"
        }
      ],
      "name": "mintFromWallet",
      "outputs": [],
      "stateMutability": "payable",
      "type": "function"
    },
    {
      "inputs": [],
      "name": "mintPriceUSD",
      "outputs": [
        {
          "internalType": "uint256",
          "name": "",
          "type": "uint256"
        }
      ],
      "stateMutability": "view",
      "type": "function"
    },
    {
      "inputs": [],
      "name": "name",
      "outputs": [
        {
          "internalType": "string",
          "name": "",
          "type": "string"
        }
      ],
      "stateMutability": "view",
      "type": "function"
    },
    {
      "inputs": [],
      "name": "owner",
      "outputs": [
        {
          "internalType": "address",
          "name": "",
          "type": "address"
        }
      ],
      "stateMutability": "view",
      "type": "function"
    },
    {
      "inputs": [
        {
          "internalType": "uint256",
          "name": "tokenId",
          "type": "uint256"
        }
      ],
      "name": "ownerOf",
      "outputs": [
        {
          "internalType": "address",
          "name": "",
          "type": "address"
        }
      ],
      "stateMutability": "view",
      "type": "function"
    },
    {
      "inputs": [],
      "name": "pause",
      "outputs": [],
      "stateMutability": "nonpayable",
      "type": "function"
    },
    {
      "inputs": [],
      "name": "paused",
      "outputs": [
        {
          "internalType": "bool",
          "name": "",
          "type": "bool"
        }
      ],
      "stateMutability": "view",
      "type": "function"
    },
    {
      "inputs": [],
      "name": "platformFee",
      "outputs": [
        {
          "internalType": "uint256",
          "name": "",
          "type": "uint256"
        }
      ],
      "stateMutability": "view",
      "type": "function"
    },
    {
      "inputs": [],
      "name": "renounceOwnership",
      "outputs": [],
      "stateMutability": "nonpayable",
      "type": "function"
    },
    {
      "inputs": [
        {
          "internalType": "address",
          "name": "from",
          "type": "address"
        },
        {
          "internalType": "address",
          "name": "to",
          "type": "address"
        },
        {
          "internalType": "uint256",
          "name": "tokenId",
          "type": "uint256"
        }
      ],
      "name": "safeTransferFrom",
      "outputs": [],
      "stateMutability": "nonpayable",
      "type": "function"
    },
    {
      "inputs": [
        {
          "internalType": "address",
          "name": "from",
          "type": "address"
        },
        {
          "internalType": "address",
          "name": "to",
          "type": "address"
        },
        {
          "internalType": "uint256",
          "name": "tokenId",
          "type": "uint256"
        },
        {
          "internalType": "bytes",
          "name": "data",
          "type": "bytes"
        }
      ],
      "name": "safeTransferFrom",
      "outputs": [],
      "stateMutability": "nonpayable",
      "type": "function"
    },
    {
      "inputs": [
        {
          "internalType": "address",
          "name": "operator",
          "type": "address"
        },
        {
          "internalType": "bool",
          "name": "approved",
          "type": "bool"
        }
      ],
      "name": "setApprovalForAll",
      "outputs": [],
      "stateMutability": "nonpayable",
      "type": "function"
    },
    {
      "inputs": [
        {
          "internalType": "address",
          "name": "_address",
          "type": "address"
        }
      ],
      "name": "setAscensionAltarAddress",
      "outputs": [],
      "stateMutability": "nonpayable",
      "type": "function"
    },
    {
      "inputs": [
        {
          "internalType": "string",
          "name": "_newBaseURI",
          "type": "string"
        }
      ],
      "name": "setBaseURI",
      "outputs": [],
      "stateMutability": "nonpayable",
      "type": "function"
    },
    {
      "inputs": [
        {
          "internalType": "string",
          "name": "newContractURI",
          "type": "string"
        }
      ],
      "name": "setContractURI",
      "outputs": [],
      "stateMutability": "nonpayable",
      "type": "function"
    },
    {
      "inputs": [
        {
          "internalType": "address",
          "name": "_address",
          "type": "address"
        }
      ],
      "name": "setDungeonCore",
      "outputs": [],
      "stateMutability": "nonpayable",
      "type": "function"
    },
    {
      "inputs": [
        {
          "internalType": "uint256",
          "name": "_newPrice",
          "type": "uint256"
        }
      ],
      "name": "setMintPriceUSD",
      "outputs": [],
      "stateMutability": "nonpayable",
      "type": "function"
    },
    {
      "inputs": [
        {
          "internalType": "uint256",
          "name": "_newFee",
          "type": "uint256"
        }
      ],
      "name": "setPlatformFee",
      "outputs": [],
      "stateMutability": "nonpayable",
      "type": "function"
    },
    {
      "inputs": [
        {
          "internalType": "address",
          "name": "_address",
          "type": "address"
        }
      ],
      "name": "setSoulShardToken",
      "outputs": [],
      "stateMutability": "nonpayable",
      "type": "function"
    },
    {
      "inputs": [],
      "name": "soulShardToken",
      "outputs": [
        {
          "internalType": "contract IERC20",
          "name": "",
          "type": "address"
        }
      ],
      "stateMutability": "view",
      "type": "function"
    },
    {
      "inputs": [
        {
          "internalType": "bytes4",
          "name": "interfaceId",
          "type": "bytes4"
        }
      ],
      "name": "supportsInterface",
      "outputs": [
        {
          "internalType": "bool",
          "name": "",
          "type": "bool"
        }
      ],
      "stateMutability": "view",
      "type": "function"
    },
    {
      "inputs": [],
      "name": "symbol",
      "outputs": [
        {
          "internalType": "string",
          "name": "",
          "type": "string"
        }
      ],
      "stateMutability": "view",
      "type": "function"
    },
    {
      "inputs": [
        {
          "internalType": "uint256",
          "name": "tokenId",
          "type": "uint256"
        }
      ],
      "name": "tokenURI",
      "outputs": [
        {
          "internalType": "string",
          "name": "",
          "type": "string"
        }
      ],
      "stateMutability": "view",
      "type": "function"
    },
    {
      "inputs": [
        {
          "internalType": "address",
          "name": "from",
          "type": "address"
        },
        {
          "internalType": "address",
          "name": "to",
          "type": "address"
        },
        {
          "internalType": "uint256",
          "name": "tokenId",
          "type": "uint256"
        }
      ],
      "name": "transferFrom",
      "outputs": [],
      "stateMutability": "nonpayable",
      "type": "function"
    },
    {
      "inputs": [
        {
          "internalType": "address",
          "name": "newOwner",
          "type": "address"
        }
      ],
      "name": "transferOwnership",
      "outputs": [],
      "stateMutability": "nonpayable",
      "type": "function"
    },
    {
      "inputs": [],
      "name": "unpause",
      "outputs": [],
      "stateMutability": "nonpayable",
      "type": "function"
    },
    {
      "inputs": [],
      "name": "withdrawNativeFunding",
      "outputs": [],
      "stateMutability": "nonpayable",
      "type": "function"
    },
    {
      "inputs": [],
      "name": "withdrawSoulShard",
      "outputs": [],
      "stateMutability": "nonpayable",
      "type": "function"
    },
    {
      "stateMutability": "payable",
      "type": "receive"
    }
  ],
  "bytecode": "0x6080346200042e576001600160401b0390601f90601f199062002bfc3881900384810184168301929190868411838510176200041857808392604095865283396020928391810103126200042e57516001600160a01b039390848116908190036200042e57835191620000728362000433565b601483527f44756e67656f6e2044656c76657273204865726f00000000000000000000000084840152845196620000a98862000433565b600388526208888960eb1b8589015283519789891162000418576000988954956001968781811c911680156200040d575b89821014620003f957908185849311620003a6575b50889085831160011462000345578c9262000339575b5050600019600383901b1c191690861b1789555b8051928a8411620003255785548681811c911680156200031a575b8882101462000306579081848695949311620002af575b50879284116001146200024e5750899262000242575b5050600019600383901b1c191690831b1782555b80156200022a57600680546001600160a01b031981168317909155845195167f8be0079c531659141344cd1fd0a4f28419497f9722a3daafe3b4186f6b6457e08780a380600755671bc16d674ec80000601055660110d9316ec000601155600f558201924284523360601b8284015246605484015260548352608083019483861090861117620002165750839052519020600e556127ac9081620004508239f35b634e487b7160e01b81526041600452602490fd5b8351631e4fbdf760e01b815260048101879052602490fd5b01519050388062000161565b868b52878b20879590939291168b5b898282106200029857505084116200027e575b505050811b01825562000175565b015160001960f88460031b161c1916905538808062000270565b83850151865589979095019493840193016200025d565b9091929350868b52878b208480870160051c8201928a8810620002fc575b9187968a92969594930160051c01915b828110620002ed5750506200014b565b8d8155879650899101620002dd565b92508192620002cd565b634e487b7160e01b8b52602260045260248bfd5b90607f169062000134565b634e487b7160e01b8a52604160045260248afd5b01519050388062000105565b908c91878a95168380528b8420935b8c8282106200038f575050841162000375575b505050811b01895562000119565b015160001960f88460031b161c1916905538808062000367565b8385015186558c9790950194938401930162000354565b9091508b8052888c208580850160051c8201928b8610620003ef575b918a91869594930160051c01915b828110620003e0575050620000ef565b8e81558594508a9101620003d0565b92508192620003c2565b634e487b7160e01b8c52602260045260248cfd5b90607f1690620000da565b634e487b7160e01b600052604160045260246000fd5b600080fd5b604081019081106001600160401b03821117620004185760405256fe60406080815260049081361015610020575b5050361561001e57600080fd5b005b600091823560e01c80622144f61461197357806268f22e1461190b57806301ffc9a71461189e57806306fdde03146117f6578063081812fc146117bb578063095ea7b3146116df57806312e8e2c3146116bd5780631cbb41311461166b578381631dafec00146115475750806323b872dd1461152f57806326232a2e146115105780633a92c0ac146114f15780633f4ba83a1461148857806342842e0e146114595780634350772c14611430578063440394021461140757806355f804b3146112705780635c975abb1461124c5780636352211e1461121b57806367cfab58146111f25780636a6cdc6c146111915780636ab1b29b146111225780636aef506914610fde5780636c0360eb14610f4657806370a0823114610ef1578063715018a614610e9457806373b3119014610e5a5780638456cb5914610dff5780638da5cb5b14610dd6578063938e3d7b14610c1557806395d89b4114610b445780639b41886c14610b25578063a22cb46514610a88578063b1d78c9a14610a61578063b88d4fde146109ee578063c47d435714610973578063c87b56dd146106d2578063c886015d146105c1578063d0fdcc0914610448578063db4b8268146103da578063e8a3d485146102ed578063e985e9c5146102995763f2fde38b146102065750610011565b346102955760203660031901126102955761021f611b3c565b90610228611d26565b6001600160a01b0391821692831561027f575050600654826bffffffffffffffffffffffff60a01b821617600655167f8be0079c531659141344cd1fd0a4f28419497f9722a3daafe3b4186f6b6457e0600080a380f35b51631e4fbdf760e01b8152908101849052602490fd5b8280fd5b5050346102e957806003193601126102e9576020916102b6611b3c565b826102bf611b57565b9260018060a01b03809316815260058652209116600052825260ff81600020541690519015158152f35b5080fd5b8284346103d757806003193601126103d757508051600091600a5461031181611cec565b808452906001908181169081156103af5750600114610352575b505061033c8261034e940383611c38565b51918291602083526020830190611b90565b0390f35b600a600090815294507fc65a7bb8d6351c1cf70c95a316cc6a92839c986682d98bc35f958f4883f9d2a85b828610610397575050509181016020019161033c8261032b565b8054602087870181019190915290950194810161037d565b61034e9650859250602091509261033c9360ff191682840152151560051b820101945061032b565b80fd5b83346103d75760203660031901126103d7576103f4611b3c565b6103fc611d26565b600c80546001600160a01b0319166001600160a01b03928316908117909155600b549091167f14662a0fccd762a05d5e1fa6afdd204554c4cf90fe58b5c5947f664fb71925f58380a380f35b509160203660031901126103d757823591610461612169565b61046961214b565b6104806104788460115461207b565b3410156120a4565b61048b8315156120f0565b61049483612678565b600b548251632d45772760e01b81529195916001600160a01b039160209082908590829086165afa9081156105b7578591610579575b501694853b1561057557825163d064ff1960e01b81523383820190815260208101929092529495939493859185919082908490829060400103925af1801561056b5761053f575b50505090815b8181106105275782600160075580f35b8061053561053a923361218c565b61213c565b610517565b67ffffffffffffffff8311610558575052388080610511565b634e487b7160e01b845260419052602483fd5b82513d86823e3d90fd5b8380fd5b90506020813d82116105af575b8161059360209383611c38565b810103126105ab575181811681036105ab57386104ca565b8480fd5b3d9150610586565b84513d87823e3d90fd5b506020366003190112610295578035916105d9612169565b6105e161214b565b6105f06104788460115461207b565b6105fb8315156120f0565b61060483612678565b9060018060a01b03600c541691815160208101916323b872dd60e01b835233602483015230604483015260648201526064815260a0810181811067ffffffffffffffff8211176106bf5783525160209187919082865af1156106b65784513d6106ad5750813b155b61069857505050815b8181106106855782600160075580f35b80610535610693923361218c565b610675565b51635274afe760e01b81529182015260249150fd5b6001141561066c565b513d85823e3d90fd5b634e487b7160e01b885260418652602488fd5b509190346102e957602091826003193601126103d7578335906106f482611ef4565b506009549461070286611cec565b1561093857829082907a184f03e93ff9f4daa797ed6e38ed64bf6a1f010000000000000000838181101561092b575b5050866d04ee2d6d415b85acef81000000008085101561091c575b5050662386f26fc100008084101561090d575b506305f5e100808410156108fe575b50612710808410156108f2575b505060648210156108e4575b600a809210156108dc575b600191828201906107ba6107a583611c5a565b926107b289519485611c38565b808452611c5a565b958460218a850195601f19809a01368837850101905b6108ad575b505050855197848995946107e883611cec565b928a8282169182600014610886575050600114610838575b505050918061081c610829959361034e98979551938491611b6d565b0103908101865285611c38565b51928284938452830190611b90565b8993949550600982526000805160206127578339815191525b83831061086c5750505084010191908061081c61034e610800565b80549783018501979097528a968a94909201918101610851565b60ff1916898201528415159094028801909301955083925061081c915061034e9050610800565b600019019082906f181899199a1a9b1b9c1cb0b131b232b360811b8282061a8353049085826107d057506107d5565b600101610792565b906064600291049101610787565b9092049101388061077b565b6008919293049201903861076e565b6010919293049201903861075f565b9091929304920190863861074c565b0492508591503880610731565b835162461bcd60e51b8152908101859052601560248201527412195c9bce8818985cd9555492481b9bdd081cd95d605a1b6044820152606490fd5b50903461029557826003193601126102955761098d611d26565b8280808060018060a01b036006541647905af16109a8611f2f565b50156109b2578280f35b906020606492519162461bcd60e51b8352820152601660248201527513985d1a5d99481dda5d1a191c985dc819985a5b195960521b6044820152fd5b8382346102e95760803660031901126102e957610a09611b3c565b610a11611b57565b6044359060643567ffffffffffffffff8111610a5d5736602382011215610a5d57610a5a94816024610a4893369301359101611c76565b92610a54838383611d52565b33611f5f565b80f35b8580fd5b5091346103d75760203660031901126103d75750610a8160209235612678565b9051908152f35b509034610295578060031936011261029557610aa2611b3c565b90602435918215158093036105ab576001600160a01b0316928315610b105750338452600560205280842083855260205280842060ff1981541660ff8416179055519081527f17307eab39ab6107e8899845ad3d59bd9653f200f220920489ca2b5937696c3160203392a380f35b836024925191630b61174360e31b8352820152fd5b5050346102e957816003193601126102e9576020906010549051908152f35b5050346102e957816003193601126102e957805190826001805491610b6883611cec565b80865292828116908115610bed5750600114610b91575b50505061033c8261034e940383611c38565b94508085527fb10e2d527612073b26eecdfd717e6a320cf44b4afac2b0732d9fcbe2b7fa0cf65b828610610bd55750505061033c82602061034e9582010194610b7f565b80546020878701810191909152909501948101610bb8565b61034e97508693506020925061033c94915060ff191682840152151560051b82010194610b7f565b509190346102e957610c2636611cad565b90610c2f611d26565b81519367ffffffffffffffff85116105585750610c4d600a54611cec565b601f8111610d73575b50602093601f8111600114610ccd579081610cbc939285967f905d981207a7d0b6c62cc46ab0be2a076d0298e4a86d0ab79882dbd01ac373789691610cc2575b508160011b916000199060031b1c191617600a5551918291602083526020830190611b90565b0390a180f35b905083015138610c96565b600a84527fc65a7bb8d6351c1cf70c95a316cc6a92839c986682d98bc35f958f4883f9d2a8601f198216855b818110610d5b5750916001917f905d981207a7d0b6c62cc46ab0be2a076d0298e4a86d0ab79882dbd01ac37378969782610cbc97969510610d42575b5050811b01600a5561033c565b85015160001960f88460031b161c191690553880610d35565b85880151835560209788019760019093019201610cf9565b600a84527fc65a7bb8d6351c1cf70c95a316cc6a92839c986682d98bc35f958f4883f9d2a8601f860160051c81019160208710610dcc575b601f0160051c01905b818110610dc15750610c56565b848155600101610db4565b9091508190610dab565b5050346102e957816003193601126102e95760065490516001600160a01b039091168152602090f35b5050346102e957816003193601126102e95760207f62e78cea01bee320cd4e420270b5ea74000d11b0c9f74754ebdbfc544b05a25891610e3d611d26565b610e4561214b565b600160ff19600854161760085551338152a180f35b50346102955760203660031901126102955735825260126020908152918190208054600190910154915160ff909116815291820152604090f35b83346103d757806003193601126103d757610ead611d26565b600680546001600160a01b0319811690915581906001600160a01b03167f8be0079c531659141344cd1fd0a4f28419497f9722a3daafe3b4186f6b6457e08280a380f35b5091346103d75760203660031901126103d7576001600160a01b03610f14611b3c565b16928315610f315750806020938392526003845220549051908152f35b91516322718ad960e21b815291820152602490fd5b5050346102e957816003193601126102e95780519082600954610f6881611cec565b80855291600191808316908115610bed5750600114610f935750505061033c8261034e940383611c38565b9450600985526000805160206127578339815191525b828610610fc65750505061033c82602061034e9582010194610b7f565b80546020878701810191909152909501948101610fa9565b509034610295576020908160031936011261057557823591828560018060a01b0361100e81600d5416331461262c565b61101783611ef4565b83835260128552837f4ea24cce0fda81cee15bace7541c9ae5cc434fe4b80d5065b70dbae17db1a051838886209361107e898b5161105481611bea565b875460ff1680825260019098015491018190528b5196875260208701529116939081906040820190565b0390a3828252600284528482205416600281159485156110ef575b8484525284822080546001600160a01b03191690557fddf252ad1be2c89b69c2b068fc378daa952ba7f163c4a11628f55a4df523b3ef8280a46110da578380f35b51637e27328960e01b81529182015260249150fd5b600085815260046020526040902080546001600160a01b0319169055828452600381528684208054600019019055611099565b83346103d75760203660031901126103d75761113c611b3c565b611144611d26565b600b80546001600160a01b0319166001600160a01b03928316908117909155600c54909116907f14662a0fccd762a05d5e1fa6afdd204554c4cf90fe58b5c5947f664fb71925f58380a380f35b5034610295576020366003190112610295578160209361034e92356111b581611ef4565b50815260128552209180516111c981611bea565b835460ff1680825260019094015494018490525191825260208201929092529081906040820190565b5050346102e957816003193601126102e957600b5490516001600160a01b039091168152602090f35b5091346103d75760203660031901126103d7575061123b60209235611ef4565b90516001600160a01b039091168152f35b5050346102e957816003193601126102e95760209060ff6008541690519015158152f35b509190346102e95761128136611cad565b9061128a611d26565b81519367ffffffffffffffff851161055857506112a8600954611cec565b601f81116113b6575b50602093601f8111600114611322579081610cbc939285967ff9c7803e94e0d3c02900d8a90893a6d5e90dd04d32a4cfe825520f82bf9f32f69691611317575b508160011b916000199060031b1c19161760095551918291602083526020830190611b90565b9050830151386112f1565b60098452600080516020612757833981519152601f198216855b81811061139e5750916001917ff9c7803e94e0d3c02900d8a90893a6d5e90dd04d32a4cfe825520f82bf9f32f6969782610cbc97969510611385575b5050811b0160095561033c565b85015160001960f88460031b161c191690553880611378565b8588015183556020978801976001909301920161133c565b60098452600080516020612757833981519152601f860160051c810191602087106113fd575b601f0160051c01905b8181106113f257506112b1565b8481556001016113e5565b90915081906113dc565b5050346102e957816003193601126102e957600c5490516001600160a01b039091168152602090f35b5050346102e957816003193601126102e957600d5490516001600160a01b039091168152602090f35b5050346102e957610a5a9061146d36611bb5565b9192519261147a84611c1c565b858452610a54838383611d52565b50346102955782600319360112610295576114a1611d26565b6008549060ff8216156114e3575060ff1916600855513381527f5db9ee0a495bf2e6ff9c91a7834c1ba4fdd244a5e8aa4e537bd38aeae4b073aa90602090a180f35b8251638dfc202b60e01b8152fd5b5050346102e957816003193601126102e957602090600e549051908152f35b5050346102e957816003193601126102e9576020906011549051908152f35b83346103d757610a5a61154136611bb5565b91611d52565b92905034611667578260031936011261166757611562611d26565b600c5481516370a0823160e01b815230848201526020936001600160a01b03928316908583602481855afa92831561165d57879361162a575b50826115a5578680f35b600654855163a9059cbb60e01b815294166001600160a01b0316908401908152602081019290925291948492869290918391829060400103925af19081156106b657506115f7575b8080808086958680f35b81813d8311611623575b61160b8183611c38565b810103126102e95751801515036103d75738806115ed565b503d611601565b9092508581813d8311611656575b6116428183611c38565b810103126116525751913861159b565b8680fd5b503d611638565b85513d89823e3d90fd5b5050fd5b8382346102e95760203660031901126102e957803590611689611d26565b670de0b6b3a7640000918281029281840414901517156116aa575060105580f35b634e487b7160e01b835260119052602482fd5b8382346102e95760203660031901126102e9576116d8611d26565b3560115580f35b5090346102955780600319360112610295576116f9611b3c565b9160243561170681611ef4565b331515806117a8575b8061177f575b611769576001600160a01b039485169482918691167f8c5be1e5ebec7d5bd14f71427d1e84f3dd0314c0f7b2291e5b200ac8c7c3b9258880a48452602052822080546001600160a01b031916909117905580f35b835163a9fbf51f60e01b81523381850152602490fd5b506001600160a01b03811686526005602090815284872033885290528386205460ff1615611715565b506001600160a01b03811633141561170f565b5034610295576020366003190112610295579182602093356117dc81611ef4565b50825283528190205490516001600160a01b039091168152f35b5050346102e957816003193601126102e95780519082805461181781611cec565b80855291600191808316908115610bed57506001146118425750505061033c8261034e940383611c38565b80809650527f290decd9548b62a8d60345a988386fc84ba6bc95484008f6362f93160ef3e5635b8286106118865750505061033c82602061034e9582010194610b7f565b80546020878701810191909152909501948101611869565b503461029557602036600319011261029557359063ffffffff60e01b821680920361029557602092506380ac58cd60e01b82149182156118fa575b82156118e9575b50519015158152f35b6301ffc9a760e01b149150386118e0565b635b5e139f60e01b811492506118d9565b83346103d75760203660031901126103d757611925611b3c565b61192d611d26565b600d80546001600160a01b0319166001600160a01b039290921691821790557f088c5ec3908e3424c43d8102e8e1cc8eb8820a25e326b9c31cc58963046b92e98280a280f35b5091346103d75760603660031901126103d75761198e611b3c565b92602480359260ff84168085036102e9578290604435906119ba60018060a01b03600d5416331461262c565b15611ae15760ff86915b60081c911660018103611a00575006600f019283600f116119f05750505092610a819160209491612399565b634e487b7160e01b825260119052fd5b90915060028103611a2d57506033900660320192836032116119f05750505092610a819160209491612399565b60038103611a5757506033900660640192836064116119f05750505092610a819160209491612399565b808503611a8057506033900660960192836096116119f05750505092610a819160209491612399565b600503611aa8576038900660c801928360c8116119f05750505092610a819160209491612399565b855162461bcd60e51b8152602081860152601481850152734865726f3a20496e76616c69642072617269747960601b6044820152606490fd5b60648106602c811015611af9575060ff6001916119c4565b604f811015611b0d575060ff6002916119c4565b605e811015611b21575060ff6003916119c4565b60631115611b325760ff85916119c4565b60ff6005916119c4565b600435906001600160a01b0382168203611b5257565b600080fd5b602435906001600160a01b0382168203611b5257565b60005b838110611b805750506000910152565b8181015183820152602001611b70565b90602091611ba981518092818552858086019101611b6d565b601f01601f1916010190565b6060906003190112611b52576001600160a01b03906004358281168103611b5257916024359081168103611b52579060443590565b6040810190811067ffffffffffffffff821117611c0657604052565b634e487b7160e01b600052604160045260246000fd5b6020810190811067ffffffffffffffff821117611c0657604052565b90601f8019910116810190811067ffffffffffffffff821117611c0657604052565b67ffffffffffffffff8111611c0657601f01601f191660200190565b929192611c8282611c5a565b91611c906040519384611c38565b829481845281830111611b52578281602093846000960137010152565b6020600319820112611b52576004359067ffffffffffffffff8211611b525780602383011215611b5257816024611ce993600401359101611c76565b90565b90600182811c92168015611d1c575b6020831014611d0657565b634e487b7160e01b600052602260045260246000fd5b91607f1691611cfb565b6006546001600160a01b03163303611d3a57565b60405163118cdaa760e01b8152336004820152602490fd5b6001600160a01b039182169290918315611edb57600092828452826020956002875260409684888820541696879133151580611e42575b509060027fddf252ad1be2c89b69c2b068fc378daa952ba7f163c4a11628f55a4df523b3ef9284611e0f575b858352600381528b8320805460010190558683525289812080546001600160a01b0319168517905580a41692838303611dee5750505050565b6064945051926364283d7b60e01b8452600484015260248301526044820152fd5b600087815260046020526040902080546001600160a01b0319169055848352600381528b83208054600019019055611db5565b91939450915080611e9a575b15611e5e57859291879138611d89565b878688611e7b576024915190637e27328960e01b82526004820152fd5b905163177e802f60e01b81523360048201526024810191909152604490fd5b503387148015611ebf575b80611e4e5750858252600481523385898420541614611e4e565b5086825260058152878220338352815260ff8883205416611ea5565b604051633250574960e11b815260006004820152602490fd5b6000818152600260205260409020546001600160a01b0316908115611f17575090565b60249060405190637e27328960e01b82526004820152fd5b3d15611f5a573d90611f4082611c5a565b91611f4e6040519384611c38565b82523d6000602084013e565b606090565b9293823b611f6f575b5050505050565b611fb39060018060a01b038094169560405194859481630a85bd0160e11b988988521660048701521660248501526044840152608060648401526084830190611b90565b03906020816000938185885af190829082612033575b50506120015782611fd8611f2f565b8051919082611ffa57604051633250574960e11b815260048101839052602490fd5b9050602001fd5b6001600160e01b0319160361201b57503880808080611f68565b60249060405190633250574960e11b82526004820152fd5b909192506020813d8211612073575b8161204f60209383611c38565b810103126102e95751906001600160e01b0319821682036103d75750903880611fc9565b3d9150612042565b8181029291811591840414171561208e57565b634e487b7160e01b600052601160045260246000fd5b156120ab57565b60405162461bcd60e51b815260206004820152601a60248201527f4865726f3a20506c6174666f726d20666565206e6f74206d65740000000000006044820152606490fd5b156120f757565b60405162461bcd60e51b815260206004820152601a60248201527f4865726f3a205175616e74697479206d757374206265203e20300000000000006044820152606490fd5b600019811461208e5760010190565b60ff6008541661215757565b60405163d93c066560e01b8152600490fd5b60026007541461217a576002600755565b604051633ee5aeb560e01b8152600490fd5b90600e5491600f5490604091825190602082019486865244858401524260608401523360601b6080840152609483015260b482015260b4815260e081019267ffffffffffffffff9482851086861117611c0657848252825190209160648306602c81101561235d57506001945b8360081c9060009260ff88166001811460001461228a575050506024915006600f0180600f1161208e57945b815192602084019788528284015285606084015260608352608083019083821090821117611c0657612287967f6b2ef7fbf20c7dc4747c84307cfd2178ccc921ab1e016cfa964f640ba898ee9993826020945251902080600e558152a1612399565b50565b600281036122ab5750505060339150066032018060321161208e5794612225565b600381036122cc5750505060339150066064018060641161208e5794612225565b600481036122ed5750505060339150066096018060961161208e5794612225565b6005036123215750506038900660c801908160c81161230d575094612225565b634e487b7160e01b81526011600452602490fd5b62461bcd60e51b8252602060e48201526014610104820152734865726f3a20496e76616c69642072617269747960601b61012490910152606490fd5b604f81101561236f57506002946121f9565b605e81101561238157506003946121f9565b60631115612391576004946121f9565b6005946121f9565b9091600f5492604080516123ac81611bea565b60ff831681526020908181019085825260016000928984526012855260ff86852093511660ff19845416178355519101558251906123e982611c1c565b8082526001600160a01b038781169790881561261457898352600285528583205416898982151592836125e1575b81865260038852888620805460010190558286526002885288862080546001600160a01b031916831790557fddf252ad1be2c89b69c2b068fc378daa952ba7f163c4a11628f55a4df523b3ef8680a46125c9573b6124c9575b505050917f57c4a553ea4024e9d030303a99f6e58dad3e8267764f90605b4a2c968e3b237e916124c386946124a6600f5461213c565b600f5551928392836020909392919360ff60408201951681520152565b0390a390565b839697949298959351898180612507630a85bd0160e11b968783523360048401528660248401528a6044840152608060648401526084830190611b90565b0381858d5af190829082612585575b505061254d57888888612527611f2f565b80519384612547578251633250574960e11b815260048101859052602490fd5b84925001fd5b90919396959294975063ffffffff60e01b160361256e57816124c386612470565b51633250574960e11b815260048101849052602490fd5b909192508a81813d83116125c2575b61259e8183611c38565b810103126102e95751906001600160e01b0319821682036103d75750903880612516565b503d612594565b84516339e3563760e11b815260048101839052602490fd5b600083815260046020526040902080546001600160a01b0319169055808652600388528886208054600019019055612417565b8551633250574960e11b815260048101849052602490fd5b1561263357565b60405162461bcd60e51b815260206004820152601d60248201527f4865726f3a2043616c6c6572206973206e6f742074686520416c7461720000006044820152606490fd5b600b546001600160a01b03169190821561271157801561270a576020601054602460405180968193637b2e0fcf60e01b835260048301525afa9283156126fe576000936126cb575b50611ce9919261207b565b6020813d82116126f6575b816126e360209383611c38565b8101031261057557519250611ce96126c0565b3d91506126d6565b6040513d6000823e3d90fd5b5060009150565b60405162461bcd60e51b815260206004820152601b60248201527f44756e67656f6e436f72652061646472657373206e6f742073657400000000006044820152606490fdfe6e1540171b6c0c960b71a7020d9f60077f6af931a8bbf590da0223dacf75c7afa264697066735822122045d98b4879386665dae842760e011479e281eb8632007395aa8e5d0d69e01f5964736f6c63430008140033",
  "linkReferences": {},
  "deployedLinkReferences": {}
}