{
  "_format": "hh-sol-artifact-1",
  "contractName": "Party",
  "sourceName": "contracts/Party.sol",
  "abi": [
    {
      "inputs": [
        {
          "internalType": "address",
          "name": "initialOwner",
          "type": "address"
        }
      ],
      "stateMutability": "nonpayable",
      "type": "constructor"
    },
    {
      "inputs": [
        {
          "internalType": "address",
          "name": "sender",
          "type": "address"
        },
        {
          "internalType": "uint256",
          "name": "tokenId",
          "type": "uint256"
        },
        {
          "internalType": "address",
          "name": "owner",
          "type": "address"
        }
      ],
      "name": "ERC721IncorrectOwner",
      "type": "error"
    },
    {
      "inputs": [
        {
          "internalType": "address",
          "name": "operator",
          "type": "address"
        },
        {
          "internalType": "uint256",
          "name": "tokenId",
          "type": "uint256"
        }
      ],
      "name": "ERC721InsufficientApproval",
      "type": "error"
    },
    {
      "inputs": [
        {
          "internalType": "address",
          "name": "approver",
          "type": "address"
        }
      ],
      "name": "ERC721InvalidApprover",
      "type": "error"
    },
    {
      "inputs": [
        {
          "internalType": "address",
          "name": "operator",
          "type": "address"
        }
      ],
      "name": "ERC721InvalidOperator",
      "type": "error"
    },
    {
      "inputs": [
        {
          "internalType": "address",
          "name": "owner",
          "type": "address"
        }
      ],
      "name": "ERC721InvalidOwner",
      "type": "error"
    },
    {
      "inputs": [
        {
          "internalType": "address",
          "name": "receiver",
          "type": "address"
        }
      ],
      "name": "ERC721InvalidReceiver",
      "type": "error"
    },
    {
      "inputs": [
        {
          "internalType": "address",
          "name": "sender",
          "type": "address"
        }
      ],
      "name": "ERC721InvalidSender",
      "type": "error"
    },
    {
      "inputs": [
        {
          "internalType": "uint256",
          "name": "tokenId",
          "type": "uint256"
        }
      ],
      "name": "ERC721NonexistentToken",
      "type": "error"
    },
    {
      "inputs": [],
      "name": "EnforcedPause",
      "type": "error"
    },
    {
      "inputs": [],
      "name": "ExpectedPause",
      "type": "error"
    },
    {
      "inputs": [
        {
          "internalType": "address",
          "name": "owner",
          "type": "address"
        }
      ],
      "name": "OwnableInvalidOwner",
      "type": "error"
    },
    {
      "inputs": [
        {
          "internalType": "address",
          "name": "account",
          "type": "address"
        }
      ],
      "name": "OwnableUnauthorizedAccount",
      "type": "error"
    },
    {
      "inputs": [],
      "name": "ReentrancyGuardReentrantCall",
      "type": "error"
    },
    {
      "anonymous": false,
      "inputs": [
        {
          "indexed": true,
          "internalType": "address",
          "name": "owner",
          "type": "address"
        },
        {
          "indexed": true,
          "internalType": "address",
          "name": "approved",
          "type": "address"
        },
        {
          "indexed": true,
          "internalType": "uint256",
          "name": "tokenId",
          "type": "uint256"
        }
      ],
      "name": "Approval",
      "type": "event"
    },
    {
      "anonymous": false,
      "inputs": [
        {
          "indexed": true,
          "internalType": "address",
          "name": "owner",
          "type": "address"
        },
        {
          "indexed": true,
          "internalType": "address",
          "name": "operator",
          "type": "address"
        },
        {
          "indexed": false,
          "internalType": "bool",
          "name": "approved",
          "type": "bool"
        }
      ],
      "name": "ApprovalForAll",
      "type": "event"
    },
    {
      "anonymous": false,
      "inputs": [
        {
          "indexed": false,
          "internalType": "string",
          "name": "newBaseURI",
          "type": "string"
        }
      ],
      "name": "BaseURISet",
      "type": "event"
    },
    {
      "anonymous": false,
      "inputs": [
        {
          "indexed": false,
          "internalType": "string",
          "name": "newContractURI",
          "type": "string"
        }
      ],
      "name": "ContractURIUpdated",
      "type": "event"
    },
    {
      "anonymous": false,
      "inputs": [
        {
          "indexed": true,
          "internalType": "address",
          "name": "newAddress",
          "type": "address"
        }
      ],
      "name": "DungeonCoreSet",
      "type": "event"
    },
    {
      "anonymous": false,
      "inputs": [
        {
          "indexed": true,
          "internalType": "address",
          "name": "newAddress",
          "type": "address"
        }
      ],
      "name": "HeroContractSet",
      "type": "event"
    },
    {
      "anonymous": false,
      "inputs": [
        {
          "indexed": true,
          "internalType": "address",
          "name": "operator",
          "type": "address"
        },
        {
          "indexed": false,
          "internalType": "bool",
          "name": "approved",
          "type": "bool"
        }
      ],
      "name": "OperatorApprovalSet",
      "type": "event"
    },
    {
      "anonymous": false,
      "inputs": [
        {
          "indexed": true,
          "internalType": "address",
          "name": "previousOwner",
          "type": "address"
        },
        {
          "indexed": true,
          "internalType": "address",
          "name": "newOwner",
          "type": "address"
        }
      ],
      "name": "OwnershipTransferred",
      "type": "event"
    },
    {
      "anonymous": false,
      "inputs": [
        {
          "indexed": true,
          "internalType": "uint256",
          "name": "partyId",
          "type": "uint256"
        },
        {
          "indexed": true,
          "internalType": "address",
          "name": "owner",
          "type": "address"
        },
        {
          "indexed": false,
          "internalType": "uint256[]",
          "name": "heroIds",
          "type": "uint256[]"
        },
        {
          "indexed": false,
          "internalType": "uint256[]",
          "name": "relicIds",
          "type": "uint256[]"
        },
        {
          "indexed": false,
          "internalType": "uint256",
          "name": "totalPower",
          "type": "uint256"
        },
        {
          "indexed": false,
          "internalType": "uint256",
          "name": "totalCapacity",
          "type": "uint256"
        },
        {
          "indexed": false,
          "internalType": "uint8",
          "name": "partyRarity",
          "type": "uint8"
        }
      ],
      "name": "PartyCreated",
      "type": "event"
    },
    {
      "anonymous": false,
      "inputs": [
        {
          "indexed": true,
          "internalType": "uint256",
          "name": "partyId",
          "type": "uint256"
        },
        {
          "indexed": true,
          "internalType": "address",
          "name": "owner",
          "type": "address"
        }
      ],
      "name": "PartyDisbanded",
      "type": "event"
    },
    {
      "anonymous": false,
      "inputs": [
        {
          "indexed": true,
          "internalType": "uint256",
          "name": "partyId",
          "type": "uint256"
        },
        {
          "indexed": true,
          "internalType": "address",
          "name": "owner",
          "type": "address"
        },
        {
          "indexed": true,
          "internalType": "uint256",
          "name": "heroId",
          "type": "uint256"
        }
      ],
      "name": "PartyMemberAdded",
      "type": "event"
    },
    {
      "anonymous": false,
      "inputs": [
        {
          "indexed": true,
          "internalType": "uint256",
          "name": "partyId",
          "type": "uint256"
        },
        {
          "indexed": false,
          "internalType": "uint256[]",
          "name": "heroIds",
          "type": "uint256[]"
        },
        {
          "indexed": false,
          "internalType": "uint256[]",
          "name": "relicIds",
          "type": "uint256[]"
        }
      ],
      "name": "PartyMemberChanged",
      "type": "event"
    },
    {
      "anonymous": false,
      "inputs": [
        {
          "indexed": true,
          "internalType": "uint256",
          "name": "partyId",
          "type": "uint256"
        },
        {
          "indexed": true,
          "internalType": "address",
          "name": "owner",
          "type": "address"
        },
        {
          "indexed": true,
          "internalType": "uint256",
          "name": "heroId",
          "type": "uint256"
        }
      ],
      "name": "PartyMemberRemoved",
      "type": "event"
    },
    {
      "anonymous": false,
      "inputs": [
        {
          "indexed": false,
          "internalType": "address",
          "name": "account",
          "type": "address"
        }
      ],
      "name": "Paused",
      "type": "event"
    },
    {
      "anonymous": false,
      "inputs": [
        {
          "indexed": false,
          "internalType": "uint256",
          "name": "newFee",
          "type": "uint256"
        }
      ],
      "name": "PlatformFeeSet",
      "type": "event"
    },
    {
      "anonymous": false,
      "inputs": [
        {
          "indexed": true,
          "internalType": "address",
          "name": "newAddress",
          "type": "address"
        }
      ],
      "name": "RelicContractSet",
      "type": "event"
    },
    {
      "anonymous": false,
      "inputs": [
        {
          "indexed": true,
          "internalType": "address",
          "name": "from",
          "type": "address"
        },
        {
          "indexed": true,
          "internalType": "address",
          "name": "to",
          "type": "address"
        },
        {
          "indexed": true,
          "internalType": "uint256",
          "name": "tokenId",
          "type": "uint256"
        }
      ],
      "name": "Transfer",
      "type": "event"
    },
    {
      "anonymous": false,
      "inputs": [
        {
          "indexed": false,
          "internalType": "address",
          "name": "account",
          "type": "address"
        }
      ],
      "name": "Unpaused",
      "type": "event"
    },
    {
      "inputs": [
        {
          "internalType": "address",
          "name": "to",
          "type": "address"
        },
        {
          "internalType": "uint256",
          "name": "tokenId",
          "type": "uint256"
        }
      ],
      "name": "approve",
      "outputs": [],
      "stateMutability": "nonpayable",
      "type": "function"
    },
    {
      "inputs": [
        {
          "internalType": "address",
          "name": "owner",
          "type": "address"
        }
      ],
      "name": "balanceOf",
      "outputs": [
        {
          "internalType": "uint256",
          "name": "",
          "type": "uint256"
        }
      ],
      "stateMutability": "view",
      "type": "function"
    },
    {
      "inputs": [],
      "name": "baseURI",
      "outputs": [
        {
          "internalType": "string",
          "name": "",
          "type": "string"
        }
      ],
      "stateMutability": "view",
      "type": "function"
    },
    {
      "inputs": [],
      "name": "contractURI",
      "outputs": [
        {
          "internalType": "string",
          "name": "",
          "type": "string"
        }
      ],
      "stateMutability": "view",
      "type": "function"
    },
    {
      "inputs": [
        {
          "internalType": "uint256[]",
          "name": "_heroIds",
          "type": "uint256[]"
        },
        {
          "internalType": "uint256[]",
          "name": "_relicIds",
          "type": "uint256[]"
        }
      ],
      "name": "createParty",
      "outputs": [
        {
          "internalType": "uint256",
          "name": "partyId",
          "type": "uint256"
        }
      ],
      "stateMutability": "payable",
      "type": "function"
    },
    {
      "inputs": [],
      "name": "dungeonCoreContract",
      "outputs": [
        {
          "internalType": "contract IDungeonCore",
          "name": "",
          "type": "address"
        }
      ],
      "stateMutability": "view",
      "type": "function"
    },
    {
      "inputs": [
        {
          "internalType": "uint256",
          "name": "tokenId",
          "type": "uint256"
        }
      ],
      "name": "getApproved",
      "outputs": [
        {
          "internalType": "address",
          "name": "",
          "type": "address"
        }
      ],
      "stateMutability": "view",
      "type": "function"
    },
    {
      "inputs": [
        {
          "internalType": "uint256",
          "name": "_partyId",
          "type": "uint256"
        }
      ],
      "name": "getPartyComposition",
      "outputs": [
        {
          "components": [
            {
              "internalType": "uint256[]",
              "name": "heroIds",
              "type": "uint256[]"
            },
            {
              "internalType": "uint256[]",
              "name": "relicIds",
              "type": "uint256[]"
            },
            {
              "internalType": "uint256",
              "name": "totalPower",
              "type": "uint256"
            },
            {
              "internalType": "uint256",
              "name": "totalCapacity",
              "type": "uint256"
            },
            {
              "internalType": "uint8",
              "name": "partyRarity",
              "type": "uint8"
            }
          ],
          "internalType": "struct Party.PartyComposition",
          "name": "",
          "type": "tuple"
        }
      ],
      "stateMutability": "view",
      "type": "function"
    },
    {
      "inputs": [],
      "name": "heroContract",
      "outputs": [
        {
          "internalType": "contract IHero",
          "name": "",
          "type": "address"
        }
      ],
      "stateMutability": "view",
      "type": "function"
    },
    {
      "inputs": [
        {
          "internalType": "address",
          "name": "owner",
          "type": "address"
        },
        {
          "internalType": "address",
          "name": "operator",
          "type": "address"
        }
      ],
      "name": "isApprovedForAll",
      "outputs": [
        {
          "internalType": "bool",
          "name": "",
          "type": "bool"
        }
      ],
      "stateMutability": "view",
      "type": "function"
    },
    {
      "inputs": [],
      "name": "name",
      "outputs": [
        {
          "internalType": "string",
          "name": "",
          "type": "string"
        }
      ],
      "stateMutability": "view",
      "type": "function"
    },
    {
      "inputs": [
        {
          "internalType": "address",
          "name": "",
          "type": "address"
        },
        {
          "internalType": "address",
          "name": "",
          "type": "address"
        },
        {
          "internalType": "uint256",
          "name": "",
          "type": "uint256"
        },
        {
          "internalType": "bytes",
          "name": "",
          "type": "bytes"
        }
      ],
      "name": "onERC721Received",
      "outputs": [
        {
          "internalType": "bytes4",
          "name": "",
          "type": "bytes4"
        }
      ],
      "stateMutability": "nonpayable",
      "type": "function"
    },
    {
      "inputs": [],
      "name": "owner",
      "outputs": [
        {
          "internalType": "address",
          "name": "",
          "type": "address"
        }
      ],
      "stateMutability": "view",
      "type": "function"
    },
    {
      "inputs": [
        {
          "internalType": "uint256",
          "name": "tokenId",
          "type": "uint256"
        }
      ],
      "name": "ownerOf",
      "outputs": [
        {
          "internalType": "address",
          "name": "",
          "type": "address"
        }
      ],
      "stateMutability": "view",
      "type": "function"
    },
    {
      "inputs": [
        {
          "internalType": "uint256",
          "name": "",
          "type": "uint256"
        }
      ],
      "name": "partyCompositions",
      "outputs": [
        {
          "internalType": "uint256",
          "name": "totalPower",
          "type": "uint256"
        },
        {
          "internalType": "uint256",
          "name": "totalCapacity",
          "type": "uint256"
        },
        {
          "internalType": "uint8",
          "name": "partyRarity",
          "type": "uint8"
        }
      ],
      "stateMutability": "view",
      "type": "function"
    },
    {
      "inputs": [],
      "name": "pause",
      "outputs": [],
      "stateMutability": "nonpayable",
      "type": "function"
    },
    {
      "inputs": [],
      "name": "paused",
      "outputs": [
        {
          "internalType": "bool",
          "name": "",
          "type": "bool"
        }
      ],
      "stateMutability": "view",
      "type": "function"
    },
    {
      "inputs": [],
      "name": "platformFee",
      "outputs": [
        {
          "internalType": "uint256",
          "name": "",
          "type": "uint256"
        }
      ],
      "stateMutability": "view",
      "type": "function"
    },
    {
      "inputs": [],
      "name": "relicContract",
      "outputs": [
        {
          "internalType": "contract IRelic",
          "name": "",
          "type": "address"
        }
      ],
      "stateMutability": "view",
      "type": "function"
    },
    {
      "inputs": [],
      "name": "renounceOwnership",
      "outputs": [],
      "stateMutability": "nonpayable",
      "type": "function"
    },
    {
      "inputs": [
        {
          "internalType": "address",
          "name": "from",
          "type": "address"
        },
        {
          "internalType": "address",
          "name": "to",
          "type": "address"
        },
        {
          "internalType": "uint256",
          "name": "tokenId",
          "type": "uint256"
        }
      ],
      "name": "safeTransferFrom",
      "outputs": [],
      "stateMutability": "nonpayable",
      "type": "function"
    },
    {
      "inputs": [
        {
          "internalType": "address",
          "name": "from",
          "type": "address"
        },
        {
          "internalType": "address",
          "name": "to",
          "type": "address"
        },
        {
          "internalType": "uint256",
          "name": "tokenId",
          "type": "uint256"
        },
        {
          "internalType": "bytes",
          "name": "data",
          "type": "bytes"
        }
      ],
      "name": "safeTransferFrom",
      "outputs": [],
      "stateMutability": "nonpayable",
      "type": "function"
    },
    {
      "inputs": [
        {
          "internalType": "address",
          "name": "operator",
          "type": "address"
        },
        {
          "internalType": "bool",
          "name": "approved",
          "type": "bool"
        }
      ],
      "name": "setApprovalForAll",
      "outputs": [],
      "stateMutability": "nonpayable",
      "type": "function"
    },
    {
      "inputs": [
        {
          "internalType": "string",
          "name": "_newBaseURI",
          "type": "string"
        }
      ],
      "name": "setBaseURI",
      "outputs": [],
      "stateMutability": "nonpayable",
      "type": "function"
    },
    {
      "inputs": [
        {
          "internalType": "string",
          "name": "newContractURI",
          "type": "string"
        }
      ],
      "name": "setContractURI",
      "outputs": [],
      "stateMutability": "nonpayable",
      "type": "function"
    },
    {
      "inputs": [
        {
          "internalType": "address",
          "name": "_coreAddress",
          "type": "address"
        }
      ],
      "name": "setDungeonCore",
      "outputs": [],
      "stateMutability": "nonpayable",
      "type": "function"
    },
    {
      "inputs": [
        {
          "internalType": "address",
          "name": "_heroAddress",
          "type": "address"
        }
      ],
      "name": "setHeroContract",
      "outputs": [],
      "stateMutability": "nonpayable",
      "type": "function"
    },
    {
      "inputs": [
        {
          "internalType": "address",
          "name": "operator",
          "type": "address"
        },
        {
          "internalType": "bool",
          "name": "approved",
          "type": "bool"
        }
      ],
      "name": "setOperatorApproval",
      "outputs": [],
      "stateMutability": "nonpayable",
      "type": "function"
    },
    {
      "inputs": [
        {
          "internalType": "uint256",
          "name": "_newFee",
          "type": "uint256"
        }
      ],
      "name": "setPlatformFee",
      "outputs": [],
      "stateMutability": "nonpayable",
      "type": "function"
    },
    {
      "inputs": [
        {
          "internalType": "address",
          "name": "_relicAddress",
          "type": "address"
        }
      ],
      "name": "setRelicContract",
      "outputs": [],
      "stateMutability": "nonpayable",
      "type": "function"
    },
    {
      "inputs": [
        {
          "internalType": "bytes4",
          "name": "interfaceId",
          "type": "bytes4"
        }
      ],
      "name": "supportsInterface",
      "outputs": [
        {
          "internalType": "bool",
          "name": "",
          "type": "bool"
        }
      ],
      "stateMutability": "view",
      "type": "function"
    },
    {
      "inputs": [],
      "name": "symbol",
      "outputs": [
        {
          "internalType": "string",
          "name": "",
          "type": "string"
        }
      ],
      "stateMutability": "view",
      "type": "function"
    },
    {
      "inputs": [
        {
          "internalType": "uint256",
          "name": "tokenId",
          "type": "uint256"
        }
      ],
      "name": "tokenURI",
      "outputs": [
        {
          "internalType": "string",
          "name": "",
          "type": "string"
        }
      ],
      "stateMutability": "view",
      "type": "function"
    },
    {
      "inputs": [
        {
          "internalType": "address",
          "name": "from",
          "type": "address"
        },
        {
          "internalType": "address",
          "name": "to",
          "type": "address"
        },
        {
          "internalType": "uint256",
          "name": "tokenId",
          "type": "uint256"
        }
      ],
      "name": "transferFrom",
      "outputs": [],
      "stateMutability": "nonpayable",
      "type": "function"
    },
    {
      "inputs": [
        {
          "internalType": "address",
          "name": "newOwner",
          "type": "address"
        }
      ],
      "name": "transferOwnership",
      "outputs": [],
      "stateMutability": "nonpayable",
      "type": "function"
    },
    {
      "inputs": [],
      "name": "unpause",
      "outputs": [],
      "stateMutability": "nonpayable",
      "type": "function"
    },
    {
      "inputs": [],
      "name": "withdrawNative",
      "outputs": [],
      "stateMutability": "nonpayable",
      "type": "function"
    },
    {
      "stateMutability": "payable",
      "type": "receive"
    }
  ],
  "bytecode": "0x608034620003d857601f906001600160401b03601f1962002c92388190038581018316850184811186821017620003c257859282916040528339602094859181010312620003d857516001600160a01b03948582169391849003620003d85762000068620003dd565b94601586527f44756e67656f6e2044656c766572732050617274790000000000000000000000818701526200009c620003dd565b90600382526204444560ec1b81830152865194848611620003c2576000958654986001998a81811c91168015620003b7575b85821014620003a35790818784931162000350575b508490878311600114620002ef578992620002e3575b5050600019600383901b1c191690891b1786555b8251948511620002cf5787548881811c91168015620002c4575b83821014620002b05790818587969594931162000257575b5081938511600114620001f25750508492620001e6575b5050600019600383901b1c191690841b1783555b8115620001ce57600680546001600160a01b0319811684179091556040519416907f8be0079c531659141344cd1fd0a4f28419497f9722a3daafe3b4186f6b6457e09080a38060075566038d7ea4c68000600e556010556128949081620003fe8239f35b60249060405190631e4fbdf760e01b82526004820152fd5b01519050388062000156565b889593929193168587528387209387905b8282106200023d575050841162000223575b505050811b0183556200016a565b015160001960f88460031b161c1916905538808062000215565b8484015186558a9790950194938401939081019062000203565b9091929394508887528287208580880160051c820192858910620002a6575b9188978c9297969594930160051c01915b828110620002975750506200013f565b8981558897508b910162000287565b9250819262000276565b634e487b7160e01b87526022600452602487fd5b90607f169062000127565b634e487b7160e01b86526041600452602486fd5b015190503880620000f9565b90848c9416918a8052868b20928b5b888282106200033957505084116200031f575b505050811b0186556200010d565b015160001960f88460031b161c1916905538808062000311565b8385015186558f97909501949384019301620002fe565b9091508880528489208780850160051c82019287861062000399575b918d91869594930160051c01915b8281106200038a575050620000e3565b8b81558594508d91016200037a565b925081926200036c565b634e487b7160e01b89526022600452602489fd5b90607f1690620000ce565b634e487b7160e01b600052604160045260246000fd5b600080fd5b60408051919082016001600160401b03811183821017620003c25760405256fe608080604052600436101561001d575b50361561001b57600080fd5b005b60003560e01c90816301ffc9a7146120125750806306fdde0314611f6f578063081812fc14611f31578063095ea7b314611e4a57806309e6938c14611e215780630daf999a14611df857806312e8e2c314611dac578063150b7a0214611d89578063216688e914611c9557806323b872dd14611c7e57806326232a2e14611c605780633e54a10c146110cd5780633f4ba83a1461106357806342842e0e1461103557806350431ce414610fb357806355f804b314610e355780635c975abb14610e125780636352211e14610de25780636ab1b29b14610d7b5780636c0360eb14610ce757806370a0823114610c8e578063715018a614610c315780638456cb5914610bd75780638da5cb5b14610bae578063938e3d7b146109e657806395d89b4114610943578063a22cb465146108b1578063a63a1098146107a1578063b2a475001461073a578063b88d4fde14610714578063c2dd62e0146106cb578063c87b56dd14610424578063d2ac0f59146103bd578063d5654ae714610394578063e8a3d485146102ae578063e985e9c5146102545763f2fde38b146101c1573861000f565b3461024f57602036600319011261024f576101da6120c5565b6101e261233a565b6001600160a01b0390811690811561023657600654826bffffffffffffffffffffffff60a01b821617600655167f8be0079c531659141344cd1fd0a4f28419497f9722a3daafe3b4186f6b6457e0600080a3005b604051631e4fbdf760e01b815260006004820152602490fd5b600080fd5b3461024f57604036600319011261024f5761026d6120c5565b6001600160a01b03602435818116929083900361024f57166000526005602052604060002090600052602052602060ff604060002054166040519015158152f35b3461024f57600036600319011261024f576040516000600a546102d0816122d1565b8084529060019081811690811561036d5750600114610312575b61030e846102fa81860382612124565b6040519182916020835260208301906120a0565b0390f35b600a600090815292507fc65a7bb8d6351c1cf70c95a316cc6a92839c986682d98bc35f958f4883f9d2a85b8284106103555750505081016020016102fa826102ea565b8054602085870181019190915290930192810161033d565b60ff191660208087019190915292151560051b850190920192506102fa91508390506102ea565b3461024f57600036600319011261024f57600c546040516001600160a01b039091168152602090f35b3461024f57602036600319011261024f576103d66120c5565b6103de61233a565b600b80546001600160a01b0319166001600160a01b039290921691821790557f66bc4bfd56f2104006bad233fc730445bafcda57858bcb241c43fe70a19ac73c600080a2005b3461024f5760208060031936011261024f5760043590610443826124ec565b50600954610450816122d1565b1561068d578283916000947a184f03e93ff9f4daa797ed6e38ed64bf6a1f010000000000000000908181101561067f575b50506d04ee2d6d415b85acef810000000080841015610671575b50662386f26fc1000080841015610662575b506305f5e10080841015610653575b5061271080841015610644575b506064831015610634575b600a8093101561062a575b6001808601936105076104f186612145565b956104ff6040519788612124565b808752612145565b9382602188880199601f19809801368c37880101905b6105fb575b505050604051958692600092610537826122d1565b918882821691826000146105d7575050600114610584575b50506105638291610570965193849161207d565b0103908101845283612124565b61030e6040519282849384528301906120a0565b8796929350600960005260008051602061283f833981519152906000915b8383106105bf57505050610570956105639185010192919561054f565b8054838c018a015289988b97509092019181016105a2565b60ff191687820152831515909302860190920193506105639150610570905061054f565b600019019082906f181899199a1a9b1b9c1cb0b131b232b360811b8282061a83530490838261051d5750610522565b93600101936104df565b93916064600291049201936104d4565b600491959304920193856104c9565b600891959304920193856104bc565b601091959304920193856104ad565b84919593049201938561049b565b604096500492508580610481565b60405162461bcd60e51b815260048101839052601660248201527514185c9d1e4e8818985cd9555492481b9bdd081cd95d60521b6044820152606490fd5b3461024f57602036600319011261024f57600435600052600f6020526060604060002060028101549060ff60046003830154920154169060405192835260208301526040820152f35b3461024f5761001b61072536612197565b92610734828483959495612366565b33612557565b3461024f57602036600319011261024f576107536120c5565b61075b61233a565b600c80546001600160a01b0319166001600160a01b039290921691821790557f8920e7fbf160226a5498b7a18e7982c9136f38ff4bd292188b6b680b82734a11600080a2005b3461024f576107af3661230b565b906107b861233a565b600b546001600160a01b039081169190823b1561024f5760405163a22cb46560e01b8082526001600160a01b03841660048301528515156024830152936000908290604490829084905af18015610896576108a2575b5080600c541692833b1561024f576040519081526001600160a01b03831660048201528415156024820152926000908490604490829084905af1918215610896577ff1cb32224287ba3650aebfd91bf2fe94119ae0f407439a55af908bc783e16d8393602093610887575b5060405194151585521692a2005b610890906120f6565b85610879565b6040513d6000823e3d90fd5b6108ab906120f6565b8461080e565b3461024f576108bf3661230b565b6001600160a01b0390911690811561092a5733600052600560205260406000208260005260205260406000209015159060ff1981541660ff83161790556040519081527f17307eab39ab6107e8899845ad3d59bd9653f200f220920489ca2b5937696c3160203392a3005b604051630b61174360e31b815260048101839052602490fd5b3461024f57600036600319011261024f5760405160006001805490610967826122d1565b8085529181811690811561036d575060011461098d5761030e846102fa81860382612124565b600081815292507fb10e2d527612073b26eecdfd717e6a320cf44b4afac2b0732d9fcbe2b7fa0cf65b8284106109ce5750505081016020016102fa826102ea565b805460208587018101919091529093019281016109b6565b3461024f576109f436612296565b6109fc61233a565b80516001600160401b038111610b9857610a17600a546122d1565b601f8111610b3e575b506020601f8211600114610a96579181610a86927f905d981207a7d0b6c62cc46ab0be2a076d0298e4a86d0ab79882dbd01ac3737894600091610a8b575b508160011b916000199060031b1c191617600a556040519182916020835260208301906120a0565b0390a1005b905082015185610a5e565b601f19821690600a6000527fc65a7bb8d6351c1cf70c95a316cc6a92839c986682d98bc35f958f4883f9d2a89160005b818110610b265750927f905d981207a7d0b6c62cc46ab0be2a076d0298e4a86d0ab79882dbd01ac37378949260019282610a869610610b0d575b5050811b01600a556102fa565b84015160001960f88460031b161c191690558580610b00565b91926020600181928689015181550194019201610ac6565b610b8890600a6000527fc65a7bb8d6351c1cf70c95a316cc6a92839c986682d98bc35f958f4883f9d2a8601f840160051c81019160208510610b8e575b601f0160051c0190612755565b82610a20565b9091508190610b7b565b634e487b7160e01b600052604160045260246000fd5b3461024f57600036600319011261024f576006546040516001600160a01b039091168152602090f35b3461024f57600036600319011261024f57610bf061233a565b610bf8612790565b600160ff1960085416176008557f62e78cea01bee320cd4e420270b5ea74000d11b0c9f74754ebdbfc544b05a2586020604051338152a1005b3461024f57600036600319011261024f57610c4a61233a565b600680546001600160a01b031981169091556000906001600160a01b03167f8be0079c531659141344cd1fd0a4f28419497f9722a3daafe3b4186f6b6457e08280a3005b3461024f57602036600319011261024f576001600160a01b03610caf6120c5565b168015610cce5760005260036020526020604060002054604051908152f35b6040516322718ad960e21b815260006004820152602490fd5b3461024f57600036600319011261024f576040516000600954610d09816122d1565b8084529060019081811690811561036d5750600114610d325761030e846102fa81860382612124565b60096000908152925060008051602061283f8339815191525b828410610d635750505081016020016102fa826102ea565b80546020858701810191909152909301928101610d4b565b3461024f57602036600319011261024f57610d946120c5565b610d9c61233a565b600d80546001600160a01b0319166001600160a01b039290921691821790557f45e919947eac4ba070dccb2545cf1e7e330fd110330232d74a6996e9e2308f24600080a2005b3461024f57602036600319011261024f576020610e006004356124ec565b6040516001600160a01b039091168152f35b3461024f57600036600319011261024f57602060ff600854166040519015158152f35b3461024f57610e4336612296565b610e4b61233a565b80516001600160401b038111610b9857610e666009546122d1565b601f8111610f76575b506020601f8211600114610ee0579181610a86927ff9c7803e94e0d3c02900d8a90893a6d5e90dd04d32a4cfe825520f82bf9f32f694600091610ed5575b508160011b916000199060031b1c1916176009556040519182916020835260208301906120a0565b905082015185610ead565b601f19821690600960005260008051602061283f8339815191529160005b818110610f5e5750927ff9c7803e94e0d3c02900d8a90893a6d5e90dd04d32a4cfe825520f82bf9f32f6949260019282610a869610610f45575b5050811b016009556102fa565b84015160001960f88460031b161c191690558580610f38565b91926020600181928689015181550194019201610efe565b610fad90600960005260008051602061283f833981519152601f840160051c81019160208510610b8e57601f0160051c0190612755565b82610e6f565b3461024f57600036600319011261024f57610fcc61233a565b600080808060018060a01b036006541647905af1610fe8612527565b5015610ff057005b60405162461bcd60e51b815260206004820152601d60248201527f50617274793a204e6174697665207769746864726177206661696c65640000006044820152606490fd5b3461024f5761001b61104636612231565b906040519261105484612109565b60008452610734838383612366565b3461024f57600036600319011261024f5761107c61233a565b60085460ff8116156110bb5760ff19166008557f5db9ee0a495bf2e6ff9c91a7834c1ba4fdd244a5e8aa4e537bd38aeae4b073aa6020604051338152a1005b604051638dfc202b60e01b8152600490fd5b604036600319011261024f576004356001600160401b03811161024f576110f8903690600401612266565b6024356001600160401b03811161024f57611117903690600401612266565b91600260075414611c4e57600260075561112f612790565b600e543410611c09578215611bb85760058311611b6557600b546001600160a01b03169384151580611b51575b15611b0c57600c5460009586949185906001600160a01b03165b8782106119b7575050868411611966576000905b84821061180f57505060005b8581106117a5575060005b83811061172b5750601054946111b6876127ff565b926040516111c3816120db565b6111ce3687846126ff565b81526111db3684866126ff565b602082015286604082015288606082015260ff8516608082015287600052600f602052604060002081518051906001600160401b038211610b9857600160401b8211610b9857602090835483855580841061170e575b500182600052602060002060005b8381106116fa575050505060208201518051906001600160401b038211610b9857600160401b8211610b985760209060018401548360018601558084106116da575b500160018301600052602060002060005b8381106116c657505050506080600460ff926040850151600282015560608501516003820155019201511660ff198254161790556040516112d2816120db565b6112dd3687846126ff565b81526112ea3684866126ff565b602082015286604082015288606082015260ff8516608082015287600052600f602052604060002081518051906001600160401b038211610b9857600160401b8211610b985760209083548385558084106116a9575b500182600052602060002060005b838110611695575050505060208201518051906001600160401b038211610b9857600160401b8211610b98576020906001840154836001860155808410611675575b500160018301600052602060002060005b83811061166157505050506080600460ff926040850151600282015560608501516003820155019201511660ff198254161790556040516113e181612109565b600081523315611648576000888152600260205260409020546001600160a01b031680151590899082611611575b3360005260036020526040600020600181540190558160005260026020526040600020336bffffffffffffffffffffffff60a01b82541617905533907fddf252ad1be2c89b69c2b068fc378daa952ba7f163c4a11628f55a4df523b3ef600080a46115f857333b6114ff575b50926020976114db88969460ff946114ce7f413f0fef11af2aeba882c1ea18fd9839a41aa41359e93be50ffcbbedf2610461986114b960105461267a565b6010556040519860a08a5260a08a019161276c565b918783038d89015261276c565b96604085015260608401521660808201528033940390a36001600755604051908152f35b60409593949195516020818061153e630a85bd0160e11b95868352336004840152600060248401528d60448401526080606484015260848301906120a0565b03816000335af1600091816115b3575b506115805761155b612527565b8051908161157b57604051633250574960e11b8152336004820152602490fd5b602001fd5b6001600160e01b0319160361159b579193919291602061147b565b604051633250574960e11b8152336004820152602490fd5b9091506020813d6020116115f0575b816115cf60209383612124565b8101031261024f57516001600160e01b03198116810361024f57908b61154e565b3d91506115c2565b6040516339e3563760e11b815260006004820152602490fd5b600082815260046020526040902080546001600160a01b03191690558060005260036020526040600020600019815401905561140f565b604051633250574960e11b815260006004820152602490fd5b6001906020845194019381840155016113a1565b61168f906001860160005284846000209182019101612755565b8d611390565b60019060208451940193818401550161134e565b6116c0908560005284846000209182019101612755565b8d611340565b600190602084519401938184015501611292565b6116f4906001860160005284846000209182019101612755565b8d611281565b60019060208451940193818401550161123f565b611725908560005284846000209182019101612755565b8d611231565b600b546001600160a01b03169061174381868661269f565b3591803b1561024f57604051632142170760e11b815233600482015230602482015260448101939093526000908390606490829084905af19182156108965761179192611796575b5061267a565b6111a1565b61179f906120f6565b8861178b565b600c546001600160a01b0316906117bd81888561269f565b3591803b1561024f57604051632142170760e11b815233600482015230602482015260448101939093526000908390606490829084905af19182156108965761180a92611796575061267a565b611196565b909461181c86868661269f565b6040516331a9108f60e11b815290356004820152602081602481865afa90811561089657600091611937575b50336001600160a01b03909116036118f35761186586868661269f565b60408051631a9b371b60e21b81529135600483015281602481865afa908115610896576000916118aa575b5061189e906118a4926126f2565b9561267a565b9061118a565b90506040813d6040116118eb575b816118c560409383612124565b8101031261024f576118a4916020826118e061189e946126e4565b500151915091611890565b3d91506118b8565b606460405162461bcd60e51b815260206004820152602060248201527f50617274793a20596f7520646f206e6f74206f776e20616c6c206865726f65736044820152fd5b611959915060203d60201161195f575b6119518183612124565b8101906126c5565b89611848565b503d611947565b60405162461bcd60e51b815260206004820152602360248201527f50617274793a20546f6f206d616e79206865726f657320666f7220636170616360448201526269747960e81b6064820152608490fd5b90976119c489898661269f565b6040516331a9108f60e11b815290356004820152602081602481865afa90811561089657600091611aed575b50336001600160a01b0390911603611aa957611a0d89898661269f565b60408051635fdfe65960e11b81529135600483015281602481865afa90811561089657600091611a56575b50611a509160ff611a4a9216906126f2565b9861267a565b90611176565b90506040813d604011611aa1575b81611a7160409383612124565b8101031261024f57611a509160ff611a98602084611a91611a4a966126e4565b50016126e4565b92505091611a38565b3d9150611a64565b606460405162461bcd60e51b815260206004820152602060248201527f50617274793a20596f7520646f206e6f74206f776e20616c6c2072656c6963736044820152fd5b611b06915060203d60201161195f576119518183612124565b8a6119f0565b60405162461bcd60e51b815260206004820152601860248201527f50617274793a20436f6e747261637473206e6f742073657400000000000000006044820152606490fd5b50600c546001600160a01b0316151561115c565b60405162461bcd60e51b815260206004820152602560248201527f50617274793a2043616e6e6f742068617665206d6f7265207468616e20352072604482015264656c69637360d81b6064820152608490fd5b60405162461bcd60e51b815260206004820152602360248201527f50617274793a204d7573742068617665206174206c65617374206f6e652072656044820152626c696360e81b6064820152608490fd5b60405162461bcd60e51b815260206004820152601b60248201527f50617274793a20506c6174666f726d20666565206e6f74206d657400000000006044820152606490fd5b604051633ee5aeb560e01b8152600490fd5b3461024f57600036600319011261024f576020600e54604051908152f35b3461024f5761001b611c8f36612231565b91612366565b3461024f5760208060031936011261024f5760a09060043560006080604051611cbd816120db565b606081526060858201528260408201528260608201520152611cde816124ec565b50600052600f8152604060002060ff60405192611cfa846120db565b611d03836127ae565b8452611d11600184016127ae565b92818501938452611d7160028201549460408701958652611d5e85600460038601549560608b019687520154169460808901958652604051998a99828b5251918a015260c08901906121fd565b9051878203601f190160408901526121fd565b93516060860152516080850152511660a08301520390f35b3461024f57611d9736612197565b505050506020604051630a85bd0160e11b8152f35b3461024f57602036600319011261024f577fdc4e4be378c228e1b7b13787e1d0620609304c2f71ed3a6ee69e4aae99d58cd96020600435611deb61233a565b80600e55604051908152a1005b3461024f57600036600319011261024f57600b546040516001600160a01b039091168152602090f35b3461024f57600036600319011261024f57600d546040516001600160a01b039091168152602090f35b3461024f57604036600319011261024f57611e636120c5565b602435611e6f816124ec565b33151580611f1e575b80611ef1575b611ed9576001600160a01b039283169282918491167f8c5be1e5ebec7d5bd14f71427d1e84f3dd0314c0f7b2291e5b200ac8c7c3b925600080a4600090815260046020526040902080546001600160a01b0319169091179055005b60405163a9fbf51f60e01b8152336004820152602490fd5b5060018060a01b038116600052600560205260406000203360005260205260ff6040600020541615611e7e565b506001600160a01b038116331415611e78565b3461024f57602036600319011261024f57600435611f4e816124ec565b506000526004602052602060018060a01b0360406000205416604051908152f35b3461024f57600036600319011261024f5760405160008054611f90816122d1565b8084529060019081811690811561036d5750600114611fb95761030e846102fa81860382612124565b600080805292507f290decd9548b62a8d60345a988386fc84ba6bc95484008f6362f93160ef3e5635b828410611ffa5750505081016020016102fa826102ea565b80546020858701810191909152909301928101611fe2565b3461024f57602036600319011261024f576004359063ffffffff60e01b821680920361024f576020916380ac58cd60e01b811490811561206c575b811561205b575b5015158152f35b6301ffc9a760e01b14905083612054565b635b5e139f60e01b8114915061204d565b60005b8381106120905750506000910152565b8181015183820152602001612080565b906020916120b98151809281855285808601910161207d565b601f01601f1916010190565b600435906001600160a01b038216820361024f57565b60a081019081106001600160401b03821117610b9857604052565b6001600160401b038111610b9857604052565b602081019081106001600160401b03821117610b9857604052565b90601f801991011681019081106001600160401b03821117610b9857604052565b6001600160401b038111610b9857601f01601f191660200190565b92919261216c82612145565b9161217a6040519384612124565b82948184528183011161024f578281602093846000960137010152565b90608060031983011261024f576001600160a01b0391600435838116810361024f5792602435908116810361024f579160443591606435906001600160401b03821161024f578060238301121561024f578160246121fa93600401359101612160565b90565b90815180825260208080930193019160005b82811061221d575050505090565b83518552938101939281019260010161220f565b606090600319011261024f576001600160a01b0390600435828116810361024f5791602435908116810361024f579060443590565b9181601f8401121561024f578235916001600160401b03831161024f576020808501948460051b01011161024f57565b602060031982011261024f57600435906001600160401b03821161024f578060238301121561024f578160246121fa93600401359101612160565b90600182811c92168015612301575b60208310146122eb57565b634e487b7160e01b600052602260045260246000fd5b91607f16916122e0565b604090600319011261024f576004356001600160a01b038116810361024f5790602435801515810361024f5790565b6006546001600160a01b0316330361234e57565b60405163118cdaa760e01b8152336004820152602490fd5b6001600160a01b03918216929091831561164857600092828452826020956002875260409684888820541696879133151580612456575b509060027fddf252ad1be2c89b69c2b068fc378daa952ba7f163c4a11628f55a4df523b3ef9284612423575b858352600381528b8320805460010190558683525289812080546001600160a01b0319168517905580a416928383036124025750505050565b6064945051926364283d7b60e01b8452600484015260248301526044820152fd5b600087815260046020526040902080546001600160a01b0319169055848352600381528b832080546000190190556123c9565b919394509150806124ab575b156124725785929187913861239d565b87868861248f576024915190637e27328960e01b82526004820152fd5b604491519063177e802f60e01b82523360048301526024820152fd5b5033871480156124d0575b806124625750858252600481523385898420541614612462565b5086825260058152878220338352815260ff88832054166124b6565b6000818152600260205260409020546001600160a01b031690811561250f575090565b60249060405190637e27328960e01b82526004820152fd5b3d15612552573d9061253882612145565b916125466040519384612124565b82523d6000602084013e565b606090565b9293823b612567575b5050505050565b6125ab9060018060a01b038094169560405194859481630a85bd0160e11b9889885216600487015216602485015260448401526080606484015260848301906120a0565b03906020816000938185885af19082908261262b575b50506125f957826125d0612527565b80519190826125f257604051633250574960e11b815260048101839052602490fd5b9050602001fd5b6001600160e01b0319160361261357503880808080612560565b60249060405190633250574960e11b82526004820152fd5b909192506020813d8211612672575b8161264760209383612124565b8101031261266e5751906001600160e01b03198216820361266b57509038806125c1565b80fd5b5080fd5b3d915061263a565b60001981146126895760010190565b634e487b7160e01b600052601160045260246000fd5b91908110156126af5760051b0190565b634e487b7160e01b600052603260045260246000fd5b9081602091031261024f57516001600160a01b038116810361024f5790565b519060ff8216820361024f57565b9190820180921161268957565b9092916001600160401b038411610b98578360051b604051926020809461272882850182612124565b809781520191810192831161024f57905b8282106127465750505050565b81358152908301908301612739565b818110612760575050565b60008155600101612755565b81835290916001600160fb1b03831161024f5760209260051b809284830137010190565b60ff6008541661279c57565b60405163d93c066560e01b8152600490fd5b9060405191828154918282526020928383019160005283600020936000905b8282106127e5575050506127e392500383612124565b565b8554845260019586019588955093810193909101906127cd565b601481101561283857600f81101561283257600a81101561282c576005111561282757600190565b600290565b50600390565b50600490565b5060059056fe6e1540171b6c0c960b71a7020d9f60077f6af931a8bbf590da0223dacf75c7afa2646970667358221220fde5e05467102bda356d3824087d7bda7af4d96fe65ecead2a4d6eca737fcc6664736f6c63430008140033",
  "linkReferences": {},
  "deployedLinkReferences": {}
}