{
  "_format": "hh-sol-artifact-1",
  "contractName": "PlayerProfile",
  "sourceName": "contracts/current/nft/PlayerProfile.sol",
  "abi": [
    {
      "inputs": [
        {
          "internalType": "address",
          "name": "initialOwner",
          "type": "address"
        }
      ],
      "stateMutability": "nonpayable",
      "type": "constructor"
    },
    {
      "inputs": [
        {
          "internalType": "address",
          "name": "sender",
          "type": "address"
        },
        {
          "internalType": "uint256",
          "name": "tokenId",
          "type": "uint256"
        },
        {
          "internalType": "address",
          "name": "owner",
          "type": "address"
        }
      ],
      "name": "ERC721IncorrectOwner",
      "type": "error"
    },
    {
      "inputs": [
        {
          "internalType": "address",
          "name": "operator",
          "type": "address"
        },
        {
          "internalType": "uint256",
          "name": "tokenId",
          "type": "uint256"
        }
      ],
      "name": "ERC721InsufficientApproval",
      "type": "error"
    },
    {
      "inputs": [
        {
          "internalType": "address",
          "name": "approver",
          "type": "address"
        }
      ],
      "name": "ERC721InvalidApprover",
      "type": "error"
    },
    {
      "inputs": [
        {
          "internalType": "address",
          "name": "operator",
          "type": "address"
        }
      ],
      "name": "ERC721InvalidOperator",
      "type": "error"
    },
    {
      "inputs": [
        {
          "internalType": "address",
          "name": "owner",
          "type": "address"
        }
      ],
      "name": "ERC721InvalidOwner",
      "type": "error"
    },
    {
      "inputs": [
        {
          "internalType": "address",
          "name": "receiver",
          "type": "address"
        }
      ],
      "name": "ERC721InvalidReceiver",
      "type": "error"
    },
    {
      "inputs": [
        {
          "internalType": "address",
          "name": "sender",
          "type": "address"
        }
      ],
      "name": "ERC721InvalidSender",
      "type": "error"
    },
    {
      "inputs": [
        {
          "internalType": "uint256",
          "name": "tokenId",
          "type": "uint256"
        }
      ],
      "name": "ERC721NonexistentToken",
      "type": "error"
    },
    {
      "inputs": [],
      "name": "EnforcedPause",
      "type": "error"
    },
    {
      "inputs": [],
      "name": "ExpectedPause",
      "type": "error"
    },
    {
      "inputs": [
        {
          "internalType": "address",
          "name": "owner",
          "type": "address"
        }
      ],
      "name": "OwnableInvalidOwner",
      "type": "error"
    },
    {
      "inputs": [
        {
          "internalType": "address",
          "name": "account",
          "type": "address"
        }
      ],
      "name": "OwnableUnauthorizedAccount",
      "type": "error"
    },
    {
      "anonymous": false,
      "inputs": [
        {
          "indexed": true,
          "internalType": "address",
          "name": "owner",
          "type": "address"
        },
        {
          "indexed": true,
          "internalType": "address",
          "name": "approved",
          "type": "address"
        },
        {
          "indexed": true,
          "internalType": "uint256",
          "name": "tokenId",
          "type": "uint256"
        }
      ],
      "name": "Approval",
      "type": "event"
    },
    {
      "anonymous": false,
      "inputs": [
        {
          "indexed": true,
          "internalType": "address",
          "name": "owner",
          "type": "address"
        },
        {
          "indexed": true,
          "internalType": "address",
          "name": "operator",
          "type": "address"
        },
        {
          "indexed": false,
          "internalType": "bool",
          "name": "approved",
          "type": "bool"
        }
      ],
      "name": "ApprovalForAll",
      "type": "event"
    },
    {
      "anonymous": false,
      "inputs": [
        {
          "indexed": false,
          "internalType": "string",
          "name": "newBaseURI",
          "type": "string"
        }
      ],
      "name": "BaseURISet",
      "type": "event"
    },
    {
      "anonymous": false,
      "inputs": [
        {
          "indexed": false,
          "internalType": "string",
          "name": "newContractURI",
          "type": "string"
        }
      ],
      "name": "ContractURIUpdated",
      "type": "event"
    },
    {
      "anonymous": false,
      "inputs": [
        {
          "indexed": true,
          "internalType": "address",
          "name": "player",
          "type": "address"
        },
        {
          "indexed": true,
          "internalType": "uint256",
          "name": "tokenId",
          "type": "uint256"
        },
        {
          "indexed": false,
          "internalType": "uint256",
          "name": "amount",
          "type": "uint256"
        },
        {
          "indexed": false,
          "internalType": "uint256",
          "name": "newTotalExperience",
          "type": "uint256"
        }
      ],
      "name": "ExperienceAdded",
      "type": "event"
    },
    {
      "anonymous": false,
      "inputs": [
        {
          "indexed": true,
          "internalType": "address",
          "name": "previousOwner",
          "type": "address"
        },
        {
          "indexed": true,
          "internalType": "address",
          "name": "newOwner",
          "type": "address"
        }
      ],
      "name": "OwnershipTransferred",
      "type": "event"
    },
    {
      "anonymous": false,
      "inputs": [
        {
          "indexed": false,
          "internalType": "address",
          "name": "account",
          "type": "address"
        }
      ],
      "name": "Paused",
      "type": "event"
    },
    {
      "anonymous": false,
      "inputs": [
        {
          "indexed": true,
          "internalType": "address",
          "name": "player",
          "type": "address"
        },
        {
          "indexed": true,
          "internalType": "uint256",
          "name": "tokenId",
          "type": "uint256"
        }
      ],
      "name": "ProfileCreated",
      "type": "event"
    },
    {
      "anonymous": false,
      "inputs": [
        {
          "indexed": true,
          "internalType": "address",
          "name": "from",
          "type": "address"
        },
        {
          "indexed": true,
          "internalType": "address",
          "name": "to",
          "type": "address"
        },
        {
          "indexed": true,
          "internalType": "uint256",
          "name": "tokenId",
          "type": "uint256"
        }
      ],
      "name": "Transfer",
      "type": "event"
    },
    {
      "anonymous": false,
      "inputs": [
        {
          "indexed": false,
          "internalType": "address",
          "name": "account",
          "type": "address"
        }
      ],
      "name": "Unpaused",
      "type": "event"
    },
    {
      "inputs": [
        {
          "internalType": "address",
          "name": "_player",
          "type": "address"
        },
        {
          "internalType": "uint256",
          "name": "_amount",
          "type": "uint256"
        }
      ],
      "name": "addExperience",
      "outputs": [],
      "stateMutability": "nonpayable",
      "type": "function"
    },
    {
      "inputs": [
        {
          "internalType": "address",
          "name": "",
          "type": "address"
        },
        {
          "internalType": "uint256",
          "name": "",
          "type": "uint256"
        }
      ],
      "name": "approve",
      "outputs": [],
      "stateMutability": "pure",
      "type": "function"
    },
    {
      "inputs": [
        {
          "internalType": "address",
          "name": "owner",
          "type": "address"
        }
      ],
      "name": "balanceOf",
      "outputs": [
        {
          "internalType": "uint256",
          "name": "",
          "type": "uint256"
        }
      ],
      "stateMutability": "view",
      "type": "function"
    },
    {
      "inputs": [],
      "name": "baseURI",
      "outputs": [
        {
          "internalType": "string",
          "name": "",
          "type": "string"
        }
      ],
      "stateMutability": "view",
      "type": "function"
    },
    {
      "inputs": [],
      "name": "contractURI",
      "outputs": [
        {
          "internalType": "string",
          "name": "",
          "type": "string"
        }
      ],
      "stateMutability": "view",
      "type": "function"
    },
    {
      "inputs": [],
      "name": "dungeonCore",
      "outputs": [
        {
          "internalType": "contract IDungeonCore",
          "name": "",
          "type": "address"
        }
      ],
      "stateMutability": "view",
      "type": "function"
    },
    {
      "inputs": [
        {
          "internalType": "uint256",
          "name": "tokenId",
          "type": "uint256"
        }
      ],
      "name": "getApproved",
      "outputs": [
        {
          "internalType": "address",
          "name": "",
          "type": "address"
        }
      ],
      "stateMutability": "view",
      "type": "function"
    },
    {
      "inputs": [
        {
          "internalType": "address",
          "name": "_player",
          "type": "address"
        }
      ],
      "name": "getExperience",
      "outputs": [
        {
          "internalType": "uint256",
          "name": "",
          "type": "uint256"
        }
      ],
      "stateMutability": "view",
      "type": "function"
    },
    {
      "inputs": [
        {
          "internalType": "address",
          "name": "_player",
          "type": "address"
        }
      ],
      "name": "getLevel",
      "outputs": [
        {
          "internalType": "uint256",
          "name": "",
          "type": "uint256"
        }
      ],
      "stateMutability": "view",
      "type": "function"
    },
    {
      "inputs": [
        {
          "internalType": "address",
          "name": "owner",
          "type": "address"
        },
        {
          "internalType": "address",
          "name": "operator",
          "type": "address"
        }
      ],
      "name": "isApprovedForAll",
      "outputs": [
        {
          "internalType": "bool",
          "name": "",
          "type": "bool"
        }
      ],
      "stateMutability": "view",
      "type": "function"
    },
    {
      "inputs": [
        {
          "internalType": "address",
          "name": "_player",
          "type": "address"
        }
      ],
      "name": "mintProfile",
      "outputs": [
        {
          "internalType": "uint256",
          "name": "",
          "type": "uint256"
        }
      ],
      "stateMutability": "nonpayable",
      "type": "function"
    },
    {
      "inputs": [],
      "name": "name",
      "outputs": [
        {
          "internalType": "string",
          "name": "",
          "type": "string"
        }
      ],
      "stateMutability": "view",
      "type": "function"
    },
    {
      "inputs": [],
      "name": "owner",
      "outputs": [
        {
          "internalType": "address",
          "name": "",
          "type": "address"
        }
      ],
      "stateMutability": "view",
      "type": "function"
    },
    {
      "inputs": [
        {
          "internalType": "uint256",
          "name": "tokenId",
          "type": "uint256"
        }
      ],
      "name": "ownerOf",
      "outputs": [
        {
          "internalType": "address",
          "name": "",
          "type": "address"
        }
      ],
      "stateMutability": "view",
      "type": "function"
    },
    {
      "inputs": [],
      "name": "pause",
      "outputs": [],
      "stateMutability": "nonpayable",
      "type": "function"
    },
    {
      "inputs": [],
      "name": "paused",
      "outputs": [
        {
          "internalType": "bool",
          "name": "",
          "type": "bool"
        }
      ],
      "stateMutability": "view",
      "type": "function"
    },
    {
      "inputs": [
        {
          "internalType": "uint256",
          "name": "",
          "type": "uint256"
        }
      ],
      "name": "profileData",
      "outputs": [
        {
          "internalType": "uint256",
          "name": "experience",
          "type": "uint256"
        }
      ],
      "stateMutability": "view",
      "type": "function"
    },
    {
      "inputs": [
        {
          "internalType": "address",
          "name": "",
          "type": "address"
        }
      ],
      "name": "profileTokenOf",
      "outputs": [
        {
          "internalType": "uint256",
          "name": "",
          "type": "uint256"
        }
      ],
      "stateMutability": "view",
      "type": "function"
    },
    {
      "inputs": [],
      "name": "renounceOwnership",
      "outputs": [],
      "stateMutability": "nonpayable",
      "type": "function"
    },
    {
      "inputs": [
        {
          "internalType": "address",
          "name": "from",
          "type": "address"
        },
        {
          "internalType": "address",
          "name": "to",
          "type": "address"
        },
        {
          "internalType": "uint256",
          "name": "tokenId",
          "type": "uint256"
        }
      ],
      "name": "safeTransferFrom",
      "outputs": [],
      "stateMutability": "nonpayable",
      "type": "function"
    },
    {
      "inputs": [
        {
          "internalType": "address",
          "name": "",
          "type": "address"
        },
        {
          "internalType": "address",
          "name": "",
          "type": "address"
        },
        {
          "internalType": "uint256",
          "name": "",
          "type": "uint256"
        },
        {
          "internalType": "bytes",
          "name": "",
          "type": "bytes"
        }
      ],
      "name": "safeTransferFrom",
      "outputs": [],
      "stateMutability": "pure",
      "type": "function"
    },
    {
      "inputs": [
        {
          "internalType": "address",
          "name": "",
          "type": "address"
        },
        {
          "internalType": "bool",
          "name": "",
          "type": "bool"
        }
      ],
      "name": "setApprovalForAll",
      "outputs": [],
      "stateMutability": "pure",
      "type": "function"
    },
    {
      "inputs": [
        {
          "internalType": "string",
          "name": "_newBaseURI",
          "type": "string"
        }
      ],
      "name": "setBaseURI",
      "outputs": [],
      "stateMutability": "nonpayable",
      "type": "function"
    },
    {
      "inputs": [
        {
          "internalType": "string",
          "name": "newContractURI",
          "type": "string"
        }
      ],
      "name": "setContractURI",
      "outputs": [],
      "stateMutability": "nonpayable",
      "type": "function"
    },
    {
      "inputs": [
        {
          "internalType": "address",
          "name": "_address",
          "type": "address"
        }
      ],
      "name": "setDungeonCore",
      "outputs": [],
      "stateMutability": "nonpayable",
      "type": "function"
    },
    {
      "inputs": [
        {
          "internalType": "bytes4",
          "name": "interfaceId",
          "type": "bytes4"
        }
      ],
      "name": "supportsInterface",
      "outputs": [
        {
          "internalType": "bool",
          "name": "",
          "type": "bool"
        }
      ],
      "stateMutability": "view",
      "type": "function"
    },
    {
      "inputs": [],
      "name": "symbol",
      "outputs": [
        {
          "internalType": "string",
          "name": "",
          "type": "string"
        }
      ],
      "stateMutability": "view",
      "type": "function"
    },
    {
      "inputs": [
        {
          "internalType": "uint256",
          "name": "_tokenId",
          "type": "uint256"
        }
      ],
      "name": "tokenURI",
      "outputs": [
        {
          "internalType": "string",
          "name": "",
          "type": "string"
        }
      ],
      "stateMutability": "view",
      "type": "function"
    },
    {
      "inputs": [
        {
          "internalType": "address",
          "name": "",
          "type": "address"
        },
        {
          "internalType": "address",
          "name": "",
          "type": "address"
        },
        {
          "internalType": "uint256",
          "name": "",
          "type": "uint256"
        }
      ],
      "name": "transferFrom",
      "outputs": [],
      "stateMutability": "pure",
      "type": "function"
    },
    {
      "inputs": [
        {
          "internalType": "address",
          "name": "newOwner",
          "type": "address"
        }
      ],
      "name": "transferOwnership",
      "outputs": [],
      "stateMutability": "nonpayable",
      "type": "function"
    },
    {
      "inputs": [],
      "name": "unpause",
      "outputs": [],
      "stateMutability": "nonpayable",
      "type": "function"
    }
  ],
  "bytecode": "0x608034620003d0576001600160401b0390601f90601f1962001f5e388190038481018316840186811185821017620003d557849282916040528339602093849181010312620003d057516001600160a01b03948582169391849003620003d05762000069620003eb565b94601786527f44756e67656f6e2044656c766572732050726f66696c65000000000000000000838701526200009d620003eb565b600493848252632222282360e11b81830152875195848711620003bb5760009687549960019a8b81811c91168015620003b0575b858210146200039d579081878493116200034a575b508490878311600114620002e0578a92620002d4575b5050600019600383901b1c1916908a1b1787555b8251948511620002c15788548981811c91168015620002b6575b83821014620002a3579081858796959493116200024a575b5081938511600114620001e55750508592620001d9575b5050600019600383901b1c191690851b1784555b8215620001c35750600680546001600160a01b0319811684179091556040519416907f8be0079c531659141344cd1fd0a4f28419497f9722a3daafe3b4186f6b6457e09080a3600c55611b5290816200040c8239f35b60249160405191631e4fbdf760e01b8352820152fd5b01519050388062000159565b899593929193168588528388209388905b82821062000230575050841162000216575b505050811b0184556200016d565b015160001960f88460031b161c1916905538808062000208565b8484015186558b97909501949384019390810190620001f6565b9091929394508988528288208580880160051c82019285891062000299575b9188978d9297969594930160051c01915b8281106200028a57505062000142565b8a81558897508c91016200027a565b9250819262000269565b634e487b7160e01b885260228752602488fd5b90607f16906200012a565b634e487b7160e01b875260418652602487fd5b015190503880620000fc565b90848d9416918b8052868c20928c5b888282106200032a575050841162000310575b505050811b01875562000110565b015160001960f88460031b161c1916905538808062000302565b91929395968291958786015181550195019301908e9594939291620002ef565b909150898052848a208780850160051c82019287861062000393575b918e91869594930160051c01915b82811062000384575050620000e6565b8c81558594508e910162000374565b9250819262000366565b634e487b7160e01b8a526022895260248afd5b90607f1690620000d1565b604186634e487b7160e01b6000525260246000fd5b600080fd5b634e487b7160e01b600052604160045260246000fd5b60408051919082016001600160401b03811183821017620003d55760405256fe60806040908082526004918236101561001757600080fd5b600091823560e01c90816301ffc9a7146111e55750806306fdde031461113e578063081812fc14611102578063095ea7b3146110955780631e11b41f1461105e57806323b872dd146110475780632b39b08514610fa55780633f4ba83a14610f3557806342842e0e14610f1357806355f804b314610d7e5780635c975abb14610d585780636352211e14610d2757806367cfab5814610cff5780636ab1b29b14610cbf5780636b743a2c14610c9a5780636c0360eb14610c0357806370a0823114610bae578063715018a614610b51578063817c896614610b255780638456cb5914610ac55780638da5cb5b14610a9d578063938e3d7b146108cb57806395d89b4114610824578063a22cb465146107ac578063b88d4fde14610751578063bd1f1d0f14610729578063c87b56dd1461047f578063e8a3d48514610397578063e985e9c51461034a578063f2fde38b146102bb5763f3007bc41461017a57600080fd5b346102b757806003193601126102b757610192611299565b60075490916001600160a01b0391821691602435906101b2841515611486565b82518094630c0d0d1760e41b8252818960209788935afa9081156102ad576101e69183918991610280575b501633146114f1565b6101ee61154e565b841692838652600b81528286205494851561026e575b50848652600a815282862080549083820180921161025b577fa7a100dc7b9fa49f88b6c89096ad7a0688569ba48df44cdd8f0af94ca6dfc4d3959697985055858752600a815282872054908351928352820152a380f35b634e487b7160e01b885260118952602488fd5b61027991955061156f565b9338610204565b6102a09150873d89116102a6575b6102988183611331565b8101906114d2565b386101dd565b503d61028e565b84513d89823e3d90fd5b5080fd5b508234610346576020366003190112610346576102d6611299565b906102df61141f565b6001600160a01b03918216928315610330575050600654826001600160601b0360a01b821617600655167f8be0079c531659141344cd1fd0a4f28419497f9722a3daafe3b4186f6b6457e08380a380f35b51631e4fbdf760e01b8152908101849052602490fd5b8280fd5b50346102b757806003193601126102b75760ff81602093610369611299565b6103716112b4565b6001600160a01b0391821683526005875283832091168252855220549151911615158152f35b50346102b757816003193601126102b757805190826009546103b8816113e5565b8085529160019180831690811561045757506001146103fa575b5050506103e4826103f6940383611331565b51918291602083526020830190611274565b0390f35b9450600985527f6e1540171b6c0c960b71a7020d9f60077f6af931a8bbf590da0223dacf75c7af5b82861061043f575050506103e48260206103f695820101946103d2565b80546020878701810191909152909501948101610422565b6103f69750869350602092506103e494915060ff191682840152151560051b820101946103d2565b50346102b757602091826003193601126107265783359061049f8261144b565b50600854946104ad866113e5565b156106e357829082907a184f03e93ff9f4daa797ed6e38ed64bf6a1f01000000000000000083818110156106d6575b5050866d04ee2d6d415b85acef8100000000808510156106c7575b5050662386f26fc10000808410156106b8575b506305f5e100808410156106a9575b506127108084101561069d575b5050606482101561068f575b600a80921015610687575b6001918282019061056561055083611353565b9261055d89519485611331565b808452611353565b958460218a850195601f19809a01368837850101905b610658575b50505085519784899594610593836113e5565b928a82821691826000146106315750506001146105e3575b50505091806105c76105d495936103f698979551938491611251565b0103908101865285611331565b51928284938452830190611274565b899394955060088252600080516020611afd8339815191525b838310610617575050508401019190806105c76103f66105ab565b80549783018501979097528a968a949092019181016105fc565b60ff191689820152841515909402880190930195508392506105c791506103f690506105ab565b600019019082906f181899199a1a9b1b9c1cb0b131b232b360811b8282061a83530490858261057b5750610580565b60010161053d565b906064600291049101610532565b90920491013880610526565b60089192930492019038610519565b6010919293049201903861050a565b909192930492019086386104f7565b04925085915038806104dc565b835162461bcd60e51b8152908101859052601860248201527f50726f66696c653a2062617365555249206e6f742073657400000000000000006044820152606490fd5b80fd5b508234610346576020366003190112610346576020928291358152600a845220549051908152f35b8284346102b75760803660031901126102b75761076c611299565b506107756112b4565b5060643567ffffffffffffffff81116103465736602382011215610346576107a6925060248136930135910161136f565b506118e8565b509190346107265782600319360112610726576107c7611299565b506024358015150361072657506020608492519162461bcd60e51b8352820152602560248201527f506c6179657250726f66696c653a205342542063616e6e6f74206265206170706044820152641c9bdd995960da1b6064820152fd5b50346102b757816003193601126102b757805190826001805491610847836113e5565b80865292828116908115610457575060011461086f575050506103e4826103f6940383611331565b94508085527fb10e2d527612073b26eecdfd717e6a320cf44b4afac2b0732d9fcbe2b7fa0cf65b8286106108b3575050506103e48260206103f695820101946103d2565b80546020878701810191909152909501948101610896565b50346102b7576108da366113a6565b906108e361141f565b81519367ffffffffffffffff8511610a8a57506109016009546113e5565b601f8111610a27575b50602093601f8111600114610981579081610970939285967f905d981207a7d0b6c62cc46ab0be2a076d0298e4a86d0ab79882dbd01ac373789691610976575b508160011b916000199060031b1c19161760095551918291602083526020830190611274565b0390a180f35b90508301513861094a565b600984527f6e1540171b6c0c960b71a7020d9f60077f6af931a8bbf590da0223dacf75c7af601f198216855b818110610a0f5750916001917f905d981207a7d0b6c62cc46ab0be2a076d0298e4a86d0ab79882dbd01ac37378969782610970979695106109f6575b5050811b016009556103e4565b85015160001960f88460031b161c1916905538806109e9565b858801518355602097880197600190930192016109ad565b600984527f6e1540171b6c0c960b71a7020d9f60077f6af931a8bbf590da0223dacf75c7af601f860160051c81019160208710610a80575b601f0160051c01905b818110610a75575061090a565b848155600101610a68565b9091508190610a5f565b634e487b7160e01b845260419052602483fd5b50346102b757816003193601126102b75760065490516001600160a01b039091168152602090f35b50346102b757816003193601126102b75760207f62e78cea01bee320cd4e420270b5ea74000d11b0c9f74754ebdbfc544b05a25891610b0261141f565b610b0a61154e565b6006805460ff60a01b1916600160a01b17905551338152a180f35b50346102b75760203660031901126102b757602090610b4a610b45611299565b61193e565b9051908152f35b8234610726578060031936011261072657610b6a61141f565b600680546001600160a01b0319811690915581906001600160a01b03167f8be0079c531659141344cd1fd0a4f28419497f9722a3daafe3b4186f6b6457e08280a380f35b509034610726576020366003190112610726576001600160a01b03610bd1611299565b16928315610bee5750806020938392526003845220549051908152f35b91516322718ad960e21b815291820152602490fd5b50346102b757816003193601126102b75780519082600854610c24816113e5565b808552916001918083169081156104575750600114610c4f575050506103e4826103f6940383611331565b945060088552600080516020611afd8339815191525b828610610c82575050506103e48260206103f695820101946103d2565b80546020878701810191909152909501948101610c65565b50346102b75760203660031901126102b757602090610b4a610cba611299565b611ac7565b823461072657602036600319011261072657610cd9611299565b610ce161141f565b60018060a01b03166001600160601b0360a01b600754161760075580f35b50346102b757816003193601126102b75760075490516001600160a01b039091168152602090f35b5090346107265760203660031901126107265750610d476020923561144b565b90516001600160a01b039091168152f35b50346102b757816003193601126102b75760209060ff60065460a01c1690519015158152f35b50346102b757610d8d366113a6565b90610d9661141f565b81519367ffffffffffffffff8511610a8a5750610db46008546113e5565b601f8111610ec2575b50602093601f8111600114610e2e579081610970939285967ff9c7803e94e0d3c02900d8a90893a6d5e90dd04d32a4cfe825520f82bf9f32f69691610e23575b508160011b916000199060031b1c19161760085551918291602083526020830190611274565b905083015138610dfd565b60088452600080516020611afd833981519152601f198216855b818110610eaa5750916001917ff9c7803e94e0d3c02900d8a90893a6d5e90dd04d32a4cfe825520f82bf9f32f696978261097097969510610e91575b5050811b016008556103e4565b85015160001960f88460031b161c191690553880610e84565b85880151835560209788019760019093019201610e48565b60088452600080516020611afd833981519152601f860160051c81019160208710610f09575b601f0160051c01905b818110610efe5750610dbd565b848155600101610ef1565b9091508190610ee8565b50346102b757610f22366112ca565b50505051610f2f816112ff565b526118e8565b508234610346578260031936011261034657610f4f61141f565b6006549060ff8260a01c1615610f97575060ff60a01b1916600655513381527f5db9ee0a495bf2e6ff9c91a7834c1ba4fdd244a5e8aa4e537bd38aeae4b073aa90602090a180f35b8251638dfc202b60e01b8152fd5b50823461034657602036600319011261034657610fc0611299565b60075490916001600160a01b03916020908316610fde811515611486565b8551630c0d0d1760e41b815292839182905afa90811561103d579161101391610b4a94936020979161102057501633146114f1565b61101b61154e565b61156f565b6110379150873d81116102a6576102988183611331565b876101dd565b84513d87823e3d90fd5b823461072657611056366112ca565b5050506118e8565b50346102b75760203660031901126102b75760209181906001600160a01b03611085611299565b168152600b845220549051908152f35b509190346107265782600319360112610726575060206084926110b6611299565b505162461bcd60e51b815291820152602560248201527f506c6179657250726f66696c653a205342542063616e6e6f74206265206170706044820152641c9bdd995960da1b6064820152fd5b508234610346576020366003190112610346579182602093356111248161144b565b50825283528190205490516001600160a01b039091168152f35b50346102b757816003193601126102b75780519082805461115e816113e5565b808552916001918083169081156104575750600114611189575050506103e4826103f6940383611331565b80809650527f290decd9548b62a8d60345a988386fc84ba6bc95484008f6362f93160ef3e5635b8286106111cd575050506103e48260206103f695820101946103d2565b805460208787018101919091529095019481016111b0565b83908534610346576020366003190112610346573563ffffffff60e01b811680910361034657602092506380ac58cd60e01b8114908115611240575b811561122f575b5015158152f35b6301ffc9a760e01b14905083611228565b635b5e139f60e01b81149150611221565b60005b8381106112645750506000910152565b8181015183820152602001611254565b9060209161128d81518092818552858086019101611251565b601f01601f1916010190565b600435906001600160a01b03821682036112af57565b600080fd5b602435906001600160a01b03821682036112af57565b60609060031901126112af576001600160a01b039060043582811681036112af579160243590811681036112af579060443590565b6020810190811067ffffffffffffffff82111761131b57604052565b634e487b7160e01b600052604160045260246000fd5b90601f8019910116810190811067ffffffffffffffff82111761131b57604052565b67ffffffffffffffff811161131b57601f01601f191660200190565b92919261137b82611353565b916113896040519384611331565b8294818452818301116112af578281602093846000960137010152565b60206003198201126112af576004359067ffffffffffffffff82116112af57806023830112156112af578160246113e29360040135910161136f565b90565b90600182811c92168015611415575b60208310146113ff57565b634e487b7160e01b600052602260045260246000fd5b91607f16916113f4565b6006546001600160a01b0316330361143357565b60405163118cdaa760e01b8152336004820152602490fd5b6000818152600260205260409020546001600160a01b031690811561146e575090565b60249060405190637e27328960e01b82526004820152fd5b1561148d57565b60405162461bcd60e51b815260206004820152601c60248201527f50726f66696c653a2044756e67656f6e436f7265206e6f7420736574000000006044820152606490fd5b908160209103126112af57516001600160a01b03811681036112af5790565b156114f857565b60405162461bcd60e51b815260206004820152602860248201527f50726f66696c653a2043616c6c6572206973206e6f74207468652044756e676560448201526737b726b0b9ba32b960c11b6064820152608490fd5b60ff60065460a01c1661155d57565b60405163d93c066560e01b8152600490fd5b6001600160a01b038082166000818152600b602090815260408083205492969594909261187757600c54946000198087146118635760018701600c558451926115b7846112ff565b898452861561184b57878a526002855280868b2054166117f357878a5260028552858a2054169081151590816117c7575b50868a5260038552858a2060018154019055878a5260028552858a20876001600160601b0360a01b82541617905587878751937fddf252ad1be2c89b69c2b068fc378daa952ba7f163c4a11628f55a4df523b3ef8d80a46117b157503b61168c575b5094807fcb939889322fed25104a5d8945bde5162563412a1fd718946cdcacb03088ea0892600a869798868452600b815287838520558784525281205580a390565b829491939592518481806116c8630a85bd0160e11b958683523360048401528c6024840152876044840152608060648401526084830190611274565b03818b8b5af188918161176d575b5061173757505050503d60001461172e573d6116f181611353565b906116fe84519283611331565b81528094823d92013e5b83519384611728578251633250574960e11b815260048101859052602490fd5b84925001fd5b60609350611708565b63ffffffff60e0989497959396981b1603611755579094908561164a565b8551633250574960e11b815260048101849052602490fd5b9091508581813d83116117aa575b6117858183611331565b810103126117a657516001600160e01b0319811681036117a65790386116d6565b8880fd5b503d61177b565b6339e3563760e11b815260048101899052602490fd5b60048652868b2080546001600160a01b0319169055828b5260038652868b2080549091019055386115e8565b855162461bcd60e51b815260048101869052602b60248201527f506c6179657250726f66696c653a205468697320534254206973206e6f6e2d7460448201526a72616e7366657261626c6560a81b6064820152608490fd5b8551633250574960e11b8152600481018b9052602490fd5b634e487b7160e01b89526011600452602489fd5b50608491519062461bcd60e51b82526004820152602560248201527f506c6179657250726f66696c653a2050726f66696c6520616c72656164792065604482015264786973747360d81b6064820152fd5b81156118d2570490565b634e487b7160e01b600052601260045260246000fd5b60405162461bcd60e51b815260206004820152602860248201527f506c6179657250726f66696c653a205342542063616e6e6f74206265207472616044820152671b9cd9995c9c995960c21b6064820152608490fd5b6001600160a01b03166000908152600b602052604081205480156119a7578152600a6020526040812054606481106119a057606461197c91046119ab565b906001820180921161198c575090565b634e487b7160e01b81526011600452602490fd5b5050600190565b5090565b6001808211156119a757611a68908083600160801b811015611ab5575b80600160401b6004921015611aa8575b640100000000811015611a9b575b62010000811015611a8e575b610100811015611a82575b6010811015611a76575b1015611a6f575b600302811c611a1d81856118c8565b01811c611a2a81856118c8565b01811c611a3781856118c8565b01811c611a4481856118c8565b01811c611a5181856118c8565b01811c611a5e81856118c8565b01901c80926118c8565b8111900390565b811b611a0e565b811c9160021b91611a07565b60081c91811b916119fd565b60101c9160081b916119f2565b60201c9160101b916119e6565b60401c9160201b916119d8565b50600160401b9050608084901c6119c8565b6001600160a01b03166000908152600b60205260409020548015611af657600052600a60205260406000205490565b5060009056fef3f7a9fe364faab93b216da50a3214154f22a0a2b415b23a84c8169e8b636ee3a26469706673582212204081552fd1943951be24bfc319dde31964390cea73be2e2ec61120fe1e1bc2df64736f6c63430008140033",
  "linkReferences": {},
  "deployedLinkReferences": {}
}