{
  "_format": "hh-sol-artifact-1",
  "contractName": "PlayerVault",
  "sourceName": "contracts/PlayerVault.sol",
  "abi": [
    {
      "inputs": [
        {
          "internalType": "address",
          "name": "initialOwner",
          "type": "address"
        }
      ],
      "stateMutability": "nonpayable",
      "type": "constructor"
    },
    {
      "inputs": [
        {
          "internalType": "address",
          "name": "owner",
          "type": "address"
        }
      ],
      "name": "OwnableInvalidOwner",
      "type": "error"
    },
    {
      "inputs": [
        {
          "internalType": "address",
          "name": "account",
          "type": "address"
        }
      ],
      "name": "OwnableUnauthorizedAccount",
      "type": "error"
    },
    {
      "inputs": [],
      "name": "ReentrancyGuardReentrantCall",
      "type": "error"
    },
    {
      "inputs": [
        {
          "internalType": "address",
          "name": "token",
          "type": "address"
        }
      ],
      "name": "SafeERC20FailedOperation",
      "type": "error"
    },
    {
      "anonymous": false,
      "inputs": [
        {
          "indexed": true,
          "internalType": "address",
          "name": "user",
          "type": "address"
        },
        {
          "indexed": true,
          "internalType": "address",
          "name": "referrer",
          "type": "address"
        },
        {
          "indexed": false,
          "internalType": "uint256",
          "name": "amount",
          "type": "uint256"
        }
      ],
      "name": "CommissionPaid",
      "type": "event"
    },
    {
      "anonymous": false,
      "inputs": [
        {
          "indexed": true,
          "internalType": "address",
          "name": "player",
          "type": "address"
        },
        {
          "indexed": false,
          "internalType": "uint256",
          "name": "amount",
          "type": "uint256"
        }
      ],
      "name": "Deposited",
      "type": "event"
    },
    {
      "anonymous": false,
      "inputs": [
        {
          "indexed": true,
          "internalType": "address",
          "name": "newAddress",
          "type": "address"
        }
      ],
      "name": "DungeonCoreSet",
      "type": "event"
    },
    {
      "anonymous": false,
      "inputs": [
        {
          "indexed": true,
          "internalType": "address",
          "name": "player",
          "type": "address"
        },
        {
          "indexed": true,
          "internalType": "address",
          "name": "spender",
          "type": "address"
        },
        {
          "indexed": false,
          "internalType": "uint256",
          "name": "amount",
          "type": "uint256"
        }
      ],
      "name": "GameSpending",
      "type": "event"
    },
    {
      "anonymous": false,
      "inputs": [
        {
          "indexed": true,
          "internalType": "address",
          "name": "previousOwner",
          "type": "address"
        },
        {
          "indexed": true,
          "internalType": "address",
          "name": "newOwner",
          "type": "address"
        }
      ],
      "name": "OwnershipTransferred",
      "type": "event"
    },
    {
      "anonymous": false,
      "inputs": [
        {
          "indexed": true,
          "internalType": "address",
          "name": "user",
          "type": "address"
        },
        {
          "indexed": true,
          "internalType": "address",
          "name": "referrer",
          "type": "address"
        }
      ],
      "name": "ReferralSet",
      "type": "event"
    },
    {
      "anonymous": false,
      "inputs": [
        {
          "indexed": true,
          "internalType": "address",
          "name": "newAddress",
          "type": "address"
        }
      ],
      "name": "SoulShardTokenSet",
      "type": "event"
    },
    {
      "anonymous": false,
      "inputs": [
        {
          "indexed": false,
          "internalType": "uint256",
          "name": "standardRate",
          "type": "uint256"
        },
        {
          "indexed": false,
          "internalType": "uint256",
          "name": "largeRate",
          "type": "uint256"
        },
        {
          "indexed": false,
          "internalType": "uint256",
          "name": "decreaseRate",
          "type": "uint256"
        },
        {
          "indexed": false,
          "internalType": "uint256",
          "name": "period",
          "type": "uint256"
        }
      ],
      "name": "TaxParametersUpdated",
      "type": "event"
    },
    {
      "anonymous": false,
      "inputs": [
        {
          "indexed": false,
          "internalType": "uint256",
          "name": "smallAmount",
          "type": "uint256"
        },
        {
          "indexed": false,
          "internalType": "uint256",
          "name": "largeAmount",
          "type": "uint256"
        }
      ],
      "name": "WithdrawThresholdsUpdated",
      "type": "event"
    },
    {
      "anonymous": false,
      "inputs": [
        {
          "indexed": true,
          "internalType": "address",
          "name": "player",
          "type": "address"
        },
        {
          "indexed": false,
          "internalType": "uint256",
          "name": "amount",
          "type": "uint256"
        },
        {
          "indexed": false,
          "internalType": "uint256",
          "name": "taxAmount",
          "type": "uint256"
        }
      ],
      "name": "Withdrawn",
      "type": "event"
    },
    {
      "inputs": [],
      "name": "PERCENT_DIVISOR",
      "outputs": [
        {
          "internalType": "uint256",
          "name": "",
          "type": "uint256"
        }
      ],
      "stateMutability": "view",
      "type": "function"
    },
    {
      "inputs": [],
      "name": "USD_DECIMALS",
      "outputs": [
        {
          "internalType": "uint256",
          "name": "",
          "type": "uint256"
        }
      ],
      "stateMutability": "view",
      "type": "function"
    },
    {
      "inputs": [],
      "name": "commissionRate",
      "outputs": [
        {
          "internalType": "uint256",
          "name": "",
          "type": "uint256"
        }
      ],
      "stateMutability": "view",
      "type": "function"
    },
    {
      "inputs": [],
      "name": "decreaseRatePerPeriod",
      "outputs": [
        {
          "internalType": "uint256",
          "name": "",
          "type": "uint256"
        }
      ],
      "stateMutability": "view",
      "type": "function"
    },
    {
      "inputs": [
        {
          "internalType": "address",
          "name": "_player",
          "type": "address"
        },
        {
          "internalType": "uint256",
          "name": "_amount",
          "type": "uint256"
        }
      ],
      "name": "deposit",
      "outputs": [],
      "stateMutability": "nonpayable",
      "type": "function"
    },
    {
      "inputs": [],
      "name": "dungeonCore",
      "outputs": [
        {
          "internalType": "contract IDungeonCore",
          "name": "",
          "type": "address"
        }
      ],
      "stateMutability": "view",
      "type": "function"
    },
    {
      "inputs": [
        {
          "internalType": "address",
          "name": "_user",
          "type": "address"
        }
      ],
      "name": "getTotalCommissionPaid",
      "outputs": [
        {
          "internalType": "uint256",
          "name": "",
          "type": "uint256"
        }
      ],
      "stateMutability": "view",
      "type": "function"
    },
    {
      "inputs": [],
      "name": "largeWithdrawInitialRate",
      "outputs": [
        {
          "internalType": "uint256",
          "name": "",
          "type": "uint256"
        }
      ],
      "stateMutability": "view",
      "type": "function"
    },
    {
      "inputs": [],
      "name": "largeWithdrawThresholdUSD",
      "outputs": [
        {
          "internalType": "uint256",
          "name": "",
          "type": "uint256"
        }
      ],
      "stateMutability": "view",
      "type": "function"
    },
    {
      "inputs": [],
      "name": "owner",
      "outputs": [
        {
          "internalType": "address",
          "name": "",
          "type": "address"
        }
      ],
      "stateMutability": "view",
      "type": "function"
    },
    {
      "inputs": [],
      "name": "periodDuration",
      "outputs": [
        {
          "internalType": "uint256",
          "name": "",
          "type": "uint256"
        }
      ],
      "stateMutability": "view",
      "type": "function"
    },
    {
      "inputs": [
        {
          "internalType": "address",
          "name": "",
          "type": "address"
        }
      ],
      "name": "playerInfo",
      "outputs": [
        {
          "internalType": "uint256",
          "name": "withdrawableBalance",
          "type": "uint256"
        },
        {
          "internalType": "uint256",
          "name": "lastWithdrawTimestamp",
          "type": "uint256"
        },
        {
          "internalType": "uint256",
          "name": "lastFreeWithdrawTimestamp",
          "type": "uint256"
        }
      ],
      "stateMutability": "view",
      "type": "function"
    },
    {
      "inputs": [
        {
          "internalType": "address",
          "name": "",
          "type": "address"
        }
      ],
      "name": "referrers",
      "outputs": [
        {
          "internalType": "address",
          "name": "",
          "type": "address"
        }
      ],
      "stateMutability": "view",
      "type": "function"
    },
    {
      "inputs": [],
      "name": "renounceOwnership",
      "outputs": [],
      "stateMutability": "nonpayable",
      "type": "function"
    },
    {
      "inputs": [
        {
          "internalType": "uint256",
          "name": "_newRate",
          "type": "uint256"
        }
      ],
      "name": "setCommissionRate",
      "outputs": [],
      "stateMutability": "nonpayable",
      "type": "function"
    },
    {
      "inputs": [
        {
          "internalType": "address",
          "name": "_newAddress",
          "type": "address"
        }
      ],
      "name": "setDungeonCore",
      "outputs": [],
      "stateMutability": "nonpayable",
      "type": "function"
    },
    {
      "inputs": [
        {
          "internalType": "address",
          "name": "_referrer",
          "type": "address"
        }
      ],
      "name": "setReferrer",
      "outputs": [],
      "stateMutability": "nonpayable",
      "type": "function"
    },
    {
      "inputs": [
        {
          "internalType": "address",
          "name": "_newAddress",
          "type": "address"
        }
      ],
      "name": "setSoulShardToken",
      "outputs": [],
      "stateMutability": "nonpayable",
      "type": "function"
    },
    {
      "inputs": [
        {
          "internalType": "uint256",
          "name": "_standardRate",
          "type": "uint256"
        },
        {
          "internalType": "uint256",
          "name": "_largeRate",
          "type": "uint256"
        },
        {
          "internalType": "uint256",
          "name": "_decreaseRate",
          "type": "uint256"
        },
        {
          "internalType": "uint256",
          "name": "_period",
          "type": "uint256"
        }
      ],
      "name": "setTaxParameters",
      "outputs": [],
      "stateMutability": "nonpayable",
      "type": "function"
    },
    {
      "inputs": [
        {
          "internalType": "uint256",
          "name": "_smallUSD",
          "type": "uint256"
        },
        {
          "internalType": "uint256",
          "name": "_largeUSD",
          "type": "uint256"
        }
      ],
      "name": "setWithdrawThresholds",
      "outputs": [],
      "stateMutability": "nonpayable",
      "type": "function"
    },
    {
      "inputs": [],
      "name": "smallWithdrawThresholdUSD",
      "outputs": [
        {
          "internalType": "uint256",
          "name": "",
          "type": "uint256"
        }
      ],
      "stateMutability": "view",
      "type": "function"
    },
    {
      "inputs": [],
      "name": "soulShardToken",
      "outputs": [
        {
          "internalType": "contract IERC20",
          "name": "",
          "type": "address"
        }
      ],
      "stateMutability": "view",
      "type": "function"
    },
    {
      "inputs": [
        {
          "internalType": "address",
          "name": "_player",
          "type": "address"
        },
        {
          "internalType": "uint256",
          "name": "_amount",
          "type": "uint256"
        }
      ],
      "name": "spendForGame",
      "outputs": [],
      "stateMutability": "nonpayable",
      "type": "function"
    },
    {
      "inputs": [],
      "name": "standardInitialRate",
      "outputs": [
        {
          "internalType": "uint256",
          "name": "",
          "type": "uint256"
        }
      ],
      "stateMutability": "view",
      "type": "function"
    },
    {
      "inputs": [
        {
          "internalType": "address",
          "name": "",
          "type": "address"
        }
      ],
      "name": "totalCommissionPaid",
      "outputs": [
        {
          "internalType": "uint256",
          "name": "",
          "type": "uint256"
        }
      ],
      "stateMutability": "view",
      "type": "function"
    },
    {
      "inputs": [
        {
          "internalType": "address",
          "name": "newOwner",
          "type": "address"
        }
      ],
      "name": "transferOwnership",
      "outputs": [],
      "stateMutability": "nonpayable",
      "type": "function"
    },
    {
      "inputs": [
        {
          "internalType": "uint256",
          "name": "_amount",
          "type": "uint256"
        }
      ],
      "name": "withdraw",
      "outputs": [],
      "stateMutability": "nonpayable",
      "type": "function"
    },
    {
      "inputs": [
        {
          "internalType": "uint256",
          "name": "amount",
          "type": "uint256"
        }
      ],
      "name": "withdrawGameRevenue",
      "outputs": [],
      "stateMutability": "nonpayable",
      "type": "function"
    }
  ],
  "bytecode": "0x6080346100f657601f6116d338819003918201601f19168301916001600160401b038311848410176100fb578084926020946040528339810103126100f657516001600160a01b0390818116908190036100f65780156100dd57600080546001600160a01b03198116831782556040519316907f8be0079c531659141344cd1fd0a4f28419497f9722a3daafe3b4186f6b6457e09080a3600180556801158e460913d00000600755683635c9adc5dea000006008556109c4600955610fa0600a556101f480600b5562015180600c55600d556115c190816101128239f35b604051631e4fbdf760e01b815260006004820152602490fd5b600080fd5b634e487b7160e01b600052604160045260246000fdfe6080604081815260048036101561001557600080fd5b600092833560e01c90816311ed52a014610d0c5750806319fac8fd14610c9b5780631a65627014610c7c5780632680dace14610c265780632e1a7d4d14610bfa5780632f6ee69514610bd757806331d3ee3e14610bb85780634403940214610b8f57806347e7ef2414610a1c5780634870dd9a146109ff5780634a3b68cc146109c45780634b114691146109795780635ea1d6f81461095a578063633b71e01461089157806367cfab58146109315780636ab1b29b146108c95780636ef3750a14610891578063715018a6146108375780638213a45e146108185780638da5cb5b146107f0578063903866d5146107045780639e662432146106c8578063a18a7bfc14610555578063b470aade14610536578063d064ff191461026e578063db4b826814610203578063f1f83d49146101e05763f2fde38b1461015757600080fd5b346101dc5760203660031901126101dc57610170610d28565b90610179610d43565b6001600160a01b039182169283156101c657505082546001600160a01b0319811683178455167f8be0079c531659141344cd1fd0a4f28419497f9722a3daafe3b4186f6b6457e08380a380f35b51631e4fbdf760e01b8152908101849052602490fd5b8280fd5b5050346101ff57816003193601126101ff576020906007549051908152f35b5080fd5b833461026b57602036600319011261026b5761021d610d28565b610225610d43565b600380546001600160a01b0319166001600160a01b039290921691821790557f5b041fdbb07c066df55211c4936ce14e84504e79020b987168fa2022f1b13e798280a280f35b80fd5b50346101dc57816003193601126101dc57610287610d28565b6024359260018060a01b038060025416926102a38415156111f9565b8251634456f2b360e11b81526020949085818881855afa9081156104be5784889288928c91610519575b501633149283156104c8575b831561046d575b8315610403575b505050156103aa578116938487528084528287209081549087821061035157507fd1f3ab7fef91f74744b2f63450bdbbfec79ac3a2c20b76b991db964e1b3f4dce9493926103479261033a898094611264565b9055339060035416611271565b519384523393a380f35b845162461bcd60e51b8152908101869052602d60248201527f5661756c743a20496e73756666696369656e742062616c616e636520666f722060448201526c67616d65207370656e64696e6760981b6064820152608490fd5b50505162461bcd60e51b815291820152602d60248201527f5661756c743a2043616c6c6572206e6f7420616e20617574686f72697a65642060448201526c19d85b594818dbdb9d1c9858dd609a1b606482015260849150fd5b865163d5654ae760e01b815293509091839182905afa908115610463579083918991610436575b501633148585386102e7565b6104569150863d881161045c575b61044e8183610d92565b810190611245565b3861042a565b503d610444565b84513d8a823e3d90fd5b9250505083516306d7cccd60e11b815285818881855afa9081156104be5784889288928c916104a1575b50163314926102e0565b6104b89150833d851161045c5761044e8183610d92565b38610497565b85513d8b823e3d90fd5b92505050835163a565118360e01b815285818881855afa9081156104be5784889288928c916104fc575b50163314926102d9565b6105139150833d851161045c5761044e8183610d92565b386104f2565b6105309150833d851161045c5761044e8183610d92565b386102cd565b5050346101ff57816003193601126101ff57602090600c549051908152f35b5090346101dc576020806003193601126106c457610571610d28565b610579610d6f565b33855260058252828520546001600160a01b03919082166106815716923384146106405783156105f05750600590338552528220816bffffffffffffffffffffffff60a01b825416179055337fdf63218877cb126f6c003f2b7f77327674cd6a0b53ad51deac392548ec12b0ed8380a36001805580f35b915162461bcd60e51b815291820152602660248201527f5661756c743a2052656665727265722063616e6e6f74206265207a65726f206160448201526564647265737360d01b6064820152608490fd5b915162461bcd60e51b815291820152601c60248201527f5661756c743a2043616e6e6f7420726566657220796f757273656c66000000006044820152606490fd5b835162461bcd60e51b8152808601849052601b60248201527f5661756c743a20526566657272657220616c72656164792073657400000000006044820152606490fd5b8380fd5b8382346101ff5760203660031901126101ff57610701906106e7610d43565b60035483549135916001600160a01b039081169116611271565b80f35b508290346101ff5760803660031901126101ff57803590602435604435906064359261072e610d43565b6127108086111590816107e5575b816107da575b50156107975750918391866080947f9f4e62618379396b5a38c2e5b06da821921329e7a5601f574100f8df362f06669660095580600a5582600b5583600c55815194855260208501528301526060820152a180f35b606490602088519162461bcd60e51b8352820152601760248201527f526174652063616e6e6f742065786365656420313030250000000000000000006044820152fd5b905083111588610742565b80841115915061073c565b5050346101ff57816003193601126101ff57905490516001600160a01b039091168152602090f35b5050346101ff57816003193601126101ff57602090600a549051908152f35b833461026b578060031936011261026b57610850610d43565b80546001600160a01b03198116825581906001600160a01b03167f8be0079c531659141344cd1fd0a4f28419497f9722a3daafe3b4186f6b6457e08280a380f35b5050346101ff5760203660031901126101ff5760209181906001600160a01b036108b9610d28565b1681526006845220549051908152f35b833461026b57602036600319011261026b576108e3610d28565b6108eb610d43565b600280546001600160a01b0319166001600160a01b039290921691821790557f45e919947eac4ba070dccb2545cf1e7e330fd110330232d74a6996e9e2308f248280a280f35b5050346101ff57816003193601126101ff5760025490516001600160a01b039091168152602090f35b5050346101ff57816003193601126101ff57602090600d549051908152f35b50346101dc5760203660031901126101dc5760609282916001600160a01b036109a0610d28565b16825260205220805491600260018301549201549181519384526020840152820152f35b5050346101ff5760203660031901126101ff576020916001600160a01b03908290826109ee610d28565b168152600585522054169051908152f35b5050346101ff57816003193601126101ff57602090516127108152f35b5090346101dc57806003193601126101dc57610a36610d28565b6002546001600160a01b039081169260243592909190610a578515156111f9565b82518095634456f2b360e11b8252818860209889935afa908115610463579083918991610b72575b50163303610b205716938415610ad157907f2da466a7b24304f47e87fa2e1e5a81b9831ce54fec19055ce277ca2f39ba42c49392918587528352808620610ac7838254610dca565b905551908152a280f35b83608492519162461bcd60e51b8352820152602560248201527f5661756c743a2043616e6e6f74206465706f73697420746f207a65726f206164604482015264647265737360d81b6064820152fd5b825162461bcd60e51b8152808701869052602660248201527f5661756c743a2043616c6c6572206973206e6f74207468652044756e67656f6e60448201526526b0b9ba32b960d11b6064820152608490fd5b610b899150873d891161045c5761044e8183610d92565b38610a7f565b5050346101ff57816003193601126101ff5760035490516001600160a01b039091168152602090f35b5050346101ff57816003193601126101ff576020906009549051908152f35b5050346101ff57816003193601126101ff5760209051670de0b6b3a76400008152f35b8382346101ff5760203660031901126101ff57610c1f90610c19610d6f565b35610ded565b6001805580f35b5090346101dc57806003193601126101dc577fe2b60e93dc6017a48f4522d2f2c1f9f3875d0e8f3043cd87422f5f74c1afb1f99135602435610c66610d43565b816007558060085582519182526020820152a180f35b5050346101ff57816003193601126101ff57602090600b549051908152f35b50346101dc5760203660031901126101dc57803591610cb8610d43565b6107d08311610cc9575050600d5580f35b906020606492519162461bcd60e51b8352820152601c60248201527f5661756c743a20436f6d6d697373696f6e2072617465203e20323025000000006044820152fd5b8490346101ff57816003193601126101ff576020906008548152f35b600435906001600160a01b0382168203610d3e57565b600080fd5b6000546001600160a01b03163303610d5757565b60405163118cdaa760e01b8152336004820152602490fd5b600260015414610d80576002600155565b604051633ee5aeb560e01b8152600490fd5b90601f8019910116810190811067ffffffffffffffff821117610db457604052565b634e487b7160e01b600052604160045260246000fd5b91908201809211610dd757565b634e487b7160e01b600052601160045260246000fd5b906000913383526004906020908282526040918286209382156111b857845494838610611176576002548551637b2e0fcf60e01b81528381018690526001600160a01b039790918590839060249082908c165afa91821561116c578a92611139575b506007548211158061110b575b61100e5750610e9d610eb992610e75610e959333611326565b90610e81888254611264565b815560014291015561271092839188611313565b048096611264565b338a526005855287878b2054168a9281610f9b575b5050611264565b9485610f87575b83610efa575b50507f92ccf450a286a957af52509bc1c9939d1a6a481783e142e41e2499f0bb66ebc69394955082519485528401523392a2565b8281600354169160025416865193848092638da5cb5b60e01b82525afa918215610f7d57918491610f55937f92ccf450a286a957af52509bc1c9939d1a6a481783e142e41e2499f0bb66ebc698999a92610f5e575b50611271565b85949338610ec6565b610f76919250853d871161045c5761044e8183610d92565b9038610f4f565b85513d8a823e3d90fd5b610f9686338360035416611271565b610ec0565b909250610faa600d5483611313565b049182610fb8575b80610eb2565b610fc783828b60035416611271565b808b5260068652878b20610fdc848254610dca565b905587518381527f2ef46a4d0c9f11c51b2ef3a01e7f6f378171c8eda04d9164b1a9f7b2f2aed46a873392a338610fb2565b61106f9350857f92ccf450a286a957af52509bc1c9939d1a6a481783e142e41e2499f0bb66ebc698999a9693925061104b91426002850155611264565b8155600142910155338452600583528685852054169084918061109c575b50611264565b948580611086575b505082519485528401523392a2565b61109591339060035416611271565b3885611077565b91506127106110ad600d5483611313565b04918215611069576110c483828b60035416611271565b808652600685528686206110d9848254610dca565b905586518381527f2ef46a4d0c9f11c51b2ef3a01e7f6f378171c8eda04d9164b1a9f7b2f2aed46a863392a338611069565b50600283015462015180810180911161112657421015610e5c565b634e487b7160e01b8b526011855260248bfd5b9091508481813d8311611165575b6111518183610d92565b8101031261116157519038610e4f565b8980fd5b503d611147565b87513d8c823e3d90fd5b5060649184519162461bcd60e51b8352820152601b60248201527f5661756c743a20496e73756666696369656e742062616c616e636500000000006044820152fd5b60649184519162461bcd60e51b8352820152601960248201527f5661756c743a20416d6f756e74206d757374206265203e2030000000000000006044820152fd5b1561120057565b60405162461bcd60e51b815260206004820152601a60248201527f5661756c743a2044756e67656f6e436f7265206e6f74207365740000000000006044820152606490fd5b90816020910312610d3e57516001600160a01b0381168103610d3e5790565b91908203918211610dd757565b60405163a9059cbb60e01b602082019081526001600160a01b0393841660248301526044808301959095529381529092608082019067ffffffffffffffff821183831017610db457602092600092604052519082865af115611307576000513d6112fe57508082163b155b6112e4575050565b604051635274afe760e01b81529116600482015260249150fd5b600114156112dc565b6040513d6000823e3d90fd5b81810292918115918404141715610dd757565b6001600160a01b03908116600081815260046020818152604080842060085494979096939594929392101561157d576113676001600a54975b015442611264565b600c54801561156a579061137f91600b549104611313565b92826002541694825163c116355760e01b8152828189818a5afa9081156114f8578a9161154d575b50828260248a88885195869485936332854c1360e01b8552840152165afa80156114f8578a90611515575b60ff91501695603287029680880460321490151715611502579082889285519384809263c4d3db4760e01b82525afa9182156114f857908392918b926114d6575b50602490855196879384926340be44b360e11b84528c840152165afa9182156114cd5750879161149a575b50600a91500492606484029380850460641490151715611487575061146c929161146791610dca565b610dca565b90808210156114825761147f9250611264565b90565b505090565b634e487b7160e01b865260119052602485fd5b905081813d83116114c6575b6114b08183610d92565b810103126114c257600a90513861143e565b8580fd5b503d6114a6565b513d89823e3d90fd5b60249192506114f190843d861161045c5761044e8183610d92565b9190611413565b84513d8c823e3d90fd5b634e487b7160e01b8a526011885260248afd5b508281813d8311611546575b61152b8183610d92565b81010312611161575160ff811681036111615760ff906113d2565b503d611521565b6115649150833d851161045c5761044e8183610d92565b386113a7565b634e487b7160e01b895260128752602489fd5b61136760016009549761135f56fea2646970667358221220dc924ba9e2f3971fbe9f0f410ecf56c6d2885972515934f8c2529c25cc719cbf64736f6c63430008140033",
  "linkReferences": {},
  "deployedLinkReferences": {}
}