{
  "_format": "hh-sol-artifact-1",
  "contractName": "Relic",
  "sourceName": "contracts/current/nft/Relic.sol",
  "abi": [
    {
      "inputs": [
        {
          "internalType": "address",
          "name": "initialOwner",
          "type": "address"
        }
      ],
      "stateMutability": "nonpayable",
      "type": "constructor"
    },
    {
      "inputs": [
        {
          "internalType": "address",
          "name": "sender",
          "type": "address"
        },
        {
          "internalType": "uint256",
          "name": "tokenId",
          "type": "uint256"
        },
        {
          "internalType": "address",
          "name": "owner",
          "type": "address"
        }
      ],
      "name": "ERC721IncorrectOwner",
      "type": "error"
    },
    {
      "inputs": [
        {
          "internalType": "address",
          "name": "operator",
          "type": "address"
        },
        {
          "internalType": "uint256",
          "name": "tokenId",
          "type": "uint256"
        }
      ],
      "name": "ERC721InsufficientApproval",
      "type": "error"
    },
    {
      "inputs": [
        {
          "internalType": "address",
          "name": "approver",
          "type": "address"
        }
      ],
      "name": "ERC721InvalidApprover",
      "type": "error"
    },
    {
      "inputs": [
        {
          "internalType": "address",
          "name": "operator",
          "type": "address"
        }
      ],
      "name": "ERC721InvalidOperator",
      "type": "error"
    },
    {
      "inputs": [
        {
          "internalType": "address",
          "name": "owner",
          "type": "address"
        }
      ],
      "name": "ERC721InvalidOwner",
      "type": "error"
    },
    {
      "inputs": [
        {
          "internalType": "address",
          "name": "receiver",
          "type": "address"
        }
      ],
      "name": "ERC721InvalidReceiver",
      "type": "error"
    },
    {
      "inputs": [
        {
          "internalType": "address",
          "name": "sender",
          "type": "address"
        }
      ],
      "name": "ERC721InvalidSender",
      "type": "error"
    },
    {
      "inputs": [
        {
          "internalType": "uint256",
          "name": "tokenId",
          "type": "uint256"
        }
      ],
      "name": "ERC721NonexistentToken",
      "type": "error"
    },
    {
      "inputs": [],
      "name": "EnforcedPause",
      "type": "error"
    },
    {
      "inputs": [],
      "name": "ExpectedPause",
      "type": "error"
    },
    {
      "inputs": [
        {
          "internalType": "address",
          "name": "owner",
          "type": "address"
        }
      ],
      "name": "OwnableInvalidOwner",
      "type": "error"
    },
    {
      "inputs": [
        {
          "internalType": "address",
          "name": "account",
          "type": "address"
        }
      ],
      "name": "OwnableUnauthorizedAccount",
      "type": "error"
    },
    {
      "inputs": [],
      "name": "ReentrancyGuardReentrantCall",
      "type": "error"
    },
    {
      "inputs": [
        {
          "internalType": "address",
          "name": "token",
          "type": "address"
        }
      ],
      "name": "SafeERC20FailedOperation",
      "type": "error"
    },
    {
      "anonymous": false,
      "inputs": [
        {
          "indexed": true,
          "internalType": "address",
          "name": "owner",
          "type": "address"
        },
        {
          "indexed": true,
          "internalType": "address",
          "name": "approved",
          "type": "address"
        },
        {
          "indexed": true,
          "internalType": "uint256",
          "name": "tokenId",
          "type": "uint256"
        }
      ],
      "name": "Approval",
      "type": "event"
    },
    {
      "anonymous": false,
      "inputs": [
        {
          "indexed": true,
          "internalType": "address",
          "name": "owner",
          "type": "address"
        },
        {
          "indexed": true,
          "internalType": "address",
          "name": "operator",
          "type": "address"
        },
        {
          "indexed": false,
          "internalType": "bool",
          "name": "approved",
          "type": "bool"
        }
      ],
      "name": "ApprovalForAll",
      "type": "event"
    },
    {
      "anonymous": false,
      "inputs": [
        {
          "indexed": true,
          "internalType": "address",
          "name": "newAddress",
          "type": "address"
        }
      ],
      "name": "AscensionAltarSet",
      "type": "event"
    },
    {
      "anonymous": false,
      "inputs": [
        {
          "indexed": false,
          "internalType": "string",
          "name": "newBaseURI",
          "type": "string"
        }
      ],
      "name": "BaseURISet",
      "type": "event"
    },
    {
      "anonymous": false,
      "inputs": [
        {
          "indexed": true,
          "internalType": "address",
          "name": "player",
          "type": "address"
        },
        {
          "indexed": false,
          "internalType": "uint256",
          "name": "quantity",
          "type": "uint256"
        },
        {
          "indexed": false,
          "internalType": "uint8",
          "name": "maxRarity",
          "type": "uint8"
        },
        {
          "indexed": false,
          "internalType": "uint256[]",
          "name": "tokenIds",
          "type": "uint256[]"
        }
      ],
      "name": "BatchMintCompleted",
      "type": "event"
    },
    {
      "anonymous": false,
      "inputs": [
        {
          "indexed": false,
          "internalType": "string",
          "name": "newContractURI",
          "type": "string"
        }
      ],
      "name": "ContractURIUpdated",
      "type": "event"
    },
    {
      "anonymous": false,
      "inputs": [
        {
          "indexed": true,
          "internalType": "address",
          "name": "core",
          "type": "address"
        },
        {
          "indexed": true,
          "internalType": "address",
          "name": "token",
          "type": "address"
        }
      ],
      "name": "ContractsSet",
      "type": "event"
    },
    {
      "anonymous": false,
      "inputs": [
        {
          "indexed": false,
          "internalType": "uint256",
          "name": "newSeed",
          "type": "uint256"
        }
      ],
      "name": "DynamicSeedUpdated",
      "type": "event"
    },
    {
      "anonymous": false,
      "inputs": [
        {
          "indexed": true,
          "internalType": "address",
          "name": "user",
          "type": "address"
        },
        {
          "indexed": true,
          "internalType": "address",
          "name": "executor",
          "type": "address"
        },
        {
          "indexed": false,
          "internalType": "uint256",
          "name": "quantity",
          "type": "uint256"
        }
      ],
      "name": "ForcedRevealExecuted",
      "type": "event"
    },
    {
      "anonymous": false,
      "inputs": [
        {
          "indexed": true,
          "internalType": "address",
          "name": "player",
          "type": "address"
        },
        {
          "indexed": false,
          "internalType": "uint256",
          "name": "quantity",
          "type": "uint256"
        },
        {
          "indexed": false,
          "internalType": "uint256",
          "name": "blockNumber",
          "type": "uint256"
        },
        {
          "indexed": false,
          "internalType": "bool",
          "name": "fromVault",
          "type": "bool"
        }
      ],
      "name": "MintCommitted",
      "type": "event"
    },
    {
      "anonymous": false,
      "inputs": [
        {
          "indexed": true,
          "internalType": "address",
          "name": "previousOwner",
          "type": "address"
        },
        {
          "indexed": true,
          "internalType": "address",
          "name": "newOwner",
          "type": "address"
        }
      ],
      "name": "OwnershipTransferred",
      "type": "event"
    },
    {
      "anonymous": false,
      "inputs": [
        {
          "indexed": false,
          "internalType": "address",
          "name": "account",
          "type": "address"
        }
      ],
      "name": "Paused",
      "type": "event"
    },
    {
      "anonymous": false,
      "inputs": [
        {
          "indexed": true,
          "internalType": "uint256",
          "name": "tokenId",
          "type": "uint256"
        },
        {
          "indexed": true,
          "internalType": "address",
          "name": "owner",
          "type": "address"
        },
        {
          "indexed": false,
          "internalType": "uint8",
          "name": "rarity",
          "type": "uint8"
        },
        {
          "indexed": false,
          "internalType": "uint8",
          "name": "capacity",
          "type": "uint8"
        }
      ],
      "name": "RelicBurned",
      "type": "event"
    },
    {
      "anonymous": false,
      "inputs": [
        {
          "indexed": true,
          "internalType": "uint256",
          "name": "tokenId",
          "type": "uint256"
        },
        {
          "indexed": true,
          "internalType": "address",
          "name": "owner",
          "type": "address"
        },
        {
          "indexed": false,
          "internalType": "uint8",
          "name": "rarity",
          "type": "uint8"
        },
        {
          "indexed": false,
          "internalType": "uint8",
          "name": "capacity",
          "type": "uint8"
        }
      ],
      "name": "RelicMinted",
      "type": "event"
    },
    {
      "anonymous": false,
      "inputs": [
        {
          "indexed": true,
          "internalType": "uint256",
          "name": "tokenId",
          "type": "uint256"
        },
        {
          "indexed": true,
          "internalType": "address",
          "name": "owner",
          "type": "address"
        },
        {
          "indexed": false,
          "internalType": "uint8",
          "name": "rarity",
          "type": "uint8"
        },
        {
          "indexed": false,
          "internalType": "uint8",
          "name": "capacity",
          "type": "uint8"
        }
      ],
      "name": "RelicRevealed",
      "type": "event"
    },
    {
      "anonymous": false,
      "inputs": [
        {
          "indexed": true,
          "internalType": "address",
          "name": "user",
          "type": "address"
        },
        {
          "indexed": true,
          "internalType": "address",
          "name": "proxy",
          "type": "address"
        }
      ],
      "name": "RevealedByProxy",
      "type": "event"
    },
    {
      "anonymous": false,
      "inputs": [
        {
          "indexed": true,
          "internalType": "address",
          "name": "from",
          "type": "address"
        },
        {
          "indexed": true,
          "internalType": "address",
          "name": "to",
          "type": "address"
        },
        {
          "indexed": true,
          "internalType": "uint256",
          "name": "tokenId",
          "type": "uint256"
        }
      ],
      "name": "Transfer",
      "type": "event"
    },
    {
      "anonymous": false,
      "inputs": [
        {
          "indexed": false,
          "internalType": "address",
          "name": "account",
          "type": "address"
        }
      ],
      "name": "Unpaused",
      "type": "event"
    },
    {
      "anonymous": false,
      "inputs": [
        {
          "indexed": true,
          "internalType": "address",
          "name": "vrfManager",
          "type": "address"
        }
      ],
      "name": "VRFManagerSet",
      "type": "event"
    },
    {
      "inputs": [],
      "name": "MAX_REVEAL_WINDOW",
      "outputs": [
        {
          "internalType": "uint256",
          "name": "",
          "type": "uint256"
        }
      ],
      "stateMutability": "view",
      "type": "function"
    },
    {
      "inputs": [],
      "name": "REVEAL_BLOCK_DELAY",
      "outputs": [
        {
          "internalType": "uint256",
          "name": "",
          "type": "uint256"
        }
      ],
      "stateMutability": "view",
      "type": "function"
    },
    {
      "inputs": [
        {
          "internalType": "address",
          "name": "to",
          "type": "address"
        },
        {
          "internalType": "uint256",
          "name": "tokenId",
          "type": "uint256"
        }
      ],
      "name": "approve",
      "outputs": [],
      "stateMutability": "nonpayable",
      "type": "function"
    },
    {
      "inputs": [],
      "name": "ascensionAltarAddress",
      "outputs": [
        {
          "internalType": "address",
          "name": "",
          "type": "address"
        }
      ],
      "stateMutability": "view",
      "type": "function"
    },
    {
      "inputs": [
        {
          "internalType": "address",
          "name": "owner",
          "type": "address"
        }
      ],
      "name": "balanceOf",
      "outputs": [
        {
          "internalType": "uint256",
          "name": "",
          "type": "uint256"
        }
      ],
      "stateMutability": "view",
      "type": "function"
    },
    {
      "inputs": [],
      "name": "baseURI",
      "outputs": [
        {
          "internalType": "string",
          "name": "",
          "type": "string"
        }
      ],
      "stateMutability": "view",
      "type": "function"
    },
    {
      "inputs": [
        {
          "internalType": "uint256",
          "name": "_tokenId",
          "type": "uint256"
        }
      ],
      "name": "burnFromAltar",
      "outputs": [],
      "stateMutability": "nonpayable",
      "type": "function"
    },
    {
      "inputs": [
        {
          "internalType": "address",
          "name": "_user",
          "type": "address"
        }
      ],
      "name": "canForceReveal",
      "outputs": [
        {
          "internalType": "bool",
          "name": "",
          "type": "bool"
        }
      ],
      "stateMutability": "view",
      "type": "function"
    },
    {
      "inputs": [
        {
          "internalType": "address",
          "name": "_user",
          "type": "address"
        }
      ],
      "name": "canReveal",
      "outputs": [
        {
          "internalType": "bool",
          "name": "",
          "type": "bool"
        }
      ],
      "stateMutability": "view",
      "type": "function"
    },
    {
      "inputs": [],
      "name": "contractURI",
      "outputs": [
        {
          "internalType": "string",
          "name": "",
          "type": "string"
        }
      ],
      "stateMutability": "view",
      "type": "function"
    },
    {
      "inputs": [],
      "name": "dungeonCore",
      "outputs": [
        {
          "internalType": "contract IDungeonCore",
          "name": "",
          "type": "address"
        }
      ],
      "stateMutability": "view",
      "type": "function"
    },
    {
      "inputs": [],
      "name": "dynamicSeed",
      "outputs": [
        {
          "internalType": "uint256",
          "name": "",
          "type": "uint256"
        }
      ],
      "stateMutability": "view",
      "type": "function"
    },
    {
      "inputs": [
        {
          "internalType": "address",
          "name": "user",
          "type": "address"
        }
      ],
      "name": "forceRevealExpired",
      "outputs": [],
      "stateMutability": "nonpayable",
      "type": "function"
    },
    {
      "inputs": [
        {
          "internalType": "uint256",
          "name": "tokenId",
          "type": "uint256"
        }
      ],
      "name": "getApproved",
      "outputs": [
        {
          "internalType": "address",
          "name": "",
          "type": "address"
        }
      ],
      "stateMutability": "view",
      "type": "function"
    },
    {
      "inputs": [
        {
          "internalType": "uint256",
          "name": "tokenId",
          "type": "uint256"
        }
      ],
      "name": "getRelicProperties",
      "outputs": [
        {
          "internalType": "uint8",
          "name": "rarity",
          "type": "uint8"
        },
        {
          "internalType": "uint8",
          "name": "capacity",
          "type": "uint8"
        }
      ],
      "stateMutability": "view",
      "type": "function"
    },
    {
      "inputs": [
        {
          "internalType": "uint256",
          "name": "_quantity",
          "type": "uint256"
        }
      ],
      "name": "getRequiredSoulShardAmount",
      "outputs": [
        {
          "internalType": "uint256",
          "name": "",
          "type": "uint256"
        }
      ],
      "stateMutability": "view",
      "type": "function"
    },
    {
      "inputs": [
        {
          "internalType": "address",
          "name": "_user",
          "type": "address"
        }
      ],
      "name": "getRevealBlocksRemaining",
      "outputs": [
        {
          "internalType": "uint256",
          "name": "",
          "type": "uint256"
        }
      ],
      "stateMutability": "view",
      "type": "function"
    },
    {
      "inputs": [
        {
          "internalType": "address",
          "name": "_user",
          "type": "address"
        }
      ],
      "name": "getUserCommitment",
      "outputs": [
        {
          "components": [
            {
              "internalType": "uint256",
              "name": "blockNumber",
              "type": "uint256"
            },
            {
              "internalType": "uint256",
              "name": "quantity",
              "type": "uint256"
            },
            {
              "internalType": "uint256",
              "name": "payment",
              "type": "uint256"
            },
            {
              "internalType": "bytes32",
              "name": "commitment",
              "type": "bytes32"
            },
            {
              "internalType": "bool",
              "name": "fulfilled",
              "type": "bool"
            },
            {
              "internalType": "uint8",
              "name": "maxRarity",
              "type": "uint8"
            },
            {
              "internalType": "bool",
              "name": "fromVault",
              "type": "bool"
            }
          ],
          "internalType": "struct Relic.MintCommitment",
          "name": "",
          "type": "tuple"
        }
      ],
      "stateMutability": "view",
      "type": "function"
    },
    {
      "inputs": [
        {
          "internalType": "address",
          "name": "_user",
          "type": "address"
        }
      ],
      "name": "getUserPendingTokens",
      "outputs": [
        {
          "internalType": "uint256[]",
          "name": "",
          "type": "uint256[]"
        }
      ],
      "stateMutability": "view",
      "type": "function"
    },
    {
      "inputs": [
        {
          "internalType": "address",
          "name": "owner",
          "type": "address"
        },
        {
          "internalType": "address",
          "name": "operator",
          "type": "address"
        }
      ],
      "name": "isApprovedForAll",
      "outputs": [
        {
          "internalType": "bool",
          "name": "",
          "type": "bool"
        }
      ],
      "stateMutability": "view",
      "type": "function"
    },
    {
      "inputs": [
        {
          "internalType": "address",
          "name": "_to",
          "type": "address"
        },
        {
          "internalType": "uint8",
          "name": "_rarity",
          "type": "uint8"
        },
        {
          "internalType": "uint8",
          "name": "_capacity",
          "type": "uint8"
        }
      ],
      "name": "mintFromAltar",
      "outputs": [
        {
          "internalType": "uint256",
          "name": "",
          "type": "uint256"
        }
      ],
      "stateMutability": "nonpayable",
      "type": "function"
    },
    {
      "inputs": [
        {
          "internalType": "uint256",
          "name": "_quantity",
          "type": "uint256"
        }
      ],
      "name": "mintFromVault",
      "outputs": [],
      "stateMutability": "payable",
      "type": "function"
    },
    {
      "inputs": [
        {
          "internalType": "uint256",
          "name": "_quantity",
          "type": "uint256"
        }
      ],
      "name": "mintFromWallet",
      "outputs": [],
      "stateMutability": "payable",
      "type": "function"
    },
    {
      "inputs": [],
      "name": "mintPriceUSD",
      "outputs": [
        {
          "internalType": "uint256",
          "name": "",
          "type": "uint256"
        }
      ],
      "stateMutability": "view",
      "type": "function"
    },
    {
      "inputs": [],
      "name": "name",
      "outputs": [
        {
          "internalType": "string",
          "name": "",
          "type": "string"
        }
      ],
      "stateMutability": "view",
      "type": "function"
    },
    {
      "inputs": [
        {
          "internalType": "uint256",
          "name": "requestId",
          "type": "uint256"
        },
        {
          "internalType": "uint256[]",
          "name": "randomWords",
          "type": "uint256[]"
        }
      ],
      "name": "onVRFFulfilled",
      "outputs": [],
      "stateMutability": "nonpayable",
      "type": "function"
    },
    {
      "inputs": [],
      "name": "owner",
      "outputs": [
        {
          "internalType": "address",
          "name": "",
          "type": "address"
        }
      ],
      "stateMutability": "view",
      "type": "function"
    },
    {
      "inputs": [
        {
          "internalType": "uint256",
          "name": "tokenId",
          "type": "uint256"
        }
      ],
      "name": "ownerOf",
      "outputs": [
        {
          "internalType": "address",
          "name": "",
          "type": "address"
        }
      ],
      "stateMutability": "view",
      "type": "function"
    },
    {
      "inputs": [],
      "name": "pause",
      "outputs": [],
      "stateMutability": "nonpayable",
      "type": "function"
    },
    {
      "inputs": [],
      "name": "paused",
      "outputs": [
        {
          "internalType": "bool",
          "name": "",
          "type": "bool"
        }
      ],
      "stateMutability": "view",
      "type": "function"
    },
    {
      "inputs": [],
      "name": "platformFee",
      "outputs": [
        {
          "internalType": "uint256",
          "name": "",
          "type": "uint256"
        }
      ],
      "stateMutability": "view",
      "type": "function"
    },
    {
      "inputs": [
        {
          "internalType": "uint256",
          "name": "",
          "type": "uint256"
        }
      ],
      "name": "relicData",
      "outputs": [
        {
          "internalType": "uint8",
          "name": "rarity",
          "type": "uint8"
        },
        {
          "internalType": "uint8",
          "name": "capacity",
          "type": "uint8"
        },
        {
          "internalType": "bool",
          "name": "isRevealed",
          "type": "bool"
        }
      ],
      "stateMutability": "view",
      "type": "function"
    },
    {
      "inputs": [],
      "name": "renounceOwnership",
      "outputs": [],
      "stateMutability": "nonpayable",
      "type": "function"
    },
    {
      "inputs": [],
      "name": "revealMint",
      "outputs": [],
      "stateMutability": "nonpayable",
      "type": "function"
    },
    {
      "inputs": [
        {
          "internalType": "address",
          "name": "user",
          "type": "address"
        }
      ],
      "name": "revealMintFor",
      "outputs": [],
      "stateMutability": "nonpayable",
      "type": "function"
    },
    {
      "inputs": [
        {
          "internalType": "address",
          "name": "from",
          "type": "address"
        },
        {
          "internalType": "address",
          "name": "to",
          "type": "address"
        },
        {
          "internalType": "uint256",
          "name": "tokenId",
          "type": "uint256"
        }
      ],
      "name": "safeTransferFrom",
      "outputs": [],
      "stateMutability": "nonpayable",
      "type": "function"
    },
    {
      "inputs": [
        {
          "internalType": "address",
          "name": "from",
          "type": "address"
        },
        {
          "internalType": "address",
          "name": "to",
          "type": "address"
        },
        {
          "internalType": "uint256",
          "name": "tokenId",
          "type": "uint256"
        },
        {
          "internalType": "bytes",
          "name": "data",
          "type": "bytes"
        }
      ],
      "name": "safeTransferFrom",
      "outputs": [],
      "stateMutability": "nonpayable",
      "type": "function"
    },
    {
      "inputs": [
        {
          "internalType": "address",
          "name": "operator",
          "type": "address"
        },
        {
          "internalType": "bool",
          "name": "approved",
          "type": "bool"
        }
      ],
      "name": "setApprovalForAll",
      "outputs": [],
      "stateMutability": "nonpayable",
      "type": "function"
    },
    {
      "inputs": [
        {
          "internalType": "address",
          "name": "_address",
          "type": "address"
        }
      ],
      "name": "setAscensionAltarAddress",
      "outputs": [],
      "stateMutability": "nonpayable",
      "type": "function"
    },
    {
      "inputs": [
        {
          "internalType": "string",
          "name": "_newBaseURI",
          "type": "string"
        }
      ],
      "name": "setBaseURI",
      "outputs": [],
      "stateMutability": "nonpayable",
      "type": "function"
    },
    {
      "inputs": [
        {
          "internalType": "string",
          "name": "newContractURI",
          "type": "string"
        }
      ],
      "name": "setContractURI",
      "outputs": [],
      "stateMutability": "nonpayable",
      "type": "function"
    },
    {
      "inputs": [
        {
          "internalType": "address",
          "name": "_address",
          "type": "address"
        }
      ],
      "name": "setDungeonCore",
      "outputs": [],
      "stateMutability": "nonpayable",
      "type": "function"
    },
    {
      "inputs": [
        {
          "internalType": "uint256",
          "name": "_newPrice",
          "type": "uint256"
        }
      ],
      "name": "setMintPriceUSD",
      "outputs": [],
      "stateMutability": "nonpayable",
      "type": "function"
    },
    {
      "inputs": [
        {
          "internalType": "uint256",
          "name": "_newFee",
          "type": "uint256"
        }
      ],
      "name": "setPlatformFee",
      "outputs": [],
      "stateMutability": "nonpayable",
      "type": "function"
    },
    {
      "inputs": [
        {
          "internalType": "address",
          "name": "_address",
          "type": "address"
        }
      ],
      "name": "setSoulShardToken",
      "outputs": [],
      "stateMutability": "nonpayable",
      "type": "function"
    },
    {
      "inputs": [
        {
          "internalType": "string",
          "name": "_newURI",
          "type": "string"
        }
      ],
      "name": "setUnrevealedURI",
      "outputs": [],
      "stateMutability": "nonpayable",
      "type": "function"
    },
    {
      "inputs": [
        {
          "internalType": "address",
          "name": "_vrfManager",
          "type": "address"
        }
      ],
      "name": "setVRFManager",
      "outputs": [],
      "stateMutability": "nonpayable",
      "type": "function"
    },
    {
      "inputs": [],
      "name": "soulShardToken",
      "outputs": [
        {
          "internalType": "contract IERC20",
          "name": "",
          "type": "address"
        }
      ],
      "stateMutability": "view",
      "type": "function"
    },
    {
      "inputs": [
        {
          "internalType": "bytes4",
          "name": "interfaceId",
          "type": "bytes4"
        }
      ],
      "name": "supportsInterface",
      "outputs": [
        {
          "internalType": "bool",
          "name": "",
          "type": "bool"
        }
      ],
      "stateMutability": "view",
      "type": "function"
    },
    {
      "inputs": [],
      "name": "symbol",
      "outputs": [
        {
          "internalType": "string",
          "name": "",
          "type": "string"
        }
      ],
      "stateMutability": "view",
      "type": "function"
    },
    {
      "inputs": [
        {
          "internalType": "uint256",
          "name": "tokenId",
          "type": "uint256"
        }
      ],
      "name": "tokenURI",
      "outputs": [
        {
          "internalType": "string",
          "name": "",
          "type": "string"
        }
      ],
      "stateMutability": "view",
      "type": "function"
    },
    {
      "inputs": [
        {
          "internalType": "address",
          "name": "from",
          "type": "address"
        },
        {
          "internalType": "address",
          "name": "to",
          "type": "address"
        },
        {
          "internalType": "uint256",
          "name": "tokenId",
          "type": "uint256"
        }
      ],
      "name": "transferFrom",
      "outputs": [],
      "stateMutability": "nonpayable",
      "type": "function"
    },
    {
      "inputs": [
        {
          "internalType": "address",
          "name": "newOwner",
          "type": "address"
        }
      ],
      "name": "transferOwnership",
      "outputs": [],
      "stateMutability": "nonpayable",
      "type": "function"
    },
    {
      "inputs": [],
      "name": "unpause",
      "outputs": [],
      "stateMutability": "nonpayable",
      "type": "function"
    },
    {
      "inputs": [],
      "name": "unrevealedURI",
      "outputs": [
        {
          "internalType": "string",
          "name": "",
          "type": "string"
        }
      ],
      "stateMutability": "view",
      "type": "function"
    },
    {
      "inputs": [
        {
          "internalType": "address",
          "name": "",
          "type": "address"
        }
      ],
      "name": "userCommitments",
      "outputs": [
        {
          "internalType": "uint256",
          "name": "blockNumber",
          "type": "uint256"
        },
        {
          "internalType": "uint256",
          "name": "quantity",
          "type": "uint256"
        },
        {
          "internalType": "uint256",
          "name": "payment",
          "type": "uint256"
        },
        {
          "internalType": "bytes32",
          "name": "commitment",
          "type": "bytes32"
        },
        {
          "internalType": "bool",
          "name": "fulfilled",
          "type": "bool"
        },
        {
          "internalType": "uint8",
          "name": "maxRarity",
          "type": "uint8"
        },
        {
          "internalType": "bool",
          "name": "fromVault",
          "type": "bool"
        }
      ],
      "stateMutability": "view",
      "type": "function"
    },
    {
      "inputs": [
        {
          "internalType": "address",
          "name": "",
          "type": "address"
        },
        {
          "internalType": "uint256",
          "name": "",
          "type": "uint256"
        }
      ],
      "name": "userPendingTokens",
      "outputs": [
        {
          "internalType": "uint256",
          "name": "",
          "type": "uint256"
        }
      ],
      "stateMutability": "view",
      "type": "function"
    },
    {
      "inputs": [],
      "name": "vrfManager",
      "outputs": [
        {
          "internalType": "address",
          "name": "",
          "type": "address"
        }
      ],
      "stateMutability": "view",
      "type": "function"
    },
    {
      "inputs": [],
      "name": "withdrawNativeFunding",
      "outputs": [],
      "stateMutability": "nonpayable",
      "type": "function"
    },
    {
      "inputs": [],
      "name": "withdrawSoulShard",
      "outputs": [],
      "stateMutability": "nonpayable",
      "type": "function"
    },
    {
      "stateMutability": "payable",
      "type": "receive"
    }
  ],
  "bytecode": "0x60803462000a4257601f1990601f906001600160401b0390620058ac3881900384810186168301919084831184841017620009675780849260209460405283398101031262000a4257516001600160a01b0380821692909183900362000a42576200006962000a87565b601581527f44756e67656f6e2044656c766572732052656c6963000000000000000000000060208201526200009d62000a87565b90600382526222222960e91b602083015280519083821162000967578190620000c860005462000aa7565b88811162000a0e575b5060209088831160011462000989576000926200097d575b50508160011b916000199060031b1c1916176000555b805191821162000967576200011660015462000aa7565b85811162000927575b50602095858311600114620008bd5750948192939495600092620008b1575b50508160011b916000199060031b1c1916176001555b81156200089857600680546001600160a01b031981168417909155167f8be0079c531659141344cd1fd0a4f28419497f9722a3daafe3b4186f6b6457e0600080a36001600755671bc16d674ec80000601255660110d9316ec000601355620001be60145462000aa7565b8181116200084a575b609360149081556000527f68747470733a2f2f64756e67656f6e2d64656c766572732d6d657461646174616000805160206200588c833981519152557f2d7365727665722e6f6e72656e6465722e636f6d2f6170692f72656c69632f757fce6d7b5282bd9a3661ae061feed1dbda4e52ab073b1f9285be6e155d9c38d4ed55681b9c995d99585b195960ba1b7fce6d7b5282bd9a3661ae061feed1dbda4e52ab073b1f9285be6e155d9c38d4ee556001601155620003196200028862000a47565b600181526001602082015260016040820152600160608201526001600052601860205260ff6060604060002092828151168319855416178455620002e383602083015116859061ff0082549160081b169061ff001916179055565b6040810151845462ff0000191690841660101b62ff0000161784550151825463ff0000001916911660181b63ff00000016179055565b620003b66200032762000a47565b6001815260ff60208201600281526200039c82604085016003815262000384826060880195600487526005600052601860205281604060002099511682198a54161789555116879061ff0082549160081b169061ff001916179055565b51855462ff00001916911660101b62ff000016178455565b51825463ff0000001916911660181b63ff00000016179055565b62000421620003c462000a47565b6001815260ff60208201600381526200039c8260408501600481526200038482606088019560078752600a600052601860205281604060002099511682198a54161789555116879061ff0082549160081b169061ff001916179055565b6200048c6200042f62000a47565b6002815260ff60208201600481526200039c82604085016007815262000384826060880195600c87526014600052601860205281604060002099511682198a54161789555116879061ff0082549160081b169061ff001916179055565b620005106200049a62000a47565b6002815260066020808301918252600d604084015260196060808501919091526032600052601890915282517f284652bb8d02cffe078817565e00d16b6bf2c72637811649875701e6003cab5e8054935161ffff1990941660ff9283161760089490941b61ff00169390931783559192620002e3565b6200051a62000a67565b600181526000602082015260006040820152600060608201526000608082015260016000526019602052608060406000209160ff81511660ff198454161783556200057d60ff602083015116849061ff0082549160081b169061ff001916179055565b6040810151835462ff0000191660109190911b62ff0000161783556060810151835463ff000000191660189190911b63ff00000016178355015164ff0000000082549160201b169064ff000000001916179055620005da62000a67565b6003815260208101600281526200067660ff60408401600081526200065c82606087019260008452620006448260808a019860008a52600560005260196020528160406000209b511682198c5416178b555116899061ff0082549160081b169061ff001916179055565b51875462ff00001916911660101b62ff000016178655565b51845463ff0000001916911660181b63ff00000016178355565b5164ff0000000082549160201b169064ff0000000019161790556200069a62000a67565b6006815260208101600381526200070460ff60408401600181526200065c82606087019260008452620006448260808a019860008a52600a60005260196020528160406000209b511682198c5416178b555116899061ff0082549160081b169061ff001916179055565b5164ff0000000082549160201b169064ff0000000019161790556200072862000a67565b600b815260208101600681526200079260ff60408401600381526200065c82606087019260008452620006448260808a019860008a52601460005260196020528160406000209b511682198c5416178b555116899061ff0082549160081b169061ff001916179055565b5164ff0000000082549160201b169064ff000000001916179055620007b662000a67565b6019815260208101601081526200082060ff60408401600881526200065c82606087019260018452620006448260808a019860008a52603260005260196020528160406000209b511682198c5416178b555116899061ff0082549160081b169061ff001916179055565b5164ff0000000082549160201b169064ff000000001916179055604051614d8e908162000afe8239f35b601460005262000890910160051c6000805160206200588c833981519152017fce6d7b5282bd9a3661ae061feed1dbda4e52ab073b1f9285be6e155d9c38d4ef62000ae4565b3880620001c7565b604051631e4fbdf760e01b815260006004820152602490fd5b0151905038806200013e565b821695600160005260206000209160005b8881106200090e57508360019596979810620008f4575b505050811b0160015562000154565b015160001960f88460031b161c19169055388080620008e5565b91926020600181928685015181550194019201620008ce565b6200095690600160005260206000208780860160051c820192602087106200095d575b0160051c019062000ae4565b386200011f565b925081926200094a565b634e487b7160e01b600052604160045260246000fd5b015190503880620000e9565b60008080527f290decd9548b62a8d60345a988386fc84ba6bc95484008f6362f93160ef3e563938b16905b818110620009f55750908460019594939210620009db575b505050811b01600055620000ff565b015160001960f88460031b161c19169055388080620009cc565b92936020600181928786015181550195019301620009b4565b62000a3b906000805260206000208a80860160051c820192602087106200095d570160051c019062000ae4565b38620000d1565b600080fd5b60405190608082016001600160401b038111838210176200096757604052565b6040519060a082016001600160401b038111838210176200096757604052565b60408051919082016001600160401b038111838210176200096757604052565b90600182811c9216801562000ad9575b602083101462000ac357565b634e487b7160e01b600052602260045260246000fd5b91607f169162000ab7565b81811062000af0575050565b6000815560010162000ae456fe6080604052600436101561001b575b361561001957600080fd5b005b6000803560e01c806268f22e14612f7b57806301ffc9a714612ec057806306fdde0314612e1c578063081812fc14612ddf578063095ea7b314612ce657806312e8e2c314612cc3578063166829e314612c9f5780631cbb413114612c625780631dafec0014612b5157806323b872dd14612b3957806326232a2e14612b1b5780632a32e8d4146129255780632ca5f30a146128f35780633a92c0ac146128d55780633f4ba83a14612852578063415d6a011461275b57806342842e0e1461272d5780634350772c1461270657806344039402146126df57806355f804b31461253c5780635b6ef032146124ba5780635c975abb146124975780636352211e1461246757806367cfab58146124405780636ab1b29b146123d45780636aef5069146122285780636c0360eb146121825780637035bf181461216657806370a08231146120f6578063715018a61461209b5780637a33eabc146120375780638456cb5914611fdc57806386da2bd714611f865780638973bc7e14611f6a5780638da5cb5b14611f435780638f2fec0814611ebc578063936315d614611e8e578063938e3d7b14611ce557806395d89b4114611c165780639b41886c14611bf8578063a20fd5c414611afc578063a22cb46514611a38578063b1d78c9a14611a11578063b88d4fde1461199d578063bfbfccb2146118e1578063c1b39a3e146118ba578063c47d435714611838578063c820c7f114611716578063c87b56dd146116f6578063c886015d1461145e578063cc64cb7c14610ae4578063d0fdcc0914610746578063d96fe72d1461072a578063db4b8268146106bf578063e0d5e1b414610646578063e8a3d48514610560578063e985e9c51461050b578063f2fde38b1461046a578063f30cf6b6146104245763fe2c7fee146102ba575061000e565b34610421576102c8366131b7565b906102d1613350565b815167ffffffffffffffff811161040d576102ed6014546131f6565b601f81116103b4575b50602080601f831160011461033357508293829392610328575b50508160011b916000199060031b1c19161760145580f35b015190503880610310565b60148452601f198316947fce6d7b5282bd9a3661ae061feed1dbda4e52ab073b1f9285be6e155d9c38d4ec929185905b87821061039c575050836001959610610383575b505050811b0160145580f35b015160001960f88460031b161c19169055388080610377565b80600185968294968601518155019501930190610363565b6103fd90601484527fce6d7b5282bd9a3661ae061feed1dbda4e52ab073b1f9285be6e155d9c38d4ec601f840160051c81019160208510610403575b601f0160051c0190613f30565b386102f6565b90915081906103f0565b602482634e487b7160e01b81526041600452fd5b80fd5b50346104215760203660031901126104215760406060916004358152600b602052205460ff604051918181168352818160081c16602084015260101c1615156040820152f35b503461042157602036600319011261042157610484612fdf565b61048c613350565b6001600160a01b038091169081156104da57600654826001600160a01b0319821617600655167f8be0079c531659141344cd1fd0a4f28419497f9722a3daafe3b4186f6b6457e0600080a380f35b602483604051907f1e4fbdf70000000000000000000000000000000000000000000000000000000082526004820152fd5b503461042157604036600319011261042157610525612fdf565b604061052f612ff5565b926001600160a01b0380931681526005602052209116600052602052602060ff604060002054166040519015158152f35b50346104215780600319360112610421576040516000600a54610582816131f6565b8084529060019081811690811561061f57506001146105c4575b6105c0846105ac8186038261312a565b60405191829160208352602083019061302e565b0390f35b600a600090815292507fc65a7bb8d6351c1cf70c95a316cc6a92839c986682d98bc35f958f4883f9d2a85b8284106106075750505081016020016105ac8261059c565b805460208587018101919091529093019281016105ef565b60ff191660208087019190915292151560051b850190920192506105ac915083905061059c565b5034610421576020366003190112610421576001600160a01b03610668612fdf565b610670613850565b61067861381a565b610681816139cb565b16803303610693575b50600160075580f35b33907f03b940e5594caf9c29015b39d851054d069d150d662629de6bbdc3086fc163cd8380a33861068a565b5034610421576020366003190112610421576106d9612fdf565b6106e1613350565b6001600160a01b0380911690816001600160a01b0319600d541617600d55600c54167f14662a0fccd762a05d5e1fa6afdd204554c4cf90fe58b5c5947f664fb71925f58380a380f35b5034610421578060031936011261042157602060405160038152f35b50602080600319360112610ae05760043590610760613850565b61076861381a565b81151580610ad5575b61077a906136db565b3383526015815261079960408420805415908115610ac6575b50613726565b6107a282614a5f565b6107ae83601354613771565b3410610a8257836001600160a01b039160048484600c5416604051928380927f29bdca370000000000000000000000000000000000000000000000000000000082525afa8015610a775784918491610a4a575b501690813b15610a46576040517fd064ff19000000000000000000000000000000000000000000000000000000008152336004820152602481019190915291908290604490829084905af18015610a3b57610a1f575b506040513360601b6bffffffffffffffffffffffff191681840190815243601482015260348101859052859184919061089d81605484015b03601f19810183528261312a565b51902092600f54168061099f575b5061094660ff600192610930600461095f97604051906108ca82613088565b4382528482018c81526040830190348252606084019283526040608085019b808d52601560a087019960058b5260c088019d8e523383525220935184555160018401555160028301555160038201550195511515869060ff801983541691151516179055565b51845461ff001916911660081b61ff0016178355565b51815462ff0000191690151560101b62ff000016179055565b6040519182524390820152600160408201527fe76693a509b276a8f091f368f5ee1fcd90a958858d61248bdb8588205bcd734560603392a2600160075580f35b60405163435639fb60e11b815233600482015260248101879052600560448201526064810185905291908290608490829086905af1908115610a14578491156108ab57908092503d8311610a0d575b6109f8818361312a565b81010312610a08578382386108ab565b600080fd5b503d6109ee565b6040513d84823e3d90fd5b67ffffffffffffffff819592951161040d576040529238610857565b6040513d87823e3d90fd5b8280fd5b610a6a9150863d8811610a70575b610a62818361312a565b81019061388b565b38610801565b503d610a58565b6040513d85823e3d90fd5b6064826040519062461bcd60e51b82526004820152600260248201527f49560000000000000000000000000000000000000000000000000000000000006044820152fd5b60ff9150600401541638610793565b506032821115610771565b5080fd5b503461042157602036600319011261042157610afe612fdf565b610b06613850565b610b0e61381a565b6001600160a01b03811682526015602052604082208054610b308115156138aa565b610b4160ff600484015416156138f5565b600381019081811161144a57610102018091116111ad57431115611406576001600160a01b0382168352601560205260408320600160ff19600483015416176004820155601760205260408420600185526020526040842060ff1981541690556001600160a01b0383168452601760205260408420600285526020526040842060ff1981541690556001600160a01b0383168452601760205260408420600385526020526040842060ff1981541690556001600160a01b0383168452601760205260408420600485526020526040842060ff1981541690556001600160a01b0383168452601760205260408420600585526020526040842060ff198154169055600181015492601a5485601a55806113c2575b5083855260196020526040852060405190610c6e826130d6565b549460ff8616825260ff8660081c169081602084015260109160ff88841c16604085015260ff601894818a871c166060820152818a60201c16608082015298161590816113b9575b50611298575b505050845b60ff60808601511660ff82161015610d2857601a54600160401b811015610d145790610cf6826001610d0f9401601a55614405565b81549060031b9060ff6005831b921b1916179055614442565b610cc1565b602487634e487b7160e01b81526041600452fd5b508493845b60ff60608301511660ff82161015610d8057601a54600160401b811015610d145790610d62826001610d7b9401601a55614405565b81549060031b9060ff6004831b921b1916179055614442565b610d2d565b508493845b60ff60408401511660ff82161015610dd857601a54600160401b811015610d145790610dba826001610dd39401601a55614405565b81549060031b9060ff6003831b921b1916179055614442565b610d85565b508493845b60ff60208501511660ff82161015610e3057601a54600160401b811015610d145790610e12826001610e2b9401601a55614405565b81549060031b9060ff6002831b921b1916179055614442565b610ddd565b508493845b60ff85511660ff82161015610e8857601a54600160401b811015610d145760ff91610e69826001610e819401601a55614405565b81549060031b90856001831b921b1916179055614442565b9050610e35565b50601a54859450600019908181019081116111c157805b6111d557508254600381018091116111c157401561119e575b50610ec66001830154613ebc565b91845b6001820154811015610fc0576011805490610ee382613eee565b905580610ef08387613efd565b52610f43604051610f00816130ba565b88815260208082018a815260408084018c8152868d52600b9093528b2092518354915161ffff1990921660ff919091161760089190911b61ff0016178255610946565b610f4d81856141e6565b6001600160a01b0384168752601660205260408720805490600160401b821015610fac57610f8982610fa0926001610fa79796950181556132ee565b819391549060031b91821b91600019901b19161790565b9055613eee565b610ec9565b602489634e487b7160e01b81526041600452fd5b5092939193825b85518110156110c45780610fde6110bf9288613efd565b5160ff610fea83614405565b90549060031b1c1690808752600b602052604087208260ff1982541617815561102483829061ff0082549160081b169061ff001916179055565b805462ff00001916620100001790556040805160ff841680825260208201526001600160a01b0388169183917fc8a443c1907d413e7a1dca411f6c6e7a16f3aa80eed13699a22eab2af2c4c1e49190a36040805160ff90931680845260208401526001600160a01b038716927f6887aac0938f877edd3b2e270244e90b56b78b9da03bfc5bd410f1f90728479c91819081015b0390a3613eee565b610fc7565b50600190847f0908417bb2d0393a45bf6efe35cecf8dbedbab1767b8d95f650094c6ccd1d0ac8760ff60048685015494015460081c166111146040519283926001600160a01b038a169684613f11565b0390a26001600160a01b0383168452601560205261114d6040852060046000918281558260018201558260028201558260038201550155565b601660205261115e60408520613f47565b01546040519081527fa65d0fdb45e0e0e3df56379247bc241e554ab7115be9ea5b25a37920bfbba3c260206001600160a01b0333941692a3600160075580f35b43904301116111ad5784610eb8565b602484634e487b7160e01b81526011600452fd5b602486634e487b7160e01b81526011600452fd5b6040516020810190428252826040820152604081526111f3816130ba565b51902060018201908183116112845781156112705790611262910661124460ff61121c85614405565b90549060031b1c169161125d60ff61123383614405565b90549060031b1c1661124487614405565b90919060ff8084549260031b9316831b921b1916179055565b614405565b80156111c157810180610e9f565b602488634e487b7160e01b81526012600452fd5b602488634e487b7160e01b81526011600452fd5b60ff9293965082918160058493106000146112ff57506001895260196020526040892094604051956112c9876130d6565b54938480938282168952828260081c1660208a01521c1660408701521c16606084015260201c166080820152925b388080610cbc565b600a8110156113565750600589526019602052604089209460405195611324876130d6565b54938480938282168952828260081c1660208a01521c1660408701521c16606084015260201c166080820152926112f7565b601481101561137b5750600a89526019602052604089209460405195611324876130d6565b6032111561139e57601489526019602052604089209460405195611324876130d6565b603289526019602052604089209460405195611324876130d6565b90501538610cb6565b601f7f057c384a7d1c54f3a1b2e5e67b2617b8224fdfd1ea7234eea573a6ff665ff63e910160051c8101905b8181106113fb5750610c54565b8681556001016113ee565b606460405162461bcd60e51b815260206004820152600160248201527f4e000000000000000000000000000000000000000000000000000000000000006044820152fd5b602485634e487b7160e01b81526011600452fd5b50602080600319360112610ae05760043590611478613850565b61148061381a565b811515806116eb575b611492906136db565b338352601581526114b060408420805415908115610ac65750613726565b6114b982614a5f565b6114c583601354613771565b34106116a7576115286001600160a01b039182600d5416604051917f23b872dd0000000000000000000000000000000000000000000000000000000086840152336024840152306044840152606483015260648252611523826130d6565b61379a565b6040513360601b6bffffffffffffffffffffffff1916838201908152436014820152603481018590529061155f816054840161088f565b51902090600f541680611630575b506115f1908461094660ff85610930600460405161158a81613088565b438152838101978b895260408201348152606083019182526080830199898b5260408a601560a087019960058b5260c088019d8e523383525220935184555160018401555160028301555160038201550195511515869060ff801983541691151516179055565b60405191825243908201528160408201527fe76693a509b276a8f091f368f5ee1fcd90a958858d61248bdb8588205bcd734560603392a2600160075580f35b60405163435639fb60e11b81523360048201526024810185905260056044820152606481018390529083908290608490829089905af1908115610a3b57839161167a575b5061156d565b813d83116116a0575b61168d818361312a565b8101031261169c578138611674565b8380fd5b503d611683565b6064826040519062461bcd60e51b82526004820152600260248201527f49500000000000000000000000000000000000000000000000000000000000006044820152fd5b506032821115611489565b5034610421576020366003190112610421576105c06105ac6004356147ac565b503461042157606036600319011261042157611730612fdf565b6024359060ff82169081830361169c5760443560ff81169283820361183457926040926118297fc8a443c1907d413e7a1dca411f6c6e7a16f3aa80eed13699a22eab2af2c4c1e4936117f160ff989760209a6109468b6001600160a01b039861179e8a600e54163314614761565b6011549d8c8f9d958e9651976117b3896130ba565b885260208801938452818801966001885281526020600b90522095511682198654161785555116839061ff0082549160081b169061ff001916179055565b6117fb86846141e6565b611806601154613eee565b60115560405193849316968390929160ff60209181604085019616845216910152565b0390a3604051908152f35b8580fd5b5034610421578060031936011261042157611851613350565b808080806001600160a01b036006541647905af161186d61358f565b50156118765780f35b606460405162461bcd60e51b815260206004820152600160248201527f46000000000000000000000000000000000000000000000000000000000000006044820152fd5b503461042157806003193601126104215760206001600160a01b03600f5416604051908152f35b5034610421576020366003190112610421576040906004356119028161356c565b508152600b6020522060405190611918826130ba565b549060ff8216815260ff6020820192818160081c16845260101c161580156040830152611959575190516040805160ff938416815292909116602083015290f35b606460405162461bcd60e51b815260206004820152600160248201527f52000000000000000000000000000000000000000000000000000000000000006044820152fd5b5034610421576080366003190112610421576119b7612fdf565b6119bf612ff5565b906044356064359267ffffffffffffffff8411611a0d5736602385011215611a0d576119f8611a0a943690602481600401359101613180565b92611a04838383613394565b336135bf565b80f35b8480fd5b5034610421576020366003190112610421576020611a30600435614a5f565b604051908152f35b503461042157604036600319011261042157611a52612fdf565b602435908115159081830361169c576001600160a01b0316918215611acb57611a9c90338552600560205260408520848652602052604085209060ff801983541691151516179055565b6040519081527f17307eab39ab6107e8899845ad3d59bd9653f200f220920489ca2b5937696c3160203392a380f35b602483604051907f5b08ba180000000000000000000000000000000000000000000000000000000082526004820152fd5b5034610421576020366003190112610421576001600160a01b03611b1e612fdf565b1681526015602052604081209060405190611b3882613088565b600483549384845260018101546020850152600281015460408501526003810154606085015201549160c060ff808516159485156080850152818160081c1660a085015260101c1615159101528215159182611bf0575b5081611ba3575b6020826040519015158152f35b90506003820191828111611bdc5761010201809211611bc85750602090431138611b96565b80634e487b7160e01b602492526011600452fd5b602482634e487b7160e01b81526011600452fd5b915038611b8f565b50346104215780600319360112610421576020601254604051908152f35b503461042157806003193601126104215760405190806001805491611c3a836131f6565b80865292828116908115611cbb5750600114611c61575b6105c0856105ac8187038261312a565b92508083527fb10e2d527612073b26eecdfd717e6a320cf44b4afac2b0732d9fcbe2b7fa0cf65b828410611ca35750505081016020016105ac826105c0611c51565b80546020858701810191909152909301928101611c88565b8695506105c0969350602092506105ac94915060ff191682840152151560051b8201019293611c51565b503461042157611cf4366131b7565b90611cfd613350565b81519167ffffffffffffffff831161040d57611d1a600a546131f6565b601f8111611e40575b50602092601f8111600114611d9b579081611d8a9284957f905d981207a7d0b6c62cc46ab0be2a076d0298e4a86d0ab79882dbd01ac373789591611d90575b508160011b916000199060031b1c191617600a5560405191829160208352602083019061302e565b0390a180f35b905082015138611d62565b600a83527fc65a7bb8d6351c1cf70c95a316cc6a92839c986682d98bc35f958f4883f9d2a8601f198216845b818110611e285750916001917f905d981207a7d0b6c62cc46ab0be2a076d0298e4a86d0ab79882dbd01ac37378959682611d8a969510611e0f575b5050811b01600a556105ac565b84015160001960f88460031b161c191690553880611e02565b84870151835560209687019660019093019201611dc7565b611e8890600a84527fc65a7bb8d6351c1cf70c95a316cc6a92839c986682d98bc35f958f4883f9d2a8601f860160051c8101916020871061040357601f0160051c0190613f30565b38611d23565b5034610421576020366003190112610421576020611eb2611ead612fdf565b614b49565b6040519015158152f35b503461042157602080600319360112610ae0576001600160a01b03611edf612fdf565b168252601681526040822091604051809384918482549182815201918452848420935b85828210611f2d57505050611f199250038361312a565b6105c060405192828493845283019061331c565b8554845260019586019588955093019201611f02565b503461042157806003193601126104215760206001600160a01b0360065416604051908152f35b5034610421578060031936011261042157602060405160ff8152f35b503461042157604036600319011261042157611fa0612fdf565b6001600160a01b0316815260166020526040812080546024359290831015610421576020611fce84846132ee565b90546040519160031b1c8152f35b5034610421578060031936011261042157611ff5613350565b611ffd61381a565b600160ff1960085416176008557f62e78cea01bee320cd4e420270b5ea74000d11b0c9f74754ebdbfc544b05a2586020604051338152a180f35b5034610421576020366003190112610421576001600160a01b03612059612fdf565b612061613350565b16806001600160a01b0319600f541617600f557feda44c694e75c8161562f6179238b37a8daa291b6b2229613ed903ed92ab2d3d8280a280f35b50346104215780600319360112610421576120b4613350565b806001600160a01b036006546001600160a01b03198116600655167f8be0079c531659141344cd1fd0a4f28419497f9722a3daafe3b4186f6b6457e08280a380f35b5034610421576020366003190112610421576001600160a01b03612118612fdf565b168015612135578160409160209352600383522054604051908152f35b602482604051907f89c62b640000000000000000000000000000000000000000000000000000000082526004820152fd5b50346104215780600319360112610421576105c06105ac613230565b503461042157806003193601126104215760405190806009546121a4816131f6565b80855291600191808316908115611cbb57506001146121cd576105c0856105ac8187038261312a565b9250600983527f6e1540171b6c0c960b71a7020d9f60077f6af931a8bbf590da0223dacf75c7af5b8284106122105750505081016020016105ac826105c0611c51565b805460208587018101919091529093019281016121f5565b503461042157602080600319360112610ae057600435906001600160a01b0361225681600e54163314614761565b61225f8361356c565b838552600b8352604085209060405191612278836130ba565b549160ff8316815260ff85820193818160081c16855260101c161580156040830152612390575191516040805160ff948516815293909116602084015285938793909283169185917f7f33b20c4df962ca720387409232fd87c13e869902a3e55f0f5fefe0a87768259190a38282526002845260408220541660028115948515612357575b84845252604082206001600160a01b031981541690557fddf252ad1be2c89b69c2b068fc378daa952ba7f163c4a11628f55a4df523b3ef8280a461233f575080f35b60249060405190637e27328960e01b82526004820152fd5b61237885600052600460205260406000206001600160a01b03198154169055565b828452600381526040842080546000190190556122fd565b6064856040519062461bcd60e51b82526004820152600160248201527f55000000000000000000000000000000000000000000000000000000000000006044820152fd5b5034610421576020366003190112610421576123ee612fdf565b6123f6613350565b6001600160a01b0380911690816001600160a01b0319600c541617600c55600d5416907f14662a0fccd762a05d5e1fa6afdd204554c4cf90fe58b5c5947f664fb71925f58380a380f35b503461042157806003193601126104215760206001600160a01b03600c5416604051908152f35b503461042157602036600319011261042157602061248660043561356c565b6001600160a01b0360405191168152f35b5034610421578060031936011261042157602060ff600854166040519015158152f35b503461042157602036600319011261042157604060e0916001600160a01b036124e1612fdf565b16815260156020522060ff8154916001810154906002810154600460038301549201549260405195865260208601526040850152606084015281811615156080840152818160081c1660a084015260101c16151560c0820152f35b50346104215761254b366131b7565b90612554613350565b81519167ffffffffffffffff831161040d576125716009546131f6565b601f8111612691575b50602092601f81116001146125ec579081611d8a9284957ff9c7803e94e0d3c02900d8a90893a6d5e90dd04d32a4cfe825520f82bf9f32f695916125e1575b508160011b916000199060031b1c19161760095560405191829160208352602083019061302e565b9050820151386125b9565b600983527f6e1540171b6c0c960b71a7020d9f60077f6af931a8bbf590da0223dacf75c7af601f198216845b8181106126795750916001917ff9c7803e94e0d3c02900d8a90893a6d5e90dd04d32a4cfe825520f82bf9f32f6959682611d8a969510612660575b5050811b016009556105ac565b84015160001960f88460031b161c191690553880612653565b84870151835560209687019660019093019201612618565b6126d990600984527f6e1540171b6c0c960b71a7020d9f60077f6af931a8bbf590da0223dacf75c7af601f860160051c8101916020871061040357601f0160051c0190613f30565b3861257a565b503461042157806003193601126104215760206001600160a01b03600d5416604051908152f35b503461042157806003193601126104215760206001600160a01b03600e5416604051908152f35b503461042157611a0a61273f36613053565b906040519261274d8461310e565b858452611a04838383613394565b503461042157602036600319011261042157604060e0916001600160a01b03612782612fdf565b8260c0855161279081613088565b82815282602082015282878201528260608201528260808201528260a08201520152168152601560205220604051906127c882613088565b60ff815492838152600183015460208201908152600284015493604083019485526004600382015491606085019283520154946080840192858716151584528560c060a0870196828a60081c168852019760101c16151587526040519788525160208801525160408701525160608601525115156080850152511660a083015251151560c0820152f35b503461042157806003193601126104215761286b613350565b60085460ff8116156128ab5760ff19166008557f5db9ee0a495bf2e6ff9c91a7834c1ba4fdd244a5e8aa4e537bd38aeae4b073aa6020604051338152a180f35b60046040517f8dfc202b000000000000000000000000000000000000000000000000000000008152fd5b50346104215780600319360112610421576020601054604051908152f35b503461042157806003193601126104215761290c613850565b61291461381a565b61291d336139cb565b600160075580f35b503461042157604036600319011261042157602490813567ffffffffffffffff8111610ae05736602382011215610ae0578060040135906129658261314c565b90612973604051928361312a565b828252602092858484019160051b830101913683116118345786859101915b838310612b0b57505050506001600160a01b0380600f5416803303612ac85790838692604051938480927fdc7d73bb00000000000000000000000000000000000000000000000000000000825260043560048301525afa918215610a3b578592612aa9575b5081168015612a6657845260158352604084209260ff600485015416612a235750611a0a939450613f6b565b6064906002876040519262461bcd60e51b845260048401528201527f41460000000000000000000000000000000000000000000000000000000000006044820152fd5b6064846002886040519262461bcd60e51b845260048401528201527f49550000000000000000000000000000000000000000000000000000000000006044820152fd5b612ac1919250843d8611610a7057610a62818361312a565b90386129f7565b6064846002886040519262461bcd60e51b845260048401528201527f564d0000000000000000000000000000000000000000000000000000000000006044820152fd5b8235815291810191859101612992565b50346104215780600319360112610421576020601354604051908152f35b503461042157611a0a612b4b36613053565b91613394565b5034610421578060031936011261042157612b6a613350565b6001600160a01b0380600d5416604051907f70a08231000000000000000000000000000000000000000000000000000000008252306004830152602082602481845afa918215612c57578492612c24575b5081612bc5578380f35b6006546040517fa9059cbb00000000000000000000000000000000000000000000000000000000602082015293166001600160a01b03166024840152604480840192909252908252612c1d919061152360648361312a565b3880808380f35b9091506020813d8211612c4f575b81612c3f6020938361312a565b8101031261169c57519038612bbb565b3d9150612c32565b6040513d86823e3d90fd5b503461042157602036600319011261042157600435612c7f613350565b670de0b6b3a764000090818102918183041490151715611bdc5760125580f35b5034610421576020366003190112610421576020611a30612cbe612fdf565b614c83565b503461042157602036600319011261042157612cdd613350565b60043560135580f35b503461042157604036600319011261042157612d00612fdf565b602435612d0c8161356c565b33151580612dcc575b80612da2575b612d725781906001600160a01b03809416938491167f8c5be1e5ebec7d5bd14f71427d1e84f3dd0314c0f7b2291e5b200ac8c7c3b9258680a48252600460205260408220906001600160a01b031982541617905580f35b60246040517fa9fbf51f000000000000000000000000000000000000000000000000000000008152336004820152fd5b506001600160a01b038116845260056020526040842033855260205260ff60408520541615612d1b565b50336001600160a01b0382161415612d15565b5034610421576020366003190112610421576001600160a01b036040602092600435612e0a8161356c565b50815260048452205416604051908152f35b503461042157806003193601126104215760405190808054612e3d816131f6565b80855291600191808316908115611cbb5750600114612e66576105c0856105ac8187038261312a565b80809450527f290decd9548b62a8d60345a988386fc84ba6bc95484008f6362f93160ef3e5635b828410612ea85750505081016020016105ac826105c0611c51565b80546020858701810191909152909301928101612e8d565b5034610421576020366003190112610421576004356001600160e01b03198116809103610ae057807f80ac58cd0000000000000000000000000000000000000000000000000000000060209214908115612f51575b8115612f27575b506040519015158152f35b7f01ffc9a70000000000000000000000000000000000000000000000000000000091501482612f1c565b7f5b5e139f0000000000000000000000000000000000000000000000000000000081149150612f15565b5034610421576020366003190112610421576001600160a01b03612f9d612fdf565b612fa5613350565b16806001600160a01b0319600e541617600e557f088c5ec3908e3424c43d8102e8e1cc8eb8820a25e326b9c31cc58963046b92e98280a280f35b600435906001600160a01b0382168203610a0857565b602435906001600160a01b0382168203610a0857565b60005b83811061301e5750506000910152565b818101518382015260200161300e565b906020916130478151809281855285808601910161300b565b601f01601f1916010190565b6060906003190112610a08576001600160a01b03906004358281168103610a0857916024359081168103610a08579060443590565b60e0810190811067ffffffffffffffff8211176130a457604052565b634e487b7160e01b600052604160045260246000fd5b6060810190811067ffffffffffffffff8211176130a457604052565b60a0810190811067ffffffffffffffff8211176130a457604052565b6080810190811067ffffffffffffffff8211176130a457604052565b6020810190811067ffffffffffffffff8211176130a457604052565b90601f8019910116810190811067ffffffffffffffff8211176130a457604052565b67ffffffffffffffff81116130a45760051b60200190565b67ffffffffffffffff81116130a457601f01601f191660200190565b92919261318c82613164565b9161319a604051938461312a565b829481845281830111610a08578281602093846000960137010152565b6020600319820112610a08576004359067ffffffffffffffff8211610a085780602383011215610a08578160246131f393600401359101613180565b90565b90600182811c92168015613226575b602083101461321057565b634e487b7160e01b600052602260045260246000fd5b91607f1691613205565b6040519060008260145491613244836131f6565b808352926001908181169081156132cc575060011461326d575b5061326b9250038361312a565b565b6014600090815291507fce6d7b5282bd9a3661ae061feed1dbda4e52ab073b1f9285be6e155d9c38d4ec5b8483106132b1575061326b93505081016020013861325e565b81935090816020925483858a01015201910190918592613298565b90506020925061326b94915060ff191682840152151560051b8201013861325e565b80548210156133065760005260206000200190600090565b634e487b7160e01b600052603260045260246000fd5b90815180825260208080930193019160005b82811061333c575050505090565b83518552938101939281019260010161332e565b6001600160a01b0360065416330361336457565b60246040517f118cdaa7000000000000000000000000000000000000000000000000000000008152336004820152fd5b90916001600160a01b03809316928315613554576000928284528260209560028752604096848888205416968791331515806134a2575b509060027fddf252ad1be2c89b69c2b068fc378daa952ba7f163c4a11628f55a4df523b3ef928461346a575b858352600381528b83206001815401905586835252898120846001600160a01b031982541617905580a416928383036134305750505050565b6064945051927f64283d7b000000000000000000000000000000000000000000000000000000008452600484015260248301526044820152fd5b61348b87600052600460205260406000206001600160a01b03198154169055565b848352600381528b832080546000190190556133f7565b91939450915080613513575b156134be578592918791386133cb565b8786886134db576024915190637e27328960e01b82526004820152fd5b90517f177e802f0000000000000000000000000000000000000000000000000000000081523360048201526024810191909152604490fd5b503387148015613538575b806134ae57508582526004815233858984205416146134ae565b5086825260058152878220338352815260ff888320541661351e565b6024604051633250574960e11b815260006004820152fd5b8060005260026020526001600160a01b036040600020541690811561233f575090565b3d156135ba573d906135a082613164565b916135ae604051938461312a565b82523d6000602084013e565b606090565b9293823b6135cf575b5050505050565b613614906001600160a01b038094169560405194859481630a85bd0160e11b98898852166004870152166024850152604484015260806064840152608483019061302e565b03906020816000938185885af190829082613693575b5050613661578261363961358f565b805191908261365a5760248260405190633250574960e11b82526004820152fd5b6020915001fd5b6001600160e01b0319160361367b575038808080806135c8565b60249060405190633250574960e11b82526004820152fd5b909192506020813d82116136d3575b816136af6020938361312a565b81010312610ae05751906001600160e01b031982168203610421575090388061362a565b3d91506136a2565b156136e257565b606460405162461bcd60e51b815260206004820152600260248201527f49510000000000000000000000000000000000000000000000000000000000006044820152fd5b1561372d57565b606460405162461bcd60e51b815260206004820152600260248201527f504d0000000000000000000000000000000000000000000000000000000000006044820152fd5b8181029291811591840414171561378457565b634e487b7160e01b600052601160045260246000fd5b906000602091828151910182855af11561380e576000513d61380557506001600160a01b0381163b155b6137cb5750565b6024906001600160a01b03604051917f5274afe7000000000000000000000000000000000000000000000000000000008352166004820152fd5b600114156137c4565b6040513d6000823e3d90fd5b60ff6008541661382657565b60046040517fd93c0665000000000000000000000000000000000000000000000000000000008152fd5b600260075414613861576002600755565b60046040517f3ee5aeb5000000000000000000000000000000000000000000000000000000008152fd5b90816020910312610a0857516001600160a01b0381168103610a085790565b156138b157565b606460405162461bcd60e51b815260206004820152600260248201527f4e500000000000000000000000000000000000000000000000000000000000006044820152fd5b156138fc57565b606460405162461bcd60e51b815260206004820152600260248201527f41520000000000000000000000000000000000000000000000000000000000006044820152fd5b9190604083820312610a085782518015158103610a085792602090818101519067ffffffffffffffff8211610a0857019180601f84011215610a085782516139878161314c565b93613995604051958661312a565b818552838086019260051b820101928311610a08578301905b8282106139bc575050505090565b815181529083019083016139ae565b906001600160a01b03808316600052601560205260406000206139f0815415156138aa565b613a0160ff600483015416156138f5565b81600f541680613e41575b5054600381019081811161378457814310613dfd5761010201809111613784574311613db957808316600090815260156020908152604080832060048082018054600160ff1991821681179092556017865284872091875294528285208054851690556002855282852080548516905560038086528386208054861690559085528285208054851690556005855291909320805490921690915581549194919081019081106137845740938415613da4575b613acb6001820154613ebc565b9460005b6001830154811015613b9857601190815491613aea83613eee565b905581613af7828a613efd565b52613b54604051613b07816130ba565b60008152602081016000815261094660ff60408401926000845287600052600b60205281604060002095511682198654161785555116839061ff0082549160081b169061ff001916179055565b613b5e82866141e6565b85851660005260166020526040600020918254600160401b8110156130a457610f8981613b93956001610fa0940181556132ee565b613acf565b50919294909360005b8251811015613d165780613bb8613d119285613efd565b51613c6760405188602082018981526060926bffffffffffffffffffffffff1983851b166040820152866054820152607486818301528152613bf9816130d6565b5190208c82166000526015602052604060002060c060ff600460405193613c1f85613088565b8054855260018101549788602087015260028201546040870152600382015490860152015481811615156080850152818160081c1660a085015260101c161515910152614453565b6000828152600b60209081526040918290208054600885901b61ff001660ff861662ffffff199092168217176201000017909155825181815291820152919291898c169183917fc8a443c1907d413e7a1dca411f6c6e7a16f3aa80eed13699a22eab2af2c4c1e49190a36040805160ff9093168084526020840152888b16927f6887aac0938f877edd3b2e270244e90b56b78b9da03bfc5bd410f1f90728479c91819081016110b7565b613ba1565b50949391507f0908417bb2d0393a45bf6efe35cecf8dbedbab1767b8d95f650094c6ccd1d0ac9060ff6004600185015494015460081c16613d606040519283928888169684613f11565b0390a2166000526015602052613d92604060002060046000918281558260018201558260028201558260038201550155565b601660205261326b6040600020613f47565b93506000194301438111613784574093613abe565b606460405162461bcd60e51b815260206004820152600160248201527f45000000000000000000000000000000000000000000000000000000000000006044820152fd5b606460405162461bcd60e51b815260206004820152600260248201527f54450000000000000000000000000000000000000000000000000000000000006044820152fd5b600060249160405192838092635681dbe960e01b8252878a1660048301525afa90811561380e57600090600092613e96575b5080613e8c575b15613a0c5790915061326b9293613f6b565b5080511515613e7a565b9050613eb591503d806000833e613ead818361312a565b810190613940565b9038613e73565b90613ec68261314c565b613ed3604051918261312a565b8281528092613ee4601f199161314c565b0190602036910137565b60001981146137845760010190565b80518210156133065760209160051b010190565b60ff6131f394936060938352166020820152816040820152019061331c565b818110613f3b575050565b60008155600101613f30565b80546000825580613f56575050565b61326b91600052602060002090810190613f30565b60048381018054600160ff19918216811783556001600160a01b038516600081815260176020908152604080832085845282528083208054871690556002835280832080548716905560038352808320805487169055878352808320805487169055600583528083208054871690559984018054979b9a999298919793969590949093909290613ffa90613ebc565b9b89845b614082575b505050505050917f0908417bb2d0393a45bf6efe35cecf8dbedbab1767b8d95f650094c6ccd1d0ac61326b9798829361404e60ff6016989754925460081c16928a5193849384613f11565b0390a283526015815261407b84842060046000918281558260018201558260028201558260038201550155565b5220613f47565b86548110156141e1578d60116140a78382549384936140a085613eee565b9055613efd565b528351156141ce578392918a828f8f8f7f6887aac0938f877edd3b2e270244e90b56b78b9da03bfc5bd410f1f90728479c9261416c8f938f938f9d8f918f929c61411d6110b7996141c69f846109469601518a51868101918252858c8201528b8152614112816130ba565b519020915491614453565b97888880519761412c896130ba565b600b60ff968780951696878c52818c01978852848c019a8b5283525220965116908654161785555116839061ff0082549160081b169061ff001916179055565b614176858d6141e6565b805160ff83168082526020820152869086907fc8a443c1907d413e7a1dca411f6c6e7a16f3aa80eed13699a22eab2af2c4c1e490604090a35160ff90911680825260208201529081906040820190565b909192613ffe565b60248c603285634e487b7160e01b835252fd5b614003565b60408051926141f48461310e565b60008085526001600160a01b03948585169485156143ee57838352602096600288528584205416848782151592836143b6575b81875260038b528887206001815401905582875260028b52888720826001600160a01b03198254161790557fddf252ad1be2c89b69c2b068fc378daa952ba7f163c4a11628f55a4df523b3ef8780a4614386573b614288575b505050505050565b856142c59185969798955180938192630a85bd0160e11b97888452336004850152876024850152604484015260806064840152608483019061302e565b0381858a5af190829082614342575b505061430b575050506142e561358f565b805193908461430557602484845190633250574960e11b82526004820152fd5b84925001fd5b6001600160e01b031991929550160361432b575050388080808080614280565b602492505190633250574960e11b82526004820152fd5b909192508781813d831161437f575b61435b818361312a565b81010312610ae05751906001600160e01b03198216820361042157509038806142d4565b503d614351565b6024838651907f73c6ac6e0000000000000000000000000000000000000000000000000000000082526004820152fd5b6143d783600052600460205260406000206001600160a01b03198154169055565b80875260038b528887208054600019019055614227565b602483865190633250574960e11b82526004820152fd5b90601a5482101561330657601a600052601f8260051c7f057c384a7d1c54f3a1b2e5e67b2617b8224fdfd1ea7234eea573a6ff665ff63e01921690565b60ff1660ff81146137845760010190565b60649006602c81101561472557506001915b806000526018916020908382526040928360002094845195614486876130f2565b5460ff968792838316948583526008908585831c16898501526010938686861c168b82015286606096851c1686820152961561462d575b505050506005828916146145ed575b6004828916146145ab575b600382891614614569575b60028289161461452a575b5050506001600160a01b0316600052601781528160002090838516600052526000209081549061451e818316614442565b169060ff191617905590565b6001600160a01b03841660005260178552856000206002600052855281866000205416920151161115614560575b3884816144ed565b60019450614558565b90506001600160a01b0383166000526017845284600020600360005284528585600020541686868401511611156145a2575b85906144e2565b6002965061459b565b90506001600160a01b0383166000526017845284600020600460005284528585600020541686858401511611156145e4575b85906144d7565b600396506145dd565b90506001600160a01b03831660005260178452846000206005600052845285856000205416868351161115614624575b85906144cc565b6004965061461d565b859394965083929181600585931060001461468357506001600052828a528a600020958b519661465c886130f2565b54948580938282168a521c168b8801521c16898501521c1683820152915b388080806144bd565b600a8110156146c857506005600052828a528a600020958b51966146a6886130f2565b54948580938282168a521c168b8801521c16898501521c16838201529161467a565b60148110156146eb5750600a600052828a528a600020958b51966146a6886130f2565b6032111561470c576014600052828a528a600020958b51966146a6886130f2565b6032600052828a528a600020958b51966146a6886130f2565b604f8110156147375750600291614465565b605e8110156147495750600391614465565b6063111561475957600491614465565b600591614465565b1561476857565b606460405162461bcd60e51b815260206004820152600260248201527f4e410000000000000000000000000000000000000000000000000000000000006044820152fd5b6147b58161356c565b506000908082526020600b815260ff604084205460101c1615614a5457600954926147df846131f6565b15614a10578291817a184f03e93ff9f4daa797ed6e38ed64bf6a1f0100000000000000008481811015614a02575b50506d04ee2d6d415b85acef8100000000808610156149f6575b50662386f26fc10000808610156149e9575b506305f5e100808610156149dc575b50612710808610156149cf575b5060648510156149c1575b600a809510156149b9575b6001918282019561489461487e88613164565b9761488c604051998a61312a565b808952613164565b95846021848a0195601f19809a013688378a0101905b61497d575b50505060405196848895946148c3836131f6565b9281811690811561495c57506001146148fa575b505050506148ed82916131f3965193849161300b565b010390810183528261312a565b90919297939450600982527f6e1540171b6c0c960b71a7020d9f60077f6af931a8bbf590da0223dacf75c7af5b838310614946575050506131f3956148ed9185010192919538806148d7565b80548a84018a0152899650918801918101614927565b60ff1916888601525050508015150284010191506148ed6131f338806148d7565b600019019082907f30313233343536373839616263646566000000000000000000000000000000008282061a8353049085826148aa57506148af565b60010161486b565b936064600291049401614860565b6004919504940138614855565b6008919504940138614848565b6010919504940138614839565b82919504940138614827565b04945060409050388061480d565b6064826040519062461bcd60e51b82526004820152600160248201527f42000000000000000000000000000000000000000000000000000000000000006044820152fd5b5050506131f3613230565b906001600160a01b03600c5416918215614b05578015614afe5760206012546024604051809681937f7b2e0fcf00000000000000000000000000000000000000000000000000000000835260048301525afa92831561380e57600093614acb575b506131f39192613771565b6020813d8211614af6575b81614ae36020938361312a565b8101031261169c575192506131f3614ac0565b3d9150614ad6565b5060009150565b606460405162461bcd60e51b815260206004820152600160248201527f44000000000000000000000000000000000000000000000000000000000000006044820152fd5b6001600160a01b038091166000908082526015602052604082209082600460405193614b7485613088565b8054855260018101546020860152600281015460408601526003810154606086015201549460ff608085019681811615158852818160081c1660a087015260101c16151560c0850152600f54169182614c2b575b50505080518015159384614c21575b5083614c09575b5082614be957505090565b51600381019250828111611bdc5761010201809211611bc8575043111590565b90925060038101809111611bdc574310159138614bde565b5115935038614bd7565b602460405180948193635681dbe960e01b835260048301525afa908115610a77578391614c68575b50614c6057388281614bc8565b505050600190565b614c7c91503d8085833e613ead818361312a565b5038614c53565b6001600160a01b0360009116815260156020526040812060405190614ca782613088565b6004815491828452600181015460208501526002810154604085015260038101546060850152015460ff808216151591826080860152818160081c1660a086015260101c16151560c08401528115908115614d50575b50614d4b5760038101809111614d3757431015614d335751906003820191828111611bdc57439003600301918211611bc8575090565b5090565b602483634e487b7160e01b81526011600452fd5b505090565b905038614cfd56fea26469706673582212209451a406bbe83a72635be6d05498dc8a7c7b81831047383862b3baa0e7ad8e5b64736f6c63430008140033ce6d7b5282bd9a3661ae061feed1dbda4e52ab073b1f9285be6e155d9c38d4ec",
  "linkReferences": {},
  "deployedLinkReferences": {}
}