{
  "_format": "hh-sol-artifact-1",
  "contractName": "Relic",
  "sourceName": "contracts/current/nft/Relic.sol",
  "abi": [
    {
      "inputs": [
        {
          "internalType": "address",
          "name": "initialOwner",
          "type": "address"
        }
      ],
      "stateMutability": "nonpayable",
      "type": "constructor"
    },
    {
      "inputs": [
        {
          "internalType": "address",
          "name": "sender",
          "type": "address"
        },
        {
          "internalType": "uint256",
          "name": "tokenId",
          "type": "uint256"
        },
        {
          "internalType": "address",
          "name": "owner",
          "type": "address"
        }
      ],
      "name": "ERC721IncorrectOwner",
      "type": "error"
    },
    {
      "inputs": [
        {
          "internalType": "address",
          "name": "operator",
          "type": "address"
        },
        {
          "internalType": "uint256",
          "name": "tokenId",
          "type": "uint256"
        }
      ],
      "name": "ERC721InsufficientApproval",
      "type": "error"
    },
    {
      "inputs": [
        {
          "internalType": "address",
          "name": "approver",
          "type": "address"
        }
      ],
      "name": "ERC721InvalidApprover",
      "type": "error"
    },
    {
      "inputs": [
        {
          "internalType": "address",
          "name": "operator",
          "type": "address"
        }
      ],
      "name": "ERC721InvalidOperator",
      "type": "error"
    },
    {
      "inputs": [
        {
          "internalType": "address",
          "name": "owner",
          "type": "address"
        }
      ],
      "name": "ERC721InvalidOwner",
      "type": "error"
    },
    {
      "inputs": [
        {
          "internalType": "address",
          "name": "receiver",
          "type": "address"
        }
      ],
      "name": "ERC721InvalidReceiver",
      "type": "error"
    },
    {
      "inputs": [
        {
          "internalType": "address",
          "name": "sender",
          "type": "address"
        }
      ],
      "name": "ERC721InvalidSender",
      "type": "error"
    },
    {
      "inputs": [
        {
          "internalType": "uint256",
          "name": "tokenId",
          "type": "uint256"
        }
      ],
      "name": "ERC721NonexistentToken",
      "type": "error"
    },
    {
      "inputs": [],
      "name": "EnforcedPause",
      "type": "error"
    },
    {
      "inputs": [],
      "name": "ExpectedPause",
      "type": "error"
    },
    {
      "inputs": [
        {
          "internalType": "address",
          "name": "owner",
          "type": "address"
        }
      ],
      "name": "OwnableInvalidOwner",
      "type": "error"
    },
    {
      "inputs": [
        {
          "internalType": "address",
          "name": "account",
          "type": "address"
        }
      ],
      "name": "OwnableUnauthorizedAccount",
      "type": "error"
    },
    {
      "inputs": [],
      "name": "ReentrancyGuardReentrantCall",
      "type": "error"
    },
    {
      "inputs": [
        {
          "internalType": "address",
          "name": "token",
          "type": "address"
        }
      ],
      "name": "SafeERC20FailedOperation",
      "type": "error"
    },
    {
      "anonymous": false,
      "inputs": [
        {
          "indexed": true,
          "internalType": "address",
          "name": "owner",
          "type": "address"
        },
        {
          "indexed": true,
          "internalType": "address",
          "name": "approved",
          "type": "address"
        },
        {
          "indexed": true,
          "internalType": "uint256",
          "name": "tokenId",
          "type": "uint256"
        }
      ],
      "name": "Approval",
      "type": "event"
    },
    {
      "anonymous": false,
      "inputs": [
        {
          "indexed": true,
          "internalType": "address",
          "name": "owner",
          "type": "address"
        },
        {
          "indexed": true,
          "internalType": "address",
          "name": "operator",
          "type": "address"
        },
        {
          "indexed": false,
          "internalType": "bool",
          "name": "approved",
          "type": "bool"
        }
      ],
      "name": "ApprovalForAll",
      "type": "event"
    },
    {
      "anonymous": false,
      "inputs": [
        {
          "indexed": true,
          "internalType": "address",
          "name": "newAddress",
          "type": "address"
        }
      ],
      "name": "AscensionAltarSet",
      "type": "event"
    },
    {
      "anonymous": false,
      "inputs": [
        {
          "indexed": false,
          "internalType": "string",
          "name": "newBaseURI",
          "type": "string"
        }
      ],
      "name": "BaseURISet",
      "type": "event"
    },
    {
      "anonymous": false,
      "inputs": [
        {
          "indexed": true,
          "internalType": "address",
          "name": "player",
          "type": "address"
        },
        {
          "indexed": false,
          "internalType": "uint256",
          "name": "quantity",
          "type": "uint256"
        },
        {
          "indexed": false,
          "internalType": "uint8",
          "name": "maxRarity",
          "type": "uint8"
        },
        {
          "indexed": false,
          "internalType": "uint256[]",
          "name": "tokenIds",
          "type": "uint256[]"
        }
      ],
      "name": "BatchMintCompleted",
      "type": "event"
    },
    {
      "anonymous": false,
      "inputs": [
        {
          "indexed": false,
          "internalType": "uint256",
          "name": "tierId",
          "type": "uint256"
        },
        {
          "indexed": false,
          "internalType": "uint256",
          "name": "minQuantity",
          "type": "uint256"
        },
        {
          "indexed": false,
          "internalType": "uint8",
          "name": "maxRarity",
          "type": "uint8"
        },
        {
          "indexed": false,
          "internalType": "string",
          "name": "tierName",
          "type": "string"
        }
      ],
      "name": "BatchTierSet",
      "type": "event"
    },
    {
      "anonymous": false,
      "inputs": [
        {
          "indexed": false,
          "internalType": "string",
          "name": "newContractURI",
          "type": "string"
        }
      ],
      "name": "ContractURIUpdated",
      "type": "event"
    },
    {
      "anonymous": false,
      "inputs": [
        {
          "indexed": true,
          "internalType": "address",
          "name": "core",
          "type": "address"
        },
        {
          "indexed": true,
          "internalType": "address",
          "name": "token",
          "type": "address"
        }
      ],
      "name": "ContractsSet",
      "type": "event"
    },
    {
      "anonymous": false,
      "inputs": [
        {
          "indexed": false,
          "internalType": "uint256",
          "name": "newSeed",
          "type": "uint256"
        }
      ],
      "name": "DynamicSeedUpdated",
      "type": "event"
    },
    {
      "anonymous": false,
      "inputs": [
        {
          "indexed": true,
          "internalType": "address",
          "name": "previousOwner",
          "type": "address"
        },
        {
          "indexed": true,
          "internalType": "address",
          "name": "newOwner",
          "type": "address"
        }
      ],
      "name": "OwnershipTransferred",
      "type": "event"
    },
    {
      "anonymous": false,
      "inputs": [
        {
          "indexed": false,
          "internalType": "address",
          "name": "account",
          "type": "address"
        }
      ],
      "name": "Paused",
      "type": "event"
    },
    {
      "anonymous": false,
      "inputs": [
        {
          "indexed": true,
          "internalType": "uint256",
          "name": "tokenId",
          "type": "uint256"
        },
        {
          "indexed": true,
          "internalType": "address",
          "name": "owner",
          "type": "address"
        },
        {
          "indexed": false,
          "internalType": "uint8",
          "name": "rarity",
          "type": "uint8"
        },
        {
          "indexed": false,
          "internalType": "uint8",
          "name": "capacity",
          "type": "uint8"
        }
      ],
      "name": "RelicBurned",
      "type": "event"
    },
    {
      "anonymous": false,
      "inputs": [
        {
          "indexed": true,
          "internalType": "uint256",
          "name": "tokenId",
          "type": "uint256"
        },
        {
          "indexed": true,
          "internalType": "address",
          "name": "owner",
          "type": "address"
        },
        {
          "indexed": false,
          "internalType": "uint8",
          "name": "rarity",
          "type": "uint8"
        },
        {
          "indexed": false,
          "internalType": "uint8",
          "name": "capacity",
          "type": "uint8"
        }
      ],
      "name": "RelicMinted",
      "type": "event"
    },
    {
      "anonymous": false,
      "inputs": [
        {
          "indexed": true,
          "internalType": "address",
          "name": "from",
          "type": "address"
        },
        {
          "indexed": true,
          "internalType": "address",
          "name": "to",
          "type": "address"
        },
        {
          "indexed": true,
          "internalType": "uint256",
          "name": "tokenId",
          "type": "uint256"
        }
      ],
      "name": "Transfer",
      "type": "event"
    },
    {
      "anonymous": false,
      "inputs": [
        {
          "indexed": false,
          "internalType": "address",
          "name": "account",
          "type": "address"
        }
      ],
      "name": "Unpaused",
      "type": "event"
    },
    {
      "inputs": [
        {
          "internalType": "address",
          "name": "to",
          "type": "address"
        },
        {
          "internalType": "uint256",
          "name": "tokenId",
          "type": "uint256"
        }
      ],
      "name": "approve",
      "outputs": [],
      "stateMutability": "nonpayable",
      "type": "function"
    },
    {
      "inputs": [],
      "name": "ascensionAltarAddress",
      "outputs": [
        {
          "internalType": "address",
          "name": "",
          "type": "address"
        }
      ],
      "stateMutability": "view",
      "type": "function"
    },
    {
      "inputs": [
        {
          "internalType": "address",
          "name": "owner",
          "type": "address"
        }
      ],
      "name": "balanceOf",
      "outputs": [
        {
          "internalType": "uint256",
          "name": "",
          "type": "uint256"
        }
      ],
      "stateMutability": "view",
      "type": "function"
    },
    {
      "inputs": [],
      "name": "baseURI",
      "outputs": [
        {
          "internalType": "string",
          "name": "",
          "type": "string"
        }
      ],
      "stateMutability": "view",
      "type": "function"
    },
    {
      "inputs": [
        {
          "internalType": "uint256",
          "name": "",
          "type": "uint256"
        }
      ],
      "name": "batchTiers",
      "outputs": [
        {
          "internalType": "uint256",
          "name": "minQuantity",
          "type": "uint256"
        },
        {
          "internalType": "uint8",
          "name": "maxRarity",
          "type": "uint8"
        },
        {
          "internalType": "string",
          "name": "tierName",
          "type": "string"
        }
      ],
      "stateMutability": "view",
      "type": "function"
    },
    {
      "inputs": [
        {
          "internalType": "uint256",
          "name": "_tokenId",
          "type": "uint256"
        }
      ],
      "name": "burnFromAltar",
      "outputs": [],
      "stateMutability": "nonpayable",
      "type": "function"
    },
    {
      "inputs": [],
      "name": "contractURI",
      "outputs": [
        {
          "internalType": "string",
          "name": "",
          "type": "string"
        }
      ],
      "stateMutability": "view",
      "type": "function"
    },
    {
      "inputs": [],
      "name": "dungeonCore",
      "outputs": [
        {
          "internalType": "contract IDungeonCore",
          "name": "",
          "type": "address"
        }
      ],
      "stateMutability": "view",
      "type": "function"
    },
    {
      "inputs": [],
      "name": "dynamicSeed",
      "outputs": [
        {
          "internalType": "uint256",
          "name": "",
          "type": "uint256"
        }
      ],
      "stateMutability": "view",
      "type": "function"
    },
    {
      "inputs": [],
      "name": "getAllBatchTiers",
      "outputs": [
        {
          "components": [
            {
              "internalType": "uint256",
              "name": "minQuantity",
              "type": "uint256"
            },
            {
              "internalType": "uint8",
              "name": "maxRarity",
              "type": "uint8"
            },
            {
              "internalType": "string",
              "name": "tierName",
              "type": "string"
            }
          ],
          "internalType": "struct Relic.BatchTier[]",
          "name": "",
          "type": "tuple[]"
        }
      ],
      "stateMutability": "view",
      "type": "function"
    },
    {
      "inputs": [
        {
          "internalType": "uint256",
          "name": "tokenId",
          "type": "uint256"
        }
      ],
      "name": "getApproved",
      "outputs": [
        {
          "internalType": "address",
          "name": "",
          "type": "address"
        }
      ],
      "stateMutability": "view",
      "type": "function"
    },
    {
      "inputs": [
        {
          "internalType": "uint256",
          "name": "_quantity",
          "type": "uint256"
        }
      ],
      "name": "getBatchTierInfo",
      "outputs": [
        {
          "internalType": "uint8",
          "name": "maxRarity",
          "type": "uint8"
        },
        {
          "internalType": "string",
          "name": "tierName",
          "type": "string"
        },
        {
          "internalType": "uint256",
          "name": "exactTierQuantity",
          "type": "uint256"
        },
        {
          "internalType": "uint256",
          "name": "totalCost",
          "type": "uint256"
        }
      ],
      "stateMutability": "view",
      "type": "function"
    },
    {
      "inputs": [
        {
          "internalType": "uint256",
          "name": "_quantity",
          "type": "uint256"
        }
      ],
      "name": "getMaxRarityForQuantity",
      "outputs": [
        {
          "internalType": "uint8",
          "name": "maxRarity",
          "type": "uint8"
        },
        {
          "internalType": "string",
          "name": "tierName",
          "type": "string"
        }
      ],
      "stateMutability": "view",
      "type": "function"
    },
    {
      "inputs": [
        {
          "internalType": "uint256",
          "name": "tokenId",
          "type": "uint256"
        }
      ],
      "name": "getRelicProperties",
      "outputs": [
        {
          "internalType": "uint8",
          "name": "rarity",
          "type": "uint8"
        },
        {
          "internalType": "uint8",
          "name": "capacity",
          "type": "uint8"
        }
      ],
      "stateMutability": "view",
      "type": "function"
    },
    {
      "inputs": [
        {
          "internalType": "uint256",
          "name": "_quantity",
          "type": "uint256"
        }
      ],
      "name": "getRequiredSoulShardAmount",
      "outputs": [
        {
          "internalType": "uint256",
          "name": "",
          "type": "uint256"
        }
      ],
      "stateMutability": "view",
      "type": "function"
    },
    {
      "inputs": [
        {
          "internalType": "address",
          "name": "owner",
          "type": "address"
        },
        {
          "internalType": "address",
          "name": "operator",
          "type": "address"
        }
      ],
      "name": "isApprovedForAll",
      "outputs": [
        {
          "internalType": "bool",
          "name": "",
          "type": "bool"
        }
      ],
      "stateMutability": "view",
      "type": "function"
    },
    {
      "inputs": [
        {
          "internalType": "address",
          "name": "_to",
          "type": "address"
        },
        {
          "internalType": "uint8",
          "name": "_rarity",
          "type": "uint8"
        },
        {
          "internalType": "uint8",
          "name": "_capacity",
          "type": "uint8"
        }
      ],
      "name": "mintFromAltar",
      "outputs": [
        {
          "internalType": "uint256",
          "name": "",
          "type": "uint256"
        }
      ],
      "stateMutability": "nonpayable",
      "type": "function"
    },
    {
      "inputs": [
        {
          "internalType": "uint256",
          "name": "_quantity",
          "type": "uint256"
        }
      ],
      "name": "mintFromVault",
      "outputs": [],
      "stateMutability": "payable",
      "type": "function"
    },
    {
      "inputs": [
        {
          "internalType": "uint256",
          "name": "_quantity",
          "type": "uint256"
        }
      ],
      "name": "mintFromWallet",
      "outputs": [],
      "stateMutability": "payable",
      "type": "function"
    },
    {
      "inputs": [],
      "name": "mintPriceUSD",
      "outputs": [
        {
          "internalType": "uint256",
          "name": "",
          "type": "uint256"
        }
      ],
      "stateMutability": "view",
      "type": "function"
    },
    {
      "inputs": [],
      "name": "name",
      "outputs": [
        {
          "internalType": "string",
          "name": "",
          "type": "string"
        }
      ],
      "stateMutability": "view",
      "type": "function"
    },
    {
      "inputs": [],
      "name": "owner",
      "outputs": [
        {
          "internalType": "address",
          "name": "",
          "type": "address"
        }
      ],
      "stateMutability": "view",
      "type": "function"
    },
    {
      "inputs": [
        {
          "internalType": "uint256",
          "name": "tokenId",
          "type": "uint256"
        }
      ],
      "name": "ownerOf",
      "outputs": [
        {
          "internalType": "address",
          "name": "",
          "type": "address"
        }
      ],
      "stateMutability": "view",
      "type": "function"
    },
    {
      "inputs": [],
      "name": "pause",
      "outputs": [],
      "stateMutability": "nonpayable",
      "type": "function"
    },
    {
      "inputs": [],
      "name": "paused",
      "outputs": [
        {
          "internalType": "bool",
          "name": "",
          "type": "bool"
        }
      ],
      "stateMutability": "view",
      "type": "function"
    },
    {
      "inputs": [],
      "name": "platformFee",
      "outputs": [
        {
          "internalType": "uint256",
          "name": "",
          "type": "uint256"
        }
      ],
      "stateMutability": "view",
      "type": "function"
    },
    {
      "inputs": [
        {
          "internalType": "uint256",
          "name": "",
          "type": "uint256"
        }
      ],
      "name": "relicData",
      "outputs": [
        {
          "internalType": "uint8",
          "name": "rarity",
          "type": "uint8"
        },
        {
          "internalType": "uint8",
          "name": "capacity",
          "type": "uint8"
        }
      ],
      "stateMutability": "view",
      "type": "function"
    },
    {
      "inputs": [],
      "name": "renounceOwnership",
      "outputs": [],
      "stateMutability": "nonpayable",
      "type": "function"
    },
    {
      "inputs": [
        {
          "internalType": "address",
          "name": "from",
          "type": "address"
        },
        {
          "internalType": "address",
          "name": "to",
          "type": "address"
        },
        {
          "internalType": "uint256",
          "name": "tokenId",
          "type": "uint256"
        }
      ],
      "name": "safeTransferFrom",
      "outputs": [],
      "stateMutability": "nonpayable",
      "type": "function"
    },
    {
      "inputs": [
        {
          "internalType": "address",
          "name": "from",
          "type": "address"
        },
        {
          "internalType": "address",
          "name": "to",
          "type": "address"
        },
        {
          "internalType": "uint256",
          "name": "tokenId",
          "type": "uint256"
        },
        {
          "internalType": "bytes",
          "name": "data",
          "type": "bytes"
        }
      ],
      "name": "safeTransferFrom",
      "outputs": [],
      "stateMutability": "nonpayable",
      "type": "function"
    },
    {
      "inputs": [
        {
          "internalType": "address",
          "name": "operator",
          "type": "address"
        },
        {
          "internalType": "bool",
          "name": "approved",
          "type": "bool"
        }
      ],
      "name": "setApprovalForAll",
      "outputs": [],
      "stateMutability": "nonpayable",
      "type": "function"
    },
    {
      "inputs": [
        {
          "internalType": "address",
          "name": "_address",
          "type": "address"
        }
      ],
      "name": "setAscensionAltarAddress",
      "outputs": [],
      "stateMutability": "nonpayable",
      "type": "function"
    },
    {
      "inputs": [
        {
          "internalType": "string",
          "name": "_newBaseURI",
          "type": "string"
        }
      ],
      "name": "setBaseURI",
      "outputs": [],
      "stateMutability": "nonpayable",
      "type": "function"
    },
    {
      "inputs": [
        {
          "internalType": "uint256",
          "name": "_tierId",
          "type": "uint256"
        },
        {
          "internalType": "uint256",
          "name": "_minQuantity",
          "type": "uint256"
        },
        {
          "internalType": "uint8",
          "name": "_maxRarity",
          "type": "uint8"
        },
        {
          "internalType": "string",
          "name": "_tierName",
          "type": "string"
        }
      ],
      "name": "setBatchTier",
      "outputs": [],
      "stateMutability": "nonpayable",
      "type": "function"
    },
    {
      "inputs": [
        {
          "internalType": "string",
          "name": "newContractURI",
          "type": "string"
        }
      ],
      "name": "setContractURI",
      "outputs": [],
      "stateMutability": "nonpayable",
      "type": "function"
    },
    {
      "inputs": [
        {
          "internalType": "address",
          "name": "_address",
          "type": "address"
        }
      ],
      "name": "setDungeonCore",
      "outputs": [],
      "stateMutability": "nonpayable",
      "type": "function"
    },
    {
      "inputs": [
        {
          "internalType": "uint256",
          "name": "_newPrice",
          "type": "uint256"
        }
      ],
      "name": "setMintPriceUSD",
      "outputs": [],
      "stateMutability": "nonpayable",
      "type": "function"
    },
    {
      "inputs": [
        {
          "internalType": "uint256",
          "name": "_newFee",
          "type": "uint256"
        }
      ],
      "name": "setPlatformFee",
      "outputs": [],
      "stateMutability": "nonpayable",
      "type": "function"
    },
    {
      "inputs": [
        {
          "internalType": "address",
          "name": "_address",
          "type": "address"
        }
      ],
      "name": "setSoulShardToken",
      "outputs": [],
      "stateMutability": "nonpayable",
      "type": "function"
    },
    {
      "inputs": [],
      "name": "soulShardToken",
      "outputs": [
        {
          "internalType": "contract IERC20",
          "name": "",
          "type": "address"
        }
      ],
      "stateMutability": "view",
      "type": "function"
    },
    {
      "inputs": [
        {
          "internalType": "bytes4",
          "name": "interfaceId",
          "type": "bytes4"
        }
      ],
      "name": "supportsInterface",
      "outputs": [
        {
          "internalType": "bool",
          "name": "",
          "type": "bool"
        }
      ],
      "stateMutability": "view",
      "type": "function"
    },
    {
      "inputs": [],
      "name": "symbol",
      "outputs": [
        {
          "internalType": "string",
          "name": "",
          "type": "string"
        }
      ],
      "stateMutability": "view",
      "type": "function"
    },
    {
      "inputs": [],
      "name": "tierCount",
      "outputs": [
        {
          "internalType": "uint256",
          "name": "",
          "type": "uint256"
        }
      ],
      "stateMutability": "view",
      "type": "function"
    },
    {
      "inputs": [
        {
          "internalType": "uint256",
          "name": "tokenId",
          "type": "uint256"
        }
      ],
      "name": "tokenURI",
      "outputs": [
        {
          "internalType": "string",
          "name": "",
          "type": "string"
        }
      ],
      "stateMutability": "view",
      "type": "function"
    },
    {
      "inputs": [
        {
          "internalType": "address",
          "name": "from",
          "type": "address"
        },
        {
          "internalType": "address",
          "name": "to",
          "type": "address"
        },
        {
          "internalType": "uint256",
          "name": "tokenId",
          "type": "uint256"
        }
      ],
      "name": "transferFrom",
      "outputs": [],
      "stateMutability": "nonpayable",
      "type": "function"
    },
    {
      "inputs": [
        {
          "internalType": "address",
          "name": "newOwner",
          "type": "address"
        }
      ],
      "name": "transferOwnership",
      "outputs": [],
      "stateMutability": "nonpayable",
      "type": "function"
    },
    {
      "inputs": [],
      "name": "unpause",
      "outputs": [],
      "stateMutability": "nonpayable",
      "type": "function"
    },
    {
      "inputs": [],
      "name": "withdrawNativeFunding",
      "outputs": [],
      "stateMutability": "nonpayable",
      "type": "function"
    },
    {
      "inputs": [],
      "name": "withdrawSoulShard",
      "outputs": [],
      "stateMutability": "nonpayable",
      "type": "function"
    },
    {
      "stateMutability": "payable",
      "type": "receive"
    }
  ],
  "bytecode": "0x60803462000cbb57601f62003c1338819003918201601f19168301916001600160401b03831184841017620007615780849260209460405283398101031262000cbb57516001600160a01b03908181169081900362000cbb5760405191620000678362000cdc565b601583527f44756e67656f6e2044656c766572732052656c69630000000000000000000000602084015260405191620000a08362000cdc565b600383526222222960e91b602084015283516001600160401b0381116200076157600054600181811c9116801562000cb0575b60208210146200074057601f811162000c58575b50602094601f821160011462000be05794819293949560009262000bd4575b50508160011b916000199060031b1c1916176000555b82516001600160401b0381116200076157600154600181811c9116801562000bc9575b60208210146200074057601f811162000b70575b506020601f821160011462000af7578192939460009262000aeb575b50508160011b916000199060031b1c1916176001555b801562000ad257600680546001600160a01b03198116831790915560405192167f8be0079c531659141344cd1fd0a4f28419497f9722a3daafe3b4186f6b6457e0600080a36001600755671bc16d674ec80000601155660110d9316ec000601255600160105560208101904282523360601b604082015246605482015260548152608081019181831060018060401b0384111762000761578260405281519020600f55620002338262000cc0565b6001825260a081016002815260c060405192620002508462000cdc565b600b84526a14da5b99db1948135a5b9d60aa1b60208501520191825260008052601360205260406000209251835560ff6001840191511660ff198254161790555180519060018060401b03821162000761576002830154600181811c9116801562000ac7575b60208210146200074057601f811162000a77575b50602090601f831160011462000a04576002929160009183620009f8575b50508160011b916000199060031b1c1916179101555b6040516200030c8162000cc0565b600581526002602082019181835260405192620003298462000cdc565b600b84526a42726f6e7a65205061636b60a81b6020850152604082019384526001600052601360205260406000209151825560ff6001830191511660ff1982541617905501905190815160018060401b03811162000761578154600181811c91168015620009ed575b60208210146200074057601f8111620009a0575b50602092601f82116001146200093757928192936000926200092b575b50508160011b916000199060031b1c19161790555b604051620003e68162000cc0565b600a8152602081016003815260405190620004018262000cdc565b600b82526a53696c766572205061636b60a81b6020830152604083019182526002600052601360205260406000209251835560ff6001840191511660ff198254161790555180519060018060401b03821162000761576002830154600181811c9116801562000920575b60208210146200074057601f8111620008d0575b50602090601f83116001146200085b5760029291600091836200084f575b50508160011b916000199060031b1c1916179101555b604051620004c18162000cc0565b60148152602081016004815260405190620004dc8262000cdc565b6009825268476f6c64205061636b60b81b6020830152604083019182526003600052601360205260406000209251835560ff6001840191511660ff198254161790555180519060018060401b03821162000761576002830154600181811c9116801562000844575b60208210146200074057601f8111620007f8575b50602090601f83116001146200078357600292916000918362000777575b50508160011b916000199060031b1c1916179101555b6040516200059a8162000cc0565b60328152600260208201916005835260405192620005b88462000cdc565b600d84526c506c6174696e756d205061636b60981b6020850152604082019384526004600052601360205260406000209151825560ff6001830191511660ff1982541617905501905190815160018060401b03811162000761578154600181811c9116801562000756575b60208210146200074057601f8111620006f3575b50602092601f82116001146200068a57928192936000926200067e575b50508160011b916000199060031b1c19161790555b6005601455604051612eda908162000cf98239f35b01519050388062000654565b601f198216938360005260206000209160005b868110620006da5750836001959610620006c0575b505050811b01905562000669565b015160001960f88460031b161c19169055388080620006b2565b919260206001819286850151815501940192016200069d565b826000526020600020601f830160051c8101916020841062000735575b601f0160051c01905b81811062000728575062000637565b6000815560010162000719565b909150819062000710565b634e487b7160e01b600052602260045260246000fd5b90607f169062000623565b634e487b7160e01b600052604160045260246000fd5b01519050388062000576565b906002840160005260206000209160005b601f1985168110620007df5750918391600193600295601f19811610620007c5575b505050811b019101556200058c565b015160001960f88460031b161c19169055388080620007b6565b9192602060018192868501518155019401920162000794565b600284016000526020600020601f840160051c8101602085106200083c575b601f830160051c820181106200082f57505062000558565b6000815560010162000817565b508062000817565b90607f169062000544565b0151905038806200049d565b906002840160005260206000209160005b601f1985168110620008b75750918391600193600295601f198116106200089d575b505050811b01910155620004b3565b015160001960f88460031b161c191690553880806200088e565b919260206001819286850151815501940192016200086c565b600284016000526020600020601f840160051c8101916020851062000915575b601f0160051c01905b8181106200090857506200047f565b60008155600101620008f9565b9091508190620008f0565b90607f16906200046b565b015190503880620003c3565b601f198216938360005260206000209160005b8681106200098757508360019596106200096d575b505050811b019055620003d8565b015160001960f88460031b161c191690553880806200095f565b919260206001819286850151815501940192016200094a565b826000526020600020601f830160051c81019160208410620009e2575b601f0160051c01905b818110620009d55750620003a6565b60008155600101620009c6565b9091508190620009bd565b90607f169062000392565b015190503880620002e8565b90601f198316916002850160005260206000209260005b81811062000a5e5750916001939185600296941062000a44575b505050811b01910155620002fe565b015160001960f88460031b161c1916905538808062000a35565b9293602060018192878601518155019501930162000a1b565b600284016000526020600020601f840160051c8101916020851062000abc575b601f0160051c01905b81811062000aaf5750620002ca565b6000815560010162000aa0565b909150819062000a97565b90607f1690620002b6565b604051631e4fbdf760e01b815260006004820152602490fd5b0151905038806200016f565b6001600090815260008051602062003bf38339815191529190601f198416905b81811062000b575750958360019596971062000b3d575b505050811b0160015562000185565b015160001960f88460031b161c1916905538808062000b2e565b9192602060018192868b01518155019401920162000b17565b600160005260008051602062003bf3833981519152601f830160051c8101916020841062000bbe575b601f0160051c01905b81811062000bb1575062000153565b6000815560010162000ba2565b909150819062000b99565b90607f16906200013f565b01519050388062000106565b6000808052601f1983169660008051602062003bd38339815191529290915b88811062000c3f5750836001959697981062000c25575b505050811b016000556200011c565b015160001960f88460031b161c1916905538808062000c16565b9192602060018192868501518155019401920162000bff565b6000805260008051602062003bd3833981519152601f830160051c8101916020841062000ca5575b601f0160051c01905b81811062000c985750620000e7565b6000815560010162000c89565b909150819062000c80565b90607f1690620000d3565b600080fd5b606081019081106001600160401b038211176200076157604052565b604081019081106001600160401b03821117620007615760405256fe60406080815260049081361015610020575b5050361561001e57600080fd5b005b600091823560e01c806268f22e14611f7c57806301ffc9a714611f0f57806306fdde0314611e67578063081812fc14611e2c578063095ea7b314611d5057806312e8e2c314611d2e5780631cbb413114611cdc5780631dafec0014611bf757806323b872dd14611bdf57806326232a2e14611bc05780633a92c0ac14611ba15780633f4ba83a14611b3857806342842e0e14611b095780634350772c14611ae05780634403940214611ab757806355f804b31461190c5780635c975abb146118e85780636352211e146118b757806367cfab581461188e5780636844126f146117e75780636ab1b29b146117785780636aef50691461162f5780636c0360eb1461159757806370a0823114611542578063715018a6146114e55780638456cb591461148a5780638b3fd44f146111af5780638da5cb5b14611186578063938e3d7b14610f9e57806395d89b4114610ecd57806396b55f7d14610eae5780639b41886c14610e8f5780639bd1613514610d41578063a22cb46514610ca4578063b1d78c9a14610c84578063b88d4fde14610c12578063bfbfccb214610bac578063c47d435714610b31578063c820c7f114610ad5578063c87b56dd14610833578063c886015d14610721578063d0fdcc0914610558578063db4b8268146104ea578063de4b53bd14610495578063e8a3d485146103af578063e985e9c51461035b578063eb578bca1461031d578063f2fde38b1461028d5763f30cf6b6146102475750610011565b3461028957602036600319011261028957358252600b60209081529181902054905160ff808316825260089290921c90911691810191909152604090f35b0390f35b8280fd5b5034610289576020366003190112610289576102a7611fe4565b906102b061227a565b6001600160a01b03918216928315610307575050600654826bffffffffffffffffffffffff60a01b821617600655167f8be0079c531659141344cd1fd0a4f28419497f9722a3daafe3b4186f6b6457e0600080a380f35b51631e4fbdf760e01b8152908101849052602490fd5b509134610358576020366003190112610358575061028561034060ff93356125cf565b90928051948594168452806020850152830190612038565b80fd5b5050346103ab57806003193601126103ab57602091610378611fe4565b82610381611fff565b9260018060a01b03809316815260058652209116600052825260ff81600020541690519015158152f35b5080fd5b828434610358578060031936011261035857508051600091600a546103d38161218a565b8084529060019081811690811561046d5750600114610410575b50506103fe826102859403836120f9565b51918291602083526020830190612038565b600a600090815294507fc65a7bb8d6351c1cf70c95a316cc6a92839c986682d98bc35f958f4883f9d2a85b82861061045557505050918101602001916103fe826103ed565b8054602087870181019190915290950194810161043b565b610285965085925060209150926103fe9360ff191682840152151560051b82010194506103ed565b5034610289576020366003190112610289579181923581526013602052209061028582549160606104d0600260ff60018801541696016121c4565b918051958695865260208601528401526060830190612038565b833461035857602036600319011261035857610504611fe4565b61050c61227a565b600d80546001600160a01b0319166001600160a01b03928316908117909155600c549091167f14662a0fccd762a05d5e1fa6afdd204554c4cf90fe58b5c5947f664fb71925f58380a380f35b509060203660031901126102895781359161057161287a565b61057961285c565b61059061058884601254612665565b34101561268e565b61059b8315156126da565b836105a5846125cf565b50916105b085612db2565b600c5485516329bdca3760e01b81526001600160a01b039160209082908690829086165afa9081156107175785916106d9575b501690813b156106d557855163d064ff1960e01b81523384820190815260208101929092529391849182908490829060400103925af180156106cb5761069c575b505061062f8361273d565b91845b84811061067857509061066d7f0908417bb2d0393a45bf6efe35cecf8dbedbab1767b8d95f650094c6ccd1d0ac9392519283923396846127a8565b0390a2600160075580f35b8061068784610697933361289d565b610691828761277e565b5261276f565b610632565b6001600160401b0382969396116106b857508252923880610624565b634e487b7160e01b835260419052602482fd5b84513d88823e3d90fd5b8380fd5b90506020813d821161070f575b816106f3602093836120f9565b8101031261070b5751818116810361070b57386105e3565b8480fd5b3d91506106e6565b87513d87823e3d90fd5b50919060203660031901126103ab5782359061073b61287a565b61074361285c565b61075261058883601254612665565b61075d8215156126da565b610766826125cf565b5061077083612db2565b600d5483516323b872dd60e01b60208201523360248201523060448201526064808201939093529182526001600160a01b031660a082016001600160401b038111838210176108205784526107c591906127f4565b6107ce8361273d565b91845b84811061080c57509061066d7f0908417bb2d0393a45bf6efe35cecf8dbedbab1767b8d95f650094c6ccd1d0ac9392519283923396846127a8565b806106878461081b933361289d565b6107d1565b634e487b7160e01b875260418852602487fd5b509190346103ab57602091826003193601126103585783359061085582612448565b50600954946108638661218a565b15610a9957829082907a184f03e93ff9f4daa797ed6e38ed64bf6a1f0100000000000000008381811015610a8c575b5050866d04ee2d6d415b85acef810000000080851015610a7d575b5050662386f26fc1000080841015610a6e575b506305f5e10080841015610a5f575b5061271080841015610a53575b50506064821015610a45575b600a80921015610a3d575b6001918282019061091b6109068361211a565b92610913895194856120f9565b80845261211a565b958460218a850195601f19809a01368837850101905b610a0e575b505050855197848995946109498361218a565b928a82821691826000146109e7575050600114610999575b505050918061097d61098a959361028598979551938491612015565b01039081018652856120f9565b51928284938452830190612038565b899394955060098252600080516020612e858339815191525b8383106109cd5750505084010191908061097d610285610961565b80549783018501979097528a968a949092019181016109b2565b60ff1916898201528415159094028801909301955083925061097d91506102859050610961565b600019019082906f181899199a1a9b1b9c1cb0b131b232b360811b8282061a8353049085826109315750610936565b6001016108f3565b9060646002910491016108e8565b909204910138806108dc565b600891929304920190386108cf565b601091929304920190386108c0565b909192930492019086386108ad565b0492508591503880610892565b835162461bcd60e51b8152908101859052601660248201527514995b1a58ce8818985cd9555492481b9bdd081cd95d60521b6044820152606490fd5b5050346103ab5760603660031901126103ab57610af0611fe4565b916024359060ff821682036103585750602092610b2a91610b0f61226a565b91610b2560018060a01b03600e54163314612c59565b6129bd565b9051908152f35b509034610289578260031936011261028957610b4b61227a565b8280808060018060a01b036006541647905af1610b66612483565b5015610b70578280f35b906020606492519162461bcd60e51b8352820152601660248201527513985d1a5d99481dda5d1a191c985dc819985a5b195960521b6044820152fd5b503461028957602036600319011261028957816020936102859235610bd081612448565b508152600b85522091805192610be584612092565b5460ff80821680865260089290921c16949093018490525191825260208201929092529081906040820190565b8382346103ab5760803660031901126103ab57610c2d611fe4565b610c35611fff565b604435906064356001600160401b038111610c805736602382011215610c8057610c7d94816024610c6b93369301359101612135565b92610c778383836122a6565b336124b3565b80f35b8580fd5b5091346103585760203660031901126103585750610b2a60209235612db2565b509034610289578060031936011261028957610cbe611fe4565b906024359182151580930361070b576001600160a01b0316928315610d2c5750338452600560205280842083855260205280842060ff1981541660ff8416179055519081527f17307eab39ab6107e8899845ad3d59bd9653f200f220920489ca2b5937696c3160203392a380f35b836024925191630b61174360e31b8352820152fd5b828434610358578060031936011261035857601454610d5f81612726565b90610d6c845192836120f9565b808252601f19610d7b82612726565b01835b818110610e67575050825b818110610e0c575050825191602080840190808552835180925285850181878460051b880101950193965b838810610dc15786860387f35b90919293948380610dfb600193603f198b8203018752858a518051835260ff85820151168584015201519060609081888201520190612038565b970193019701969093929193610db4565b80610e62918552602060138152610e436002888820895193610e2d856120c3565b8154855260ff60018301541690850152016121c4565b87820152610e51828661277e565b52610e5c818561277e565b5061276f565b610d89565b6020908651610e75816120c3565b868152828781830152606089830152828701015201610d7e565b5050346103ab57816003193601126103ab576020906011549051908152f35b5050346103ab57816003193601126103ab576020906014549051908152f35b5050346103ab57816003193601126103ab57805190826001805491610ef18361218a565b80865292828116908115610f765750600114610f1a575b5050506103fe826102859403836120f9565b94508085527fb10e2d527612073b26eecdfd717e6a320cf44b4afac2b0732d9fcbe2b7fa0cf65b828610610f5e575050506103fe8260206102859582010194610f08565b80546020878701810191909152909501948101610f41565b6102859750869350602092506103fe94915060ff191682840152151560051b82010194610f08565b508290346103ab5760209283600319360112610289576001600160401b03823581811161070b57610fd2903690850161216c565b92610fdb61227a565b83519182116111735750610ff0600a5461218a565b601f8111611111575b5084601f821160011461106b57918161105a928697947f905d981207a7d0b6c62cc46ab0be2a076d0298e4a86d0ab79882dbd01ac373789791611060575b508160011b916000199060031b1c191617600a5551928284938452830190612038565b0390a180f35b905085015188611037565b600a85527fc65a7bb8d6351c1cf70c95a316cc6a92839c986682d98bc35f958f4883f9d2a890601f198316865b8181106110fa5750927f905d981207a7d0b6c62cc46ab0be2a076d0298e4a86d0ab79882dbd01ac37378969794926001928261105a96106110e1575b5050811b01600a5561098a565b87015160001960f88460031b161c1916905588806110d4565b91928860018192868a015181550194019201611098565b600a85527fc65a7bb8d6351c1cf70c95a316cc6a92839c986682d98bc35f958f4883f9d2a8601f830160051c810191878410611169575b601f0160051c01905b81811061115e5750610ff9565b858155600101611151565b9091508190611148565b634e487b7160e01b855260419052602484fd5b5050346103ab57816003193601126103ab5760065490516001600160a01b039091168152602090f35b509190346103ab5760803660031901126103ab5782356024356111d061226a565b90606435936001600160401b0394858111611486576111f2903690890161216c565b926111fb61227a565b600a8510156114435760ff169160018084101580611438575b156113f1578251611224816120c3565b828152602097600289830192878452868101938985528a8d5260138c52878d209151825560ff86830191511660ff1982541617905501915180519182116113de578190611271845461218a565b601f811161138e575b508a90601f831160011461132e578c92611323575b5050600019600383901b1c191690831b1790555b6014548610156112f7575b50918161105a937fc03e8a93a79fa8eb0097f5fbbbb816f93271b89d3ffc92753e027320b992f93e97969593519687968752860152840152608060608401526080830190612038565b850180861161131057601455959650869561105a6112ae565b634e487b7160e01b885260118952602488fd5b01519050388061128f565b848d528b8d208694509190601f1984168e8e5b828210611377575050841161135e575b505050811b0190556112a3565b015160001960f88460031b161c19169055388080611351565b83850151865589979095019493840193018e611341565b909150838c528a8c20601f840160051c8101918c85106113d4575b84939291601f88920160051c01915b8281106113c657505061127a565b8e81558594508791016113b8565b90915081906113a9565b634e487b7160e01b8b5260418c5260248bfd5b825162461bcd60e51b81526020818b018181526019918101919091527852656c69633a20496e76616c6964206d61782072617269747960381b604082015281906060010390fd5b506005841115611214565b815162461bcd60e51b81526020818a0152601860248201527f52656c69633a205469657220494420746f6f206c6172676500000000000000006044820152606490fd5b8680fd5b5050346103ab57816003193601126103ab5760207f62e78cea01bee320cd4e420270b5ea74000d11b0c9f74754ebdbfc544b05a258916114c861227a565b6114d061285c565b600160ff19600854161760085551338152a180f35b83346103585780600319360112610358576114fe61227a565b600680546001600160a01b0319811690915581906001600160a01b03167f8be0079c531659141344cd1fd0a4f28419497f9722a3daafe3b4186f6b6457e08280a380f35b509134610358576020366003190112610358576001600160a01b03611565611fe4565b169283156115825750806020938392526003845220549051908152f35b91516322718ad960e21b815291820152602490fd5b5050346103ab57816003193601126103ab57805190826009546115b98161218a565b80855291600191808316908115610f7657506001146115e4575050506103fe826102859403836120f9565b945060098552600080516020612e858339815191525b828610611617575050506103fe8260206102859582010194610f08565b805460208787018101919091529095019481016115fa565b50903461028957602090816003193601126106d557823591828560018060a01b0361165f81600e54163314612c59565b61166883612448565b838352600b8552837f7f33b20c4df962ca720387409232fd87c13e869902a3e55f0f5fefe0a877682583888620936116d4898b51966116a688612092565b5460ff808216808a5260089290921c16919097018190528b5196875260208701529116939081906040820190565b0390a382825260028452848220541660028115948515611745575b8484525284822080546001600160a01b03191690557fddf252ad1be2c89b69c2b068fc378daa952ba7f163c4a11628f55a4df523b3ef8280a4611730578380f35b51637e27328960e01b81529182015260249150fd5b600085815260046020526040902080546001600160a01b03191690558284526003815286842080546000190190556116ef565b833461035857602036600319011261035857611792611fe4565b61179a61227a565b600c80546001600160a01b0319166001600160a01b03928316908117909155600d54909116907f14662a0fccd762a05d5e1fa6afdd204554c4cf90fe58b5c5947f664fb71925f58380a380f35b509190346103ab576020928360031936011261028957359282611809856125cf565b909480601454915b828110611850575b50505061184390608061182d60ff98612db2565b9486519889981688528701526080860190612038565b9284015260608301520390f35b8082526013865286822060ff80600183015416908a161461187a57506118759061276f565b611811565b5494508392506080915061182d9050611819565b5050346103ab57816003193601126103ab57600c5490516001600160a01b039091168152602090f35b50913461035857602036600319011261035857506118d760209235612448565b90516001600160a01b039091168152f35b5050346103ab57816003193601126103ab5760209060ff6008541690519015158152f35b508290346103ab5760209283600319360112610289576001600160401b03823581811161070b57611940903690850161216c565b9261194961227a565b8351918211611173575061195e60095461218a565b601f8111611a67575b5084601f82116001146119d357918161105a928697947ff9c7803e94e0d3c02900d8a90893a6d5e90dd04d32a4cfe825520f82bf9f32f697916119c8575b508160011b916000199060031b1c19161760095551928284938452830190612038565b9050850151886119a5565b60098552600080516020612e8583398151915290601f198316865b818110611a505750927ff9c7803e94e0d3c02900d8a90893a6d5e90dd04d32a4cfe825520f82bf9f32f6969794926001928261105a9610611a37575b5050811b0160095561098a565b87015160001960f88460031b161c191690558880611a2a565b91928860018192868a0151815501940192016119ee565b60098552600080516020612e85833981519152601f830160051c810191878410611aad575b601f0160051c01905b818110611aa25750611967565b858155600101611a95565b9091508190611a8c565b5050346103ab57816003193601126103ab57600d5490516001600160a01b039091168152602090f35b5050346103ab57816003193601126103ab57600e5490516001600160a01b039091168152602090f35b5050346103ab57610c7d90611b1d3661205d565b91925192611b2a846120de565b858452610c778383836122a6565b5034610289578260031936011261028957611b5161227a565b6008549060ff821615611b93575060ff1916600855513381527f5db9ee0a495bf2e6ff9c91a7834c1ba4fdd244a5e8aa4e537bd38aeae4b073aa90602090a180f35b8251638dfc202b60e01b8152fd5b5050346103ab57816003193601126103ab57602090600f549051908152f35b5050346103ab57816003193601126103ab576020906012549051908152f35b833461035857610c7d611bf13661205d565b916122a6565b5034610289578260031936011261028957611c1061227a565b600d5482516370a0823160e01b815230928101929092526001600160a01b0390811690602083602481855afa928315611cd2578593611c9f575b5082611c54578480f35b600654935163a9059cbb60e01b602082015293166001600160a01b03166024840152604480840192909252908252611c979190611c926064836120f9565b6127f4565b388080808480f35b9092506020813d8211611cca575b81611cba602093836120f9565b8101031261070b57519138611c4a565b3d9150611cad565b84513d87823e3d90fd5b8382346103ab5760203660031901126103ab57803590611cfa61227a565b670de0b6b3a764000091828102928184041490151715611d1b575060115580f35b634e487b7160e01b835260119052602482fd5b8382346103ab5760203660031901126103ab57611d4961227a565b3560125580f35b509034610289578060031936011261028957611d6a611fe4565b91602435611d7781612448565b33151580611e19575b80611df0575b611dda576001600160a01b039485169482918691167f8c5be1e5ebec7d5bd14f71427d1e84f3dd0314c0f7b2291e5b200ac8c7c3b9258880a48452602052822080546001600160a01b031916909117905580f35b835163a9fbf51f60e01b81523381850152602490fd5b506001600160a01b03811686526005602090815284872033885290528386205460ff1615611d86565b506001600160a01b038116331415611d80565b503461028957602036600319011261028957918260209335611e4d81612448565b50825283528190205490516001600160a01b039091168152f35b5050346103ab57816003193601126103ab57805190828054611e888161218a565b80855291600191808316908115610f765750600114611eb3575050506103fe826102859403836120f9565b80809650527f290decd9548b62a8d60345a988386fc84ba6bc95484008f6362f93160ef3e5635b828610611ef7575050506103fe8260206102859582010194610f08565b80546020878701810191909152909501948101611eda565b503461028957602036600319011261028957359063ffffffff60e01b821680920361028957602092506380ac58cd60e01b8214918215611f6b575b8215611f5a575b50519015158152f35b6301ffc9a760e01b14915038611f51565b635b5e139f60e01b81149250611f4a565b833461035857602036600319011261035857611f96611fe4565b611f9e61227a565b600e80546001600160a01b0319166001600160a01b039290921691821790557f088c5ec3908e3424c43d8102e8e1cc8eb8820a25e326b9c31cc58963046b92e98280a280f35b600435906001600160a01b0382168203611ffa57565b600080fd5b602435906001600160a01b0382168203611ffa57565b60005b8381106120285750506000910152565b8181015183820152602001612018565b9060209161205181518092818552858086019101612015565b601f01601f1916010190565b6060906003190112611ffa576001600160a01b03906004358281168103611ffa57916024359081168103611ffa579060443590565b604081019081106001600160401b038211176120ad57604052565b634e487b7160e01b600052604160045260246000fd5b606081019081106001600160401b038211176120ad57604052565b602081019081106001600160401b038211176120ad57604052565b90601f801991011681019081106001600160401b038211176120ad57604052565b6001600160401b0381116120ad57601f01601f191660200190565b9291926121418261211a565b9161214f60405193846120f9565b829481845281830111611ffa578281602093846000960137010152565b9080601f83011215611ffa5781602061218793359101612135565b90565b90600182811c921680156121ba575b60208310146121a457565b634e487b7160e01b600052602260045260246000fd5b91607f1691612199565b90604051918260008254926121d88461218a565b9081845260019485811690816000146122475750600114612204575b5050612202925003836120f9565b565b9093915060005260209081600020936000915b81831061222f575050612202935082010138806121f4565b85548884018501529485019487945091830191612217565b91505061220294506020925060ff191682840152151560051b82010138806121f4565b6044359060ff82168203611ffa57565b6006546001600160a01b0316330361228e57565b60405163118cdaa760e01b8152336004820152602490fd5b6001600160a01b03918216929091831561242f57600092828452826020956002875260409684888820541696879133151580612396575b509060027fddf252ad1be2c89b69c2b068fc378daa952ba7f163c4a11628f55a4df523b3ef9284612363575b858352600381528b8320805460010190558683525289812080546001600160a01b0319168517905580a416928383036123425750505050565b6064945051926364283d7b60e01b8452600484015260248301526044820152fd5b600087815260046020526040902080546001600160a01b0319169055848352600381528b83208054600019019055612309565b919394509150806123ee575b156123b2578592918791386122dd565b8786886123cf576024915190637e27328960e01b82526004820152fd5b905163177e802f60e01b81523360048201526024810191909152604490fd5b503387148015612413575b806123a257508582526004815233858984205416146123a2565b5086825260058152878220338352815260ff88832054166123f9565b604051633250574960e11b815260006004820152602490fd5b6000818152600260205260409020546001600160a01b031690811561246b575090565b60249060405190637e27328960e01b82526004820152fd5b3d156124ae573d906124948261211a565b916124a260405193846120f9565b82523d6000602084013e565b606090565b9293823b6124c3575b5050505050565b6125079060018060a01b038094169560405194859481630a85bd0160e11b988988521660048701521660248501526044840152608060648401526084830190612038565b03906020816000938185885af190829082612587575b5050612555578261252c612483565b805191908261254e57604051633250574960e11b815260048101839052602490fd5b9050602001fd5b6001600160e01b0319160361256f575038808080806124bc565b60249060405190633250574960e11b82526004820152fd5b909192506020813d82116125c7575b816125a3602093836120f9565b810103126103ab5751906001600160e01b031982168203610358575090388061251d565b3d9150612596565b601454805b6126045750506002906040516125e981612092565b600b81526a14da5b99db1948135a5b9d60aa1b602082015290565b6000198101818111612638576040906000908152601360205220805483101561264d575080156126385760001901806125d4565b60246000634e487b7160e01b81526011600452fd5b92915050612187600260ff60018501541693016121c4565b8181029291811591840414171561267857565b634e487b7160e01b600052601160045260246000fd5b1561269557565b60405162461bcd60e51b815260206004820152601b60248201527f52656c69633a20506c6174666f726d20666565206e6f74206d657400000000006044820152606490fd5b156126e157565b60405162461bcd60e51b815260206004820152601b60248201527f52656c69633a205175616e74697479206d757374206265203e203000000000006044820152606490fd5b6001600160401b0381116120ad5760051b60200190565b9061274782612726565b61275460405191826120f9565b8281528092612765601f1991612726565b0190602036910137565b60001981146126785760010190565b80518210156127925760209160051b010190565b634e487b7160e01b600052603260045260246000fd5b91608060ff9360608101938152602094859316838201526060604082015285518094520193019160005b8281106127e0575050505090565b8351855293810193928101926001016127d2565b906000602091828151910182855af115612850576000513d61284757506001600160a01b0381163b155b6128255750565b604051635274afe760e01b81526001600160a01b039091166004820152602490fd5b6001141561281e565b6040513d6000823e3d90fd5b60ff6008541661286857565b60405163d93c066560e01b8152600490fd5b60026007541461288b576002600755565b604051633ee5aeb560e01b8152600490fd5b600f549060105493604093845195602087019185835244878901524260608901523360601b6080890152609488015260b487015260b4865260e08601906001600160401b0396808310888411176120ad576128fe9287525190209182612ca5565b9360ff85166001811015806129b2575b156129765781519260208401958652828401526060830152606082526080820195828710908711176120ad578585947f6b2ef7fbf20c7dc4747c84307cfd2178ccc921ab1e016cfa964f640ba898ee9993612187986020945251902080600f558152a16129bd565b815162461bcd60e51b815260206004820152601560248201527452656c69633a20496e76616c69642072617269747960581b6044820152606490fd5b50600581111561290e565b909160105492604080516129d081612092565b60ff831681526020908181019060ff86168252600091888352600b845260ff85842092511661ff008354925160081b169161ffff191617179055825190612a16826120de565b8082526001600160a01b0387811697908815612c415789835260028552858320541689898215159283612c0e575b81865260038852888620805460010190558286526002885288862080546001600160a01b031916831790557fddf252ad1be2c89b69c2b068fc378daa952ba7f163c4a11628f55a4df523b3ef8680a4612bf6573b612af6575b505050917fc8a443c1907d413e7a1dca411f6c6e7a16f3aa80eed13699a22eab2af2c4c1e491612af08694612ad360105461276f565b6010555160ff928316815292909116602083015281906040820190565b0390a390565b839697949298959351898180612b34630a85bd0160e11b968783523360048401528660248401528a6044840152608060648401526084830190612038565b0381858d5af190829082612bb2575b5050612b7a57888888612b54612483565b80519384612b74578251633250574960e11b815260048101859052602490fd5b84925001fd5b90919396959294975063ffffffff60e01b1603612b9b5781612af086612a9d565b51633250574960e11b815260048101849052602490fd5b909192508a81813d8311612bef575b612bcb81836120f9565b810103126103ab5751906001600160e01b0319821682036103585750903880612b43565b503d612bc1565b84516339e3563760e11b815260048101839052602490fd5b600083815260046020526040902080546001600160a01b0319169055808652600388528886208054600019019055612a44565b8551633250574960e11b815260048101849052602490fd5b15612c6057565b60405162461bcd60e51b815260206004820152601e60248201527f52656c69633a2043616c6c6572206973206e6f742074686520416c74617200006044820152606490fd5b606490069060ff1660028103612cc8575060411115612cc357600190565b600290565b60038103612cf257506032811015612ce05750600190565b60551115612ced57600290565b600390565b60048103612d2b5750602d811015612d0a5750600190565b6050811015612d195750600290565b605f1115612d2657600390565b600490565b600503612d7157602c811015612d415750600190565b604f811015612d505750600290565b605e811015612d5f5750600390565b60631115612d6c57600490565b600590565b60405162461bcd60e51b815260206004820152601960248201527852656c69633a20496e76616c6964206d61782072617269747960381b6044820152606490fd5b600c546001600160a01b031691908215612e3f578015612e38576020601154602460405180968193637b2e0fcf60e01b835260048301525afa92831561285057600093612e05575b506121879192612665565b6020813d8211612e30575b81612e1d602093836120f9565b810103126106d557519250612187612dfa565b3d9150612e10565b5060009150565b60405162461bcd60e51b815260206004820152601b60248201527f44756e67656f6e436f72652061646472657373206e6f742073657400000000006044820152606490fdfe6e1540171b6c0c960b71a7020d9f60077f6af931a8bbf590da0223dacf75c7afa26469706673582212207a25e3bf83616365513f4f72c9fd824f4366ce5e6cf9427556b72c6a890bf8a764736f6c63430008140033290decd9548b62a8d60345a988386fc84ba6bc95484008f6362f93160ef3e563b10e2d527612073b26eecdfd717e6a320cf44b4afac2b0732d9fcbe2b7fa0cf6",
  "linkReferences": {},
  "deployedLinkReferences": {}
}