{
  "_format": "hh-sol-artifact-1",
  "contractName": "Relic",
  "sourceName": "contracts/current/nft/Relic.sol",
  "abi": [
    {
      "inputs": [
        {
          "internalType": "address",
          "name": "initialOwner",
          "type": "address"
        }
      ],
      "stateMutability": "nonpayable",
      "type": "constructor"
    },
    {
      "inputs": [
        {
          "internalType": "address",
          "name": "sender",
          "type": "address"
        },
        {
          "internalType": "uint256",
          "name": "tokenId",
          "type": "uint256"
        },
        {
          "internalType": "address",
          "name": "owner",
          "type": "address"
        }
      ],
      "name": "ERC721IncorrectOwner",
      "type": "error"
    },
    {
      "inputs": [
        {
          "internalType": "address",
          "name": "operator",
          "type": "address"
        },
        {
          "internalType": "uint256",
          "name": "tokenId",
          "type": "uint256"
        }
      ],
      "name": "ERC721InsufficientApproval",
      "type": "error"
    },
    {
      "inputs": [
        {
          "internalType": "address",
          "name": "approver",
          "type": "address"
        }
      ],
      "name": "ERC721InvalidApprover",
      "type": "error"
    },
    {
      "inputs": [
        {
          "internalType": "address",
          "name": "operator",
          "type": "address"
        }
      ],
      "name": "ERC721InvalidOperator",
      "type": "error"
    },
    {
      "inputs": [
        {
          "internalType": "address",
          "name": "owner",
          "type": "address"
        }
      ],
      "name": "ERC721InvalidOwner",
      "type": "error"
    },
    {
      "inputs": [
        {
          "internalType": "address",
          "name": "receiver",
          "type": "address"
        }
      ],
      "name": "ERC721InvalidReceiver",
      "type": "error"
    },
    {
      "inputs": [
        {
          "internalType": "address",
          "name": "sender",
          "type": "address"
        }
      ],
      "name": "ERC721InvalidSender",
      "type": "error"
    },
    {
      "inputs": [
        {
          "internalType": "uint256",
          "name": "tokenId",
          "type": "uint256"
        }
      ],
      "name": "ERC721NonexistentToken",
      "type": "error"
    },
    {
      "inputs": [],
      "name": "EnforcedPause",
      "type": "error"
    },
    {
      "inputs": [],
      "name": "ExpectedPause",
      "type": "error"
    },
    {
      "inputs": [
        {
          "internalType": "address",
          "name": "owner",
          "type": "address"
        }
      ],
      "name": "OwnableInvalidOwner",
      "type": "error"
    },
    {
      "inputs": [
        {
          "internalType": "address",
          "name": "account",
          "type": "address"
        }
      ],
      "name": "OwnableUnauthorizedAccount",
      "type": "error"
    },
    {
      "inputs": [],
      "name": "ReentrancyGuardReentrantCall",
      "type": "error"
    },
    {
      "inputs": [
        {
          "internalType": "address",
          "name": "token",
          "type": "address"
        }
      ],
      "name": "SafeERC20FailedOperation",
      "type": "error"
    },
    {
      "anonymous": false,
      "inputs": [
        {
          "indexed": true,
          "internalType": "address",
          "name": "owner",
          "type": "address"
        },
        {
          "indexed": true,
          "internalType": "address",
          "name": "approved",
          "type": "address"
        },
        {
          "indexed": true,
          "internalType": "uint256",
          "name": "tokenId",
          "type": "uint256"
        }
      ],
      "name": "Approval",
      "type": "event"
    },
    {
      "anonymous": false,
      "inputs": [
        {
          "indexed": true,
          "internalType": "address",
          "name": "owner",
          "type": "address"
        },
        {
          "indexed": true,
          "internalType": "address",
          "name": "operator",
          "type": "address"
        },
        {
          "indexed": false,
          "internalType": "bool",
          "name": "approved",
          "type": "bool"
        }
      ],
      "name": "ApprovalForAll",
      "type": "event"
    },
    {
      "anonymous": false,
      "inputs": [
        {
          "indexed": true,
          "internalType": "address",
          "name": "newAddress",
          "type": "address"
        }
      ],
      "name": "AscensionAltarSet",
      "type": "event"
    },
    {
      "anonymous": false,
      "inputs": [
        {
          "indexed": false,
          "internalType": "string",
          "name": "newBaseURI",
          "type": "string"
        }
      ],
      "name": "BaseURISet",
      "type": "event"
    },
    {
      "anonymous": false,
      "inputs": [
        {
          "indexed": true,
          "internalType": "address",
          "name": "player",
          "type": "address"
        },
        {
          "indexed": false,
          "internalType": "uint256",
          "name": "quantity",
          "type": "uint256"
        },
        {
          "indexed": false,
          "internalType": "uint8",
          "name": "maxRarity",
          "type": "uint8"
        },
        {
          "indexed": false,
          "internalType": "uint256[]",
          "name": "tokenIds",
          "type": "uint256[]"
        }
      ],
      "name": "BatchMintCompleted",
      "type": "event"
    },
    {
      "anonymous": false,
      "inputs": [
        {
          "indexed": false,
          "internalType": "string",
          "name": "newContractURI",
          "type": "string"
        }
      ],
      "name": "ContractURIUpdated",
      "type": "event"
    },
    {
      "anonymous": false,
      "inputs": [
        {
          "indexed": true,
          "internalType": "address",
          "name": "core",
          "type": "address"
        },
        {
          "indexed": true,
          "internalType": "address",
          "name": "token",
          "type": "address"
        }
      ],
      "name": "ContractsSet",
      "type": "event"
    },
    {
      "anonymous": false,
      "inputs": [
        {
          "indexed": true,
          "internalType": "address",
          "name": "player",
          "type": "address"
        },
        {
          "indexed": false,
          "internalType": "uint256",
          "name": "quantity",
          "type": "uint256"
        },
        {
          "indexed": false,
          "internalType": "bool",
          "name": "fromVault",
          "type": "bool"
        }
      ],
      "name": "MintRequested",
      "type": "event"
    },
    {
      "anonymous": false,
      "inputs": [
        {
          "indexed": true,
          "internalType": "address",
          "name": "previousOwner",
          "type": "address"
        },
        {
          "indexed": true,
          "internalType": "address",
          "name": "newOwner",
          "type": "address"
        }
      ],
      "name": "OwnershipTransferred",
      "type": "event"
    },
    {
      "anonymous": false,
      "inputs": [
        {
          "indexed": false,
          "internalType": "address",
          "name": "account",
          "type": "address"
        }
      ],
      "name": "Paused",
      "type": "event"
    },
    {
      "anonymous": false,
      "inputs": [
        {
          "indexed": true,
          "internalType": "uint256",
          "name": "tokenId",
          "type": "uint256"
        },
        {
          "indexed": true,
          "internalType": "address",
          "name": "owner",
          "type": "address"
        },
        {
          "indexed": false,
          "internalType": "uint8",
          "name": "rarity",
          "type": "uint8"
        },
        {
          "indexed": false,
          "internalType": "uint8",
          "name": "capacity",
          "type": "uint8"
        }
      ],
      "name": "RelicBurned",
      "type": "event"
    },
    {
      "anonymous": false,
      "inputs": [
        {
          "indexed": true,
          "internalType": "uint256",
          "name": "tokenId",
          "type": "uint256"
        },
        {
          "indexed": true,
          "internalType": "address",
          "name": "owner",
          "type": "address"
        },
        {
          "indexed": false,
          "internalType": "uint8",
          "name": "rarity",
          "type": "uint8"
        },
        {
          "indexed": false,
          "internalType": "uint8",
          "name": "capacity",
          "type": "uint8"
        }
      ],
      "name": "RelicMinted",
      "type": "event"
    },
    {
      "anonymous": false,
      "inputs": [
        {
          "indexed": true,
          "internalType": "address",
          "name": "from",
          "type": "address"
        },
        {
          "indexed": true,
          "internalType": "address",
          "name": "to",
          "type": "address"
        },
        {
          "indexed": true,
          "internalType": "uint256",
          "name": "tokenId",
          "type": "uint256"
        }
      ],
      "name": "Transfer",
      "type": "event"
    },
    {
      "anonymous": false,
      "inputs": [
        {
          "indexed": false,
          "internalType": "address",
          "name": "account",
          "type": "address"
        }
      ],
      "name": "Unpaused",
      "type": "event"
    },
    {
      "inputs": [
        {
          "internalType": "address",
          "name": "to",
          "type": "address"
        },
        {
          "internalType": "uint256",
          "name": "tokenId",
          "type": "uint256"
        }
      ],
      "name": "approve",
      "outputs": [],
      "stateMutability": "nonpayable",
      "type": "function"
    },
    {
      "inputs": [
        {
          "internalType": "address",
          "name": "owner",
          "type": "address"
        }
      ],
      "name": "balanceOf",
      "outputs": [
        {
          "internalType": "uint256",
          "name": "",
          "type": "uint256"
        }
      ],
      "stateMutability": "view",
      "type": "function"
    },
    {
      "inputs": [],
      "name": "baseURI",
      "outputs": [
        {
          "internalType": "string",
          "name": "",
          "type": "string"
        }
      ],
      "stateMutability": "view",
      "type": "function"
    },
    {
      "inputs": [
        {
          "internalType": "uint256",
          "name": "_tokenId",
          "type": "uint256"
        }
      ],
      "name": "burnFromAltar",
      "outputs": [],
      "stateMutability": "nonpayable",
      "type": "function"
    },
    {
      "inputs": [],
      "name": "contractURI",
      "outputs": [
        {
          "internalType": "string",
          "name": "",
          "type": "string"
        }
      ],
      "stateMutability": "view",
      "type": "function"
    },
    {
      "inputs": [],
      "name": "dungeonCore",
      "outputs": [
        {
          "internalType": "contract IDungeonCore",
          "name": "",
          "type": "address"
        }
      ],
      "stateMutability": "view",
      "type": "function"
    },
    {
      "inputs": [
        {
          "internalType": "uint256",
          "name": "tokenId",
          "type": "uint256"
        }
      ],
      "name": "getApproved",
      "outputs": [
        {
          "internalType": "address",
          "name": "",
          "type": "address"
        }
      ],
      "stateMutability": "view",
      "type": "function"
    },
    {
      "inputs": [
        {
          "internalType": "uint256",
          "name": "tokenId",
          "type": "uint256"
        }
      ],
      "name": "getRelicProperties",
      "outputs": [
        {
          "internalType": "uint8",
          "name": "rarity",
          "type": "uint8"
        },
        {
          "internalType": "uint8",
          "name": "capacity",
          "type": "uint8"
        }
      ],
      "stateMutability": "view",
      "type": "function"
    },
    {
      "inputs": [
        {
          "internalType": "uint256",
          "name": "_quantity",
          "type": "uint256"
        }
      ],
      "name": "getRequiredSoulShardAmount",
      "outputs": [
        {
          "internalType": "uint256",
          "name": "",
          "type": "uint256"
        }
      ],
      "stateMutability": "view",
      "type": "function"
    },
    {
      "inputs": [
        {
          "internalType": "address",
          "name": "_user",
          "type": "address"
        }
      ],
      "name": "getUserRequest",
      "outputs": [
        {
          "components": [
            {
              "internalType": "uint256",
              "name": "quantity",
              "type": "uint256"
            },
            {
              "internalType": "uint256",
              "name": "payment",
              "type": "uint256"
            },
            {
              "internalType": "bool",
              "name": "fulfilled",
              "type": "bool"
            },
            {
              "internalType": "uint8",
              "name": "maxRarity",
              "type": "uint8"
            },
            {
              "internalType": "bool",
              "name": "fromVault",
              "type": "bool"
            },
            {
              "internalType": "uint256[]",
              "name": "pendingTokenIds",
              "type": "uint256[]"
            }
          ],
          "internalType": "struct Relic.MintRequest",
          "name": "",
          "type": "tuple"
        }
      ],
      "stateMutability": "view",
      "type": "function"
    },
    {
      "inputs": [
        {
          "internalType": "address",
          "name": "owner",
          "type": "address"
        },
        {
          "internalType": "address",
          "name": "operator",
          "type": "address"
        }
      ],
      "name": "isApprovedForAll",
      "outputs": [
        {
          "internalType": "bool",
          "name": "",
          "type": "bool"
        }
      ],
      "stateMutability": "view",
      "type": "function"
    },
    {
      "inputs": [
        {
          "internalType": "address",
          "name": "_to",
          "type": "address"
        },
        {
          "internalType": "uint8",
          "name": "_rarity",
          "type": "uint8"
        },
        {
          "internalType": "uint8",
          "name": "_capacity",
          "type": "uint8"
        }
      ],
      "name": "mintFromAltar",
      "outputs": [
        {
          "internalType": "uint256",
          "name": "",
          "type": "uint256"
        }
      ],
      "stateMutability": "nonpayable",
      "type": "function"
    },
    {
      "inputs": [
        {
          "internalType": "uint256",
          "name": "_quantity",
          "type": "uint256"
        }
      ],
      "name": "mintFromVault",
      "outputs": [],
      "stateMutability": "payable",
      "type": "function"
    },
    {
      "inputs": [
        {
          "internalType": "uint256",
          "name": "_quantity",
          "type": "uint256"
        }
      ],
      "name": "mintFromWallet",
      "outputs": [],
      "stateMutability": "payable",
      "type": "function"
    },
    {
      "inputs": [],
      "name": "mintPriceUSD",
      "outputs": [
        {
          "internalType": "uint256",
          "name": "",
          "type": "uint256"
        }
      ],
      "stateMutability": "view",
      "type": "function"
    },
    {
      "inputs": [],
      "name": "name",
      "outputs": [
        {
          "internalType": "string",
          "name": "",
          "type": "string"
        }
      ],
      "stateMutability": "view",
      "type": "function"
    },
    {
      "inputs": [
        {
          "internalType": "uint256",
          "name": "requestId",
          "type": "uint256"
        },
        {
          "internalType": "uint256[]",
          "name": "randomWords",
          "type": "uint256[]"
        }
      ],
      "name": "onVRFFulfilled",
      "outputs": [],
      "stateMutability": "nonpayable",
      "type": "function"
    },
    {
      "inputs": [],
      "name": "owner",
      "outputs": [
        {
          "internalType": "address",
          "name": "",
          "type": "address"
        }
      ],
      "stateMutability": "view",
      "type": "function"
    },
    {
      "inputs": [
        {
          "internalType": "uint256",
          "name": "tokenId",
          "type": "uint256"
        }
      ],
      "name": "ownerOf",
      "outputs": [
        {
          "internalType": "address",
          "name": "",
          "type": "address"
        }
      ],
      "stateMutability": "view",
      "type": "function"
    },
    {
      "inputs": [],
      "name": "pause",
      "outputs": [],
      "stateMutability": "nonpayable",
      "type": "function"
    },
    {
      "inputs": [],
      "name": "paused",
      "outputs": [
        {
          "internalType": "bool",
          "name": "",
          "type": "bool"
        }
      ],
      "stateMutability": "view",
      "type": "function"
    },
    {
      "inputs": [],
      "name": "platformFee",
      "outputs": [
        {
          "internalType": "uint256",
          "name": "",
          "type": "uint256"
        }
      ],
      "stateMutability": "view",
      "type": "function"
    },
    {
      "inputs": [
        {
          "internalType": "uint256",
          "name": "",
          "type": "uint256"
        }
      ],
      "name": "relicData",
      "outputs": [
        {
          "internalType": "uint8",
          "name": "rarity",
          "type": "uint8"
        },
        {
          "internalType": "uint8",
          "name": "capacity",
          "type": "uint8"
        }
      ],
      "stateMutability": "view",
      "type": "function"
    },
    {
      "inputs": [],
      "name": "renounceOwnership",
      "outputs": [],
      "stateMutability": "nonpayable",
      "type": "function"
    },
    {
      "inputs": [
        {
          "internalType": "uint256",
          "name": "",
          "type": "uint256"
        }
      ],
      "name": "requestIdToUser",
      "outputs": [
        {
          "internalType": "address",
          "name": "",
          "type": "address"
        }
      ],
      "stateMutability": "view",
      "type": "function"
    },
    {
      "inputs": [
        {
          "internalType": "address",
          "name": "from",
          "type": "address"
        },
        {
          "internalType": "address",
          "name": "to",
          "type": "address"
        },
        {
          "internalType": "uint256",
          "name": "tokenId",
          "type": "uint256"
        }
      ],
      "name": "safeTransferFrom",
      "outputs": [],
      "stateMutability": "nonpayable",
      "type": "function"
    },
    {
      "inputs": [
        {
          "internalType": "address",
          "name": "from",
          "type": "address"
        },
        {
          "internalType": "address",
          "name": "to",
          "type": "address"
        },
        {
          "internalType": "uint256",
          "name": "tokenId",
          "type": "uint256"
        },
        {
          "internalType": "bytes",
          "name": "data",
          "type": "bytes"
        }
      ],
      "name": "safeTransferFrom",
      "outputs": [],
      "stateMutability": "nonpayable",
      "type": "function"
    },
    {
      "inputs": [
        {
          "internalType": "address",
          "name": "operator",
          "type": "address"
        },
        {
          "internalType": "bool",
          "name": "approved",
          "type": "bool"
        }
      ],
      "name": "setApprovalForAll",
      "outputs": [],
      "stateMutability": "nonpayable",
      "type": "function"
    },
    {
      "inputs": [
        {
          "internalType": "string",
          "name": "_newBaseURI",
          "type": "string"
        }
      ],
      "name": "setBaseURI",
      "outputs": [],
      "stateMutability": "nonpayable",
      "type": "function"
    },
    {
      "inputs": [
        {
          "internalType": "string",
          "name": "newContractURI",
          "type": "string"
        }
      ],
      "name": "setContractURI",
      "outputs": [],
      "stateMutability": "nonpayable",
      "type": "function"
    },
    {
      "inputs": [
        {
          "internalType": "address",
          "name": "_address",
          "type": "address"
        }
      ],
      "name": "setDungeonCore",
      "outputs": [],
      "stateMutability": "nonpayable",
      "type": "function"
    },
    {
      "inputs": [
        {
          "internalType": "uint256",
          "name": "_newPrice",
          "type": "uint256"
        }
      ],
      "name": "setMintPriceUSD",
      "outputs": [],
      "stateMutability": "nonpayable",
      "type": "function"
    },
    {
      "inputs": [
        {
          "internalType": "uint256",
          "name": "_newFee",
          "type": "uint256"
        }
      ],
      "name": "setPlatformFee",
      "outputs": [],
      "stateMutability": "nonpayable",
      "type": "function"
    },
    {
      "inputs": [
        {
          "internalType": "bytes4",
          "name": "interfaceId",
          "type": "bytes4"
        }
      ],
      "name": "supportsInterface",
      "outputs": [
        {
          "internalType": "bool",
          "name": "",
          "type": "bool"
        }
      ],
      "stateMutability": "view",
      "type": "function"
    },
    {
      "inputs": [],
      "name": "symbol",
      "outputs": [
        {
          "internalType": "string",
          "name": "",
          "type": "string"
        }
      ],
      "stateMutability": "view",
      "type": "function"
    },
    {
      "inputs": [
        {
          "internalType": "uint256",
          "name": "tokenId",
          "type": "uint256"
        }
      ],
      "name": "tokenURI",
      "outputs": [
        {
          "internalType": "string",
          "name": "",
          "type": "string"
        }
      ],
      "stateMutability": "view",
      "type": "function"
    },
    {
      "inputs": [
        {
          "internalType": "address",
          "name": "from",
          "type": "address"
        },
        {
          "internalType": "address",
          "name": "to",
          "type": "address"
        },
        {
          "internalType": "uint256",
          "name": "tokenId",
          "type": "uint256"
        }
      ],
      "name": "transferFrom",
      "outputs": [],
      "stateMutability": "nonpayable",
      "type": "function"
    },
    {
      "inputs": [
        {
          "internalType": "address",
          "name": "newOwner",
          "type": "address"
        }
      ],
      "name": "transferOwnership",
      "outputs": [],
      "stateMutability": "nonpayable",
      "type": "function"
    },
    {
      "inputs": [],
      "name": "unpause",
      "outputs": [],
      "stateMutability": "nonpayable",
      "type": "function"
    },
    {
      "inputs": [
        {
          "internalType": "address",
          "name": "",
          "type": "address"
        }
      ],
      "name": "userRequests",
      "outputs": [
        {
          "internalType": "uint256",
          "name": "quantity",
          "type": "uint256"
        },
        {
          "internalType": "uint256",
          "name": "payment",
          "type": "uint256"
        },
        {
          "internalType": "bool",
          "name": "fulfilled",
          "type": "bool"
        },
        {
          "internalType": "uint8",
          "name": "maxRarity",
          "type": "uint8"
        },
        {
          "internalType": "bool",
          "name": "fromVault",
          "type": "bool"
        }
      ],
      "stateMutability": "view",
      "type": "function"
    },
    {
      "inputs": [],
      "name": "withdrawNative",
      "outputs": [],
      "stateMutability": "nonpayable",
      "type": "function"
    },
    {
      "inputs": [],
      "name": "withdrawSoulShard",
      "outputs": [],
      "stateMutability": "nonpayable",
      "type": "function"
    },
    {
      "stateMutability": "payable",
      "type": "receive"
    }
  ],
  "bytecode": "0x608034620003e457601f906001600160401b03601f196200388d388190038581018316850184811186821017620003ce57859282916040528339602094859181010312620003e457516001600160a01b03948582169391849003620003e45762000068620003e9565b94601586527f44756e67656f6e2044656c766572732052656c69630000000000000000000000818701526200009c620003e9565b90600382526222222960e91b81830152865194848611620003ce576000958654986001998a81811c91168015620003c3575b85821014620003af579081878493116200035c575b508490878311600114620002fb578992620002ef575b5050600019600383901b1c191690891b1786555b8251948511620002db5787548881811c91168015620002d0575b83821014620002bc5790818587969594931162000263575b5081938511600114620001fe5750508492620001f2575b5050600019600383901b1c191690841b1783555b8115620001da57600680546001600160a01b0319811684179091556040519416907f8be0079c531659141344cd1fd0a4f28419497f9722a3daafe3b4186f6b6457e09080a380600755671bc16d674ec80000600f55660110d9316ec000601055600e5561348390816200040a8239f35b60249060405190631e4fbdf760e01b82526004820152fd5b01519050388062000156565b889593929193168587528387209387905b8282106200024957505084116200022f575b505050811b0183556200016a565b015160001960f88460031b161c1916905538808062000221565b8484015186558a979095019493840193908101906200020f565b9091929394508887528287208580880160051c820192858910620002b2575b9188978c9297969594930160051c01915b828110620002a35750506200013f565b8981558897508b910162000293565b9250819262000282565b634e487b7160e01b87526022600452602487fd5b90607f169062000127565b634e487b7160e01b86526041600452602486fd5b015190503880620000f9565b90848c9416918a8052868b20928b5b888282106200034557505084116200032b575b505050811b0186556200010d565b015160001960f88460031b161c191690553880806200031d565b8385015186558f979095019493840193016200030a565b9091508880528489208780850160051c820192878610620003a5575b918d91869594930160051c01915b82811062000396575050620000e3565b8b81558594508d910162000386565b9250819262000378565b634e487b7160e01b89526022600452602489fd5b90607f1690620000ce565b634e487b7160e01b600052604160045260246000fd5b600080fd5b60408051919082016001600160401b03811183821017620003ce5760405256fe60806040818152600480361015610021575b505050361561001f57600080fd5b005b600092833560e01c90816301ffc9a7146122495750806306fdde03146121a1578063081812fc14612168578063095ea7b31461207557806312e8e2c3146120535780631cbb4131146120015780631dafec0014611ed857806323b872dd14611ec057806326232a2e14611ea15780632a32e8d414611e155780633f4ba83a14611d9357806342842e0e14611d6457806350431ce414611ce157806355f804b314611b3b5780635c975abb14611b175780636352211e14611ae757806367cfab5814611abf5780636ab1b29b14611a025780636aef5069146118b25780636c0360eb1461180857806370a082311461179a578063715018a61461173f5780638456cb59146116e45780638da5cb5b146116bc578063938e3d7b146114f257806395d89b41146114215780639b41886c14611402578063a22cb46514611343578063b1d78c9a1461131c578063b88d4fde146112a9578063bfbfccb214611243578063c820c7f114611130578063c87b56dd14610e69578063c886015d14610a79578063d0fdcc09146105ab578063d6042eb8146104b9578063dc7d73bb14610489578063e8601c661461041e578063e8a3d48514610335578063e985e9c5146102e0578063f2fde38b1461023e5763f30cf6b603610011573461023a57602036600319011261023a57358252600b60209081529181902054905160ff808316825260089290921c90911691810191909152604090f35b0390f35b8280fd5b503461023a57602036600319011261023a57610258612349565b9061026161254e565b6001600160a01b038092169283156102b1575050600654826001600160a01b0319821617600655167f8be0079c531659141344cd1fd0a4f28419497f9722a3daafe3b4186f6b6457e0600080a380f35b908460249251917f1e4fbdf7000000000000000000000000000000000000000000000000000000008352820152fd5b5050346103315780600319360112610331576020916102fd612349565b8261030661235f565b926001600160a01b03809316815260058652209116600052825260ff81600020541690519015158152f35b5080fd5b82843461041b578060031936011261041b57508051600091600a54610359816124e0565b808452906001908181169081156103f35750600114610396575b505061038482610236940383612414565b51918291602083526020830190612324565b600a600090815294507fc65a7bb8d6351c1cf70c95a316cc6a92839c986682d98bc35f958f4883f9d2a85b8286106103db575050509181016020019161038482610373565b805460208787018101919091529095019481016103c1565b610236965085925060209150926103849360ff191682840152151560051b8201019450610373565b80fd5b5050346103315760203660031901126103315760ff8160a0936001600160a01b03610447612349565b168152601160205220805492600260018301549201549181519485526020850152828216151590840152818160081c16606084015260101c1615156080820152f35b503461023a57602036600319011261023a57816020936001600160a01b0392358152600d85522054169051908152f35b505034610331576020918260031936011261041b5781610236916001600160a01b036104e3612349565b606060a085516104f2816123dc565b858152858a8201528587820152858382015285608082015201521681526011855220825192610520846123dc565b8154845260ff6001830154928686019384526002810154928087019083851615158252610569600360608a0194868860081c1686528660808c019860101c16151588520161315c565b9560a089019687528151998a99818b5251908a0152519088015251151560608701525116608085015251151560a08401525160c08084015260e083019061251a565b5091906020908160031936011261023a578335916105c7612dd9565b6105cf612da3565b82151580610a6e575b6105e1906128f1565b338452601181526105ff828520805415908115610a5f575b50612962565b6106088361323b565b94610615846010546129d3565b34106109f8576001600160a01b0395818388600c54168651928380927f29bdca370000000000000000000000000000000000000000000000000000000082525afa90811561090a5790889188916109cb575b501690813b156109c75784517fd064ff1900000000000000000000000000000000000000000000000000000000815233848201908152602081019290925291879183919082908490829060400103925af180156109bd5761098f575b506106cd846129fc565b855b85811061091457508583610777829987518381019061071f816107118d338690916034926bffffffffffffffffffffffff199060601b16825260148201520190565b03601f198101835282612414565b5190209061072b6133b1565b1690610738821515612a67565b885194858094819363435639fb60e11b8352338b8401606090939291936001600160a01b03608082019516815260016020820152600560408201520152565b03925af190811561090a5787916108d4575b508652600d8352838620336001600160a01b0319825416179055600384516107b0816123dc565b8681528481013481528682019089825261082460ff606085016005815260808601938b60019e8f875260a089019a8b5233815260118d522096518755518d87015561080e6002870195511515869060ff801983541691151516179055565b51845461ff001916911660081b61ff0016178355565b51151562ff000082549160101b169062ff0000191617905501905180519267ffffffffffffffff84116108c15750918387936108638385989795612ac9565b019488528188209488955b8287106108ac575050507f61e364e3eabc785119e074fc551f39d64063d113dd457cccf0f14a6fcb3ede4f935082519485528401523392a260075580f35b8151878201559590930194879383019061086e565b886041602492634e487b7160e01b835252fd5b809750848092503d8311610903575b6108ed8183612414565b810103126108fe5786955138610789565b600080fd5b503d6108e3565b85513d89823e3d90fd5b61098a90610985600e80549061092982612a2e565b9055806109368487612a3d565b526109418133612b84565b875161094c816123aa565b8a81528781018b8152918b52600b8852888b2090518154925161ffff1990931660ff919091161760089290921b61ff0016919091179055565b612a2e565b6106cf565b67ffffffffffffffff81969296116109aa57835293386106c3565b602482604188634e487b7160e01b835252fd5b84513d88823e3d90fd5b8680fd5b6109eb9150853d87116109f1575b6109e38183612414565b8101906131ab565b38610667565b503d6109d9565b90608492519162461bcd60e51b8352820152602860248201527f52656c69633a20496e73756666696369656e742076616c756520666f7220766160448201527f756c74206d696e740000000000000000000000000000000000000000000000006064820152fd5b60ff91506002015416386105f9565b5060328311156105d8565b5091906020908160031936011261023a57833591610a95612dd9565b610a9d612da3565b82151580610e5e575b610aaf906128f1565b33845260118152610acc828520805415908115610a5f5750612962565b610ad58361323b565b610ae1846010546129d3565b3410610df7576001600160a01b039586610af961334b565b16918451907f23b872dd000000000000000000000000000000000000000000000000000000008583015233602483015230604483015260648201526064815260a081019267ffffffffffffffff9382811085821117610de4578652610b5e9190612b04565b610b67856129fc565b90865b868110610d6e575083610c038899875183810190610bab816107118d338690916034926bffffffffffffffffffffffff199060601b16825260148201520190565b51902090610bb76133b1565b1690610bc4821515612a67565b88519a8b8094819363435639fb60e11b835233898401606090939291936001600160a01b03608082019516815260016020820152600560408201520152565b03925af18015610d64578890610d32575b600597508852600d8452848820336001600160a01b031982541617905560038551610c3e816123dc565b8781528581013481528a610c9d60ff8a850193838552606086019d8e528b608087019480865260a088019a8b5233815260118d522095518655519c60019d8e87015561080e6002870195511515869060ff801983541691151516179055565b51151562ff000082549160101b169062ff000019161790550191519081519384116108c15750908383959492610cd48a9584612ac9565b0190835281832087845b878110610d1d57505050507f61e364e3eabc785119e074fc551f39d64063d113dd457cccf0f14a6fcb3ede4f935082519485528401523392a260075580f35b8351838201558a955092840192899101610cde565b508387813d8311610d5d575b610d488183612414565b81010312610d595760059651610c14565b8780fd5b503d610d3e565b85513d8a823e3d90fd5b610ddf90610985600e805490610d8382612a2e565b905580610d908488612a3d565b52610d9b8133612b84565b8851610da6816123aa565b8b81528881018c8152918c52600b8952898c2090518154925161ffff1990931660ff919091161760089290921b61ff0016919091179055565b610b6a565b602489604186634e487b7160e01b835252fd5b6084868385519162461bcd60e51b83528201526024808201527f52656c69633a20496e73756666696369656e74207061796d656e742070726f7660448201527f69646564000000000000000000000000000000000000000000000000000000006064820152fd5b506032831115610aa6565b50919034610331576020918260031936011261041b57833590610e8b8261276a565b5060095494610e99866124e0565b156110ee57829082907a184f03e93ff9f4daa797ed6e38ed64bf6a1f01000000000000000083818110156110e1575b5050866d04ee2d6d415b85acef8100000000808510156110d2575b5050662386f26fc10000808410156110c3575b506305f5e100808410156110b4575b50612710808410156110a8575b5050606482101561109a575b600a80921015611092575b60019182820190610f51610f3c8361244e565b92610f4989519485612414565b80845261244e565b958460218a850195601f19809a01368837850101905b611056575b50505085519784899594610f7f836124e0565b928a828216918260001461102f575050600114610fcf575b5050509180610fb3610fc0959361023698979551938491612301565b0103908101865285612414565b51928284938452830190612324565b8993949550600982527f6e1540171b6c0c960b71a7020d9f60077f6af931a8bbf590da0223dacf75c7af5b83831061101557505050840101919080610fb3610236610f97565b80549783018501979097528a968a94909201918101610ffa565b60ff19168982015284151590940288019093019550839250610fb391506102369050610f97565b600019019082907f30313233343536373839616263646566000000000000000000000000000000008282061a835304908582610f675750610f6c565b600101610f29565b906064600291049101610f1e565b90920491013880610f12565b60089192930492019038610f05565b60109192930492019038610ef6565b90919293049201908638610ee3565b0492508591503880610ec8565b6064908585519162461bcd60e51b8352820152601e60248201527f52656c69633a204261736520555249206e6f7420636f6e6669677572656400006044820152fd5b5050346103315760603660031901126103315761114b612349565b6024359060ff82169081830361123f5760443560ff8116928382036109c75792602096926112367fc8a443c1907d413e7a1dca411f6c6e7a16f3aa80eed13699a22eab2af2c4c1e49361120189989760ff6001600160a01b03966111b9886111b16133ff565b1633146131ca565b81600e549d8e9b8151956111cc876123aa565b8652602086019384528c81526020600b9052209351168219845416178355511661ff0082549160081b169061ff001916179055565b61120b8684612b84565b611216600e54612a2e565b600e55875160ff9788168152961660208701529116939081906040820190565b0390a351908152f35b8480fd5b503461023a57602036600319011261023a578160209361023692356112678161276a565b508152600b8552209180519261127c846123aa565b5460ff80821680865260089290921c16949093018490525191825260208201929092529081906040820190565b838234610331576080366003190112610331576112c4612349565b6112cc61235f565b6044359060643567ffffffffffffffff8111611318573660238201121561131857611315948160246113039336930135910161246a565b9261130f838383612592565b336127d5565b80f35b8580fd5b50913461041b57602036600319011261041b575061133c6020923561323b565b9051908152f35b50903461023a578060031936011261023a5761135d612349565b9060243580151592838203611318576001600160a01b03169384156113d357506113a69033865260056020528286208587526020528286209060ff801983541691151516179055565b519081527f17307eab39ab6107e8899845ad3d59bd9653f200f220920489ca2b5937696c3160203392a380f35b602490858451917f5b08ba18000000000000000000000000000000000000000000000000000000008352820152fd5b505034610331578160031936011261033157602090600f549051908152f35b505034610331578160031936011261033157805190826001805491611445836124e0565b808652928281169081156114ca575060011461146e575b50505061038482610236940383612414565b94508085527fb10e2d527612073b26eecdfd717e6a320cf44b4afac2b0732d9fcbe2b7fa0cf65b8286106114b257505050610384826020610236958201019461145c565b80546020878701810191909152909501948101611495565b61023697508693506020925061038494915060ff191682840152151560051b8201019461145c565b5091903461033157611503366124a1565b9061150c61254e565b81519367ffffffffffffffff85116116a9575061152a600a546124e0565b601f8111611650575b50602093601f81116001146115aa579081611599939285967f905d981207a7d0b6c62cc46ab0be2a076d0298e4a86d0ab79882dbd01ac37378969161159f575b508160011b916000199060031b1c191617600a5551918291602083526020830190612324565b0390a180f35b905083015138611573565b600a84527fc65a7bb8d6351c1cf70c95a316cc6a92839c986682d98bc35f958f4883f9d2a8601f198216855b8181106116385750916001917f905d981207a7d0b6c62cc46ab0be2a076d0298e4a86d0ab79882dbd01ac373789697826115999796951061161f575b5050811b01600a55610384565b85015160001960f88460031b161c191690553880611612565b858801518355602097880197600190930192016115d6565b61169990600a85527fc65a7bb8d6351c1cf70c95a316cc6a92839c986682d98bc35f958f4883f9d2a8601f870160051c8101916020881061169f575b601f0160051c0190612ab2565b38611533565b909150819061168c565b836041602492634e487b7160e01b835252fd5b5050346103315781600319360112610331576020906001600160a01b03600654169051908152f35b50503461033157816003193601126103315760207f62e78cea01bee320cd4e420270b5ea74000d11b0c9f74754ebdbfc544b05a2589161172261254e565b61172a612da3565b600160ff19600854161760085551338152a180f35b833461041b578060031936011261041b5761175861254e565b806001600160a01b036006546001600160a01b03198116600655167f8be0079c531659141344cd1fd0a4f28419497f9722a3daafe3b4186f6b6457e08280a380f35b50913461041b57602036600319011261041b576001600160a01b036117bd612349565b169283156117da5750806020938392526003845220549051908152f35b9060249251917f89c62b64000000000000000000000000000000000000000000000000000000008352820152fd5b5050346103315781600319360112610331578051908260095461182a816124e0565b808552916001918083169081156114ca57506001146118555750505061038482610236940383612414565b9450600985527f6e1540171b6c0c960b71a7020d9f60077f6af931a8bbf590da0223dacf75c7af5b82861061189a57505050610384826020610236958201019461145c565b8054602087870181019190915290950194810161187d565b50903461023a57602090816003193601126119fe5782359182856001600160a01b036118e0816111b16133ff565b6118e98361276a565b838352600b8552837f7f33b20c4df962ca720387409232fd87c13e869902a3e55f0f5fefe0a87768258388862093611955898b5196611927886123aa565b5460ff808216808a5260089290921c16919097018190528b5196875260208701529116939081906040820190565b0390a3828252600284528482205416600281159485156119c6575b848452528482206001600160a01b031981541690557fddf252ad1be2c89b69c2b068fc378daa952ba7f163c4a11628f55a4df523b3ef8280a46119b1578380f35b602493505191637e27328960e01b8352820152fd5b6119e785600052600460205260406000206001600160a01b03198154169055565b828452600381528684208054600019019055611970565b8380fd5b503461023a57602036600319011261023a57611a1c612349565b90611a2561254e565b6001600160a01b03809216928315611a7c575050816001600160a01b0319600c541617600c55611a5361334b565b16907f14662a0fccd762a05d5e1fa6afdd204554c4cf90fe58b5c5947f664fb71925f58380a380f35b906020606492519162461bcd60e51b8352820152601a60248201527f44756e67656f6e436f72652063616e6e6f74206265207a65726f0000000000006044820152fd5b5050346103315781600319360112610331576020906001600160a01b03600c54169051908152f35b50913461041b57602036600319011261041b57506001600160a01b03611b0f6020933561276a565b915191168152f35b50503461033157816003193601126103315760209060ff6008541690519015158152f35b5091903461033157611b4c366124a1565b90611b5561254e565b81519367ffffffffffffffff85116116a95750611b736009546124e0565b601f8111611c93575b50602093601f8111600114611bed579081611599939285967ff9c7803e94e0d3c02900d8a90893a6d5e90dd04d32a4cfe825520f82bf9f32f69691611be2575b508160011b916000199060031b1c19161760095551918291602083526020830190612324565b905083015138611bbc565b600984527f6e1540171b6c0c960b71a7020d9f60077f6af931a8bbf590da0223dacf75c7af601f198216855b818110611c7b5750916001917ff9c7803e94e0d3c02900d8a90893a6d5e90dd04d32a4cfe825520f82bf9f32f696978261159997969510611c62575b5050811b01600955610384565b85015160001960f88460031b161c191690553880611c55565b85880151835560209788019760019093019201611c19565b611cdb90600985527f6e1540171b6c0c960b71a7020d9f60077f6af931a8bbf590da0223dacf75c7af601f870160051c8101916020881061169f57601f0160051c0190612ab2565b38611b7c565b50903461023a578260031936011261023a57611cfb61254e565b828080806001600160a01b036006541647905af1611d176127a5565b5015611d21578280f35b906020606492519162461bcd60e51b8352820152601a60248201527f52656c69633a20455448207472616e73666572206661696c65640000000000006044820152fd5b5050346103315761131590611d7836612375565b91925192611d85846123f8565b85845261130f838383612592565b503461023a578260031936011261023a57611dac61254e565b6008549060ff821615611dee575060ff1916600855513381527f5db9ee0a495bf2e6ff9c91a7834c1ba4fdd244a5e8aa4e537bd38aeae4b073aa90602090a180f35b82517f8dfc202b000000000000000000000000000000000000000000000000000000008152fd5b509190346103315780600319360112610331576024359267ffffffffffffffff841161023a573660238501121561023a578381013593611e60611e5786612436565b93519384612414565b84835260209460248685019160051b8301019136831161131857602401905b828210611e925785611315868635612e14565b81358152908601908601611e7f565b5050346103315781600319360112610331576020906010549051908152f35b833461041b57611315611ed236612375565b91612592565b503461023a578260031936011261023a57611ef161254e565b6001600160a01b0380611f0261334b565b16908351927f70a082310000000000000000000000000000000000000000000000000000000084523090840152602083602481855afa928315611ff7578593611fc4575b5082611f50578480f35b611fbc93611fa9611fb7926006541691519485927fa9059cbb00000000000000000000000000000000000000000000000000000000602085015260248401602090939291936001600160a01b0360408201951681520152565b03601f198101845283612414565b612b04565b388080808480f35b9092506020813d8211611fef575b81611fdf60209383612414565b8101031261123f57519138611f46565b3d9150611fd2565b84513d87823e3d90fd5b8382346103315760203660031901126103315780359061201f61254e565b670de0b6b3a7640000918281029281840414901517156120405750600f5580f35b826011602492634e487b7160e01b835252fd5b8382346103315760203660031901126103315761206e61254e565b3560105580f35b50903461023a578060031936011261023a5761208f612349565b9160243561209c8161276a565b33151580612155575b8061212d575b6120fe5781906001600160a01b03809616958691167f8c5be1e5ebec7d5bd14f71427d1e84f3dd0314c0f7b2291e5b200ac8c7c3b9258880a484526020528220906001600160a01b031982541617905580f35b83517fa9fbf51f0000000000000000000000000000000000000000000000000000000081523381850152602490fd5b506001600160a01b0381168652600560205283862033875260205260ff8487205416156120ab565b50336001600160a01b03821614156120a5565b503461023a57602036600319011261023a5781602093826001600160a01b0393356121928161276a565b50825285522054169051908152f35b5050346103315781600319360112610331578051908280546121c2816124e0565b808552916001918083169081156114ca57506001146121ed5750505061038482610236940383612414565b80809650527f290decd9548b62a8d60345a988386fc84ba6bc95484008f6362f93160ef3e5635b82861061223157505050610384826020610236958201019461145c565b80546020878701810191909152909501948101612214565b9250503461023a57602036600319011261023a57356001600160e01b0319811680910361023a57602092507f80ac58cd0000000000000000000000000000000000000000000000000000000081149081156122d7575b81156122ad575b5015158152f35b7f01ffc9a700000000000000000000000000000000000000000000000000000000915014386122a6565b7f5b5e139f000000000000000000000000000000000000000000000000000000008114915061229f565b60005b8381106123145750506000910152565b8181015183820152602001612304565b9060209161233d81518092818552858086019101612301565b601f01601f1916010190565b600435906001600160a01b03821682036108fe57565b602435906001600160a01b03821682036108fe57565b60609060031901126108fe576001600160a01b039060043582811681036108fe579160243590811681036108fe579060443590565b6040810190811067ffffffffffffffff8211176123c657604052565b634e487b7160e01b600052604160045260246000fd5b60c0810190811067ffffffffffffffff8211176123c657604052565b6020810190811067ffffffffffffffff8211176123c657604052565b90601f8019910116810190811067ffffffffffffffff8211176123c657604052565b67ffffffffffffffff81116123c65760051b60200190565b67ffffffffffffffff81116123c657601f01601f191660200190565b9291926124768261244e565b916124846040519384612414565b8294818452818301116108fe578281602093846000960137010152565b60206003198201126108fe576004359067ffffffffffffffff82116108fe57806023830112156108fe578160246124dd9360040135910161246a565b90565b90600182811c92168015612510575b60208310146124fa57565b634e487b7160e01b600052602260045260246000fd5b91607f16916124ef565b90815180825260208080930193019160005b82811061253a575050505090565b83518552938101939281019260010161252c565b6001600160a01b0360065416330361256257565b60246040517f118cdaa7000000000000000000000000000000000000000000000000000000008152336004820152fd5b90916001600160a01b03809316928315612752576000928284528260209560028752604096848888205416968791331515806126a0575b509060027fddf252ad1be2c89b69c2b068fc378daa952ba7f163c4a11628f55a4df523b3ef9284612668575b858352600381528b83206001815401905586835252898120846001600160a01b031982541617905580a4169283830361262e5750505050565b6064945051927f64283d7b000000000000000000000000000000000000000000000000000000008452600484015260248301526044820152fd5b61268987600052600460205260406000206001600160a01b03198154169055565b848352600381528b832080546000190190556125f5565b91939450915080612711575b156126bc578592918791386125c9565b8786886126d9576024915190637e27328960e01b82526004820152fd5b90517f177e802f0000000000000000000000000000000000000000000000000000000081523360048201526024810191909152604490fd5b503387148015612736575b806126ac57508582526004815233858984205416146126ac565b5086825260058152878220338352815260ff888320541661271c565b6024604051633250574960e11b815260006004820152fd5b8060005260026020526001600160a01b036040600020541690811561278d575090565b60249060405190637e27328960e01b82526004820152fd5b3d156127d0573d906127b68261244e565b916127c46040519384612414565b82523d6000602084013e565b606090565b9293823b6127e5575b5050505050565b61282a906001600160a01b038094169560405194859481630a85bd0160e11b988988521660048701521660248501526044840152608060648401526084830190612324565b03906020816000938185885af1908290826128a9575b5050612877578261284f6127a5565b80519190826128705760248260405190633250574960e11b82526004820152fd5b6020915001fd5b6001600160e01b03191603612891575038808080806127de565b60249060405190633250574960e11b82526004820152fd5b909192506020813d82116128e9575b816128c560209383612414565b810103126103315751906001600160e01b03198216820361041b5750903880612840565b3d91506128b8565b156128f857565b608460405162461bcd60e51b815260206004820152603260248201527f52656c69633a20496e76616c6964207175616e74697479202d206d757374206260448201527f65206265747765656e203120616e6420353000000000000000000000000000006064820152fd5b1561296957565b608460405162461bcd60e51b815260206004820152602a60248201527f52656c69633a2050726576696f7573206d696e7420726571756573742073746960448201527f6c6c2070656e64696e67000000000000000000000000000000000000000000006064820152fd5b818102929181159184041417156129e657565b634e487b7160e01b600052601160045260246000fd5b90612a0682612436565b612a136040519182612414565b8281528092612a24601f1991612436565b0190602036910137565b60001981146129e65760010190565b8051821015612a515760209160051b010190565b634e487b7160e01b600052603260045260246000fd5b15612a6e57565b606460405162461bcd60e51b815260206004820152601260248201527f565246206e6f7420636f6e6669677572656400000000000000000000000000006044820152fd5b818110612abd575050565b60008155600101612ab2565b906801000000000000000081116123c657815490808355818110612aec57505050565b612b029260005260206000209182019101612ab2565b565b906000602091828151910182855af115612b78576000513d612b6f57506001600160a01b0381163b155b612b355750565b6024906001600160a01b03604051917f5274afe7000000000000000000000000000000000000000000000000000000008352166004820152fd5b60011415612b2e565b6040513d6000823e3d90fd5b6040805192612b92846123f8565b60008085526001600160a01b0394858516948515612d8c5783835260209660028852858420541684878215159283612d54575b81875260038b528887206001815401905582875260028b52888720826001600160a01b03198254161790557fddf252ad1be2c89b69c2b068fc378daa952ba7f163c4a11628f55a4df523b3ef8780a4612d24573b612c26575b505050505050565b85612c639185969798955180938192630a85bd0160e11b978884523360048501528760248501526044840152608060648401526084830190612324565b0381858a5af190829082612ce0575b5050612ca957505050612c836127a5565b8051939084612ca357602484845190633250574960e11b82526004820152fd5b84925001fd5b6001600160e01b0319919295501603612cc9575050388080808080612c1e565b602492505190633250574960e11b82526004820152fd5b909192508781813d8311612d1d575b612cf98183612414565b810103126103315751906001600160e01b03198216820361041b5750903880612c72565b503d612cef565b6024838651907f73c6ac6e0000000000000000000000000000000000000000000000000000000082526004820152fd5b612d7583600052600460205260406000206001600160a01b03198154169055565b80875260038b528887208054600019019055612bc5565b602483865190633250574960e11b82526004820152fd5b60ff60085416612daf57565b60046040517fd93c0665000000000000000000000000000000000000000000000000000000008152fd5b600260075414612dea576002600755565b60046040517f3ee5aeb5000000000000000000000000000000000000000000000000000000008152fd5b6001600160a01b03612e246133b1565b163303613158578151156131585780600052600d6020526001600160a01b03604060002054169081156131535781600052601160205260406000209260ff60028501541661314d57805115612a51576020015193612e846003850161315c565b916001946000955b815487101561307057612e9f8786612a3d565b516040517f6352211e000000000000000000000000000000000000000000000000000000008152816004820152602081602481305afa6000918161304f575b50612ef757505050612ef1600096612a2e565b95612e8c565b6001600160a01b0388919992939916036130415760405189602082015282604082015260608281830152815280608081011067ffffffffffffffff6080830111176123c657612ef1927fc8a443c1907d413e7a1dca411f6c6e7a16f3aa80eed13699a22eab2af2c4c1e4612ff18360808c950160405260648151602083012006602c8110600014612ff95750612fd76001915b612f96608082016123aa565b60ff8381166080830181815260a09093019081526000888152600b6020526040902092518354915161ff0060089190911b16921661ffff1990911617179055565b6040805160ff909216808352602083015290918291820190565b0390a3612a2e565b604f81101561300e5750612fd7600291612f8a565b605e8110156130235750612fd7600391612f8a565b6063111561303657612fd7600491612f8a565b612fd7600591612f8a565b965050612ef1600096612a2e565b61306991925060203d6020116109f1576109e38183612414565b9038612ede565b919495509195508492600160ff1960028501541617918260028501556130f6575b50505050600052600d60205260406000206001600160a01b0319815416905560005260116020526003604060002060008155600060018201556000600282015501805460008255806130e1575050565b612b0291600052602060002090810190612ab2565b6131417f0908417bb2d0393a45bf6efe35cecf8dbedbab1767b8d95f650094c6ccd1d0ac93549160ff604051948594855260081c16602084015260606040840152606083019061251a565b0390a281388080613091565b50505050565b505050565b5050565b9060405191828154918282526020928383019160005283600020936000905b82821061319157505050612b0292500383612414565b85548452600195860195889550938101939091019061317b565b908160209103126108fe57516001600160a01b03811681036108fe5790565b156131d157565b608460405162461bcd60e51b815260206004820152603860248201527f52656c69633a204e6f7420617574686f72697a6564202d206f6e6c7920416c7460448201527f6172206f6620417363656e73696f6e2063616e2063616c6c00000000000000006064820152fd5b906001600160a01b03600c54169182156132e15780156132da576020600f546024604051809681937f7b2e0fcf00000000000000000000000000000000000000000000000000000000835260048301525afa928315612b78576000936132a7575b506124dd91926129d3565b6020813d82116132d2575b816132bf60209383612414565b810103126119fe575192506124dd61329c565b3d91506132b2565b5060009150565b608460405162461bcd60e51b815260206004820152602360248201527f52656c69633a2044756e67656f6e436f726520636f6e7472616374206e6f742060448201527f73657400000000000000000000000000000000000000000000000000000000006064820152fd5b600460206001600160a01b03600c5416604051928380927f267071ad0000000000000000000000000000000000000000000000000000000082525afa908115612b7857600091613399575090565b6124dd915060203d81116109f1576109e38183612414565b600460206001600160a01b03600c5416604051928380927f3c0928740000000000000000000000000000000000000000000000000000000082525afa908115612b7857600091613399575090565b600460206001600160a01b03600c5416604051928380927f040db68e0000000000000000000000000000000000000000000000000000000082525afa908115612b785760009161339957509056fea2646970667358221220b73116b61c731feae234ff5353bdd573194213b084ee74e1ebff8b555534134164736f6c63430008140033",
  "linkReferences": {},
  "deployedLinkReferences": {}
}