{
  "_format": "hh-sol-artifact-1",
  "contractName": "Relic",
  "sourceName": "contracts/current/nft/Relic.sol",
  "abi": [
    {
      "inputs": [
        {
          "internalType": "address",
          "name": "initialOwner",
          "type": "address"
        }
      ],
      "stateMutability": "nonpayable",
      "type": "constructor"
    },
    {
      "inputs": [
        {
          "internalType": "address",
          "name": "sender",
          "type": "address"
        },
        {
          "internalType": "uint256",
          "name": "tokenId",
          "type": "uint256"
        },
        {
          "internalType": "address",
          "name": "owner",
          "type": "address"
        }
      ],
      "name": "ERC721IncorrectOwner",
      "type": "error"
    },
    {
      "inputs": [
        {
          "internalType": "address",
          "name": "operator",
          "type": "address"
        },
        {
          "internalType": "uint256",
          "name": "tokenId",
          "type": "uint256"
        }
      ],
      "name": "ERC721InsufficientApproval",
      "type": "error"
    },
    {
      "inputs": [
        {
          "internalType": "address",
          "name": "approver",
          "type": "address"
        }
      ],
      "name": "ERC721InvalidApprover",
      "type": "error"
    },
    {
      "inputs": [
        {
          "internalType": "address",
          "name": "operator",
          "type": "address"
        }
      ],
      "name": "ERC721InvalidOperator",
      "type": "error"
    },
    {
      "inputs": [
        {
          "internalType": "address",
          "name": "owner",
          "type": "address"
        }
      ],
      "name": "ERC721InvalidOwner",
      "type": "error"
    },
    {
      "inputs": [
        {
          "internalType": "address",
          "name": "receiver",
          "type": "address"
        }
      ],
      "name": "ERC721InvalidReceiver",
      "type": "error"
    },
    {
      "inputs": [
        {
          "internalType": "address",
          "name": "sender",
          "type": "address"
        }
      ],
      "name": "ERC721InvalidSender",
      "type": "error"
    },
    {
      "inputs": [
        {
          "internalType": "uint256",
          "name": "tokenId",
          "type": "uint256"
        }
      ],
      "name": "ERC721NonexistentToken",
      "type": "error"
    },
    {
      "inputs": [],
      "name": "EnforcedPause",
      "type": "error"
    },
    {
      "inputs": [],
      "name": "ExpectedPause",
      "type": "error"
    },
    {
      "inputs": [
        {
          "internalType": "address",
          "name": "owner",
          "type": "address"
        }
      ],
      "name": "OwnableInvalidOwner",
      "type": "error"
    },
    {
      "inputs": [
        {
          "internalType": "address",
          "name": "account",
          "type": "address"
        }
      ],
      "name": "OwnableUnauthorizedAccount",
      "type": "error"
    },
    {
      "inputs": [],
      "name": "ReentrancyGuardReentrantCall",
      "type": "error"
    },
    {
      "inputs": [
        {
          "internalType": "address",
          "name": "token",
          "type": "address"
        }
      ],
      "name": "SafeERC20FailedOperation",
      "type": "error"
    },
    {
      "anonymous": false,
      "inputs": [
        {
          "indexed": true,
          "internalType": "address",
          "name": "owner",
          "type": "address"
        },
        {
          "indexed": true,
          "internalType": "address",
          "name": "approved",
          "type": "address"
        },
        {
          "indexed": true,
          "internalType": "uint256",
          "name": "tokenId",
          "type": "uint256"
        }
      ],
      "name": "Approval",
      "type": "event"
    },
    {
      "anonymous": false,
      "inputs": [
        {
          "indexed": true,
          "internalType": "address",
          "name": "owner",
          "type": "address"
        },
        {
          "indexed": true,
          "internalType": "address",
          "name": "operator",
          "type": "address"
        },
        {
          "indexed": false,
          "internalType": "bool",
          "name": "approved",
          "type": "bool"
        }
      ],
      "name": "ApprovalForAll",
      "type": "event"
    },
    {
      "anonymous": false,
      "inputs": [
        {
          "indexed": true,
          "internalType": "address",
          "name": "newAddress",
          "type": "address"
        }
      ],
      "name": "AscensionAltarSet",
      "type": "event"
    },
    {
      "anonymous": false,
      "inputs": [
        {
          "indexed": false,
          "internalType": "string",
          "name": "newBaseURI",
          "type": "string"
        }
      ],
      "name": "BaseURISet",
      "type": "event"
    },
    {
      "anonymous": false,
      "inputs": [
        {
          "indexed": true,
          "internalType": "address",
          "name": "player",
          "type": "address"
        },
        {
          "indexed": false,
          "internalType": "uint256",
          "name": "quantity",
          "type": "uint256"
        },
        {
          "indexed": false,
          "internalType": "uint8",
          "name": "maxRarity",
          "type": "uint8"
        },
        {
          "indexed": false,
          "internalType": "uint256[]",
          "name": "tokenIds",
          "type": "uint256[]"
        }
      ],
      "name": "BatchMintCompleted",
      "type": "event"
    },
    {
      "anonymous": false,
      "inputs": [
        {
          "indexed": false,
          "internalType": "uint256",
          "name": "tierId",
          "type": "uint256"
        },
        {
          "indexed": false,
          "internalType": "uint256",
          "name": "minQuantity",
          "type": "uint256"
        },
        {
          "indexed": false,
          "internalType": "uint8",
          "name": "maxRarity",
          "type": "uint8"
        },
        {
          "indexed": false,
          "internalType": "string",
          "name": "tierName",
          "type": "string"
        }
      ],
      "name": "BatchTierSet",
      "type": "event"
    },
    {
      "anonymous": false,
      "inputs": [
        {
          "indexed": false,
          "internalType": "string",
          "name": "newContractURI",
          "type": "string"
        }
      ],
      "name": "ContractURIUpdated",
      "type": "event"
    },
    {
      "anonymous": false,
      "inputs": [
        {
          "indexed": true,
          "internalType": "address",
          "name": "core",
          "type": "address"
        },
        {
          "indexed": true,
          "internalType": "address",
          "name": "token",
          "type": "address"
        }
      ],
      "name": "ContractsSet",
      "type": "event"
    },
    {
      "anonymous": false,
      "inputs": [
        {
          "indexed": false,
          "internalType": "uint256",
          "name": "newSeed",
          "type": "uint256"
        }
      ],
      "name": "DynamicSeedUpdated",
      "type": "event"
    },
    {
      "anonymous": false,
      "inputs": [
        {
          "indexed": true,
          "internalType": "address",
          "name": "user",
          "type": "address"
        },
        {
          "indexed": true,
          "internalType": "address",
          "name": "executor",
          "type": "address"
        },
        {
          "indexed": false,
          "internalType": "uint256",
          "name": "quantity",
          "type": "uint256"
        }
      ],
      "name": "ForcedRevealExecuted",
      "type": "event"
    },
    {
      "anonymous": false,
      "inputs": [
        {
          "indexed": true,
          "internalType": "address",
          "name": "player",
          "type": "address"
        },
        {
          "indexed": false,
          "internalType": "uint256",
          "name": "quantity",
          "type": "uint256"
        },
        {
          "indexed": false,
          "internalType": "uint256",
          "name": "blockNumber",
          "type": "uint256"
        },
        {
          "indexed": false,
          "internalType": "bool",
          "name": "fromVault",
          "type": "bool"
        }
      ],
      "name": "MintCommitted",
      "type": "event"
    },
    {
      "anonymous": false,
      "inputs": [
        {
          "indexed": true,
          "internalType": "address",
          "name": "previousOwner",
          "type": "address"
        },
        {
          "indexed": true,
          "internalType": "address",
          "name": "newOwner",
          "type": "address"
        }
      ],
      "name": "OwnershipTransferred",
      "type": "event"
    },
    {
      "anonymous": false,
      "inputs": [
        {
          "indexed": false,
          "internalType": "address",
          "name": "account",
          "type": "address"
        }
      ],
      "name": "Paused",
      "type": "event"
    },
    {
      "anonymous": false,
      "inputs": [
        {
          "indexed": true,
          "internalType": "uint256",
          "name": "tokenId",
          "type": "uint256"
        },
        {
          "indexed": true,
          "internalType": "address",
          "name": "owner",
          "type": "address"
        },
        {
          "indexed": false,
          "internalType": "uint8",
          "name": "rarity",
          "type": "uint8"
        },
        {
          "indexed": false,
          "internalType": "uint8",
          "name": "capacity",
          "type": "uint8"
        }
      ],
      "name": "RelicBurned",
      "type": "event"
    },
    {
      "anonymous": false,
      "inputs": [
        {
          "indexed": true,
          "internalType": "uint256",
          "name": "tokenId",
          "type": "uint256"
        },
        {
          "indexed": true,
          "internalType": "address",
          "name": "owner",
          "type": "address"
        },
        {
          "indexed": false,
          "internalType": "uint8",
          "name": "rarity",
          "type": "uint8"
        },
        {
          "indexed": false,
          "internalType": "uint8",
          "name": "capacity",
          "type": "uint8"
        }
      ],
      "name": "RelicMinted",
      "type": "event"
    },
    {
      "anonymous": false,
      "inputs": [
        {
          "indexed": true,
          "internalType": "uint256",
          "name": "tokenId",
          "type": "uint256"
        },
        {
          "indexed": true,
          "internalType": "address",
          "name": "owner",
          "type": "address"
        },
        {
          "indexed": false,
          "internalType": "uint8",
          "name": "rarity",
          "type": "uint8"
        },
        {
          "indexed": false,
          "internalType": "uint8",
          "name": "capacity",
          "type": "uint8"
        }
      ],
      "name": "RelicRevealed",
      "type": "event"
    },
    {
      "anonymous": false,
      "inputs": [
        {
          "indexed": true,
          "internalType": "address",
          "name": "user",
          "type": "address"
        },
        {
          "indexed": true,
          "internalType": "address",
          "name": "proxy",
          "type": "address"
        }
      ],
      "name": "RevealedByProxy",
      "type": "event"
    },
    {
      "anonymous": false,
      "inputs": [
        {
          "indexed": true,
          "internalType": "address",
          "name": "from",
          "type": "address"
        },
        {
          "indexed": true,
          "internalType": "address",
          "name": "to",
          "type": "address"
        },
        {
          "indexed": true,
          "internalType": "uint256",
          "name": "tokenId",
          "type": "uint256"
        }
      ],
      "name": "Transfer",
      "type": "event"
    },
    {
      "anonymous": false,
      "inputs": [
        {
          "indexed": false,
          "internalType": "address",
          "name": "account",
          "type": "address"
        }
      ],
      "name": "Unpaused",
      "type": "event"
    },
    {
      "anonymous": false,
      "inputs": [
        {
          "indexed": true,
          "internalType": "address",
          "name": "vrfManager",
          "type": "address"
        }
      ],
      "name": "VRFManagerSet",
      "type": "event"
    },
    {
      "inputs": [],
      "name": "MAX_REVEAL_WINDOW",
      "outputs": [
        {
          "internalType": "uint256",
          "name": "",
          "type": "uint256"
        }
      ],
      "stateMutability": "view",
      "type": "function"
    },
    {
      "inputs": [],
      "name": "REVEAL_BLOCK_DELAY",
      "outputs": [
        {
          "internalType": "uint256",
          "name": "",
          "type": "uint256"
        }
      ],
      "stateMutability": "view",
      "type": "function"
    },
    {
      "inputs": [
        {
          "internalType": "address",
          "name": "to",
          "type": "address"
        },
        {
          "internalType": "uint256",
          "name": "tokenId",
          "type": "uint256"
        }
      ],
      "name": "approve",
      "outputs": [],
      "stateMutability": "nonpayable",
      "type": "function"
    },
    {
      "inputs": [],
      "name": "ascensionAltarAddress",
      "outputs": [
        {
          "internalType": "address",
          "name": "",
          "type": "address"
        }
      ],
      "stateMutability": "view",
      "type": "function"
    },
    {
      "inputs": [
        {
          "internalType": "address",
          "name": "owner",
          "type": "address"
        }
      ],
      "name": "balanceOf",
      "outputs": [
        {
          "internalType": "uint256",
          "name": "",
          "type": "uint256"
        }
      ],
      "stateMutability": "view",
      "type": "function"
    },
    {
      "inputs": [],
      "name": "baseURI",
      "outputs": [
        {
          "internalType": "string",
          "name": "",
          "type": "string"
        }
      ],
      "stateMutability": "view",
      "type": "function"
    },
    {
      "inputs": [
        {
          "internalType": "uint256",
          "name": "",
          "type": "uint256"
        }
      ],
      "name": "batchTiers",
      "outputs": [
        {
          "internalType": "uint256",
          "name": "minQuantity",
          "type": "uint256"
        },
        {
          "internalType": "uint8",
          "name": "maxRarity",
          "type": "uint8"
        },
        {
          "internalType": "string",
          "name": "tierName",
          "type": "string"
        }
      ],
      "stateMutability": "view",
      "type": "function"
    },
    {
      "inputs": [
        {
          "internalType": "uint256",
          "name": "_tokenId",
          "type": "uint256"
        }
      ],
      "name": "burnFromAltar",
      "outputs": [],
      "stateMutability": "nonpayable",
      "type": "function"
    },
    {
      "inputs": [
        {
          "internalType": "address",
          "name": "_user",
          "type": "address"
        }
      ],
      "name": "canForceReveal",
      "outputs": [
        {
          "internalType": "bool",
          "name": "",
          "type": "bool"
        }
      ],
      "stateMutability": "view",
      "type": "function"
    },
    {
      "inputs": [
        {
          "internalType": "address",
          "name": "_user",
          "type": "address"
        }
      ],
      "name": "canReveal",
      "outputs": [
        {
          "internalType": "bool",
          "name": "",
          "type": "bool"
        }
      ],
      "stateMutability": "view",
      "type": "function"
    },
    {
      "inputs": [],
      "name": "contractURI",
      "outputs": [
        {
          "internalType": "string",
          "name": "",
          "type": "string"
        }
      ],
      "stateMutability": "view",
      "type": "function"
    },
    {
      "inputs": [],
      "name": "dungeonCore",
      "outputs": [
        {
          "internalType": "contract IDungeonCore",
          "name": "",
          "type": "address"
        }
      ],
      "stateMutability": "view",
      "type": "function"
    },
    {
      "inputs": [],
      "name": "dynamicSeed",
      "outputs": [
        {
          "internalType": "uint256",
          "name": "",
          "type": "uint256"
        }
      ],
      "stateMutability": "view",
      "type": "function"
    },
    {
      "inputs": [
        {
          "internalType": "address",
          "name": "user",
          "type": "address"
        }
      ],
      "name": "forceRevealExpired",
      "outputs": [],
      "stateMutability": "nonpayable",
      "type": "function"
    },
    {
      "inputs": [],
      "name": "getAllBatchTiers",
      "outputs": [
        {
          "components": [
            {
              "internalType": "uint256",
              "name": "minQuantity",
              "type": "uint256"
            },
            {
              "internalType": "uint8",
              "name": "maxRarity",
              "type": "uint8"
            },
            {
              "internalType": "string",
              "name": "tierName",
              "type": "string"
            }
          ],
          "internalType": "struct Relic.BatchTier[]",
          "name": "",
          "type": "tuple[]"
        }
      ],
      "stateMutability": "view",
      "type": "function"
    },
    {
      "inputs": [
        {
          "internalType": "uint256",
          "name": "tokenId",
          "type": "uint256"
        }
      ],
      "name": "getApproved",
      "outputs": [
        {
          "internalType": "address",
          "name": "",
          "type": "address"
        }
      ],
      "stateMutability": "view",
      "type": "function"
    },
    {
      "inputs": [
        {
          "internalType": "uint256",
          "name": "_quantity",
          "type": "uint256"
        }
      ],
      "name": "getBatchTierInfo",
      "outputs": [
        {
          "internalType": "uint8",
          "name": "maxRarity",
          "type": "uint8"
        },
        {
          "internalType": "string",
          "name": "tierName",
          "type": "string"
        },
        {
          "internalType": "uint256",
          "name": "exactTierQuantity",
          "type": "uint256"
        },
        {
          "internalType": "uint256",
          "name": "totalCost",
          "type": "uint256"
        }
      ],
      "stateMutability": "view",
      "type": "function"
    },
    {
      "inputs": [
        {
          "internalType": "uint256",
          "name": "_quantity",
          "type": "uint256"
        }
      ],
      "name": "getMaxRarityForQuantity",
      "outputs": [
        {
          "internalType": "uint8",
          "name": "maxRarity",
          "type": "uint8"
        },
        {
          "internalType": "string",
          "name": "tierName",
          "type": "string"
        }
      ],
      "stateMutability": "view",
      "type": "function"
    },
    {
      "inputs": [
        {
          "internalType": "uint256",
          "name": "tokenId",
          "type": "uint256"
        }
      ],
      "name": "getRelicProperties",
      "outputs": [
        {
          "internalType": "uint8",
          "name": "rarity",
          "type": "uint8"
        },
        {
          "internalType": "uint8",
          "name": "capacity",
          "type": "uint8"
        }
      ],
      "stateMutability": "view",
      "type": "function"
    },
    {
      "inputs": [
        {
          "internalType": "uint256",
          "name": "_quantity",
          "type": "uint256"
        }
      ],
      "name": "getRequiredSoulShardAmount",
      "outputs": [
        {
          "internalType": "uint256",
          "name": "",
          "type": "uint256"
        }
      ],
      "stateMutability": "view",
      "type": "function"
    },
    {
      "inputs": [
        {
          "internalType": "address",
          "name": "_user",
          "type": "address"
        }
      ],
      "name": "getRevealBlocksRemaining",
      "outputs": [
        {
          "internalType": "uint256",
          "name": "",
          "type": "uint256"
        }
      ],
      "stateMutability": "view",
      "type": "function"
    },
    {
      "inputs": [
        {
          "internalType": "address",
          "name": "_user",
          "type": "address"
        }
      ],
      "name": "getUserCommitment",
      "outputs": [
        {
          "components": [
            {
              "internalType": "uint256",
              "name": "blockNumber",
              "type": "uint256"
            },
            {
              "internalType": "uint256",
              "name": "quantity",
              "type": "uint256"
            },
            {
              "internalType": "uint256",
              "name": "payment",
              "type": "uint256"
            },
            {
              "internalType": "bytes32",
              "name": "commitment",
              "type": "bytes32"
            },
            {
              "internalType": "bool",
              "name": "fulfilled",
              "type": "bool"
            },
            {
              "internalType": "uint8",
              "name": "maxRarity",
              "type": "uint8"
            },
            {
              "internalType": "bool",
              "name": "fromVault",
              "type": "bool"
            }
          ],
          "internalType": "struct Relic.MintCommitment",
          "name": "",
          "type": "tuple"
        }
      ],
      "stateMutability": "view",
      "type": "function"
    },
    {
      "inputs": [
        {
          "internalType": "address",
          "name": "_user",
          "type": "address"
        }
      ],
      "name": "getUserPendingTokens",
      "outputs": [
        {
          "internalType": "uint256[]",
          "name": "",
          "type": "uint256[]"
        }
      ],
      "stateMutability": "view",
      "type": "function"
    },
    {
      "inputs": [
        {
          "internalType": "address",
          "name": "owner",
          "type": "address"
        },
        {
          "internalType": "address",
          "name": "operator",
          "type": "address"
        }
      ],
      "name": "isApprovedForAll",
      "outputs": [
        {
          "internalType": "bool",
          "name": "",
          "type": "bool"
        }
      ],
      "stateMutability": "view",
      "type": "function"
    },
    {
      "inputs": [
        {
          "internalType": "address",
          "name": "_to",
          "type": "address"
        },
        {
          "internalType": "uint8",
          "name": "_rarity",
          "type": "uint8"
        },
        {
          "internalType": "uint8",
          "name": "_capacity",
          "type": "uint8"
        }
      ],
      "name": "mintFromAltar",
      "outputs": [
        {
          "internalType": "uint256",
          "name": "",
          "type": "uint256"
        }
      ],
      "stateMutability": "nonpayable",
      "type": "function"
    },
    {
      "inputs": [
        {
          "internalType": "uint256",
          "name": "_quantity",
          "type": "uint256"
        }
      ],
      "name": "mintFromVault",
      "outputs": [],
      "stateMutability": "payable",
      "type": "function"
    },
    {
      "inputs": [
        {
          "internalType": "uint256",
          "name": "_quantity",
          "type": "uint256"
        }
      ],
      "name": "mintFromWallet",
      "outputs": [],
      "stateMutability": "payable",
      "type": "function"
    },
    {
      "inputs": [],
      "name": "mintPriceUSD",
      "outputs": [
        {
          "internalType": "uint256",
          "name": "",
          "type": "uint256"
        }
      ],
      "stateMutability": "view",
      "type": "function"
    },
    {
      "inputs": [],
      "name": "name",
      "outputs": [
        {
          "internalType": "string",
          "name": "",
          "type": "string"
        }
      ],
      "stateMutability": "view",
      "type": "function"
    },
    {
      "inputs": [
        {
          "internalType": "uint256",
          "name": "requestId",
          "type": "uint256"
        },
        {
          "internalType": "uint256[]",
          "name": "randomWords",
          "type": "uint256[]"
        }
      ],
      "name": "onVRFFulfilled",
      "outputs": [],
      "stateMutability": "nonpayable",
      "type": "function"
    },
    {
      "inputs": [],
      "name": "owner",
      "outputs": [
        {
          "internalType": "address",
          "name": "",
          "type": "address"
        }
      ],
      "stateMutability": "view",
      "type": "function"
    },
    {
      "inputs": [
        {
          "internalType": "uint256",
          "name": "tokenId",
          "type": "uint256"
        }
      ],
      "name": "ownerOf",
      "outputs": [
        {
          "internalType": "address",
          "name": "",
          "type": "address"
        }
      ],
      "stateMutability": "view",
      "type": "function"
    },
    {
      "inputs": [],
      "name": "pause",
      "outputs": [],
      "stateMutability": "nonpayable",
      "type": "function"
    },
    {
      "inputs": [],
      "name": "paused",
      "outputs": [
        {
          "internalType": "bool",
          "name": "",
          "type": "bool"
        }
      ],
      "stateMutability": "view",
      "type": "function"
    },
    {
      "inputs": [],
      "name": "platformFee",
      "outputs": [
        {
          "internalType": "uint256",
          "name": "",
          "type": "uint256"
        }
      ],
      "stateMutability": "view",
      "type": "function"
    },
    {
      "inputs": [
        {
          "internalType": "uint256",
          "name": "",
          "type": "uint256"
        }
      ],
      "name": "relicData",
      "outputs": [
        {
          "internalType": "uint8",
          "name": "rarity",
          "type": "uint8"
        },
        {
          "internalType": "uint8",
          "name": "capacity",
          "type": "uint8"
        },
        {
          "internalType": "bool",
          "name": "isRevealed",
          "type": "bool"
        }
      ],
      "stateMutability": "view",
      "type": "function"
    },
    {
      "inputs": [],
      "name": "renounceOwnership",
      "outputs": [],
      "stateMutability": "nonpayable",
      "type": "function"
    },
    {
      "inputs": [],
      "name": "revealMint",
      "outputs": [],
      "stateMutability": "nonpayable",
      "type": "function"
    },
    {
      "inputs": [
        {
          "internalType": "address",
          "name": "user",
          "type": "address"
        }
      ],
      "name": "revealMintFor",
      "outputs": [],
      "stateMutability": "nonpayable",
      "type": "function"
    },
    {
      "inputs": [
        {
          "internalType": "address",
          "name": "from",
          "type": "address"
        },
        {
          "internalType": "address",
          "name": "to",
          "type": "address"
        },
        {
          "internalType": "uint256",
          "name": "tokenId",
          "type": "uint256"
        }
      ],
      "name": "safeTransferFrom",
      "outputs": [],
      "stateMutability": "nonpayable",
      "type": "function"
    },
    {
      "inputs": [
        {
          "internalType": "address",
          "name": "from",
          "type": "address"
        },
        {
          "internalType": "address",
          "name": "to",
          "type": "address"
        },
        {
          "internalType": "uint256",
          "name": "tokenId",
          "type": "uint256"
        },
        {
          "internalType": "bytes",
          "name": "data",
          "type": "bytes"
        }
      ],
      "name": "safeTransferFrom",
      "outputs": [],
      "stateMutability": "nonpayable",
      "type": "function"
    },
    {
      "inputs": [
        {
          "internalType": "address",
          "name": "operator",
          "type": "address"
        },
        {
          "internalType": "bool",
          "name": "approved",
          "type": "bool"
        }
      ],
      "name": "setApprovalForAll",
      "outputs": [],
      "stateMutability": "nonpayable",
      "type": "function"
    },
    {
      "inputs": [
        {
          "internalType": "address",
          "name": "_address",
          "type": "address"
        }
      ],
      "name": "setAscensionAltarAddress",
      "outputs": [],
      "stateMutability": "nonpayable",
      "type": "function"
    },
    {
      "inputs": [
        {
          "internalType": "string",
          "name": "_newBaseURI",
          "type": "string"
        }
      ],
      "name": "setBaseURI",
      "outputs": [],
      "stateMutability": "nonpayable",
      "type": "function"
    },
    {
      "inputs": [
        {
          "internalType": "uint256",
          "name": "_tierId",
          "type": "uint256"
        },
        {
          "internalType": "uint256",
          "name": "_minQuantity",
          "type": "uint256"
        },
        {
          "internalType": "uint8",
          "name": "_maxRarity",
          "type": "uint8"
        },
        {
          "internalType": "string",
          "name": "_tierName",
          "type": "string"
        }
      ],
      "name": "setBatchTier",
      "outputs": [],
      "stateMutability": "nonpayable",
      "type": "function"
    },
    {
      "inputs": [
        {
          "internalType": "string",
          "name": "newContractURI",
          "type": "string"
        }
      ],
      "name": "setContractURI",
      "outputs": [],
      "stateMutability": "nonpayable",
      "type": "function"
    },
    {
      "inputs": [
        {
          "internalType": "address",
          "name": "_address",
          "type": "address"
        }
      ],
      "name": "setDungeonCore",
      "outputs": [],
      "stateMutability": "nonpayable",
      "type": "function"
    },
    {
      "inputs": [
        {
          "internalType": "uint256",
          "name": "_newPrice",
          "type": "uint256"
        }
      ],
      "name": "setMintPriceUSD",
      "outputs": [],
      "stateMutability": "nonpayable",
      "type": "function"
    },
    {
      "inputs": [
        {
          "internalType": "uint256",
          "name": "_newFee",
          "type": "uint256"
        }
      ],
      "name": "setPlatformFee",
      "outputs": [],
      "stateMutability": "nonpayable",
      "type": "function"
    },
    {
      "inputs": [
        {
          "internalType": "address",
          "name": "_address",
          "type": "address"
        }
      ],
      "name": "setSoulShardToken",
      "outputs": [],
      "stateMutability": "nonpayable",
      "type": "function"
    },
    {
      "inputs": [
        {
          "internalType": "string",
          "name": "_newURI",
          "type": "string"
        }
      ],
      "name": "setUnrevealedURI",
      "outputs": [],
      "stateMutability": "nonpayable",
      "type": "function"
    },
    {
      "inputs": [
        {
          "internalType": "address",
          "name": "_vrfManager",
          "type": "address"
        }
      ],
      "name": "setVRFManager",
      "outputs": [],
      "stateMutability": "nonpayable",
      "type": "function"
    },
    {
      "inputs": [],
      "name": "soulShardToken",
      "outputs": [
        {
          "internalType": "contract IERC20",
          "name": "",
          "type": "address"
        }
      ],
      "stateMutability": "view",
      "type": "function"
    },
    {
      "inputs": [
        {
          "internalType": "bytes4",
          "name": "interfaceId",
          "type": "bytes4"
        }
      ],
      "name": "supportsInterface",
      "outputs": [
        {
          "internalType": "bool",
          "name": "",
          "type": "bool"
        }
      ],
      "stateMutability": "view",
      "type": "function"
    },
    {
      "inputs": [],
      "name": "symbol",
      "outputs": [
        {
          "internalType": "string",
          "name": "",
          "type": "string"
        }
      ],
      "stateMutability": "view",
      "type": "function"
    },
    {
      "inputs": [],
      "name": "tierCount",
      "outputs": [
        {
          "internalType": "uint256",
          "name": "",
          "type": "uint256"
        }
      ],
      "stateMutability": "view",
      "type": "function"
    },
    {
      "inputs": [
        {
          "internalType": "uint256",
          "name": "tokenId",
          "type": "uint256"
        }
      ],
      "name": "tokenURI",
      "outputs": [
        {
          "internalType": "string",
          "name": "",
          "type": "string"
        }
      ],
      "stateMutability": "view",
      "type": "function"
    },
    {
      "inputs": [
        {
          "internalType": "address",
          "name": "from",
          "type": "address"
        },
        {
          "internalType": "address",
          "name": "to",
          "type": "address"
        },
        {
          "internalType": "uint256",
          "name": "tokenId",
          "type": "uint256"
        }
      ],
      "name": "transferFrom",
      "outputs": [],
      "stateMutability": "nonpayable",
      "type": "function"
    },
    {
      "inputs": [
        {
          "internalType": "address",
          "name": "newOwner",
          "type": "address"
        }
      ],
      "name": "transferOwnership",
      "outputs": [],
      "stateMutability": "nonpayable",
      "type": "function"
    },
    {
      "inputs": [],
      "name": "unpause",
      "outputs": [],
      "stateMutability": "nonpayable",
      "type": "function"
    },
    {
      "inputs": [],
      "name": "unrevealedURI",
      "outputs": [
        {
          "internalType": "string",
          "name": "",
          "type": "string"
        }
      ],
      "stateMutability": "view",
      "type": "function"
    },
    {
      "inputs": [
        {
          "internalType": "address",
          "name": "",
          "type": "address"
        }
      ],
      "name": "userCommitments",
      "outputs": [
        {
          "internalType": "uint256",
          "name": "blockNumber",
          "type": "uint256"
        },
        {
          "internalType": "uint256",
          "name": "quantity",
          "type": "uint256"
        },
        {
          "internalType": "uint256",
          "name": "payment",
          "type": "uint256"
        },
        {
          "internalType": "bytes32",
          "name": "commitment",
          "type": "bytes32"
        },
        {
          "internalType": "bool",
          "name": "fulfilled",
          "type": "bool"
        },
        {
          "internalType": "uint8",
          "name": "maxRarity",
          "type": "uint8"
        },
        {
          "internalType": "bool",
          "name": "fromVault",
          "type": "bool"
        }
      ],
      "stateMutability": "view",
      "type": "function"
    },
    {
      "inputs": [
        {
          "internalType": "address",
          "name": "",
          "type": "address"
        },
        {
          "internalType": "uint256",
          "name": "",
          "type": "uint256"
        }
      ],
      "name": "userPendingTokens",
      "outputs": [
        {
          "internalType": "uint256",
          "name": "",
          "type": "uint256"
        }
      ],
      "stateMutability": "view",
      "type": "function"
    },
    {
      "inputs": [],
      "name": "vrfManager",
      "outputs": [
        {
          "internalType": "address",
          "name": "",
          "type": "address"
        }
      ],
      "stateMutability": "view",
      "type": "function"
    },
    {
      "inputs": [],
      "name": "withdrawNativeFunding",
      "outputs": [],
      "stateMutability": "nonpayable",
      "type": "function"
    },
    {
      "inputs": [],
      "name": "withdrawSoulShard",
      "outputs": [],
      "stateMutability": "nonpayable",
      "type": "function"
    },
    {
      "stateMutability": "payable",
      "type": "receive"
    }
  ],
  "bytecode": "0x6080346200108857601f620063f438819003918201601f19168301916001600160401b0383118484101762000c6e578084926020946040528339810103126200108857516001600160a01b0380821691829003620010885762000061620010ed565b91601583527f44756e67656f6e2044656c766572732052656c69630000000000000000000000602084015262000096620010ed565b600381526222222960e91b602082015283519092906001600160401b03811162000c6e57620000c76000546200110d565b601f811162001047575b50602094601f821160011462000fcf5794819293949560009262000fc3575b50508160011b916000199060031b1c1916176000555b82516001600160401b03811162000c6e57620001246001546200110d565b601f811162000f75575b506020601f821160011462000efc578192939460009262000ef0575b50508160011b916000199060031b1c1916176001555b811562000ed757600680546001600160a01b031981168417909155167f8be0079c531659141344cd1fd0a4f28419497f9722a3daafe3b4186f6b6457e0600080a36001600755671bc16d674ec80000601255660110d9316ec000601355620001ca6016546200110d565b601f811162000e88575b50609360169081556000527f68747470733a2f2f64756e67656f6e2d64656c766572732d6d65746164617461600080516020620063d4833981519152557f2d7365727665722e6f6e72656e6465722e636f6d2f6170692f72656c69632f757fd833147d7dc355ba459fc788f669e58cfaf9dc25ddcd0702e87d69c7b512428a55681b9c995d99585b195960ba1b7fd833147d7dc355ba459fc788f669e58cfaf9dc25ddcd0702e87d69c7b512428b556001601155620002926200108d565b600181526020810160058152620002a8620010ed565b90600b82526a14da5b99db1948135a5b9d60aa1b60208301526040830191825260008052601460205260406000209251835560ff6001840191511660ff198254161790555180519060018060401b03821162000c6e576200031c826200031260028601546200110d565b6002860162001163565b602090601f831160011462000e1357600292916000918362000e07575b50508160011b916000199060031b1c1916179101555b620003596200108d565b6005815260208101600581526200036f620010ed565b90600b82526a42726f6e7a65205061636b60a81b6020830152604083019182526001600052601460205260406000209251835560ff6001840191511660ff198254161790555180519060018060401b03821162000c6e57620003da826200031260028601546200110d565b602090601f831160011462000d9257600292916000918362000d86575b50508160011b916000199060031b1c1916179101555b620004176200108d565b600a815260208101600581526200042d620010ed565b90600b82526a53696c766572205061636b60a81b6020830152604083019182526002600052601460205260406000209251835560ff6001840191511660ff198254161790555180519060018060401b03821162000c6e5762000498826200031260028601546200110d565b602090601f831160011462000d1157600292916000918362000d05575b50508160011b916000199060031b1c1916179101555b620004d56200108d565b601481526020810160058152620004eb620010ed565b906009825268476f6c64205061636b60b81b6020830152604083019182526003600052601460205260406000209251835560ff6001840191511660ff198254161790555180519060018060401b03821162000c6e5762000554826200031260028601546200110d565b602090601f831160011462000c9057600292916000918362000c84575b50508160011b916000199060031b1c1916179101555b620005916200108d565b6032815260056020820152620005a6620010ed565b600d81526c506c6174696e756d205061636b60981b602082015260408201526004600052601460205260408060002091805183556001830160ff60208301511660ff19825416179055015180519060018060401b03821162000c6e5762000616826200031260028601546200110d565b602090601f831160011462000bf957600292916000918362000bed575b50508160011b916000199060031b1c1916179101555b6005601555620006ef6200065c620010ad565b60018152600160208201526001604082015260ff60608201600181526001600052601a602052620006d58260408060002095828151168319885416178755620006bc83602083015116889061ff0082549160081b169061ff001916179055565b0151855462ff00001916911660101b62ff000016178455565b51825463ff0000001916911660181b63ff00000016179055565b62000772620006fd620010ad565b6001815260ff6020820160028152620006d58260408501600381526200075a826060880195600487526005600052601a60205281604060002099511682198a54161789555116879061ff0082549160081b169061ff001916179055565b51855462ff00001916911660101b62ff000016178455565b620007dd62000780620010ad565b6001815260ff6020820160038152620006d58260408501600481526200075a82606088019560078752600a600052601a60205281604060002099511682198a54161789555116879061ff0082549160081b169061ff001916179055565b62000848620007eb620010ad565b6002815260ff6020820160048152620006d58260408501600781526200075a826060880195600c87526014600052601a60205281604060002099511682198a54161789555116879061ff0082549160081b169061ff001916179055565b620008b362000856620010ad565b6002815260ff6020820160068152620006d58260408501600d81526200075a826060880195601987526032600052601a60205281604060002099511682198a54161789555116879061ff0082549160081b169061ff001916179055565b620008bd620010cd565b60018152600060208201526000604082015260006060820152600060808201526001600052601b602052608060406000209160ff81511660ff198454161783556200092060ff602083015116849061ff0082549160081b169061ff001916179055565b6040810151835462ff0000191660109190911b62ff0000161783556060810151835463ff000000191660189190911b63ff00000016178355015164ff0000000082549160201b169064ff0000000019161790556200097d620010cd565b60038152602081016002815262000a1960ff6040840160008152620009ff82606087019260008452620009e78260808a019860008a526005600052601b6020528160406000209b511682198c5416178b555116899061ff0082549160081b169061ff001916179055565b51875462ff00001916911660101b62ff000016178655565b51845463ff0000001916911660181b63ff00000016178355565b5164ff0000000082549160201b169064ff00000000191617905562000a3d620010cd565b60068152602081016003815262000aa760ff6040840160018152620009ff82606087019260008452620009e78260808a019860008a52600a600052601b6020528160406000209b511682198c5416178b555116899061ff0082549160081b169061ff001916179055565b5164ff0000000082549160201b169064ff00000000191617905562000acb620010cd565b600b8152602081016006815262000b3560ff6040840160038152620009ff82606087019260008452620009e78260808a019860008a526014600052601b6020528160406000209b511682198c5416178b555116899061ff0082549160081b169061ff001916179055565b5164ff0000000082549160201b169064ff00000000191617905562000b59620010cd565b60198152602081016010815262000bc360ff6040840160088152620009ff82606087019260018452620009e78260808a019860008a526032600052601b6020528160406000209b511682198c5416178b555116899061ff0082549160081b169061ff001916179055565b5164ff0000000082549160201b169064ff0000000019161790556040516151f09081620011a48239f35b01519050388062000633565b906002840160005260206000209160005b601f198516811062000c555750918391600193600295601f1981161062000c3b575b505050811b0191015562000649565b015160001960f88460031b161c1916905538808062000c2c565b9192602060018192868501518155019401920162000c0a565b634e487b7160e01b600052604160045260246000fd5b01519050388062000571565b906002840160005260206000209160005b601f198516811062000cec5750918391600193600295601f1981161062000cd2575b505050811b0191015562000587565b015160001960f88460031b161c1916905538808062000cc3565b9192602060018192868501518155019401920162000ca1565b015190503880620004b5565b906002840160005260206000209160005b601f198516811062000d6d5750918391600193600295601f1981161062000d53575b505050811b01910155620004cb565b015160001960f88460031b161c1916905538808062000d44565b9192602060018192868501518155019401920162000d22565b015190503880620003f7565b906002840160005260206000209160005b601f198516811062000dee5750918391600193600295601f1981161062000dd4575b505050811b019101556200040d565b015160001960f88460031b161c1916905538808062000dc5565b9192602060018192868501518155019401920162000da3565b01519050388062000339565b906002840160005260206000209160005b601f198516811062000e6f5750918391600193600295601f1981161062000e55575b505050811b019101556200034f565b015160001960f88460031b161c1916905538808062000e46565b9192602060018192868501518155019401920162000e24565b601660005262000ed090601f0160051c600080516020620063d4833981519152017fd833147d7dc355ba459fc788f669e58cfaf9dc25ddcd0702e87d69c7b512428c6200114a565b38620001d4565b604051631e4fbdf760e01b815260006004820152602490fd5b0151905038806200014a565b60016000908152600080516020620063b48339815191529190601f198416905b81811062000f5c5750958360019596971062000f42575b505050811b0160015562000160565b015160001960f88460031b161c1916905538808062000f33565b9192602060018192868b01518155019401920162000f1c565b600160005262000fb190600080516020620063b4833981519152601f840160051c8101916020851062000fb8575b601f0160051c01906200114a565b386200012e565b909150819062000fa3565b015190503880620000f0565b6000808052601f19831696600080516020620063948339815191529290915b8881106200102e5750836001959697981062001014575b505050811b0160005562000106565b015160001960f88460031b161c1916905538808062001005565b9192602060018192868501518155019401920162000fee565b60008052620010819060008051602062006394833981519152601f840160051c8101916020851062000fb857601f0160051c01906200114a565b38620000d1565b600080fd5b60405190606082016001600160401b0381118382101762000c6e57604052565b60405190608082016001600160401b0381118382101762000c6e57604052565b6040519060a082016001600160401b0381118382101762000c6e57604052565b60408051919082016001600160401b0381118382101762000c6e57604052565b90600182811c921680156200113f575b60208310146200112957565b634e487b7160e01b600052602260045260246000fd5b91607f16916200111d565b81811062001156575050565b600081556001016200114a565b9190601f81116200117357505050565b620011a1926000526020600020906020601f840160051c8301931062000fb857601f0160051c01906200114a565b56fe6080604052600436101561001b575b361561001957600080fd5b005b6000803560e01c806268f22e146133c457806301ffc9a71461335557806306fdde03146132b1578063081812fc14613274578063095ea7b31461319157806312e8e2c31461316e578063166829e31461314a5780631cbb41311461310d5780631dafec001461303957806323b872dd1461302157806326232a2e146130035780632a32e8d414612f265780632ca5f30a14612ef45780633a92c0ac14612ed65780633f4ba83a14612e6b578063415d6a0114612d7557806342842e0e14612d475780634350772c14612d1e5780634403940214612cf557806355f804b314612b635780635b6ef03214612ae05780635c975abb14612abd5780636352211e14612a8c57806367cfab5814612a635780636844126f146129cb5780636ab1b29b1461295c5780636aef5069146127a95780636c0360eb146127155780637035bf18146126f957806370a08231146126a1578063715018a6146126445780637a33eabc146125dc5780638456cb591461258157806386da2bd71461252b5780638973bc7e1461250f5780638b3fd44f146122825780638da5cb5b146122595780638f2fec08146121d2578063936315d6146121a4578063938e3d7b14611fe757806395d89b4114611f1857806396b55f7d14611efa5780639b41886c14611edc5780639bd1613514611d8b578063a20fd5c414611c8f578063a22cb46514611be3578063b1d78c9a14611bbc578063b88d4fde14611b4d578063bfbfccb214611a90578063c1b39a3e14611a67578063c47d4357146119ec578063c820c7f1146118e7578063c87b56dd146118c7578063c886015d1461158c578063cc64cb7c14610c6b578063d0fdcc091461082e578063d96fe72d14610812578063db4b8268146107a4578063de4b53bd1461074d578063e0d5e1b4146106d3578063e8a3d485146105f1578063e985e9c51461059d578063eb578bca1461055a578063f2fde38b146104ca578063f30cf6b6146104845763fe2c7fee146102fc575061000e565b346104815760209081600319360112610481576001600160401b0360043581811161047d5761032f9036906004016135fc565b92610338613828565b83519182116104695761034c60165461361a565b601f8111610411575b5080601f831160011461039057508293829392610385575b50508160011b916000199060031b1c19161760165580f35b01519050388061036d565b60168452601f198316947fd833147d7dc355ba459fc788f669e58cfaf9dc25ddcd0702e87d69c7b5124289929185905b8782106103f95750508360019596106103e0575b505050811b0160165580f35b015160001960f88460031b161c191690553880806103d4565b806001859682949686015181550195019301906103c0565b61045990601685527fd833147d7dc355ba459fc788f669e58cfaf9dc25ddcd0702e87d69c7b5124289601f850160051c81019184861061045f575b601f0160051c0190614622565b38610355565b909150819061044c565b634e487b7160e01b83526041600452602483fd5b8280fd5b80fd5b50346104815760203660031901126104815760406060916004358152600b602052205460ff604051918181168352818160081c16602084015260101c1615156040820152f35b5034610481576020366003190112610481576104e461342c565b6104ec613828565b6001600160a01b0390811690811561054157600654826bffffffffffffffffffffffff60a01b821617600655167f8be0079c531659141344cd1fd0a4f28419497f9722a3daafe3b4186f6b6457e0600080a380f35b604051631e4fbdf760e01b815260048101849052602490fd5b50346104815760203660031901126104815760ff61059961057c600435613b88565b60409291925193849316835260406020840152604083019061347b565b0390f35b5034610481576040366003190112610481576105b761342c565b60406105c1613442565b9260018060a01b0380931681526005602052209116600052602052602060ff604060002054166040519015158152f35b50346104815780600319360112610481576040516000600a546106138161361a565b808452906001908181169081156106ac5750600114610651575b6105998461063d81860382613572565b60405191829160208352602083019061347b565b600a600090815292507fc65a7bb8d6351c1cf70c95a316cc6a92839c986682d98bc35f958f4883f9d2a85b82841061069457505050810160200161063d8261062d565b8054602085870181019190915290930192810161067c565b60ff191660208087019190915292151560051b8501909201925061063d915083905061062d565b5034610481576020366003190112610481576106ed61342c565b6106f5613db1565b6106fd613d93565b61070681613eef565b6001600160a01b031633819003610721575b50600160075580f35b33907f03b940e5594caf9c29015b39d851054d069d150d662629de6bbdc3086fc163cd8380a338610718565b50346104815760203660031901126104815760409060043581526014602052208054610599610786600260ff6001860154169401613712565b6040519384938452602084015260606040840152606083019061347b565b5034610481576020366003190112610481576107be61342c565b6107c6613828565b600d80546001600160a01b0319166001600160a01b03928316908117909155600c549091167f14662a0fccd762a05d5e1fa6afdd204554c4cf90fe58b5c5947f664fb71925f58380a380f35b5034610481578060031936011261048157602060405160038152f35b50602080600319360112610c675760043590610848613db1565b610850613d93565b81151580610c5c575b61086290613c27565b3383526017815261088160408420805415908115610c4d575b50613c73565b61088a82613b88565b5061089483614e97565b90846108a285601354613cbf565b600f546001600160a01b039491908690861680610bdd575b50506108c890341015613cdf565b60048585600c5416604051928380926329bdca3760e01b82525afa8015610b1c5785918491610ba3575b501690813b1561047d5760405163d064ff1960e01b8152336004820152602481019190915291908290604490829084905af18015610b9857610b69575b506040513360601b6bffffffffffffffffffffffff19168482019081524360148201526034810186905286929161097381605484015b03601f198101835282613572565b51902092600f541680610a75575b50610a1c60ff600192610a066004610a3597604051906109a0826134d5565b4382528a8083018d815260408b60178287019434865260608801968752608088019e8f528b60a089019b168b5260c088019d8e523383525220935184555160018401555160028301555160038201550195511515869060ff801983541691151516179055565b51845461ff001916911660081b61ff0016178355565b51815462ff0000191690151560101b62ff000016179055565b6040519182524390820152600160408201527fe76693a509b276a8f091f368f5ee1fcd90a958858d61248bdb8588205bcd734560603392a2600160075580f35b6040516321ffa5f960e21b81528581600481855afa918215610b5e57869286928691610b27575b5060405163435639fb60e11b8152336004820152602481018a905260ff861660448201526064810193909352919291839160849183915af1908115610b1c578591610ae8575b50610981565b90809293503d8311610b15575b610aff8183613572565b81010312610b105784908338610ae2565b600080fd5b503d610af5565b6040513d85823e3d90fd5b93925050935081813d8311610b57575b610b418183613572565b81010312610b1057518692859185919084610a9c565b503d610b37565b6040513d86823e3d90fd5b6001600160401b038196929611610b8457604052933861092f565b634e487b7160e01b82526041600452602482fd5b6040513d88823e3d90fd5b809250878092503d8311610bd6575b610bbc8183613572565b8101031261047d5751848116810361047d578490386108f2565b503d610bb2565b6040516321ffa5f960e21b81529190829060049082905afa908115610b5e578491610c1a575b50610c11906108c892613cd2565b905085386108ba565b90508681813d8311610c46575b610c318183613572565b81010312610c4257516108c8610c03565b8380fd5b503d610c27565b60ff915060040154163861087b565b506032821115610859565b5080fd5b503461048157602036600319011261048157610c8561342c565b610c8d613db1565b610c95613d93565b6001600160a01b03811682526017602052604082208054610cb7811515613dd4565b610cc860ff60048401541615613e19565b600381019081811161157857610102018091116112de5743111561153a576001600160a01b03821680845260176020908152604080862060048082018054600160ff1991821681179092556019808752858b20838c528752858b20805483169055878b52808752858b2060028c528752858b20805483169055878b52808752858b2060038c528752858b20805483169055878b52808752858b20938b52928652848a20805482169055958952908452828820600589529093529086208054909316909255810154601c805490869055909390806114f6575b50838552601b602052604085209360405194610dbb86613521565b549460ff8616815260ff808760081c1691826020820152818860101c166040820152818860181c166060820152818860201c16608082015296161590816114ed575b506113ca575b50845b60ff60808601511660ff82161015610e6d57601c54600160401b811015610e595790610e3b826001610e549401601c55614862565b81549060031b9060ff6005831b921b191617905561489f565b610e06565b634e487b7160e01b87526041600452602487fd5b508493845b60ff60608301511660ff82161015610ec557601c54600160401b811015610e595790610ea7826001610ec09401601c55614862565b81549060031b9060ff6004831b921b191617905561489f565b610e72565b508493845b60ff60408401511660ff82161015610f1d57601c54600160401b811015610e595790610eff826001610f189401601c55614862565b81549060031b9060ff6003831b921b191617905561489f565b610eca565b508493845b60ff60208501511660ff82161015610f7557601c54600160401b811015610e595790610f57826001610f709401601c55614862565b81549060031b9060ff6002831b921b191617905561489f565b610f22565b508493845b60ff85511660ff82161015610fcd57601c54600160401b811015610e595760ff91610fae826001610fc69401601c55614862565b81549060031b90856001831b921b191617905561489f565b9050610f7a565b50601c54859450600019908181019081116112f257805b61130657508254600381018091116112f25740156112cf575b5061100b60018301546145ae565b91845b6001820154811015611105576011805490611028826145e0565b90558061103583876145ef565b5261108860405161104581613506565b88815260208082018a815260408084018c8152868d52600b9093528b2092518354915161ffff1990921660ff919091161760089190911b61ff0016178255610a1c565b611092818561465d565b6001600160a01b0384168752601860205260408720805490600160401b8210156110f1576110ce826110e59260016110ec9796950181556137b6565b819391549060031b91821b91600019901b19161790565b90556145e0565b61100e565b634e487b7160e01b89526041600452602489fd5b5092939193825b85518110156111f757806111236111f292886145ef565b5160ff61112f83614862565b90549060031b1c1690808752600b602052604087208260ff1982541617815561116983829061ff0082549160081b169061ff001916179055565b805462ff00001916620100001790556040805160ff841680825260208201526001600160a01b03881691839160008051602061517b8339815191529190a36040805160ff90931680845260208401526001600160a01b038716927f6887aac0938f877edd3b2e270244e90b56b78b9da03bfc5bd410f1f90728479c91819081015b0390a36145e0565b61110c565b50600190847f0908417bb2d0393a45bf6efe35cecf8dbedbab1767b8d95f650094c6ccd1d0ac8760ff60048685015494015460081c16611245604051928392888060a01b038a169684614603565b0390a2818060a01b0383168452601760205261127c6040852060046000918281558260018201558260028201558260038201550155565b601860205261128d60408520614639565b015460405190815233916001600160a01b0316907fa65d0fdb45e0e0e3df56379247bc241e554ab7115be9ea5b25a37920bfbba3c290602090a3600160075580f35b43904301116112de5784610ffd565b634e487b7160e01b84526011600452602484fd5b634e487b7160e01b86526011600452602486fd5b60405160208101904282528260408201526040815261132481613506565b51902060018201908183116113b65781156113a25761139c9291611397910661137960ff61135185614862565b90549060031b1c169161139260ff61136883614862565b90549060031b1c1661137987614862565b90919060ff8084549260031b9316831b921b1916179055565b614862565b613b65565b80610fe4565b634e487b7160e01b88526012600452602488fd5b634e487b7160e01b88526011600452602488fd5b909350600581101561142b575060018452601b6020526040842060ff604051916113f383613521565b548181168352818160081c166020840152818160101c166040840152818160181c16606084015260201c166080820152925b38610e03565b600a811015611487575060058452601b6020526040842060ff6040519161145183613521565b548181168352818160081c166020840152818160101c166040840152818160181c16606084015260201c16608082015292611425565b60148110156114ad5750600a8452601b6020526040842060ff6040519161145183613521565b603211156114d15760148452601b6020526040842060ff6040519161145183613521565b60328452601b6020526040842060ff6040519161145183613521565b90501538610dfd565b601f7f0e4562a10381dec21b205ed72637e6b1b523bdd0e4d4d50af5cd23dd4500a211910160051c8101905b81811061152f5750610da0565b868155600101611522565b60405162461bcd60e51b815260206004820152601660248201527514995b1a58ce88139bdd08195e1c1a5c9959081e595d60521b6044820152606490fd5b634e487b7160e01b85526011600452602485fd5b50602080600319360112610c6757600435906115a6613db1565b6115ae613d93565b811515806118bc575b6115c090613c27565b338352601781526115de60408420805415908115610c4d5750613c73565b6115e782613b88565b50836115f284614e97565b6115fe85601354613cbf565b600f546001600160a01b039290831691868361183e575b5061165f925061162790341015613cdf565b82600d5416604051916323b872dd60e01b8884015233602484015230604484015260648301526064825261165a82613521565b613d2b565b6040513360601b6bffffffffffffffffffffffff191685820190815243601482015260348101879052906116968160548401610965565b51902090600f541680611767575b50610a1c60ff61172894610a0660048695604051906116c2826134d5565b4382528a8083018d815260408a60178287019434865260608801968752608088019e8f528b60a089019b168b5260c088019d8e523383525220935184555160018401555160028301555160038201550195511515869060ff801983541691151516179055565b60405191825243908201528160408201527fe76693a509b276a8f091f368f5ee1fcd90a958858d61248bdb8588205bcd734560603392a2600160075580f35b6040516321ffa5f960e21b8152908582600481845afa8015610b5e5786918685928790611808575b60405163435639fb60e11b8152336004820152602481018c905260ff9092166044830152606482019390935293508391829081608481015b03925af1908115610b1c5785916117df575b506116a4565b813d8311611801575b6117f28183613572565b81010312610c675783386117d9565b503d6117e8565b505091905082813d8311611837575b6118218183613572565b81010312610c4257828691866117c7945161178f565b503d611817565b6040516321ffa5f960e21b815293849060049082905afa9283156118b157859361187c575b5061187461165f9361162792613cd2565b905086611615565b92508683813d83116118aa575b6118938183613572565b810103126118a657915191611874611863565b8480fd5b503d611889565b6040513d87823e3d90fd5b5060328211156115b7565b50346104815760203660031901126104815761059961063d600435614c09565b50346104815760603660031901126104815761190161342c565b6024359060ff8216808303610c425760008051602061517b833981519152602094610a1c94936119e160ff946119a96119386137e4565b9160018060a01b039561195087600e54163314614bbd565b6011549a8b998a926040519461196586613506565b8552818f604090870192828a168452818801966001885281526020600b90522095511682198654161785555116839061ff0082549160081b169061ff001916179055565b6119b3868461465d565b6119be6011546145e0565b60115560405193849316968390929160ff60209181604085019616845216910152565b0390a3604051908152f35b5034610481578060031936011261048157611a05613828565b8080808060018060a01b036006541647905af1611a20613a19565b5015611a295780f35b60405162461bcd60e51b815260206004820152601660248201527513985d1a5d99481dda5d1a191c985dc819985a5b195960521b6044820152606490fd5b5034610481578060031936011261048157600f546040516001600160a01b039091168152602090f35b503461048157602036600319011261048157604090600435611ab1816139f6565b508152600b6020522060405190611ac782613506565b549060ff8216815260ff6020820192818160081c16845260101c161580156040830152611b08575190516040805160ff938416815292909116602083015290f35b60405162461bcd60e51b815260206004820152601760248201527f52656c69633a204e6f74207965742072657665616c65640000000000000000006044820152606490fd5b503461048157608036600319011261048157611b6761342c565b611b6f613442565b90604435606435926001600160401b0384116118a657366023850112156118a657611ba7611bb99436906024816004013591016135c5565b92611bb3838383613854565b33613a49565b80f35b5034610481576020366003190112610481576020611bdb600435614e97565b604051908152f35b503461048157604036600319011261048157611bfd61342c565b6024359081151590818303610c42576001600160a01b0316918215611c7657611c4790338552600560205260408520848652602052604085209060ff801983541691151516179055565b6040519081527f17307eab39ab6107e8899845ad3d59bd9653f200f220920489ca2b5937696c3160203392a380f35b604051630b61174360e31b815260048101849052602490fd5b5034610481576020366003190112610481576001600160a01b03611cb161342c565b1681526017602052604081209060405190611ccb826134d5565b600483549384845260018101546020850152600281015460408501526003810154606085015201549160c060ff808516159485156080850152818160081c1660a085015260101c1615159101528215159182611d83575b5081611d36575b6020826040519015158152f35b90506003820191828111611d6f5761010201809211611d5b5750602090431138611d29565b634e487b7160e01b81526011600452602490fd5b634e487b7160e01b82526011600452602482fd5b915038611d22565b5034610481578060031936011261048157601554611da881613593565b90611db66040519283613572565b808252601f19611dc582613593565b01835b818110611eb2575050825b818110611e5a57505060405190602092838301848452825180915260408401948060408360051b870101940192955b828710611e0f5785850386f35b909192938280611e4a600193603f198a8203018652604089518051835260ff858201511685840152015190606090816040820152019061347b565b9601920196019592919092611e02565b80611ead918552602060148152611e8d600260408820600581549460405195611e8287613506565b865285015201613712565b6040820152611e9c82866145ef565b52611ea781856145ef565b506145e0565b611dd3565b602090604051611ec181613506565b86815282878183015260606040830152828701015201611dc8565b50346104815780600319360112610481576020601254604051908152f35b50346104815780600319360112610481576020601554604051908152f35b503461048157806003193601126104815760405190806001805491611f3c8361361a565b80865292828116908115611fbd5750600114611f63575b6105998561063d81870382613572565b92508083527fb10e2d527612073b26eecdfd717e6a320cf44b4afac2b0732d9fcbe2b7fa0cf65b828410611fa557505050810160200161063d82610599611f53565b80546020858701810191909152909301928101611f8a565b8695506105999693506020925061063d94915060ff191682840152151560051b8201019293611f53565b50346104815760209081600319360112610481576001600160401b0360043581811161047d5761201b9036906004016135fc565b90612024613828565b815190811161046957612038600a5461361a565b601f8111612157575b5083601f82116001146120b55790808495927f905d981207a7d0b6c62cc46ab0be2a076d0298e4a86d0ab79882dbd01ac3737895916120aa575b508160011b916000199060031b1c191617600a555b6120a460405192828493845283019061347b565b0390a180f35b90508301513861207b565b600a84527fc65a7bb8d6351c1cf70c95a316cc6a92839c986682d98bc35f958f4883f9d2a890601f198316855b81811061214057509183917f905d981207a7d0b6c62cc46ab0be2a076d0298e4a86d0ab79882dbd01ac3737896979460019410612127575b5050811b01600a55612090565b85015160001960f88460031b161c19169055388061211a565b9192876001819286890151815501940192016120e2565b61219e90600a85527fc65a7bb8d6351c1cf70c95a316cc6a92839c986682d98bc35f958f4883f9d2a8601f840160051c81019187851061045f57601f0160051c0190614622565b38612041565b50346104815760203660031901126104815760206121c86121c361342c565b614f69565b6040519015158152f35b503461048157602080600319360112610c67576001600160a01b036121f561342c565b168252601881526040822091604051809384918482549182815201918452848420935b858282106122435750505061222f92500383613572565b6105996040519282849384528301906137f4565b8554845260019586019588955093019201612218565b50346104815780600319360112610481576006546040516001600160a01b039091168152602090f35b503461048157608036600319011261048157600435906024356122a36137e4565b926001600160401b03916064358381116118a6576122c59036906004016135fc565b946122ce613828565b600a8310156124ca5760ff1690600180831015806124bf575b1561247a576040516122f881613506565b82815260209560028783019286845260408101938b8552888b5260148a5260408b209151825560ff86830191511660ff1982541617905501915180519182116110f1578190612347845461361a565b601f811161244c575b508890601f83116001146123ed578a926123e2575b5050600019600383901b1c191690831b1790555b6015548410156123ce575b50946120a4917fc03e8a93a79fa8eb0097f5fbbbb816f93271b89d3ffc92753e027320b992f93e95966040519586958652850152604084015260806060840152608083019061347b565b83018084116112f2576015556120a4612384565b015190503880612365565b848b52898b208694509190601f1984168c5b8c828210612436575050841161241d575b505050811b019055612379565b015160001960f88460031b161c19169055388080612410565b83850151865589979095019493840193016123ff565b61247490858c528a8c20601f850160051c8101918c861061045f57601f0160051c0190614622565b38612350565b60405162461bcd60e51b815260206004820152601960248201527f52656c69633a20496e76616c6964206d617820726172697479000000000000006044820152606490fd5b5060058311156122e7565b60405162461bcd60e51b815260206004820152601860248201527f52656c69633a205469657220494420746f6f206c6172676500000000000000006044820152606490fd5b5034610481578060031936011261048157602060405160ff8152f35b50346104815760403660031901126104815761254561342c565b6001600160a01b031681526018602052604081208054602435929083101561048157602061257384846137b6565b90546040519160031b1c8152f35b503461048157806003193601126104815761259a613828565b6125a2613d93565b600160ff1960085416176008557f62e78cea01bee320cd4e420270b5ea74000d11b0c9f74754ebdbfc544b05a2586020604051338152a180f35b5034610481576020366003190112610481576125f661342c565b6125fe613828565b600f80546001600160a01b0319166001600160a01b039290921691821790557feda44c694e75c8161562f6179238b37a8daa291b6b2229613ed903ed92ab2d3d8280a280f35b503461048157806003193601126104815761265d613828565b600680546001600160a01b0319811690915581906001600160a01b03167f8be0079c531659141344cd1fd0a4f28419497f9722a3daafe3b4186f6b6457e08280a380f35b5034610481576020366003190112610481576001600160a01b036126c361342c565b1680156126e0578160409160209352600383522054604051908152f35b6040516322718ad960e21b815260048101839052602490fd5b503461048157806003193601126104815761059961063d613654565b503461048157806003193601126104815760405190806009546127378161361a565b80855291600191808316908115611fbd5750600114612760576105998561063d81870382613572565b92506009835260008051602061519b8339815191525b82841061279157505050810160200161063d82610599611f53565b80546020858701810191909152909301928101612776565b503461048157602080600319360112610c67576004359060018060a01b036127d681600e54163314614bbd565b6127df836139f6565b838552600b83526040852090604051916127f883613506565b549160ff8316815260ff85820193818160081c16855260101c16158015604083015261290b575191516040805160ff948516815293909116602084015285938793909283169185917f7f33b20c4df962ca720387409232fd87c13e869902a3e55f0f5fefe0a87768259190a382825260028452604082205416600281159485156128d7575b848452526040822080546001600160a01b03191690557fddf252ad1be2c89b69c2b068fc378daa952ba7f163c4a11628f55a4df523b3ef8280a46128bf575080f35b60249060405190637e27328960e01b82526004820152fd5b600085815260046020526040902080546001600160a01b03191690558284526003815260408420805460001901905561287d565b60405162461bcd60e51b815260048101869052602360248201527f52656c69633a2043616e6e6f74206275726e20756e72657665616c65642072656044820152626c696360e81b6064820152608490fd5b50346104815760203660031901126104815761297661342c565b61297e613828565b600c80546001600160a01b0319166001600160a01b03928316908117909155600d54909116907f14662a0fccd762a05d5e1fa6afdd204554c4cf90fe58b5c5947f664fb71925f58380a380f35b503461048157602080600319360112610c675760043591806129ec84613b88565b9180915090601554915b828110612a3557505050612a26612a0e608095614e97565b9160405195869560058752860152608085019061347b565b91604084015260608301520390f35b80825260148652604082205480881015612a59575b50612a54906145e0565b6129f6565b9450612a54612a4a565b5034610481578060031936011261048157600c546040516001600160a01b039091168152602090f35b5034610481576020366003190112610481576020612aab6004356139f6565b6040516001600160a01b039091168152f35b5034610481578060031936011261048157602060ff600854166040519015158152f35b50346104815760203660031901126104815760e0906040906001600160a01b03612b0861342c565b16815260176020522060ff8154916001810154906002810154600460038301549201549260405195865260208601526040850152606084015281811615156080840152818160081c1660a084015260101c16151560c0820152f35b50346104815760209081600319360112610481576001600160401b0360043581811161047d57612b979036906004016135fc565b90612ba0613828565b815190811161046957612bb460095461361a565b601f8111612cba575b5083601f8211600114612c2a5790808495927ff9c7803e94e0d3c02900d8a90893a6d5e90dd04d32a4cfe825520f82bf9f32f69591612c1f575b508160011b916000199060031b1c1916176009556120a460405192828493845283019061347b565b905083015138612bf7565b6009845260008051602061519b83398151915290601f198316855b818110612ca357509183917ff9c7803e94e0d3c02900d8a90893a6d5e90dd04d32a4cfe825520f82bf9f32f696979460019410612c8a575b5050811b01600955612090565b85015160001960f88460031b161c191690553880612c7d565b919287600181928689015181550194019201612c45565b612cef906009855260008051602061519b833981519152601f840160051c81019187851061045f57601f0160051c0190614622565b38612bbd565b5034610481578060031936011261048157600d546040516001600160a01b039091168152602090f35b5034610481578060031936011261048157600e546040516001600160a01b039091168152602090f35b503461048157611bb9612d59366134a0565b9060405192612d6784613557565b858452611bb3838383613854565b503461048157602036600319011261048157604060e091612d9461342c565b8160c08451612da2816134d5565b82815282602082015282868201528260608201528260808201528260a0820152015260018060a01b0316815260176020522060405190612de1826134d5565b60ff815492838152600183015460208201908152600284015493604083019485526004600382015491606085019283520154946080840192858716151584528560c060a0870196828a60081c168852019760101c16151587526040519788525160208801525160408701525160608601525115156080850152511660a083015251151560c0820152f35b5034610481578060031936011261048157612e84613828565b60085460ff811615612ec45760ff19166008557f5db9ee0a495bf2e6ff9c91a7834c1ba4fdd244a5e8aa4e537bd38aeae4b073aa6020604051338152a180f35b604051638dfc202b60e01b8152600490fd5b50346104815780600319360112610481576020601054604051908152f35b5034610481578060031936011261048157612f0d613db1565b612f15613d93565b612f1e33613eef565b600160075580f35b503461048157604036600319011261048157602435906001600160401b038211610481573660238301121561048157816004013591612f6483613593565b92612f726040519485613572565b808452602460208095019160051b83010191368311610c4257602401905b828210612ff457600f54849086906001600160a01b03163303612fb1575080f35b6064906040519062461bcd60e51b825280600483015260248201527f52656c69633a204f6e6c7920565246204d616e616765722063616e2063616c6c6044820152fd5b81358152908401908401612f90565b50346104815780600319360112610481576020601354604051908152f35b503461048157611bb9613033366134a0565b91613854565b5034610481578060031936011261048157613052613828565b600d546040516370a0823160e01b81523060048201526001600160a01b03918216602082602481845afa918215610b5e5784926130da575b5081613094578380f35b60065460405163a9059cbb60e01b602082015293166001600160a01b031660248401526044808401929092529082526130d3919061165a606483613572565b3880808380f35b9091506020813d8211613105575b816130f560209383613572565b81010312610c425751903861308a565b3d91506130e8565b50346104815760203660031901126104815760043561312a613828565b670de0b6b3a764000090818102918183041490151715611d6f5760125580f35b5034610481576020366003190112610481576020611bdb61316961342c565b6150a5565b503461048157602036600319011261048157613188613828565b60043560135580f35b5034610481576040366003190112610481576131ab61342c565b6024356131b7816139f6565b33151580613261575b80613236575b61321e576001600160a01b039283169282918491167f8c5be1e5ebec7d5bd14f71427d1e84f3dd0314c0f7b2291e5b200ac8c7c3b9258680a4825260046020526040822080546001600160a01b031916909117905580f35b60405163a9fbf51f60e01b8152336004820152602490fd5b506001600160a01b038116845260056020908152604080862033875290915284205460ff16156131c6565b506001600160a01b0381163314156131c0565b503461048157602036600319011261048157602090600435613295816139f6565b50815260048252604060018060a01b0391205416604051908152f35b5034610481578060031936011261048157604051908080546132d28161361a565b80855291600191808316908115611fbd57506001146132fb576105998561063d81870382613572565b80809450527f290decd9548b62a8d60345a988386fc84ba6bc95484008f6362f93160ef3e5635b82841061333d57505050810160200161063d82610599611f53565b80546020858701810191909152909301928101613322565b50346104815760203660031901126104815760043563ffffffff60e01b8116809103610c67576020906380ac58cd60e01b81149081156133b3575b81156133a2575b506040519015158152f35b6301ffc9a760e01b14905082613397565b635b5e139f60e01b81149150613390565b5034610481576020366003190112610481576133de61342c565b6133e6613828565b600e80546001600160a01b0319166001600160a01b039290921691821790557f088c5ec3908e3424c43d8102e8e1cc8eb8820a25e326b9c31cc58963046b92e98280a280f35b600435906001600160a01b0382168203610b1057565b602435906001600160a01b0382168203610b1057565b60005b83811061346b5750506000910152565b818101518382015260200161345b565b9060209161349481518092818552858086019101613458565b601f01601f1916010190565b6060906003190112610b10576001600160a01b03906004358281168103610b1057916024359081168103610b10579060443590565b60e081019081106001600160401b038211176134f057604052565b634e487b7160e01b600052604160045260246000fd5b606081019081106001600160401b038211176134f057604052565b60a081019081106001600160401b038211176134f057604052565b608081019081106001600160401b038211176134f057604052565b602081019081106001600160401b038211176134f057604052565b90601f801991011681019081106001600160401b038211176134f057604052565b6001600160401b0381116134f05760051b60200190565b6001600160401b0381116134f057601f01601f191660200190565b9291926135d1826135aa565b916135df6040519384613572565b829481845281830111610b10578281602093846000960137010152565b9080601f83011215610b1057816020613617933591016135c5565b90565b90600182811c9216801561364a575b602083101461363457565b634e487b7160e01b600052602260045260246000fd5b91607f1691613629565b60405190600082601654916136688361361a565b808352926001908181169081156136f05750600114613691575b5061368f92500383613572565b565b6016600090815291507fd833147d7dc355ba459fc788f669e58cfaf9dc25ddcd0702e87d69c7b51242895b8483106136d5575061368f935050810160200138613682565b81935090816020925483858a010152019101909185926136bc565b90506020925061368f94915060ff191682840152151560051b82010138613682565b90604051918260008254926137268461361a565b9081845260019485811690816000146137935750600114613750575b505061368f92500383613572565b9093915060005260209081600020936000915b81831061377b57505061368f93508201013880613742565b85548884018501529485019487945091830191613763565b91505061368f94506020925060ff191682840152151560051b8201013880613742565b80548210156137ce5760005260206000200190600090565b634e487b7160e01b600052603260045260246000fd5b6044359060ff82168203610b1057565b90815180825260208080930193019160005b828110613814575050505090565b835185529381019392810192600101613806565b6006546001600160a01b0316330361383c57565b60405163118cdaa760e01b8152336004820152602490fd5b6001600160a01b0391821692909183156139dd57600092828452826020956002875260409684888820541696879133151580613944575b509060027fddf252ad1be2c89b69c2b068fc378daa952ba7f163c4a11628f55a4df523b3ef9284613911575b858352600381528b8320805460010190558683525289812080546001600160a01b0319168517905580a416928383036138f05750505050565b6064945051926364283d7b60e01b8452600484015260248301526044820152fd5b600087815260046020526040902080546001600160a01b0319169055848352600381528b832080546000190190556138b7565b9193945091508061399c575b156139605785929187913861388b565b87868861397d576024915190637e27328960e01b82526004820152fd5b905163177e802f60e01b81523360048201526024810191909152604490fd5b5033871480156139c1575b806139505750858252600481523385898420541614613950565b5086825260058152878220338352815260ff88832054166139a7565b604051633250574960e11b815260006004820152602490fd5b6000818152600260205260409020546001600160a01b03169081156128bf575090565b3d15613a44573d90613a2a826135aa565b91613a386040519384613572565b82523d6000602084013e565b606090565b9293823b613a59575b5050505050565b613a9d9060018060a01b038094169560405194859481630a85bd0160e11b98898852166004870152166024850152604484015260806064840152608483019061347b565b03906020816000938185885af190829082613b1d575b5050613aeb5782613ac2613a19565b8051919082613ae457604051633250574960e11b815260048101839052602490fd5b6020915001fd5b6001600160e01b03191603613b0557503880808080613a52565b60249060405190633250574960e11b82526004820152fd5b909192506020813d8211613b5d575b81613b3960209383613572565b81010312610c675751906001600160e01b0319821682036104815750903880613ab3565b3d9150613b2c565b8015613b72576000190190565b634e487b7160e01b600052601160045260246000fd5b601554805b613bcd575050600590604051604081018181106001600160401b038211176134f057604052600b81526a14da5b99db1948135a5b9d60aa1b602082015290565b6000198101818111613c125760409060009081526014602052208054831015613c005750613bfa90613b65565b80613b8d565b92915050613617600260059301613712565b60246000634e487b7160e01b81526011600452fd5b15613c2e57565b60405162461bcd60e51b815260206004820152601760248201527f52656c69633a20496e76616c6964207175616e746974790000000000000000006044820152606490fd5b15613c7a57565b60405162461bcd60e51b815260206004820152601c60248201527f52656c69633a2050726576696f7573206d696e742070656e64696e67000000006044820152606490fd5b81810292918115918404141715613b7257565b91908201809211613b7257565b15613ce657565b60405162461bcd60e51b815260206004820152601b60248201527f52656c69633a20496e73756666696369656e74207061796d656e7400000000006044820152606490fd5b906000602091828151910182855af115613d87576000513d613d7e57506001600160a01b0381163b155b613d5c5750565b604051635274afe760e01b81526001600160a01b039091166004820152602490fd5b60011415613d55565b6040513d6000823e3d90fd5b60ff60085416613d9f57565b60405163d93c066560e01b8152600490fd5b600260075414613dc2576002600755565b604051633ee5aeb560e01b8152600490fd5b15613ddb57565b60405162461bcd60e51b815260206004820152601660248201527514995b1a58ce88139bc81c195b991a5b99c81b5a5b9d60521b6044820152606490fd5b15613e2057565b60405162461bcd60e51b815260206004820152601760248201527f52656c69633a20416c72656164792072657665616c65640000000000000000006044820152606490fd5b9190604083820312610b105782518015158103610b10579260209081810151906001600160401b038211610b1057019180601f84011215610b10578251613eab81613593565b93613eb96040519586613572565b818552838086019260051b820101928311610b10578301905b828210613ee0575050505090565b81518152908301908301613ed2565b9060018060a01b0380831660005260176020526040600020613f1381541515613dd4565b600481018054613f2660ff821615613e19565b83600f54169081614359575b505050546003810190818111613b72578143106143145761010201809111613b725743116142cf57808316600090815260176020908152604080832060048082018054600160ff199182168117909255601986528487209187529452828520805485169055600285528285208054851690556003808652838620805486169055908552828520805485169055600585529190932080549092169091558154919491908101908110613b7257409384156142ba575b613ff360018201546145ae565b9460005b60018301548110156140c057601190815491614012836145e0565b90558161401f828a6145ef565b5261407c60405161402f81613506565b600081526020810160008152610a1c60ff60408401926000845287600052600b60205281604060002095511682198654161785555116839061ff0082549160081b169061ff001916179055565b614086828661465d565b85851660005260186020526040600020918254600160401b8110156134f0576110ce816140bb9560016110e5940181556137b6565b613ff7565b50919294909360005b825181101561422c57806140e061422792856145ef565b5161418f60405188602082018981526060926bffffffffffffffffffffffff1983851b16604082015286605482015260748681830152815261412181613521565b5190208c82166000526017602052604060002060c060ff600460405193614147856134d5565b8054855260018101549788602087015260028201546040870152600382015490860152015481811615156080850152818160081c1660a085015260101c1615159101526148b0565b6000828152600b60209081526040918290208054600885901b61ff001660ff861662ffffff199092168217176201000017909155825181815291820152919291898c1691839160008051602061517b8339815191529190a36040805160ff9093168084526020840152888b16927f6887aac0938f877edd3b2e270244e90b56b78b9da03bfc5bd410f1f90728479c91819081016111ea565b6140c9565b50949391507f0908417bb2d0393a45bf6efe35cecf8dbedbab1767b8d95f650094c6ccd1d0ac9060ff6004600185015494015460081c166142766040519283928888169684614603565b0390a21660005260176020526142a8604060002060046000918281558260018201558260028201558260038201550155565b601860205261368f6040600020614639565b93506000194301438111613b72574093613fe6565b60405162461bcd60e51b815260206004820152601c60248201527f52656c69633a2052657665616c2077696e646f772065787069726564000000006044820152606490fd5b60405162461bcd60e51b815260206004820152601a60248201527f52656c69633a20546f6f206561726c7920746f2072657665616c0000000000006044820152606490fd5b600060249260405193848092635681dbe960e01b8252898c1660048301525afa918215613d8757600090600093614586575b508061457c575b15613f3257600160ff199182168117845587861660009081526019602090815260408083208484529091528082208054851690556002825280822080548516905560038252808220805485169055600482528082208054851690556005825290208054831690559384018054969795969394929390929190614413906145ae565b936000835b614460575b505050509060ff7f0908417bb2d0393a45bf6efe35cecf8dbedbab1767b8d95f650094c6ccd1d0ac9254935460081c166142766040519283928888169684614603565b8454811015614577579061456f8493928a601180549061447f826145e0565b90558061448c848c6145ef565b528b8160008051602061517b8339815191526144b68c846144ad898c6145ef565b519154916148b0565b9461450f8a8c610a1c60ff604051936144ce85613506565b818c168086526020808701918252604080880196875260008c8152600b909252902095518654915161ff0090851660081b16931691161761ff001916178355565b614519838561465d565b6040805160ff881680825260208201529490911693a36040805160ff90931680845260208401528c8e16927f6887aac0938f877edd3b2e270244e90b56b78b9da03bfc5bd410f1f90728479c91819081016111ea565b909192614418565b61441d565b5081511515614392565b90506145a69192503d806000833e61459e8183613572565b810190613e65565b91903861438b565b906145b882613593565b6145c56040519182613572565b82815280926145d6601f1991613593565b0190602036910137565b6000198114613b725760010190565b80518210156137ce5760209160051b010190565b60ff6136179493606093835216602082015281604082015201906137f4565b81811061462d575050565b60008155600101614622565b80546000825580614648575050565b61368f91600052602060002090810190614622565b604080519261466b84613557565b60008085526001600160a01b039484861694851561484a5783835260209660028852858420541684878215159283614817575b81875260038b528887208054600101905582875260028b5288872080546001600160a01b031916831790557fddf252ad1be2c89b69c2b068fc378daa952ba7f163c4a11628f55a4df523b3ef8780a46147ff573b6146ff575b505050505050565b8561473c9185969798955180938192630a85bd0160e11b97888452336004850152876024850152604484015260806064840152608483019061347b565b0381858a5af1908290826147bb575b50506147835750505061475c613a19565b805193908461477d578251633250574960e11b815260048101859052602490fd5b84925001fd5b9194506001600160e01b0319909116036147a45750503880808080806146f7565b602492505190633250574960e11b82526004820152fd5b909192508781813d83116147f8575b6147d48183613572565b81010312610c675751906001600160e01b031982168203610481575090388061474b565b503d6147ca565b84516339e3563760e11b815260048101849052602490fd5b600083815260046020526040902080546001600160a01b031916905580875260038b52888720805460001901905561469e565b8451633250574960e11b815260048101849052602490fd5b90601c548210156137ce57601c600052601f8260051c7f0e4562a10381dec21b205ed72637e6b1b523bdd0e4d4d50af5cd23dd4500a21101921690565b60ff1660ff8114613b725760010190565b90919060649006602c811015614b8157506001915b81600052601a90602090828252604092836000208451906148e58261353c565b5460ff968792838316948582526008908585831c16898401526010938686861c168b85015260189387606097861c16878201529715614a8b575b5050505050600582891614614a4c575b600482891614614a0b575b6003828916146149ca575b60028289161461498c575b5050506001600160a01b03166000908152601982528281208585168252909152208054909161498082821661489f565b169060ff191617905590565b60018060a01b038416600052601985528560002060026000528552818660002054169201511611156149c1575b388481614950565b600194506149b9565b905060018060a01b038316600052601984528460002060036000528452858560002054168686840151161115614a02575b8590614945565b600296506149fb565b905060018060a01b038316600052601984528460002060046000528452858560002054168685840151161115614a43575b859061493a565b60039650614a3c565b905060018060a01b03831660005260198452846000206005600052845285856000205416868351161115614a82575b859061492f565b60049650614a7b565b86949597509184939291826005869410600014614ae3575060016000528a528a600020958b5196614abb8861353c565b54948580938282168a521c168b8801521c16898501521c1683820152915b388080808061491f565b600a811015614b27575060056000528a528a600020958b5196614b058861353c565b54948580938282168a521c168b8801521c16898501521c168382015291614ad9565b6014811015614b495750600a6000528a528a600020958b5196614b058861353c565b60321115614b695760146000528a528a600020958b5196614b058861353c565b60326000528a528a600020958b5196614b058861353c565b604f811015614b9357506002916148c5565b605e811015614ba557506003916148c5565b60631115614bb5576004916148c5565b6005916148c5565b15614bc457565b60405162461bcd60e51b815260206004820152601e60248201527f52656c69633a2043616c6c6572206973206e6f742074686520416c74617200006044820152606490fd5b614c12816139f6565b506000908082526020600b815260ff604084205460101c1615614e8c5760095492614c3c8461361a565b15614e4e578291817a184f03e93ff9f4daa797ed6e38ed64bf6a1f0100000000000000008481811015614e40575b50506d04ee2d6d415b85acef810000000080861015614e34575b50662386f26fc1000080861015614e27575b506305f5e10080861015614e1a575b5061271080861015614e0d575b506064851015614dff575b600a80951015614df7575b60019182820195614cf1614cdb886135aa565b97614ce9604051998a613572565b8089526135aa565b95846021848a0195601f19809a013688378a0101905b614dc8575b5050506040519684889594614d208361361a565b92818116908115614da75750600114614d57575b50505050614d4a82916136179651938491613458565b0103908101835282613572565b909192979394506009825260008051602061519b8339815191525b838310614d915750505061361795614d4a918501019291953880614d34565b80548a84018a0152899650918801918101614d72565b60ff191688860152505050801515028401019150614d4a6136173880614d34565b600019019082906f181899199a1a9b1b9c1cb0b131b232b360811b8282061a835304908582614d075750614d0c565b600101614cc8565b936064600291049401614cbd565b6004919504940138614cb2565b6008919504940138614ca5565b6010919504940138614c96565b82919504940138614c84565b049450604090503880614c6a565b60405162461bcd60e51b815260048101839052601660248201527514995b1a58ce8818985cd9555492481b9bdd081cd95d60521b6044820152606490fd5b505050613617613654565b600c546001600160a01b031691908215614f24578015614f1d576020601254602460405180968193637b2e0fcf60e01b835260048301525afa928315613d8757600093614eea575b506136179192613cbf565b6020813d8211614f15575b81614f0260209383613572565b81010312610c4257519250613617614edf565b3d9150614ef5565b5060009150565b60405162461bcd60e51b815260206004820152601b60248201527f44756e67656f6e436f72652061646472657373206e6f742073657400000000006044820152606490fd5b6001600160a01b0390811660008181526017602052604080822090519192908390600490614f96856134d5565b8054855260018101546020860152600281015460408601526003810154606086015201549460ff608085019681811615158852818160081c1660a087015260101c16151560c0850152600f5416918261504d575b50505080518015159384615043575b508361502b575b508261500b57505090565b51600381019250828111611d6f5761010201809211611d5b575043111590565b90925060038101809111611d6f574310159138615000565b5115935038614ff9565b602460405180948193635681dbe960e01b835260048301525afa908115610b1c57839161508a575b5061508257388281614fea565b505050600190565b61509e91503d8085833e61459e8183613572565b5038615075565b6001600160a01b03166000908152601760205260408082209051906150c9826134d5565b6004815491828452600181015460208501526002810154604085015260038101546060850152015460ff808216151591826080860152818160081c1660a086015260101c16151560c08401528115908115615172575b5061516d5760038101809111615159574310156151555751906003820191828111611d6f57439003600301918211611d5b575090565b5090565b634e487b7160e01b83526011600452602483fd5b505090565b90503861511f56fec8a443c1907d413e7a1dca411f6c6e7a16f3aa80eed13699a22eab2af2c4c1e46e1540171b6c0c960b71a7020d9f60077f6af931a8bbf590da0223dacf75c7afa26469706673582212208f0f25a576b36731117e0135a1be2a9a3eb9f6d6a8f4b41a7882c7936d939e6d64736f6c63430008140033290decd9548b62a8d60345a988386fc84ba6bc95484008f6362f93160ef3e563b10e2d527612073b26eecdfd717e6a320cf44b4afac2b0732d9fcbe2b7fa0cf6d833147d7dc355ba459fc788f669e58cfaf9dc25ddcd0702e87d69c7b5124289",
  "linkReferences": {},
  "deployedLinkReferences": {}
}