{
  "_format": "hh-sol-artifact-1",
  "contractName": "Relic",
  "sourceName": "contracts/current/nft/Relic.sol",
  "abi": [
    {
      "inputs": [
        {
          "internalType": "address",
          "name": "initialOwner",
          "type": "address"
        }
      ],
      "stateMutability": "nonpayable",
      "type": "constructor"
    },
    {
      "inputs": [
        {
          "internalType": "address",
          "name": "sender",
          "type": "address"
        },
        {
          "internalType": "uint256",
          "name": "tokenId",
          "type": "uint256"
        },
        {
          "internalType": "address",
          "name": "owner",
          "type": "address"
        }
      ],
      "name": "ERC721IncorrectOwner",
      "type": "error"
    },
    {
      "inputs": [
        {
          "internalType": "address",
          "name": "operator",
          "type": "address"
        },
        {
          "internalType": "uint256",
          "name": "tokenId",
          "type": "uint256"
        }
      ],
      "name": "ERC721InsufficientApproval",
      "type": "error"
    },
    {
      "inputs": [
        {
          "internalType": "address",
          "name": "approver",
          "type": "address"
        }
      ],
      "name": "ERC721InvalidApprover",
      "type": "error"
    },
    {
      "inputs": [
        {
          "internalType": "address",
          "name": "operator",
          "type": "address"
        }
      ],
      "name": "ERC721InvalidOperator",
      "type": "error"
    },
    {
      "inputs": [
        {
          "internalType": "address",
          "name": "owner",
          "type": "address"
        }
      ],
      "name": "ERC721InvalidOwner",
      "type": "error"
    },
    {
      "inputs": [
        {
          "internalType": "address",
          "name": "receiver",
          "type": "address"
        }
      ],
      "name": "ERC721InvalidReceiver",
      "type": "error"
    },
    {
      "inputs": [
        {
          "internalType": "address",
          "name": "sender",
          "type": "address"
        }
      ],
      "name": "ERC721InvalidSender",
      "type": "error"
    },
    {
      "inputs": [
        {
          "internalType": "uint256",
          "name": "tokenId",
          "type": "uint256"
        }
      ],
      "name": "ERC721NonexistentToken",
      "type": "error"
    },
    {
      "inputs": [],
      "name": "EnforcedPause",
      "type": "error"
    },
    {
      "inputs": [],
      "name": "ExpectedPause",
      "type": "error"
    },
    {
      "inputs": [
        {
          "internalType": "address",
          "name": "owner",
          "type": "address"
        }
      ],
      "name": "OwnableInvalidOwner",
      "type": "error"
    },
    {
      "inputs": [
        {
          "internalType": "address",
          "name": "account",
          "type": "address"
        }
      ],
      "name": "OwnableUnauthorizedAccount",
      "type": "error"
    },
    {
      "inputs": [],
      "name": "ReentrancyGuardReentrantCall",
      "type": "error"
    },
    {
      "inputs": [
        {
          "internalType": "address",
          "name": "token",
          "type": "address"
        }
      ],
      "name": "SafeERC20FailedOperation",
      "type": "error"
    },
    {
      "anonymous": false,
      "inputs": [
        {
          "indexed": true,
          "internalType": "address",
          "name": "owner",
          "type": "address"
        },
        {
          "indexed": true,
          "internalType": "address",
          "name": "approved",
          "type": "address"
        },
        {
          "indexed": true,
          "internalType": "uint256",
          "name": "tokenId",
          "type": "uint256"
        }
      ],
      "name": "Approval",
      "type": "event"
    },
    {
      "anonymous": false,
      "inputs": [
        {
          "indexed": true,
          "internalType": "address",
          "name": "owner",
          "type": "address"
        },
        {
          "indexed": true,
          "internalType": "address",
          "name": "operator",
          "type": "address"
        },
        {
          "indexed": false,
          "internalType": "bool",
          "name": "approved",
          "type": "bool"
        }
      ],
      "name": "ApprovalForAll",
      "type": "event"
    },
    {
      "anonymous": false,
      "inputs": [
        {
          "indexed": true,
          "internalType": "address",
          "name": "newAddress",
          "type": "address"
        }
      ],
      "name": "AscensionAltarSet",
      "type": "event"
    },
    {
      "anonymous": false,
      "inputs": [
        {
          "indexed": false,
          "internalType": "string",
          "name": "newBaseURI",
          "type": "string"
        }
      ],
      "name": "BaseURISet",
      "type": "event"
    },
    {
      "anonymous": false,
      "inputs": [
        {
          "indexed": true,
          "internalType": "address",
          "name": "player",
          "type": "address"
        },
        {
          "indexed": false,
          "internalType": "uint256",
          "name": "quantity",
          "type": "uint256"
        },
        {
          "indexed": false,
          "internalType": "uint8",
          "name": "maxRarity",
          "type": "uint8"
        },
        {
          "indexed": false,
          "internalType": "uint256[]",
          "name": "tokenIds",
          "type": "uint256[]"
        }
      ],
      "name": "BatchMintCompleted",
      "type": "event"
    },
    {
      "anonymous": false,
      "inputs": [
        {
          "indexed": false,
          "internalType": "uint256",
          "name": "tierId",
          "type": "uint256"
        },
        {
          "indexed": false,
          "internalType": "uint256",
          "name": "minQuantity",
          "type": "uint256"
        },
        {
          "indexed": false,
          "internalType": "uint8",
          "name": "maxRarity",
          "type": "uint8"
        },
        {
          "indexed": false,
          "internalType": "string",
          "name": "tierName",
          "type": "string"
        }
      ],
      "name": "BatchTierSet",
      "type": "event"
    },
    {
      "anonymous": false,
      "inputs": [
        {
          "indexed": false,
          "internalType": "string",
          "name": "newContractURI",
          "type": "string"
        }
      ],
      "name": "ContractURIUpdated",
      "type": "event"
    },
    {
      "anonymous": false,
      "inputs": [
        {
          "indexed": true,
          "internalType": "address",
          "name": "core",
          "type": "address"
        },
        {
          "indexed": true,
          "internalType": "address",
          "name": "token",
          "type": "address"
        }
      ],
      "name": "ContractsSet",
      "type": "event"
    },
    {
      "anonymous": false,
      "inputs": [
        {
          "indexed": false,
          "internalType": "uint256",
          "name": "newSeed",
          "type": "uint256"
        }
      ],
      "name": "DynamicSeedUpdated",
      "type": "event"
    },
    {
      "anonymous": false,
      "inputs": [
        {
          "indexed": true,
          "internalType": "address",
          "name": "user",
          "type": "address"
        },
        {
          "indexed": true,
          "internalType": "address",
          "name": "executor",
          "type": "address"
        },
        {
          "indexed": false,
          "internalType": "uint256",
          "name": "quantity",
          "type": "uint256"
        }
      ],
      "name": "ForcedRevealExecuted",
      "type": "event"
    },
    {
      "anonymous": false,
      "inputs": [
        {
          "indexed": true,
          "internalType": "address",
          "name": "player",
          "type": "address"
        },
        {
          "indexed": false,
          "internalType": "uint256",
          "name": "quantity",
          "type": "uint256"
        },
        {
          "indexed": false,
          "internalType": "uint256",
          "name": "blockNumber",
          "type": "uint256"
        },
        {
          "indexed": false,
          "internalType": "bool",
          "name": "fromVault",
          "type": "bool"
        }
      ],
      "name": "MintCommitted",
      "type": "event"
    },
    {
      "anonymous": false,
      "inputs": [
        {
          "indexed": true,
          "internalType": "address",
          "name": "previousOwner",
          "type": "address"
        },
        {
          "indexed": true,
          "internalType": "address",
          "name": "newOwner",
          "type": "address"
        }
      ],
      "name": "OwnershipTransferred",
      "type": "event"
    },
    {
      "anonymous": false,
      "inputs": [
        {
          "indexed": false,
          "internalType": "address",
          "name": "account",
          "type": "address"
        }
      ],
      "name": "Paused",
      "type": "event"
    },
    {
      "anonymous": false,
      "inputs": [
        {
          "indexed": true,
          "internalType": "uint256",
          "name": "tokenId",
          "type": "uint256"
        },
        {
          "indexed": true,
          "internalType": "address",
          "name": "owner",
          "type": "address"
        },
        {
          "indexed": false,
          "internalType": "uint8",
          "name": "rarity",
          "type": "uint8"
        },
        {
          "indexed": false,
          "internalType": "uint8",
          "name": "capacity",
          "type": "uint8"
        }
      ],
      "name": "RelicBurned",
      "type": "event"
    },
    {
      "anonymous": false,
      "inputs": [
        {
          "indexed": true,
          "internalType": "uint256",
          "name": "tokenId",
          "type": "uint256"
        },
        {
          "indexed": true,
          "internalType": "address",
          "name": "owner",
          "type": "address"
        },
        {
          "indexed": false,
          "internalType": "uint8",
          "name": "rarity",
          "type": "uint8"
        },
        {
          "indexed": false,
          "internalType": "uint8",
          "name": "capacity",
          "type": "uint8"
        }
      ],
      "name": "RelicMinted",
      "type": "event"
    },
    {
      "anonymous": false,
      "inputs": [
        {
          "indexed": true,
          "internalType": "uint256",
          "name": "tokenId",
          "type": "uint256"
        },
        {
          "indexed": true,
          "internalType": "address",
          "name": "owner",
          "type": "address"
        },
        {
          "indexed": false,
          "internalType": "uint8",
          "name": "rarity",
          "type": "uint8"
        },
        {
          "indexed": false,
          "internalType": "uint8",
          "name": "capacity",
          "type": "uint8"
        }
      ],
      "name": "RelicRevealed",
      "type": "event"
    },
    {
      "anonymous": false,
      "inputs": [
        {
          "indexed": true,
          "internalType": "address",
          "name": "user",
          "type": "address"
        },
        {
          "indexed": true,
          "internalType": "address",
          "name": "proxy",
          "type": "address"
        }
      ],
      "name": "RevealedByProxy",
      "type": "event"
    },
    {
      "anonymous": false,
      "inputs": [
        {
          "indexed": true,
          "internalType": "address",
          "name": "from",
          "type": "address"
        },
        {
          "indexed": true,
          "internalType": "address",
          "name": "to",
          "type": "address"
        },
        {
          "indexed": true,
          "internalType": "uint256",
          "name": "tokenId",
          "type": "uint256"
        }
      ],
      "name": "Transfer",
      "type": "event"
    },
    {
      "anonymous": false,
      "inputs": [
        {
          "indexed": false,
          "internalType": "address",
          "name": "account",
          "type": "address"
        }
      ],
      "name": "Unpaused",
      "type": "event"
    },
    {
      "anonymous": false,
      "inputs": [
        {
          "indexed": true,
          "internalType": "address",
          "name": "vrfManager",
          "type": "address"
        }
      ],
      "name": "VRFManagerSet",
      "type": "event"
    },
    {
      "inputs": [],
      "name": "MAX_REVEAL_WINDOW",
      "outputs": [
        {
          "internalType": "uint256",
          "name": "",
          "type": "uint256"
        }
      ],
      "stateMutability": "view",
      "type": "function"
    },
    {
      "inputs": [],
      "name": "REVEAL_BLOCK_DELAY",
      "outputs": [
        {
          "internalType": "uint256",
          "name": "",
          "type": "uint256"
        }
      ],
      "stateMutability": "view",
      "type": "function"
    },
    {
      "inputs": [
        {
          "internalType": "address",
          "name": "to",
          "type": "address"
        },
        {
          "internalType": "uint256",
          "name": "tokenId",
          "type": "uint256"
        }
      ],
      "name": "approve",
      "outputs": [],
      "stateMutability": "nonpayable",
      "type": "function"
    },
    {
      "inputs": [],
      "name": "ascensionAltarAddress",
      "outputs": [
        {
          "internalType": "address",
          "name": "",
          "type": "address"
        }
      ],
      "stateMutability": "view",
      "type": "function"
    },
    {
      "inputs": [
        {
          "internalType": "address",
          "name": "owner",
          "type": "address"
        }
      ],
      "name": "balanceOf",
      "outputs": [
        {
          "internalType": "uint256",
          "name": "",
          "type": "uint256"
        }
      ],
      "stateMutability": "view",
      "type": "function"
    },
    {
      "inputs": [],
      "name": "baseURI",
      "outputs": [
        {
          "internalType": "string",
          "name": "",
          "type": "string"
        }
      ],
      "stateMutability": "view",
      "type": "function"
    },
    {
      "inputs": [
        {
          "internalType": "uint256",
          "name": "",
          "type": "uint256"
        }
      ],
      "name": "batchTiers",
      "outputs": [
        {
          "internalType": "uint256",
          "name": "minQuantity",
          "type": "uint256"
        },
        {
          "internalType": "uint8",
          "name": "maxRarity",
          "type": "uint8"
        },
        {
          "internalType": "string",
          "name": "tierName",
          "type": "string"
        }
      ],
      "stateMutability": "view",
      "type": "function"
    },
    {
      "inputs": [
        {
          "internalType": "uint256",
          "name": "_tokenId",
          "type": "uint256"
        }
      ],
      "name": "burnFromAltar",
      "outputs": [],
      "stateMutability": "nonpayable",
      "type": "function"
    },
    {
      "inputs": [
        {
          "internalType": "address",
          "name": "_user",
          "type": "address"
        }
      ],
      "name": "canForceReveal",
      "outputs": [
        {
          "internalType": "bool",
          "name": "",
          "type": "bool"
        }
      ],
      "stateMutability": "view",
      "type": "function"
    },
    {
      "inputs": [
        {
          "internalType": "address",
          "name": "_user",
          "type": "address"
        }
      ],
      "name": "canReveal",
      "outputs": [
        {
          "internalType": "bool",
          "name": "",
          "type": "bool"
        }
      ],
      "stateMutability": "view",
      "type": "function"
    },
    {
      "inputs": [],
      "name": "contractURI",
      "outputs": [
        {
          "internalType": "string",
          "name": "",
          "type": "string"
        }
      ],
      "stateMutability": "view",
      "type": "function"
    },
    {
      "inputs": [],
      "name": "dungeonCore",
      "outputs": [
        {
          "internalType": "contract IDungeonCore",
          "name": "",
          "type": "address"
        }
      ],
      "stateMutability": "view",
      "type": "function"
    },
    {
      "inputs": [],
      "name": "dynamicSeed",
      "outputs": [
        {
          "internalType": "uint256",
          "name": "",
          "type": "uint256"
        }
      ],
      "stateMutability": "view",
      "type": "function"
    },
    {
      "inputs": [
        {
          "internalType": "address",
          "name": "user",
          "type": "address"
        }
      ],
      "name": "forceRevealExpired",
      "outputs": [],
      "stateMutability": "nonpayable",
      "type": "function"
    },
    {
      "inputs": [],
      "name": "getAllBatchTiers",
      "outputs": [
        {
          "components": [
            {
              "internalType": "uint256",
              "name": "minQuantity",
              "type": "uint256"
            },
            {
              "internalType": "uint8",
              "name": "maxRarity",
              "type": "uint8"
            },
            {
              "internalType": "string",
              "name": "tierName",
              "type": "string"
            }
          ],
          "internalType": "struct Relic.BatchTier[]",
          "name": "",
          "type": "tuple[]"
        }
      ],
      "stateMutability": "view",
      "type": "function"
    },
    {
      "inputs": [
        {
          "internalType": "uint256",
          "name": "tokenId",
          "type": "uint256"
        }
      ],
      "name": "getApproved",
      "outputs": [
        {
          "internalType": "address",
          "name": "",
          "type": "address"
        }
      ],
      "stateMutability": "view",
      "type": "function"
    },
    {
      "inputs": [
        {
          "internalType": "uint256",
          "name": "_quantity",
          "type": "uint256"
        }
      ],
      "name": "getBatchTierInfo",
      "outputs": [
        {
          "internalType": "uint8",
          "name": "maxRarity",
          "type": "uint8"
        },
        {
          "internalType": "string",
          "name": "tierName",
          "type": "string"
        },
        {
          "internalType": "uint256",
          "name": "exactTierQuantity",
          "type": "uint256"
        },
        {
          "internalType": "uint256",
          "name": "totalCost",
          "type": "uint256"
        }
      ],
      "stateMutability": "view",
      "type": "function"
    },
    {
      "inputs": [
        {
          "internalType": "uint256",
          "name": "_quantity",
          "type": "uint256"
        }
      ],
      "name": "getMaxRarityForQuantity",
      "outputs": [
        {
          "internalType": "uint8",
          "name": "maxRarity",
          "type": "uint8"
        },
        {
          "internalType": "string",
          "name": "tierName",
          "type": "string"
        }
      ],
      "stateMutability": "view",
      "type": "function"
    },
    {
      "inputs": [
        {
          "internalType": "uint256",
          "name": "tokenId",
          "type": "uint256"
        }
      ],
      "name": "getRelicProperties",
      "outputs": [
        {
          "internalType": "uint8",
          "name": "rarity",
          "type": "uint8"
        },
        {
          "internalType": "uint8",
          "name": "capacity",
          "type": "uint8"
        }
      ],
      "stateMutability": "view",
      "type": "function"
    },
    {
      "inputs": [
        {
          "internalType": "uint256",
          "name": "_quantity",
          "type": "uint256"
        }
      ],
      "name": "getRequiredSoulShardAmount",
      "outputs": [
        {
          "internalType": "uint256",
          "name": "",
          "type": "uint256"
        }
      ],
      "stateMutability": "view",
      "type": "function"
    },
    {
      "inputs": [
        {
          "internalType": "address",
          "name": "_user",
          "type": "address"
        }
      ],
      "name": "getRevealBlocksRemaining",
      "outputs": [
        {
          "internalType": "uint256",
          "name": "",
          "type": "uint256"
        }
      ],
      "stateMutability": "view",
      "type": "function"
    },
    {
      "inputs": [
        {
          "internalType": "address",
          "name": "_user",
          "type": "address"
        }
      ],
      "name": "getUserCommitment",
      "outputs": [
        {
          "components": [
            {
              "internalType": "uint256",
              "name": "blockNumber",
              "type": "uint256"
            },
            {
              "internalType": "uint256",
              "name": "quantity",
              "type": "uint256"
            },
            {
              "internalType": "uint256",
              "name": "payment",
              "type": "uint256"
            },
            {
              "internalType": "bytes32",
              "name": "commitment",
              "type": "bytes32"
            },
            {
              "internalType": "bool",
              "name": "fulfilled",
              "type": "bool"
            },
            {
              "internalType": "uint8",
              "name": "maxRarity",
              "type": "uint8"
            },
            {
              "internalType": "bool",
              "name": "fromVault",
              "type": "bool"
            }
          ],
          "internalType": "struct Relic.MintCommitment",
          "name": "",
          "type": "tuple"
        }
      ],
      "stateMutability": "view",
      "type": "function"
    },
    {
      "inputs": [
        {
          "internalType": "address",
          "name": "_user",
          "type": "address"
        }
      ],
      "name": "getUserPendingTokens",
      "outputs": [
        {
          "internalType": "uint256[]",
          "name": "",
          "type": "uint256[]"
        }
      ],
      "stateMutability": "view",
      "type": "function"
    },
    {
      "inputs": [
        {
          "internalType": "address",
          "name": "owner",
          "type": "address"
        },
        {
          "internalType": "address",
          "name": "operator",
          "type": "address"
        }
      ],
      "name": "isApprovedForAll",
      "outputs": [
        {
          "internalType": "bool",
          "name": "",
          "type": "bool"
        }
      ],
      "stateMutability": "view",
      "type": "function"
    },
    {
      "inputs": [
        {
          "internalType": "address",
          "name": "_to",
          "type": "address"
        },
        {
          "internalType": "uint8",
          "name": "_rarity",
          "type": "uint8"
        },
        {
          "internalType": "uint8",
          "name": "_capacity",
          "type": "uint8"
        }
      ],
      "name": "mintFromAltar",
      "outputs": [
        {
          "internalType": "uint256",
          "name": "",
          "type": "uint256"
        }
      ],
      "stateMutability": "nonpayable",
      "type": "function"
    },
    {
      "inputs": [
        {
          "internalType": "uint256",
          "name": "_quantity",
          "type": "uint256"
        }
      ],
      "name": "mintFromVault",
      "outputs": [],
      "stateMutability": "payable",
      "type": "function"
    },
    {
      "inputs": [
        {
          "internalType": "uint256",
          "name": "_quantity",
          "type": "uint256"
        }
      ],
      "name": "mintFromWallet",
      "outputs": [],
      "stateMutability": "payable",
      "type": "function"
    },
    {
      "inputs": [],
      "name": "mintPriceUSD",
      "outputs": [
        {
          "internalType": "uint256",
          "name": "",
          "type": "uint256"
        }
      ],
      "stateMutability": "view",
      "type": "function"
    },
    {
      "inputs": [],
      "name": "name",
      "outputs": [
        {
          "internalType": "string",
          "name": "",
          "type": "string"
        }
      ],
      "stateMutability": "view",
      "type": "function"
    },
    {
      "inputs": [
        {
          "internalType": "uint256",
          "name": "requestId",
          "type": "uint256"
        },
        {
          "internalType": "uint256[]",
          "name": "randomWords",
          "type": "uint256[]"
        }
      ],
      "name": "onVRFFulfilled",
      "outputs": [],
      "stateMutability": "nonpayable",
      "type": "function"
    },
    {
      "inputs": [],
      "name": "owner",
      "outputs": [
        {
          "internalType": "address",
          "name": "",
          "type": "address"
        }
      ],
      "stateMutability": "view",
      "type": "function"
    },
    {
      "inputs": [
        {
          "internalType": "uint256",
          "name": "tokenId",
          "type": "uint256"
        }
      ],
      "name": "ownerOf",
      "outputs": [
        {
          "internalType": "address",
          "name": "",
          "type": "address"
        }
      ],
      "stateMutability": "view",
      "type": "function"
    },
    {
      "inputs": [],
      "name": "pause",
      "outputs": [],
      "stateMutability": "nonpayable",
      "type": "function"
    },
    {
      "inputs": [],
      "name": "paused",
      "outputs": [
        {
          "internalType": "bool",
          "name": "",
          "type": "bool"
        }
      ],
      "stateMutability": "view",
      "type": "function"
    },
    {
      "inputs": [],
      "name": "platformFee",
      "outputs": [
        {
          "internalType": "uint256",
          "name": "",
          "type": "uint256"
        }
      ],
      "stateMutability": "view",
      "type": "function"
    },
    {
      "inputs": [
        {
          "internalType": "uint256",
          "name": "",
          "type": "uint256"
        }
      ],
      "name": "relicData",
      "outputs": [
        {
          "internalType": "uint8",
          "name": "rarity",
          "type": "uint8"
        },
        {
          "internalType": "uint8",
          "name": "capacity",
          "type": "uint8"
        },
        {
          "internalType": "bool",
          "name": "isRevealed",
          "type": "bool"
        }
      ],
      "stateMutability": "view",
      "type": "function"
    },
    {
      "inputs": [],
      "name": "renounceOwnership",
      "outputs": [],
      "stateMutability": "nonpayable",
      "type": "function"
    },
    {
      "inputs": [],
      "name": "revealMint",
      "outputs": [],
      "stateMutability": "nonpayable",
      "type": "function"
    },
    {
      "inputs": [
        {
          "internalType": "address",
          "name": "user",
          "type": "address"
        }
      ],
      "name": "revealMintFor",
      "outputs": [],
      "stateMutability": "nonpayable",
      "type": "function"
    },
    {
      "inputs": [
        {
          "internalType": "address",
          "name": "from",
          "type": "address"
        },
        {
          "internalType": "address",
          "name": "to",
          "type": "address"
        },
        {
          "internalType": "uint256",
          "name": "tokenId",
          "type": "uint256"
        }
      ],
      "name": "safeTransferFrom",
      "outputs": [],
      "stateMutability": "nonpayable",
      "type": "function"
    },
    {
      "inputs": [
        {
          "internalType": "address",
          "name": "from",
          "type": "address"
        },
        {
          "internalType": "address",
          "name": "to",
          "type": "address"
        },
        {
          "internalType": "uint256",
          "name": "tokenId",
          "type": "uint256"
        },
        {
          "internalType": "bytes",
          "name": "data",
          "type": "bytes"
        }
      ],
      "name": "safeTransferFrom",
      "outputs": [],
      "stateMutability": "nonpayable",
      "type": "function"
    },
    {
      "inputs": [
        {
          "internalType": "address",
          "name": "operator",
          "type": "address"
        },
        {
          "internalType": "bool",
          "name": "approved",
          "type": "bool"
        }
      ],
      "name": "setApprovalForAll",
      "outputs": [],
      "stateMutability": "nonpayable",
      "type": "function"
    },
    {
      "inputs": [
        {
          "internalType": "address",
          "name": "_address",
          "type": "address"
        }
      ],
      "name": "setAscensionAltarAddress",
      "outputs": [],
      "stateMutability": "nonpayable",
      "type": "function"
    },
    {
      "inputs": [
        {
          "internalType": "string",
          "name": "_newBaseURI",
          "type": "string"
        }
      ],
      "name": "setBaseURI",
      "outputs": [],
      "stateMutability": "nonpayable",
      "type": "function"
    },
    {
      "inputs": [
        {
          "internalType": "uint256",
          "name": "_tierId",
          "type": "uint256"
        },
        {
          "internalType": "uint256",
          "name": "_minQuantity",
          "type": "uint256"
        },
        {
          "internalType": "uint8",
          "name": "_maxRarity",
          "type": "uint8"
        },
        {
          "internalType": "string",
          "name": "_tierName",
          "type": "string"
        }
      ],
      "name": "setBatchTier",
      "outputs": [],
      "stateMutability": "nonpayable",
      "type": "function"
    },
    {
      "inputs": [
        {
          "internalType": "string",
          "name": "newContractURI",
          "type": "string"
        }
      ],
      "name": "setContractURI",
      "outputs": [],
      "stateMutability": "nonpayable",
      "type": "function"
    },
    {
      "inputs": [
        {
          "internalType": "address",
          "name": "_address",
          "type": "address"
        }
      ],
      "name": "setDungeonCore",
      "outputs": [],
      "stateMutability": "nonpayable",
      "type": "function"
    },
    {
      "inputs": [
        {
          "internalType": "uint256",
          "name": "_newPrice",
          "type": "uint256"
        }
      ],
      "name": "setMintPriceUSD",
      "outputs": [],
      "stateMutability": "nonpayable",
      "type": "function"
    },
    {
      "inputs": [
        {
          "internalType": "uint256",
          "name": "_newFee",
          "type": "uint256"
        }
      ],
      "name": "setPlatformFee",
      "outputs": [],
      "stateMutability": "nonpayable",
      "type": "function"
    },
    {
      "inputs": [
        {
          "internalType": "address",
          "name": "_address",
          "type": "address"
        }
      ],
      "name": "setSoulShardToken",
      "outputs": [],
      "stateMutability": "nonpayable",
      "type": "function"
    },
    {
      "inputs": [
        {
          "internalType": "string",
          "name": "_newURI",
          "type": "string"
        }
      ],
      "name": "setUnrevealedURI",
      "outputs": [],
      "stateMutability": "nonpayable",
      "type": "function"
    },
    {
      "inputs": [
        {
          "internalType": "address",
          "name": "_vrfManager",
          "type": "address"
        }
      ],
      "name": "setVRFManager",
      "outputs": [],
      "stateMutability": "nonpayable",
      "type": "function"
    },
    {
      "inputs": [],
      "name": "soulShardToken",
      "outputs": [
        {
          "internalType": "contract IERC20",
          "name": "",
          "type": "address"
        }
      ],
      "stateMutability": "view",
      "type": "function"
    },
    {
      "inputs": [
        {
          "internalType": "bytes4",
          "name": "interfaceId",
          "type": "bytes4"
        }
      ],
      "name": "supportsInterface",
      "outputs": [
        {
          "internalType": "bool",
          "name": "",
          "type": "bool"
        }
      ],
      "stateMutability": "view",
      "type": "function"
    },
    {
      "inputs": [],
      "name": "symbol",
      "outputs": [
        {
          "internalType": "string",
          "name": "",
          "type": "string"
        }
      ],
      "stateMutability": "view",
      "type": "function"
    },
    {
      "inputs": [],
      "name": "tierCount",
      "outputs": [
        {
          "internalType": "uint256",
          "name": "",
          "type": "uint256"
        }
      ],
      "stateMutability": "view",
      "type": "function"
    },
    {
      "inputs": [
        {
          "internalType": "uint256",
          "name": "tokenId",
          "type": "uint256"
        }
      ],
      "name": "tokenURI",
      "outputs": [
        {
          "internalType": "string",
          "name": "",
          "type": "string"
        }
      ],
      "stateMutability": "view",
      "type": "function"
    },
    {
      "inputs": [
        {
          "internalType": "address",
          "name": "from",
          "type": "address"
        },
        {
          "internalType": "address",
          "name": "to",
          "type": "address"
        },
        {
          "internalType": "uint256",
          "name": "tokenId",
          "type": "uint256"
        }
      ],
      "name": "transferFrom",
      "outputs": [],
      "stateMutability": "nonpayable",
      "type": "function"
    },
    {
      "inputs": [
        {
          "internalType": "address",
          "name": "newOwner",
          "type": "address"
        }
      ],
      "name": "transferOwnership",
      "outputs": [],
      "stateMutability": "nonpayable",
      "type": "function"
    },
    {
      "inputs": [],
      "name": "unpause",
      "outputs": [],
      "stateMutability": "nonpayable",
      "type": "function"
    },
    {
      "inputs": [],
      "name": "unrevealedURI",
      "outputs": [
        {
          "internalType": "string",
          "name": "",
          "type": "string"
        }
      ],
      "stateMutability": "view",
      "type": "function"
    },
    {
      "inputs": [
        {
          "internalType": "address",
          "name": "",
          "type": "address"
        }
      ],
      "name": "userCommitments",
      "outputs": [
        {
          "internalType": "uint256",
          "name": "blockNumber",
          "type": "uint256"
        },
        {
          "internalType": "uint256",
          "name": "quantity",
          "type": "uint256"
        },
        {
          "internalType": "uint256",
          "name": "payment",
          "type": "uint256"
        },
        {
          "internalType": "bytes32",
          "name": "commitment",
          "type": "bytes32"
        },
        {
          "internalType": "bool",
          "name": "fulfilled",
          "type": "bool"
        },
        {
          "internalType": "uint8",
          "name": "maxRarity",
          "type": "uint8"
        },
        {
          "internalType": "bool",
          "name": "fromVault",
          "type": "bool"
        }
      ],
      "stateMutability": "view",
      "type": "function"
    },
    {
      "inputs": [
        {
          "internalType": "address",
          "name": "",
          "type": "address"
        },
        {
          "internalType": "uint256",
          "name": "",
          "type": "uint256"
        }
      ],
      "name": "userPendingTokens",
      "outputs": [
        {
          "internalType": "uint256",
          "name": "",
          "type": "uint256"
        }
      ],
      "stateMutability": "view",
      "type": "function"
    },
    {
      "inputs": [],
      "name": "vrfManager",
      "outputs": [
        {
          "internalType": "address",
          "name": "",
          "type": "address"
        }
      ],
      "stateMutability": "view",
      "type": "function"
    },
    {
      "inputs": [],
      "name": "withdrawNativeFunding",
      "outputs": [],
      "stateMutability": "nonpayable",
      "type": "function"
    },
    {
      "inputs": [],
      "name": "withdrawSoulShard",
      "outputs": [],
      "stateMutability": "nonpayable",
      "type": "function"
    },
    {
      "stateMutability": "payable",
      "type": "receive"
    }
  ],
  "bytecode": "0x6080346200108857601f620063a938819003918201601f19168301916001600160401b0383118484101762000c6e578084926020946040528339810103126200108857516001600160a01b0380821691829003620010885762000061620010ed565b91601583527f44756e67656f6e2044656c766572732052656c69630000000000000000000000602084015262000096620010ed565b600381526222222960e91b602082015283519092906001600160401b03811162000c6e57620000c76000546200110d565b601f811162001047575b50602094601f821160011462000fcf5794819293949560009262000fc3575b50508160011b916000199060031b1c1916176000555b82516001600160401b03811162000c6e57620001246001546200110d565b601f811162000f75575b506020601f821160011462000efc578192939460009262000ef0575b50508160011b916000199060031b1c1916176001555b811562000ed757600680546001600160a01b031981168417909155167f8be0079c531659141344cd1fd0a4f28419497f9722a3daafe3b4186f6b6457e0600080a36001600755671bc16d674ec80000601255660110d9316ec000601355620001ca6016546200110d565b601f811162000e88575b50609360169081556000527f68747470733a2f2f64756e67656f6e2d64656c766572732d6d6574616461746160008051602062006389833981519152557f2d7365727665722e6f6e72656e6465722e636f6d2f6170692f72656c69632f757fd833147d7dc355ba459fc788f669e58cfaf9dc25ddcd0702e87d69c7b512428a55681b9c995d99585b195960ba1b7fd833147d7dc355ba459fc788f669e58cfaf9dc25ddcd0702e87d69c7b512428b556001601155620002926200108d565b600181526020810160058152620002a8620010ed565b90600b82526a14da5b99db1948135a5b9d60aa1b60208301526040830191825260008052601460205260406000209251835560ff6001840191511660ff198254161790555180519060018060401b03821162000c6e576200031c826200031260028601546200110d565b6002860162001163565b602090601f831160011462000e1357600292916000918362000e07575b50508160011b916000199060031b1c1916179101555b620003596200108d565b6005815260208101600581526200036f620010ed565b90600b82526a42726f6e7a65205061636b60a81b6020830152604083019182526001600052601460205260406000209251835560ff6001840191511660ff198254161790555180519060018060401b03821162000c6e57620003da826200031260028601546200110d565b602090601f831160011462000d9257600292916000918362000d86575b50508160011b916000199060031b1c1916179101555b620004176200108d565b600a815260208101600581526200042d620010ed565b90600b82526a53696c766572205061636b60a81b6020830152604083019182526002600052601460205260406000209251835560ff6001840191511660ff198254161790555180519060018060401b03821162000c6e5762000498826200031260028601546200110d565b602090601f831160011462000d1157600292916000918362000d05575b50508160011b916000199060031b1c1916179101555b620004d56200108d565b601481526020810160058152620004eb620010ed565b906009825268476f6c64205061636b60b81b6020830152604083019182526003600052601460205260406000209251835560ff6001840191511660ff198254161790555180519060018060401b03821162000c6e5762000554826200031260028601546200110d565b602090601f831160011462000c9057600292916000918362000c84575b50508160011b916000199060031b1c1916179101555b620005916200108d565b6032815260056020820152620005a6620010ed565b600d81526c506c6174696e756d205061636b60981b602082015260408201526004600052601460205260408060002091805183556001830160ff60208301511660ff19825416179055015180519060018060401b03821162000c6e5762000616826200031260028601546200110d565b602090601f831160011462000bf957600292916000918362000bed575b50508160011b916000199060031b1c1916179101555b6005601555620006ef6200065c620010ad565b60018152600160208201526001604082015260ff60608201600181526001600052601a602052620006d58260408060002095828151168319885416178755620006bc83602083015116889061ff0082549160081b169061ff001916179055565b0151855462ff00001916911660101b62ff000016178455565b51825463ff0000001916911660181b63ff00000016179055565b62000772620006fd620010ad565b6001815260ff6020820160028152620006d58260408501600381526200075a826060880195600487526005600052601a60205281604060002099511682198a54161789555116879061ff0082549160081b169061ff001916179055565b51855462ff00001916911660101b62ff000016178455565b620007dd62000780620010ad565b6001815260ff6020820160038152620006d58260408501600481526200075a82606088019560078752600a600052601a60205281604060002099511682198a54161789555116879061ff0082549160081b169061ff001916179055565b62000848620007eb620010ad565b6002815260ff6020820160048152620006d58260408501600781526200075a826060880195600c87526014600052601a60205281604060002099511682198a54161789555116879061ff0082549160081b169061ff001916179055565b620008b362000856620010ad565b6002815260ff6020820160068152620006d58260408501600d81526200075a826060880195601987526032600052601a60205281604060002099511682198a54161789555116879061ff0082549160081b169061ff001916179055565b620008bd620010cd565b60018152600060208201526000604082015260006060820152600060808201526001600052601b602052608060406000209160ff81511660ff198454161783556200092060ff602083015116849061ff0082549160081b169061ff001916179055565b6040810151835462ff0000191660109190911b62ff0000161783556060810151835463ff000000191660189190911b63ff00000016178355015164ff0000000082549160201b169064ff0000000019161790556200097d620010cd565b60038152602081016002815262000a1960ff6040840160008152620009ff82606087019260008452620009e78260808a019860008a526005600052601b6020528160406000209b511682198c5416178b555116899061ff0082549160081b169061ff001916179055565b51875462ff00001916911660101b62ff000016178655565b51845463ff0000001916911660181b63ff00000016178355565b5164ff0000000082549160201b169064ff00000000191617905562000a3d620010cd565b60068152602081016003815262000aa760ff6040840160018152620009ff82606087019260008452620009e78260808a019860008a52600a600052601b6020528160406000209b511682198c5416178b555116899061ff0082549160081b169061ff001916179055565b5164ff0000000082549160201b169064ff00000000191617905562000acb620010cd565b600b8152602081016006815262000b3560ff6040840160038152620009ff82606087019260008452620009e78260808a019860008a526014600052601b6020528160406000209b511682198c5416178b555116899061ff0082549160081b169061ff001916179055565b5164ff0000000082549160201b169064ff00000000191617905562000b59620010cd565b60198152602081016010815262000bc360ff6040840160088152620009ff82606087019260018452620009e78260808a019860008a526032600052601b6020528160406000209b511682198c5416178b555116899061ff0082549160081b169061ff001916179055565b5164ff0000000082549160201b169064ff0000000019161790556040516151a59081620011a48239f35b01519050388062000633565b906002840160005260206000209160005b601f198516811062000c555750918391600193600295601f1981161062000c3b575b505050811b0191015562000649565b015160001960f88460031b161c1916905538808062000c2c565b9192602060018192868501518155019401920162000c0a565b634e487b7160e01b600052604160045260246000fd5b01519050388062000571565b906002840160005260206000209160005b601f198516811062000cec5750918391600193600295601f1981161062000cd2575b505050811b0191015562000587565b015160001960f88460031b161c1916905538808062000cc3565b9192602060018192868501518155019401920162000ca1565b015190503880620004b5565b906002840160005260206000209160005b601f198516811062000d6d5750918391600193600295601f1981161062000d53575b505050811b01910155620004cb565b015160001960f88460031b161c1916905538808062000d44565b9192602060018192868501518155019401920162000d22565b015190503880620003f7565b906002840160005260206000209160005b601f198516811062000dee5750918391600193600295601f1981161062000dd4575b505050811b019101556200040d565b015160001960f88460031b161c1916905538808062000dc5565b9192602060018192868501518155019401920162000da3565b01519050388062000339565b906002840160005260206000209160005b601f198516811062000e6f5750918391600193600295601f1981161062000e55575b505050811b019101556200034f565b015160001960f88460031b161c1916905538808062000e46565b9192602060018192868501518155019401920162000e24565b601660005262000ed090601f0160051c60008051602062006389833981519152017fd833147d7dc355ba459fc788f669e58cfaf9dc25ddcd0702e87d69c7b512428c6200114a565b38620001d4565b604051631e4fbdf760e01b815260006004820152602490fd5b0151905038806200014a565b60016000908152600080516020620063698339815191529190601f198416905b81811062000f5c5750958360019596971062000f42575b505050811b0160015562000160565b015160001960f88460031b161c1916905538808062000f33565b9192602060018192868b01518155019401920162000f1c565b600160005262000fb19060008051602062006369833981519152601f840160051c8101916020851062000fb8575b601f0160051c01906200114a565b386200012e565b909150819062000fa3565b015190503880620000f0565b6000808052601f19831696600080516020620063498339815191529290915b8881106200102e5750836001959697981062001014575b505050811b0160005562000106565b015160001960f88460031b161c1916905538808062001005565b9192602060018192868501518155019401920162000fee565b60008052620010819060008051602062006349833981519152601f840160051c8101916020851062000fb857601f0160051c01906200114a565b38620000d1565b600080fd5b60405190606082016001600160401b0381118382101762000c6e57604052565b60405190608082016001600160401b0381118382101762000c6e57604052565b6040519060a082016001600160401b0381118382101762000c6e57604052565b60408051919082016001600160401b0381118382101762000c6e57604052565b90600182811c921680156200113f575b60208310146200112957565b634e487b7160e01b600052602260045260246000fd5b91607f16916200111d565b81811062001156575050565b600081556001016200114a565b9190601f81116200117357505050565b620011a1926000526020600020906020601f840160051c8301931062000fb857601f0160051c01906200114a565b56fe6080604052600436101561001b575b361561001957600080fd5b005b6000803560e01c806268f22e146133a657806301ffc9a71461333757806306fdde0314613293578063081812fc14613256578063095ea7b31461317357806312e8e2c314613150578063166829e31461312c5780631cbb4131146130ef5780631dafec001461301b57806323b872dd1461300357806326232a2e14612fe55780632a32e8d414612f085780632ca5f30a14612ed65780633a92c0ac14612eb85780633f4ba83a14612e4d578063415d6a0114612d5757806342842e0e14612d295780634350772c14612d005780634403940214612cd757806355f804b314612b455780635b6ef03214612ac25780635c975abb14612a9f5780636352211e14612a6e57806367cfab5814612a455780636844126f146129ad5780636ab1b29b1461293e5780636aef50691461278b5780636c0360eb146126f75780637035bf18146126db57806370a0823114612683578063715018a6146126265780637a33eabc146125be5780638456cb591461256357806386da2bd71461250d5780638973bc7e146124f15780638b3fd44f146122645780638da5cb5b1461223b5780638f2fec08146121b4578063936315d614612186578063938e3d7b14611fc957806395d89b4114611efa57806396b55f7d14611edc5780639b41886c14611ebe5780639bd1613514611d6d578063a20fd5c414611c71578063a22cb46514611bc5578063b1d78c9a14611b9e578063b88d4fde14611b2f578063bfbfccb214611a72578063c1b39a3e14611a49578063c47d4357146119ce578063c820c7f1146118c5578063c87b56dd146118a5578063c886015d14611587578063cc64cb7c14610c7a578063d0fdcc091461082e578063d96fe72d14610812578063db4b8268146107a4578063de4b53bd1461074d578063e0d5e1b4146106d3578063e8a3d485146105f1578063e985e9c51461059d578063eb578bca1461055a578063f2fde38b146104ca578063f30cf6b6146104845763fe2c7fee146102fc575061000e565b346104815760209081600319360112610481576001600160401b0360043581811161047d5761032f9036906004016135de565b9261033861380a565b83519182116104695761034c6016546135fc565b601f8111610411575b5080601f831160011461039057508293829392610385575b50508160011b916000199060031b1c19161760165580f35b01519050388061036d565b60168452601f198316947fd833147d7dc355ba459fc788f669e58cfaf9dc25ddcd0702e87d69c7b5124289929185905b8782106103f95750508360019596106103e0575b505050811b0160165580f35b015160001960f88460031b161c191690553880806103d4565b806001859682949686015181550195019301906103c0565b61045990601685527fd833147d7dc355ba459fc788f669e58cfaf9dc25ddcd0702e87d69c7b5124289601f850160051c81019184861061045f575b601f0160051c01906145d7565b38610355565b909150819061044c565b634e487b7160e01b83526041600452602483fd5b8280fd5b80fd5b50346104815760203660031901126104815760406060916004358152600b602052205460ff604051918181168352818160081c16602084015260101c1615156040820152f35b5034610481576020366003190112610481576104e461340e565b6104ec61380a565b6001600160a01b0390811690811561054157600654826bffffffffffffffffffffffff60a01b821617600655167f8be0079c531659141344cd1fd0a4f28419497f9722a3daafe3b4186f6b6457e0600080a380f35b604051631e4fbdf760e01b815260048101849052602490fd5b50346104815760203660031901126104815760ff61059961057c600435613b6a565b60409291925193849316835260406020840152604083019061345d565b0390f35b5034610481576040366003190112610481576105b761340e565b60406105c1613424565b9260018060a01b0380931681526005602052209116600052602052602060ff604060002054166040519015158152f35b50346104815780600319360112610481576040516000600a54610613816135fc565b808452906001908181169081156106ac5750600114610651575b6105998461063d81860382613554565b60405191829160208352602083019061345d565b600a600090815292507fc65a7bb8d6351c1cf70c95a316cc6a92839c986682d98bc35f958f4883f9d2a85b82841061069457505050810160200161063d8261062d565b8054602085870181019190915290930192810161067c565b60ff191660208087019190915292151560051b8501909201925061063d915083905061062d565b5034610481576020366003190112610481576106ed61340e565b6106f5613d47565b6106fd613d29565b61070681613e85565b6001600160a01b031633819003610721575b50600160075580f35b33907f03b940e5594caf9c29015b39d851054d069d150d662629de6bbdc3086fc163cd8380a338610718565b50346104815760203660031901126104815760409060043581526014602052208054610599610786600260ff60018601541694016136f4565b6040519384938452602084015260606040840152606083019061345d565b5034610481576020366003190112610481576107be61340e565b6107c661380a565b600d80546001600160a01b0319166001600160a01b03928316908117909155600c549091167f14662a0fccd762a05d5e1fa6afdd204554c4cf90fe58b5c5947f664fb71925f58380a380f35b5034610481578060031936011261048157602060405160038152f35b50602080600319360112610c7657600435610847613d47565b61084f613d29565b80151580610c6b575b61086190613c09565b3383526017825261088060408420805415908115610c5c575b50613c55565b61088981613b6a565b5061089382614e4c565b906108a083601354613ca1565b600f546001600160a01b0393879290918790861680610be5575b50503410610b85579086929160048786600c5416604051928380926329bdca3760e01b82525afa8015610b7a5786918691610b40575b5016803b15610b3c5760405163d064ff1960e01b8152336004820152602481019290925284908290604490829084905af18015610b3157610b01575b506040513360601b6bffffffffffffffffffffffff19168188019081524360148201526034810187905295969586929161097381605484015b03601f198101835282613554565b51902094600f54169081610a78575b505050610a1f60ff600192610a096004610a3897604051906109a3826134b7565b4382528a8083018d815260408b60178287019434865260608801968752608088019e8f528b60a089019b168b5260c088019d8e523383525220935184555160018401555160028301555160038201550195511515869060ff801983541691151516179055565b51845461ff001916911660081b61ff0016178355565b51815462ff0000191690151560101b62ff000016179055565b6040519182524390820152600160408201527fe76693a509b276a8f091f368f5ee1fcd90a958858d61248bdb8588205bcd734560603392a2600160075580f35b60405163435639fb60e11b81523360048201526024810189905260ff8516604482015260648101879052929183916084918391905af1908115610af6578591610ac2575b80610982565b90809293503d8311610aef575b610ad98183613554565b81010312610aea5784908338610abc565b600080fd5b503d610acf565b6040513d85823e3d90fd5b9092506001600160401b038111610b1d5760405285913861092c565b634e487b7160e01b87526041600452602487fd5b6040513d86823e3d90fd5b8480fd5b809250898092503d8311610b73575b610b598183613554565b81010312610b3c57518581168103610b3c578590386108f0565b503d610b4f565b6040513d87823e3d90fd5b60405162461bcd60e51b815260048101879052603260248201527f52656c69633a20496e73756666696369656e74207061796d656e7420666f72206044820152713b30bab63a1036b4b73a1030b732102b292360711b6064820152608490fd5b6040516307ae316d60e41b8152929450829060049082905afa8015610c51578890610c1e575b610c1791508093613cb4565b86386108ba565b508681813d8311610c4a575b610c348183613554565b81010312610c4657610c179051610c0b565b8780fd5b503d610c2a565b6040513d8a823e3d90fd5b60ff915060040154163861087a565b506032811115610858565b5080fd5b503461048157602036600319011261048157610c9461340e565b610c9c613d47565b610ca4613d29565b6001600160a01b03811682526017602052604082208054610cc6811515613d6a565b610cd760ff60048401541615613daf565b600381019081811161157357610102018091116112d957431115611535576001600160a01b03821680845260176020908152604080862060048082018054600160ff1991821681179092556019808752858b20838c528752858b20805483169055878b52808752858b2060028c528752858b20805483169055878b52808752858b2060038c528752858b20805483169055878b52808752858b20938b52928652848a20805482169055958952908452828820600589529093529086208054909316909255810154601c805490869055909390806114f1575b50838552601b602052604085209360405194610dca86613503565b549460ff8616815260ff808760081c1691826020820152818860101c166040820152818860181c166060820152818860201c16608082015296161590816114e8575b506113c5575b50845b60ff60808601511660ff82161015610e6857601c54600160401b811015610b1d5790610e4a826001610e639401601c55614817565b81549060031b9060ff6005831b921b1916179055614854565b610e15565b508493845b60ff60608301511660ff82161015610ec057601c54600160401b811015610b1d5790610ea2826001610ebb9401601c55614817565b81549060031b9060ff6004831b921b1916179055614854565b610e6d565b508493845b60ff60408401511660ff82161015610f1857601c54600160401b811015610b1d5790610efa826001610f139401601c55614817565b81549060031b9060ff6003831b921b1916179055614854565b610ec5565b508493845b60ff60208501511660ff82161015610f7057601c54600160401b811015610b1d5790610f52826001610f6b9401601c55614817565b81549060031b9060ff6002831b921b1916179055614854565b610f1d565b508493845b60ff85511660ff82161015610fc857601c54600160401b811015610b1d5760ff91610fa9826001610fc19401601c55614817565b81549060031b90856001831b921b1916179055614854565b9050610f75565b50601c54859450600019908181019081116112ed57805b61130157508254600381018091116112ed5740156112ca575b506110066001830154614563565b91845b600182015481101561110057601180549061102382614595565b90558061103083876145a4565b52611083604051611040816134e8565b88815260208082018a815260408084018c8152868d52600b9093528b2092518354915161ffff1990921660ff919091161760089190911b61ff0016178255610a1f565b61108d8185614612565b6001600160a01b0384168752601860205260408720805490600160401b8210156110ec576110c9826110e09260016110e7979695018155613798565b819391549060031b91821b91600019901b19161790565b9055614595565b611009565b634e487b7160e01b89526041600452602489fd5b5092939193825b85518110156111f2578061111e6111ed92886145a4565b5160ff61112a83614817565b90549060031b1c1690808752600b602052604087208260ff1982541617815561116483829061ff0082549160081b169061ff001916179055565b805462ff00001916620100001790556040805160ff841680825260208201526001600160a01b0388169183916000805160206151308339815191529190a36040805160ff90931680845260208401526001600160a01b038716927f6887aac0938f877edd3b2e270244e90b56b78b9da03bfc5bd410f1f90728479c91819081015b0390a3614595565b611107565b50600190847f0908417bb2d0393a45bf6efe35cecf8dbedbab1767b8d95f650094c6ccd1d0ac8760ff60048685015494015460081c16611240604051928392888060a01b038a1696846145b8565b0390a2818060a01b038316845260176020526112776040852060046000918281558260018201558260028201558260038201550155565b6018602052611288604085206145ee565b015460405190815233916001600160a01b0316907fa65d0fdb45e0e0e3df56379247bc241e554ab7115be9ea5b25a37920bfbba3c290602090a3600160075580f35b43904301116112d95784610ff8565b634e487b7160e01b84526011600452602484fd5b634e487b7160e01b86526011600452602486fd5b60405160208101904282528260408201526040815261131f816134e8565b51902060018201908183116113b157811561139d576113979291611392910661137460ff61134c85614817565b90549060031b1c169161138d60ff61136383614817565b90549060031b1c1661137487614817565b90919060ff8084549260031b9316831b921b1916179055565b614817565b613b47565b80610fdf565b634e487b7160e01b88526012600452602488fd5b634e487b7160e01b88526011600452602488fd5b9093506005811015611426575060018452601b6020526040842060ff604051916113ee83613503565b548181168352818160081c166020840152818160101c166040840152818160181c16606084015260201c166080820152925b38610e12565b600a811015611482575060058452601b6020526040842060ff6040519161144c83613503565b548181168352818160081c166020840152818160101c166040840152818160181c16606084015260201c16608082015292611420565b60148110156114a85750600a8452601b6020526040842060ff6040519161144c83613503565b603211156114cc5760148452601b6020526040842060ff6040519161144c83613503565b60328452601b6020526040842060ff6040519161144c83613503565b90501538610e0c565b601f7f0e4562a10381dec21b205ed72637e6b1b523bdd0e4d4d50af5cd23dd4500a211910160051c8101905b81811061152a5750610daf565b86815560010161151d565b60405162461bcd60e51b815260206004820152601660248201527514995b1a58ce88139bdd08195e1c1a5c9959081e595d60521b6044820152606490fd5b634e487b7160e01b85526011600452602485fd5b50602080600319360112610c7657600435906115a1613d47565b6115a9613d29565b8115158061189a575b6115bb90613c09565b338352601781526115d960408420805415908115610c5c5750613c55565b6115e282613b6a565b506115ec83614e4c565b6115f884601354613ca1565b600f546001600160a01b0392879290918690851680611832575b505034106117d857829161165a86928995600d5416604051916323b872dd60e01b8684015233602484015230604484015260648301526064825261165582613503565b613cc1565b6040513360601b6bffffffffffffffffffffffff191683820190815243601482015260348101899052906116918160548401610965565b51902092600f54169081611765575b505050610a1f60ff61172694610a0960048695604051906116c0826134b7565b4382528a8083018d815260408a60178287019434865260608801968752608088019e8f528b60a089019b168b5260c088019d8e523383525220935184555160018401555160028301555160038201550195511515869060ff801983541691151516179055565b60405191825243908201528160408201527fe76693a509b276a8f091f368f5ee1fcd90a958858d61248bdb8588205bcd734560603392a2600160075580f35b60405163435639fb60e11b81523360048201526024810189905260ff8716604482015260648101859052929183916084918391905af1908115610af65785916117af575b806116a0565b813d83116117d1575b6117c28183613554565b81010312610c765783386117a9565b503d6117b8565b60405162461bcd60e51b815260048101869052602c60248201527f52656c69633a20496e73756666696369656e74207061796d656e7420666f722060448201526b36b4b73a1030b732102b292360a11b6064820152608490fd5b6040516307ae316d60e41b8152929450829060049082905afa8015610c5157889061186b575b61186491508093613cb4565b8538611612565b508581813d8311611893575b6118818183613554565b81010312610c46576118649051611858565b503d611877565b5060328211156115b2565b50346104815760203660031901126104815761059961063d600435614bbe565b5034610481576060366003190112610481576118df61340e565b6024359060ff82168083036119ca57600080516020615130833981519152602094610a1f94936119bf60ff946119876119166137c6565b9160018060a01b039561192e87600e54163314614b72565b6011549a8b998a9260405194611943866134e8565b8552818f604090870192828a168452818801966001885281526020600b90522095511682198654161785555116839061ff0082549160081b169061ff001916179055565b6119918684614612565b61199c601154614595565b60115560405193849316968390929160ff60209181604085019616845216910152565b0390a3604051908152f35b8380fd5b50346104815780600319360112610481576119e761380a565b8080808060018060a01b036006541647905af1611a026139fb565b5015611a0b5780f35b60405162461bcd60e51b815260206004820152601660248201527513985d1a5d99481dda5d1a191c985dc819985a5b195960521b6044820152606490fd5b5034610481578060031936011261048157600f546040516001600160a01b039091168152602090f35b503461048157602036600319011261048157604090600435611a93816139d8565b508152600b6020522060405190611aa9826134e8565b549060ff8216815260ff6020820192818160081c16845260101c161580156040830152611aea575190516040805160ff938416815292909116602083015290f35b60405162461bcd60e51b815260206004820152601760248201527f52656c69633a204e6f74207965742072657665616c65640000000000000000006044820152606490fd5b503461048157608036600319011261048157611b4961340e565b611b51613424565b90604435606435926001600160401b038411610b3c5736602385011215610b3c57611b89611b9b9436906024816004013591016135a7565b92611b95838383613836565b33613a2b565b80f35b5034610481576020366003190112610481576020611bbd600435614e4c565b604051908152f35b503461048157604036600319011261048157611bdf61340e565b60243590811515908183036119ca576001600160a01b0316918215611c5857611c2990338552600560205260408520848652602052604085209060ff801983541691151516179055565b6040519081527f17307eab39ab6107e8899845ad3d59bd9653f200f220920489ca2b5937696c3160203392a380f35b604051630b61174360e31b815260048101849052602490fd5b5034610481576020366003190112610481576001600160a01b03611c9361340e565b1681526017602052604081209060405190611cad826134b7565b600483549384845260018101546020850152600281015460408501526003810154606085015201549160c060ff808516159485156080850152818160081c1660a085015260101c1615159101528215159182611d65575b5081611d18575b6020826040519015158152f35b90506003820191828111611d515761010201809211611d3d5750602090431138611d0b565b634e487b7160e01b81526011600452602490fd5b634e487b7160e01b82526011600452602482fd5b915038611d04565b5034610481578060031936011261048157601554611d8a81613575565b90611d986040519283613554565b808252601f19611da782613575565b01835b818110611e94575050825b818110611e3c57505060405190602092838301848452825180915260408401948060408360051b870101940192955b828710611df15785850386f35b909192938280611e2c600193603f198a8203018652604089518051835260ff858201511685840152015190606090816040820152019061345d565b9601920196019592919092611de4565b80611e8f918552602060148152611e6f600260408820600581549460405195611e64876134e8565b8652850152016136f4565b6040820152611e7e82866145a4565b52611e8981856145a4565b50614595565b611db5565b602090604051611ea3816134e8565b86815282878183015260606040830152828701015201611daa565b50346104815780600319360112610481576020601254604051908152f35b50346104815780600319360112610481576020601554604051908152f35b503461048157806003193601126104815760405190806001805491611f1e836135fc565b80865292828116908115611f9f5750600114611f45575b6105998561063d81870382613554565b92508083527fb10e2d527612073b26eecdfd717e6a320cf44b4afac2b0732d9fcbe2b7fa0cf65b828410611f8757505050810160200161063d82610599611f35565b80546020858701810191909152909301928101611f6c565b8695506105999693506020925061063d94915060ff191682840152151560051b8201019293611f35565b50346104815760209081600319360112610481576001600160401b0360043581811161047d57611ffd9036906004016135de565b9061200661380a565b81519081116104695761201a600a546135fc565b601f8111612139575b5083601f82116001146120975790808495927f905d981207a7d0b6c62cc46ab0be2a076d0298e4a86d0ab79882dbd01ac37378959161208c575b508160011b916000199060031b1c191617600a555b61208660405192828493845283019061345d565b0390a180f35b90508301513861205d565b600a84527fc65a7bb8d6351c1cf70c95a316cc6a92839c986682d98bc35f958f4883f9d2a890601f198316855b81811061212257509183917f905d981207a7d0b6c62cc46ab0be2a076d0298e4a86d0ab79882dbd01ac3737896979460019410612109575b5050811b01600a55612072565b85015160001960f88460031b161c1916905538806120fc565b9192876001819286890151815501940192016120c4565b61218090600a85527fc65a7bb8d6351c1cf70c95a316cc6a92839c986682d98bc35f958f4883f9d2a8601f840160051c81019187851061045f57601f0160051c01906145d7565b38612023565b50346104815760203660031901126104815760206121aa6121a561340e565b614f1e565b6040519015158152f35b503461048157602080600319360112610c76576001600160a01b036121d761340e565b168252601881526040822091604051809384918482549182815201918452848420935b858282106122255750505061221192500383613554565b6105996040519282849384528301906137d6565b85548452600195860195889550930192016121fa565b50346104815780600319360112610481576006546040516001600160a01b039091168152602090f35b503461048157608036600319011261048157600435906024356122856137c6565b926001600160401b0391606435838111610b3c576122a79036906004016135de565b946122b061380a565b600a8310156124ac5760ff1690600180831015806124a1575b1561245c576040516122da816134e8565b82815260209560028783019286845260408101938b8552888b5260148a5260408b209151825560ff86830191511660ff1982541617905501915180519182116110ec57819061232984546135fc565b601f811161242e575b508890601f83116001146123cf578a926123c4575b5050600019600383901b1c191690831b1790555b6015548410156123b0575b5094612086917fc03e8a93a79fa8eb0097f5fbbbb816f93271b89d3ffc92753e027320b992f93e95966040519586958652850152604084015260806060840152608083019061345d565b83018084116112ed57601555612086612366565b015190503880612347565b848b52898b208694509190601f1984168c5b8c82821061241857505084116123ff575b505050811b01905561235b565b015160001960f88460031b161c191690553880806123f2565b83850151865589979095019493840193016123e1565b61245690858c528a8c20601f850160051c8101918c861061045f57601f0160051c01906145d7565b38612332565b60405162461bcd60e51b815260206004820152601960248201527f52656c69633a20496e76616c6964206d617820726172697479000000000000006044820152606490fd5b5060058311156122c9565b60405162461bcd60e51b815260206004820152601860248201527f52656c69633a205469657220494420746f6f206c6172676500000000000000006044820152606490fd5b5034610481578060031936011261048157602060405160ff8152f35b50346104815760403660031901126104815761252761340e565b6001600160a01b03168152601860205260408120805460243592908310156104815760206125558484613798565b90546040519160031b1c8152f35b503461048157806003193601126104815761257c61380a565b612584613d29565b600160ff1960085416176008557f62e78cea01bee320cd4e420270b5ea74000d11b0c9f74754ebdbfc544b05a2586020604051338152a180f35b5034610481576020366003190112610481576125d861340e565b6125e061380a565b600f80546001600160a01b0319166001600160a01b039290921691821790557feda44c694e75c8161562f6179238b37a8daa291b6b2229613ed903ed92ab2d3d8280a280f35b503461048157806003193601126104815761263f61380a565b600680546001600160a01b0319811690915581906001600160a01b03167f8be0079c531659141344cd1fd0a4f28419497f9722a3daafe3b4186f6b6457e08280a380f35b5034610481576020366003190112610481576001600160a01b036126a561340e565b1680156126c2578160409160209352600383522054604051908152f35b6040516322718ad960e21b815260048101839052602490fd5b503461048157806003193601126104815761059961063d613636565b50346104815780600319360112610481576040519080600954612719816135fc565b80855291600191808316908115611f9f5750600114612742576105998561063d81870382613554565b9250600983526000805160206151508339815191525b82841061277357505050810160200161063d82610599611f35565b80546020858701810191909152909301928101612758565b503461048157602080600319360112610c76576004359060018060a01b036127b881600e54163314614b72565b6127c1836139d8565b838552600b83526040852090604051916127da836134e8565b549160ff8316815260ff85820193818160081c16855260101c1615801560408301526128ed575191516040805160ff948516815293909116602084015285938793909283169185917f7f33b20c4df962ca720387409232fd87c13e869902a3e55f0f5fefe0a87768259190a382825260028452604082205416600281159485156128b9575b848452526040822080546001600160a01b03191690557fddf252ad1be2c89b69c2b068fc378daa952ba7f163c4a11628f55a4df523b3ef8280a46128a1575080f35b60249060405190637e27328960e01b82526004820152fd5b600085815260046020526040902080546001600160a01b03191690558284526003815260408420805460001901905561285f565b60405162461bcd60e51b815260048101869052602360248201527f52656c69633a2043616e6e6f74206275726e20756e72657665616c65642072656044820152626c696360e81b6064820152608490fd5b50346104815760203660031901126104815761295861340e565b61296061380a565b600c80546001600160a01b0319166001600160a01b03928316908117909155600d54909116907f14662a0fccd762a05d5e1fa6afdd204554c4cf90fe58b5c5947f664fb71925f58380a380f35b503461048157602080600319360112610c765760043591806129ce84613b6a565b9180915090601554915b828110612a1757505050612a086129f0608095614e4c565b9160405195869560058752860152608085019061345d565b91604084015260608301520390f35b80825260148652604082205480881015612a3b575b50612a3690614595565b6129d8565b9450612a36612a2c565b5034610481578060031936011261048157600c546040516001600160a01b039091168152602090f35b5034610481576020366003190112610481576020612a8d6004356139d8565b6040516001600160a01b039091168152f35b5034610481578060031936011261048157602060ff600854166040519015158152f35b50346104815760203660031901126104815760e0906040906001600160a01b03612aea61340e565b16815260176020522060ff8154916001810154906002810154600460038301549201549260405195865260208601526040850152606084015281811615156080840152818160081c1660a084015260101c16151560c0820152f35b50346104815760209081600319360112610481576001600160401b0360043581811161047d57612b799036906004016135de565b90612b8261380a565b815190811161046957612b966009546135fc565b601f8111612c9c575b5083601f8211600114612c0c5790808495927ff9c7803e94e0d3c02900d8a90893a6d5e90dd04d32a4cfe825520f82bf9f32f69591612c01575b508160011b916000199060031b1c19161760095561208660405192828493845283019061345d565b905083015138612bd9565b6009845260008051602061515083398151915290601f198316855b818110612c8557509183917ff9c7803e94e0d3c02900d8a90893a6d5e90dd04d32a4cfe825520f82bf9f32f696979460019410612c6c575b5050811b01600955612072565b85015160001960f88460031b161c191690553880612c5f565b919287600181928689015181550194019201612c27565b612cd19060098552600080516020615150833981519152601f840160051c81019187851061045f57601f0160051c01906145d7565b38612b9f565b5034610481578060031936011261048157600d546040516001600160a01b039091168152602090f35b5034610481578060031936011261048157600e546040516001600160a01b039091168152602090f35b503461048157611b9b612d3b36613482565b9060405192612d4984613539565b858452611b95838383613836565b503461048157602036600319011261048157604060e091612d7661340e565b8160c08451612d84816134b7565b82815282602082015282868201528260608201528260808201528260a0820152015260018060a01b0316815260176020522060405190612dc3826134b7565b60ff815492838152600183015460208201908152600284015493604083019485526004600382015491606085019283520154946080840192858716151584528560c060a0870196828a60081c168852019760101c16151587526040519788525160208801525160408701525160608601525115156080850152511660a083015251151560c0820152f35b5034610481578060031936011261048157612e6661380a565b60085460ff811615612ea65760ff19166008557f5db9ee0a495bf2e6ff9c91a7834c1ba4fdd244a5e8aa4e537bd38aeae4b073aa6020604051338152a180f35b604051638dfc202b60e01b8152600490fd5b50346104815780600319360112610481576020601054604051908152f35b5034610481578060031936011261048157612eef613d47565b612ef7613d29565b612f0033613e85565b600160075580f35b503461048157604036600319011261048157602435906001600160401b038211610481573660238301121561048157816004013591612f4683613575565b92612f546040519485613554565b808452602460208095019160051b830101913683116119ca57602401905b828210612fd657600f54849086906001600160a01b03163303612f93575080f35b6064906040519062461bcd60e51b825280600483015260248201527f52656c69633a204f6e6c7920565246204d616e616765722063616e2063616c6c6044820152fd5b81358152908401908401612f72565b50346104815780600319360112610481576020601354604051908152f35b503461048157611b9b61301536613482565b91613836565b503461048157806003193601126104815761303461380a565b600d546040516370a0823160e01b81523060048201526001600160a01b03918216602082602481845afa918215610b315784926130bc575b5081613076578380f35b60065460405163a9059cbb60e01b602082015293166001600160a01b031660248401526044808401929092529082526130b59190611655606483613554565b3880808380f35b9091506020813d82116130e7575b816130d760209383613554565b810103126119ca5751903861306c565b3d91506130ca565b50346104815760203660031901126104815760043561310c61380a565b670de0b6b3a764000090818102918183041490151715611d515760125580f35b5034610481576020366003190112610481576020611bbd61314b61340e565b61505a565b50346104815760203660031901126104815761316a61380a565b60043560135580f35b50346104815760403660031901126104815761318d61340e565b602435613199816139d8565b33151580613243575b80613218575b613200576001600160a01b039283169282918491167f8c5be1e5ebec7d5bd14f71427d1e84f3dd0314c0f7b2291e5b200ac8c7c3b9258680a4825260046020526040822080546001600160a01b031916909117905580f35b60405163a9fbf51f60e01b8152336004820152602490fd5b506001600160a01b038116845260056020908152604080862033875290915284205460ff16156131a8565b506001600160a01b0381163314156131a2565b503461048157602036600319011261048157602090600435613277816139d8565b50815260048252604060018060a01b0391205416604051908152f35b5034610481578060031936011261048157604051908080546132b4816135fc565b80855291600191808316908115611f9f57506001146132dd576105998561063d81870382613554565b80809450527f290decd9548b62a8d60345a988386fc84ba6bc95484008f6362f93160ef3e5635b82841061331f57505050810160200161063d82610599611f35565b80546020858701810191909152909301928101613304565b50346104815760203660031901126104815760043563ffffffff60e01b8116809103610c76576020906380ac58cd60e01b8114908115613395575b8115613384575b506040519015158152f35b6301ffc9a760e01b14905082613379565b635b5e139f60e01b81149150613372565b5034610481576020366003190112610481576133c061340e565b6133c861380a565b600e80546001600160a01b0319166001600160a01b039290921691821790557f088c5ec3908e3424c43d8102e8e1cc8eb8820a25e326b9c31cc58963046b92e98280a280f35b600435906001600160a01b0382168203610aea57565b602435906001600160a01b0382168203610aea57565b60005b83811061344d5750506000910152565b818101518382015260200161343d565b906020916134768151809281855285808601910161343a565b601f01601f1916010190565b6060906003190112610aea576001600160a01b03906004358281168103610aea57916024359081168103610aea579060443590565b60e081019081106001600160401b038211176134d257604052565b634e487b7160e01b600052604160045260246000fd5b606081019081106001600160401b038211176134d257604052565b60a081019081106001600160401b038211176134d257604052565b608081019081106001600160401b038211176134d257604052565b602081019081106001600160401b038211176134d257604052565b90601f801991011681019081106001600160401b038211176134d257604052565b6001600160401b0381116134d25760051b60200190565b6001600160401b0381116134d257601f01601f191660200190565b9291926135b38261358c565b916135c16040519384613554565b829481845281830111610aea578281602093846000960137010152565b9080601f83011215610aea578160206135f9933591016135a7565b90565b90600182811c9216801561362c575b602083101461361657565b634e487b7160e01b600052602260045260246000fd5b91607f169161360b565b604051906000826016549161364a836135fc565b808352926001908181169081156136d25750600114613673575b5061367192500383613554565b565b6016600090815291507fd833147d7dc355ba459fc788f669e58cfaf9dc25ddcd0702e87d69c7b51242895b8483106136b75750613671935050810160200138613664565b81935090816020925483858a0101520191019091859261369e565b90506020925061367194915060ff191682840152151560051b82010138613664565b9060405191826000825492613708846135fc565b9081845260019485811690816000146137755750600114613732575b505061367192500383613554565b9093915060005260209081600020936000915b81831061375d57505061367193508201013880613724565b85548884018501529485019487945091830191613745565b91505061367194506020925060ff191682840152151560051b8201013880613724565b80548210156137b05760005260206000200190600090565b634e487b7160e01b600052603260045260246000fd5b6044359060ff82168203610aea57565b90815180825260208080930193019160005b8281106137f6575050505090565b8351855293810193928101926001016137e8565b6006546001600160a01b0316330361381e57565b60405163118cdaa760e01b8152336004820152602490fd5b6001600160a01b0391821692909183156139bf57600092828452826020956002875260409684888820541696879133151580613926575b509060027fddf252ad1be2c89b69c2b068fc378daa952ba7f163c4a11628f55a4df523b3ef92846138f3575b858352600381528b8320805460010190558683525289812080546001600160a01b0319168517905580a416928383036138d25750505050565b6064945051926364283d7b60e01b8452600484015260248301526044820152fd5b600087815260046020526040902080546001600160a01b0319169055848352600381528b83208054600019019055613899565b9193945091508061397e575b156139425785929187913861386d565b87868861395f576024915190637e27328960e01b82526004820152fd5b905163177e802f60e01b81523360048201526024810191909152604490fd5b5033871480156139a3575b806139325750858252600481523385898420541614613932565b5086825260058152878220338352815260ff8883205416613989565b604051633250574960e11b815260006004820152602490fd5b6000818152600260205260409020546001600160a01b03169081156128a1575090565b3d15613a26573d90613a0c8261358c565b91613a1a6040519384613554565b82523d6000602084013e565b606090565b9293823b613a3b575b5050505050565b613a7f9060018060a01b038094169560405194859481630a85bd0160e11b98898852166004870152166024850152604484015260806064840152608483019061345d565b03906020816000938185885af190829082613aff575b5050613acd5782613aa46139fb565b8051919082613ac657604051633250574960e11b815260048101839052602490fd5b6020915001fd5b6001600160e01b03191603613ae757503880808080613a34565b60249060405190633250574960e11b82526004820152fd5b909192506020813d8211613b3f575b81613b1b60209383613554565b81010312610c765751906001600160e01b0319821682036104815750903880613a95565b3d9150613b0e565b8015613b54576000190190565b634e487b7160e01b600052601160045260246000fd5b601554805b613baf575050600590604051604081018181106001600160401b038211176134d257604052600b81526a14da5b99db1948135a5b9d60aa1b602082015290565b6000198101818111613bf45760409060009081526014602052208054831015613be25750613bdc90613b47565b80613b6f565b929150506135f96002600593016136f4565b60246000634e487b7160e01b81526011600452fd5b15613c1057565b60405162461bcd60e51b815260206004820152601760248201527f52656c69633a20496e76616c6964207175616e746974790000000000000000006044820152606490fd5b15613c5c57565b60405162461bcd60e51b815260206004820152601c60248201527f52656c69633a2050726576696f7573206d696e742070656e64696e67000000006044820152606490fd5b81810292918115918404141715613b5457565b91908201809211613b5457565b906000602091828151910182855af115613d1d576000513d613d1457506001600160a01b0381163b155b613cf25750565b604051635274afe760e01b81526001600160a01b039091166004820152602490fd5b60011415613ceb565b6040513d6000823e3d90fd5b60ff60085416613d3557565b60405163d93c066560e01b8152600490fd5b600260075414613d58576002600755565b604051633ee5aeb560e01b8152600490fd5b15613d7157565b60405162461bcd60e51b815260206004820152601660248201527514995b1a58ce88139bc81c195b991a5b99c81b5a5b9d60521b6044820152606490fd5b15613db657565b60405162461bcd60e51b815260206004820152601760248201527f52656c69633a20416c72656164792072657665616c65640000000000000000006044820152606490fd5b9190604083820312610aea5782518015158103610aea579260209081810151906001600160401b038211610aea57019180601f84011215610aea578251613e4181613575565b93613e4f6040519586613554565b818552838086019260051b820101928311610aea578301905b828210613e76575050505090565b81518152908301908301613e68565b9060018060a01b0380831660005260176020526040600020613ea981541515613d6a565b6004810154613ebb60ff821615613daf565b82600f541690816142ed575b5050546003810190818111613b54578143106142a85761010201809111613b5457431161426357808316600090815260176020908152604080832060048082018054600160ff199182168117909255601986528487209187529452828520805485169055600285528285208054851690556003808652838620805486169055908552828520805485169055600585529190932080549092169091558154919491908101908110613b54574093841561424e575b613f876001820154614563565b9460005b600183015481101561405457601190815491613fa683614595565b905581613fb3828a6145a4565b52614010604051613fc3816134e8565b600081526020810160008152610a1f60ff60408401926000845287600052600b60205281604060002095511682198654161785555116839061ff0082549160081b169061ff001916179055565b61401a8286614612565b85851660005260186020526040600020918254600160401b8110156134d2576110c98161404f9560016110e094018155613798565b613f8b565b50919294909360005b82518110156141c057806140746141bb92856145a4565b5161412360405188602082018981526060926bffffffffffffffffffffffff1983851b1660408201528660548201526074868183015281526140b581613503565b5190208c82166000526017602052604060002060c060ff6004604051936140db856134b7565b8054855260018101549788602087015260028201546040870152600382015490860152015481811615156080850152818160081c1660a085015260101c161515910152614865565b6000828152600b60209081526040918290208054600885901b61ff001660ff861662ffffff199092168217176201000017909155825181815291820152919291898c169183916000805160206151308339815191529190a36040805160ff9093168084526020840152888b16927f6887aac0938f877edd3b2e270244e90b56b78b9da03bfc5bd410f1f90728479c91819081016111e5565b61405d565b50949391507f0908417bb2d0393a45bf6efe35cecf8dbedbab1767b8d95f650094c6ccd1d0ac9060ff6004600185015494015460081c1661420a60405192839288881696846145b8565b0390a216600052601760205261423c604060002060046000918281558260018201558260028201558260038201550155565b601860205261367160406000206145ee565b93506000194301438111613b54574093613f7a565b60405162461bcd60e51b815260206004820152601c60248201527f52656c69633a2052657665616c2077696e646f772065787069726564000000006044820152606490fd5b60405162461bcd60e51b815260206004820152601a60248201527f52656c69633a20546f6f206561726c7920746f2072657665616c0000000000006044820152606490fd5b600060249260405193848092635681dbe960e01b8252888b1660048301525afa918215613d1d5760009060009361453b575b5080614531575b15613ec757600160ff199182168117600485810191909155878616600090815260196020908152604080832085845290915280822080548616905560028252808220805486169055600382528082208054861690559181528181208054851690556005815220805490921690915582015490949291906143a590614563565b9160005b60018301548110156144e7576011908154916143c483614595565b9055816143d182876145a4565b528751156137b0576144e29161441160208a01516040516020810191825283604082015260408152614402816134e8565b51902088600188015491614865565b90614470604051614421816134e8565b60ff841680825260208201908152610a1f60ff60408401926001845286600052600b60205281604060002095511682198654161785555116839061ff0082549160081b169061ff001916179055565b61447a8189614612565b6040805160ff84168082526020820152868a169183916000805160206151308339815191529190a36040805160ff9093168084526020840152888616927f6887aac0938f877edd3b2e270244e90b56b78b9da03bfc5bd410f1f90728479c91819081016111e5565b6143a9565b50939450907f0908417bb2d0393a45bf6efe35cecf8dbedbab1767b8d95f650094c6ccd1d0ac9060ff6004600185015494015460081c1661420a60405192839288881696846145b8565b5081511515614326565b905061455b9192503d806000833e6145538183613554565b810190613dfb565b91903861431f565b9061456d82613575565b61457a6040519182613554565b828152809261458b601f1991613575565b0190602036910137565b6000198114613b545760010190565b80518210156137b05760209160051b010190565b60ff6135f99493606093835216602082015281604082015201906137d6565b8181106145e2575050565b600081556001016145d7565b805460008255806145fd575050565b613671916000526020600020908101906145d7565b604080519261462084613539565b60008085526001600160a01b03948486169485156147ff57838352602096600288528584205416848782151592836147cc575b81875260038b528887208054600101905582875260028b5288872080546001600160a01b031916831790557fddf252ad1be2c89b69c2b068fc378daa952ba7f163c4a11628f55a4df523b3ef8780a46147b4573b6146b4575b505050505050565b856146f19185969798955180938192630a85bd0160e11b97888452336004850152876024850152604484015260806064840152608483019061345d565b0381858a5af190829082614770575b5050614738575050506147116139fb565b8051939084614732578251633250574960e11b815260048101859052602490fd5b84925001fd5b9194506001600160e01b0319909116036147595750503880808080806146ac565b602492505190633250574960e11b82526004820152fd5b909192508781813d83116147ad575b6147898183613554565b81010312610c765751906001600160e01b0319821682036104815750903880614700565b503d61477f565b84516339e3563760e11b815260048101849052602490fd5b600083815260046020526040902080546001600160a01b031916905580875260038b528887208054600019019055614653565b8451633250574960e11b815260048101849052602490fd5b90601c548210156137b057601c600052601f8260051c7f0e4562a10381dec21b205ed72637e6b1b523bdd0e4d4d50af5cd23dd4500a21101921690565b60ff1660ff8114613b545760010190565b90919060649006602c811015614b3657506001915b81600052601a906020908282526040928360002084519061489a8261351e565b5460ff968792838316948582526008908585831c16898401526010938686861c168b85015260189387606097861c16878201529715614a40575b5050505050600582891614614a01575b6004828916146149c0575b60038289161461497f575b600282891614614941575b5050506001600160a01b031660009081526019825282812085851682529091522080549091614935828216614854565b169060ff191617905590565b60018060a01b03841660005260198552856000206002600052855281866000205416920151161115614976575b388481614905565b6001945061496e565b905060018060a01b0383166000526019845284600020600360005284528585600020541686868401511611156149b7575b85906148fa565b600296506149b0565b905060018060a01b0383166000526019845284600020600460005284528585600020541686858401511611156149f8575b85906148ef565b600396506149f1565b905060018060a01b03831660005260198452846000206005600052845285856000205416868351161115614a37575b85906148e4565b60049650614a30565b86949597509184939291826005869410600014614a98575060016000528a528a600020958b5196614a708861351e565b54948580938282168a521c168b8801521c16898501521c1683820152915b38808080806148d4565b600a811015614adc575060056000528a528a600020958b5196614aba8861351e565b54948580938282168a521c168b8801521c16898501521c168382015291614a8e565b6014811015614afe5750600a6000528a528a600020958b5196614aba8861351e565b60321115614b1e5760146000528a528a600020958b5196614aba8861351e565b60326000528a528a600020958b5196614aba8861351e565b604f811015614b48575060029161487a565b605e811015614b5a575060039161487a565b60631115614b6a5760049161487a565b60059161487a565b15614b7957565b60405162461bcd60e51b815260206004820152601e60248201527f52656c69633a2043616c6c6572206973206e6f742074686520416c74617200006044820152606490fd5b614bc7816139d8565b506000908082526020600b815260ff604084205460101c1615614e415760095492614bf1846135fc565b15614e03578291817a184f03e93ff9f4daa797ed6e38ed64bf6a1f0100000000000000008481811015614df5575b50506d04ee2d6d415b85acef810000000080861015614de9575b50662386f26fc1000080861015614ddc575b506305f5e10080861015614dcf575b5061271080861015614dc2575b506064851015614db4575b600a80951015614dac575b60019182820195614ca6614c908861358c565b97614c9e604051998a613554565b80895261358c565b95846021848a0195601f19809a013688378a0101905b614d7d575b5050506040519684889594614cd5836135fc565b92818116908115614d5c5750600114614d0c575b50505050614cff82916135f9965193849161343a565b0103908101835282613554565b90919297939450600982526000805160206151508339815191525b838310614d46575050506135f995614cff918501019291953880614ce9565b80548a84018a0152899650918801918101614d27565b60ff191688860152505050801515028401019150614cff6135f93880614ce9565b600019019082906f181899199a1a9b1b9c1cb0b131b232b360811b8282061a835304908582614cbc5750614cc1565b600101614c7d565b936064600291049401614c72565b6004919504940138614c67565b6008919504940138614c5a565b6010919504940138614c4b565b82919504940138614c39565b049450604090503880614c1f565b60405162461bcd60e51b815260048101839052601660248201527514995b1a58ce8818985cd9555492481b9bdd081cd95d60521b6044820152606490fd5b5050506135f9613636565b600c546001600160a01b031691908215614ed9578015614ed2576020601254602460405180968193637b2e0fcf60e01b835260048301525afa928315613d1d57600093614e9f575b506135f99192613ca1565b6020813d8211614eca575b81614eb760209383613554565b810103126119ca575192506135f9614e94565b3d9150614eaa565b5060009150565b60405162461bcd60e51b815260206004820152601b60248201527f44756e67656f6e436f72652061646472657373206e6f742073657400000000006044820152606490fd5b6001600160a01b0390811660008181526017602052604080822090519192908390600490614f4b856134b7565b8054855260018101546020860152600281015460408601526003810154606086015201549460ff608085019681811615158852818160081c1660a087015260101c16151560c0850152600f54169182615002575b50505080518015159384614ff8575b5083614fe0575b5082614fc057505090565b51600381019250828111611d515761010201809211611d3d575043111590565b90925060038101809111611d51574310159138614fb5565b5115935038614fae565b602460405180948193635681dbe960e01b835260048301525afa908115610af657839161503f575b5061503757388281614f9f565b505050600190565b61505391503d8085833e6145538183613554565b503861502a565b6001600160a01b031660009081526017602052604080822090519061507e826134b7565b6004815491828452600181015460208501526002810154604085015260038101546060850152015460ff808216151591826080860152818160081c1660a086015260101c16151560c08401528115908115615127575b50615122576003810180911161510e5743101561510a5751906003820191828111611d5157439003600301918211611d3d575090565b5090565b634e487b7160e01b83526011600452602483fd5b505090565b9050386150d456fec8a443c1907d413e7a1dca411f6c6e7a16f3aa80eed13699a22eab2af2c4c1e46e1540171b6c0c960b71a7020d9f60077f6af931a8bbf590da0223dacf75c7afa26469706673582212205635bc2b3a649c3fb24bee04dfd8512f66f1bd91f2ea1094e3d5e7e49eadbca464736f6c63430008140033290decd9548b62a8d60345a988386fc84ba6bc95484008f6362f93160ef3e563b10e2d527612073b26eecdfd717e6a320cf44b4afac2b0732d9fcbe2b7fa0cf6d833147d7dc355ba459fc788f669e58cfaf9dc25ddcd0702e87d69c7b5124289",
  "linkReferences": {},
  "deployedLinkReferences": {}
}