{
  "_format": "hh-sol-artifact-1",
  "contractName": "Relic",
  "sourceName": "contracts/Relic.sol",
  "abi": [
    {
      "inputs": [
        {
          "internalType": "address",
          "name": "initialOwner",
          "type": "address"
        }
      ],
      "stateMutability": "nonpayable",
      "type": "constructor"
    },
    {
      "inputs": [
        {
          "internalType": "address",
          "name": "sender",
          "type": "address"
        },
        {
          "internalType": "uint256",
          "name": "tokenId",
          "type": "uint256"
        },
        {
          "internalType": "address",
          "name": "owner",
          "type": "address"
        }
      ],
      "name": "ERC721IncorrectOwner",
      "type": "error"
    },
    {
      "inputs": [
        {
          "internalType": "address",
          "name": "operator",
          "type": "address"
        },
        {
          "internalType": "uint256",
          "name": "tokenId",
          "type": "uint256"
        }
      ],
      "name": "ERC721InsufficientApproval",
      "type": "error"
    },
    {
      "inputs": [
        {
          "internalType": "address",
          "name": "approver",
          "type": "address"
        }
      ],
      "name": "ERC721InvalidApprover",
      "type": "error"
    },
    {
      "inputs": [
        {
          "internalType": "address",
          "name": "operator",
          "type": "address"
        }
      ],
      "name": "ERC721InvalidOperator",
      "type": "error"
    },
    {
      "inputs": [
        {
          "internalType": "address",
          "name": "owner",
          "type": "address"
        }
      ],
      "name": "ERC721InvalidOwner",
      "type": "error"
    },
    {
      "inputs": [
        {
          "internalType": "address",
          "name": "receiver",
          "type": "address"
        }
      ],
      "name": "ERC721InvalidReceiver",
      "type": "error"
    },
    {
      "inputs": [
        {
          "internalType": "address",
          "name": "sender",
          "type": "address"
        }
      ],
      "name": "ERC721InvalidSender",
      "type": "error"
    },
    {
      "inputs": [
        {
          "internalType": "uint256",
          "name": "tokenId",
          "type": "uint256"
        }
      ],
      "name": "ERC721NonexistentToken",
      "type": "error"
    },
    {
      "inputs": [],
      "name": "EnforcedPause",
      "type": "error"
    },
    {
      "inputs": [],
      "name": "ExpectedPause",
      "type": "error"
    },
    {
      "inputs": [
        {
          "internalType": "address",
          "name": "owner",
          "type": "address"
        }
      ],
      "name": "OwnableInvalidOwner",
      "type": "error"
    },
    {
      "inputs": [
        {
          "internalType": "address",
          "name": "account",
          "type": "address"
        }
      ],
      "name": "OwnableUnauthorizedAccount",
      "type": "error"
    },
    {
      "inputs": [],
      "name": "ReentrancyGuardReentrantCall",
      "type": "error"
    },
    {
      "inputs": [
        {
          "internalType": "address",
          "name": "token",
          "type": "address"
        }
      ],
      "name": "SafeERC20FailedOperation",
      "type": "error"
    },
    {
      "anonymous": false,
      "inputs": [
        {
          "indexed": true,
          "internalType": "address",
          "name": "owner",
          "type": "address"
        },
        {
          "indexed": true,
          "internalType": "address",
          "name": "approved",
          "type": "address"
        },
        {
          "indexed": true,
          "internalType": "uint256",
          "name": "tokenId",
          "type": "uint256"
        }
      ],
      "name": "Approval",
      "type": "event"
    },
    {
      "anonymous": false,
      "inputs": [
        {
          "indexed": true,
          "internalType": "address",
          "name": "owner",
          "type": "address"
        },
        {
          "indexed": true,
          "internalType": "address",
          "name": "operator",
          "type": "address"
        },
        {
          "indexed": false,
          "internalType": "bool",
          "name": "approved",
          "type": "bool"
        }
      ],
      "name": "ApprovalForAll",
      "type": "event"
    },
    {
      "anonymous": false,
      "inputs": [
        {
          "indexed": true,
          "internalType": "address",
          "name": "newAddress",
          "type": "address"
        }
      ],
      "name": "AscensionAltarSet",
      "type": "event"
    },
    {
      "anonymous": false,
      "inputs": [
        {
          "indexed": false,
          "internalType": "string",
          "name": "newBaseURI",
          "type": "string"
        }
      ],
      "name": "BaseURISet",
      "type": "event"
    },
    {
      "anonymous": false,
      "inputs": [
        {
          "indexed": false,
          "internalType": "string",
          "name": "newContractURI",
          "type": "string"
        }
      ],
      "name": "ContractURIUpdated",
      "type": "event"
    },
    {
      "anonymous": false,
      "inputs": [
        {
          "indexed": true,
          "internalType": "address",
          "name": "core",
          "type": "address"
        },
        {
          "indexed": true,
          "internalType": "address",
          "name": "token",
          "type": "address"
        }
      ],
      "name": "ContractsSet",
      "type": "event"
    },
    {
      "anonymous": false,
      "inputs": [
        {
          "indexed": false,
          "internalType": "uint256",
          "name": "newSeed",
          "type": "uint256"
        }
      ],
      "name": "DynamicSeedUpdated",
      "type": "event"
    },
    {
      "anonymous": false,
      "inputs": [
        {
          "indexed": true,
          "internalType": "address",
          "name": "previousOwner",
          "type": "address"
        },
        {
          "indexed": true,
          "internalType": "address",
          "name": "newOwner",
          "type": "address"
        }
      ],
      "name": "OwnershipTransferred",
      "type": "event"
    },
    {
      "anonymous": false,
      "inputs": [
        {
          "indexed": false,
          "internalType": "address",
          "name": "account",
          "type": "address"
        }
      ],
      "name": "Paused",
      "type": "event"
    },
    {
      "anonymous": false,
      "inputs": [
        {
          "indexed": true,
          "internalType": "uint256",
          "name": "tokenId",
          "type": "uint256"
        },
        {
          "indexed": true,
          "internalType": "address",
          "name": "owner",
          "type": "address"
        },
        {
          "indexed": false,
          "internalType": "uint8",
          "name": "rarity",
          "type": "uint8"
        },
        {
          "indexed": false,
          "internalType": "uint8",
          "name": "capacity",
          "type": "uint8"
        }
      ],
      "name": "RelicBurned",
      "type": "event"
    },
    {
      "anonymous": false,
      "inputs": [
        {
          "indexed": true,
          "internalType": "uint256",
          "name": "tokenId",
          "type": "uint256"
        },
        {
          "indexed": true,
          "internalType": "address",
          "name": "owner",
          "type": "address"
        },
        {
          "indexed": false,
          "internalType": "uint8",
          "name": "rarity",
          "type": "uint8"
        },
        {
          "indexed": false,
          "internalType": "uint8",
          "name": "capacity",
          "type": "uint8"
        }
      ],
      "name": "RelicMinted",
      "type": "event"
    },
    {
      "anonymous": false,
      "inputs": [
        {
          "indexed": true,
          "internalType": "uint256",
          "name": "tokenId",
          "type": "uint256"
        },
        {
          "indexed": true,
          "internalType": "address",
          "name": "owner",
          "type": "address"
        },
        {
          "indexed": false,
          "internalType": "uint8",
          "name": "oldRarity",
          "type": "uint8"
        },
        {
          "indexed": false,
          "internalType": "uint8",
          "name": "newRarity",
          "type": "uint8"
        },
        {
          "indexed": false,
          "internalType": "uint8",
          "name": "newCapacity",
          "type": "uint8"
        }
      ],
      "name": "RelicUpgraded",
      "type": "event"
    },
    {
      "anonymous": false,
      "inputs": [
        {
          "indexed": true,
          "internalType": "address",
          "name": "from",
          "type": "address"
        },
        {
          "indexed": true,
          "internalType": "address",
          "name": "to",
          "type": "address"
        },
        {
          "indexed": true,
          "internalType": "uint256",
          "name": "tokenId",
          "type": "uint256"
        }
      ],
      "name": "Transfer",
      "type": "event"
    },
    {
      "anonymous": false,
      "inputs": [
        {
          "indexed": false,
          "internalType": "address",
          "name": "account",
          "type": "address"
        }
      ],
      "name": "Unpaused",
      "type": "event"
    },
    {
      "inputs": [
        {
          "internalType": "address",
          "name": "to",
          "type": "address"
        },
        {
          "internalType": "uint256",
          "name": "tokenId",
          "type": "uint256"
        }
      ],
      "name": "approve",
      "outputs": [],
      "stateMutability": "nonpayable",
      "type": "function"
    },
    {
      "inputs": [],
      "name": "ascensionAltarAddress",
      "outputs": [
        {
          "internalType": "address",
          "name": "",
          "type": "address"
        }
      ],
      "stateMutability": "view",
      "type": "function"
    },
    {
      "inputs": [
        {
          "internalType": "address",
          "name": "owner",
          "type": "address"
        }
      ],
      "name": "balanceOf",
      "outputs": [
        {
          "internalType": "uint256",
          "name": "",
          "type": "uint256"
        }
      ],
      "stateMutability": "view",
      "type": "function"
    },
    {
      "inputs": [],
      "name": "baseURI",
      "outputs": [
        {
          "internalType": "string",
          "name": "",
          "type": "string"
        }
      ],
      "stateMutability": "view",
      "type": "function"
    },
    {
      "inputs": [
        {
          "internalType": "uint256",
          "name": "_tokenId",
          "type": "uint256"
        }
      ],
      "name": "burnFromAltar",
      "outputs": [],
      "stateMutability": "nonpayable",
      "type": "function"
    },
    {
      "inputs": [],
      "name": "contractURI",
      "outputs": [
        {
          "internalType": "string",
          "name": "",
          "type": "string"
        }
      ],
      "stateMutability": "view",
      "type": "function"
    },
    {
      "inputs": [],
      "name": "dungeonCore",
      "outputs": [
        {
          "internalType": "contract IDungeonCore",
          "name": "",
          "type": "address"
        }
      ],
      "stateMutability": "view",
      "type": "function"
    },
    {
      "inputs": [],
      "name": "dynamicSeed",
      "outputs": [
        {
          "internalType": "uint256",
          "name": "",
          "type": "uint256"
        }
      ],
      "stateMutability": "view",
      "type": "function"
    },
    {
      "inputs": [
        {
          "internalType": "uint256",
          "name": "tokenId",
          "type": "uint256"
        }
      ],
      "name": "getApproved",
      "outputs": [
        {
          "internalType": "address",
          "name": "",
          "type": "address"
        }
      ],
      "stateMutability": "view",
      "type": "function"
    },
    {
      "inputs": [
        {
          "internalType": "uint256",
          "name": "tokenId",
          "type": "uint256"
        }
      ],
      "name": "getRelicProperties",
      "outputs": [
        {
          "internalType": "uint8",
          "name": "rarity",
          "type": "uint8"
        },
        {
          "internalType": "uint8",
          "name": "capacity",
          "type": "uint8"
        }
      ],
      "stateMutability": "view",
      "type": "function"
    },
    {
      "inputs": [
        {
          "internalType": "uint256",
          "name": "_quantity",
          "type": "uint256"
        }
      ],
      "name": "getRequiredSoulShardAmount",
      "outputs": [
        {
          "internalType": "uint256",
          "name": "",
          "type": "uint256"
        }
      ],
      "stateMutability": "view",
      "type": "function"
    },
    {
      "inputs": [
        {
          "internalType": "address",
          "name": "owner",
          "type": "address"
        },
        {
          "internalType": "address",
          "name": "operator",
          "type": "address"
        }
      ],
      "name": "isApprovedForAll",
      "outputs": [
        {
          "internalType": "bool",
          "name": "",
          "type": "bool"
        }
      ],
      "stateMutability": "view",
      "type": "function"
    },
    {
      "inputs": [
        {
          "internalType": "address",
          "name": "_to",
          "type": "address"
        },
        {
          "internalType": "uint8",
          "name": "_rarity",
          "type": "uint8"
        },
        {
          "internalType": "uint256",
          "name": "_randomNumber",
          "type": "uint256"
        }
      ],
      "name": "mintFromAltar",
      "outputs": [
        {
          "internalType": "uint256",
          "name": "",
          "type": "uint256"
        }
      ],
      "stateMutability": "nonpayable",
      "type": "function"
    },
    {
      "inputs": [
        {
          "internalType": "uint256",
          "name": "_quantity",
          "type": "uint256"
        }
      ],
      "name": "mintFromVault",
      "outputs": [],
      "stateMutability": "payable",
      "type": "function"
    },
    {
      "inputs": [
        {
          "internalType": "uint256",
          "name": "_quantity",
          "type": "uint256"
        }
      ],
      "name": "mintFromWallet",
      "outputs": [],
      "stateMutability": "payable",
      "type": "function"
    },
    {
      "inputs": [],
      "name": "mintPriceUSD",
      "outputs": [
        {
          "internalType": "uint256",
          "name": "",
          "type": "uint256"
        }
      ],
      "stateMutability": "view",
      "type": "function"
    },
    {
      "inputs": [],
      "name": "name",
      "outputs": [
        {
          "internalType": "string",
          "name": "",
          "type": "string"
        }
      ],
      "stateMutability": "view",
      "type": "function"
    },
    {
      "inputs": [],
      "name": "owner",
      "outputs": [
        {
          "internalType": "address",
          "name": "",
          "type": "address"
        }
      ],
      "stateMutability": "view",
      "type": "function"
    },
    {
      "inputs": [
        {
          "internalType": "uint256",
          "name": "tokenId",
          "type": "uint256"
        }
      ],
      "name": "ownerOf",
      "outputs": [
        {
          "internalType": "address",
          "name": "",
          "type": "address"
        }
      ],
      "stateMutability": "view",
      "type": "function"
    },
    {
      "inputs": [],
      "name": "pause",
      "outputs": [],
      "stateMutability": "nonpayable",
      "type": "function"
    },
    {
      "inputs": [],
      "name": "paused",
      "outputs": [
        {
          "internalType": "bool",
          "name": "",
          "type": "bool"
        }
      ],
      "stateMutability": "view",
      "type": "function"
    },
    {
      "inputs": [],
      "name": "platformFee",
      "outputs": [
        {
          "internalType": "uint256",
          "name": "",
          "type": "uint256"
        }
      ],
      "stateMutability": "view",
      "type": "function"
    },
    {
      "inputs": [
        {
          "internalType": "uint256",
          "name": "",
          "type": "uint256"
        }
      ],
      "name": "relicData",
      "outputs": [
        {
          "internalType": "uint8",
          "name": "rarity",
          "type": "uint8"
        },
        {
          "internalType": "uint8",
          "name": "capacity",
          "type": "uint8"
        }
      ],
      "stateMutability": "view",
      "type": "function"
    },
    {
      "inputs": [],
      "name": "renounceOwnership",
      "outputs": [],
      "stateMutability": "nonpayable",
      "type": "function"
    },
    {
      "inputs": [
        {
          "internalType": "address",
          "name": "from",
          "type": "address"
        },
        {
          "internalType": "address",
          "name": "to",
          "type": "address"
        },
        {
          "internalType": "uint256",
          "name": "tokenId",
          "type": "uint256"
        }
      ],
      "name": "safeTransferFrom",
      "outputs": [],
      "stateMutability": "nonpayable",
      "type": "function"
    },
    {
      "inputs": [
        {
          "internalType": "address",
          "name": "from",
          "type": "address"
        },
        {
          "internalType": "address",
          "name": "to",
          "type": "address"
        },
        {
          "internalType": "uint256",
          "name": "tokenId",
          "type": "uint256"
        },
        {
          "internalType": "bytes",
          "name": "data",
          "type": "bytes"
        }
      ],
      "name": "safeTransferFrom",
      "outputs": [],
      "stateMutability": "nonpayable",
      "type": "function"
    },
    {
      "inputs": [
        {
          "internalType": "address",
          "name": "operator",
          "type": "address"
        },
        {
          "internalType": "bool",
          "name": "approved",
          "type": "bool"
        }
      ],
      "name": "setApprovalForAll",
      "outputs": [],
      "stateMutability": "nonpayable",
      "type": "function"
    },
    {
      "inputs": [
        {
          "internalType": "address",
          "name": "_address",
          "type": "address"
        }
      ],
      "name": "setAscensionAltarAddress",
      "outputs": [],
      "stateMutability": "nonpayable",
      "type": "function"
    },
    {
      "inputs": [
        {
          "internalType": "string",
          "name": "_newBaseURI",
          "type": "string"
        }
      ],
      "name": "setBaseURI",
      "outputs": [],
      "stateMutability": "nonpayable",
      "type": "function"
    },
    {
      "inputs": [
        {
          "internalType": "string",
          "name": "newContractURI",
          "type": "string"
        }
      ],
      "name": "setContractURI",
      "outputs": [],
      "stateMutability": "nonpayable",
      "type": "function"
    },
    {
      "inputs": [
        {
          "internalType": "address",
          "name": "_address",
          "type": "address"
        }
      ],
      "name": "setDungeonCore",
      "outputs": [],
      "stateMutability": "nonpayable",
      "type": "function"
    },
    {
      "inputs": [
        {
          "internalType": "uint256",
          "name": "_newPrice",
          "type": "uint256"
        }
      ],
      "name": "setMintPriceUSD",
      "outputs": [],
      "stateMutability": "nonpayable",
      "type": "function"
    },
    {
      "inputs": [
        {
          "internalType": "uint256",
          "name": "_newFee",
          "type": "uint256"
        }
      ],
      "name": "setPlatformFee",
      "outputs": [],
      "stateMutability": "nonpayable",
      "type": "function"
    },
    {
      "inputs": [
        {
          "internalType": "address",
          "name": "_address",
          "type": "address"
        }
      ],
      "name": "setSoulShardToken",
      "outputs": [],
      "stateMutability": "nonpayable",
      "type": "function"
    },
    {
      "inputs": [],
      "name": "soulShardToken",
      "outputs": [
        {
          "internalType": "contract IERC20",
          "name": "",
          "type": "address"
        }
      ],
      "stateMutability": "view",
      "type": "function"
    },
    {
      "inputs": [
        {
          "internalType": "bytes4",
          "name": "interfaceId",
          "type": "bytes4"
        }
      ],
      "name": "supportsInterface",
      "outputs": [
        {
          "internalType": "bool",
          "name": "",
          "type": "bool"
        }
      ],
      "stateMutability": "view",
      "type": "function"
    },
    {
      "inputs": [],
      "name": "symbol",
      "outputs": [
        {
          "internalType": "string",
          "name": "",
          "type": "string"
        }
      ],
      "stateMutability": "view",
      "type": "function"
    },
    {
      "inputs": [
        {
          "internalType": "uint256",
          "name": "tokenId",
          "type": "uint256"
        }
      ],
      "name": "tokenURI",
      "outputs": [
        {
          "internalType": "string",
          "name": "",
          "type": "string"
        }
      ],
      "stateMutability": "view",
      "type": "function"
    },
    {
      "inputs": [
        {
          "internalType": "address",
          "name": "from",
          "type": "address"
        },
        {
          "internalType": "address",
          "name": "to",
          "type": "address"
        },
        {
          "internalType": "uint256",
          "name": "tokenId",
          "type": "uint256"
        }
      ],
      "name": "transferFrom",
      "outputs": [],
      "stateMutability": "nonpayable",
      "type": "function"
    },
    {
      "inputs": [
        {
          "internalType": "address",
          "name": "newOwner",
          "type": "address"
        }
      ],
      "name": "transferOwnership",
      "outputs": [],
      "stateMutability": "nonpayable",
      "type": "function"
    },
    {
      "inputs": [],
      "name": "unpause",
      "outputs": [],
      "stateMutability": "nonpayable",
      "type": "function"
    },
    {
      "inputs": [],
      "name": "withdrawNativeFunding",
      "outputs": [],
      "stateMutability": "nonpayable",
      "type": "function"
    },
    {
      "inputs": [],
      "name": "withdrawSoulShard",
      "outputs": [],
      "stateMutability": "nonpayable",
      "type": "function"
    },
    {
      "stateMutability": "payable",
      "type": "receive"
    }
  ],
  "bytecode": "0x6080346200042e576001600160401b0390601f90601f199062002aa83881900384810184168301929190868411838510176200041857808392604095865283396020928391810103126200042e57516001600160a01b039390848116908190036200042e57835191620000728362000433565b601583527f44756e67656f6e2044656c766572732052656c6963000000000000000000000084840152845196620000a98862000433565b600388526222222960e91b8589015283519789891162000418576000988954956001968781811c911680156200040d575b89821014620003f957908185849311620003a6575b50889085831160011462000345578c9262000339575b5050600019600383901b1c191690861b1789555b8051928a8411620003255785548681811c911680156200031a575b8882101462000306579081848695949311620002af575b50879284116001146200024e5750899262000242575b5050600019600383901b1c191690831b1782555b80156200022a57600680546001600160a01b031981168317909155845195167f8be0079c531659141344cd1fd0a4f28419497f9722a3daafe3b4186f6b6457e08780a380600755671bc16d674ec80000601155660110d9316ec0006012556010558201924284523360601b8284015246605484015260548352608083019483861090861117620002165750839052519020600f556126589081620004508239f35b634e487b7160e01b81526041600452602490fd5b8351631e4fbdf760e01b815260048101879052602490fd5b01519050388062000161565b868b52878b20879590939291168b5b898282106200029857505084116200027e575b505050811b01825562000175565b015160001960f88460031b161c1916905538808062000270565b83850151865589979095019493840193016200025d565b9091929350868b52878b208480870160051c8201928a8810620002fc575b9187968a92969594930160051c01915b828110620002ed5750506200014b565b8d8155879650899101620002dd565b92508192620002cd565b634e487b7160e01b8b52602260045260248bfd5b90607f169062000134565b634e487b7160e01b8a52604160045260248afd5b01519050388062000105565b908c91878a95168380528b8420935b8c8282106200038f575050841162000375575b505050811b01895562000119565b015160001960f88460031b161c1916905538808062000367565b8385015186558c9790950194938401930162000354565b9091508b8052888c208580850160051c8201928b8610620003ef575b918a91869594930160051c01915b828110620003e0575050620000ef565b8e81558594508a9101620003d0565b92508192620003c2565b634e487b7160e01b8c52602260045260248cfd5b90607f1690620000da565b634e487b7160e01b600052604160045260246000fd5b600080fd5b604081019081106001600160401b03821117620004185760405256fe60406080815260049081361015610020575b5050361561001e57600080fd5b005b600091823560e01c80622144f61461198357806268f22e1461191b57806301ffc9a7146118ae57806306fdde0314611806578063081812fc146117cb578063095ea7b3146116ef57806312e8e2c3146116cd5780631cbb41311461167b578381631dafec00146115575750806323b872dd1461153f57806326232a2e146115205780633a92c0ac146115015780633f4ba83a1461149857806342842e0e146114695780634350772c14611440578063440394021461141757806355f804b3146112805780635c975abb1461125c5780636352211e1461122b57806367cfab58146112025780636ab1b29b146111935780636aef50691461104a5780636c0360eb14610fb257806370a0823114610f5d578063715018a614610f005780638456cb5914610ea55780638da5cb5b14610e7c578063938e3d7b14610cbb57806395d89b4114610bea5780639b41886c14610bcb578063a22cb46514610b2e578063b1d78c9a14610b07578063b88d4fde14610a94578063bfbfccb214610a2e578063c47d4357146109b3578063c87b56dd14610711578063c886015d14610600578063d0fdcc0914610487578063db4b826814610419578063e8a3d48514610330578063e985e9c5146102dc578063f2fde38b1461024c5763f30cf6b6146102065750610011565b3461024857602036600319011261024857358252600b60209081529181902054905160ff808316825260089290921c90911691810191909152604090f35b0390f35b8280fd5b503461024857602036600319011261024857610266611a89565b9061026f611c73565b6001600160a01b039182169283156102c6575050600654826bffffffffffffffffffffffff60a01b821617600655167f8be0079c531659141344cd1fd0a4f28419497f9722a3daafe3b4186f6b6457e0600080a380f35b51631e4fbdf760e01b8152908101849052602490fd5b50503461032c578060031936011261032c576020916102f9611a89565b82610302611aa4565b9260018060a01b03809316815260058652209116600052825260ff81600020541690519015158152f35b5080fd5b828434610416578060031936011261041657508051600091600a5461035481611c39565b808452906001908181169081156103ee5750600114610391575b505061037f82610244940383611b85565b51918291602083526020830190611add565b600a600090815294507fc65a7bb8d6351c1cf70c95a316cc6a92839c986682d98bc35f958f4883f9d2a85b8286106103d6575050509181016020019161037f8261036e565b805460208787018101919091529095019481016103bc565b6102449650859250602091509261037f9360ff191682840152151560051b820101945061036e565b80fd5b833461041657602036600319011261041657610433611a89565b61043b611c73565b600d80546001600160a01b0319166001600160a01b03928316908117909155600c549091167f14662a0fccd762a05d5e1fa6afdd204554c4cf90fe58b5c5947f664fb71925f58380a380f35b50916020366003190112610416578235916104a06120ad565b6104a861208f565b6104bf6104b784601254611fc8565b341015611ff1565b6104ca831515612034565b6104d383612524565b600c548251632d45772760e01b81529195916001600160a01b039160209082908590829086165afa9081156105f65785916105b8575b501694853b156105b457825163d064ff1960e01b81523383820190815260208101929092529495939493859185919082908490829060400103925af180156105aa5761057e575b50505090815b8181106105665782600160075580f35b8061057461057992336120d0565b612080565b610556565b67ffffffffffffffff8311610597575052388080610550565b634e487b7160e01b845260419052602483fd5b82513d86823e3d90fd5b8380fd5b90506020813d82116105ee575b816105d260209383611b85565b810103126105ea575181811681036105ea5738610509565b8480fd5b3d91506105c5565b84513d87823e3d90fd5b506020366003190112610248578035916106186120ad565b61062061208f565b61062f6104b784601254611fc8565b61063a831515612034565b61064383612524565b9060018060a01b03600d541691815160208101916323b872dd60e01b835233602483015230604483015260648201526064815260a0810181811067ffffffffffffffff8211176106fe5783525160209187919082865af1156106f55784513d6106ec5750813b155b6106d757505050815b8181106106c45782600160075580f35b806105746106d292336120d0565b6106b4565b51635274afe760e01b81529182015260249150fd5b600114156106ab565b513d85823e3d90fd5b634e487b7160e01b885260418652602488fd5b5091903461032c57602091826003193601126104165783359061073382611e41565b506009549461074186611c39565b1561097757829082907a184f03e93ff9f4daa797ed6e38ed64bf6a1f010000000000000000838181101561096a575b5050866d04ee2d6d415b85acef81000000008085101561095b575b5050662386f26fc100008084101561094c575b506305f5e1008084101561093d575b5061271080841015610931575b50506064821015610923575b600a8092101561091b575b600191828201906107f96107e483611ba7565b926107f189519485611b85565b808452611ba7565b958460218a850195601f19809a01368837850101905b6108ec575b5050508551978489959461082783611c39565b928a82821691826000146108c5575050600114610877575b505050918061085b610868959361024498979551938491611aba565b0103908101865285611b85565b51928284938452830190611add565b8993949550600982526000805160206126038339815191525b8383106108ab5750505084010191908061085b61024461083f565b80549783018501979097528a968a94909201918101610890565b60ff1916898201528415159094028801909301955083925061085b9150610244905061083f565b600019019082906f181899199a1a9b1b9c1cb0b131b232b360811b8282061a83530490858261080f5750610814565b6001016107d1565b9060646002910491016107c6565b909204910138806107ba565b600891929304920190386107ad565b6010919293049201903861079e565b9091929304920190863861078b565b0492508591503880610770565b835162461bcd60e51b8152908101859052601660248201527514995b1a58ce8818985cd9555492481b9bdd081cd95d60521b6044820152606490fd5b5090346102485782600319360112610248576109cd611c73565b8280808060018060a01b036006541647905af16109e8611e7c565b50156109f2578280f35b906020606492519162461bcd60e51b8352820152601660248201527513985d1a5d99481dda5d1a191c985dc819985a5b195960521b6044820152fd5b503461024857602036600319011261024857816020936102449235610a5281611e41565b508152600b85522091805192610a6784611b37565b5460ff80821680865260089290921c16949093018490525191825260208201929092529081906040820190565b83823461032c57608036600319011261032c57610aaf611a89565b610ab7611aa4565b6044359060643567ffffffffffffffff8111610b035736602382011215610b0357610b0094816024610aee93369301359101611bc3565b92610afa838383611c9f565b33611eac565b80f35b8580fd5b5091346104165760203660031901126104165750610b2760209235612524565b9051908152f35b509034610248578060031936011261024857610b48611a89565b90602435918215158093036105ea576001600160a01b0316928315610bb65750338452600560205280842083855260205280842060ff1981541660ff8416179055519081527f17307eab39ab6107e8899845ad3d59bd9653f200f220920489ca2b5937696c3160203392a380f35b836024925191630b61174360e31b8352820152fd5b50503461032c578160031936011261032c576020906011549051908152f35b50503461032c578160031936011261032c57805190826001805491610c0e83611c39565b80865292828116908115610c935750600114610c37575b50505061037f82610244940383611b85565b94508085527fb10e2d527612073b26eecdfd717e6a320cf44b4afac2b0732d9fcbe2b7fa0cf65b828610610c7b5750505061037f8260206102449582010194610c25565b80546020878701810191909152909501948101610c5e565b61024497508693506020925061037f94915060ff191682840152151560051b82010194610c25565b5091903461032c57610ccc36611bfa565b90610cd5611c73565b81519367ffffffffffffffff85116105975750610cf3600a54611c39565b601f8111610e19575b50602093601f8111600114610d73579081610d62939285967f905d981207a7d0b6c62cc46ab0be2a076d0298e4a86d0ab79882dbd01ac373789691610d68575b508160011b916000199060031b1c191617600a5551918291602083526020830190611add565b0390a180f35b905083015138610d3c565b600a84527fc65a7bb8d6351c1cf70c95a316cc6a92839c986682d98bc35f958f4883f9d2a8601f198216855b818110610e015750916001917f905d981207a7d0b6c62cc46ab0be2a076d0298e4a86d0ab79882dbd01ac37378969782610d6297969510610de8575b5050811b01600a5561037f565b85015160001960f88460031b161c191690553880610ddb565b85880151835560209788019760019093019201610d9f565b600a84527fc65a7bb8d6351c1cf70c95a316cc6a92839c986682d98bc35f958f4883f9d2a8601f860160051c81019160208710610e72575b601f0160051c01905b818110610e675750610cfc565b848155600101610e5a565b9091508190610e51565b50503461032c578160031936011261032c5760065490516001600160a01b039091168152602090f35b50503461032c578160031936011261032c5760207f62e78cea01bee320cd4e420270b5ea74000d11b0c9f74754ebdbfc544b05a25891610ee3611c73565b610eeb61208f565b600160ff19600854161760085551338152a180f35b8334610416578060031936011261041657610f19611c73565b600680546001600160a01b0319811690915581906001600160a01b03167f8be0079c531659141344cd1fd0a4f28419497f9722a3daafe3b4186f6b6457e08280a380f35b509134610416576020366003190112610416576001600160a01b03610f80611a89565b16928315610f9d5750806020938392526003845220549051908152f35b91516322718ad960e21b815291820152602490fd5b50503461032c578160031936011261032c5780519082600954610fd481611c39565b80855291600191808316908115610c935750600114610fff5750505061037f82610244940383611b85565b9450600985526000805160206126038339815191525b8286106110325750505061037f8260206102449582010194610c25565b80546020878701810191909152909501948101611015565b50903461024857602090816003193601126105b457823591828560018060a01b0361107a81600e541633146124d8565b61108383611e41565b838352600b8552837f7f33b20c4df962ca720387409232fd87c13e869902a3e55f0f5fefe0a877682583888620936110ef898b51966110c188611b37565b5460ff808216808a5260089290921c16919097018190528b5196875260208701529116939081906040820190565b0390a382825260028452848220541660028115948515611160575b8484525284822080546001600160a01b03191690557fddf252ad1be2c89b69c2b068fc378daa952ba7f163c4a11628f55a4df523b3ef8280a461114b578380f35b51637e27328960e01b81529182015260249150fd5b600085815260046020526040902080546001600160a01b031916905582845260038152868420805460001901905561110a565b8334610416576020366003190112610416576111ad611a89565b6111b5611c73565b600c80546001600160a01b0319166001600160a01b03928316908117909155600d54909116907f14662a0fccd762a05d5e1fa6afdd204554c4cf90fe58b5c5947f664fb71925f58380a380f35b50503461032c578160031936011261032c57600c5490516001600160a01b039091168152602090f35b509134610416576020366003190112610416575061124b60209235611e41565b90516001600160a01b039091168152f35b50503461032c578160031936011261032c5760209060ff6008541690519015158152f35b5091903461032c5761129136611bfa565b9061129a611c73565b81519367ffffffffffffffff851161059757506112b8600954611c39565b601f81116113c6575b50602093601f8111600114611332579081610d62939285967ff9c7803e94e0d3c02900d8a90893a6d5e90dd04d32a4cfe825520f82bf9f32f69691611327575b508160011b916000199060031b1c19161760095551918291602083526020830190611add565b905083015138611301565b60098452600080516020612603833981519152601f198216855b8181106113ae5750916001917ff9c7803e94e0d3c02900d8a90893a6d5e90dd04d32a4cfe825520f82bf9f32f6969782610d6297969510611395575b5050811b0160095561037f565b85015160001960f88460031b161c191690553880611388565b8588015183556020978801976001909301920161134c565b60098452600080516020612603833981519152601f860160051c8101916020871061140d575b601f0160051c01905b81811061140257506112c1565b8481556001016113f5565b90915081906113ec565b50503461032c578160031936011261032c57600d5490516001600160a01b039091168152602090f35b50503461032c578160031936011261032c57600e5490516001600160a01b039091168152602090f35b50503461032c57610b009061147d36611b02565b9192519261148a84611b69565b858452610afa838383611c9f565b50346102485782600319360112610248576114b1611c73565b6008549060ff8216156114f3575060ff1916600855513381527f5db9ee0a495bf2e6ff9c91a7834c1ba4fdd244a5e8aa4e537bd38aeae4b073aa90602090a180f35b8251638dfc202b60e01b8152fd5b50503461032c578160031936011261032c57602090600f549051908152f35b50503461032c578160031936011261032c576020906012549051908152f35b833461041657610b0061155136611b02565b91611c9f565b92905034611677578260031936011261167757611572611c73565b600d5481516370a0823160e01b815230848201526020936001600160a01b03928316908583602481855afa92831561166d57879361163a575b50826115b5578680f35b600654855163a9059cbb60e01b815294166001600160a01b0316908401908152602081019290925291948492869290918391829060400103925af19081156106f55750611607575b8080808086958680f35b81813d8311611633575b61161b8183611b85565b8101031261032c5751801515036104165738806115fd565b503d611611565b9092508581813d8311611666575b6116528183611b85565b81010312611662575191386115ab565b8680fd5b503d611648565b85513d89823e3d90fd5b5050fd5b83823461032c57602036600319011261032c57803590611699611c73565b670de0b6b3a7640000918281029281840414901517156116ba575060115580f35b634e487b7160e01b835260119052602482fd5b83823461032c57602036600319011261032c576116e8611c73565b3560125580f35b509034610248578060031936011261024857611709611a89565b9160243561171681611e41565b331515806117b8575b8061178f575b611779576001600160a01b039485169482918691167f8c5be1e5ebec7d5bd14f71427d1e84f3dd0314c0f7b2291e5b200ac8c7c3b9258880a48452602052822080546001600160a01b031916909117905580f35b835163a9fbf51f60e01b81523381850152602490fd5b506001600160a01b03811686526005602090815284872033885290528386205460ff1615611725565b506001600160a01b03811633141561171f565b5034610248576020366003190112610248579182602093356117ec81611e41565b50825283528190205490516001600160a01b039091168152f35b50503461032c578160031936011261032c5780519082805461182781611c39565b80855291600191808316908115610c9357506001146118525750505061037f82610244940383611b85565b80809650527f290decd9548b62a8d60345a988386fc84ba6bc95484008f6362f93160ef3e5635b8286106118965750505061037f8260206102449582010194610c25565b80546020878701810191909152909501948101611879565b503461024857602036600319011261024857359063ffffffff60e01b821680920361024857602092506380ac58cd60e01b821491821561190a575b82156118f9575b50519015158152f35b6301ffc9a760e01b149150386118f0565b635b5e139f60e01b811492506118e9565b833461041657602036600319011261041657611935611a89565b61193d611c73565b600e80546001600160a01b0319166001600160a01b039290921691821790557f088c5ec3908e3424c43d8102e8e1cc8eb8820a25e326b9c31cc58963046b92e98280a280f35b5082346104165760603660031901126104165761199e611a89565b6024359160ff831690818403610416576119c360018060a01b03600e541633146124d8565b5015611a375781925b60ff841660018110159081611a2b575b50156119f057602085610b2786868661223c565b606490602086519162461bcd60e51b8352820152601560248201527452656c69633a20496e76616c69642072617269747960581b6044820152fd5b600591501115866119dc565b606460443506602c811015611a4f57506001926119cc565b604f811015611a6157506002926119cc565b605e811015611a7357506003926119cc565b60631115611a8157826119cc565b6005926119cc565b600435906001600160a01b0382168203611a9f57565b600080fd5b602435906001600160a01b0382168203611a9f57565b60005b838110611acd5750506000910152565b8181015183820152602001611abd565b90602091611af681518092818552858086019101611aba565b601f01601f1916010190565b6060906003190112611a9f576001600160a01b03906004358281168103611a9f57916024359081168103611a9f579060443590565b6040810190811067ffffffffffffffff821117611b5357604052565b634e487b7160e01b600052604160045260246000fd5b6020810190811067ffffffffffffffff821117611b5357604052565b90601f8019910116810190811067ffffffffffffffff821117611b5357604052565b67ffffffffffffffff8111611b5357601f01601f191660200190565b929192611bcf82611ba7565b91611bdd6040519384611b85565b829481845281830111611a9f578281602093846000960137010152565b6020600319820112611a9f576004359067ffffffffffffffff8211611a9f5780602383011215611a9f57816024611c3693600401359101611bc3565b90565b90600182811c92168015611c69575b6020831014611c5357565b634e487b7160e01b600052602260045260246000fd5b91607f1691611c48565b6006546001600160a01b03163303611c8757565b60405163118cdaa760e01b8152336004820152602490fd5b6001600160a01b039182169290918315611e2857600092828452826020956002875260409684888820541696879133151580611d8f575b509060027fddf252ad1be2c89b69c2b068fc378daa952ba7f163c4a11628f55a4df523b3ef9284611d5c575b858352600381528b8320805460010190558683525289812080546001600160a01b0319168517905580a41692838303611d3b5750505050565b6064945051926364283d7b60e01b8452600484015260248301526044820152fd5b600087815260046020526040902080546001600160a01b0319169055848352600381528b83208054600019019055611d02565b91939450915080611de7575b15611dab57859291879138611cd6565b878688611dc8576024915190637e27328960e01b82526004820152fd5b905163177e802f60e01b81523360048201526024810191909152604490fd5b503387148015611e0c575b80611d9b5750858252600481523385898420541614611d9b565b5086825260058152878220338352815260ff8883205416611df2565b604051633250574960e11b815260006004820152602490fd5b6000818152600260205260409020546001600160a01b0316908115611e64575090565b60249060405190637e27328960e01b82526004820152fd5b3d15611ea7573d90611e8d82611ba7565b91611e9b6040519384611b85565b82523d6000602084013e565b606090565b9293823b611ebc575b5050505050565b611f009060018060a01b038094169560405194859481630a85bd0160e11b988988521660048701521660248501526044840152608060648401526084830190611add565b03906020816000938185885af190829082611f80575b5050611f4e5782611f25611e7c565b8051919082611f4757604051633250574960e11b815260048101839052602490fd5b9050602001fd5b6001600160e01b03191603611f6857503880808080611eb5565b60249060405190633250574960e11b82526004820152fd5b909192506020813d8211611fc0575b81611f9c60209383611b85565b8101031261032c5751906001600160e01b0319821682036104165750903880611f16565b3d9150611f8f565b81810292918115918404141715611fdb57565b634e487b7160e01b600052601160045260246000fd5b15611ff857565b60405162461bcd60e51b8152602060048201526014602482015273141b185d199bdc9b48199959481b9bdd081b595d60621b6044820152606490fd5b1561203b57565b60405162461bcd60e51b815260206004820152601b60248201527f52656c69633a205175616e74697479206d757374206265203e203000000000006044820152606490fd5b6000198114611fdb5760010190565b60ff6008541661209b57565b60405163d93c066560e01b8152600490fd5b6002600754146120be576002600755565b604051633ee5aeb560e01b8152600490fd5b600f5460105491604092835190602082019584875244868401524260608401523360601b6080840152609483015260b482015260b4815260e081019367ffffffffffffffff9582861087871117611b5357858252825190209160648306602c81101561220057506001955b60ff8716916001831015806121f5575b156121b85750508151926020840195865282840152606083015260608252608082019582871090871117611b53578585947f6b2ef7fbf20c7dc4747c84307cfd2178ccc921ab1e016cfa964f640ba898ee99936121b5986020945251902080600f558152a161223c565b50565b62461bcd60e51b8252602060e482015260156101048201527452656c69633a20496e76616c69642072617269747960581b61012490910152606490fd5b50600583111561214b565b604f811015612212575060029561213b565b605e811015612224575060039561213b565b606311156122345760049561213b565b60059561213b565b9091601054926040805161224f81611b37565b60ff831681526020908181019060ff86168252600091888352600b845260ff85842092511661ff008354925160081b169161ffff19161717905582519061229582611b69565b8082526001600160a01b03878116979088156124c0578983526002855285832054168989821515928361248d575b81865260038852888620805460010190558286526002885288862080546001600160a01b031916831790557fddf252ad1be2c89b69c2b068fc378daa952ba7f163c4a11628f55a4df523b3ef8680a4612475573b612375575b505050917fc8a443c1907d413e7a1dca411f6c6e7a16f3aa80eed13699a22eab2af2c4c1e49161236f8694612352601054612080565b6010555160ff928316815292909116602083015281906040820190565b0390a390565b8396979492989593518981806123b3630a85bd0160e11b968783523360048401528660248401528a6044840152608060648401526084830190611add565b0381858d5af190829082612431575b50506123f9578888886123d3611e7c565b805193846123f3578251633250574960e11b815260048101859052602490fd5b84925001fd5b90919396959294975063ffffffff60e01b160361241a578161236f8661231c565b51633250574960e11b815260048101849052602490fd5b909192508a81813d831161246e575b61244a8183611b85565b8101031261032c5751906001600160e01b03198216820361041657509038806123c2565b503d612440565b84516339e3563760e11b815260048101839052602490fd5b600083815260046020526040902080546001600160a01b03191690558086526003885288862080546000190190556122c3565b8551633250574960e11b815260048101849052602490fd5b156124df57565b60405162461bcd60e51b815260206004820152601e60248201527f52656c69633a2043616c6c6572206973206e6f742074686520416c74617200006044820152606490fd5b600c546001600160a01b0316919082156125bd5780156125b6576020601154602460405180968193637b2e0fcf60e01b835260048301525afa9283156125aa57600093612577575b50611c369192611fc8565b6020813d82116125a2575b8161258f60209383611b85565b810103126105b457519250611c3661256c565b3d9150612582565b6040513d6000823e3d90fd5b5060009150565b60405162461bcd60e51b815260206004820152601b60248201527f44756e67656f6e436f72652061646472657373206e6f742073657400000000006044820152606490fdfe6e1540171b6c0c960b71a7020d9f60077f6af931a8bbf590da0223dacf75c7afa2646970667358221220a8b42624adb6728eda81d33c5d6649226029764aaeac77acb5110e831ee9f01564736f6c63430008140033",
  "linkReferences": {},
  "deployedLinkReferences": {}
}