{
  "_format": "hh-sol-artifact-1",
  "contractName": "VIPStaking",
  "sourceName": "contracts/VIPStaking.sol",
  "abi": [
    {
      "inputs": [
        {
          "internalType": "address",
          "name": "initialOwner",
          "type": "address"
        }
      ],
      "stateMutability": "nonpayable",
      "type": "constructor"
    },
    {
      "inputs": [
        {
          "internalType": "address",
          "name": "sender",
          "type": "address"
        },
        {
          "internalType": "uint256",
          "name": "tokenId",
          "type": "uint256"
        },
        {
          "internalType": "address",
          "name": "owner",
          "type": "address"
        }
      ],
      "name": "ERC721IncorrectOwner",
      "type": "error"
    },
    {
      "inputs": [
        {
          "internalType": "address",
          "name": "operator",
          "type": "address"
        },
        {
          "internalType": "uint256",
          "name": "tokenId",
          "type": "uint256"
        }
      ],
      "name": "ERC721InsufficientApproval",
      "type": "error"
    },
    {
      "inputs": [
        {
          "internalType": "address",
          "name": "approver",
          "type": "address"
        }
      ],
      "name": "ERC721InvalidApprover",
      "type": "error"
    },
    {
      "inputs": [
        {
          "internalType": "address",
          "name": "operator",
          "type": "address"
        }
      ],
      "name": "ERC721InvalidOperator",
      "type": "error"
    },
    {
      "inputs": [
        {
          "internalType": "address",
          "name": "owner",
          "type": "address"
        }
      ],
      "name": "ERC721InvalidOwner",
      "type": "error"
    },
    {
      "inputs": [
        {
          "internalType": "address",
          "name": "receiver",
          "type": "address"
        }
      ],
      "name": "ERC721InvalidReceiver",
      "type": "error"
    },
    {
      "inputs": [
        {
          "internalType": "address",
          "name": "sender",
          "type": "address"
        }
      ],
      "name": "ERC721InvalidSender",
      "type": "error"
    },
    {
      "inputs": [
        {
          "internalType": "uint256",
          "name": "tokenId",
          "type": "uint256"
        }
      ],
      "name": "ERC721NonexistentToken",
      "type": "error"
    },
    {
      "inputs": [
        {
          "internalType": "address",
          "name": "owner",
          "type": "address"
        }
      ],
      "name": "OwnableInvalidOwner",
      "type": "error"
    },
    {
      "inputs": [
        {
          "internalType": "address",
          "name": "account",
          "type": "address"
        }
      ],
      "name": "OwnableUnauthorizedAccount",
      "type": "error"
    },
    {
      "inputs": [],
      "name": "ReentrancyGuardReentrantCall",
      "type": "error"
    },
    {
      "inputs": [
        {
          "internalType": "address",
          "name": "token",
          "type": "address"
        }
      ],
      "name": "SafeERC20FailedOperation",
      "type": "error"
    },
    {
      "anonymous": false,
      "inputs": [
        {
          "indexed": true,
          "internalType": "address",
          "name": "owner",
          "type": "address"
        },
        {
          "indexed": true,
          "internalType": "address",
          "name": "approved",
          "type": "address"
        },
        {
          "indexed": true,
          "internalType": "uint256",
          "name": "tokenId",
          "type": "uint256"
        }
      ],
      "name": "Approval",
      "type": "event"
    },
    {
      "anonymous": false,
      "inputs": [
        {
          "indexed": true,
          "internalType": "address",
          "name": "owner",
          "type": "address"
        },
        {
          "indexed": true,
          "internalType": "address",
          "name": "operator",
          "type": "address"
        },
        {
          "indexed": false,
          "internalType": "bool",
          "name": "approved",
          "type": "bool"
        }
      ],
      "name": "ApprovalForAll",
      "type": "event"
    },
    {
      "anonymous": false,
      "inputs": [
        {
          "indexed": false,
          "internalType": "string",
          "name": "newBaseURI",
          "type": "string"
        }
      ],
      "name": "BaseURISet",
      "type": "event"
    },
    {
      "anonymous": false,
      "inputs": [
        {
          "indexed": false,
          "internalType": "string",
          "name": "newContractURI",
          "type": "string"
        }
      ],
      "name": "ContractURIUpdated",
      "type": "event"
    },
    {
      "anonymous": false,
      "inputs": [
        {
          "indexed": true,
          "internalType": "address",
          "name": "newAddress",
          "type": "address"
        }
      ],
      "name": "DungeonCoreSet",
      "type": "event"
    },
    {
      "anonymous": false,
      "inputs": [
        {
          "indexed": true,
          "internalType": "address",
          "name": "previousOwner",
          "type": "address"
        },
        {
          "indexed": true,
          "internalType": "address",
          "name": "newOwner",
          "type": "address"
        }
      ],
      "name": "OwnershipTransferred",
      "type": "event"
    },
    {
      "anonymous": false,
      "inputs": [
        {
          "indexed": true,
          "internalType": "address",
          "name": "newAddress",
          "type": "address"
        }
      ],
      "name": "SoulShardTokenSet",
      "type": "event"
    },
    {
      "anonymous": false,
      "inputs": [
        {
          "indexed": true,
          "internalType": "address",
          "name": "user",
          "type": "address"
        },
        {
          "indexed": false,
          "internalType": "uint256",
          "name": "amount",
          "type": "uint256"
        },
        {
          "indexed": false,
          "internalType": "uint256",
          "name": "tokenId",
          "type": "uint256"
        }
      ],
      "name": "Staked",
      "type": "event"
    },
    {
      "anonymous": false,
      "inputs": [
        {
          "indexed": true,
          "internalType": "address",
          "name": "from",
          "type": "address"
        },
        {
          "indexed": true,
          "internalType": "address",
          "name": "to",
          "type": "address"
        },
        {
          "indexed": true,
          "internalType": "uint256",
          "name": "tokenId",
          "type": "uint256"
        }
      ],
      "name": "Transfer",
      "type": "event"
    },
    {
      "anonymous": false,
      "inputs": [
        {
          "indexed": true,
          "internalType": "address",
          "name": "user",
          "type": "address"
        },
        {
          "indexed": false,
          "internalType": "uint256",
          "name": "amount",
          "type": "uint256"
        }
      ],
      "name": "UnstakeClaimed",
      "type": "event"
    },
    {
      "anonymous": false,
      "inputs": [
        {
          "indexed": true,
          "internalType": "address",
          "name": "user",
          "type": "address"
        },
        {
          "indexed": false,
          "internalType": "uint256",
          "name": "amount",
          "type": "uint256"
        },
        {
          "indexed": false,
          "internalType": "uint256",
          "name": "availableAt",
          "type": "uint256"
        }
      ],
      "name": "UnstakeRequested",
      "type": "event"
    },
    {
      "inputs": [
        {
          "internalType": "address",
          "name": "to",
          "type": "address"
        },
        {
          "internalType": "uint256",
          "name": "tokenId",
          "type": "uint256"
        }
      ],
      "name": "approve",
      "outputs": [],
      "stateMutability": "nonpayable",
      "type": "function"
    },
    {
      "inputs": [
        {
          "internalType": "address",
          "name": "owner",
          "type": "address"
        }
      ],
      "name": "balanceOf",
      "outputs": [
        {
          "internalType": "uint256",
          "name": "",
          "type": "uint256"
        }
      ],
      "stateMutability": "view",
      "type": "function"
    },
    {
      "inputs": [],
      "name": "baseURI",
      "outputs": [
        {
          "internalType": "string",
          "name": "",
          "type": "string"
        }
      ],
      "stateMutability": "view",
      "type": "function"
    },
    {
      "inputs": [],
      "name": "claimUnstaked",
      "outputs": [],
      "stateMutability": "nonpayable",
      "type": "function"
    },
    {
      "inputs": [],
      "name": "contractURI",
      "outputs": [
        {
          "internalType": "string",
          "name": "",
          "type": "string"
        }
      ],
      "stateMutability": "view",
      "type": "function"
    },
    {
      "inputs": [],
      "name": "dungeonCore",
      "outputs": [
        {
          "internalType": "contract IDungeonCore",
          "name": "",
          "type": "address"
        }
      ],
      "stateMutability": "view",
      "type": "function"
    },
    {
      "inputs": [
        {
          "internalType": "uint256",
          "name": "tokenId",
          "type": "uint256"
        }
      ],
      "name": "getApproved",
      "outputs": [
        {
          "internalType": "address",
          "name": "",
          "type": "address"
        }
      ],
      "stateMutability": "view",
      "type": "function"
    },
    {
      "inputs": [
        {
          "internalType": "address",
          "name": "_user",
          "type": "address"
        }
      ],
      "name": "getVipLevel",
      "outputs": [
        {
          "internalType": "uint8",
          "name": "",
          "type": "uint8"
        }
      ],
      "stateMutability": "view",
      "type": "function"
    },
    {
      "inputs": [
        {
          "internalType": "address",
          "name": "_user",
          "type": "address"
        }
      ],
      "name": "getVipTaxReduction",
      "outputs": [
        {
          "internalType": "uint256",
          "name": "",
          "type": "uint256"
        }
      ],
      "stateMutability": "view",
      "type": "function"
    },
    {
      "inputs": [
        {
          "internalType": "address",
          "name": "owner",
          "type": "address"
        },
        {
          "internalType": "address",
          "name": "operator",
          "type": "address"
        }
      ],
      "name": "isApprovedForAll",
      "outputs": [
        {
          "internalType": "bool",
          "name": "",
          "type": "bool"
        }
      ],
      "stateMutability": "view",
      "type": "function"
    },
    {
      "inputs": [],
      "name": "name",
      "outputs": [
        {
          "internalType": "string",
          "name": "",
          "type": "string"
        }
      ],
      "stateMutability": "view",
      "type": "function"
    },
    {
      "inputs": [],
      "name": "owner",
      "outputs": [
        {
          "internalType": "address",
          "name": "",
          "type": "address"
        }
      ],
      "stateMutability": "view",
      "type": "function"
    },
    {
      "inputs": [
        {
          "internalType": "uint256",
          "name": "tokenId",
          "type": "uint256"
        }
      ],
      "name": "ownerOf",
      "outputs": [
        {
          "internalType": "address",
          "name": "",
          "type": "address"
        }
      ],
      "stateMutability": "view",
      "type": "function"
    },
    {
      "inputs": [],
      "name": "renounceOwnership",
      "outputs": [],
      "stateMutability": "nonpayable",
      "type": "function"
    },
    {
      "inputs": [
        {
          "internalType": "uint256",
          "name": "_amount",
          "type": "uint256"
        }
      ],
      "name": "requestUnstake",
      "outputs": [],
      "stateMutability": "nonpayable",
      "type": "function"
    },
    {
      "inputs": [
        {
          "internalType": "address",
          "name": "from",
          "type": "address"
        },
        {
          "internalType": "address",
          "name": "to",
          "type": "address"
        },
        {
          "internalType": "uint256",
          "name": "tokenId",
          "type": "uint256"
        }
      ],
      "name": "safeTransferFrom",
      "outputs": [],
      "stateMutability": "nonpayable",
      "type": "function"
    },
    {
      "inputs": [
        {
          "internalType": "address",
          "name": "from",
          "type": "address"
        },
        {
          "internalType": "address",
          "name": "to",
          "type": "address"
        },
        {
          "internalType": "uint256",
          "name": "tokenId",
          "type": "uint256"
        },
        {
          "internalType": "bytes",
          "name": "data",
          "type": "bytes"
        }
      ],
      "name": "safeTransferFrom",
      "outputs": [],
      "stateMutability": "nonpayable",
      "type": "function"
    },
    {
      "inputs": [
        {
          "internalType": "address",
          "name": "operator",
          "type": "address"
        },
        {
          "internalType": "bool",
          "name": "approved",
          "type": "bool"
        }
      ],
      "name": "setApprovalForAll",
      "outputs": [],
      "stateMutability": "nonpayable",
      "type": "function"
    },
    {
      "inputs": [
        {
          "internalType": "string",
          "name": "_newBaseURI",
          "type": "string"
        }
      ],
      "name": "setBaseURI",
      "outputs": [],
      "stateMutability": "nonpayable",
      "type": "function"
    },
    {
      "inputs": [
        {
          "internalType": "string",
          "name": "newContractURI",
          "type": "string"
        }
      ],
      "name": "setContractURI",
      "outputs": [],
      "stateMutability": "nonpayable",
      "type": "function"
    },
    {
      "inputs": [
        {
          "internalType": "address",
          "name": "_newAddress",
          "type": "address"
        }
      ],
      "name": "setDungeonCore",
      "outputs": [],
      "stateMutability": "nonpayable",
      "type": "function"
    },
    {
      "inputs": [
        {
          "internalType": "address",
          "name": "_newAddress",
          "type": "address"
        }
      ],
      "name": "setSoulShardToken",
      "outputs": [],
      "stateMutability": "nonpayable",
      "type": "function"
    },
    {
      "inputs": [
        {
          "internalType": "uint256",
          "name": "_newCooldown",
          "type": "uint256"
        }
      ],
      "name": "setUnstakeCooldown",
      "outputs": [],
      "stateMutability": "nonpayable",
      "type": "function"
    },
    {
      "inputs": [],
      "name": "soulShardToken",
      "outputs": [
        {
          "internalType": "contract IERC20",
          "name": "",
          "type": "address"
        }
      ],
      "stateMutability": "view",
      "type": "function"
    },
    {
      "inputs": [
        {
          "internalType": "uint256",
          "name": "_amount",
          "type": "uint256"
        }
      ],
      "name": "stake",
      "outputs": [],
      "stateMutability": "nonpayable",
      "type": "function"
    },
    {
      "inputs": [
        {
          "internalType": "bytes4",
          "name": "interfaceId",
          "type": "bytes4"
        }
      ],
      "name": "supportsInterface",
      "outputs": [
        {
          "internalType": "bool",
          "name": "",
          "type": "bool"
        }
      ],
      "stateMutability": "view",
      "type": "function"
    },
    {
      "inputs": [],
      "name": "symbol",
      "outputs": [
        {
          "internalType": "string",
          "name": "",
          "type": "string"
        }
      ],
      "stateMutability": "view",
      "type": "function"
    },
    {
      "inputs": [
        {
          "internalType": "uint256",
          "name": "_tokenId",
          "type": "uint256"
        }
      ],
      "name": "tokenURI",
      "outputs": [
        {
          "internalType": "string",
          "name": "",
          "type": "string"
        }
      ],
      "stateMutability": "view",
      "type": "function"
    },
    {
      "inputs": [],
      "name": "totalPendingUnstakes",
      "outputs": [
        {
          "internalType": "uint256",
          "name": "",
          "type": "uint256"
        }
      ],
      "stateMutability": "view",
      "type": "function"
    },
    {
      "inputs": [
        {
          "internalType": "address",
          "name": "from",
          "type": "address"
        },
        {
          "internalType": "address",
          "name": "to",
          "type": "address"
        },
        {
          "internalType": "uint256",
          "name": "tokenId",
          "type": "uint256"
        }
      ],
      "name": "transferFrom",
      "outputs": [],
      "stateMutability": "nonpayable",
      "type": "function"
    },
    {
      "inputs": [
        {
          "internalType": "address",
          "name": "newOwner",
          "type": "address"
        }
      ],
      "name": "transferOwnership",
      "outputs": [],
      "stateMutability": "nonpayable",
      "type": "function"
    },
    {
      "inputs": [],
      "name": "unstakeCooldown",
      "outputs": [
        {
          "internalType": "uint256",
          "name": "",
          "type": "uint256"
        }
      ],
      "stateMutability": "view",
      "type": "function"
    },
    {
      "inputs": [
        {
          "internalType": "address",
          "name": "",
          "type": "address"
        }
      ],
      "name": "unstakeQueue",
      "outputs": [
        {
          "internalType": "uint256",
          "name": "amount",
          "type": "uint256"
        },
        {
          "internalType": "uint256",
          "name": "availableAt",
          "type": "uint256"
        }
      ],
      "stateMutability": "view",
      "type": "function"
    },
    {
      "inputs": [
        {
          "internalType": "address",
          "name": "",
          "type": "address"
        }
      ],
      "name": "userStakes",
      "outputs": [
        {
          "internalType": "uint256",
          "name": "amount",
          "type": "uint256"
        },
        {
          "internalType": "uint256",
          "name": "tokenId",
          "type": "uint256"
        }
      ],
      "stateMutability": "view",
      "type": "function"
    },
    {
      "inputs": [
        {
          "internalType": "uint256",
          "name": "amount",
          "type": "uint256"
        }
      ],
      "name": "withdrawStakedTokens",
      "outputs": [],
      "stateMutability": "nonpayable",
      "type": "function"
    }
  ],
  "bytecode": "0x608034620003d257601f906001600160401b03601f196200275c388190038581018316850184811186821017620003bc57859282916040528339602094859181010312620003d257516001600160a01b03948582169391849003620003d25762000068620003d7565b94601386527f44756e67656f6e2044656c766572732056495000000000000000000000000000818701526200009c620003d7565b90600382526222222b60e91b81830152865194848611620003bc576000958654986001998a81811c91168015620003b1575b858210146200039d579081878493116200034a575b508490878311600114620002e9578992620002dd575b5050600019600383901b1c191690891b1786555b8251948511620002c95787548881811c91168015620002be575b83821014620002aa5790818587969594931162000251575b5081938511600114620001ec5750508492620001e0575b5050600019600383901b1c191690841b1783555b8115620001c857600680546001600160a01b0319811684179091556040519416907f8be0079c531659141344cd1fd0a4f28419497f9722a3daafe3b4186f6b6457e09080a380600755600c55600f600d556123649081620003f88239f35b60249060405190631e4fbdf760e01b82526004820152fd5b01519050388062000156565b889593929193168587528387209387905b8282106200023757505084116200021d575b505050811b0183556200016a565b015160001960f88460031b161c191690553880806200020f565b8484015186558a97909501949384019390810190620001fd565b9091929394508887528287208580880160051c820192858910620002a0575b9188978c9297969594930160051c01915b828110620002915750506200013f565b8981558897508b910162000281565b9250819262000270565b634e487b7160e01b87526022600452602487fd5b90607f169062000127565b634e487b7160e01b86526041600452602486fd5b015190503880620000f9565b90848c9416918a8052868b20928b5b8882821062000333575050841162000319575b505050811b0186556200010d565b015160001960f88460031b161c191690553880806200030b565b8385015186558f97909501949384019301620002f8565b9091508880528489208780850160051c82019287861062000393575b918d91869594930160051c01915b82811062000384575050620000e3565b8b81558594508d910162000374565b9250819262000366565b634e487b7160e01b89526022600452602489fd5b90607f1690620000ce565b634e487b7160e01b600052604160045260246000fd5b600080fd5b60408051919082016001600160401b03811183821017620003bc5760405256fe6080604081815260048036101561001557600080fd5b600092833560e01c90816301ffc9a714611b025750806306fdde0314611a5a578063081812fc14611a1f578063095ea7b3146119435780630a57336a14611837578063230957211461156d57806323b872dd1461155557806332854c131461152a57806342842e0e146114fb57806344039402146114d257806355f804b31461133b5780636352211e1461130a57806367cfab58146112e157806368bbf757146112c25780636ab1b29b1461125a5780636c0360eb146111c257806370a082311461116d578063715018a6146111105780637eefd5ae146110f15780638da5cb5b146110c85780638da7ad2314611086578063938e3d7b14610eb257806395d89b4114610e0a578063a22cb46514610d69578063a3158b5314610d47578063a694fc3a146108c9578063b799e74e14610887578063b88d4fde14610814578063c87b56dd1461056d578063d276290d14610435578063d32a40b6146103dc578063db4b826814610371578063e8a3d48514610288578063e985e9c5146102365763f2fde38b146101a457600080fd5b34610232576020366003190112610232576101bd611bb6565b906101c6611d3c565b6001600160a01b0391821692831561021c575050600654826bffffffffffffffffffffffff60a01b821617600655167f8be0079c531659141344cd1fd0a4f28419497f9722a3daafe3b4186f6b6457e08380a380f35b51631e4fbdf760e01b8152908101849052602490fd5b8280fd5b50503461028457806003193601126102845760ff81602093610256611bb6565b61025e611bd1565b6001600160a01b0391821683526005875283832091168252855220549151911615158152f35b5080fd5b50503461028457816003193601126102845780519082600b546102aa81611d02565b8085529160019180831690811561034957506001146102ec575b5050506102d6826102e8940383611c4e565b51918291602083526020830190611b91565b0390f35b9450600b85527f0175b7a638427703f0dbe7bb9bbf987a2551717b34e79f33b5b1008d1fa01db95b828610610331575050506102d68260206102e895820101946102c4565b80546020878701810191909152909501948101610314565b6102e89750869350602092506102d694915060ff191682840152151560051b820101946102c4565b83346103d95760203660031901126103d95761038b611bb6565b610393611d3c565b600980546001600160a01b0319166001600160a01b039290921691821790557f5b041fdbb07c066df55211c4936ce14e84504e79020b987168fa2022f1b13e798280a280f35b80fd5b509190346102845760203660031901126102845760ff6104026103fd611bb6565b6121ec565b16916101f492838102938185041490151715610422576020838351908152f35b634e487b7160e01b815260118452602490fd5b50903461023257826003193601126102325761044f612179565b338352601060205280832091825492831561052a576001015442106104dc57503383526010602052826001828220828155015561048e82600e5461219c565b600e556009546104aa90839033906001600160a01b03166121a9565b519081527fcb15bbbdc28223e1198be8308a502cd2706d6c42b33d19f96c1589dd5e241ae460203392a2600160075580f35b6020608492519162461bcd60e51b83528201526024808201527f5649503a20436f6f6c646f776e20706572696f64206973206e6f74206f766572604482015263081e595d60e21b6064820152fd5b506020606492519162461bcd60e51b8352820152601f60248201527f5649503a204e6f2070656e64696e6720756e7374616b652072657175657374006044820152fd5b509034610232576020918260031936011261081057803561058d81611f68565b50600a80549161059c83611d02565b156107d657818194829089937a184f03e93ff9f4daa797ed6e38ed64bf6a1f01000000000000000090818110156107c9575b5050886d04ee2d6d415b85acef8100000000808410156107bb575b5050662386f26fc10000808310156107ac575b506305f5e1008083101561079d575b5061271080831015610791575b50506064811015610783575b101561077b575b600192838201908361065461063f84611c70565b9361064c8a519586611c4e565b808552611c70565b968660218b860196601f19809b01368937860101905b61074c575b5050508651988995819561068284611d02565b938b83821691826000146107205750506001146106d1575b878b6102e88c6106c28d858d806106b58f8f51938491611b6e565b0103908101865285611c4e565b51928284938452830190611b91565b8a94959650825260008051602061230f8339815191525b838310610706575050508401019190806106b56102e86106c261069a565b80549783018501979097528a968a949092019181016106e8565b60ff19168a820152851515909502890190940196508493506106b592506102e891506106c2905061069a565b600019019082906f181899199a1a9b1b9c1cb0b131b232b360811b8282061a83530490878261066a575061066f565b60010161062b565b606460029104920191610624565b93019290043880610618565b6008919492049101923861060b565b601091949204910192386105fc565b9401939091049088386105e9565b89955004915038806105ce565b845162461bcd60e51b815280850187905260146024820152731592540e8818985cd9555492481b9bdd081cd95d60621b6044820152606490fd5b8380fd5b8382346102845760803660031901126102845761082f611bb6565b610837611bd1565b6044359060643567ffffffffffffffff81116108835736602382011215610883576108809481602461086e93369301359101611c8c565b9261087a838383611d68565b33611fa3565b80f35b8580fd5b505034610284576020366003190112610284579081906001600160a01b036108ad611bb6565b1681526010602052206001815491015482519182526020820152f35b5090346102325760209182600319360112610810578035926108e9612179565b8315610d11573385526010815282852054610cc0576009546001600160a01b03929083168015610c7e5784516323b872dd60e01b8482015260249133838301523060448301528760648301526064825260a0820182811067ffffffffffffffff821117610c6c57875261095c9190612111565b338752600f835260018588206109738882546120ee565b8155019182549485156109ba575b88887f1449c6dd7851abc30abf37f57715f492010519147cc2652fbc38202c18a6ee9089898982519485528401523392a2600160075580f35b9091929450600c5490600019808314610c5a5760018301600c55828097558751916109e483611c1c565b8a83523315610c4457838b526002875280898c205416158015610c3d575b15610c03578390818c5260028852898c2054168015159283610bd1575b5033808d52600389528a8d2080546001019055828d52600289528a8d2080546001600160a01b03191682179055907fddf252ad1be2c89b69c2b068fc378daa952ba7f163c4a11628f55a4df523b3ef8d80a4610bbb57333b156109815790848985610abc869b979c989996958b519586948594630a85bd0160e11b998a875233908701528501526044840152608060648401526084830190611b91565b038188335af1859181610b7b575b50610b2557505050503d600014610b1d573d610ae581611c70565b90610af285519283611c4e565b81528091833d92013e5b80519182610b1a575050505190633250574960e11b82523390820152fd5b01fd5b506060610afc565b939792969194936001600160e01b03191603610b6757507f1449c6dd7851abc30abf37f57715f492010519147cc2652fbc38202c18a6ee909050388080610981565b845190633250574960e11b82523390820152fd5b9091508681813d8311610bb4575b610b938183611c4e565b8101031261088357516001600160e01b031981168103610883579038610aca565b503d610b89565b505084516339e3563760e11b8152908101879052fd5b600083815260046020526040902080546001600160a01b0319169055818d52600389528a8d2090815401905538610a1f565b885162461bcd60e51b8152808601889052601581880152745649503a204e6f6e2d7472616e7366657261626c6560581b6044820152606490fd5b508a610a02565b8851633250574960e11b81528086018c90528690fd5b634e487b7160e01b8a5260118452848afd5b634e487b7160e01b8a5260418552838afd5b5060649184519162461bcd60e51b8352820152601a60248201527f5649503a20546f6b656e2061646472657373206e6f74207365740000000000006044820152fd5b608492519162461bcd60e51b8352820152602860248201527f5649503a20596f75206861766520612070656e64696e6720756e7374616b6520604482015267746f20636c61696d60c01b6064820152fd5b606492519162461bcd60e51b8352820152601360248201527205649503a2043616e6e6f74207374616b65203606c1b6044820152fd5b83823461028457602036600319011261028457610d62611d3c565b35600d5580f35b509034610232578060031936011261023257610d83611bb6565b9060243591821515809303610e06576001600160a01b0316928315610df15750338452600560205280842083855260205280842060ff1981541660ff8416179055519081527f17307eab39ab6107e8899845ad3d59bd9653f200f220920489ca2b5937696c3160203392a380f35b836024925191630b61174360e31b8352820152fd5b8480fd5b505034610284578160031936011261028457805190826001805491610e2e83611d02565b808652928281169081156103495750600114610e56575050506102d6826102e8940383611c4e565b94508085527fb10e2d527612073b26eecdfd717e6a320cf44b4afac2b0732d9fcbe2b7fa0cf65b828610610e9a575050506102d68260206102e895820101946102c4565b80546020878701810191909152909501948101610e7d565b5091903461028457610ec336611cc3565b90610ecc611d3c565b81519367ffffffffffffffff85116110735750610eea600b54611d02565b601f8111611010575b50602093601f8111600114610f6a579081610f59939285967f905d981207a7d0b6c62cc46ab0be2a076d0298e4a86d0ab79882dbd01ac373789691610f5f575b508160011b916000199060031b1c191617600b5551918291602083526020830190611b91565b0390a180f35b905083015138610f33565b600b84527f0175b7a638427703f0dbe7bb9bbf987a2551717b34e79f33b5b1008d1fa01db9601f198216855b818110610ff85750916001917f905d981207a7d0b6c62cc46ab0be2a076d0298e4a86d0ab79882dbd01ac37378969782610f5997969510610fdf575b5050811b01600b556102d6565b85015160001960f88460031b161c191690553880610fd2565b85880151835560209788019760019093019201610f96565b600b84527f0175b7a638427703f0dbe7bb9bbf987a2551717b34e79f33b5b1008d1fa01db9601f860160051c81019160208710611069575b601f0160051c01905b81811061105e5750610ef3565b848155600101611051565b9091508190611048565b634e487b7160e01b845260419052602483fd5b505034610284576020366003190112610284579081906001600160a01b036110ac611bb6565b168152600f602052206001815491015482519182526020820152f35b50503461028457816003193601126102845760065490516001600160a01b039091168152602090f35b505034610284578160031936011261028457602090600d549051908152f35b83346103d957806003193601126103d957611129611d3c565b600680546001600160a01b0319811690915581906001600160a01b03167f8be0079c531659141344cd1fd0a4f28419497f9722a3daafe3b4186f6b6457e08280a380f35b5091346103d95760203660031901126103d9576001600160a01b03611190611bb6565b169283156111ad5750806020938392526003845220549051908152f35b91516322718ad960e21b815291820152602490fd5b50503461028457816003193601126102845780519082600a546111e481611d02565b80855291600191808316908115610349575060011461120f575050506102d6826102e8940383611c4e565b9450600a855260008051602061230f8339815191525b828610611242575050506102d68260206102e895820101946102c4565b80546020878701810191909152909501948101611225565b83346103d95760203660031901126103d957611274611bb6565b61127c611d3c565b600880546001600160a01b0319166001600160a01b039290921691821790557f45e919947eac4ba070dccb2545cf1e7e330fd110330232d74a6996e9e2308f248280a280f35b505034610284578160031936011261028457602090600e549051908152f35b50503461028457816003193601126102845760085490516001600160a01b039091168152602090f35b5091346103d95760203660031901126103d9575061132a60209235611f68565b90516001600160a01b039091168152f35b509190346102845761134c36611cc3565b90611355611d3c565b81519367ffffffffffffffff85116110735750611373600a54611d02565b601f8111611481575b50602093601f81116001146113ed579081610f59939285967ff9c7803e94e0d3c02900d8a90893a6d5e90dd04d32a4cfe825520f82bf9f32f696916113e2575b508160011b916000199060031b1c191617600a5551918291602083526020830190611b91565b9050830151386113bc565b600a845260008051602061230f833981519152601f198216855b8181106114695750916001917ff9c7803e94e0d3c02900d8a90893a6d5e90dd04d32a4cfe825520f82bf9f32f6969782610f5997969510611450575b5050811b01600a556102d6565b85015160001960f88460031b161c191690553880611443565b85880151835560209788019760019093019201611407565b600a845260008051602061230f833981519152601f860160051c810191602087106114c8575b601f0160051c01905b8181106114bd575061137c565b8481556001016114b0565b90915081906114a7565b50503461028457816003193601126102845760095490516001600160a01b039091168152602090f35b505034610284576108809061150f36611be7565b9192519261151c84611c1c565b85845261087a838383611d68565b5050346102845760203660031901126102845760209060ff61154d6103fd611bb6565b915191168152f35b83346103d95761088061156736611be7565b91611d68565b5091903461028457602090816003193601126102325783359161158e612179565b338452600f81528184208315158061182c575b156117e9573385526010825282852054611792576115c084825461219c565b81556115ce84600e546120ee565b600e5580541580611785575b61166f575b506115ec600d54426120ee565b90825183810181811067ffffffffffffffff82111761165c577f57e41df54512c76148b5ba9b643d149752b0d35e493b969bd017d0a3fe5228cf959697508452858152600182820184815233895260108452858920925183555191015582519485528401523392a2600160075580f35b634e487b7160e01b875260418852602487fd5b600101805480865260028352838620546001600160a01b0390811615801561177d575b15611742578187526002845284872054168187821592831561170f575b8282526002875287822080546001600160a01b03191690557fddf252ad1be2c89b69c2b068fc378daa952ba7f163c4a11628f55a4df523b3ef8280a46116f95750849055386115df565b86602491855191637e27328960e01b8352820152fd5b600083815260046020526040902080546001600160a01b03191690558082526003875287822080546000190190556116af565b845162461bcd60e51b815280890185905260156024820152745649503a204e6f6e2d7472616e7366657261626c6560581b6044820152606490fd5b506001611692565b50600181015415156115da565b825162461bcd60e51b8152808701839052602b60248201527f5649503a2050726576696f757320756e7374616b65207265717565737420737460448201526a696c6c2070656e64696e6760a81b6064820152608490fd5b825162461bcd60e51b8152808701839052601b60248201527f5649503a20496e76616c696420756e7374616b6520616d6f756e7400000000006044820152606490fd5b5080548411156115a1565b508290346102845760208060031936011261023257813591611857611d3c565b60095485516370a0823160e01b815230818401526001600160a01b0391821693919291908181602481885afa8015611939578790611906575b61189e9150600e549061219c565b85116118b657505061088093945060065416906121a9565b865162461bcd60e51b815291820152602560248201527f5649503a20416d6f756e742065786365656473206e6f6e2d70656e64696e672060448201526466756e647360d81b606482015260849150fd5b508181813d8311611932575b61191c8183611c4e565b8101031261192e5761189e9051611890565b8680fd5b503d611912565b88513d89823e3d90fd5b50903461023257806003193601126102325761195d611bb6565b9160243561196a81611f68565b33151580611a0c575b806119e3575b6119cd576001600160a01b039485169482918691167f8c5be1e5ebec7d5bd14f71427d1e84f3dd0314c0f7b2291e5b200ac8c7c3b9258880a48452602052822080546001600160a01b031916909117905580f35b835163a9fbf51f60e01b81523381850152602490fd5b506001600160a01b03811686526005602090815284872033885290528386205460ff1615611979565b506001600160a01b038116331415611973565b503461023257602036600319011261023257918260209335611a4081611f68565b50825283528190205490516001600160a01b039091168152f35b505034610284578160031936011261028457805190828054611a7b81611d02565b808552916001918083169081156103495750600114611aa6575050506102d6826102e8940383611c4e565b80809650527f290decd9548b62a8d60345a988386fc84ba6bc95484008f6362f93160ef3e5635b828610611aea575050506102d68260206102e895820101946102c4565b80546020878701810191909152909501948101611acd565b92505034610232576020366003190112610232573563ffffffff60e01b811680910361023257602092506380ac58cd60e01b8114908115611b5d575b8115611b4c575b5015158152f35b6301ffc9a760e01b14905038611b45565b635b5e139f60e01b81149150611b3e565b60005b838110611b815750506000910152565b8181015183820152602001611b71565b90602091611baa81518092818552858086019101611b6e565b601f01601f1916010190565b600435906001600160a01b0382168203611bcc57565b600080fd5b602435906001600160a01b0382168203611bcc57565b6060906003190112611bcc576001600160a01b03906004358281168103611bcc57916024359081168103611bcc579060443590565b6020810190811067ffffffffffffffff821117611c3857604052565b634e487b7160e01b600052604160045260246000fd5b90601f8019910116810190811067ffffffffffffffff821117611c3857604052565b67ffffffffffffffff8111611c3857601f01601f191660200190565b929192611c9882611c70565b91611ca66040519384611c4e565b829481845281830111611bcc578281602093846000960137010152565b6020600319820112611bcc576004359067ffffffffffffffff8211611bcc5780602383011215611bcc57816024611cff93600401359101611c8c565b90565b90600182811c92168015611d32575b6020831014611d1c57565b634e487b7160e01b600052602260045260246000fd5b91607f1691611d11565b6006546001600160a01b03163303611d5057565b60405163118cdaa760e01b8152336004820152602490fd5b6001600160a01b039182169290918315611f4f5760009282845260209460028652604095838787205416158015611f48575b15611f0d579084918287526002815284888820541696879133151580611e74575b509060027fddf252ad1be2c89b69c2b068fc378daa952ba7f163c4a11628f55a4df523b3ef9284611e41575b858352600381528b8320805460010190558683525289812080546001600160a01b0319168517905580a41692838303611e205750505050565b6064945051926364283d7b60e01b8452600484015260248301526044820152fd5b600087815260046020526040902080546001600160a01b0319169055848352600381528b83208054600019019055611de7565b91939450915080611ecc575b15611e9057859291879138611dbb565b878688611ead576024915190637e27328960e01b82526004820152fd5b905163177e802f60e01b81523360048201526024810191909152604490fd5b503387148015611ef1575b80611e805750858252600481523385898420541614611e80565b5086825260058152878220338352815260ff8883205416611ed7565b60649087519062461bcd60e51b8252600482015260156024820152745649503a204e6f6e2d7472616e7366657261626c6560581b6044820152fd5b5085611d9a565b604051633250574960e11b815260006004820152602490fd5b6000818152600260205260409020546001600160a01b0316908115611f8b575090565b60249060405190637e27328960e01b82526004820152fd5b909192833b611fb4575b5050505050565b604051630a85bd0160e11b8082526001600160a01b039384166004830152938316602482015260448101919091526080606482015260209591909316939091908390612004906084830190611b91565b039285816000958187895af18491816120ae575b50612078575050503d600014612070573d61203281611c70565b906120406040519283611c4e565b81528091843d92013e5b8051928361206b57604051633250574960e11b815260048101849052602490fd5b019050fd5b50606061204a565b919450915063ffffffff60e01b160361209657503880808080611fad565b60249060405190633250574960e11b82526004820152fd5b9091508681813d83116120e7575b6120c68183611c4e565b81010312610e0657516001600160e01b031981168103610e06579038612018565b503d6120bc565b919082018092116120fb57565b634e487b7160e01b600052601160045260246000fd5b906000602091828151910182855af11561216d576000513d61216457506001600160a01b0381163b155b6121425750565b604051635274afe760e01b81526001600160a01b039091166004820152602490fd5b6001141561213b565b6040513d6000823e3d90fd5b60026007541461218a576002600755565b604051633ee5aeb560e01b8152600490fd5b919082039182116120fb57565b60405163a9059cbb60e01b60208201526001600160a01b039290921660248301526044808301939093529181526121ea916121e5606483611c4e565b612111565b565b6001600160a01b039081166000908152600f6020526040812054909181158015612302575b6122fd57602090600854169160246040518094819363b6395e3160e01b835260048301525afa9081156122f25782916122c1575b5069021e19e0c9bab24000008110156122ba5769010f0cf064dd592000008110156122b357683635c9adc5dea000008110156122ac57681b1ae4d6e2ef5000008110156122a55768056bc75e2d63100000111561229f5790565b50600190565b5050600290565b5050600390565b5050600490565b5050600590565b90506020813d82116122ea575b816122db60209383611c4e565b81010312610284575138612245565b3d91506122ce565b6040513d84823e3d90fd5b505090565b5080600854161561221156fec65a7bb8d6351c1cf70c95a316cc6a92839c986682d98bc35f958f4883f9d2a8a2646970667358221220405c3a4da297c6bc4e1e6fd66a3f2237de9b232f28edd010a664f1f7563e9eba64736f6c63430008140033",
  "linkReferences": {},
  "deployedLinkReferences": {}
}