{
  "_format": "hh-sol-artifact-1",
  "contractName": "VIPStaking",
  "sourceName": "contracts/VIPStaking.sol",
  "abi": [
    {
      "inputs": [
        {
          "internalType": "address",
          "name": "initialOwner",
          "type": "address"
        }
      ],
      "stateMutability": "nonpayable",
      "type": "constructor"
    },
    {
      "inputs": [
        {
          "internalType": "address",
          "name": "sender",
          "type": "address"
        },
        {
          "internalType": "uint256",
          "name": "tokenId",
          "type": "uint256"
        },
        {
          "internalType": "address",
          "name": "owner",
          "type": "address"
        }
      ],
      "name": "ERC721IncorrectOwner",
      "type": "error"
    },
    {
      "inputs": [
        {
          "internalType": "address",
          "name": "operator",
          "type": "address"
        },
        {
          "internalType": "uint256",
          "name": "tokenId",
          "type": "uint256"
        }
      ],
      "name": "ERC721InsufficientApproval",
      "type": "error"
    },
    {
      "inputs": [
        {
          "internalType": "address",
          "name": "approver",
          "type": "address"
        }
      ],
      "name": "ERC721InvalidApprover",
      "type": "error"
    },
    {
      "inputs": [
        {
          "internalType": "address",
          "name": "operator",
          "type": "address"
        }
      ],
      "name": "ERC721InvalidOperator",
      "type": "error"
    },
    {
      "inputs": [
        {
          "internalType": "address",
          "name": "owner",
          "type": "address"
        }
      ],
      "name": "ERC721InvalidOwner",
      "type": "error"
    },
    {
      "inputs": [
        {
          "internalType": "address",
          "name": "receiver",
          "type": "address"
        }
      ],
      "name": "ERC721InvalidReceiver",
      "type": "error"
    },
    {
      "inputs": [
        {
          "internalType": "address",
          "name": "sender",
          "type": "address"
        }
      ],
      "name": "ERC721InvalidSender",
      "type": "error"
    },
    {
      "inputs": [
        {
          "internalType": "uint256",
          "name": "tokenId",
          "type": "uint256"
        }
      ],
      "name": "ERC721NonexistentToken",
      "type": "error"
    },
    {
      "inputs": [
        {
          "internalType": "address",
          "name": "owner",
          "type": "address"
        }
      ],
      "name": "OwnableInvalidOwner",
      "type": "error"
    },
    {
      "inputs": [
        {
          "internalType": "address",
          "name": "account",
          "type": "address"
        }
      ],
      "name": "OwnableUnauthorizedAccount",
      "type": "error"
    },
    {
      "inputs": [],
      "name": "ReentrancyGuardReentrantCall",
      "type": "error"
    },
    {
      "inputs": [
        {
          "internalType": "address",
          "name": "token",
          "type": "address"
        }
      ],
      "name": "SafeERC20FailedOperation",
      "type": "error"
    },
    {
      "anonymous": false,
      "inputs": [
        {
          "indexed": true,
          "internalType": "address",
          "name": "owner",
          "type": "address"
        },
        {
          "indexed": true,
          "internalType": "address",
          "name": "approved",
          "type": "address"
        },
        {
          "indexed": true,
          "internalType": "uint256",
          "name": "tokenId",
          "type": "uint256"
        }
      ],
      "name": "Approval",
      "type": "event"
    },
    {
      "anonymous": false,
      "inputs": [
        {
          "indexed": true,
          "internalType": "address",
          "name": "owner",
          "type": "address"
        },
        {
          "indexed": true,
          "internalType": "address",
          "name": "operator",
          "type": "address"
        },
        {
          "indexed": false,
          "internalType": "bool",
          "name": "approved",
          "type": "bool"
        }
      ],
      "name": "ApprovalForAll",
      "type": "event"
    },
    {
      "anonymous": false,
      "inputs": [
        {
          "indexed": false,
          "internalType": "string",
          "name": "newBaseURI",
          "type": "string"
        }
      ],
      "name": "BaseURISet",
      "type": "event"
    },
    {
      "anonymous": false,
      "inputs": [
        {
          "indexed": false,
          "internalType": "string",
          "name": "newContractURI",
          "type": "string"
        }
      ],
      "name": "ContractURIUpdated",
      "type": "event"
    },
    {
      "anonymous": false,
      "inputs": [
        {
          "indexed": true,
          "internalType": "address",
          "name": "newAddress",
          "type": "address"
        }
      ],
      "name": "DungeonCoreSet",
      "type": "event"
    },
    {
      "anonymous": false,
      "inputs": [
        {
          "indexed": true,
          "internalType": "address",
          "name": "previousOwner",
          "type": "address"
        },
        {
          "indexed": true,
          "internalType": "address",
          "name": "newOwner",
          "type": "address"
        }
      ],
      "name": "OwnershipTransferred",
      "type": "event"
    },
    {
      "anonymous": false,
      "inputs": [
        {
          "indexed": true,
          "internalType": "address",
          "name": "newAddress",
          "type": "address"
        }
      ],
      "name": "SoulShardTokenSet",
      "type": "event"
    },
    {
      "anonymous": false,
      "inputs": [
        {
          "indexed": true,
          "internalType": "address",
          "name": "user",
          "type": "address"
        },
        {
          "indexed": false,
          "internalType": "uint256",
          "name": "amount",
          "type": "uint256"
        },
        {
          "indexed": false,
          "internalType": "uint256",
          "name": "tokenId",
          "type": "uint256"
        }
      ],
      "name": "Staked",
      "type": "event"
    },
    {
      "anonymous": false,
      "inputs": [
        {
          "indexed": true,
          "internalType": "address",
          "name": "from",
          "type": "address"
        },
        {
          "indexed": true,
          "internalType": "address",
          "name": "to",
          "type": "address"
        },
        {
          "indexed": true,
          "internalType": "uint256",
          "name": "tokenId",
          "type": "uint256"
        }
      ],
      "name": "Transfer",
      "type": "event"
    },
    {
      "anonymous": false,
      "inputs": [
        {
          "indexed": true,
          "internalType": "address",
          "name": "user",
          "type": "address"
        },
        {
          "indexed": false,
          "internalType": "uint256",
          "name": "amount",
          "type": "uint256"
        }
      ],
      "name": "UnstakeClaimed",
      "type": "event"
    },
    {
      "anonymous": false,
      "inputs": [
        {
          "indexed": true,
          "internalType": "address",
          "name": "user",
          "type": "address"
        },
        {
          "indexed": false,
          "internalType": "uint256",
          "name": "amount",
          "type": "uint256"
        },
        {
          "indexed": false,
          "internalType": "uint256",
          "name": "availableAt",
          "type": "uint256"
        }
      ],
      "name": "UnstakeRequested",
      "type": "event"
    },
    {
      "inputs": [
        {
          "internalType": "address",
          "name": "to",
          "type": "address"
        },
        {
          "internalType": "uint256",
          "name": "tokenId",
          "type": "uint256"
        }
      ],
      "name": "approve",
      "outputs": [],
      "stateMutability": "nonpayable",
      "type": "function"
    },
    {
      "inputs": [
        {
          "internalType": "address",
          "name": "owner",
          "type": "address"
        }
      ],
      "name": "balanceOf",
      "outputs": [
        {
          "internalType": "uint256",
          "name": "",
          "type": "uint256"
        }
      ],
      "stateMutability": "view",
      "type": "function"
    },
    {
      "inputs": [],
      "name": "baseURI",
      "outputs": [
        {
          "internalType": "string",
          "name": "",
          "type": "string"
        }
      ],
      "stateMutability": "view",
      "type": "function"
    },
    {
      "inputs": [],
      "name": "claimUnstaked",
      "outputs": [],
      "stateMutability": "nonpayable",
      "type": "function"
    },
    {
      "inputs": [],
      "name": "contractURI",
      "outputs": [
        {
          "internalType": "string",
          "name": "",
          "type": "string"
        }
      ],
      "stateMutability": "view",
      "type": "function"
    },
    {
      "inputs": [],
      "name": "dungeonCore",
      "outputs": [
        {
          "internalType": "contract IDungeonCore",
          "name": "",
          "type": "address"
        }
      ],
      "stateMutability": "view",
      "type": "function"
    },
    {
      "inputs": [
        {
          "internalType": "uint256",
          "name": "tokenId",
          "type": "uint256"
        }
      ],
      "name": "getApproved",
      "outputs": [
        {
          "internalType": "address",
          "name": "",
          "type": "address"
        }
      ],
      "stateMutability": "view",
      "type": "function"
    },
    {
      "inputs": [
        {
          "internalType": "address",
          "name": "_user",
          "type": "address"
        }
      ],
      "name": "getVipLevel",
      "outputs": [
        {
          "internalType": "uint8",
          "name": "",
          "type": "uint8"
        }
      ],
      "stateMutability": "view",
      "type": "function"
    },
    {
      "inputs": [
        {
          "internalType": "address",
          "name": "_user",
          "type": "address"
        }
      ],
      "name": "getVipTaxReduction",
      "outputs": [
        {
          "internalType": "uint256",
          "name": "",
          "type": "uint256"
        }
      ],
      "stateMutability": "view",
      "type": "function"
    },
    {
      "inputs": [
        {
          "internalType": "address",
          "name": "owner",
          "type": "address"
        },
        {
          "internalType": "address",
          "name": "operator",
          "type": "address"
        }
      ],
      "name": "isApprovedForAll",
      "outputs": [
        {
          "internalType": "bool",
          "name": "",
          "type": "bool"
        }
      ],
      "stateMutability": "view",
      "type": "function"
    },
    {
      "inputs": [],
      "name": "name",
      "outputs": [
        {
          "internalType": "string",
          "name": "",
          "type": "string"
        }
      ],
      "stateMutability": "view",
      "type": "function"
    },
    {
      "inputs": [],
      "name": "owner",
      "outputs": [
        {
          "internalType": "address",
          "name": "",
          "type": "address"
        }
      ],
      "stateMutability": "view",
      "type": "function"
    },
    {
      "inputs": [
        {
          "internalType": "uint256",
          "name": "tokenId",
          "type": "uint256"
        }
      ],
      "name": "ownerOf",
      "outputs": [
        {
          "internalType": "address",
          "name": "",
          "type": "address"
        }
      ],
      "stateMutability": "view",
      "type": "function"
    },
    {
      "inputs": [],
      "name": "renounceOwnership",
      "outputs": [],
      "stateMutability": "nonpayable",
      "type": "function"
    },
    {
      "inputs": [
        {
          "internalType": "uint256",
          "name": "_amount",
          "type": "uint256"
        }
      ],
      "name": "requestUnstake",
      "outputs": [],
      "stateMutability": "nonpayable",
      "type": "function"
    },
    {
      "inputs": [
        {
          "internalType": "address",
          "name": "from",
          "type": "address"
        },
        {
          "internalType": "address",
          "name": "to",
          "type": "address"
        },
        {
          "internalType": "uint256",
          "name": "tokenId",
          "type": "uint256"
        }
      ],
      "name": "safeTransferFrom",
      "outputs": [],
      "stateMutability": "nonpayable",
      "type": "function"
    },
    {
      "inputs": [
        {
          "internalType": "address",
          "name": "from",
          "type": "address"
        },
        {
          "internalType": "address",
          "name": "to",
          "type": "address"
        },
        {
          "internalType": "uint256",
          "name": "tokenId",
          "type": "uint256"
        },
        {
          "internalType": "bytes",
          "name": "data",
          "type": "bytes"
        }
      ],
      "name": "safeTransferFrom",
      "outputs": [],
      "stateMutability": "nonpayable",
      "type": "function"
    },
    {
      "inputs": [
        {
          "internalType": "address",
          "name": "operator",
          "type": "address"
        },
        {
          "internalType": "bool",
          "name": "approved",
          "type": "bool"
        }
      ],
      "name": "setApprovalForAll",
      "outputs": [],
      "stateMutability": "nonpayable",
      "type": "function"
    },
    {
      "inputs": [
        {
          "internalType": "string",
          "name": "_newBaseURI",
          "type": "string"
        }
      ],
      "name": "setBaseURI",
      "outputs": [],
      "stateMutability": "nonpayable",
      "type": "function"
    },
    {
      "inputs": [
        {
          "internalType": "string",
          "name": "newContractURI",
          "type": "string"
        }
      ],
      "name": "setContractURI",
      "outputs": [],
      "stateMutability": "nonpayable",
      "type": "function"
    },
    {
      "inputs": [
        {
          "internalType": "address",
          "name": "_newAddress",
          "type": "address"
        }
      ],
      "name": "setDungeonCore",
      "outputs": [],
      "stateMutability": "nonpayable",
      "type": "function"
    },
    {
      "inputs": [
        {
          "internalType": "address",
          "name": "_newAddress",
          "type": "address"
        }
      ],
      "name": "setSoulShardToken",
      "outputs": [],
      "stateMutability": "nonpayable",
      "type": "function"
    },
    {
      "inputs": [
        {
          "internalType": "uint256",
          "name": "_newCooldown",
          "type": "uint256"
        }
      ],
      "name": "setUnstakeCooldown",
      "outputs": [],
      "stateMutability": "nonpayable",
      "type": "function"
    },
    {
      "inputs": [],
      "name": "soulShardToken",
      "outputs": [
        {
          "internalType": "contract IERC20",
          "name": "",
          "type": "address"
        }
      ],
      "stateMutability": "view",
      "type": "function"
    },
    {
      "inputs": [
        {
          "internalType": "uint256",
          "name": "_amount",
          "type": "uint256"
        }
      ],
      "name": "stake",
      "outputs": [],
      "stateMutability": "nonpayable",
      "type": "function"
    },
    {
      "inputs": [
        {
          "internalType": "bytes4",
          "name": "interfaceId",
          "type": "bytes4"
        }
      ],
      "name": "supportsInterface",
      "outputs": [
        {
          "internalType": "bool",
          "name": "",
          "type": "bool"
        }
      ],
      "stateMutability": "view",
      "type": "function"
    },
    {
      "inputs": [],
      "name": "symbol",
      "outputs": [
        {
          "internalType": "string",
          "name": "",
          "type": "string"
        }
      ],
      "stateMutability": "view",
      "type": "function"
    },
    {
      "inputs": [
        {
          "internalType": "uint256",
          "name": "_tokenId",
          "type": "uint256"
        }
      ],
      "name": "tokenURI",
      "outputs": [
        {
          "internalType": "string",
          "name": "",
          "type": "string"
        }
      ],
      "stateMutability": "view",
      "type": "function"
    },
    {
      "inputs": [],
      "name": "totalPendingUnstakes",
      "outputs": [
        {
          "internalType": "uint256",
          "name": "",
          "type": "uint256"
        }
      ],
      "stateMutability": "view",
      "type": "function"
    },
    {
      "inputs": [
        {
          "internalType": "address",
          "name": "from",
          "type": "address"
        },
        {
          "internalType": "address",
          "name": "to",
          "type": "address"
        },
        {
          "internalType": "uint256",
          "name": "tokenId",
          "type": "uint256"
        }
      ],
      "name": "transferFrom",
      "outputs": [],
      "stateMutability": "nonpayable",
      "type": "function"
    },
    {
      "inputs": [
        {
          "internalType": "address",
          "name": "newOwner",
          "type": "address"
        }
      ],
      "name": "transferOwnership",
      "outputs": [],
      "stateMutability": "nonpayable",
      "type": "function"
    },
    {
      "inputs": [],
      "name": "unstakeCooldown",
      "outputs": [
        {
          "internalType": "uint256",
          "name": "",
          "type": "uint256"
        }
      ],
      "stateMutability": "view",
      "type": "function"
    },
    {
      "inputs": [
        {
          "internalType": "address",
          "name": "",
          "type": "address"
        }
      ],
      "name": "unstakeQueue",
      "outputs": [
        {
          "internalType": "uint256",
          "name": "amount",
          "type": "uint256"
        },
        {
          "internalType": "uint256",
          "name": "availableAt",
          "type": "uint256"
        }
      ],
      "stateMutability": "view",
      "type": "function"
    },
    {
      "inputs": [
        {
          "internalType": "address",
          "name": "",
          "type": "address"
        }
      ],
      "name": "userStakes",
      "outputs": [
        {
          "internalType": "uint256",
          "name": "amount",
          "type": "uint256"
        },
        {
          "internalType": "uint256",
          "name": "tokenId",
          "type": "uint256"
        }
      ],
      "stateMutability": "view",
      "type": "function"
    },
    {
      "inputs": [
        {
          "internalType": "uint256",
          "name": "amount",
          "type": "uint256"
        }
      ],
      "name": "withdrawStakedTokens",
      "outputs": [],
      "stateMutability": "nonpayable",
      "type": "function"
    }
  ],
  "bytecode": "0x608034620003d257601f906001600160401b03601f1962002854388190038581018316850184811186821017620003bc57859282916040528339602094859181010312620003d257516001600160a01b03948582169391849003620003d25762000068620003d7565b94601386527f44756e67656f6e2044656c766572732056495000000000000000000000000000818701526200009c620003d7565b90600382526222222b60e91b81830152865194848611620003bc576000958654986001998a81811c91168015620003b1575b858210146200039d579081878493116200034a575b508490878311600114620002e9578992620002dd575b5050600019600383901b1c191690891b1786555b8251948511620002c95787548881811c91168015620002be575b83821014620002aa5790818587969594931162000251575b5081938511600114620001ec5750508492620001e0575b5050600019600383901b1c191690841b1783555b8115620001c857600680546001600160a01b0319811684179091556040519416907f8be0079c531659141344cd1fd0a4f28419497f9722a3daafe3b4186f6b6457e09080a380600755600c55600f600d5561245c9081620003f88239f35b60249060405190631e4fbdf760e01b82526004820152fd5b01519050388062000156565b889593929193168587528387209387905b8282106200023757505084116200021d575b505050811b0183556200016a565b015160001960f88460031b161c191690553880806200020f565b8484015186558a97909501949384019390810190620001fd565b9091929394508887528287208580880160051c820192858910620002a0575b9188978c9297969594930160051c01915b828110620002915750506200013f565b8981558897508b910162000281565b9250819262000270565b634e487b7160e01b87526022600452602487fd5b90607f169062000127565b634e487b7160e01b86526041600452602486fd5b015190503880620000f9565b90848c9416918a8052868b20928b5b8882821062000333575050841162000319575b505050811b0186556200010d565b015160001960f88460031b161c191690553880806200030b565b8385015186558f97909501949384019301620002f8565b9091508880528489208780850160051c82019287861062000393575b918d91869594930160051c01915b82811062000384575050620000e3565b8b81558594508d910162000374565b9250819262000366565b634e487b7160e01b89526022600452602489fd5b90607f1690620000ce565b634e487b7160e01b600052604160045260246000fd5b600080fd5b60408051919082016001600160401b03811183821017620003bc5760405256fe6080604081815260048036101561001557600080fd5b600092833560e01c90816301ffc9a714611b015750806306fdde0314611a59578063081812fc14611a1e578063095ea7b3146119425780630a57336a14611836578063230957211461156c57806323b872dd1461155457806332854c131461152957806342842e0e146114fa57806344039402146114d157806355f804b31461133a5780636352211e1461130957806367cfab58146112e057806368bbf757146112c15780636ab1b29b146112595780636c0360eb146111c157806370a082311461116c578063715018a61461110f5780637eefd5ae146110f05780638da5cb5b146110c75780638da7ad2314611085578063938e3d7b14610eb157806395d89b4114610e09578063a22cb46514610d68578063a3158b5314610d46578063a694fc3a146108c8578063b799e74e14610886578063b88d4fde14610813578063c87b56dd1461056c578063d276290d14610434578063d32a40b6146103dc578063db4b826814610371578063e8a3d48514610288578063e985e9c5146102365763f2fde38b146101a457600080fd5b34610232576020366003190112610232576101bd611bb5565b906101c6611d3b565b6001600160a01b0391821692831561021c575050600654826bffffffffffffffffffffffff60a01b821617600655167f8be0079c531659141344cd1fd0a4f28419497f9722a3daafe3b4186f6b6457e08380a380f35b51631e4fbdf760e01b8152908101849052602490fd5b8280fd5b50503461028457806003193601126102845760ff81602093610256611bb5565b61025e611bd0565b6001600160a01b0391821683526005875283832091168252855220549151911615158152f35b5080fd5b50503461028457816003193601126102845780519082600b546102aa81611d01565b8085529160019180831690811561034957506001146102ec575b5050506102d6826102e8940383611c4d565b51918291602083526020830190611b90565b0390f35b9450600b85527f0175b7a638427703f0dbe7bb9bbf987a2551717b34e79f33b5b1008d1fa01db95b828610610331575050506102d68260206102e895820101946102c4565b80546020878701810191909152909501948101610314565b6102e89750869350602092506102d694915060ff191682840152151560051b820101946102c4565b83346103d95760203660031901126103d95761038b611bb5565b610393611d3b565b600980546001600160a01b0319166001600160a01b039290921691821790557f5b041fdbb07c066df55211c4936ce14e84504e79020b987168fa2022f1b13e798280a280f35b80fd5b509190346102845760203660031901126102845760ff6104026103fd611bb5565b61220b565b1691603283029280840460321490151715610421576020838351908152f35b634e487b7160e01b815260118452602490fd5b50903461023257826003193601126102325761044e612178565b3383526010602052808320918254928315610529576001015442106104db57503383526010602052826001828220828155015561048d82600e5461219b565b600e556009546104a990839033906001600160a01b03166121a8565b519081527fcb15bbbdc28223e1198be8308a502cd2706d6c42b33d19f96c1589dd5e241ae460203392a2600160075580f35b6020608492519162461bcd60e51b83528201526024808201527f5649503a20436f6f6c646f776e20706572696f64206973206e6f74206f766572604482015263081e595d60e21b6064820152fd5b506020606492519162461bcd60e51b8352820152601f60248201527f5649503a204e6f2070656e64696e6720756e7374616b652072657175657374006044820152fd5b509034610232576020918260031936011261080f57803561058c81611f67565b50600a80549161059b83611d01565b156107d557818194829089937a184f03e93ff9f4daa797ed6e38ed64bf6a1f01000000000000000090818110156107c8575b5050886d04ee2d6d415b85acef8100000000808410156107ba575b5050662386f26fc10000808310156107ab575b506305f5e1008083101561079c575b5061271080831015610790575b50506064811015610782575b101561077a575b600192838201908361065361063e84611c6f565b9361064b8a519586611c4d565b808552611c6f565b968660218b860196601f19809b01368937860101905b61074b575b5050508651988995819561068184611d01565b938b838216918260001461071f5750506001146106d0575b878b6102e88c6106c18d858d806106b48f8f51938491611b6d565b0103908101865285611c4d565b51928284938452830190611b90565b8a9495965082526000805160206124078339815191525b838310610705575050508401019190806106b46102e86106c1610699565b80549783018501979097528a968a949092019181016106e7565b60ff19168a820152851515909502890190940196508493506106b492506102e891506106c19050610699565b600019019082906f181899199a1a9b1b9c1cb0b131b232b360811b8282061a835304908782610669575061066e565b60010161062a565b606460029104920191610623565b93019290043880610617565b6008919492049101923861060a565b601091949204910192386105fb565b9401939091049088386105e8565b89955004915038806105cd565b845162461bcd60e51b815280850187905260146024820152731592540e8818985cd9555492481b9bdd081cd95d60621b6044820152606490fd5b8380fd5b8382346102845760803660031901126102845761082e611bb5565b610836611bd0565b6044359060643567ffffffffffffffff811161088257366023820112156108825761087f9481602461086d93369301359101611c8b565b92610879838383611d67565b33611fa2565b80f35b8580fd5b505034610284576020366003190112610284579081906001600160a01b036108ac611bb5565b1681526010602052206001815491015482519182526020820152f35b509034610232576020918260031936011261080f578035926108e8612178565b8315610d10573385526010815282852054610cbf576009546001600160a01b03929083168015610c7d5784516323b872dd60e01b8482015260249133838301523060448301528760648301526064825260a0820182811067ffffffffffffffff821117610c6b57875261095b9190612110565b338752600f835260018588206109728882546120ed565b8155019182549485156109b9575b88887f1449c6dd7851abc30abf37f57715f492010519147cc2652fbc38202c18a6ee9089898982519485528401523392a2600160075580f35b9091929450600c5490600019808314610c595760018301600c55828097558751916109e383611c1b565b8a83523315610c4357838b526002875280898c205416158015610c3c575b15610c02578390818c5260028852898c2054168015159283610bd0575b5033808d52600389528a8d2080546001019055828d52600289528a8d2080546001600160a01b03191682179055907fddf252ad1be2c89b69c2b068fc378daa952ba7f163c4a11628f55a4df523b3ef8d80a4610bba57333b156109805790848985610abb869b979c989996958b519586948594630a85bd0160e11b998a875233908701528501526044840152608060648401526084830190611b90565b038188335af1859181610b7a575b50610b2457505050503d600014610b1c573d610ae481611c6f565b90610af185519283611c4d565b81528091833d92013e5b80519182610b19575050505190633250574960e11b82523390820152fd5b01fd5b506060610afb565b939792969194936001600160e01b03191603610b6657507f1449c6dd7851abc30abf37f57715f492010519147cc2652fbc38202c18a6ee909050388080610980565b845190633250574960e11b82523390820152fd5b9091508681813d8311610bb3575b610b928183611c4d565b8101031261088257516001600160e01b031981168103610882579038610ac9565b503d610b88565b505084516339e3563760e11b8152908101879052fd5b600083815260046020526040902080546001600160a01b0319169055818d52600389528a8d2090815401905538610a1e565b885162461bcd60e51b8152808601889052601581880152745649503a204e6f6e2d7472616e7366657261626c6560581b6044820152606490fd5b508a610a01565b8851633250574960e11b81528086018c90528690fd5b634e487b7160e01b8a5260118452848afd5b634e487b7160e01b8a5260418552838afd5b5060649184519162461bcd60e51b8352820152601a60248201527f5649503a20546f6b656e2061646472657373206e6f74207365740000000000006044820152fd5b608492519162461bcd60e51b8352820152602860248201527f5649503a20596f75206861766520612070656e64696e6720756e7374616b6520604482015267746f20636c61696d60c01b6064820152fd5b606492519162461bcd60e51b8352820152601360248201527205649503a2043616e6e6f74207374616b65203606c1b6044820152fd5b83823461028457602036600319011261028457610d61611d3b565b35600d5580f35b509034610232578060031936011261023257610d82611bb5565b9060243591821515809303610e05576001600160a01b0316928315610df05750338452600560205280842083855260205280842060ff1981541660ff8416179055519081527f17307eab39ab6107e8899845ad3d59bd9653f200f220920489ca2b5937696c3160203392a380f35b836024925191630b61174360e31b8352820152fd5b8480fd5b505034610284578160031936011261028457805190826001805491610e2d83611d01565b808652928281169081156103495750600114610e55575050506102d6826102e8940383611c4d565b94508085527fb10e2d527612073b26eecdfd717e6a320cf44b4afac2b0732d9fcbe2b7fa0cf65b828610610e99575050506102d68260206102e895820101946102c4565b80546020878701810191909152909501948101610e7c565b5091903461028457610ec236611cc2565b90610ecb611d3b565b81519367ffffffffffffffff85116110725750610ee9600b54611d01565b601f811161100f575b50602093601f8111600114610f69579081610f58939285967f905d981207a7d0b6c62cc46ab0be2a076d0298e4a86d0ab79882dbd01ac373789691610f5e575b508160011b916000199060031b1c191617600b5551918291602083526020830190611b90565b0390a180f35b905083015138610f32565b600b84527f0175b7a638427703f0dbe7bb9bbf987a2551717b34e79f33b5b1008d1fa01db9601f198216855b818110610ff75750916001917f905d981207a7d0b6c62cc46ab0be2a076d0298e4a86d0ab79882dbd01ac37378969782610f5897969510610fde575b5050811b01600b556102d6565b85015160001960f88460031b161c191690553880610fd1565b85880151835560209788019760019093019201610f95565b600b84527f0175b7a638427703f0dbe7bb9bbf987a2551717b34e79f33b5b1008d1fa01db9601f860160051c81019160208710611068575b601f0160051c01905b81811061105d5750610ef2565b848155600101611050565b9091508190611047565b634e487b7160e01b845260419052602483fd5b505034610284576020366003190112610284579081906001600160a01b036110ab611bb5565b168152600f602052206001815491015482519182526020820152f35b50503461028457816003193601126102845760065490516001600160a01b039091168152602090f35b505034610284578160031936011261028457602090600d549051908152f35b83346103d957806003193601126103d957611128611d3b565b600680546001600160a01b0319811690915581906001600160a01b03167f8be0079c531659141344cd1fd0a4f28419497f9722a3daafe3b4186f6b6457e08280a380f35b5091346103d95760203660031901126103d9576001600160a01b0361118f611bb5565b169283156111ac5750806020938392526003845220549051908152f35b91516322718ad960e21b815291820152602490fd5b50503461028457816003193601126102845780519082600a546111e381611d01565b80855291600191808316908115610349575060011461120e575050506102d6826102e8940383611c4d565b9450600a85526000805160206124078339815191525b828610611241575050506102d68260206102e895820101946102c4565b80546020878701810191909152909501948101611224565b83346103d95760203660031901126103d957611273611bb5565b61127b611d3b565b600880546001600160a01b0319166001600160a01b039290921691821790557f45e919947eac4ba070dccb2545cf1e7e330fd110330232d74a6996e9e2308f248280a280f35b505034610284578160031936011261028457602090600e549051908152f35b50503461028457816003193601126102845760085490516001600160a01b039091168152602090f35b5091346103d95760203660031901126103d9575061132960209235611f67565b90516001600160a01b039091168152f35b509190346102845761134b36611cc2565b90611354611d3b565b81519367ffffffffffffffff85116110725750611372600a54611d01565b601f8111611480575b50602093601f81116001146113ec579081610f58939285967ff9c7803e94e0d3c02900d8a90893a6d5e90dd04d32a4cfe825520f82bf9f32f696916113e1575b508160011b916000199060031b1c191617600a5551918291602083526020830190611b90565b9050830151386113bb565b600a8452600080516020612407833981519152601f198216855b8181106114685750916001917ff9c7803e94e0d3c02900d8a90893a6d5e90dd04d32a4cfe825520f82bf9f32f6969782610f589796951061144f575b5050811b01600a556102d6565b85015160001960f88460031b161c191690553880611442565b85880151835560209788019760019093019201611406565b600a8452600080516020612407833981519152601f860160051c810191602087106114c7575b601f0160051c01905b8181106114bc575061137b565b8481556001016114af565b90915081906114a6565b50503461028457816003193601126102845760095490516001600160a01b039091168152602090f35b5050346102845761087f9061150e36611be6565b9192519261151b84611c1b565b858452610879838383611d67565b5050346102845760203660031901126102845760209060ff61154c6103fd611bb5565b915191168152f35b83346103d95761087f61156636611be6565b91611d67565b5091903461028457602090816003193601126102325783359161158d612178565b338452600f81528184208315158061182b575b156117e8573385526010825282852054611791576115bf84825461219b565b81556115cd84600e546120ed565b600e5580541580611784575b61166e575b506115eb600d54426120ed565b90825183810181811067ffffffffffffffff82111761165b577f57e41df54512c76148b5ba9b643d149752b0d35e493b969bd017d0a3fe5228cf959697508452858152600182820184815233895260108452858920925183555191015582519485528401523392a2600160075580f35b634e487b7160e01b875260418852602487fd5b600101805480865260028352838620546001600160a01b0390811615801561177c575b15611741578187526002845284872054168187821592831561170e575b8282526002875287822080546001600160a01b03191690557fddf252ad1be2c89b69c2b068fc378daa952ba7f163c4a11628f55a4df523b3ef8280a46116f85750849055386115de565b86602491855191637e27328960e01b8352820152fd5b600083815260046020526040902080546001600160a01b03191690558082526003875287822080546000190190556116ae565b845162461bcd60e51b815280890185905260156024820152745649503a204e6f6e2d7472616e7366657261626c6560581b6044820152606490fd5b506001611691565b50600181015415156115d9565b825162461bcd60e51b8152808701839052602b60248201527f5649503a2050726576696f757320756e7374616b65207265717565737420737460448201526a696c6c2070656e64696e6760a81b6064820152608490fd5b825162461bcd60e51b8152808701839052601b60248201527f5649503a20496e76616c696420756e7374616b6520616d6f756e7400000000006044820152606490fd5b5080548411156115a0565b508290346102845760208060031936011261023257813591611856611d3b565b60095485516370a0823160e01b815230818401526001600160a01b0391821693919291908181602481885afa8015611938578790611905575b61189d9150600e549061219b565b85116118b557505061087f93945060065416906121a8565b865162461bcd60e51b815291820152602560248201527f5649503a20416d6f756e742065786365656473206e6f6e2d70656e64696e672060448201526466756e647360d81b606482015260849150fd5b508181813d8311611931575b61191b8183611c4d565b8101031261192d5761189d905161188f565b8680fd5b503d611911565b88513d89823e3d90fd5b50903461023257806003193601126102325761195c611bb5565b9160243561196981611f67565b33151580611a0b575b806119e2575b6119cc576001600160a01b039485169482918691167f8c5be1e5ebec7d5bd14f71427d1e84f3dd0314c0f7b2291e5b200ac8c7c3b9258880a48452602052822080546001600160a01b031916909117905580f35b835163a9fbf51f60e01b81523381850152602490fd5b506001600160a01b03811686526005602090815284872033885290528386205460ff1615611978565b506001600160a01b038116331415611972565b503461023257602036600319011261023257918260209335611a3f81611f67565b50825283528190205490516001600160a01b039091168152f35b505034610284578160031936011261028457805190828054611a7a81611d01565b808552916001918083169081156103495750600114611aa5575050506102d6826102e8940383611c4d565b80809650527f290decd9548b62a8d60345a988386fc84ba6bc95484008f6362f93160ef3e5635b828610611ae9575050506102d68260206102e895820101946102c4565b80546020878701810191909152909501948101611acc565b92505034610232576020366003190112610232573563ffffffff60e01b811680910361023257602092506380ac58cd60e01b8114908115611b5c575b8115611b4b575b5015158152f35b6301ffc9a760e01b14905038611b44565b635b5e139f60e01b81149150611b3d565b60005b838110611b805750506000910152565b8181015183820152602001611b70565b90602091611ba981518092818552858086019101611b6d565b601f01601f1916010190565b600435906001600160a01b0382168203611bcb57565b600080fd5b602435906001600160a01b0382168203611bcb57565b6060906003190112611bcb576001600160a01b03906004358281168103611bcb57916024359081168103611bcb579060443590565b6020810190811067ffffffffffffffff821117611c3757604052565b634e487b7160e01b600052604160045260246000fd5b90601f8019910116810190811067ffffffffffffffff821117611c3757604052565b67ffffffffffffffff8111611c3757601f01601f191660200190565b929192611c9782611c6f565b91611ca56040519384611c4d565b829481845281830111611bcb578281602093846000960137010152565b6020600319820112611bcb576004359067ffffffffffffffff8211611bcb5780602383011215611bcb57816024611cfe93600401359101611c8b565b90565b90600182811c92168015611d31575b6020831014611d1b57565b634e487b7160e01b600052602260045260246000fd5b91607f1691611d10565b6006546001600160a01b03163303611d4f57565b60405163118cdaa760e01b8152336004820152602490fd5b6001600160a01b039182169290918315611f4e5760009282845260209460028652604095838787205416158015611f47575b15611f0c579084918287526002815284888820541696879133151580611e73575b509060027fddf252ad1be2c89b69c2b068fc378daa952ba7f163c4a11628f55a4df523b3ef9284611e40575b858352600381528b8320805460010190558683525289812080546001600160a01b0319168517905580a41692838303611e1f5750505050565b6064945051926364283d7b60e01b8452600484015260248301526044820152fd5b600087815260046020526040902080546001600160a01b0319169055848352600381528b83208054600019019055611de6565b91939450915080611ecb575b15611e8f57859291879138611dba565b878688611eac576024915190637e27328960e01b82526004820152fd5b905163177e802f60e01b81523360048201526024810191909152604490fd5b503387148015611ef0575b80611e7f5750858252600481523385898420541614611e7f565b5086825260058152878220338352815260ff8883205416611ed6565b60649087519062461bcd60e51b8252600482015260156024820152745649503a204e6f6e2d7472616e7366657261626c6560581b6044820152fd5b5085611d99565b604051633250574960e11b815260006004820152602490fd5b6000818152600260205260409020546001600160a01b0316908115611f8a575090565b60249060405190637e27328960e01b82526004820152fd5b909192833b611fb3575b5050505050565b604051630a85bd0160e11b8082526001600160a01b039384166004830152938316602482015260448101919091526080606482015260209591909316939091908390612003906084830190611b90565b039285816000958187895af18491816120ad575b50612077575050503d60001461206f573d61203181611c6f565b9061203f6040519283611c4d565b81528091843d92013e5b8051928361206a57604051633250574960e11b815260048101849052602490fd5b019050fd5b506060612049565b919450915063ffffffff60e01b160361209557503880808080611fac565b60249060405190633250574960e11b82526004820152fd5b9091508681813d83116120e6575b6120c58183611c4d565b81010312610e0557516001600160e01b031981168103610e05579038612017565b503d6120bb565b919082018092116120fa57565b634e487b7160e01b600052601160045260246000fd5b906000602091828151910182855af11561216c576000513d61216357506001600160a01b0381163b155b6121415750565b604051635274afe760e01b81526001600160a01b039091166004820152602490fd5b6001141561213a565b6040513d6000823e3d90fd5b600260075414612189576002600755565b604051633ee5aeb560e01b8152600490fd5b919082039182116120fa57565b60405163a9059cbb60e01b60208201526001600160a01b039290921660248301526044808301939093529181526121e9916121e4606483611c4d565b612110565b565b81156121f5570490565b634e487b7160e01b600052601260045260246000fd5b6001600160a01b039081166000908152600f60205260408120549091811580156122da575b61229957602090600854169160246040518094819363b6395e3160e01b835260048301525afa9081156122cf57829161229e575b5068056bc75e2d6310000090818110612299576122829250046122e6565b60ff8111612291575b60ff1690565b5060ff61228b565b505090565b90506020813d82116122c7575b816122b860209383611c4d565b81010312610284575138612264565b3d91506122ab565b6040513d84823e3d90fd5b50806008541615612230565b600180821115612402576123a3908083600160801b8110156123f0575b80600160401b60049210156123e3575b6401000000008110156123d6575b620100008110156123c9575b6101008110156123bd575b60108110156123b1575b10156123aa575b600302811c61235881856121eb565b01811c61236581856121eb565b01811c61237281856121eb565b01811c61237f81856121eb565b01811c61238c81856121eb565b01811c61239981856121eb565b01901c80926121eb565b8111900390565b811b612349565b811c9160021b91612342565b60081c91811b91612338565b60101c9160081b9161232d565b60201c9160101b91612321565b60401c9160201b91612313565b50600160401b9050608084901c612303565b509056fec65a7bb8d6351c1cf70c95a316cc6a92839c986682d98bc35f958f4883f9d2a8a26469706673582212202775552c2310e5ba9009956a7ba543e802d5bc918b923318874c8af76b14dbfd64736f6c63430008140033",
  "linkReferences": {},
  "deployedLinkReferences": {}
}