{
  "_format": "hh-sol-artifact-1",
  "contractName": "DungeonMaster",
  "sourceName": "contracts/current/core/DungeonMaster.sol",
  "abi": [
    {
      "inputs": [
        {
          "internalType": "address",
          "name": "_initialOwner",
          "type": "address"
        }
      ],
      "stateMutability": "nonpayable",
      "type": "constructor"
    },
    {
      "inputs": [],
      "name": "EnforcedPause",
      "type": "error"
    },
    {
      "inputs": [],
      "name": "ExpectedPause",
      "type": "error"
    },
    {
      "inputs": [
        {
          "internalType": "address",
          "name": "owner",
          "type": "address"
        }
      ],
      "name": "OwnableInvalidOwner",
      "type": "error"
    },
    {
      "inputs": [
        {
          "internalType": "address",
          "name": "account",
          "type": "address"
        }
      ],
      "name": "OwnableUnauthorizedAccount",
      "type": "error"
    },
    {
      "inputs": [],
      "name": "ReentrancyGuardReentrantCall",
      "type": "error"
    },
    {
      "inputs": [
        {
          "internalType": "address",
          "name": "token",
          "type": "address"
        }
      ],
      "name": "SafeERC20FailedOperation",
      "type": "error"
    },
    {
      "anonymous": false,
      "inputs": [
        {
          "indexed": true,
          "internalType": "address",
          "name": "newAddress",
          "type": "address"
        }
      ],
      "name": "DungeonCoreSet",
      "type": "event"
    },
    {
      "anonymous": false,
      "inputs": [
        {
          "indexed": true,
          "internalType": "uint256",
          "name": "dungeonId",
          "type": "uint256"
        },
        {
          "indexed": false,
          "internalType": "uint256",
          "name": "requiredPower",
          "type": "uint256"
        },
        {
          "indexed": false,
          "internalType": "uint256",
          "name": "rewardAmountUSD",
          "type": "uint256"
        },
        {
          "indexed": false,
          "internalType": "uint8",
          "name": "baseSuccessRate",
          "type": "uint8"
        }
      ],
      "name": "DungeonSet",
      "type": "event"
    },
    {
      "anonymous": false,
      "inputs": [
        {
          "indexed": true,
          "internalType": "address",
          "name": "newAddress",
          "type": "address"
        }
      ],
      "name": "DungeonStorageSet",
      "type": "event"
    },
    {
      "anonymous": false,
      "inputs": [
        {
          "indexed": false,
          "internalType": "uint256",
          "name": "newSeed",
          "type": "uint256"
        }
      ],
      "name": "DynamicSeedUpdated",
      "type": "event"
    },
    {
      "anonymous": false,
      "inputs": [
        {
          "indexed": true,
          "internalType": "address",
          "name": "player",
          "type": "address"
        },
        {
          "indexed": false,
          "internalType": "uint256",
          "name": "partyId",
          "type": "uint256"
        },
        {
          "indexed": false,
          "internalType": "uint256",
          "name": "dungeonId",
          "type": "uint256"
        },
        {
          "indexed": false,
          "internalType": "uint256",
          "name": "blockNumber",
          "type": "uint256"
        }
      ],
      "name": "ExpeditionCommitted",
      "type": "event"
    },
    {
      "anonymous": false,
      "inputs": [
        {
          "indexed": true,
          "internalType": "address",
          "name": "player",
          "type": "address"
        },
        {
          "indexed": true,
          "internalType": "uint256",
          "name": "partyId",
          "type": "uint256"
        },
        {
          "indexed": false,
          "internalType": "bool",
          "name": "success",
          "type": "bool"
        },
        {
          "indexed": false,
          "internalType": "uint256",
          "name": "reward",
          "type": "uint256"
        },
        {
          "indexed": false,
          "internalType": "uint256",
          "name": "expGained",
          "type": "uint256"
        }
      ],
      "name": "ExpeditionFulfilled",
      "type": "event"
    },
    {
      "anonymous": false,
      "inputs": [
        {
          "indexed": true,
          "internalType": "address",
          "name": "player",
          "type": "address"
        },
        {
          "indexed": false,
          "internalType": "uint256",
          "name": "partyId",
          "type": "uint256"
        },
        {
          "indexed": false,
          "internalType": "bool",
          "name": "success",
          "type": "bool"
        }
      ],
      "name": "ExpeditionRevealed",
      "type": "event"
    },
    {
      "anonymous": false,
      "inputs": [
        {
          "indexed": true,
          "internalType": "address",
          "name": "user",
          "type": "address"
        },
        {
          "indexed": true,
          "internalType": "address",
          "name": "executor",
          "type": "address"
        }
      ],
      "name": "ForcedRevealExecuted",
      "type": "event"
    },
    {
      "anonymous": false,
      "inputs": [
        {
          "indexed": true,
          "internalType": "address",
          "name": "previousOwner",
          "type": "address"
        },
        {
          "indexed": true,
          "internalType": "address",
          "name": "newOwner",
          "type": "address"
        }
      ],
      "name": "OwnershipTransferred",
      "type": "event"
    },
    {
      "anonymous": false,
      "inputs": [
        {
          "indexed": false,
          "internalType": "address",
          "name": "account",
          "type": "address"
        }
      ],
      "name": "Paused",
      "type": "event"
    },
    {
      "anonymous": false,
      "inputs": [
        {
          "indexed": true,
          "internalType": "address",
          "name": "user",
          "type": "address"
        },
        {
          "indexed": true,
          "internalType": "address",
          "name": "proxy",
          "type": "address"
        }
      ],
      "name": "RevealedByProxy",
      "type": "event"
    },
    {
      "anonymous": false,
      "inputs": [
        {
          "indexed": true,
          "internalType": "address",
          "name": "user",
          "type": "address"
        },
        {
          "indexed": true,
          "internalType": "uint256",
          "name": "partyId",
          "type": "uint256"
        },
        {
          "indexed": false,
          "internalType": "uint256",
          "name": "amount",
          "type": "uint256"
        }
      ],
      "name": "RewardsBanked",
      "type": "event"
    },
    {
      "anonymous": false,
      "inputs": [
        {
          "indexed": true,
          "internalType": "address",
          "name": "newAddress",
          "type": "address"
        }
      ],
      "name": "SoulShardTokenSet",
      "type": "event"
    },
    {
      "anonymous": false,
      "inputs": [
        {
          "indexed": false,
          "internalType": "address",
          "name": "account",
          "type": "address"
        }
      ],
      "name": "Unpaused",
      "type": "event"
    },
    {
      "anonymous": false,
      "inputs": [
        {
          "indexed": true,
          "internalType": "address",
          "name": "vrfManager",
          "type": "address"
        }
      ],
      "name": "VRFManagerSet",
      "type": "event"
    },
    {
      "inputs": [],
      "name": "COOLDOWN_PERIOD",
      "outputs": [
        {
          "internalType": "uint256",
          "name": "",
          "type": "uint256"
        }
      ],
      "stateMutability": "view",
      "type": "function"
    },
    {
      "inputs": [],
      "name": "MAX_REVEAL_WINDOW",
      "outputs": [
        {
          "internalType": "uint256",
          "name": "",
          "type": "uint256"
        }
      ],
      "stateMutability": "view",
      "type": "function"
    },
    {
      "inputs": [],
      "name": "REVEAL_BLOCK_DELAY",
      "outputs": [
        {
          "internalType": "uint256",
          "name": "",
          "type": "uint256"
        }
      ],
      "stateMutability": "view",
      "type": "function"
    },
    {
      "inputs": [
        {
          "internalType": "address",
          "name": "_user",
          "type": "address"
        }
      ],
      "name": "canForceReveal",
      "outputs": [
        {
          "internalType": "bool",
          "name": "",
          "type": "bool"
        }
      ],
      "stateMutability": "view",
      "type": "function"
    },
    {
      "inputs": [
        {
          "internalType": "address",
          "name": "_user",
          "type": "address"
        }
      ],
      "name": "canReveal",
      "outputs": [
        {
          "internalType": "bool",
          "name": "",
          "type": "bool"
        }
      ],
      "stateMutability": "view",
      "type": "function"
    },
    {
      "inputs": [
        {
          "internalType": "uint256",
          "name": "_partyId",
          "type": "uint256"
        }
      ],
      "name": "claimRewards",
      "outputs": [],
      "stateMutability": "view",
      "type": "function"
    },
    {
      "inputs": [],
      "name": "dungeonCore",
      "outputs": [
        {
          "internalType": "contract IDungeonCore",
          "name": "",
          "type": "address"
        }
      ],
      "stateMutability": "view",
      "type": "function"
    },
    {
      "inputs": [],
      "name": "dungeonStorage",
      "outputs": [
        {
          "internalType": "contract IDungeonStorage",
          "name": "",
          "type": "address"
        }
      ],
      "stateMutability": "view",
      "type": "function"
    },
    {
      "inputs": [],
      "name": "dynamicSeed",
      "outputs": [
        {
          "internalType": "uint256",
          "name": "",
          "type": "uint256"
        }
      ],
      "stateMutability": "view",
      "type": "function"
    },
    {
      "inputs": [],
      "name": "explorationFee",
      "outputs": [
        {
          "internalType": "uint256",
          "name": "",
          "type": "uint256"
        }
      ],
      "stateMutability": "view",
      "type": "function"
    },
    {
      "inputs": [
        {
          "internalType": "address",
          "name": "user",
          "type": "address"
        }
      ],
      "name": "forceRevealExpired",
      "outputs": [],
      "stateMutability": "nonpayable",
      "type": "function"
    },
    {
      "inputs": [
        {
          "internalType": "uint256",
          "name": "_dungeonId",
          "type": "uint256"
        }
      ],
      "name": "getDungeon",
      "outputs": [
        {
          "internalType": "uint256",
          "name": "requiredPower",
          "type": "uint256"
        },
        {
          "internalType": "uint256",
          "name": "rewardAmountUSD",
          "type": "uint256"
        },
        {
          "internalType": "uint8",
          "name": "baseSuccessRate",
          "type": "uint8"
        },
        {
          "internalType": "bool",
          "name": "isInitialized",
          "type": "bool"
        }
      ],
      "stateMutability": "view",
      "type": "function"
    },
    {
      "inputs": [
        {
          "internalType": "uint256",
          "name": "_partyId",
          "type": "uint256"
        }
      ],
      "name": "getPartyStatus",
      "outputs": [
        {
          "internalType": "uint256",
          "name": "cooldownEndsAt",
          "type": "uint256"
        },
        {
          "internalType": "uint256",
          "name": "unclaimedRewards",
          "type": "uint256"
        }
      ],
      "stateMutability": "view",
      "type": "function"
    },
    {
      "inputs": [
        {
          "internalType": "address",
          "name": "_user",
          "type": "address"
        }
      ],
      "name": "getRevealBlocksRemaining",
      "outputs": [
        {
          "internalType": "uint256",
          "name": "",
          "type": "uint256"
        }
      ],
      "stateMutability": "view",
      "type": "function"
    },
    {
      "inputs": [
        {
          "internalType": "address",
          "name": "_user",
          "type": "address"
        }
      ],
      "name": "getUserCommitment",
      "outputs": [
        {
          "components": [
            {
              "internalType": "uint256",
              "name": "blockNumber",
              "type": "uint256"
            },
            {
              "internalType": "uint256",
              "name": "partyId",
              "type": "uint256"
            },
            {
              "internalType": "uint256",
              "name": "dungeonId",
              "type": "uint256"
            },
            {
              "internalType": "address",
              "name": "player",
              "type": "address"
            },
            {
              "internalType": "bytes32",
              "name": "commitment",
              "type": "bytes32"
            },
            {
              "internalType": "bool",
              "name": "fulfilled",
              "type": "bool"
            },
            {
              "internalType": "uint256",
              "name": "payment",
              "type": "uint256"
            }
          ],
          "internalType": "struct DungeonMaster.ExpeditionCommitment",
          "name": "",
          "type": "tuple"
        }
      ],
      "stateMutability": "view",
      "type": "function"
    },
    {
      "inputs": [],
      "name": "globalRewardMultiplier",
      "outputs": [
        {
          "internalType": "uint256",
          "name": "",
          "type": "uint256"
        }
      ],
      "stateMutability": "view",
      "type": "function"
    },
    {
      "inputs": [
        {
          "internalType": "uint256",
          "name": "requestId",
          "type": "uint256"
        },
        {
          "internalType": "uint256[]",
          "name": "randomWords",
          "type": "uint256[]"
        }
      ],
      "name": "onVRFFulfilled",
      "outputs": [],
      "stateMutability": "nonpayable",
      "type": "function"
    },
    {
      "inputs": [],
      "name": "owner",
      "outputs": [
        {
          "internalType": "address",
          "name": "",
          "type": "address"
        }
      ],
      "stateMutability": "view",
      "type": "function"
    },
    {
      "inputs": [],
      "name": "pause",
      "outputs": [],
      "stateMutability": "nonpayable",
      "type": "function"
    },
    {
      "inputs": [],
      "name": "paused",
      "outputs": [
        {
          "internalType": "bool",
          "name": "",
          "type": "bool"
        }
      ],
      "stateMutability": "view",
      "type": "function"
    },
    {
      "inputs": [],
      "name": "renounceOwnership",
      "outputs": [],
      "stateMutability": "nonpayable",
      "type": "function"
    },
    {
      "inputs": [
        {
          "internalType": "uint256",
          "name": "_partyId",
          "type": "uint256"
        },
        {
          "internalType": "uint256",
          "name": "_dungeonId",
          "type": "uint256"
        }
      ],
      "name": "requestExpedition",
      "outputs": [],
      "stateMutability": "payable",
      "type": "function"
    },
    {
      "inputs": [],
      "name": "revealExpedition",
      "outputs": [],
      "stateMutability": "nonpayable",
      "type": "function"
    },
    {
      "inputs": [
        {
          "internalType": "address",
          "name": "user",
          "type": "address"
        }
      ],
      "name": "revealExpeditionFor",
      "outputs": [],
      "stateMutability": "nonpayable",
      "type": "function"
    },
    {
      "inputs": [
        {
          "internalType": "uint256",
          "name": "_dungeonId",
          "type": "uint256"
        },
        {
          "internalType": "uint256",
          "name": "_requiredPower",
          "type": "uint256"
        },
        {
          "internalType": "uint256",
          "name": "_rewardAmountUSD",
          "type": "uint256"
        },
        {
          "internalType": "uint8",
          "name": "_baseSuccessRate",
          "type": "uint8"
        }
      ],
      "name": "setDungeon",
      "outputs": [],
      "stateMutability": "nonpayable",
      "type": "function"
    },
    {
      "inputs": [
        {
          "internalType": "address",
          "name": "_newAddress",
          "type": "address"
        }
      ],
      "name": "setDungeonCore",
      "outputs": [],
      "stateMutability": "nonpayable",
      "type": "function"
    },
    {
      "inputs": [
        {
          "internalType": "address",
          "name": "_newAddress",
          "type": "address"
        }
      ],
      "name": "setDungeonStorage",
      "outputs": [],
      "stateMutability": "nonpayable",
      "type": "function"
    },
    {
      "inputs": [
        {
          "internalType": "uint256",
          "name": "_newFee",
          "type": "uint256"
        }
      ],
      "name": "setExplorationFee",
      "outputs": [],
      "stateMutability": "nonpayable",
      "type": "function"
    },
    {
      "inputs": [
        {
          "internalType": "uint256",
          "name": "_newMultiplier",
          "type": "uint256"
        }
      ],
      "name": "setGlobalRewardMultiplier",
      "outputs": [],
      "stateMutability": "nonpayable",
      "type": "function"
    },
    {
      "inputs": [
        {
          "internalType": "address",
          "name": "_newAddress",
          "type": "address"
        }
      ],
      "name": "setSoulShardToken",
      "outputs": [],
      "stateMutability": "nonpayable",
      "type": "function"
    },
    {
      "inputs": [
        {
          "internalType": "address",
          "name": "_vrfManager",
          "type": "address"
        }
      ],
      "name": "setVRFManager",
      "outputs": [],
      "stateMutability": "nonpayable",
      "type": "function"
    },
    {
      "inputs": [],
      "name": "soulShardToken",
      "outputs": [
        {
          "internalType": "contract IERC20",
          "name": "",
          "type": "address"
        }
      ],
      "stateMutability": "view",
      "type": "function"
    },
    {
      "inputs": [
        {
          "internalType": "address",
          "name": "newOwner",
          "type": "address"
        }
      ],
      "name": "transferOwnership",
      "outputs": [],
      "stateMutability": "nonpayable",
      "type": "function"
    },
    {
      "inputs": [],
      "name": "unpause",
      "outputs": [],
      "stateMutability": "nonpayable",
      "type": "function"
    },
    {
      "inputs": [
        {
          "internalType": "uint256",
          "name": "_newSeed",
          "type": "uint256"
        }
      ],
      "name": "updateDynamicSeed",
      "outputs": [],
      "stateMutability": "nonpayable",
      "type": "function"
    },
    {
      "inputs": [
        {
          "internalType": "address",
          "name": "",
          "type": "address"
        }
      ],
      "name": "userCommitments",
      "outputs": [
        {
          "internalType": "uint256",
          "name": "blockNumber",
          "type": "uint256"
        },
        {
          "internalType": "uint256",
          "name": "partyId",
          "type": "uint256"
        },
        {
          "internalType": "uint256",
          "name": "dungeonId",
          "type": "uint256"
        },
        {
          "internalType": "address",
          "name": "player",
          "type": "address"
        },
        {
          "internalType": "bytes32",
          "name": "commitment",
          "type": "bytes32"
        },
        {
          "internalType": "bool",
          "name": "fulfilled",
          "type": "bool"
        },
        {
          "internalType": "uint256",
          "name": "payment",
          "type": "uint256"
        }
      ],
      "stateMutability": "view",
      "type": "function"
    },
    {
      "inputs": [],
      "name": "vrfManager",
      "outputs": [
        {
          "internalType": "address",
          "name": "",
          "type": "address"
        }
      ],
      "stateMutability": "view",
      "type": "function"
    },
    {
      "inputs": [],
      "name": "withdrawNativeFunding",
      "outputs": [],
      "stateMutability": "nonpayable",
      "type": "function"
    },
    {
      "inputs": [],
      "name": "withdrawSoulShard",
      "outputs": [],
      "stateMutability": "nonpayable",
      "type": "function"
    }
  ],
  "bytecode": "0x608034620000d757601f62002d0138819003918201601f19168301916001600160401b03831184841017620000dc57808492602094604052833981010312620000d757516001600160a01b039081811690819003620000d7578015620000be57600080546001600160a01b03198116831782556040519316907f8be0079c531659141344cd1fd0a4f28419497f9722a3daafe3b4186f6b6457e09080a3600180556103e86007556605543df729c000600855612c0e9081620000f38239f35b604051631e4fbdf760e01b815260006004820152602490fd5b600080fd5b634e487b7160e01b600052604160045260246000fdfe60806040908082526004908136101561001757600080fd5b600092833560e01c9182630962ef791461137157508163166829e3146113385781631dafec00146111ca5781632a32e8d4146110da5781633706dc4b146110bd5781633a92c0ac1461109e5781633f4ba83a146110335781633f9e8acd14611011578163415d6a0114610f1c5781634403940214610ef35781635896cccc14610ea55781635b6ef03214610e215781635c975abb14610dfd57816367cfab5814610dd05781636ab1b29b14610d565781636e99d52f14610d385781636eb5d36114610cd1578163715018a614610c775781637a33eabc14610c105781637fa2309314610bdf5781638456cb5914610b845781638973bc7e14610b685781638da5cb5b14610b40578163936315d614610b05578163a20fd5c414610a0a578163a9119827146109e1578163ad0d43c2146109c2578163b5b5d43914610995578163bdb771761461081a578163c143c4a8146107e9578163c1b39a3e146107c0578163c47d4357146106f9578163cc64cb7c146103ab578163d96fe72d1461038f578163db4b826814610328578163e625d1f414610306578163f2fde38b14610273578163f7cb333e14610254575063fc149903146101d357600080fd5b3461025057602036600319011261025057356001600160a01b0381169081810361024c5761021090610203611c52565b61020b611c34565b611d9a565b803303610220575b506001805580f35b33907f03b940e5594caf9c29015b39d851054d069d150d662629de6bbdc3086fc163cd8380a338610218565b8280fd5b5080fd5b8390346102505781600319360112610250576020906008549051908152f35b90503461024c57602036600319011261024c576001600160a01b03823581811693919290849003610302576102a661149d565b83156102ec575050600054826001600160601b0360a01b821617600055167f8be0079c531659141344cd1fd0a4f28419497f9722a3daafe3b4186f6b6457e0600080a380f35b51631e4fbdf760e01b8152908101849052602490fd5b8480fd5b5050346102505760203660031901126102505761032161149d565b3560085580f35b5050346102505760203660031901126102505780356001600160a01b038116919082900361024c5761035861149d565b80546001600160a01b031916821790557f5b041fdbb07c066df55211c4936ce14e84504e79020b987168fa2022f1b13e798280a280f35b8390346102505781600319360112610250576020905160038152f35b90503461024c57602090816003193601126106f5576001600160a01b038335818116949193908590036106f1576103e0611c52565b6103e8611c34565b8486526009815282862061041060ff6005835493610407851515611c75565b01541615611cc1565b60038101908181116106de57610102018091116106cb574311156106955784600052600981528260002060058101600160ff198254161790558460025460081c168451916303aae71960e61b835283838681855afa92831561068a5790879160009461066b575b50846001820194602486548a5195869384926331a9108f60e11b84528c840152165afa918215610660578589928892600095610641575b506003810194848654169b8c9116146104c6906124e6565b600201546104d390612869565b516014900494895192838092637aa6b20b60e01b82525afa90811561063657908291600091610609575b501691823b15610604578751633cc01ef160e21b81526001600160a01b0390991696890196875260208701939093526105c897600996600080516020612b99833981519152948994909291600091839182908490829060400103925af16105f5575b50541692548084600080516020612bb9833981519152606085516000815260008a820152600087820152a38151908152600085820152a2846000525260002060066000918281558260018201558260028201558260038201558260048201558260058201550155565b33907f6ccc5e45adc708ef83223a38f9c21bfd7f45a9fa7f45f4d7e2db8224ec8fe3c28380a36001805580f35b6105fe90611433565b3861055f565b600080fd5b6106299150873d891161062f575b6106218183611463565b8101906114c9565b386104fd565b503d610617565b88513d6000823e3d90fd5b610659919550823d841161062f576106218183611463565b93386104ae565b87513d6000823e3d90fd5b610683919450853d871161062f576106218183611463565b9238610477565b86513d6000823e3d90fd5b606492519162461bcd60e51b8352820152601360248201527211134e88139bdd08195e1c1a5c9959081e595d606a1b6044820152fd5b634e487b7160e01b875260118352602487fd5b634e487b7160e01b885260118452602488fd5b8580fd5b8380fd5b90503461024c578260031936011261024c5761071361149d565b8280808060018060a01b0381541647905af13d156107bb573d67ffffffffffffffff81116107a857825190610752601f8201601f191660200183611463565b81528460203d92013e5b15610765578280f35b906020606492519162461bcd60e51b8352820152601a60248201527f444d3a204e6174697665207769746864726177206661696c65640000000000006044820152fd5b634e487b7160e01b855260418452602485fd5b61075c565b83903461025057816003193601126102505760055490516001600160a01b039091168152602090f35b36600319011290506102505761081390610801611c52565b610809611c34565b60243590356114e8565b6001805580f35b90503461024c57608036600319011261024c57813591602435916044356064359260ff84168094036109915761084e61149d565b60648411610955578683519161086383611417565b86835260208301848152858401878152600160608601908152600354909391906001600160a01b0316803b156106f1578b9460ff879360a4968c519a8b998a98631ba7791760e01b8a528901525160248801525160448701525116606485015251151560848401525af1801561094b5761090f575b50815193845260208401528201527ffaa9851dea424ac560635cbbb6a715dbd9be8d55803dfebaadc3730a6a83f1e290606090a280f35b9160609391966109407ffaa9851dea424ac560635cbbb6a715dbd9be8d55803dfebaadc3730a6a83f1e29694611433565b9691935091936108d8565b83513d89823e3d90fd5b606490602084519162461bcd60e51b835282015260166024820152750444d3a20537563636573732072617465203e203130360541b6044820152fd5b8680fd5b83346109bf57806003193601126109bf576109ae611c52565b6109b6611c34565b61081333611d9a565b80fd5b8390346102505781600319360112610250576020906007549051908152f35b83903461025057816003193601126102505760035490516001600160a01b039091168152602090f35b83915034610250576020366003190112610250576001600160a01b038335818116908190036106f55783526009602052818320928251610a49816113e5565b84549283825260018601546020830152600286015485830152600386015416606082015285850154608082015260c0600660ff6005880154161596871560a085015201549101528115159384610afd575b5083610aad575b60208484519015158152f35b909192506003820191828111610aea5761010201809211610ad75750602092504311908380610aa1565b634e487b7160e01b815260118452602490fd5b634e487b7160e01b825260118552602482fd5b935085610a9a565b9190503461024c57602036600319011261024c5735916001600160a01b03831683036109bf5750610b37602092612957565b90519015158152f35b839034610250578160031936011261025057905490516001600160a01b039091168152602090f35b8390346102505781600319360112610250576020905160ff8152f35b83903461025057816003193601126102505760207f62e78cea01bee320cd4e420270b5ea74000d11b0c9f74754ebdbfc544b05a25891610bc261149d565b610bca611c34565b600160ff19600254161760025551338152a180f35b8284346109bf5760203660031901126109bf5750610bfd90356127cf565b6020815191015182519182526020820152f35b50503461025057602036600319011261025057356001600160a01b0381169081900361025057610c3e61149d565b600580546001600160a01b031916821790557feda44c694e75c8161562f6179238b37a8daa291b6b2229613ed903ed92ab2d3d8280a280f35b83346109bf57806003193601126109bf57610c9061149d565b80546001600160a01b03198116825581906001600160a01b03167f8be0079c531659141344cd1fd0a4f28419497f9722a3daafe3b4186f6b6457e08280a380f35b50503461025057602036600319011261025057356001600160a01b0381169081900361025057610cff61149d565b600380546001600160a01b031916821790557fb62a30fb8f7c73a0e4bc061efea54bc34145e5553d3eefa0695e6c29357de4348280a280f35b83903461025057816003193601126102505760209051620151808152f35b50503461025057602036600319011261025057356001600160a01b0381169081810361024c57610d8461149d565b60028054610100600160a81b03191660089290921b610100600160a81b03169190911790557f45e919947eac4ba070dccb2545cf1e7e330fd110330232d74a6996e9e2308f248280a280f35b839034610250578160031936011261025057600254905160089190911c6001600160a01b03168152602090f35b83903461025057816003193601126102505760209060ff6002541690519015158152f35b90503461024c57602036600319011261024c576001600160a01b03908235828116908190036103025784829160e09652600960205220908154936001830154936002840154906003850154169184015492600660ff600587015416950154958151978852602088015286015260608501526080840152151560a083015260c0820152f35b905082346109bf5760203660031901126109bf5750610ec660809235612869565b90815191602081015191606060ff8284015116920151151592815194855260208501528301526060820152f35b9190503461024c578260031936011261024c575490516001600160a01b03909116815260209150f35b90503461024c57602036600319011261024c576001600160a01b03908235828116908190036103025784829160e09660c08451610f58816113e5565b82815282602082015282868201528260608201528260808201528260a08201520152815260096020522090805192610f8f846113e5565b825494858552600184015492602086019384526002850154818701908152836003870154169260608801938452860154946080880195865260c0600660ff60058a0154169860a08b019915158a5201549801978852825198895251602089015251908701525116606085015251608084015251151560a08301525160c0820152f35b5050346102505760203660031901126102505761102c61149d565b3560075580f35b9190503461024c578260031936011261024c5761104e61149d565b6002549060ff821615611090575060ff1916600255513381527f5db9ee0a495bf2e6ff9c91a7834c1ba4fdd244a5e8aa4e537bd38aeae4b073aa90602090a180f35b8251638dfc202b60e01b8152fd5b8390346102505781600319360112610250576020906006549051908152f35b83346109bf5760203660031901126109bf576110d761149d565b80f35b90503461024c578060031936011261024c576024359067ffffffffffffffff82116106f557366023830112156106f557818301359161111883611485565b9261112583519485611463565b808452602460208095019160051b83010191368311610991576024859101915b8383106111ba5750506005546001600160a01b0316330391506111689050578380f35b5162461bcd60e51b815291820152602860248201527f44756e67656f6e4d61737465723a204f6e6c7920565246204d616e616765722060448201526718d85b8818d85b1b60c21b606482015260849150fd5b8235815291810191859101611145565b90503461024c578260031936011261024c576111e461149d565b81546001600160a01b03908116919082156112f5578482516370a0823160e01b815230868201526020928382602481895afa9182156112eb5783926112bc575b508161122e578280f35b8254855163a9059cbb60e01b868201908152929091166001600160a01b0316602482015260448101929092529061127281606481015b03601f198101835282611463565b519082865af1156112b35783513d6112aa5750813b155b61129557808481808280f35b51635274afe760e01b81529182015260249150fd5b60011415611289565b513d84823e3d90fd5b9091508381813d83116112e4575b6112d48183611463565b8101031261024c57519038611224565b503d6112ca565b85513d85823e3d90fd5b815162461bcd60e51b8152602081860152601b60248201527f444d3a20536f756c536861726420746f6b656e206e6f742073657400000000006044820152606490fd5b9190503461024c57602036600319011261024c5735916001600160a01b03831683036109bf575061136a602092612ac2565b9051908152f35b839085346109bf5760203660031901126109bf5750602060849262461bcd60e51b8352820152603660248201527f444d3a205265776172647320617265206175746f6d61746963616c6c792064656044820152751c1bdcda5d1959081d1bc8141b185e595c95985d5b1d60521b6064820152fd5b60e0810190811067ffffffffffffffff82111761140157604052565b634e487b7160e01b600052604160045260246000fd5b6080810190811067ffffffffffffffff82111761140157604052565b67ffffffffffffffff811161140157604052565b6040810190811067ffffffffffffffff82111761140157604052565b90601f8019910116810190811067ffffffffffffffff82111761140157604052565b67ffffffffffffffff81116114015760051b60200190565b6000546001600160a01b031633036114b157565b60405163118cdaa760e01b8152336004820152602490fd5b9081602091031261060457516001600160a01b03811681036106045790565b600033815260209060098252604091828220805415908115611c25575b5015611be25760025483516303aae71960e61b81526001600160a01b039160049160089190911c83169084818481855afa9081156118f1579084918791611bc5575b50168651916331a9108f60e11b8352888484015260249286818581865afa90811561198c578891611ba8575b508533911603611b7057151580611b63575b15611b215761159389612869565b9061159d896127cf565b91606081015115611aed5782514210611ab357888a8582518095819363216688e960e01b83528a8301525afa91821561198c578892611a84575b505111611a4e5760085483868660055416806119ea575b50505034106119a8576201518042018042116119965781528360035416875191639a7db97f60e01b835289858401526080838581855afa90811561198c5788938992611955575b50878151910151908a519461164986611417565b85528885019081528a850191825260ff6060860193168352833b15611951578a51635810405760e11b81528088018d90529451868601525160448501525160648401525160ff1660848301528690829060a490829084905af180156118f15761193e575b508260055416806117d857505084926117b17fd6c7276602a3e7a4a473ac9a1d6d34b2c1c8b22c7cb03067963471fc79edd3039795936006938a6117d3995161172581611264888201948d433388929091607494926001600160601b03199060601b1684526014840152603483015260548201520190565b5190208751968793611736856113e5565b4385528d8786018c81528b87019182528b606088019433865260808901968752600960c060a08b019a838c52019b348d5233835252209a518b555160018b01555160028a0155600389019151166001600160601b0360a01b8254161790555190860155511515600585019060ff801983541691151516179055565b5191015551908152602081019390935243604084015233929081906060820190565b0390a2565b86516321ffa5f960e21b81529185838581855afa9283156119345790898b8a89948b976118fb575b50513360601b6bffffffffffffffffffffffff19168582019081524360148201526034810193909352605483019190915260019260849290916118468160748401611264565b519020958b51958694859363435639fb60e11b8552338b860152840152600160448401528760648401525af180156118f1576118bc575b50926117b17fd6c7276602a3e7a4a473ac9a1d6d34b2c1c8b22c7cb03067963471fc79edd30397959360069388966117d39951968793611736856113e5565b9380919795939694813d83116118ea575b6118d78183611463565b810103126106045792949193953861187d565b503d6118cd565b87513d88823e3d90fd5b9493965050505081813d831161192d575b6119168183611463565b810103126106045751918590898b8a611264611800565b503d61190c565b88513d89823e3d90fd5b61194a90959195611433565b93386116ad565b8980fd5b909350611979915060803d8111611985575b6119718183611463565b8101906127a6565b92949150389050611635565b503d611967565b89513d8a823e3d90fd5b634e487b7160e01b8752601184528287fd5b865162461bcd60e51b81528084018690526018818401527f444d3a20496e73756666696369656e74207061796d656e7400000000000000006044820152606490fd5b8a516321ffa5f960e21b815292839182905afa90811561198c578891611a1d575b508101809111611996578386386115ee565b90508681813d8311611a47575b611a348183611463565b81010312611a43575138611a0b565b8780fd5b503d611a2a565b865162461bcd60e51b815280840186905260118184015270444d3a20506f77657220746f6f206c6f7760781b6044820152606490fd5b9091508881813d8311611aac575b611a9c8183611463565b81010312611a43575190386115d7565b503d611a92565b885162461bcd60e51b81528086018890526015818601527422269d102830b93a3c9037b71031b7b7b63237bbb760591b6044820152606490fd5b885162461bcd60e51b8152808601889052600f818601526e444d3a2044756e67656f6e20444e4560881b6044820152606490fd5b865162461bcd60e51b8152808401869052601a818401527f444d3a20436f726520636f6e747261637473206e6f74207365740000000000006044820152606490fd5b5083600354161515611585565b875162461bcd60e51b81528085018790526013818501527222269d102737ba103830b93a3c9037bbb732b960691b6044820152606490fd5b611bbf9150873d891161062f576106218183611463565b38611573565b611bdc9150863d881161062f576106218183611463565b38611547565b60649083519062461bcd60e51b82526004820152601f60248201527f444d3a2050726576696f75732065787065646974696f6e2070656e64696e67006044820152fd5b60ff9150600501541638611505565b60ff60025416611c4057565b60405163d93c066560e01b8152600490fd5b600260015414611c63576002600155565b604051633ee5aeb560e01b8152600490fd5b15611c7c57565b60405162461bcd60e51b815260206004820152601960248201527f444d3a204e6f2070656e64696e672065787065646974696f6e000000000000006044820152606490fd5b15611cc857565b60405162461bcd60e51b815260206004820152601460248201527311134e88105b1c9958591e481c995d99585b195960621b6044820152606490fd5b5190811515820361060457565b919060408382031261060457611d2683611d04565b92602090818101519067ffffffffffffffff821161060457019180601f84011215610604578251611d5681611485565b93611d646040519586611463565b818552838086019260051b820101928311610604578301905b828210611d8b575050505090565b81518152908301908301611d7d565b9060018060a01b038092166000818152602060098152604092838320611dc281541515611c75565b611dd360ff60058301541615611cc1565b8660055416806121e0575b505460038101908181116121cc57814310612188576101020180911161217457431161213057808352600982528383209560058701600160ff198254161790558060025460081c1685516303aae71960e61b815260049885828b81865afa918215611934578792612111575b50600181015492868460248d888d5197889485936331a9108f60e11b8552840152165afa92831561198c5790859493929189936120f2575b50611e9960038301549386851697889116146124e6565b8154600381018091116120df578c8b91409384156120c4575b60020154968a611ec189612869565b948d9451938480926376ed367160e01b82525afa9182156120ba578f8a908f94938f938f9495612096575b5090602491865195869485936332854c1360e01b8552840152165afa8c918161204c575b5091611f2c939160ff9593612044575b50849192015116612540565b16916064831161203b575b8951908882019283526001600160601b03199060601b168a8201528360548201528460748201526074815260a0810181811067ffffffffffffffff821117612028576120269b9c5095600080516020612bb9833981519152611fe48c611fc384999760648a9860099f9e9d98600080516020612b998339815191529c998652519020061080988661256a565b92909151928392898460409194939260608201951515825260208201520152565b0390a388519081529015156020820152604090a28352522060066000918281558260018201558260028201558260038201558260048201558260058201550155565b565b634e487b7160e01b8a5260418d5260248afd5b60649250611f37565b915084611f20565b8c809294508193503d831161208f575b6120668183611463565b8101031261208b57918c60ff9492612080611f2c95612532565b929450909294611f10565b8b80fd5b503d61205c565b6024929195506120b290853d871161062f576106218183611463565b949091611eec565b8d513d8e823e3d90fd5b9350505060001943014381116120df5740918a908d90611eb2565b634e487b7160e01b8a5260118d5260248afd5b61210a919350883d8a1161062f576106218183611463565b9138611e82565b612129919250863d881161062f576106218183611463565b9038611e4a565b835162461bcd60e51b815260048101839052601960248201527f444d3a2052657665616c2077696e646f772065787069726564000000000000006044820152606490fd5b634e487b7160e01b84526011600452602484fd5b855162461bcd60e51b815260048101859052601760248201527f444d3a20546f6f206561726c7920746f2072657665616c0000000000000000006044820152606490fd5b634e487b7160e01b85526011600452602485fd5b8551635681dbe960e01b8152858160248160049588878301525afa9081156118f157869087926124c1575b50806124b7575b61221c5750611dde565b80919250979293949751156124a457840151838852600985528588209160058301600160ff19825416179055888460025460081c16918851946303aae71960e61b865288868381875afa95861561249a57839661247b575b50868960018301549760248d51809481936331a9108f60e11b83528c89840152165afa9081156124715784926122c78d95936002938e8d9c9b9a9992612454575b505060038301548b169b168b146124e6565b015496818b6122d58a612869565b96859651928380926376ed367160e01b82525afa93841561244957918d8d94928c9496612423575b5090602492915195869485936332854c1360e01b8552840152165afa8c9181612392575b5096600080516020612bb9833981519152611fe48c6120269e9f9c9a600080516020612b998339815191529860ff61237160099f9d9a8d9a868a9f9b611fc3976120445750849192015116612540565b169060648211612389575b606490061080988661256a565b6064915061237c565b9091508981813d831161241c575b6123aa8183611463565b810103126124185796600080516020612bb9833981519152611fe48c6120269e9f9c9a600080516020612b998339815191529860ff61237160099f9d9a8d9a868a9f9b6123f9611fc398612532565b9c509a50509a9d9f9c509a9d9f505050989d9f505050509c9b9c612321565b8c80fd5b503d6123a0565b6024939291965061244090863d881161062f576106218183611463565b959091926122fd565b8d51903d90823e3d90fd5b61246a9250803d1061062f576106218183611463565b388e6122b5565b8b513d86823e3d90fd5b612493919650893d8b1161062f576106218183611463565b9438612274565b8a513d85823e3d90fd5b634e487b7160e01b885260328252602488fd5b5080511515612212565b90506124df91503d8088833e6124d78183611463565b810190611d11565b903861220b565b156124ed57565b60405162461bcd60e51b815260206004820152601960248201527f444d3a204e6f206c6f6e676572207061727479206f776e6572000000000000006044820152606490fd5b519060ff8216820361060457565b9060ff8091169116019060ff821161255457565b634e487b7160e01b600052601160045260246000fd5b919290600093600061257c8193612869565b911561279a5760018060a01b03908160025460081c16916020908185015191604092835190637b2e0fcf60e01b825260048201528181602481895afa90811561276357859161276d575b50600754908181029181830414901517156121cc576103e8900494856126ab575b505050505050600a905104925b600254604051637aa6b20b60e01b81526001600160a01b03916020908290600490829060081c86165afa9081156126a0578491612682575b501690813b1561024c57604051633cc01ef160e21b81526001600160a01b03919091166004820152602481018590529082908290604490829084905af1612671575050565b61267b8291611433565b6109bf5750565b61269a915060203d811161062f576106218183611463565b3861262c565b6040513d86823e3d90fd5b839495969a509060049181939451928380926329bdca3760e01b82525afa918215612763578592612746575b505016803b1561024c5781516311f9fbc960e21b81526001600160a01b038816600482015260248101859052919083908390604490829084905af19081156112b35750612730575b5050600a90949038808080806125e7565b600a92935061273e90611433565b91903861271f565b61275c9250803d1061062f576106218183611463565b38806126d7565b84513d87823e3d90fd5b90508181813d8311612793575b6127848183611463565b810103126103025751386125c6565b503d61277a565b506014905104926125f4565b9190826080910312610604578151916020810151916127cc606060408401519301612532565b90565b600060206040516127df81611447565b8281520152600354604051639a7db97f60e01b81526004810192909252608090829060249082906001600160a01b03165afa801561285d576000918291612839575b506040519161282f83611447565b8252602082015290565b9050612853915060803d8111611985576119718183611463565b5091509038612821565b6040513d6000823e3d90fd5b60606040805161287881611417565b600092818480935282602082015282848201520152608060018060a01b0360035416936024835180968193634ab74ac560e11b835260048301525afa91821561294c57809381908280956128ef575b50509060ff918351956128d987611417565b8652602086015216908301521515606082015290565b939550935050506080823d8211612944575b8161290e60809383611463565b810103126109bf575080519160ff6020830151936129396060612932858701612532565b9501611d04565b9094909391386128c7565b3d9150612901565b9051903d90823e3d90fd5b60018060a01b0380911690600090828252600960205260408220928260405192612980846113e5565b85548452600186015460208501526002860154604085015280600387015416606085015260048601546080850152600660ff6005880154169660a086019715158852015460c0850152600554169182612a5f575b50505080518015159384612a55575b5083612a3d575b50826129f557505090565b51600381019250828111612a295761010201809211612a15575043111590565b634e487b7160e01b81526011600452602490fd5b634e487b7160e01b82526011600452602482fd5b90925060038101809111612a295743101591386129ea565b51159350386129e3565b602460405180948193635681dbe960e01b835260048301525afa908115612ab7578391612a9c575b50612a94573882816129d4565b505050600190565b612ab091503d8085833e6124d78183611463565b5038612a87565b6040513d85823e3d90fd5b6001600160a01b039081166000908152600960205260408082209051919290612aea836113e5565b8054918284526001820154602085015260028201546040850152600382015416606084015260048101546080840152600660ff6005830154161515918260a0860152015460c08401528115908115612b90575b50612b8b5760038101809111612b7757431015612b735751906003820191828111612a2957439003600301918211612a15575090565b5090565b634e487b7160e01b83526011600452602483fd5b505090565b905038612b3d56fe8d729483ceacc818e2eba5a141ff5a1152155f5325e43fee2d5aa0075ae12828036fa7ebe32c81d713bab4f5c2a50eb37d9633d474f2561a7c28ea52c9a26356a2646970667358221220e993a7b57488431491f40e925e9eb3f7a5e318e95c704cbe763fcf472950061e64736f6c63430008140033",
  "linkReferences": {},
  "deployedLinkReferences": {}
}