{
  "_format": "hh-sol-artifact-1",
  "contractName": "Hero",
  "sourceName": "contracts/current/nft/Hero.sol",
  "abi": [
    {
      "inputs": [
        {
          "internalType": "address",
          "name": "initialOwner",
          "type": "address"
        }
      ],
      "stateMutability": "nonpayable",
      "type": "constructor"
    },
    {
      "inputs": [
        {
          "internalType": "address",
          "name": "sender",
          "type": "address"
        },
        {
          "internalType": "uint256",
          "name": "tokenId",
          "type": "uint256"
        },
        {
          "internalType": "address",
          "name": "owner",
          "type": "address"
        }
      ],
      "name": "ERC721IncorrectOwner",
      "type": "error"
    },
    {
      "inputs": [
        {
          "internalType": "address",
          "name": "operator",
          "type": "address"
        },
        {
          "internalType": "uint256",
          "name": "tokenId",
          "type": "uint256"
        }
      ],
      "name": "ERC721InsufficientApproval",
      "type": "error"
    },
    {
      "inputs": [
        {
          "internalType": "address",
          "name": "approver",
          "type": "address"
        }
      ],
      "name": "ERC721InvalidApprover",
      "type": "error"
    },
    {
      "inputs": [
        {
          "internalType": "address",
          "name": "operator",
          "type": "address"
        }
      ],
      "name": "ERC721InvalidOperator",
      "type": "error"
    },
    {
      "inputs": [
        {
          "internalType": "address",
          "name": "owner",
          "type": "address"
        }
      ],
      "name": "ERC721InvalidOwner",
      "type": "error"
    },
    {
      "inputs": [
        {
          "internalType": "address",
          "name": "receiver",
          "type": "address"
        }
      ],
      "name": "ERC721InvalidReceiver",
      "type": "error"
    },
    {
      "inputs": [
        {
          "internalType": "address",
          "name": "sender",
          "type": "address"
        }
      ],
      "name": "ERC721InvalidSender",
      "type": "error"
    },
    {
      "inputs": [
        {
          "internalType": "uint256",
          "name": "tokenId",
          "type": "uint256"
        }
      ],
      "name": "ERC721NonexistentToken",
      "type": "error"
    },
    {
      "inputs": [],
      "name": "EnforcedPause",
      "type": "error"
    },
    {
      "inputs": [],
      "name": "ExpectedPause",
      "type": "error"
    },
    {
      "inputs": [
        {
          "internalType": "address",
          "name": "owner",
          "type": "address"
        }
      ],
      "name": "OwnableInvalidOwner",
      "type": "error"
    },
    {
      "inputs": [
        {
          "internalType": "address",
          "name": "account",
          "type": "address"
        }
      ],
      "name": "OwnableUnauthorizedAccount",
      "type": "error"
    },
    {
      "inputs": [],
      "name": "ReentrancyGuardReentrantCall",
      "type": "error"
    },
    {
      "inputs": [
        {
          "internalType": "address",
          "name": "token",
          "type": "address"
        }
      ],
      "name": "SafeERC20FailedOperation",
      "type": "error"
    },
    {
      "anonymous": false,
      "inputs": [
        {
          "indexed": true,
          "internalType": "address",
          "name": "owner",
          "type": "address"
        },
        {
          "indexed": true,
          "internalType": "address",
          "name": "approved",
          "type": "address"
        },
        {
          "indexed": true,
          "internalType": "uint256",
          "name": "tokenId",
          "type": "uint256"
        }
      ],
      "name": "Approval",
      "type": "event"
    },
    {
      "anonymous": false,
      "inputs": [
        {
          "indexed": true,
          "internalType": "address",
          "name": "owner",
          "type": "address"
        },
        {
          "indexed": true,
          "internalType": "address",
          "name": "operator",
          "type": "address"
        },
        {
          "indexed": false,
          "internalType": "bool",
          "name": "approved",
          "type": "bool"
        }
      ],
      "name": "ApprovalForAll",
      "type": "event"
    },
    {
      "anonymous": false,
      "inputs": [
        {
          "indexed": true,
          "internalType": "address",
          "name": "newAddress",
          "type": "address"
        }
      ],
      "name": "AscensionAltarSet",
      "type": "event"
    },
    {
      "anonymous": false,
      "inputs": [
        {
          "indexed": false,
          "internalType": "string",
          "name": "newBaseURI",
          "type": "string"
        }
      ],
      "name": "BaseURISet",
      "type": "event"
    },
    {
      "anonymous": false,
      "inputs": [
        {
          "indexed": true,
          "internalType": "address",
          "name": "player",
          "type": "address"
        },
        {
          "indexed": false,
          "internalType": "uint256",
          "name": "quantity",
          "type": "uint256"
        },
        {
          "indexed": false,
          "internalType": "uint8",
          "name": "maxRarity",
          "type": "uint8"
        },
        {
          "indexed": false,
          "internalType": "uint256[]",
          "name": "tokenIds",
          "type": "uint256[]"
        }
      ],
      "name": "BatchMintCompleted",
      "type": "event"
    },
    {
      "anonymous": false,
      "inputs": [
        {
          "indexed": false,
          "internalType": "uint256",
          "name": "tierId",
          "type": "uint256"
        },
        {
          "indexed": false,
          "internalType": "uint256",
          "name": "minQuantity",
          "type": "uint256"
        },
        {
          "indexed": false,
          "internalType": "uint8",
          "name": "maxRarity",
          "type": "uint8"
        },
        {
          "indexed": false,
          "internalType": "string",
          "name": "tierName",
          "type": "string"
        }
      ],
      "name": "BatchTierSet",
      "type": "event"
    },
    {
      "anonymous": false,
      "inputs": [
        {
          "indexed": false,
          "internalType": "string",
          "name": "newContractURI",
          "type": "string"
        }
      ],
      "name": "ContractURIUpdated",
      "type": "event"
    },
    {
      "anonymous": false,
      "inputs": [
        {
          "indexed": true,
          "internalType": "address",
          "name": "core",
          "type": "address"
        },
        {
          "indexed": true,
          "internalType": "address",
          "name": "token",
          "type": "address"
        }
      ],
      "name": "ContractsSet",
      "type": "event"
    },
    {
      "anonymous": false,
      "inputs": [
        {
          "indexed": false,
          "internalType": "uint256",
          "name": "newSeed",
          "type": "uint256"
        }
      ],
      "name": "DynamicSeedUpdated",
      "type": "event"
    },
    {
      "anonymous": false,
      "inputs": [
        {
          "indexed": true,
          "internalType": "address",
          "name": "user",
          "type": "address"
        },
        {
          "indexed": true,
          "internalType": "address",
          "name": "executor",
          "type": "address"
        },
        {
          "indexed": false,
          "internalType": "uint256",
          "name": "quantity",
          "type": "uint256"
        }
      ],
      "name": "ForcedRevealExecuted",
      "type": "event"
    },
    {
      "anonymous": false,
      "inputs": [
        {
          "indexed": true,
          "internalType": "uint256",
          "name": "tokenId",
          "type": "uint256"
        },
        {
          "indexed": true,
          "internalType": "address",
          "name": "owner",
          "type": "address"
        },
        {
          "indexed": false,
          "internalType": "uint8",
          "name": "rarity",
          "type": "uint8"
        },
        {
          "indexed": false,
          "internalType": "uint256",
          "name": "power",
          "type": "uint256"
        }
      ],
      "name": "HeroBurned",
      "type": "event"
    },
    {
      "anonymous": false,
      "inputs": [
        {
          "indexed": true,
          "internalType": "uint256",
          "name": "tokenId",
          "type": "uint256"
        },
        {
          "indexed": true,
          "internalType": "address",
          "name": "owner",
          "type": "address"
        },
        {
          "indexed": false,
          "internalType": "uint8",
          "name": "rarity",
          "type": "uint8"
        },
        {
          "indexed": false,
          "internalType": "uint256",
          "name": "power",
          "type": "uint256"
        }
      ],
      "name": "HeroMinted",
      "type": "event"
    },
    {
      "anonymous": false,
      "inputs": [
        {
          "indexed": true,
          "internalType": "uint256",
          "name": "tokenId",
          "type": "uint256"
        },
        {
          "indexed": true,
          "internalType": "address",
          "name": "owner",
          "type": "address"
        },
        {
          "indexed": false,
          "internalType": "uint8",
          "name": "rarity",
          "type": "uint8"
        },
        {
          "indexed": false,
          "internalType": "uint256",
          "name": "power",
          "type": "uint256"
        }
      ],
      "name": "HeroRevealed",
      "type": "event"
    },
    {
      "anonymous": false,
      "inputs": [
        {
          "indexed": true,
          "internalType": "address",
          "name": "player",
          "type": "address"
        },
        {
          "indexed": false,
          "internalType": "uint256",
          "name": "quantity",
          "type": "uint256"
        },
        {
          "indexed": false,
          "internalType": "uint256",
          "name": "blockNumber",
          "type": "uint256"
        },
        {
          "indexed": false,
          "internalType": "bool",
          "name": "fromVault",
          "type": "bool"
        }
      ],
      "name": "MintCommitted",
      "type": "event"
    },
    {
      "anonymous": false,
      "inputs": [
        {
          "indexed": true,
          "internalType": "address",
          "name": "previousOwner",
          "type": "address"
        },
        {
          "indexed": true,
          "internalType": "address",
          "name": "newOwner",
          "type": "address"
        }
      ],
      "name": "OwnershipTransferred",
      "type": "event"
    },
    {
      "anonymous": false,
      "inputs": [
        {
          "indexed": false,
          "internalType": "address",
          "name": "account",
          "type": "address"
        }
      ],
      "name": "Paused",
      "type": "event"
    },
    {
      "anonymous": false,
      "inputs": [
        {
          "indexed": true,
          "internalType": "address",
          "name": "user",
          "type": "address"
        },
        {
          "indexed": true,
          "internalType": "address",
          "name": "proxy",
          "type": "address"
        }
      ],
      "name": "RevealedByProxy",
      "type": "event"
    },
    {
      "anonymous": false,
      "inputs": [
        {
          "indexed": true,
          "internalType": "address",
          "name": "from",
          "type": "address"
        },
        {
          "indexed": true,
          "internalType": "address",
          "name": "to",
          "type": "address"
        },
        {
          "indexed": true,
          "internalType": "uint256",
          "name": "tokenId",
          "type": "uint256"
        }
      ],
      "name": "Transfer",
      "type": "event"
    },
    {
      "anonymous": false,
      "inputs": [
        {
          "indexed": false,
          "internalType": "address",
          "name": "account",
          "type": "address"
        }
      ],
      "name": "Unpaused",
      "type": "event"
    },
    {
      "anonymous": false,
      "inputs": [
        {
          "indexed": true,
          "internalType": "address",
          "name": "vrfManager",
          "type": "address"
        }
      ],
      "name": "VRFManagerSet",
      "type": "event"
    },
    {
      "inputs": [],
      "name": "MAX_REVEAL_WINDOW",
      "outputs": [
        {
          "internalType": "uint256",
          "name": "",
          "type": "uint256"
        }
      ],
      "stateMutability": "view",
      "type": "function"
    },
    {
      "inputs": [],
      "name": "REVEAL_BLOCK_DELAY",
      "outputs": [
        {
          "internalType": "uint256",
          "name": "",
          "type": "uint256"
        }
      ],
      "stateMutability": "view",
      "type": "function"
    },
    {
      "inputs": [
        {
          "internalType": "address",
          "name": "to",
          "type": "address"
        },
        {
          "internalType": "uint256",
          "name": "tokenId",
          "type": "uint256"
        }
      ],
      "name": "approve",
      "outputs": [],
      "stateMutability": "nonpayable",
      "type": "function"
    },
    {
      "inputs": [],
      "name": "ascensionAltarAddress",
      "outputs": [
        {
          "internalType": "address",
          "name": "",
          "type": "address"
        }
      ],
      "stateMutability": "view",
      "type": "function"
    },
    {
      "inputs": [
        {
          "internalType": "address",
          "name": "owner",
          "type": "address"
        }
      ],
      "name": "balanceOf",
      "outputs": [
        {
          "internalType": "uint256",
          "name": "",
          "type": "uint256"
        }
      ],
      "stateMutability": "view",
      "type": "function"
    },
    {
      "inputs": [],
      "name": "baseURI",
      "outputs": [
        {
          "internalType": "string",
          "name": "",
          "type": "string"
        }
      ],
      "stateMutability": "view",
      "type": "function"
    },
    {
      "inputs": [
        {
          "internalType": "uint256",
          "name": "",
          "type": "uint256"
        }
      ],
      "name": "batchTiers",
      "outputs": [
        {
          "internalType": "uint256",
          "name": "minQuantity",
          "type": "uint256"
        },
        {
          "internalType": "uint8",
          "name": "maxRarity",
          "type": "uint8"
        },
        {
          "internalType": "string",
          "name": "tierName",
          "type": "string"
        }
      ],
      "stateMutability": "view",
      "type": "function"
    },
    {
      "inputs": [
        {
          "internalType": "uint256",
          "name": "_tokenId",
          "type": "uint256"
        }
      ],
      "name": "burnFromAltar",
      "outputs": [],
      "stateMutability": "nonpayable",
      "type": "function"
    },
    {
      "inputs": [
        {
          "internalType": "address",
          "name": "_user",
          "type": "address"
        }
      ],
      "name": "canForceReveal",
      "outputs": [
        {
          "internalType": "bool",
          "name": "",
          "type": "bool"
        }
      ],
      "stateMutability": "view",
      "type": "function"
    },
    {
      "inputs": [
        {
          "internalType": "address",
          "name": "_user",
          "type": "address"
        }
      ],
      "name": "canReveal",
      "outputs": [
        {
          "internalType": "bool",
          "name": "",
          "type": "bool"
        }
      ],
      "stateMutability": "view",
      "type": "function"
    },
    {
      "inputs": [],
      "name": "contractURI",
      "outputs": [
        {
          "internalType": "string",
          "name": "",
          "type": "string"
        }
      ],
      "stateMutability": "view",
      "type": "function"
    },
    {
      "inputs": [],
      "name": "dungeonCore",
      "outputs": [
        {
          "internalType": "contract IDungeonCore",
          "name": "",
          "type": "address"
        }
      ],
      "stateMutability": "view",
      "type": "function"
    },
    {
      "inputs": [],
      "name": "dynamicSeed",
      "outputs": [
        {
          "internalType": "uint256",
          "name": "",
          "type": "uint256"
        }
      ],
      "stateMutability": "view",
      "type": "function"
    },
    {
      "inputs": [
        {
          "internalType": "address",
          "name": "user",
          "type": "address"
        }
      ],
      "name": "forceRevealExpired",
      "outputs": [],
      "stateMutability": "nonpayable",
      "type": "function"
    },
    {
      "inputs": [],
      "name": "getAllBatchTiers",
      "outputs": [
        {
          "components": [
            {
              "internalType": "uint256",
              "name": "minQuantity",
              "type": "uint256"
            },
            {
              "internalType": "uint8",
              "name": "maxRarity",
              "type": "uint8"
            },
            {
              "internalType": "string",
              "name": "tierName",
              "type": "string"
            }
          ],
          "internalType": "struct Hero.BatchTier[]",
          "name": "",
          "type": "tuple[]"
        }
      ],
      "stateMutability": "view",
      "type": "function"
    },
    {
      "inputs": [
        {
          "internalType": "uint256",
          "name": "tokenId",
          "type": "uint256"
        }
      ],
      "name": "getApproved",
      "outputs": [
        {
          "internalType": "address",
          "name": "",
          "type": "address"
        }
      ],
      "stateMutability": "view",
      "type": "function"
    },
    {
      "inputs": [
        {
          "internalType": "uint256",
          "name": "_quantity",
          "type": "uint256"
        }
      ],
      "name": "getBatchTierInfo",
      "outputs": [
        {
          "internalType": "uint8",
          "name": "maxRarity",
          "type": "uint8"
        },
        {
          "internalType": "string",
          "name": "tierName",
          "type": "string"
        },
        {
          "internalType": "uint256",
          "name": "exactTierQuantity",
          "type": "uint256"
        },
        {
          "internalType": "uint256",
          "name": "totalCost",
          "type": "uint256"
        }
      ],
      "stateMutability": "view",
      "type": "function"
    },
    {
      "inputs": [
        {
          "internalType": "uint256",
          "name": "tokenId",
          "type": "uint256"
        }
      ],
      "name": "getHeroProperties",
      "outputs": [
        {
          "internalType": "uint8",
          "name": "rarity",
          "type": "uint8"
        },
        {
          "internalType": "uint256",
          "name": "power",
          "type": "uint256"
        }
      ],
      "stateMutability": "view",
      "type": "function"
    },
    {
      "inputs": [
        {
          "internalType": "uint256",
          "name": "_quantity",
          "type": "uint256"
        }
      ],
      "name": "getMaxRarityForQuantity",
      "outputs": [
        {
          "internalType": "uint8",
          "name": "maxRarity",
          "type": "uint8"
        },
        {
          "internalType": "string",
          "name": "tierName",
          "type": "string"
        }
      ],
      "stateMutability": "view",
      "type": "function"
    },
    {
      "inputs": [
        {
          "internalType": "uint256",
          "name": "_quantity",
          "type": "uint256"
        }
      ],
      "name": "getRequiredSoulShardAmount",
      "outputs": [
        {
          "internalType": "uint256",
          "name": "",
          "type": "uint256"
        }
      ],
      "stateMutability": "view",
      "type": "function"
    },
    {
      "inputs": [
        {
          "internalType": "address",
          "name": "_user",
          "type": "address"
        }
      ],
      "name": "getRevealBlocksRemaining",
      "outputs": [
        {
          "internalType": "uint256",
          "name": "",
          "type": "uint256"
        }
      ],
      "stateMutability": "view",
      "type": "function"
    },
    {
      "inputs": [
        {
          "internalType": "address",
          "name": "_user",
          "type": "address"
        }
      ],
      "name": "getUserCommitment",
      "outputs": [
        {
          "components": [
            {
              "internalType": "uint256",
              "name": "blockNumber",
              "type": "uint256"
            },
            {
              "internalType": "uint256",
              "name": "quantity",
              "type": "uint256"
            },
            {
              "internalType": "uint256",
              "name": "payment",
              "type": "uint256"
            },
            {
              "internalType": "bytes32",
              "name": "commitment",
              "type": "bytes32"
            },
            {
              "internalType": "bool",
              "name": "fulfilled",
              "type": "bool"
            },
            {
              "internalType": "uint8",
              "name": "maxRarity",
              "type": "uint8"
            },
            {
              "internalType": "bool",
              "name": "fromVault",
              "type": "bool"
            }
          ],
          "internalType": "struct Hero.MintCommitment",
          "name": "",
          "type": "tuple"
        }
      ],
      "stateMutability": "view",
      "type": "function"
    },
    {
      "inputs": [
        {
          "internalType": "address",
          "name": "_user",
          "type": "address"
        }
      ],
      "name": "getUserPendingTokens",
      "outputs": [
        {
          "internalType": "uint256[]",
          "name": "",
          "type": "uint256[]"
        }
      ],
      "stateMutability": "view",
      "type": "function"
    },
    {
      "inputs": [
        {
          "internalType": "uint256",
          "name": "",
          "type": "uint256"
        }
      ],
      "name": "heroData",
      "outputs": [
        {
          "internalType": "uint8",
          "name": "rarity",
          "type": "uint8"
        },
        {
          "internalType": "uint256",
          "name": "power",
          "type": "uint256"
        },
        {
          "internalType": "bool",
          "name": "isRevealed",
          "type": "bool"
        }
      ],
      "stateMutability": "view",
      "type": "function"
    },
    {
      "inputs": [
        {
          "internalType": "address",
          "name": "owner",
          "type": "address"
        },
        {
          "internalType": "address",
          "name": "operator",
          "type": "address"
        }
      ],
      "name": "isApprovedForAll",
      "outputs": [
        {
          "internalType": "bool",
          "name": "",
          "type": "bool"
        }
      ],
      "stateMutability": "view",
      "type": "function"
    },
    {
      "inputs": [
        {
          "internalType": "address",
          "name": "_to",
          "type": "address"
        },
        {
          "internalType": "uint8",
          "name": "_rarity",
          "type": "uint8"
        },
        {
          "internalType": "uint256",
          "name": "_power",
          "type": "uint256"
        }
      ],
      "name": "mintFromAltar",
      "outputs": [
        {
          "internalType": "uint256",
          "name": "",
          "type": "uint256"
        }
      ],
      "stateMutability": "nonpayable",
      "type": "function"
    },
    {
      "inputs": [
        {
          "internalType": "uint256",
          "name": "_quantity",
          "type": "uint256"
        }
      ],
      "name": "mintFromVault",
      "outputs": [],
      "stateMutability": "payable",
      "type": "function"
    },
    {
      "inputs": [
        {
          "internalType": "uint256",
          "name": "_quantity",
          "type": "uint256"
        }
      ],
      "name": "mintFromWallet",
      "outputs": [],
      "stateMutability": "payable",
      "type": "function"
    },
    {
      "inputs": [],
      "name": "mintPriceUSD",
      "outputs": [
        {
          "internalType": "uint256",
          "name": "",
          "type": "uint256"
        }
      ],
      "stateMutability": "view",
      "type": "function"
    },
    {
      "inputs": [],
      "name": "name",
      "outputs": [
        {
          "internalType": "string",
          "name": "",
          "type": "string"
        }
      ],
      "stateMutability": "view",
      "type": "function"
    },
    {
      "inputs": [
        {
          "internalType": "uint256",
          "name": "requestId",
          "type": "uint256"
        },
        {
          "internalType": "uint256[]",
          "name": "randomWords",
          "type": "uint256[]"
        }
      ],
      "name": "onVRFFulfilled",
      "outputs": [],
      "stateMutability": "nonpayable",
      "type": "function"
    },
    {
      "inputs": [],
      "name": "owner",
      "outputs": [
        {
          "internalType": "address",
          "name": "",
          "type": "address"
        }
      ],
      "stateMutability": "view",
      "type": "function"
    },
    {
      "inputs": [
        {
          "internalType": "uint256",
          "name": "tokenId",
          "type": "uint256"
        }
      ],
      "name": "ownerOf",
      "outputs": [
        {
          "internalType": "address",
          "name": "",
          "type": "address"
        }
      ],
      "stateMutability": "view",
      "type": "function"
    },
    {
      "inputs": [],
      "name": "pause",
      "outputs": [],
      "stateMutability": "nonpayable",
      "type": "function"
    },
    {
      "inputs": [],
      "name": "paused",
      "outputs": [
        {
          "internalType": "bool",
          "name": "",
          "type": "bool"
        }
      ],
      "stateMutability": "view",
      "type": "function"
    },
    {
      "inputs": [],
      "name": "platformFee",
      "outputs": [
        {
          "internalType": "uint256",
          "name": "",
          "type": "uint256"
        }
      ],
      "stateMutability": "view",
      "type": "function"
    },
    {
      "inputs": [],
      "name": "renounceOwnership",
      "outputs": [],
      "stateMutability": "nonpayable",
      "type": "function"
    },
    {
      "inputs": [],
      "name": "revealMint",
      "outputs": [],
      "stateMutability": "nonpayable",
      "type": "function"
    },
    {
      "inputs": [
        {
          "internalType": "address",
          "name": "user",
          "type": "address"
        }
      ],
      "name": "revealMintFor",
      "outputs": [],
      "stateMutability": "nonpayable",
      "type": "function"
    },
    {
      "inputs": [
        {
          "internalType": "address",
          "name": "from",
          "type": "address"
        },
        {
          "internalType": "address",
          "name": "to",
          "type": "address"
        },
        {
          "internalType": "uint256",
          "name": "tokenId",
          "type": "uint256"
        }
      ],
      "name": "safeTransferFrom",
      "outputs": [],
      "stateMutability": "nonpayable",
      "type": "function"
    },
    {
      "inputs": [
        {
          "internalType": "address",
          "name": "from",
          "type": "address"
        },
        {
          "internalType": "address",
          "name": "to",
          "type": "address"
        },
        {
          "internalType": "uint256",
          "name": "tokenId",
          "type": "uint256"
        },
        {
          "internalType": "bytes",
          "name": "data",
          "type": "bytes"
        }
      ],
      "name": "safeTransferFrom",
      "outputs": [],
      "stateMutability": "nonpayable",
      "type": "function"
    },
    {
      "inputs": [
        {
          "internalType": "address",
          "name": "operator",
          "type": "address"
        },
        {
          "internalType": "bool",
          "name": "approved",
          "type": "bool"
        }
      ],
      "name": "setApprovalForAll",
      "outputs": [],
      "stateMutability": "nonpayable",
      "type": "function"
    },
    {
      "inputs": [
        {
          "internalType": "address",
          "name": "_address",
          "type": "address"
        }
      ],
      "name": "setAscensionAltarAddress",
      "outputs": [],
      "stateMutability": "nonpayable",
      "type": "function"
    },
    {
      "inputs": [
        {
          "internalType": "string",
          "name": "_newBaseURI",
          "type": "string"
        }
      ],
      "name": "setBaseURI",
      "outputs": [],
      "stateMutability": "nonpayable",
      "type": "function"
    },
    {
      "inputs": [
        {
          "internalType": "uint256",
          "name": "_tierId",
          "type": "uint256"
        },
        {
          "internalType": "uint256",
          "name": "_minQuantity",
          "type": "uint256"
        },
        {
          "internalType": "uint8",
          "name": "_maxRarity",
          "type": "uint8"
        },
        {
          "internalType": "string",
          "name": "_tierName",
          "type": "string"
        }
      ],
      "name": "setBatchTier",
      "outputs": [],
      "stateMutability": "nonpayable",
      "type": "function"
    },
    {
      "inputs": [
        {
          "internalType": "string",
          "name": "newContractURI",
          "type": "string"
        }
      ],
      "name": "setContractURI",
      "outputs": [],
      "stateMutability": "nonpayable",
      "type": "function"
    },
    {
      "inputs": [
        {
          "internalType": "address",
          "name": "_address",
          "type": "address"
        }
      ],
      "name": "setDungeonCore",
      "outputs": [],
      "stateMutability": "nonpayable",
      "type": "function"
    },
    {
      "inputs": [
        {
          "internalType": "uint256",
          "name": "_newPrice",
          "type": "uint256"
        }
      ],
      "name": "setMintPriceUSD",
      "outputs": [],
      "stateMutability": "nonpayable",
      "type": "function"
    },
    {
      "inputs": [
        {
          "internalType": "uint256",
          "name": "_newFee",
          "type": "uint256"
        }
      ],
      "name": "setPlatformFee",
      "outputs": [],
      "stateMutability": "nonpayable",
      "type": "function"
    },
    {
      "inputs": [
        {
          "internalType": "address",
          "name": "_address",
          "type": "address"
        }
      ],
      "name": "setSoulShardToken",
      "outputs": [],
      "stateMutability": "nonpayable",
      "type": "function"
    },
    {
      "inputs": [
        {
          "internalType": "string",
          "name": "_newURI",
          "type": "string"
        }
      ],
      "name": "setUnrevealedURI",
      "outputs": [],
      "stateMutability": "nonpayable",
      "type": "function"
    },
    {
      "inputs": [
        {
          "internalType": "address",
          "name": "_vrfManager",
          "type": "address"
        }
      ],
      "name": "setVRFManager",
      "outputs": [],
      "stateMutability": "nonpayable",
      "type": "function"
    },
    {
      "inputs": [],
      "name": "soulShardToken",
      "outputs": [
        {
          "internalType": "contract IERC20",
          "name": "",
          "type": "address"
        }
      ],
      "stateMutability": "view",
      "type": "function"
    },
    {
      "inputs": [
        {
          "internalType": "bytes4",
          "name": "interfaceId",
          "type": "bytes4"
        }
      ],
      "name": "supportsInterface",
      "outputs": [
        {
          "internalType": "bool",
          "name": "",
          "type": "bool"
        }
      ],
      "stateMutability": "view",
      "type": "function"
    },
    {
      "inputs": [],
      "name": "symbol",
      "outputs": [
        {
          "internalType": "string",
          "name": "",
          "type": "string"
        }
      ],
      "stateMutability": "view",
      "type": "function"
    },
    {
      "inputs": [],
      "name": "tierCount",
      "outputs": [
        {
          "internalType": "uint256",
          "name": "",
          "type": "uint256"
        }
      ],
      "stateMutability": "view",
      "type": "function"
    },
    {
      "inputs": [
        {
          "internalType": "uint256",
          "name": "tokenId",
          "type": "uint256"
        }
      ],
      "name": "tokenURI",
      "outputs": [
        {
          "internalType": "string",
          "name": "",
          "type": "string"
        }
      ],
      "stateMutability": "view",
      "type": "function"
    },
    {
      "inputs": [
        {
          "internalType": "address",
          "name": "from",
          "type": "address"
        },
        {
          "internalType": "address",
          "name": "to",
          "type": "address"
        },
        {
          "internalType": "uint256",
          "name": "tokenId",
          "type": "uint256"
        }
      ],
      "name": "transferFrom",
      "outputs": [],
      "stateMutability": "nonpayable",
      "type": "function"
    },
    {
      "inputs": [
        {
          "internalType": "address",
          "name": "newOwner",
          "type": "address"
        }
      ],
      "name": "transferOwnership",
      "outputs": [],
      "stateMutability": "nonpayable",
      "type": "function"
    },
    {
      "inputs": [],
      "name": "unpause",
      "outputs": [],
      "stateMutability": "nonpayable",
      "type": "function"
    },
    {
      "inputs": [],
      "name": "unrevealedURI",
      "outputs": [
        {
          "internalType": "string",
          "name": "",
          "type": "string"
        }
      ],
      "stateMutability": "view",
      "type": "function"
    },
    {
      "inputs": [
        {
          "internalType": "address",
          "name": "",
          "type": "address"
        }
      ],
      "name": "userCommitments",
      "outputs": [
        {
          "internalType": "uint256",
          "name": "blockNumber",
          "type": "uint256"
        },
        {
          "internalType": "uint256",
          "name": "quantity",
          "type": "uint256"
        },
        {
          "internalType": "uint256",
          "name": "payment",
          "type": "uint256"
        },
        {
          "internalType": "bytes32",
          "name": "commitment",
          "type": "bytes32"
        },
        {
          "internalType": "bool",
          "name": "fulfilled",
          "type": "bool"
        },
        {
          "internalType": "uint8",
          "name": "maxRarity",
          "type": "uint8"
        },
        {
          "internalType": "bool",
          "name": "fromVault",
          "type": "bool"
        }
      ],
      "stateMutability": "view",
      "type": "function"
    },
    {
      "inputs": [
        {
          "internalType": "address",
          "name": "",
          "type": "address"
        },
        {
          "internalType": "uint256",
          "name": "",
          "type": "uint256"
        }
      ],
      "name": "userPendingTokens",
      "outputs": [
        {
          "internalType": "uint256",
          "name": "",
          "type": "uint256"
        }
      ],
      "stateMutability": "view",
      "type": "function"
    },
    {
      "inputs": [],
      "name": "vrfManager",
      "outputs": [
        {
          "internalType": "address",
          "name": "",
          "type": "address"
        }
      ],
      "stateMutability": "view",
      "type": "function"
    },
    {
      "inputs": [],
      "name": "withdrawNativeFunding",
      "outputs": [],
      "stateMutability": "nonpayable",
      "type": "function"
    },
    {
      "inputs": [],
      "name": "withdrawSoulShard",
      "outputs": [],
      "stateMutability": "nonpayable",
      "type": "function"
    },
    {
      "stateMutability": "payable",
      "type": "receive"
    }
  ],
  "bytecode": "0x6080346200108057601f620064a838819003918201601f19168301916001600160401b0383118484101762000c73578084926020946040528339810103126200108057516001600160a01b0380821691829003620010805762000061620010e5565b91601883527f44756e67656f6e2044656c76657273204865726f205652460000000000000000602084015262000096620010e5565b60068152652222242b292360d11b602082015283519092906001600160401b03811162000c7357620000ca60005462001105565b601f81116200103f575b50602094601f821160011462000fc75794819293949560009262000fbb575b50508160011b916000199060031b1c1916176000555b82516001600160401b03811162000c73576200012760015462001105565b601f811162000f6d575b506020601f821160011462000ef4578192939460009262000ee8575b50508160011b916000199060031b1c1916176001555b811562000ecf57600680546001600160a01b031981168417909155167f8be0079c531659141344cd1fd0a4f28419497f9722a3daafe3b4186f6b6457e0600080a36001600755671bc16d674ec80000601255660110d9316ec000601355620001cd60165462001105565b601f811162000e80575b50609160169081556000527f68747470733a2f2f64756e67656f6e2d64656c766572732d6d6574616461746160008051602062006488833981519152557f2d7365727665722e6f6e72656e6465722e636f6d2f6170692f6865726f2f756e7fd833147d7dc355ba459fc788f669e58cfaf9dc25ddcd0702e87d69c7b512428a55671c995d99585b195960c21b7fd833147d7dc355ba459fc788f669e58cfaf9dc25ddcd0702e87d69c7b512428b5560016011556200029462001085565b600181526020810160058152620002aa620010e5565b90600b82526a14da5b99db1948135a5b9d60aa1b60208301526040830191825260008052601460205260406000209251835560ff6001840191511660ff19825416179055519081519060018060401b03821162000c7357600201906200031d8162000316845462001105565b846200115b565b6020601f821160011462000e165781929360009262000e0a575b50508160011b916000199060031b1c19161790555b6200035662001085565b6005815260208101600581526200036c620010e5565b90600b82526a42726f6e7a65205061636b60a81b6020830152604083019182526001600052601460205260406000209251835560ff6001840191511660ff198254161790555180519060018060401b03821162000c7357620003e182620003d7600286015462001105565b600286016200115b565b602090601f831160011462000d9757600292916000918362000d8b575b50508160011b916000199060031b1c1916179101555b6200041e62001085565b600a8152602081016005815262000434620010e5565b90600b82526a53696c766572205061636b60a81b6020830152604083019182526002600052601460205260406000209251835560ff6001840191511660ff198254161790555180519060018060401b03821162000c73576200049f82620003d7600286015462001105565b602090601f831160011462000d1657600292916000918362000d0a575b50508160011b916000199060031b1c1916179101555b620004dc62001085565b601481526020810160058152620004f2620010e5565b906009825268476f6c64205061636b60b81b6020830152604083019182526003600052601460205260406000209251835560ff6001840191511660ff198254161790555180519060018060401b03821162000c73576200055b82620003d7600286015462001105565b602090601f831160011462000c9557600292916000918362000c89575b50508160011b916000199060031b1c1916179101555b6200059862001085565b603281526020810160058152620005ae620010e5565b90600d82526c506c6174696e756d205061636b60981b6020830152604083019182526004600052601460205260406000209251835560ff6001840191511660ff198254161790555180519060018060401b03821162000c73576200061b82620003d7600286015462001105565b602090601f831160011462000bfe57600292916000918362000bf2575b50508160011b916000199060031b1c1916179101555b6005601555620006f462000661620010a5565b60018152600160208201526001604082015260ff60608201600181526001600052601a602052620006da8260408060002095828151168319885416178755620006c183602083015116889061ff0082549160081b169061ff001916179055565b0151855462ff00001916911660101b62ff000016178455565b51825463ff0000001916911660181b63ff00000016179055565b6200077762000702620010a5565b6001815260ff6020820160028152620006da8260408501600381526200075f826060880195600487526005600052601a60205281604060002099511682198a54161789555116879061ff0082549160081b169061ff001916179055565b51855462ff00001916911660101b62ff000016178455565b620007e262000785620010a5565b6001815260ff6020820160038152620006da8260408501600481526200075f82606088019560078752600a600052601a60205281604060002099511682198a54161789555116879061ff0082549160081b169061ff001916179055565b6200084d620007f0620010a5565b6002815260ff6020820160048152620006da8260408501600781526200075f826060880195600c87526014600052601a60205281604060002099511682198a54161789555116879061ff0082549160081b169061ff001916179055565b620008b86200085b620010a5565b6002815260ff6020820160068152620006da8260408501600d81526200075f826060880195601987526032600052601a60205281604060002099511682198a54161789555116879061ff0082549160081b169061ff001916179055565b620008c2620010c5565b60018152600060208201526000604082015260006060820152600060808201526001600052601b602052608060406000209160ff81511660ff198454161783556200092560ff602083015116849061ff0082549160081b169061ff001916179055565b6040810151835462ff0000191660109190911b62ff0000161783556060810151835463ff000000191660189190911b63ff00000016178355015164ff0000000082549160201b169064ff00000000191617905562000982620010c5565b60038152602081016002815262000a1e60ff604084016000815262000a0482606087019260008452620009ec8260808a019860008a526005600052601b6020528160406000209b511682198c5416178b555116899061ff0082549160081b169061ff001916179055565b51875462ff00001916911660101b62ff000016178655565b51845463ff0000001916911660181b63ff00000016178355565b5164ff0000000082549160201b169064ff00000000191617905562000a42620010c5565b60068152602081016003815262000aac60ff604084016001815262000a0482606087019260008452620009ec8260808a019860008a52600a600052601b6020528160406000209b511682198c5416178b555116899061ff0082549160081b169061ff001916179055565b5164ff0000000082549160201b169064ff00000000191617905562000ad0620010c5565b600b8152602081016006815262000b3a60ff604084016003815262000a0482606087019260008452620009ec8260808a019860008a526014600052601b6020528160406000209b511682198c5416178b555116899061ff0082549160081b169061ff001916179055565b5164ff0000000082549160201b169064ff00000000191617905562000b5e620010c5565b60198152602081016010815262000bc860ff604084016008815262000a0482606087019260018452620009ec8260808a019860008a526032600052601b6020528160406000209b511682198c5416178b555116899061ff0082549160081b169061ff001916179055565b5164ff0000000082549160201b169064ff0000000019161790556040516152ac90816200119c8239f35b01519050388062000638565b906002840160005260206000209160005b601f198516811062000c5a5750918391600193600295601f1981161062000c40575b505050811b019101556200064e565b015160001960f88460031b161c1916905538808062000c31565b9192602060018192868501518155019401920162000c0f565b634e487b7160e01b600052604160045260246000fd5b01519050388062000578565b906002840160005260206000209160005b601f198516811062000cf15750918391600193600295601f1981161062000cd7575b505050811b019101556200058e565b015160001960f88460031b161c1916905538808062000cc8565b9192602060018192868501518155019401920162000ca6565b015190503880620004bc565b906002840160005260206000209160005b601f198516811062000d725750918391600193600295601f1981161062000d58575b505050811b01910155620004d2565b015160001960f88460031b161c1916905538808062000d49565b9192602060018192868501518155019401920162000d27565b015190503880620003fe565b90600284016000526020600020916000601f198516905b81811062000df15750916001939185600296941062000dd7575b505050811b0191015562000414565b015160001960f88460031b161c1916905538808062000dc8565b9293602060018192878601518155019501930162000dae565b01519050388062000337565b82600052602060002090600094601f198416955b86811062000e67575083600195961062000e4d575b505050811b0190556200034c565b015160001960f88460031b161c1916905538808062000e3f565b9192602060018192868501518155019401920162000e2a565b601660005262000ec890601f0160051c60008051602062006488833981519152017fd833147d7dc355ba459fc788f669e58cfaf9dc25ddcd0702e87d69c7b512428c62001142565b38620001d7565b604051631e4fbdf760e01b815260006004820152602490fd5b0151905038806200014d565b60016000908152600080516020620064688339815191529190601f198416905b81811062000f545750958360019596971062000f3a575b505050811b0160015562000163565b015160001960f88460031b161c1916905538808062000f2b565b9192602060018192868b01518155019401920162000f14565b600160005262000fa99060008051602062006468833981519152601f840160051c8101916020851062000fb0575b601f0160051c019062001142565b3862000131565b909150819062000f9b565b015190503880620000f3565b6000808052601f19831696600080516020620064488339815191529290915b88811062001026575083600195969798106200100c575b505050811b0160005562000109565b015160001960f88460031b161c1916905538808062000ffd565b9192602060018192868501518155019401920162000fe6565b60008052620010799060008051602062006448833981519152601f840160051c8101916020851062000fb057601f0160051c019062001142565b38620000d4565b600080fd5b60405190606082016001600160401b0381118382101762000c7357604052565b60405190608082016001600160401b0381118382101762000c7357604052565b6040519060a082016001600160401b0381118382101762000c7357604052565b60408051919082016001600160401b0381118382101762000c7357604052565b90600182811c9216801562001137575b60208310146200112157565b634e487b7160e01b600052602260045260246000fd5b91607f169162001115565b8181106200114e575050565b6000815560010162001142565b9190601f81116200116b57505050565b62001199926000526020600020906020601f840160051c8301931062000fb057601f0160051c019062001142565b56fe6080604052600436101561001b575b361561001957600080fd5b005b6000803560e01c80622144f61461334e57806268f22e146132e657806301ffc9a71461327757806306fdde03146131d3578063081812fc14613196578063095ea7b3146130b357806312e8e2c314613090578063166829e31461306c5780631cbb41311461302f5780631dafec0014612f5057806323b872dd14612f3857806326232a2e14612f1a5780632a32e8d414612e3c5780632ca5f30a14612e0a5780633a92c0ac14612dec5780633f4ba83a14612d81578063415d6a0114612c8b57806342842e0e14612c5d5780634350772c14612c345780634403940214612c0b57806355f804b314612a795780635b6ef032146129f65780635c975abb146129d35780636352211e146129a257806367cfab58146129795780636844126f146128e15780636a6cdc6c1461282d5780636ab1b29b146127be5780636aef50691461260f5780636c0360eb1461257b5780637035bf181461255f57806370a0823114612507578063715018a6146124aa57806373b31190146124605780637a33eabc146123f85780638456cb591461239d57806386da2bd7146123475780638973bc7e1461232b5780638b3fd44f146120875780638da5cb5b1461205e5780638f2fec0814611fd7578063936315d614611fa9578063938e3d7b14611dec57806395d89b4114611d1d57806396b55f7d14611cff5780639b41886c14611ce15780639bd1613514611b90578063a20fd5c414611a94578063a22cb465146119e4578063b1d78c9a146119bd578063b88d4fde1461194e578063c1b39a3e14611925578063c47d4357146118aa578063c87b56dd1461188a578063c886015d1461154e578063cc64cb7c14610c11578063d0fdcc09146107e7578063d96fe72d146107cb578063db4b82681461075d578063de4b53bd14610706578063e0d5e1b41461068c578063e8a3d485146105aa578063e985e9c514610556578063eb578bca14610513578063f2fde38b146104835763fe2c7fee146102fb575061000e565b346104805760209081600319360112610480576001600160401b0360043581811161047c5761032e903690600401613634565b92610337613850565b83519182116104685761034b601654613652565b601f8111610410575b5080601f831160011461038f57508293829392610384575b50508160011b916000199060031b1c19161760165580f35b01519050388061036c565b60168452601f198316947fd833147d7dc355ba459fc788f669e58cfaf9dc25ddcd0702e87d69c7b5124289929185905b8782106103f85750508360019596106103df575b505050811b0160165580f35b015160001960f88460031b161c191690553880806103d3565b806001859682949686015181550195019301906103bf565b61045890601685527fd833147d7dc355ba459fc788f669e58cfaf9dc25ddcd0702e87d69c7b5124289601f850160051c81019184861061045e575b601f0160051c019061461b565b38610354565b909150819061044b565b634e487b7160e01b83526041600452602483fd5b8280fd5b80fd5b50346104805760203660031901126104805761049d613449565b6104a5613850565b6001600160a01b039081169081156104fa57600654826bffffffffffffffffffffffff60a01b821617600655167f8be0079c531659141344cd1fd0a4f28419497f9722a3daafe3b4186f6b6457e0600080a380f35b604051631e4fbdf760e01b815260048101849052602490fd5b50346104805760203660031901126104805760ff610552610535600435613bb0565b604092919251938493168352604060208401526040830190613498565b0390f35b503461048057604036600319011261048057610570613449565b604061057a61345f565b9260018060a01b0380931681526005602052209116600052602052602060ff604060002054166040519015158152f35b50346104805780600319360112610480576040516000600a546105cc81613652565b80845290600190818116908115610665575060011461060a575b610552846105f6818603826135aa565b604051918291602083526020830190613498565b600a600090815292507fc65a7bb8d6351c1cf70c95a316cc6a92839c986682d98bc35f958f4883f9d2a85b82841061064d5750505081016020016105f6826105e6565b80546020858701810191909152909301928101610635565b60ff191660208087019190915292151560051b850190920192506105f691508390506105e6565b5034610480576020366003190112610480576106a6613449565b6106ae613d76565b6106b6613d58565b6106bf81613eac565b6001600160a01b0316338190036106da575b50600160075580f35b33907f03b940e5594caf9c29015b39d851054d069d150d662629de6bbdc3086fc163cd8380a3386106d1565b5034610480576020366003190112610480576040906004358152601460205220805461055261073f600260ff600186015416940161374a565b60405193849384526020840152606060408401526060830190613498565b503461048057602036600319011261048057610777613449565b61077f613850565b600d80546001600160a01b0319166001600160a01b03928316908117909155600c549091167f14662a0fccd762a05d5e1fa6afdd204554c4cf90fe58b5c5947f664fb71925f58380a380f35b5034610480578060031936011261048057602060405160038152f35b50602080600319360112610c0d5760043590610801613d76565b610809613d58565b81151580610c02575b61081b90613c3f565b3383526017815261083a60408420805415908115610bf3575b50613c84565b61084382613bb0565b5061084d83614f53565b9061085a84601354613cd0565b600f546001600160a01b0393879290918690861680610b7c575b50503410610b1d57869060048686600c5416604051928380926329bdca3760e01b82525afa8015610b125786918491610ad8575b501690813b1561047c5760405163d064ff1960e01b8152336004820152602481019190915291908290604490829084905af18015610acd57610a9e575b506040513360601b6bffffffffffffffffffffffff191681860190815243601482015260348101879052859161092881605484015b03601f1981018352826135aa565b51902093600f54169182610a1b575b5050506040519061094782613523565b4382526109b860048584019387855260408101953487526060820190815260808201968a885260ff60a084019616865260c083019660018852338c5260178a5260408c20935184555160018401555160028301555160038201550193511515849060ff801983541691151516179055565b519061ff0062ff000084549251151560101b169260081b169062ffff001916171790556040519182524390820152600160408201527fe76693a509b276a8f091f368f5ee1fcd90a958858d61248bdb8588205bcd734560603392a2600160075580f35b60405163435639fb60e11b81523360048201526024810188905260ff85166044820152606481018690529283916084918391905af1908115610a93578491610a65575b8190610937565b813d8311610a8c575b610a7881836135aa565b81010312610a87578238610a5e565b600080fd5b503d610a6e565b6040513d88823e3d90fd5b6001600160401b038197929711610ab95760405294386108e5565b634e487b7160e01b82526041600452602482fd5b6040513d89823e3d90fd5b809250888092503d8311610b0b575b610af181836135aa565b8101031261047c5751858116810361047c578590386108a8565b503d610ae7565b6040513d85823e3d90fd5b60405162461bcd60e51b815260048101869052603160248201527f4865726f3a20496e73756666696369656e74207061796d656e7420666f72207660448201527030bab63a1036b4b73a1030b732102b292360791b6064820152608490fd5b6040516307ae316d60e41b8152929450829060049082905afa8015610be8578890610bb5575b610bae91508093613ce3565b8538610874565b508581813d8311610be1575b610bcb81836135aa565b81010312610bdd57610bae9051610ba2565b8780fd5b503d610bc1565b6040513d8a823e3d90fd5b60ff9150600401541638610834565b506032821115610812565b5080fd5b503461048057602036600319011261048057610c2b613449565b610c33613d76565b610c3b613d58565b6001600160a01b03811682526017602052604082208054610c5d811515613d99565b610c6e60ff60048401541615613ddd565b60038101908181116112c357610102018091116112af57431115611511576001600160a01b03821680845260176020908152604080862060048082018054600160ff1991821681179092556019808752858b20838c528752858b20805483169055878b52808752858b2060028c528752858b20805483169055878b52808752858b2060038c528752858b20805483169055878b52808752858b20938b52928652848a20805482169055958952908452828820600589529093529086208054909316909255810154601c805490869055909390806114cd575b50838552601b602052604085209360405194610d618661353e565b549460ff8616815260ff8660081c16602082015260ff8660101c16604082015260ff8660181c16606082015260ff8660201c1660808201529460ff81161590816114be575b5061139b575b50845b60ff60808601511660ff82161015610e1657601c54600160401b811015610e025790610de4826001610dfd9401601c5561485b565b81549060031b9060ff6005831b921b1916179055614898565b610daf565b634e487b7160e01b87526041600452602487fd5b508493845b60ff60608301511660ff82161015610e6e57601c54600160401b811015610e025790610e50826001610e699401601c5561485b565b81549060031b9060ff6004831b921b1916179055614898565b610e1b565b508493845b60ff60408401511660ff82161015610ec657601c54600160401b811015610e025790610ea8826001610ec19401601c5561485b565b81549060031b9060ff6003831b921b1916179055614898565b610e73565b508493845b60ff60208501511660ff82161015610f1e57601c54600160401b811015610e025790610f00826001610f199401601c5561485b565b81549060031b9060ff6002831b921b1916179055614898565b610ecb565b508493845b60ff85511660ff82161015610f7657601c54600160401b811015610e025760ff91610f57826001610f6f9401601c5561485b565b81549060031b90856001831b921b1916179055614898565b9050610f23565b50849350601c54806000198101116112c35760001901805b6112d7575081546003810181116112c35760030140156112a2575b610fb660018301546145a7565b91845b60018201548110156110b7576011805490610fd3826145d9565b905580610fe083876145e8565b5261103a604051610ff0816134f2565b8881526002602082018a815260408301908b8252858c52600b60205260ff60408d2094511660ff1985541617845551600184015551151591019060ff801983541691151516179055565b6110448185614656565b6001600160a01b0384168752601860205260408720805490600160401b8210156110a3576110808261109792600161109e9796950181556137ee565b819391549060031b91821b91600019901b19161790565b90556145d9565b610fb9565b634e487b7160e01b89526041600452602489fd5b50918493845b82518110156111ca57806110d46111c592856145e8565b5160ff6110e08361485b565b90549060031b1c16907ff38fb73870bdd02683fad66fb67561b9981e4d40371e63e01ae2e8bf2345e1766111bd6111316040516020810190858252602081526111288161358f565b51902085614c02565b838c52600b602052600260408d208660ff1982541617815582600182015501600160ff198254161790556040518460008051602061525783398151915260018060a01b038d169280611194868b836020909392919360ff60408201951681520152565b0390a36040805160ff909616865260208601919091526001600160a01b038a1694918291820190565b0390a36145d9565b6110bd565b5084937f0908417bb2d0393a45bf6efe35cecf8dbedbab1767b8d95f650094c6ccd1d0ac60019360ff60048685015494015460081c16611218604051928392888060a01b038a1696846145fc565b0390a2818060a01b0383168452601760205261124f6040852060046000918281558260018201558260028201558260038201550155565b601860205261126060408520614632565b015460405190815233916001600160a01b0316907fa65d0fdb45e0e0e3df56379247bc241e554ab7115be9ea5b25a37920bfbba3c290602090a3600160075580f35b4360001981011115610fa9575b634e487b7160e01b84526011600452602484fd5b634e487b7160e01b85526011600452602485fd5b6040516020810190428252826040820152604081526112f5816134f2565b51902060018201908183116113875781156113735761136d9291611368910661134a60ff6113228561485b565b90549060031b1c169161136360ff6113398361485b565b90549060031b1c1661134a8761485b565b90919060ff8084549260031b9316831b921b1916179055565b61485b565b613b8d565b80610f8e565b634e487b7160e01b87526012600452602487fd5b634e487b7160e01b87526011600452602487fd5b90935060058110156113fc575060018452601b6020526040842060ff604051916113c48361353e565b548181168352818160081c166020840152818160101c166040840152818160181c16606084015260201c166080820152925b38610dac565b600a811015611458575060058452601b6020526040842060ff604051916114228361353e565b548181168352818160081c166020840152818160101c166040840152818160181c16606084015260201c166080820152926113f6565b601481101561147e5750600a8452601b6020526040842060ff604051916114228361353e565b603211156114a25760148452601b6020526040842060ff604051916114228361353e565b60328452601b6020526040842060ff604051916114228361353e565b60ff915060081c161538610da6565b601f7f0e4562a10381dec21b205ed72637e6b1b523bdd0e4d4d50af5cd23dd4500a211910160051c8101905b8181106115065750610d46565b8681556001016114f9565b60405162461bcd60e51b815260206004820152601560248201527412195c9bce88139bdd08195e1c1a5c9959081e595d605a1b6044820152606490fd5b50602080600319360112610c0d5760043590611568613d76565b611570613d58565b8115158061187f575b61158290613c3f565b338352601781526115a060408420805415908115610bf35750613c84565b6115a982613bb0565b506115b383614f53565b906115c084601354613cd0565b600f546001600160a01b0393879290918690861680611817575b505034106117be5761161e9084600d5416604051916323b872dd60e01b888401523360248401523060448401526064830152606482526116198261353e565b613cf0565b6040513360601b6bffffffffffffffffffffffff1916818601908152436014820152603481018790528591611656816054840161091a565b51902093600f54169182611747575b5050506040519061167582613523565b4382526116e560048584019387855260408101953487526060820190815260808201968a885260ff60a084019616865260c08301968b8852338c5260178a5260408c20935184555160018401555160028301555160038201550193511515849060ff801983541691151516179055565b519061ff0062ff000084549251151560101b169260081b169062ffff0019161717905560405191825243908201528160408201527fe76693a509b276a8f091f368f5ee1fcd90a958858d61248bdb8588205bcd734560603392a2600160075580f35b60405163435639fb60e11b81523360048201526024810188905260ff85166044820152606481018690529283916084918391905af1908115610a93578491611791575b8190611665565b813d83116117b7575b6117a481836135aa565b810103126117b357823861178a565b8480fd5b503d61179a565b60405162461bcd60e51b815260048101869052602b60248201527f4865726f3a20496e73756666696369656e74207061796d656e7420666f72206d60448201526a34b73a1030b732102b292360a91b6064820152608490fd5b6040516307ae316d60e41b8152929450829060049082905afa8015610be8578890611850575b61184991508093613ce3565b85386115da565b508581813d8311611878575b61186681836135aa565b81010312610bdd57611849905161183d565b503d61185c565b506032821115611579565b5034610480576020366003190112610480576105526105f6600435614cc6565b50346104805780600319360112610480576118c3613850565b8080808060018060a01b036006541647905af16118de613a41565b50156118e75780f35b60405162461bcd60e51b815260206004820152601660248201527513985d1a5d99481dda5d1a191c985dc819985a5b195960521b6044820152606490fd5b5034610480578060031936011261048057600f546040516001600160a01b039091168152602090f35b503461048057608036600319011261048057611968613449565b61197061345f565b90604435606435926001600160401b0384116117b357366023850112156117b3576119a86119ba9436906024816004013591016135fd565b926119b483838361387c565b33613a71565b80f35b50346104805760203660031901126104805760206119dc600435614f53565b604051908152f35b5034610480576040366003190112610480576119fe613449565b6024359081151590818303611a90576001600160a01b0316918215611a7757611a4890338552600560205260408520848652602052604085209060ff801983541691151516179055565b6040519081527f17307eab39ab6107e8899845ad3d59bd9653f200f220920489ca2b5937696c3160203392a380f35b604051630b61174360e31b815260048101849052602490fd5b8380fd5b5034610480576020366003190112610480576001600160a01b03611ab6613449565b1681526017602052604081209060405190611ad082613523565b600483549384845260018101546020850152600281015460408501526003810154606085015201549160c060ff808516159485156080850152818160081c1660a085015260101c1615159101528215159182611b88575b5081611b3b575b6020826040519015158152f35b90506003820191828111611b745761010201809211611b605750602090431138611b2e565b634e487b7160e01b81526011600452602490fd5b634e487b7160e01b82526011600452602482fd5b915038611b27565b5034610480578060031936011261048057601554611bad816135cb565b90611bbb60405192836135aa565b808252601f19611bca826135cb565b01835b818110611cb7575050825b818110611c5f57505060405190602092838301848452825180915260408401948060408360051b870101940192955b828710611c145785850386f35b909192938280611c4f600193603f198a8203018652604089518051835260ff8582015116858401520151906060908160408201520190613498565b9601920196019592919092611c07565b80611cb2918552602060148152611c92600260408820600581549460405195611c87876134f2565b86528501520161374a565b6040820152611ca182866145e8565b52611cac81856145e8565b506145d9565b611bd8565b602090604051611cc6816134f2565b86815282878183015260606040830152828701015201611bcd565b50346104805780600319360112610480576020601254604051908152f35b50346104805780600319360112610480576020601554604051908152f35b503461048057806003193601126104805760405190806001805491611d4183613652565b80865292828116908115611dc25750600114611d68575b610552856105f6818703826135aa565b92508083527fb10e2d527612073b26eecdfd717e6a320cf44b4afac2b0732d9fcbe2b7fa0cf65b828410611daa5750505081016020016105f682610552611d58565b80546020858701810191909152909301928101611d8f565b869550610552969350602092506105f694915060ff191682840152151560051b8201019293611d58565b50346104805760209081600319360112610480576001600160401b0360043581811161047c57611e20903690600401613634565b90611e29613850565b815190811161046857611e3d600a54613652565b601f8111611f5c575b5083601f8211600114611eba5790808495927f905d981207a7d0b6c62cc46ab0be2a076d0298e4a86d0ab79882dbd01ac373789591611eaf575b508160011b916000199060031b1c191617600a555b611ea9604051928284938452830190613498565b0390a180f35b905083015138611e80565b600a84527fc65a7bb8d6351c1cf70c95a316cc6a92839c986682d98bc35f958f4883f9d2a890601f198316855b818110611f4557509183917f905d981207a7d0b6c62cc46ab0be2a076d0298e4a86d0ab79882dbd01ac3737896979460019410611f2c575b5050811b01600a55611e95565b85015160001960f88460031b161c191690553880611f1f565b919287600181928689015181550194019201611ee7565b611fa390600a85527fc65a7bb8d6351c1cf70c95a316cc6a92839c986682d98bc35f958f4883f9d2a8601f840160051c81019187851061045e57601f0160051c019061461b565b38611e46565b5034610480576020366003190112610480576020611fcd611fc8613449565b615025565b6040519015158152f35b503461048057602080600319360112610c0d576001600160a01b03611ffa613449565b168252601881526040822091604051809384918482549182815201918452848420935b8582821061204857505050612034925003836135aa565b61055260405192828493845283019061381c565b855484526001958601958895509301920161201d565b50346104805780600319360112610480576006546040516001600160a01b039091168152602090f35b50346104805760803660031901126104805760043590602435916044359060ff821680920361047c576001600160401b03916064358381116117b3576120d1903690600401613634565b946120da613850565b600a8310156122e657600180831015806122db575b1561229657604051612100816134f2565b82815260209560028783019286845260408101938b8552888b5260148a5260408b209151825560ff86830191511660ff1982541617905501915180519182116110a357819061214f8454613652565b601f8111612268575b508890601f8311600114612209578a926121fe575b5050600019600383901b1c191690831b1790555b6015548410156121d6575b5094611ea9917fc03e8a93a79fa8eb0097f5fbbbb816f93271b89d3ffc92753e027320b992f93e959660405195869586528501526040840152608060608401526080830190613498565b83018084116121ea57601555611ea961218c565b634e487b7160e01b86526011600452602486fd5b01519050388061216d565b848b52898b208694509190601f1984168c5b8c8282106122525750508411612239575b505050811b019055612181565b015160001960f88460031b161c1916905538808061222c565b838501518655899790950194938401930161221b565b61229090858c528a8c20601f850160051c8101918c861061045e57601f0160051c019061461b565b38612158565b60405162461bcd60e51b815260206004820152601860248201527f4865726f3a20496e76616c6964206d61782072617269747900000000000000006044820152606490fd5b5060058311156120ef565b60405162461bcd60e51b815260206004820152601760248201527f4865726f3a205469657220494420746f6f206c617267650000000000000000006044820152606490fd5b5034610480578060031936011261048057602060405160ff8152f35b503461048057604036600319011261048057612361613449565b6001600160a01b031681526018602052604081208054602435929083101561048057602061238f84846137ee565b90546040519160031b1c8152f35b50346104805780600319360112610480576123b6613850565b6123be613d58565b600160ff1960085416176008557f62e78cea01bee320cd4e420270b5ea74000d11b0c9f74754ebdbfc544b05a2586020604051338152a180f35b503461048057602036600319011261048057612412613449565b61241a613850565b600f80546001600160a01b0319166001600160a01b039290921691821790557feda44c694e75c8161562f6179238b37a8daa291b6b2229613ed903ed92ab2d3d8280a280f35b50346104805760203660031901126104805760406060916004358152600b6020522060ff8154169060ff600260018301549201541690604051928352602083015215156040820152f35b50346104805780600319360112610480576124c3613850565b600680546001600160a01b0319811690915581906001600160a01b03167f8be0079c531659141344cd1fd0a4f28419497f9722a3daafe3b4186f6b6457e08280a380f35b5034610480576020366003190112610480576001600160a01b03612529613449565b168015612546578160409160209352600383522054604051908152f35b6040516322718ad960e21b815260048101839052602490fd5b50346104805780600319360112610480576105526105f661368c565b5034610480578060031936011261048057604051908060095461259d81613652565b80855291600191808316908115611dc257506001146125c657610552856105f6818703826135aa565b9250600983526000805160206152378339815191525b8284106125f75750505081016020016105f682610552611d58565b805460208587018101919091529093019281016125dc565b503461048057602080600319360112610c0d576004359060018060a01b0361263c81600e54163314614bb6565b61264583613a1e565b838552600b8352604085209060405161265d816134f2565b60ff835416815260ff6002600185015494878401958652015416158015604083015261276f575191516040805160ff9094168452602084019190915285938793909283169185917f4ea24cce0fda81cee15bace7541c9ae5cc434fe4b80d5065b70dbae17db1a0519190a3828252600284526040822054166002811594851561273b575b848452526040822080546001600160a01b03191690557fddf252ad1be2c89b69c2b068fc378daa952ba7f163c4a11628f55a4df523b3ef8280a4612723575080f35b60249060405190637e27328960e01b82526004820152fd5b600085815260046020526040902080546001600160a01b0319169055828452600381526040842080546000190190556126e1565b60405162461bcd60e51b815260048101869052602160248201527f4865726f3a2043616e6e6f74206275726e20756e72657665616c6564206865726044820152606f60f81b6064820152608490fd5b5034610480576020366003190112610480576127d8613449565b6127e0613850565b600c80546001600160a01b0319166001600160a01b03928316908117909155600d54909116907f14662a0fccd762a05d5e1fa6afdd204554c4cf90fe58b5c5947f664fb71925f58380a380f35b50346104805760203660031901126104805760409060043561284e81613a1e565b508152600b60205220604051612863816134f2565b60ff825416815260ff60026001840154936020840194855201541615801560408301526128a3575190516040805160ff9093168352602083019190915290f35b60405162461bcd60e51b815260206004820152601660248201527512195c9bce88139bdd081e595d081c995d99585b195960521b6044820152606490fd5b503461048057602080600319360112610c0d57600435918061290284613bb0565b9180915090601554915b82811061294b5750505061293c612924608095614f53565b91604051958695600587528601526080850190613498565b91604084015260608301520390f35b8082526014865260408220548088101561296f575b5061296a906145d9565b61290c565b945061296a612960565b5034610480578060031936011261048057600c546040516001600160a01b039091168152602090f35b50346104805760203660031901126104805760206129c1600435613a1e565b6040516001600160a01b039091168152f35b5034610480578060031936011261048057602060ff600854166040519015158152f35b50346104805760203660031901126104805760e0906040906001600160a01b03612a1e613449565b16815260176020522060ff8154916001810154906002810154600460038301549201549260405195865260208601526040850152606084015281811615156080840152818160081c1660a084015260101c16151560c0820152f35b50346104805760209081600319360112610480576001600160401b0360043581811161047c57612aad903690600401613634565b90612ab6613850565b815190811161046857612aca600954613652565b601f8111612bd0575b5083601f8211600114612b405790808495927ff9c7803e94e0d3c02900d8a90893a6d5e90dd04d32a4cfe825520f82bf9f32f69591612b35575b508160011b916000199060031b1c191617600955611ea9604051928284938452830190613498565b905083015138612b0d565b6009845260008051602061523783398151915290601f198316855b818110612bb957509183917ff9c7803e94e0d3c02900d8a90893a6d5e90dd04d32a4cfe825520f82bf9f32f696979460019410612ba0575b5050811b01600955611e95565b85015160001960f88460031b161c191690553880612b93565b919287600181928689015181550194019201612b5b565b612c059060098552600080516020615237833981519152601f840160051c81019187851061045e57601f0160051c019061461b565b38612ad3565b5034610480578060031936011261048057600d546040516001600160a01b039091168152602090f35b5034610480578060031936011261048057600e546040516001600160a01b039091168152602090f35b5034610480576119ba612c6f366134bd565b9060405192612c7d84613574565b8584526119b483838361387c565b503461048057602036600319011261048057604060e091612caa613449565b8160c08451612cb881613523565b82815282602082015282868201528260608201528260808201528260a0820152015260018060a01b0316815260176020522060405190612cf782613523565b60ff815492838152600183015460208201908152600284015493604083019485526004600382015491606085019283520154946080840192858716151584528560c060a0870196828a60081c168852019760101c16151587526040519788525160208801525160408701525160608601525115156080850152511660a083015251151560c0820152f35b5034610480578060031936011261048057612d9a613850565b60085460ff811615612dda5760ff19166008557f5db9ee0a495bf2e6ff9c91a7834c1ba4fdd244a5e8aa4e537bd38aeae4b073aa6020604051338152a180f35b604051638dfc202b60e01b8152600490fd5b50346104805780600319360112610480576020601054604051908152f35b5034610480578060031936011261048057612e23613d76565b612e2b613d58565b612e3433613eac565b600160075580f35b503461048057604036600319011261048057602435906001600160401b038211610480573660238301121561048057816004013591612e7a836135cb565b92612e8860405194856135aa565b808452602460208095019160051b83010191368311611a9057602401905b828210612f0b57600f54849086906001600160a01b03163303612ec7575080f35b6064906040519062461bcd60e51b82526004820152601f60248201527f4865726f3a204f6e6c7920565246204d616e616765722063616e2063616c6c006044820152fd5b81358152908401908401612ea6565b50346104805780600319360112610480576020601354604051908152f35b5034610480576119ba612f4a366134bd565b9161387c565b5034610480578060031936011261048057612f69613850565b600d546040516370a0823160e01b81523060048201526001600160a01b03918216602082602481845afa918215613024578492612ff1575b5081612fab578380f35b60065460405163a9059cbb60e01b602082015293166001600160a01b03166024840152604480840192909252908252612fea91906116196064836135aa565b3880808380f35b9091506020813d821161301c575b8161300c602093836135aa565b81010312611a9057519038612fa1565b3d9150612fff565b6040513d86823e3d90fd5b50346104805760203660031901126104805760043561304c613850565b670de0b6b3a764000090818102918183041490151715611b745760125580f35b50346104805760203660031901126104805760206119dc61308b613449565b615161565b5034610480576020366003190112610480576130aa613850565b60043560135580f35b5034610480576040366003190112610480576130cd613449565b6024356130d981613a1e565b33151580613183575b80613158575b613140576001600160a01b039283169282918491167f8c5be1e5ebec7d5bd14f71427d1e84f3dd0314c0f7b2291e5b200ac8c7c3b9258680a4825260046020526040822080546001600160a01b031916909117905580f35b60405163a9fbf51f60e01b8152336004820152602490fd5b506001600160a01b038116845260056020908152604080862033875290915284205460ff16156130e8565b506001600160a01b0381163314156130e2565b5034610480576020366003190112610480576020906004356131b781613a1e565b50815260048252604060018060a01b0391205416604051908152f35b5034610480578060031936011261048057604051908080546131f481613652565b80855291600191808316908115611dc2575060011461321d57610552856105f6818703826135aa565b80809450527f290decd9548b62a8d60345a988386fc84ba6bc95484008f6362f93160ef3e5635b82841061325f5750505081016020016105f682610552611d58565b80546020858701810191909152909301928101613244565b50346104805760203660031901126104805760043563ffffffff60e01b8116809103610c0d576020906380ac58cd60e01b81149081156132d5575b81156132c4575b506040519015158152f35b6301ffc9a760e01b149050826132b9565b635b5e139f60e01b811491506132b2565b503461048057602036600319011261048057613300613449565b613308613850565b600e80546001600160a01b0319166001600160a01b039290921691821790557f088c5ec3908e3424c43d8102e8e1cc8eb8820a25e326b9c31cc58963046b92e98280a280f35b503461048057606036600319011261048057613368613449565b6024359060ff821690818303611a9057926000805160206152578339815191526002939260209561343e60443561340860018060a01b03946133af86600e54163314614bb6565b601154998a98604051926133c2846134f2565b83528c830185815260ff604080860193600185528d81526020600b90522094511660ff1985541617845551600184015551151591019060ff801983541691151516179055565b6134128684614656565b61341d6011546145d9565b6011556040519384931696836020909392919360ff60408201951681520152565b0390a3604051908152f35b600435906001600160a01b0382168203610a8757565b602435906001600160a01b0382168203610a8757565b60005b8381106134885750506000910152565b8181015183820152602001613478565b906020916134b181518092818552858086019101613475565b601f01601f1916010190565b6060906003190112610a87576001600160a01b03906004358281168103610a8757916024359081168103610a87579060443590565b606081019081106001600160401b0382111761350d57604052565b634e487b7160e01b600052604160045260246000fd5b60e081019081106001600160401b0382111761350d57604052565b60a081019081106001600160401b0382111761350d57604052565b608081019081106001600160401b0382111761350d57604052565b602081019081106001600160401b0382111761350d57604052565b604081019081106001600160401b0382111761350d57604052565b90601f801991011681019081106001600160401b0382111761350d57604052565b6001600160401b03811161350d5760051b60200190565b6001600160401b03811161350d57601f01601f191660200190565b929192613609826135e2565b9161361760405193846135aa565b829481845281830111610a87578281602093846000960137010152565b9080601f83011215610a875781602061364f933591016135fd565b90565b90600182811c92168015613682575b602083101461366c57565b634e487b7160e01b600052602260045260246000fd5b91607f1691613661565b60405190600082601654916136a083613652565b8083529260019081811690811561372857506001146136c9575b506136c7925003836135aa565b565b6016600090815291507fd833147d7dc355ba459fc788f669e58cfaf9dc25ddcd0702e87d69c7b51242895b84831061370d57506136c79350508101602001386136ba565b81935090816020925483858a010152019101909185926136f4565b9050602092506136c794915060ff191682840152151560051b820101386136ba565b906040519182600082549261375e84613652565b9081845260019485811690816000146137cb5750600114613788575b50506136c7925003836135aa565b9093915060005260209081600020936000915b8183106137b35750506136c79350820101388061377a565b8554888401850152948501948794509183019161379b565b9150506136c794506020925060ff191682840152151560051b820101388061377a565b80548210156138065760005260206000200190600090565b634e487b7160e01b600052603260045260246000fd5b90815180825260208080930193019160005b82811061383c575050505090565b83518552938101939281019260010161382e565b6006546001600160a01b0316330361386457565b60405163118cdaa760e01b8152336004820152602490fd5b6001600160a01b039182169290918315613a055760009282845282602095600287526040968488882054169687913315158061396c575b509060027fddf252ad1be2c89b69c2b068fc378daa952ba7f163c4a11628f55a4df523b3ef9284613939575b858352600381528b8320805460010190558683525289812080546001600160a01b0319168517905580a416928383036139185750505050565b6064945051926364283d7b60e01b8452600484015260248301526044820152fd5b600087815260046020526040902080546001600160a01b0319169055848352600381528b832080546000190190556138df565b919394509150806139c4575b15613988578592918791386138b3565b8786886139a5576024915190637e27328960e01b82526004820152fd5b905163177e802f60e01b81523360048201526024810191909152604490fd5b5033871480156139e9575b806139785750858252600481523385898420541614613978565b5086825260058152878220338352815260ff88832054166139cf565b604051633250574960e11b815260006004820152602490fd5b6000818152600260205260409020546001600160a01b0316908115612723575090565b3d15613a6c573d90613a52826135e2565b91613a6060405193846135aa565b82523d6000602084013e565b606090565b9293823b613a81575b5050505050565b613ac59060018060a01b038094169560405194859481630a85bd0160e11b988988521660048701521660248501526044840152608060648401526084830190613498565b03906020816000938185885af190829082613b45575b5050613b135782613aea613a41565b8051919082613b0c57604051633250574960e11b815260048101839052602490fd5b6020915001fd5b6001600160e01b03191603613b2d57503880808080613a7a565b60249060405190633250574960e11b82526004820152fd5b909192506020813d8211613b85575b81613b61602093836135aa565b81010312610c0d5751906001600160e01b0319821682036104805750903880613adb565b3d9150613b54565b8015613b9a576000190190565b634e487b7160e01b600052601160045260246000fd5b601554805b613be5575050600590604051613bca8161358f565b600b81526a14da5b99db1948135a5b9d60aa1b602082015290565b6000198101818111613c2a5760409060009081526014602052208054831015613c185750613c1290613b8d565b80613bb5565b9291505061364f60026005930161374a565b60246000634e487b7160e01b81526011600452fd5b15613c4657565b60405162461bcd60e51b81526020600482015260166024820152754865726f3a20496e76616c6964207175616e7469747960501b6044820152606490fd5b15613c8b57565b60405162461bcd60e51b815260206004820152601b60248201527f4865726f3a2050726576696f7573206d696e742070656e64696e6700000000006044820152606490fd5b81810292918115918404141715613b9a57565b91908201809211613b9a57565b906000602091828151910182855af115613d4c576000513d613d4357506001600160a01b0381163b155b613d215750565b604051635274afe760e01b81526001600160a01b039091166004820152602490fd5b60011415613d1a565b6040513d6000823e3d90fd5b60ff60085416613d6457565b60405163d93c066560e01b8152600490fd5b600260075414613d87576002600755565b604051633ee5aeb560e01b8152600490fd5b15613da057565b60405162461bcd60e51b815260206004820152601560248201527412195c9bce88139bc81c195b991a5b99c81b5a5b9d605a1b6044820152606490fd5b15613de457565b60405162461bcd60e51b815260206004820152601660248201527512195c9bce88105b1c9958591e481c995d99585b195960521b6044820152606490fd5b9190604083820312610a875782518015158103610a87579260209081810151906001600160401b038211610a8757019180601f84011215610a87578251613e68816135cb565b93613e7660405195866135aa565b818552838086019260051b820101928311610a87578301905b828210613e9d575050505090565b81518152908301908301613e8f565b9060018060a01b0380831660005260176020526040600020613ed081541515613d99565b600481018054613ee360ff821615613ddd565b83600f54169081614335575b505050546003810190818111613b9a578143106142f05761010201809111613b9a5743116142ab57808316600090815260176020908152604080832060048082018054600160ff199182168117909255601986528487209187529452828520805485169055600285528285208054851690556003808652838620805486169055908552828520805485169055600585529190932080549092169091558154919491908101908110613b9a5740938415614296575b613fb060018201546145a7565b9460005b600183015481101561407f57601190815491613fcf836145d9565b905581613fdc828a6145e8565b5261403b604051613fec816134f2565b600081526002602082016000815260408301906000825286600052600b60205260ff604060002094511660ff1985541617845551600184015551151591019060ff801983541691151516179055565b6140458286614656565b85851660005260186020526040600020918254600160401b81101561350d576110808161407a956001611097940181556137ee565b613fb4565b509294909360005b8251811015614207578061409e61420292856145e8565b51604051907ff38fb73870bdd02683fad66fb67561b9981e4d40371e63e01ae2e8bf2345e17661417b614174602085018b81526060956bffffffffffffffffffffffff198c881b1660408201528760548201526074868183015281526141038161353e565b519020948d8b166000526017602052604060002060c060ff60046040519361412a85613523565b8054855260018101549586602087015260028201546040870152600382015490860152015481811615156080850152818160081c1660a085015260101c1615159101528a866148a9565b9384614c02565b82600052600b6020526002604060002060ff861660ff1982541617815582600182015501600160ff198254161790558b83600080516020615257833981519152604051928c1692806141de868a836020909392919360ff60408201951681520152565b0390a36040805160ff90951685526020850191909152888c169390819081016111bd565b614087565b5094939192507f0908417bb2d0393a45bf6efe35cecf8dbedbab1767b8d95f650094c6ccd1d0ac9060ff6004600185015494015460081c1661425260405192839288881696846145fc565b0390a2166000526017602052614284604060002060046000918281558260018201558260028201558260038201550155565b60186020526136c76040600020614632565b93506000194301438111613b9a574093613fa3565b60405162461bcd60e51b815260206004820152601b60248201527f4865726f3a2052657665616c2077696e646f77206578706972656400000000006044820152606490fd5b60405162461bcd60e51b815260206004820152601960248201527f4865726f3a20546f6f206561726c7920746f2072657665616c000000000000006044820152606490fd5b600060249260405193848092635681dbe960e01b8252898c1660048301525afa918215613d4c5760009060009361457f575b5080614575575b15613eef57600160ff199182168117845587861660009081526019602090815260408083208484529091528082208054851690556002808352818320805486169055600383528183208054861690556004835281832080548616905560058352912080548416905594810180549798969794959394909392906143f0906145a7565b946000835b61443e575b50505050509060ff7f0908417bb2d0393a45bf6efe35cecf8dbedbab1767b8d95f650094c6ccd1d0ac9254935460081c1661425260405192839288881696846145fc565b8554811015614570579083916011805490614458826145d9565b905580614465838b6145e8565b5261447082846145e8565b518b89549061447e926148a9565b908c8c61448b85876145e8565b516144969085614c02565b936040516144a3816134f2565b60ff821681528b6020820187815260408301908b825287600052600b6020526040600020935160ff168d855416178455518b8401555115159101906144f3919060ff801983541691151516179055565b6144fd8483614656565b6040805160ff83168152602081018790528484169186916000805160206152578339815191529190a36040805160ff92909216825260208201959095529116927ff38fb73870bdd02683fad66fb67561b9981e4d40371e63e01ae2e8bf2345e17691a3614569906145d9565b90916143f5565b6143fa565b508151151561436e565b905061459f9192503d806000833e61459781836135aa565b810190613e22565b919038614367565b906145b1826135cb565b6145be60405191826135aa565b82815280926145cf601f19916135cb565b0190602036910137565b6000198114613b9a5760010190565b80518210156138065760209160051b010190565b60ff61364f94936060938352166020820152816040820152019061381c565b818110614626575050565b6000815560010161461b565b80546000825580614641575050565b6136c79160005260206000209081019061461b565b604080519261466484613574565b60008085526001600160a01b03948486169485156148435783835260209660028852858420541684878215159283614810575b81875260038b528887208054600101905582875260028b5288872080546001600160a01b031916831790557fddf252ad1be2c89b69c2b068fc378daa952ba7f163c4a11628f55a4df523b3ef8780a46147f8573b6146f8575b505050505050565b856147359185969798955180938192630a85bd0160e11b978884523360048501528760248501526044840152608060648401526084830190613498565b0381858a5af1908290826147b4575b505061477c57505050614755613a41565b8051939084614776578251633250574960e11b815260048101859052602490fd5b84925001fd5b9194506001600160e01b03199091160361479d5750503880808080806146f0565b602492505190633250574960e11b82526004820152fd5b909192508781813d83116147f1575b6147cd81836135aa565b81010312610c0d5751906001600160e01b0319821682036104805750903880614744565b503d6147c3565b84516339e3563760e11b815260048101849052602490fd5b600083815260046020526040902080546001600160a01b031916905580875260038b528887208054600019019055614697565b8451633250574960e11b815260048101849052602490fd5b90601c5482101561380657601c600052601f8260051c7f0e4562a10381dec21b205ed72637e6b1b523bdd0e4d4d50af5cd23dd4500a21101921690565b60ff1660ff8114613b9a5760010190565b90919060649006602c811015614b7a57506001915b81600052601a90602090828252604092836000208451906148de82613559565b5460ff968792838316948582526008908585831c16898401526010938686861c168b85015260189387606097861c16878201529715614a84575b5050505050600582891614614a45575b600482891614614a04575b6003828916146149c3575b600282891614614985575b5050506001600160a01b031660009081526019825282812085851682529091522080549091614979828216614898565b169060ff191617905590565b60018060a01b038416600052601985528560002060026000528552818660002054169201511611156149ba575b388481614949565b600194506149b2565b905060018060a01b0383166000526019845284600020600360005284528585600020541686868401511611156149fb575b859061493e565b600296506149f4565b905060018060a01b038316600052601984528460002060046000528452858560002054168685840151161115614a3c575b8590614933565b60039650614a35565b905060018060a01b03831660005260198452846000206005600052845285856000205416868351161115614a7b575b8590614928565b60049650614a74565b86949597509184939291826005869410600014614adc575060016000528a528a600020958b5196614ab488613559565b54948580938282168a521c168b8801521c16898501521c1683820152915b3880808080614918565b600a811015614b20575060056000528a528a600020958b5196614afe88613559565b54948580938282168a521c168b8801521c16898501521c168382015291614ad2565b6014811015614b425750600a6000528a528a600020958b5196614afe88613559565b60321115614b625760146000528a528a600020958b5196614afe88613559565b60326000528a528a600020958b5196614afe88613559565b604f811015614b8c57506002916148be565b605e811015614b9e57506003916148be565b60631115614bae576004916148be565b6005916148be565b15614bbd57565b60405162461bcd60e51b815260206004820152601d60248201527f4865726f3a2043616c6c6572206973206e6f742074686520416c7461720000006044820152606490fd5b60ff1660018103614c20575060249006600f0180600f11613b9a5790565b60028103614c3b57506033900660320180603211613b9a5790565b60038103614c5657506033900660640180606411613b9a5790565b60048103614c7157506033900660960180609611613b9a5790565b600503614c8a576038900660c8018060c811613b9a5790565b60405162461bcd60e51b81526020600482015260146024820152734865726f3a20496e76616c69642072617269747960601b6044820152606490fd5b614ccf81613a1e565b506000908082526020600b815260ff60026040852001541615614f485760095492614cf984613652565b15614f0b578291817a184f03e93ff9f4daa797ed6e38ed64bf6a1f0100000000000000008481811015614efd575b50506d04ee2d6d415b85acef810000000080861015614ef1575b50662386f26fc1000080861015614ee4575b506305f5e10080861015614ed7575b5061271080861015614eca575b506064851015614ebc575b600a80951015614eb4575b60019182820195614dae614d98886135e2565b97614da6604051998a6135aa565b8089526135e2565b95846021848a0195601f19809a013688378a0101905b614e85575b5050506040519684889594614ddd83613652565b92818116908115614e645750600114614e14575b50505050614e07829161364f9651938491613475565b01039081018352826135aa565b90919297939450600982526000805160206152378339815191525b838310614e4e5750505061364f95614e07918501019291953880614df1565b80548a84018a0152899650918801918101614e2f565b60ff191688860152505050801515028401019150614e0761364f3880614df1565b600019019082906f181899199a1a9b1b9c1cb0b131b232b360811b8282061a835304908582614dc45750614dc9565b600101614d85565b936064600291049401614d7a565b6004919504940138614d6f565b6008919504940138614d62565b6010919504940138614d53565b82919504940138614d41565b049450604090503880614d27565b60405162461bcd60e51b815260048101839052601560248201527412195c9bce8818985cd9555492481b9bdd081cd95d605a1b6044820152606490fd5b50505061364f61368c565b600c546001600160a01b031691908215614fe0578015614fd9576020601254602460405180968193637b2e0fcf60e01b835260048301525afa928315613d4c57600093614fa6575b5061364f9192613cd0565b6020813d8211614fd1575b81614fbe602093836135aa565b81010312611a905751925061364f614f9b565b3d9150614fb1565b5060009150565b60405162461bcd60e51b815260206004820152601b60248201527f44756e67656f6e436f72652061646472657373206e6f742073657400000000006044820152606490fd5b6001600160a01b039081166000818152601760205260408082209051919290839060049061505285613523565b8054855260018101546020860152600281015460408601526003810154606086015201549460ff608085019681811615158852818160081c1660a087015260101c16151560c0850152600f54169182615109575b505050805180151593846150ff575b50836150e7575b50826150c757505090565b51600381019250828111611b745761010201809211611b60575043111590565b90925060038101809111611b745743101591386150bc565b51159350386150b5565b602460405180948193635681dbe960e01b835260048301525afa908115610b12578391615146575b5061513e573882816150a6565b505050600190565b61515a91503d8085833e61459781836135aa565b5038615131565b6001600160a01b031660009081526017602052604080822090519061518582613523565b6004815491828452600181015460208501526002810154604085015260038101546060850152015460ff808216151591826080860152818160081c1660a086015260101c16151560c0840152811590811561522e575b506152295760038101809111615215574310156152115751906003820191828111611b7457439003600301918211611b60575090565b5090565b634e487b7160e01b83526011600452602483fd5b505090565b9050386151db56fe6e1540171b6c0c960b71a7020d9f60077f6af931a8bbf590da0223dacf75c7af57c4a553ea4024e9d030303a99f6e58dad3e8267764f90605b4a2c968e3b237ea264697066735822122051dc0024b48a7fe1f6518aeac4067f8101b37e967447256f67c4de360498c6eb64736f6c63430008140033290decd9548b62a8d60345a988386fc84ba6bc95484008f6362f93160ef3e563b10e2d527612073b26eecdfd717e6a320cf44b4afac2b0732d9fcbe2b7fa0cf6d833147d7dc355ba459fc788f669e58cfaf9dc25ddcd0702e87d69c7b5124289",
  "linkReferences": {},
  "deployedLinkReferences": {}
}