{
  "_format": "hh-sol-artifact-1",
  "contractName": "VRFManagerV2Plus",
  "sourceName": "contracts/current/core/VRFManagerV2Plus.sol",
  "abi": [
    {
      "inputs": [
        {
          "internalType": "address",
          "name": "_linkAddress",
          "type": "address"
        },
        {
          "internalType": "address",
          "name": "_wrapperAddress",
          "type": "address"
        }
      ],
      "stateMutability": "nonpayable",
      "type": "constructor"
    },
    {
      "inputs": [
        {
          "internalType": "address",
          "name": "owner",
          "type": "address"
        }
      ],
      "name": "OwnableInvalidOwner",
      "type": "error"
    },
    {
      "inputs": [
        {
          "internalType": "address",
          "name": "account",
          "type": "address"
        }
      ],
      "name": "OwnableUnauthorizedAccount",
      "type": "error"
    },
    {
      "inputs": [],
      "name": "ReentrancyGuardReentrantCall",
      "type": "error"
    },
    {
      "anonymous": false,
      "inputs": [
        {
          "indexed": true,
          "internalType": "address",
          "name": "contract_",
          "type": "address"
        },
        {
          "indexed": false,
          "internalType": "bool",
          "name": "authorized",
          "type": "bool"
        }
      ],
      "name": "AuthorizationUpdated",
      "type": "event"
    },
    {
      "anonymous": false,
      "inputs": [
        {
          "indexed": true,
          "internalType": "address",
          "name": "previousOwner",
          "type": "address"
        },
        {
          "indexed": true,
          "internalType": "address",
          "name": "newOwner",
          "type": "address"
        }
      ],
      "name": "OwnershipTransferred",
      "type": "event"
    },
    {
      "anonymous": false,
      "inputs": [
        {
          "indexed": false,
          "internalType": "uint256",
          "name": "newFee",
          "type": "uint256"
        }
      ],
      "name": "PlatformFeeUpdated",
      "type": "event"
    },
    {
      "anonymous": false,
      "inputs": [
        {
          "indexed": true,
          "internalType": "uint256",
          "name": "requestId",
          "type": "uint256"
        },
        {
          "indexed": false,
          "internalType": "uint256[]",
          "name": "randomWords",
          "type": "uint256[]"
        }
      ],
      "name": "RandomFulfilled",
      "type": "event"
    },
    {
      "anonymous": false,
      "inputs": [
        {
          "indexed": true,
          "internalType": "uint256",
          "name": "requestId",
          "type": "uint256"
        },
        {
          "indexed": true,
          "internalType": "address",
          "name": "requester",
          "type": "address"
        },
        {
          "indexed": false,
          "internalType": "enum IVRFManager.RequestType",
          "name": "requestType",
          "type": "uint8"
        }
      ],
      "name": "RandomRequested",
      "type": "event"
    },
    {
      "anonymous": false,
      "inputs": [
        {
          "indexed": false,
          "internalType": "uint256",
          "name": "newPrice",
          "type": "uint256"
        }
      ],
      "name": "VRFPriceUpdated",
      "type": "event"
    },
    {
      "inputs": [
        {
          "internalType": "address",
          "name": "contract_",
          "type": "address"
        }
      ],
      "name": "authorizeContract",
      "outputs": [],
      "stateMutability": "nonpayable",
      "type": "function"
    },
    {
      "inputs": [
        {
          "internalType": "address",
          "name": "",
          "type": "address"
        }
      ],
      "name": "authorizedContracts",
      "outputs": [
        {
          "internalType": "bool",
          "name": "",
          "type": "bool"
        }
      ],
      "stateMutability": "view",
      "type": "function"
    },
    {
      "inputs": [],
      "name": "callbackGasLimit",
      "outputs": [
        {
          "internalType": "uint32",
          "name": "",
          "type": "uint32"
        }
      ],
      "stateMutability": "view",
      "type": "function"
    },
    {
      "inputs": [
        {
          "internalType": "address",
          "name": "user",
          "type": "address"
        }
      ],
      "name": "getRandomForUser",
      "outputs": [
        {
          "internalType": "bool",
          "name": "fulfilled",
          "type": "bool"
        },
        {
          "internalType": "uint256[]",
          "name": "randomWords",
          "type": "uint256[]"
        }
      ],
      "stateMutability": "view",
      "type": "function"
    },
    {
      "inputs": [
        {
          "internalType": "uint256",
          "name": "requestId",
          "type": "uint256"
        }
      ],
      "name": "getRequestStatus",
      "outputs": [
        {
          "internalType": "bool",
          "name": "fulfilled",
          "type": "bool"
        },
        {
          "internalType": "uint256[]",
          "name": "randomWords",
          "type": "uint256[]"
        }
      ],
      "stateMutability": "view",
      "type": "function"
    },
    {
      "inputs": [],
      "name": "getTotalFee",
      "outputs": [
        {
          "internalType": "uint256",
          "name": "",
          "type": "uint256"
        }
      ],
      "stateMutability": "view",
      "type": "function"
    },
    {
      "inputs": [],
      "name": "getVrfRequestPrice",
      "outputs": [
        {
          "internalType": "uint256",
          "name": "",
          "type": "uint256"
        }
      ],
      "stateMutability": "view",
      "type": "function"
    },
    {
      "inputs": [
        {
          "internalType": "address",
          "name": "_contract",
          "type": "address"
        }
      ],
      "name": "isAuthorized",
      "outputs": [
        {
          "internalType": "bool",
          "name": "",
          "type": "bool"
        }
      ],
      "stateMutability": "view",
      "type": "function"
    },
    {
      "inputs": [],
      "name": "owner",
      "outputs": [
        {
          "internalType": "address",
          "name": "",
          "type": "address"
        }
      ],
      "stateMutability": "view",
      "type": "function"
    },
    {
      "inputs": [],
      "name": "platformFee",
      "outputs": [
        {
          "internalType": "uint256",
          "name": "",
          "type": "uint256"
        }
      ],
      "stateMutability": "view",
      "type": "function"
    },
    {
      "inputs": [
        {
          "internalType": "uint256",
          "name": "_requestId",
          "type": "uint256"
        },
        {
          "internalType": "uint256[]",
          "name": "_randomWords",
          "type": "uint256[]"
        }
      ],
      "name": "rawFulfillRandomWords",
      "outputs": [],
      "stateMutability": "nonpayable",
      "type": "function"
    },
    {
      "inputs": [],
      "name": "renounceOwnership",
      "outputs": [],
      "stateMutability": "nonpayable",
      "type": "function"
    },
    {
      "inputs": [],
      "name": "requestConfirmations",
      "outputs": [
        {
          "internalType": "uint16",
          "name": "",
          "type": "uint16"
        }
      ],
      "stateMutability": "view",
      "type": "function"
    },
    {
      "inputs": [
        {
          "internalType": "address",
          "name": "user",
          "type": "address"
        },
        {
          "internalType": "uint256",
          "name": "quantity",
          "type": "uint256"
        },
        {
          "internalType": "uint8",
          "name": "maxRarity",
          "type": "uint8"
        },
        {
          "internalType": "bytes32",
          "name": "commitment",
          "type": "bytes32"
        }
      ],
      "name": "requestRandomForUser",
      "outputs": [
        {
          "internalType": "uint256",
          "name": "requestId",
          "type": "uint256"
        }
      ],
      "stateMutability": "payable",
      "type": "function"
    },
    {
      "inputs": [
        {
          "internalType": "enum IVRFManager.RequestType",
          "name": "requestType",
          "type": "uint8"
        },
        {
          "internalType": "uint32",
          "name": "numWords",
          "type": "uint32"
        },
        {
          "internalType": "bytes",
          "name": "data",
          "type": "bytes"
        }
      ],
      "name": "requestRandomness",
      "outputs": [
        {
          "internalType": "uint256",
          "name": "requestId",
          "type": "uint256"
        }
      ],
      "stateMutability": "payable",
      "type": "function"
    },
    {
      "inputs": [
        {
          "internalType": "uint256",
          "name": "requestId",
          "type": "uint256"
        }
      ],
      "name": "requests",
      "outputs": [
        {
          "components": [
            {
              "internalType": "address",
              "name": "requester",
              "type": "address"
            },
            {
              "internalType": "enum IVRFManager.RequestType",
              "name": "requestType",
              "type": "uint8"
            },
            {
              "internalType": "bytes",
              "name": "data",
              "type": "bytes"
            },
            {
              "internalType": "bool",
              "name": "fulfilled",
              "type": "bool"
            },
            {
              "internalType": "uint256[]",
              "name": "randomWords",
              "type": "uint256[]"
            }
          ],
          "internalType": "struct IVRFManager.RandomRequest",
          "name": "",
          "type": "tuple"
        }
      ],
      "stateMutability": "view",
      "type": "function"
    },
    {
      "inputs": [
        {
          "internalType": "address",
          "name": "_contract",
          "type": "address"
        },
        {
          "internalType": "bool",
          "name": "_authorized",
          "type": "bool"
        }
      ],
      "name": "setAuthorizedContract",
      "outputs": [],
      "stateMutability": "nonpayable",
      "type": "function"
    },
    {
      "inputs": [
        {
          "internalType": "uint32",
          "name": "_limit",
          "type": "uint32"
        }
      ],
      "name": "setCallbackGasLimit",
      "outputs": [],
      "stateMutability": "nonpayable",
      "type": "function"
    },
    {
      "inputs": [
        {
          "internalType": "uint256",
          "name": "_fee",
          "type": "uint256"
        }
      ],
      "name": "setPlatformFee",
      "outputs": [],
      "stateMutability": "nonpayable",
      "type": "function"
    },
    {
      "inputs": [
        {
          "internalType": "uint16",
          "name": "_confirmations",
          "type": "uint16"
        }
      ],
      "name": "setRequestConfirmations",
      "outputs": [],
      "stateMutability": "nonpayable",
      "type": "function"
    },
    {
      "inputs": [
        {
          "internalType": "uint256",
          "name": "_price",
          "type": "uint256"
        }
      ],
      "name": "setVrfRequestPrice",
      "outputs": [],
      "stateMutability": "nonpayable",
      "type": "function"
    },
    {
      "inputs": [
        {
          "internalType": "address",
          "name": "newOwner",
          "type": "address"
        }
      ],
      "name": "transferOwnership",
      "outputs": [],
      "stateMutability": "nonpayable",
      "type": "function"
    },
    {
      "inputs": [
        {
          "internalType": "address",
          "name": "",
          "type": "address"
        },
        {
          "internalType": "uint256",
          "name": "",
          "type": "uint256"
        }
      ],
      "name": "userRandomWords",
      "outputs": [
        {
          "internalType": "uint256",
          "name": "",
          "type": "uint256"
        }
      ],
      "stateMutability": "view",
      "type": "function"
    },
    {
      "inputs": [
        {
          "internalType": "address",
          "name": "",
          "type": "address"
        }
      ],
      "name": "userToRequestId",
      "outputs": [
        {
          "internalType": "uint256",
          "name": "",
          "type": "uint256"
        }
      ],
      "stateMutability": "view",
      "type": "function"
    },
    {
      "inputs": [],
      "name": "vrfRequestPrice",
      "outputs": [
        {
          "internalType": "uint256",
          "name": "",
          "type": "uint256"
        }
      ],
      "stateMutability": "view",
      "type": "function"
    },
    {
      "inputs": [],
      "name": "withdrawBNB",
      "outputs": [],
      "stateMutability": "nonpayable",
      "type": "function"
    },
    {
      "inputs": [],
      "name": "withdrawLink",
      "outputs": [],
      "stateMutability": "nonpayable",
      "type": "function"
    },
    {
      "stateMutability": "payable",
      "type": "receive"
    }
  ],
  "bytecode": "0x60c0346200012857601f6200203c38819003918201601f19168301916001600160401b038311848410176200012d57808492604094855283398101031262000128576200005a6020620000528362000143565b920162000143565b6001600160a01b03918216608052811660a05233156200010f576000543360018060a01b0319821617600055604051913391167f8be0079c531659141344cd1fd0a4f28419497f9722a3daafe3b4186f6b6457e0600080a36001805564030007a12065ffffffffffff196002541617600255660110d9316ec0006003556611c37937e08000600455611ee390816200015982396080518181816104f40152611b0a015260a0518181816113130152611a550152f35b604051631e4fbdf760e01b815260006004820152602490fd5b600080fd5b634e487b7160e01b600052604160045260246000fd5b51906001600160a01b0382168203620001285756fe6080604052600436101561001b575b361561001957600080fd5b005b6000803560e01c806312e8e2c3146116bb5780631d111d13146116385780631fe543e31461128a57806324f746971461126657806326232a2e146112485780634c52b16c14610ddf5780635681dbe914610dad57806367561d9314610d3e578063715018a614610ce45780637ae316d014610cba57806381d12c5814610b5a57806386ac73f61461072057806387fe97e4146101915780638824f5a7146106d45780638c46877e146106825780638da5cb5b1461065b5780638dc654a2146104bb578063a4eb718c1461047a578063ab63e4831461042c578063b0fb162f14610408578063d35db10d146103cf578063d5b9221b146103a4578063d8a4676f146102cb578063f2fa73921461023f578063f2fde38b146101af578063fcfa2217146101915763fe9fbb8014610150575061000e565b3461018e57602036600319011261018e5760209060ff906040906001600160a01b0361017a611779565b168152600684522054166040519015158152f35b80fd5b503461018e578060031936011261018e576020600454604051908152f35b503461018e57602036600319011261018e576101c9611779565b6101d161184a565b6001600160a01b0390811690811561022657600054826bffffffffffffffffffffffff60a01b821617600055167f8be0079c531659141344cd1fd0a4f28419497f9722a3daafe3b4186f6b6457e0600080a380f35b604051631e4fbdf760e01b815260048101849052602490fd5b503461018e57604036600319011261018e57610259611779565b60243590811515908183036102c7577f2c59b8f31260880424e870332281eba93ddfef67e37d699cebe5a7ba89f7a8a6916102bd60209261029861184a565b60018060a01b03169485875260068452604087209060ff801983541691151516179055565b604051908152a280f35b8380fd5b503461018e576020908160031936011261018e579060043582526005815260408220906040516102fa81611709565b82546001600160a01b038116825261031a9060a01c60ff16838301611876565b6001936103288585016118bc565b6040830152600360ff60028601541694606084019515158652019060405195868588968554928381520194845280842093905b82821061038c5787898160808a610374838c0384611757565b0152511515610388604051928392836117c3565b0390f35b8454865289975094850194938301939083019061035b565b503461018e57602036600319011261018e5760209060ff906040906001600160a01b0361017a611779565b503461018e57602036600319011261018e576020906040906001600160a01b036103f7611779565b168152600783522054604051908152f35b503461018e578060031936011261018e57602060025461ffff60405191831c168152f35b503461018e57602036600319011261018e577fdef0b3e1ef5e27c284a9888d216f57fb09944d106d73a9a6962a84704ca18079602060043561046c61184a565b80600455604051908152a180f35b503461018e57602036600319011261018e5760043563ffffffff81168091036104b6576104a561184a565b63ffffffff19600254161760025580f35b600080fd5b503461018e578060031936011261018e576104d461184a565b6040516370a0823160e01b81523060048201526020906001600160a01b037f0000000000000000000000000000000000000000000000000000000000000000811691908382602481865afa918215610650578592610621575b5081156105e657906044849286541686604051958694859363a9059cbb60e01b8552600485015260248401525af19081156105db5783916105ae575b5015610573575080f35b6064906040519062461bcd60e51b82526004820152601460248201527313125392c81d1c985b9cd9995c8819985a5b195960621b6044820152fd5b6105ce9150823d84116105d4575b6105c68183611757565b810190611a16565b38610569565b503d6105bc565b6040513d85823e3d90fd5b60405162461bcd60e51b81526004810185905260136024820152724e6f204c494e4b20746f20776974686472617760681b6044820152606490fd5b9091508381813d8311610649575b6106398183611757565b810103126104b65751903861052d565b503d61062f565b6040513d87823e3d90fd5b503461018e578060031936011261018e57546040516001600160a01b039091168152602090f35b503461018e57604036600319011261018e5761069c611779565b6001600160a01b03168152600860205260408120805460243591908210156106d05782526020918290200154604051908152f35b8280fd5b503461018e57602036600319011261018e5760043561ffff8116810361071c576106fc61184a565b65ffff000000006002549160201b169065ffff0000000019161760025580f35b5080fd5b50608036600319011261018e57610735611779565b602435906044359160ff83168093036104b657338452600660205261076060ff604086205416611962565b610768611c19565b6107776004546003549061199f565b906108226020610819600c61078b86611c58565b61079434611c58565b6040519485926107e36107d68386017f5652463a20496e73756666696369656e74206665652e2052657175697265643a8152600160fd1b602082015260210190565b9182815194859201611802565b016b016102932b1b2b4bb32b21d160a51b81526108098251809360208785019101611802565b0103601319810184520182611757565b833410156119c2565b61084160025463ffffffff908184169161ffff8260201c169116611a2e565b936040519060018060a01b03809516928360208401526040830152606082015260643560808201526080815261087681611709565b604051906108838261173b565b8682526040519061089382611709565b3382526020820188815260408301918252606083019689885260808401948552888a52600560205260408a20935116835491516004811015610b465760ff60a01b9060a01b16916affffffffffffffffffffff60a81b16171782555194855167ffffffffffffffff8111610b325760019661091088850154611882565b601f8111610af5575b50602090601f8311600114610a835791806003959492610966948d92610a78575b505060001982871b1c191690891b17838901555b511515600283019060ff801983541691151516179055565b0190519081519167ffffffffffffffff8311610a6457600160401b8311610a64576020908254848455808510610a4a575b50019087526020872085885b848110610a37575050505050845260076020528260408520558034116109ff575b6020838360405160008152827fca93f1e54f3c66e2912d6bd1a268c4ce86b4ed8f63e77c73a8ea55d4a3a3f674853393a38055604051908152f35b838080610a0d819434611a09565b818115610a2e575b3390f115610a2357826109c4565b6040513d84823e3d90fd5b506108fc610a15565b60208451940193818401550186906109a3565b838a52828a20610a5e9181019086016119f2565b38610997565b634e487b7160e01b88526041600452602488fd5b01519050388061093a565b8892918386018c5260208c20918c5b601f1985168110610add575091839161096695936003989795601f19811610610ac5575b505050811b018884015561094e565b015160001983891b60f8161c19169055388080610ab6565b8183015184558b959093019260209283019201610a92565b610b22908986018c5260208c20601f850160051c81019160208610610b28575b601f0160051c01906119f2565b38610919565b9091508190610b15565b634e487b7160e01b89526041600452602489fd5b634e487b7160e01b8b52602160045260248bfd5b503461018e576020908160031936011261018e5760606080604051610b7e81611709565b8381528385820152826040820152838382015201526004358152600582526040812060405191610bad83611709565b81546001600160a01b0380821685528585019391610bd19060a01c60ff1685611876565b600193610bdf8584016118bc565b9060408701918252600360ff60028601541694606089019515158652019260405193848a825491828152019188528a882090885b818110610ca75750505091610c5191610c3286610c6396950387611757565b60808a01958652604051998b8b5251168a8a01525160408901906117df565b5160a0606088015260c0870190611825565b91511515608086015251848203601f190160a0860152805180835291860195908101925b828110610c945785870386f35b8351875295810195928101928401610c87565b82548452928c0192918a01918a01610c13565b503461018e578060031936011261018e576020610cdc6004546003549061199f565b604051908152f35b503461018e578060031936011261018e57610cfd61184a565b600080546001600160a01b0319811682556001600160a01b03167f8be0079c531659141344cd1fd0a4f28419497f9722a3daafe3b4186f6b6457e08280a380f35b503461018e57602036600319011261018e57610d58611779565b610d6061184a565b60018060a01b0316808252600660205260408220600160ff198254161790557f2c59b8f31260880424e870332281eba93ddfef67e37d699cebe5a7ba89f7a8a6602060405160018152a280f35b503461018e57602036600319011261018e57610dcf610dca611779565b611dc0565b90610388604051928392836117c3565b50606036600319011261018e5760048035101561018e5763ffffffff60243516602435036104b65767ffffffffffffffff6044351161018e5736602360443501121561018e5767ffffffffffffffff604435600401351161018e573660246044356004013560443501011161018e573381526006602052610e6660ff604083205416611962565b610e6e611c19565b610e7d6004546003549061199f565b610e996020610e90600c61078b85611c58565b823410156119c2565b610eb76002546024359063ffffffff61ffff8260201c169116611a2e565b90604051610ec48161173b565b83815260405190610ed482611709565b338252610ee660043560208401611876565b610ef560443560040135611c3c565b90610f036040519283611757565b604435600481013580845290602401602084013785602060443560040135840101526040830191825285606084015260808301528385526005602052604085209060018060a01b0383511682549060208501516004811015611234576001600160a81b03199092161760a09190911b60ff60a01b161782555180519067ffffffffffffffff821161122057610f9b6001840154611882565b601f81116111ed575b50602090601f831160011461117c579180608094926003948a92611171575b505060001982851b1c1916600191821b17908201555b610ff860608501511515600283019060ff801983541691151516179055565b019101519081519167ffffffffffffffff831161115d57600160401b831161115d576020908254848455808510611143575b500190855260208520855b83811061112f5750505050600435158015611123575b6110d6575b80341161109c575b60208260405161106a816004356117df565b817fca93f1e54f3c66e2912d6bd1a268c4ce86b4ed8f63e77c73a8ea55d4a3a3f674843393a360018055604051908152f35b8280806110aa819434611a09565b8181156110cd575b3390f1156110c05781611058565b50604051903d90823e3d90fd5b506108fc6110b2565b60806044356004810135810103126106d057602460443501356001600160a01b038116908190036102c7576064604435013560ff8116036104b65783526007602052816040842055611050565b5060016004351461104b565b600190602084519401938184015501611035565b8388528288206111579181019086016119f2565b3861102a565b634e487b7160e01b86526041600452602486fd5b015190503880610fc3565b906001840188526020882091885b601f19851681106111d55750926080949260019260039583601f198116106111bd575b505050811b016001820155610fd9565b015160001983871b60f8161c191690553880806111ad565b9192602060018192868501518155019401920161118a565b61121a9060018501895260208920601f850160051c81019160208610610b2857601f0160051c01906119f2565b38610fa4565b634e487b7160e01b87526041600452602487fd5b634e487b7160e01b89526021600452602489fd5b503461018e578060031936011261018e576020600354604051908152f35b503461018e578060031936011261018e57602063ffffffff60025416604051908152f35b503461018e57604036600319011261018e57602490600435823567ffffffffffffffff8082116102c757366023830112156102c757816004013590808211611625578160051b604051936020936112e385840187611757565b8552838501888193830101913683116116215789869101915b83831061161157506001600160a01b0393925050507f0000000000000000000000000000000000000000000000000000000000000000821633036115cd57858752600584526040872090600282019081549160ff8316611595576001809360ff19161790556003830190875186811161151d57600160401b92838211611530578b8154838355838b82821061157a575b5050505082908c52888c20858d5b84811061156857505050505060ff845460a01c1660048110156115555783811591821561154b575b5050611478575b505050541690813b1561147457856040518093630a8cba3560e21b825287600483015260408a830152818381611402604482018b61178f565b03925af161144a575b5050907f9f1a143e0ae48a733432a8f7f1c23bf13298022ac471e7a2557a4008932985919161144460405192828493845283019061178f565b0390a280f35b81959295116114615760405292935083388061140b565b634e487b7160e01b825260416004528582fd5b8580fd5b6114838385016118bc565b608081805181010312611543578781015190868216809203611547576060015160ff811603611543578a526008875260408a209088519287841161153057831161151d578a8254848455848a828210611502575b50505050908a52868a208a5b8381106114f15750506113c9565b8251828201559188019184016114e3565b838661151495522091820191016119f2565b8a38848a6114d7565b634e487b7160e01b8b5260416004528b8bfd5b634e487b7160e01b8c5260416004528c8cfd5b8a80fd5b8b80fd5b14905083386113c2565b634e487b7160e01b8b5260216004528b8bfd5b8b84519401938184015501869061139a565b838561158c95522091820191016119f2565b8b38838b61138c565b60405162461bcd60e51b8152600481018890526011818d015270105b1c9958591e48199d5b199a5b1b1959607a1b6044820152606490fd5b60405162461bcd60e51b815260048101859052601f818a01527f6f6e6c792056524620563220777261707065722063616e2066756c66696c6c006044820152606490fd5b82358152918101918691016112fc565b8880fd5b634e487b7160e01b855260416004528585fd5b503461018e578060031936011261018e5761165161184a565b47801561168157815482918291829182916001600160a01b031682f1156116755780f35b604051903d90823e3d90fd5b60405162461bcd60e51b81526020600482015260126024820152714e6f20424e4220746f20776974686472617760701b6044820152606490fd5b503461018e57602036600319011261018e577f45610d581145924dd7090a5017e5f2b1d6f42213bb2e95707ff86846bbfcb1ca60206004356116fb61184a565b80600355604051908152a180f35b60a0810190811067ffffffffffffffff82111761172557604052565b634e487b7160e01b600052604160045260246000fd5b6020810190811067ffffffffffffffff82111761172557604052565b90601f8019910116810190811067ffffffffffffffff82111761172557604052565b600435906001600160a01b03821682036104b657565b90815180825260208080930193019160005b8281106117af575050505090565b8351855293810193928101926001016117a1565b6040906117dc939215158152816020820152019061178f565b90565b9060048210156117ec5752565b634e487b7160e01b600052602160045260246000fd5b60005b8381106118155750506000910152565b8181015183820152602001611805565b9060209161183e81518092818552858086019101611802565b601f01601f1916010190565b6000546001600160a01b0316330361185e57565b60405163118cdaa760e01b8152336004820152602490fd5b60048210156117ec5752565b90600182811c921680156118b2575b602083101461189c57565b634e487b7160e01b600052602260045260246000fd5b91607f1691611891565b90604051918260008254926118d084611882565b90818452600194858116908160001461193f57506001146118fc575b50506118fa92500383611757565b565b9093915060005260209081600020936000915b8183106119275750506118fa935082010138806118ec565b8554888401850152948501948794509183019161190f565b9150506118fa94506020925060ff191682840152151560051b82010138806118ec565b1561196957565b60405162461bcd60e51b815260206004820152600e60248201526d139bdd08185d5d1a1bdc9a5e995960921b6044820152606490fd5b919082018092116119ac57565b634e487b7160e01b600052601160045260246000fd5b156119ca5750565b60405162461bcd60e51b8152602060048201529081906119ee906024830190611825565b0390fd5b8181106119fd575050565b600081556001016119f2565b919082039182116119ac57565b908160209103126104b6575180151581036104b65790565b604080516310c1b4d560e21b815263ffffffff928316600482018190526001600160a01b037f000000000000000000000000000000000000000000000000000000000000000081169796939560209592949192919086856024818d5afa948515611c0e57600095611bdd575b5061ffff9088519688880152168786015216606084015260608352608083019183831067ffffffffffffffff84111761172557828652630200057560e51b83526084840188905260a4840152606060c484015283908290816000607f1987611b0560e4820182611825565b0301927f0000000000000000000000000000000000000000000000000000000000000000165af18015611bd2579160049596918493611ba0575b5050835163fc2a88c360e01b815294859182905afa918215611b965750600091611b6a575b50905090565b82813d8311611b8f575b611b7e8183611757565b8101031261018e5750518038611b64565b503d611b74565b513d6000823e3d90fd5b6080611bc29285903d8711611bca575b611bba8285611757565b010190611a16565b503880611b3f565b3d9150611bb0565b84513d6000823e3d90fd5b90948782813d8311611c07575b611bf48183611757565b8101031261018e5750519361ffff611a9a565b503d611bea565b88513d6000823e3d90fd5b600260015414611c2a576002600155565b604051633ee5aeb560e01b8152600490fd5b67ffffffffffffffff811161172557601f01601f191660200190565b806000917a184f03e93ff9f4daa797ed6e38ed64bf6a1f01000000000000000080821015611db2575b506d04ee2d6d415b85acef810000000080831015611da3575b50662386f26fc1000080831015611d94575b506305f5e10080831015611d85575b5061271080831015611d76575b506064821015611d66575b600a80921015611d5c575b60019081602181860195611cf187611c3c565b96611cff6040519889611757565b808852611d0e601f1991611c3c565b01366020890137860101905b611d26575b5050505090565b600019019083906f181899199a1a9b1b9c1cb0b131b232b360811b8282061a835304918215611d5757919082611d1a565b611d1f565b9160010191611cde565b9190606460029104910191611cd3565b60049193920491019138611cc8565b60089193920491019138611cbb565b60109193920491019138611cac565b60209193920491019138611c9a565b604093508104915038611c81565b6001600160a01b03908116600090815260076020908152604080832054919493918015611e93578395929193526005825282852092611e1960ff825193611e0685611709565b8654908116855260a01c16848401611876565b600195611e278786016118bc565b82840152600360ff6002870154169560608501961515875201915196878589968554928381520194845280842093905b828210611e7b57505050505090611e72836080930384611757565b01525115159190565b845486528a9750948501949383019390830190611e57565b50519350611ea290508361173b565b80835280368137919056fea264697066735822122025015739ca6f8873e65c2aedbb36f2d636457ec1faf39d7d49bbf78c2796383964736f6c63430008140033",
  "linkReferences": {},
  "deployedLinkReferences": {}
}